{
  "contractName": "RandomEmitter",
  "abi": [
    {
      "inputs": [
        {
          "internalType": "address",
          "name": "_vrfCoordinator",
          "type": "address"
        },
        {
          "internalType": "address",
          "name": "_linkToken",
          "type": "address"
        },
        {
          "internalType": "bytes32",
          "name": "_keyHash",
          "type": "bytes32"
        }
      ],
      "stateMutability": "nonpayable",
      "type": "constructor"
    },
    {
      "anonymous": false,
      "inputs": [
        {
          "indexed": false,
          "internalType": "uint256",
          "name": "randomNumber",
          "type": "uint256"
        }
      ],
      "name": "RandomNumber",
      "type": "event"
    },
    {
      "anonymous": false,
      "inputs": [
        {
          "indexed": false,
          "internalType": "bytes32",
          "name": "requestId",
          "type": "bytes32"
        }
      ],
      "name": "Request",
      "type": "event"
    },
    {
      "inputs": [],
      "name": "contractNumber",
      "outputs": [
        {
          "internalType": "uint256",
          "name": "",
          "type": "uint256"
        }
      ],
      "stateMutability": "view",
      "type": "function"
    },
    {
      "inputs": [],
      "name": "currentRequestId",
      "outputs": [
        {
          "internalType": "bytes32",
          "name": "",
          "type": "bytes32"
        }
      ],
      "stateMutability": "view",
      "type": "function"
    },
    {
      "inputs": [],
      "name": "owner",
      "outputs": [
        {
          "internalType": "address",
          "name": "",
          "type": "address"
        }
      ],
      "stateMutability": "view",
      "type": "function"
    },
    {
      "inputs": [
        {
          "internalType": "bytes32",
          "name": "requestId",
          "type": "bytes32"
        },
        {
          "internalType": "uint256",
          "name": "randomness",
          "type": "uint256"
        }
      ],
      "name": "rawFulfillRandomness",
      "outputs": [],
      "stateMutability": "nonpayable",
      "type": "function"
    },
    {
      "inputs": [],
      "name": "requestRandomNumber",
      "outputs": [],
      "stateMutability": "nonpayable",
      "type": "function"
    }
  ],
  "bytecode": "0x60c060405260006001553480156200001657600080fd5b5060405162000c3338038062000c3383398181016040528101906200003c91906200012d565b82828173ffffffffffffffffffffffffffffffffffffffff1660a08173ffffffffffffffffffffffffffffffffffffffff1660601b815250508073ffffffffffffffffffffffffffffffffffffffff1660808173ffffffffffffffffffffffffffffffffffffffff1660601b81525050505033600260006101000a81548173ffffffffffffffffffffffffffffffffffffffff021916908373ffffffffffffffffffffffffffffffffffffffff1602179055508060038190555050505062000200565b6000815190506200011081620001cc565b92915050565b6000815190506200012781620001e6565b92915050565b600080600060608486031215620001495762000148620001c7565b5b60006200015986828701620000ff565b93505060206200016c86828701620000ff565b92505060406200017f8682870162000116565b9150509250925092565b60006200019682620001a7565b9050919050565b6000819050919050565b600073ffffffffffffffffffffffffffffffffffffffff82169050919050565b600080fd5b620001d78162000189565b8114620001e357600080fd5b50565b620001f1816200019d565b8114620001fd57600080fd5b50565b60805160601c60a05160601c610a00620002336000396000818161015f015261023f015260006102030152610a006000f3fe608060405234801561001057600080fd5b50600436106100575760003560e01c80635ae2bfdb1461005c5780638678a7b21461007a5780638da5cb5b1461008457806394985ddd146100a2578063cbfbcc17146100be575b600080fd5b6100646100dc565b604051610071919061068e565b60405180910390f35b6100826100e2565b005b61008c610137565b6040516100999190610635565b60405180910390f35b6100bc60048036038101906100b791906104ef565b61015d565b005b6100c66101f9565b6040516100d39190610757565b60405180910390f35b60045481565b6100f660035467016345785d8a00006101ff565b6004819055507f6f2c84d547103c34c868d8ad161cf5c513d18a7d50d65e15d16be17707f461ba60045460405161012d919061068e565b60405180910390a1565b600260009054906101000a900473ffffffffffffffffffffffffffffffffffffffff1681565b7f000000000000000000000000000000000000000000000000000000000000000073ffffffffffffffffffffffffffffffffffffffff163373ffffffffffffffffffffffffffffffffffffffff16146101eb576040517f08c379a00000000000000000000000000000000000000000000000000000000081526004016101e290610737565b60405180910390fd5b6101f5828261035e565b5050565b60015481565b60007f000000000000000000000000000000000000000000000000000000000000000073ffffffffffffffffffffffffffffffffffffffff16634000aea07f0000000000000000000000000000000000000000000000000000000000000000848660006040516020016102739291906106a9565b6040516020818303038152906040526040518463ffffffff1660e01b81526004016102a093929190610650565b602060405180830381600087803b1580156102ba57600080fd5b505af11580156102ce573d6000803e3d6000fd5b505050506040513d601f19601f820116820180604052508101906102f291906104c2565b5060006103148460003060008089815260200190815260200160002054610414565b9050600160008086815260200190815260200160002054610335919061079f565b600080868152602001908152602001600020819055506103558482610450565b91505092915050565b60045482146103a2576040517f08c379a000000000000000000000000000000000000000000000000000000000815260040161039990610717565b60405180910390fd5b60016032826103b1919061088e565b6103bb919061079f565b6001819055507fec6cdc8e735e4069f6e89062582f3e5532a8e71373e7ef2962fa916cf2af21f260016032836103f1919061088e565b6103fb919061079f565b6040516104089190610757565b60405180910390a15050565b60008484848460405160200161042d94939291906106d2565b6040516020818303038152906040528051906020012060001c9050949350505050565b60008282604051602001610465929190610609565b60405160208183030381529060405280519060200120905092915050565b60008151905061049281610985565b92915050565b6000813590506104a78161099c565b92915050565b6000813590506104bc816109b3565b92915050565b6000602082840312156104d8576104d761091d565b5b60006104e684828501610483565b91505092915050565b600080604083850312156105065761050561091d565b5b600061051485828601610498565b9250506020610525858286016104ad565b9150509250929050565b610538816107f5565b82525050565b61054781610813565b82525050565b61055e61055982610813565b61087a565b82525050565b600061056f82610772565b610579818561077d565b9350610589818560208601610847565b61059281610922565b840191505092915050565b60006105aa60198361078e565b91506105b582610933565b602082019050919050565b60006105cd601f8361078e565b91506105d88261095c565b602082019050919050565b6105ec8161083d565b82525050565b6106036105fe8261083d565b610884565b82525050565b6000610615828561054d565b60208201915061062582846105f2565b6020820191508190509392505050565b600060208201905061064a600083018461052f565b92915050565b6000606082019050610665600083018661052f565b61067260208301856105e3565b81810360408301526106848184610564565b9050949350505050565b60006020820190506106a3600083018461053e565b92915050565b60006040820190506106be600083018561053e565b6106cb60208301846105e3565b9392505050565b60006080820190506106e7600083018761053e565b6106f460208301866105e3565b610701604083018561052f565b61070e60608301846105e3565b95945050505050565b600060208201905081810360008301526107308161059d565b9050919050565b60006020820190508181036000830152610750816105c0565b9050919050565b600060208201905061076c60008301846105e3565b92915050565b600081519050919050565b600082825260208201905092915050565b600082825260208201905092915050565b60006107aa8261083d565b91506107b58361083d565b9250827fffffffffffffffffffffffffffffffffffffffffffffffffffffffffffffffff038211156107ea576107e96108bf565b5b828201905092915050565b60006108008261081d565b9050919050565b60008115159050919050565b6000819050919050565b600073ffffffffffffffffffffffffffffffffffffffff82169050919050565b6000819050919050565b60005b8381101561086557808201518184015260208101905061084a565b83811115610874576000848401525b50505050565b6000819050919050565b6000819050919050565b60006108998261083d565b91506108a48361083d565b9250826108b4576108b36108ee565b5b828206905092915050565b7f4e487b7100000000000000000000000000000000000000000000000000000000600052601160045260246000fd5b7f4e487b7100000000000000000000000000000000000000000000000000000000600052601260045260246000fd5b600080fd5b6000601f19601f8301169050919050565b7f5468652072657175657374496420697320696e76616c69642e00000000000000600082015250565b7f4f6e6c7920565246436f6f7264696e61746f722063616e2066756c66696c6c00600082015250565b61098e81610807565b811461099957600080fd5b50565b6109a581610813565b81146109b057600080fd5b50565b6109bc8161083d565b81146109c757600080fd5b5056fea26469706673582212204a3ddb1f083aeaf385c943944c6ec963c9d5327fe218f74f427c553514b4d9fc64736f6c63430008070033",
  "immutableReferences": {
    "3892": [
      {
        "length": 32,
        "start": 515
      }
    ],
    "3894": [
      {
        "length": 32,
        "start": 351
      },
      {
        "length": 32,
        "start": 575
      }
    ]
  },
  "source": "// SPDX-License-Identifier: UNLICENSED\npragma solidity ^0.8.0;\n\nimport \"@chainlink/contracts/src/v0.8/VRFConsumerBase.sol\";\n\ncontract RandomEmitter is VRFConsumerBase {\n\n  uint public contractNumber = 0;\n  address public owner;\n\n  bytes32 internal keyHash;\n  bytes32 public currentRequestId;\n\n  event Request(bytes32 requestId);\n  event RandomNumber(uint randomNumber);\n\n  constructor(\n    address _vrfCoordinator,\n    address _linkToken,\n    bytes32 _keyHash\n  ) VRFConsumerBase(_vrfCoordinator, _linkToken) {\n    owner = msg.sender;\n    keyHash = _keyHash;\n  }\n\n  /// @dev Sends a random number request to the Chainlink VRF system.\n  function requestRandomNumber() external {\n    currentRequestId = requestRandomness(keyHash, 0.1 ether);\n    emit Request(currentRequestId);\n  }\n\n  /// @dev Called by Chainlink VRF random number provider.\n  function fulfillRandomness(bytes32 requestId, uint randomness) internal override {\n    require(requestId == currentRequestId, \"The requestId is invalid.\");\n\n    contractNumber = (randomness % 50) + 1;\n\n    emit RandomNumber((randomness % 50) + 1);\n  }\n}",
  "sourcePath": "/Users/blakehatch/Viridian-Exchange-Contracts/contracts/RandomNumber.sol",
  "compiler": {
    "name": "solc",
    "version": "0.8.7+commit.e28d00a7.Emscripten.clang"
  },
  "schemaVersion": "3.4.1",
  "updatedAt": "2021-08-26T20:21:52.209Z",
  "devdoc": {
    "kind": "dev",
    "methods": {
      "requestRandomNumber()": {
        "details": "Sends a random number request to the Chainlink VRF system."
      }
    },
    "version": 1
  },
  "userdoc": {
    "kind": "user",
    "methods": {},
    "version": 1
  }
}