{
  "contractName": "RandomEmitter",
  "abi": [
    {
      "inputs": [
        {
          "internalType": "address",
          "name": "_vrfCoordinator",
          "type": "address"
        },
        {
          "internalType": "address",
          "name": "_linkToken",
          "type": "address"
        },
        {
          "internalType": "bytes32",
          "name": "_keyHash",
          "type": "bytes32"
        }
      ],
      "stateMutability": "nonpayable",
      "type": "constructor"
    },
    {
      "anonymous": false,
      "inputs": [
        {
          "indexed": false,
          "internalType": "uint256",
          "name": "randomNumber",
          "type": "uint256"
        }
      ],
      "name": "RandomNumber",
      "type": "event"
    },
    {
      "anonymous": false,
      "inputs": [
        {
          "indexed": false,
          "internalType": "bytes32",
          "name": "requestId",
          "type": "bytes32"
        }
      ],
      "name": "Request",
      "type": "event"
    },
    {
      "inputs": [],
      "name": "contractNumber",
      "outputs": [
        {
          "internalType": "uint256",
          "name": "",
          "type": "uint256"
        }
      ],
      "stateMutability": "view",
      "type": "function"
    },
    {
      "inputs": [],
      "name": "currentRequestId",
      "outputs": [
        {
          "internalType": "bytes32",
          "name": "",
          "type": "bytes32"
        }
      ],
      "stateMutability": "view",
      "type": "function"
    },
    {
      "inputs": [],
      "name": "owner",
      "outputs": [
        {
          "internalType": "address",
          "name": "",
          "type": "address"
        }
      ],
      "stateMutability": "view",
      "type": "function"
    },
    {
      "inputs": [
        {
          "internalType": "bytes32",
          "name": "requestId",
          "type": "bytes32"
        },
        {
          "internalType": "uint256",
          "name": "randomness",
          "type": "uint256"
        }
      ],
      "name": "rawFulfillRandomness",
      "outputs": [],
      "stateMutability": "nonpayable",
      "type": "function"
    },
    {
      "inputs": [],
      "name": "requestRandomNumber",
      "outputs": [],
      "stateMutability": "nonpayable",
      "type": "function"
    }
  ],
  "bytecode": "0x60c0604052600060015534801561001557600080fd5b5060405162000c0e38038062000c0e8339818101604052810190610039919061018e565b82828173ffffffffffffffffffffffffffffffffffffffff1660a08173ffffffffffffffffffffffffffffffffffffffff16815250508073ffffffffffffffffffffffffffffffffffffffff1660808173ffffffffffffffffffffffffffffffffffffffff1681525050505033600260006101000a81548173ffffffffffffffffffffffffffffffffffffffff021916908373ffffffffffffffffffffffffffffffffffffffff160217905550806003819055505050506101e1565b600080fd5b600073ffffffffffffffffffffffffffffffffffffffff82169050919050565b6000610125826100fa565b9050919050565b6101358161011a565b811461014057600080fd5b50565b6000815190506101528161012c565b92915050565b6000819050919050565b61016b81610158565b811461017657600080fd5b50565b60008151905061018881610162565b92915050565b6000806000606084860312156101a7576101a66100f5565b5b60006101b586828701610143565b93505060206101c686828701610143565b92505060406101d786828701610179565b9150509250925092565b60805160a051610a006200020e6000396000818161015f015261023f015260006102030152610a006000f3fe608060405234801561001057600080fd5b50600436106100575760003560e01c80635ae2bfdb1461005c5780638678a7b21461007a5780638da5cb5b1461008457806394985ddd146100a2578063cbfbcc17146100be575b600080fd5b6100646100dc565b604051610071919061049c565b60405180910390f35b6100826100e2565b005b61008c610137565b60405161009991906104f8565b60405180910390f35b6100bc60048036038101906100b7919061057a565b61015d565b005b6100c66101f9565b6040516100d391906105c9565b60405180910390f35b60045481565b6100f660035467016345785d8a00006101ff565b6004819055507f6f2c84d547103c34c868d8ad161cf5c513d18a7d50d65e15d16be17707f461ba60045460405161012d919061049c565b60405180910390a1565b600260009054906101000a900473ffffffffffffffffffffffffffffffffffffffff1681565b7f000000000000000000000000000000000000000000000000000000000000000073ffffffffffffffffffffffffffffffffffffffff163373ffffffffffffffffffffffffffffffffffffffff16146101eb576040517f08c379a00000000000000000000000000000000000000000000000000000000081526004016101e290610641565b60405180910390fd5b6101f5828261035e565b5050565b60015481565b60007f000000000000000000000000000000000000000000000000000000000000000073ffffffffffffffffffffffffffffffffffffffff16634000aea07f000000000000000000000000000000000000000000000000000000000000000084866000604051602001610273929190610661565b6040516020818303038152906040526040518463ffffffff1660e01b81526004016102a093929190610723565b602060405180830381600087803b1580156102ba57600080fd5b505af11580156102ce573d6000803e3d6000fd5b505050506040513d601f19601f820116820180604052508101906102f29190610799565b5060006103148460003060008089815260200190815260200160002054610414565b905060016000808681526020019081526020016000205461033591906107f5565b600080868152602001908152602001600020819055506103558482610450565b91505092915050565b60045482146103a2576040517f08c379a000000000000000000000000000000000000000000000000000000000815260040161039990610897565b60405180910390fd5b60016032826103b191906108e6565b6103bb91906107f5565b6001819055507fec6cdc8e735e4069f6e89062582f3e5532a8e71373e7ef2962fa916cf2af21f260016032836103f191906108e6565b6103fb91906107f5565b60405161040891906105c9565b60405180910390a15050565b60008484848460405160200161042d9493929190610917565b6040516020818303038152906040528051906020012060001c9050949350505050565b6000828260405160200161046592919061099e565b60405160208183030381529060405280519060200120905092915050565b6000819050919050565b61049681610483565b82525050565b60006020820190506104b1600083018461048d565b92915050565b600073ffffffffffffffffffffffffffffffffffffffff82169050919050565b60006104e2826104b7565b9050919050565b6104f2816104d7565b82525050565b600060208201905061050d60008301846104e9565b92915050565b600080fd5b61052181610483565b811461052c57600080fd5b50565b60008135905061053e81610518565b92915050565b6000819050919050565b61055781610544565b811461056257600080fd5b50565b6000813590506105748161054e565b92915050565b6000806040838503121561059157610590610513565b5b600061059f8582860161052f565b92505060206105b085828601610565565b9150509250929050565b6105c381610544565b82525050565b60006020820190506105de60008301846105ba565b92915050565b600082825260208201905092915050565b7f4f6e6c7920565246436f6f7264696e61746f722063616e2066756c66696c6c00600082015250565b600061062b601f836105e4565b9150610636826105f5565b602082019050919050565b6000602082019050818103600083015261065a8161061e565b9050919050565b6000604082019050610676600083018561048d565b61068360208301846105ba565b9392505050565b600081519050919050565b600082825260208201905092915050565b60005b838110156106c45780820151818401526020810190506106a9565b838111156106d3576000848401525b50505050565b6000601f19601f8301169050919050565b60006106f58261068a565b6106ff8185610695565b935061070f8185602086016106a6565b610718816106d9565b840191505092915050565b600060608201905061073860008301866104e9565b61074560208301856105ba565b818103604083015261075781846106ea565b9050949350505050565b60008115159050919050565b61077681610761565b811461078157600080fd5b50565b6000815190506107938161076d565b92915050565b6000602082840312156107af576107ae610513565b5b60006107bd84828501610784565b91505092915050565b7f4e487b7100000000000000000000000000000000000000000000000000000000600052601160045260246000fd5b600061080082610544565b915061080b83610544565b9250827fffffffffffffffffffffffffffffffffffffffffffffffffffffffffffffffff038211156108405761083f6107c6565b5b828201905092915050565b7f5468652072657175657374496420697320696e76616c69642e00000000000000600082015250565b60006108816019836105e4565b915061088c8261084b565b602082019050919050565b600060208201905081810360008301526108b081610874565b9050919050565b7f4e487b7100000000000000000000000000000000000000000000000000000000600052601260045260246000fd5b60006108f182610544565b91506108fc83610544565b92508261090c5761090b6108b7565b5b828206905092915050565b600060808201905061092c600083018761048d565b61093960208301866105ba565b61094660408301856104e9565b61095360608301846105ba565b95945050505050565b6000819050919050565b61097761097282610483565b61095c565b82525050565b6000819050919050565b61099861099382610544565b61097d565b82525050565b60006109aa8285610966565b6020820191506109ba8284610987565b602082019150819050939250505056fea264697066735822122062736821de7565c8f9ed6042341dc4e5e33c41feef038cd07e0a992f9cb958c064736f6c63430008090033",
  "immutableReferences": {
    "6626": [
      {
        "length": 32,
        "start": 515
      }
    ],
    "6628": [
      {
        "length": 32,
        "start": 351
      },
      {
        "length": 32,
        "start": 575
      }
    ]
  },
  "source": "// SPDX-License-Identifier: UNLICENSED\npragma solidity ^0.8.0;\n\nimport \"@chainlink/contracts/src/v0.8/VRFConsumerBase.sol\";\n\ncontract RandomEmitter is VRFConsumerBase {\n\n  uint public contractNumber = 0;\n  address public owner;\n\n  bytes32 internal keyHash;\n  bytes32 public currentRequestId;\n\n  event Request(bytes32 requestId);\n  event RandomNumber(uint randomNumber);\n\n  constructor(\n    address _vrfCoordinator,\n    address _linkToken,\n    bytes32 _keyHash\n  ) VRFConsumerBase(_vrfCoordinator, _linkToken) {\n    owner = msg.sender;\n    keyHash = _keyHash;\n  }\n\n  /// @dev Sends a random number request to the Chainlink VRF system.\n  function requestRandomNumber() external {\n    currentRequestId = requestRandomness(keyHash, 0.1 ether);\n    emit Request(currentRequestId);\n  }\n\n  /// @dev Called by Chainlink VRF random number provider.\n  function fulfillRandomness(bytes32 requestId, uint randomness) internal override {\n    require(requestId == currentRequestId, \"The requestId is invalid.\");\n\n    contractNumber = (randomness % 50) + 1;\n\n    emit RandomNumber((randomness % 50) + 1);\n  }\n}",
  "sourcePath": "/Users/blakehatch/Viridian-Exchange-Contracts/contracts/RandomNumber.sol",
  "compiler": {
    "name": "solc",
    "version": "0.8.9+commit.e5eed63a.Emscripten.clang"
  },
  "schemaVersion": "3.4.1",
  "updatedAt": "2021-10-15T05:24:00.967Z",
  "devdoc": {
    "kind": "dev",
    "methods": {
      "requestRandomNumber()": {
        "details": "Sends a random number request to the Chainlink VRF system."
      }
    },
    "version": 1
  },
  "userdoc": {
    "kind": "user",
    "methods": {},
    "version": 1
  }
}