{
  "contractName": "Token",
  "abi": [
    {
      "anonymous": false,
      "inputs": [
        {
          "indexed": true,
          "internalType": "address",
          "name": "_owner",
          "type": "address"
        },
        {
          "indexed": true,
          "internalType": "address",
          "name": "_spender",
          "type": "address"
        },
        {
          "indexed": false,
          "internalType": "uint256",
          "name": "_value",
          "type": "uint256"
        }
      ],
      "name": "Approval",
      "type": "event"
    },
    {
      "anonymous": false,
      "inputs": [
        {
          "indexed": true,
          "internalType": "address",
          "name": "_from",
          "type": "address"
        },
        {
          "indexed": true,
          "internalType": "address",
          "name": "_to",
          "type": "address"
        },
        {
          "indexed": false,
          "internalType": "uint256",
          "name": "_value",
          "type": "uint256"
        }
      ],
      "name": "Transfer",
      "type": "event"
    },
    {
      "inputs": [],
      "name": "totalSupply",
      "outputs": [
        {
          "internalType": "uint256",
          "name": "supply",
          "type": "uint256"
        }
      ],
      "stateMutability": "view",
      "type": "function"
    },
    {
      "inputs": [
        {
          "internalType": "address",
          "name": "_owner",
          "type": "address"
        }
      ],
      "name": "balanceOf",
      "outputs": [
        {
          "internalType": "uint256",
          "name": "balance",
          "type": "uint256"
        }
      ],
      "stateMutability": "view",
      "type": "function"
    },
    {
      "inputs": [
        {
          "internalType": "address",
          "name": "_to",
          "type": "address"
        },
        {
          "internalType": "uint256",
          "name": "_value",
          "type": "uint256"
        }
      ],
      "name": "transfer",
      "outputs": [
        {
          "internalType": "bool",
          "name": "success",
          "type": "bool"
        }
      ],
      "stateMutability": "nonpayable",
      "type": "function"
    },
    {
      "inputs": [
        {
          "internalType": "address",
          "name": "_from",
          "type": "address"
        },
        {
          "internalType": "address",
          "name": "_to",
          "type": "address"
        },
        {
          "internalType": "uint256",
          "name": "_value",
          "type": "uint256"
        }
      ],
      "name": "transferFrom",
      "outputs": [
        {
          "internalType": "bool",
          "name": "success",
          "type": "bool"
        }
      ],
      "stateMutability": "nonpayable",
      "type": "function"
    },
    {
      "inputs": [
        {
          "internalType": "address",
          "name": "_spender",
          "type": "address"
        },
        {
          "internalType": "uint256",
          "name": "_value",
          "type": "uint256"
        }
      ],
      "name": "approve",
      "outputs": [
        {
          "internalType": "bool",
          "name": "success",
          "type": "bool"
        }
      ],
      "stateMutability": "nonpayable",
      "type": "function"
    },
    {
      "inputs": [
        {
          "internalType": "address",
          "name": "_owner",
          "type": "address"
        },
        {
          "internalType": "address",
          "name": "_spender",
          "type": "address"
        }
      ],
      "name": "allowance",
      "outputs": [
        {
          "internalType": "uint256",
          "name": "remaining",
          "type": "uint256"
        }
      ],
      "stateMutability": "view",
      "type": "function"
    }
  ],
  "bytecode": "0x608060405234801561001057600080fd5b506103d1806100206000396000f3fe608060405234801561001057600080fd5b50600436106100625760003560e01c8063095ea7b31461006757806318160ddd1461009757806323b872dd146100b557806370a08231146100e5578063a9059cbb14610115578063dd62ed3e14610145575b600080fd5b610081600480360381019061007c919061028c565b610175565b60405161008e91906102ea565b60405180910390f35b61009f61017d565b6040516100ac9190610305565b60405180910390f35b6100cf60048036038101906100ca9190610239565b610182565b6040516100dc91906102ea565b60405180910390f35b6100ff60048036038101906100fa91906101cc565b61018b565b60405161010c9190610305565b60405180910390f35b61012f600480360381019061012a919061028c565b610192565b60405161013c91906102ea565b60405180910390f35b61015f600480360381019061015a91906101f9565b61019a565b60405161016c9190610305565b60405180910390f35b600092915050565b600090565b60009392505050565b6000919050565b600092915050565b600092915050565b6000813590506101b18161036d565b92915050565b6000813590506101c681610384565b92915050565b6000602082840312156101e2576101e1610368565b5b60006101f0848285016101a2565b91505092915050565b600080604083850312156102105761020f610368565b5b600061021e858286016101a2565b925050602061022f858286016101a2565b9150509250929050565b60008060006060848603121561025257610251610368565b5b6000610260868287016101a2565b9350506020610271868287016101a2565b9250506040610282868287016101b7565b9150509250925092565b600080604083850312156102a3576102a2610368565b5b60006102b1858286016101a2565b92505060206102c2858286016101b7565b9150509250929050565b6102d581610332565b82525050565b6102e48161035e565b82525050565b60006020820190506102ff60008301846102cc565b92915050565b600060208201905061031a60008301846102db565b92915050565b600061032b8261033e565b9050919050565b60008115159050919050565b600073ffffffffffffffffffffffffffffffffffffffff82169050919050565b6000819050919050565b600080fd5b61037681610320565b811461038157600080fd5b50565b61038d8161035e565b811461039857600080fd5b5056fea264697066735822122026bc5d3f5e8fa4cf4b179887d181d2c51ab6429838c85d010970162c8bb94c2164736f6c63430008060033",
  "immutableReferences": {},
  "source": "pragma solidity ^0.8.0;\n\nimport \"@openzeppelin/contracts/token/ERC20/IERC20.sol\";\nimport \"@openzeppelin/contracts/access/Ownable.sol\";\n\ncontract Token {\n    /// @return supply : total amount of tokens\n    function totalSupply() virtual external view returns (uint256 supply) {}\n\n    /// @param _owner The address from which the balance will be retrieved\n    /// @return balance : The balance\n    function balanceOf(address _owner) virtual public view returns (uint256 balance) {}\n\n    /// @notice send `_value` token to `_to` from `msg.sender`\n    /// @param _to The address of the recipient\n    /// @param _value The amount of token to be transferred\n    /// @return success : Whether the transfer was successful or not\n    function transfer(address _to, uint256 _value) virtual public returns (bool success) {}\n\n    /// @notice send `_value` token to `_to` from `_from` on the condition it is approved by `_from`\n    /// @param _from The address of the sender\n    /// @param _to The address of the recipient\n    /// @param _value The amount of token to be transferred\n    /// @return success : Whether the transfer was successful or not\n    function transferFrom(address _from, address _to, uint256 _value) virtual public returns (bool success) {}\n\n    /// @notice `msg.sender` approves `_addr` to spend `_value` tokens\n    /// @param _spender The address of the account able to transfer the tokens\n    /// @param _value The amount of wei to be approved for transfer\n    /// @return success : Whether the approval was successful or not\n    function approve(address _spender, uint256 _value) virtual public returns (bool success) {}\n\n    /// @param _owner The address of the account owning tokens\n    /// @param _spender The address of the account able to transfer the tokens\n    /// @return remaining : Amount of remaining tokens allowed to spent\n    function allowance(address _owner, address _spender) virtual public view returns (uint256 remaining) {}\n\n    event Transfer(address indexed _from, address indexed _to, uint256 _value);\n    event Approval(address indexed _owner, address indexed _spender, uint256 _value);\n    \n}\n\n\ncontract StandardToken is Token {\n    uint256 whaleCooldown = 1 days;\n\n    function transfer(address _to, uint256 _value) public override returns (bool success) {\n        //Default assumes totalSupply can't be over max (2^256 - 1).\n        //If your token leaves out totalSupply and can issue more tokens as time goes on, you need to check if it doesn't wrap.\n        //Replace the if with this one instead.\n        //if (balances[msg.sender] >= _value && balances[_to] + _value > balances[_to]) {\n        require(balances[msg.sender] >= _value);\n        // if (balances[msg.sender] >= 1000000) {\n        //     require(_value <= balances[msg.sender] / 4);\n        //     require(cooldowns[msg.sender] <= block.timestamp);\n        //     cooldowns[msg.sender] = block.timestamp + whaleCooldown;\n        // }\n        balances[msg.sender] -= _value;\n        balances[_to] += _value;\n        emit Transfer(msg.sender, _to, _value); //solhint-disable-line indent, no-unused-vars\n        return true;\n    }\n\n    function transferFrom(address _from, address _to, uint256 _value) public override returns (bool success) {\n        //same as above. Replace this line with the following if you want to protect against wrapping uints.\n        //if (balances[_from] >= _value && allowed[_from][msg.sender] >= _value && balances[_to] + _value > balances[_to]) {\n        uint256 allowance_ = allowed[_from][msg.sender];\n        require(balances[_from] >= _value && allowance_ >= _value);\n        // if (balances[_from] >= 1000000) {\n        //     require(_value <= balances[_from] / 4);\n        //     require(cooldowns[msg.sender] <= block.timestamp);\n        //     cooldowns[msg.sender] = block.timestamp + whaleCooldown;\n        // }\n        balances[_to] += _value;\n        balances[_from] -= _value;\n        if (allowance_ < 2**256 - 1) {\n            allowed[_from][msg.sender] -= _value;\n        }\n        emit Transfer(_from, _to, _value); //solhint-disable-line indent, no-unused-vars\n        return true;\n    }\n\n    function balanceOf(address _owner) view public override returns (uint256 balance) {\n        return balances[_owner];\n    }\n\n    function approve(address _spender, uint256 _value) public override returns (bool success) {\n        allowed[msg.sender][_spender] = _value;\n        emit Approval(msg.sender, _spender, _value);\n        return true;\n    }\n\n    function allowance(address _owner, address _spender) view public override returns (uint256 remaining) {\n      return allowed[_owner][_spender];\n    }\n\n    mapping (address => uint256) balances;\n    mapping (address => uint256) cooldowns;\n    mapping (address => mapping (address => uint256)) allowed;\n    uint256 public override totalSupply;\n}\n\n\n//name this contract whatever you'd like\ncontract ViridianToken is StandardToken {\n\n    fallback () external {\n        //if ether is sent to this address, send it back.\n        revert();\n    }\n\n    /* Public variables of the token */\n\n    /*\n    NOTE:\n    The following variables are OPTIONAL vanities. One does not have to include them.\n    They allow one to customise the token contract & in no way influences the core functionality.\n    Some wallets/interfaces might not even bother to look at this information.\n    */\n    string public name;                   //fancy name: eg Simon Bucks\n    uint8 public decimals;                //How many decimals to show. ie. There could 1000 base units with 3 decimals. Meaning 0.980 SBX = 980 base units. It's like comparing 1 wei to 1 ether.\n    string public symbol;                 //An identifier: eg SBX\n    string public version = 'H1.0';       //human 0.1 standard. Just an arbitrary versioning scheme.\n\n    //\n    // CHANGE THESE VALUES FOR YOUR TOKEN\n    //\n\n    //make sure this function name matches the contract name above. So if you're token is called TutorialToken, make sure the //contract name above is also TutorialToken instead of ERC20Token\n\n    constructor() {\n        balances[msg.sender] = 15000000;               // Give the creator all initial tokens (100000 for example)\n        totalSupply = 100000000;                        // Update total supply (100000 for example)\n        name = \"Viridian Token\";                                   // Set the name for display purposes\n        decimals = 0;                            // Amount of decimals for display purposes\n        symbol = \"VEXT\";                               // Set the symbol for display purposes\n        cooldowns[msg.sender] = 0;               // Set the cooldowns to 0 to start\n    }\n\n    /* Approves and then calls the receiving contract */\n    function approveAndCall(address _spender, uint256 _value, bytes memory _extraData) public payable returns (bool success) {\n        allowed[msg.sender][_spender] = _value;\n        emit Approval(msg.sender, _spender, _value);\n\n        //call the receiveApproval function on the contract you want to be notified. This crafts the function signature manually so one doesn't have to include a contract in here just for this.\n        //receiveApproval(address _from, uint256 _value, address _tokenContract, bytes _extraData)\n        //it is assumed that when does this that the call *should* succeed, otherwise one would use vanilla approve instead.\n        // if(!_spender.call(bytes4(bytes32(sha3(\"receiveApproval(address,uint256,address,bytes)\"))), msg.sender, _value, this, _extraData)) { revert(); }\n        (bool call_success, bytes memory data) = _spender.call{value: msg.value, gas: 5000}(\n                abi.encodeWithSignature(\"receiveApproval(address,uint256,address,bytes)\", msg.sender, _value, this, _extraData)\n            );\n        \n        if (!call_success) {\n            revert();\n        }\n        return true;\n    }\n}\n",
  "sourcePath": "/Users/blakehatch/Viridian-Exchange-Contracts/contracts/ViridianToken.sol",
  "compiler": {
    "name": "solc",
    "version": "0.8.6+commit.11564f7e.Emscripten.clang"
  },
  "schemaVersion": "3.4.1",
  "updatedAt": "2021-07-06T18:25:10.139Z",
  "devdoc": {
    "kind": "dev",
    "methods": {
      "allowance(address,address)": {
        "params": {
          "_owner": "The address of the account owning tokens",
          "_spender": "The address of the account able to transfer the tokens"
        },
        "returns": {
          "remaining": ": Amount of remaining tokens allowed to spent"
        }
      },
      "approve(address,uint256)": {
        "params": {
          "_spender": "The address of the account able to transfer the tokens",
          "_value": "The amount of wei to be approved for transfer"
        },
        "returns": {
          "success": ": Whether the approval was successful or not"
        }
      },
      "balanceOf(address)": {
        "params": {
          "_owner": "The address from which the balance will be retrieved"
        },
        "returns": {
          "balance": ": The balance"
        }
      },
      "totalSupply()": {
        "returns": {
          "supply": ": total amount of tokens"
        }
      },
      "transfer(address,uint256)": {
        "params": {
          "_to": "The address of the recipient",
          "_value": "The amount of token to be transferred"
        },
        "returns": {
          "success": ": Whether the transfer was successful or not"
        }
      },
      "transferFrom(address,address,uint256)": {
        "params": {
          "_from": "The address of the sender",
          "_to": "The address of the recipient",
          "_value": "The amount of token to be transferred"
        },
        "returns": {
          "success": ": Whether the transfer was successful or not"
        }
      }
    },
    "version": 1
  },
  "userdoc": {
    "kind": "user",
    "methods": {
      "approve(address,uint256)": {
        "notice": "`msg.sender` approves `_addr` to spend `_value` tokens"
      },
      "transfer(address,uint256)": {
        "notice": "send `_value` token to `_to` from `msg.sender`"
      },
      "transferFrom(address,address,uint256)": {
        "notice": "send `_value` token to `_to` from `_from` on the condition it is approved by `_from`"
      }
    },
    "version": 1
  }
}