{
  "contractName": "ViridianPack",
  "abi": [
    {
      "inputs": [
        {
          "internalType": "address",
          "name": "_viridianNFT",
          "type": "address"
        }
      ],
      "stateMutability": "nonpayable",
      "type": "constructor"
    },
    {
      "anonymous": false,
      "inputs": [
        {
          "indexed": true,
          "internalType": "address",
          "name": "owner",
          "type": "address"
        },
        {
          "indexed": true,
          "internalType": "address",
          "name": "approved",
          "type": "address"
        },
        {
          "indexed": true,
          "internalType": "uint256",
          "name": "tokenId",
          "type": "uint256"
        }
      ],
      "name": "Approval",
      "type": "event"
    },
    {
      "anonymous": false,
      "inputs": [
        {
          "indexed": true,
          "internalType": "address",
          "name": "owner",
          "type": "address"
        },
        {
          "indexed": true,
          "internalType": "address",
          "name": "operator",
          "type": "address"
        },
        {
          "indexed": false,
          "internalType": "bool",
          "name": "approved",
          "type": "bool"
        }
      ],
      "name": "ApprovalForAll",
      "type": "event"
    },
    {
      "anonymous": false,
      "inputs": [
        {
          "indexed": true,
          "internalType": "address",
          "name": "previousOwner",
          "type": "address"
        },
        {
          "indexed": true,
          "internalType": "address",
          "name": "newOwner",
          "type": "address"
        }
      ],
      "name": "OwnershipTransferred",
      "type": "event"
    },
    {
      "anonymous": false,
      "inputs": [
        {
          "indexed": true,
          "internalType": "address",
          "name": "from",
          "type": "address"
        },
        {
          "indexed": true,
          "internalType": "address",
          "name": "to",
          "type": "address"
        },
        {
          "indexed": true,
          "internalType": "uint256",
          "name": "tokenId",
          "type": "uint256"
        }
      ],
      "name": "Transfer",
      "type": "event"
    },
    {
      "inputs": [
        {
          "internalType": "address",
          "name": "to",
          "type": "address"
        },
        {
          "internalType": "uint256",
          "name": "tokenId",
          "type": "uint256"
        }
      ],
      "name": "approve",
      "outputs": [],
      "stateMutability": "nonpayable",
      "type": "function"
    },
    {
      "inputs": [
        {
          "internalType": "address",
          "name": "owner",
          "type": "address"
        }
      ],
      "name": "balanceOf",
      "outputs": [
        {
          "internalType": "uint256",
          "name": "",
          "type": "uint256"
        }
      ],
      "stateMutability": "view",
      "type": "function",
      "constant": true
    },
    {
      "inputs": [
        {
          "internalType": "uint256",
          "name": "tokenId",
          "type": "uint256"
        }
      ],
      "name": "getApproved",
      "outputs": [
        {
          "internalType": "address",
          "name": "",
          "type": "address"
        }
      ],
      "stateMutability": "view",
      "type": "function",
      "constant": true
    },
    {
      "inputs": [
        {
          "internalType": "address",
          "name": "owner",
          "type": "address"
        },
        {
          "internalType": "address",
          "name": "operator",
          "type": "address"
        }
      ],
      "name": "isApprovedForAll",
      "outputs": [
        {
          "internalType": "bool",
          "name": "",
          "type": "bool"
        }
      ],
      "stateMutability": "view",
      "type": "function",
      "constant": true
    },
    {
      "inputs": [],
      "name": "name",
      "outputs": [
        {
          "internalType": "string",
          "name": "",
          "type": "string"
        }
      ],
      "stateMutability": "view",
      "type": "function",
      "constant": true
    },
    {
      "inputs": [],
      "name": "owner",
      "outputs": [
        {
          "internalType": "address",
          "name": "",
          "type": "address"
        }
      ],
      "stateMutability": "view",
      "type": "function",
      "constant": true
    },
    {
      "inputs": [
        {
          "internalType": "uint256",
          "name": "tokenId",
          "type": "uint256"
        }
      ],
      "name": "ownerOf",
      "outputs": [
        {
          "internalType": "address",
          "name": "",
          "type": "address"
        }
      ],
      "stateMutability": "view",
      "type": "function",
      "constant": true
    },
    {
      "inputs": [],
      "name": "renounceOwnership",
      "outputs": [],
      "stateMutability": "nonpayable",
      "type": "function"
    },
    {
      "inputs": [
        {
          "internalType": "address",
          "name": "operator",
          "type": "address"
        },
        {
          "internalType": "bool",
          "name": "approved",
          "type": "bool"
        }
      ],
      "name": "setApprovalForAll",
      "outputs": [],
      "stateMutability": "nonpayable",
      "type": "function"
    },
    {
      "inputs": [
        {
          "internalType": "bytes4",
          "name": "interfaceId",
          "type": "bytes4"
        }
      ],
      "name": "supportsInterface",
      "outputs": [
        {
          "internalType": "bool",
          "name": "",
          "type": "bool"
        }
      ],
      "stateMutability": "view",
      "type": "function",
      "constant": true
    },
    {
      "inputs": [],
      "name": "symbol",
      "outputs": [
        {
          "internalType": "string",
          "name": "",
          "type": "string"
        }
      ],
      "stateMutability": "view",
      "type": "function",
      "constant": true
    },
    {
      "inputs": [
        {
          "internalType": "address",
          "name": "newOwner",
          "type": "address"
        }
      ],
      "name": "transferOwnership",
      "outputs": [],
      "stateMutability": "nonpayable",
      "type": "function"
    },
    {
      "inputs": [],
      "name": "viridianNFTAddr",
      "outputs": [
        {
          "internalType": "address",
          "name": "",
          "type": "address"
        }
      ],
      "stateMutability": "view",
      "type": "function",
      "constant": true
    },
    {
      "inputs": [
        {
          "internalType": "string",
          "name": "baseURI_",
          "type": "string"
        }
      ],
      "name": "setBaseURI",
      "outputs": [],
      "stateMutability": "nonpayable",
      "type": "function"
    },
    {
      "inputs": [
        {
          "internalType": "uint256",
          "name": "tokenId",
          "type": "uint256"
        }
      ],
      "name": "tokenURI",
      "outputs": [
        {
          "internalType": "string",
          "name": "",
          "type": "string"
        }
      ],
      "stateMutability": "view",
      "type": "function",
      "constant": true
    },
    {
      "inputs": [
        {
          "internalType": "uint256",
          "name": "_rarity",
          "type": "uint256"
        }
      ],
      "name": "getUriRarityPools",
      "outputs": [
        {
          "internalType": "string[]",
          "name": "",
          "type": "string[]"
        }
      ],
      "stateMutability": "view",
      "type": "function",
      "constant": true
    },
    {
      "inputs": [],
      "name": "getOwnedNFTs",
      "outputs": [
        {
          "internalType": "uint256[]",
          "name": "",
          "type": "uint256[]"
        }
      ],
      "stateMutability": "view",
      "type": "function",
      "constant": true
    },
    {
      "inputs": [
        {
          "internalType": "uint256",
          "name": "_rarity",
          "type": "uint256"
        },
        {
          "internalType": "uint256",
          "name": "_rarityOdd",
          "type": "uint256"
        },
        {
          "internalType": "uint256",
          "name": "_newOdds",
          "type": "uint256"
        }
      ],
      "name": "setRarityOdds",
      "outputs": [],
      "stateMutability": "nonpayable",
      "type": "function"
    },
    {
      "inputs": [
        {
          "internalType": "address",
          "name": "_to",
          "type": "address"
        },
        {
          "internalType": "string",
          "name": "tokenURI_",
          "type": "string"
        }
      ],
      "name": "mint",
      "outputs": [],
      "stateMutability": "nonpayable",
      "type": "function"
    },
    {
      "inputs": [
        {
          "internalType": "string",
          "name": "uri",
          "type": "string"
        },
        {
          "internalType": "uint256",
          "name": "rarity",
          "type": "uint256"
        }
      ],
      "name": "softMintNFT",
      "outputs": [],
      "stateMutability": "payable",
      "type": "function",
      "payable": true
    },
    {
      "inputs": [
        {
          "internalType": "string",
          "name": "_s",
          "type": "string"
        },
        {
          "internalType": "string",
          "name": "_s1",
          "type": "string"
        }
      ],
      "name": "compareStrings",
      "outputs": [
        {
          "internalType": "bool",
          "name": "",
          "type": "bool"
        }
      ],
      "stateMutability": "pure",
      "type": "function",
      "constant": true
    },
    {
      "inputs": [
        {
          "internalType": "uint256",
          "name": "_tokenId",
          "type": "uint256"
        }
      ],
      "name": "openPack",
      "outputs": [],
      "stateMutability": "nonpayable",
      "type": "function"
    },
    {
      "inputs": [
        {
          "internalType": "uint256",
          "name": "tokenId",
          "type": "uint256"
        }
      ],
      "name": "burn",
      "outputs": [],
      "stateMutability": "nonpayable",
      "type": "function"
    },
    {
      "inputs": [
        {
          "internalType": "address",
          "name": "recipient",
          "type": "address"
        },
        {
          "internalType": "string",
          "name": "hash",
          "type": "string"
        },
        {
          "internalType": "string",
          "name": "metadata",
          "type": "string"
        }
      ],
      "name": "awardItem",
      "outputs": [
        {
          "internalType": "uint256",
          "name": "",
          "type": "uint256"
        }
      ],
      "stateMutability": "nonpayable",
      "type": "function"
    },
    {
      "inputs": [
        {
          "internalType": "address",
          "name": "from",
          "type": "address"
        },
        {
          "internalType": "address",
          "name": "to",
          "type": "address"
        },
        {
          "internalType": "uint256",
          "name": "tokenId",
          "type": "uint256"
        }
      ],
      "name": "safeTransferFrom",
      "outputs": [],
      "stateMutability": "nonpayable",
      "type": "function"
    },
    {
      "inputs": [
        {
          "internalType": "address",
          "name": "from",
          "type": "address"
        },
        {
          "internalType": "address",
          "name": "to",
          "type": "address"
        },
        {
          "internalType": "uint256",
          "name": "tokenId",
          "type": "uint256"
        },
        {
          "internalType": "bytes",
          "name": "_data",
          "type": "bytes"
        }
      ],
      "name": "safeTransferFrom",
      "outputs": [],
      "stateMutability": "nonpayable",
      "type": "function"
    },
    {
      "inputs": [
        {
          "internalType": "address",
          "name": "from",
          "type": "address"
        },
        {
          "internalType": "address",
          "name": "to",
          "type": "address"
        },
        {
          "internalType": "uint256",
          "name": "tokenId",
          "type": "uint256"
        }
      ],
      "name": "transferFrom",
      "outputs": [],
      "stateMutability": "nonpayable",
      "type": "function"
    }
  ],
  "bytecode": "0x60806040523480156200001157600080fd5b50604051620054c7380380620054c783398181016040528101906200003791906200069a565b6040518060400160405280600d81526020017f566972696469616e205061636b000000000000000000000000000000000000008152506040518060400160405280600281526020017f56500000000000000000000000000000000000000000000000000000000000008152508160009080519060200190620000bb929190620005d3565b508060019080519060200190620000d4929190620005d3565b505050620000f7620000eb6200050560201b60201c565b6200050d60201b60201c565b600073ffffffffffffffffffffffffffffffffffffffff168173ffffffffffffffffffffffffffffffffffffffff1614156200013257600080fd5b80600f60006101000a81548173ffffffffffffffffffffffffffffffffffffffff021916908373ffffffffffffffffffffffffffffffffffffffff160217905550600f60009054906101000a900473ffffffffffffffffffffffffffffffffffffffff16601060006101000a81548173ffffffffffffffffffffffffffffffffffffffff021916908373ffffffffffffffffffffffffffffffffffffffff1602179055506019600a60008081526020019081526020016000206000808152602001908152602001600020819055506064600a60008081526020019081526020016000206000600181526020019081526020016000208190555061012c600a6000808152602001908152602001600020600060028152602001908152602001600020819055506103e8600a6000808152602001908152602001600020600060038152602001908152602001600020819055506003600b6000808152602001908152602001600020819055506001600a6000600181526020019081526020016000206000808152602001908152602001600020819055506032600a6000600181526020019081526020016000206000600181526020019081526020016000208190555060c8600a600060018152602001908152602001600020600060028152602001908152602001600020819055506103e8600a600060018152602001908152602001600020600060038152602001908152602001600020819055506003600b6000808152602001908152602001600020819055506000600a6000600181526020019081526020016000206000808152602001908152602001600020819055506032600a600060018152602001908152602001600020600060018152602001908152602001600020819055506064600a600060018152602001908152602001600020600060028152602001908152602001600020819055506103e8600a600060018152602001908152602001600020600060038152602001908152602001600020819055506003600b6000808152602001908152602001600020819055506000600a600060028152602001908152602001600020600080815260200190815260200160002081905550600a80600060028152602001908152602001600020600060018152602001908152602001600020819055506032600a600060028152602001908152602001600020600060028152602001908152602001600020819055506103e8600a600060028152602001908152602001600020600060038152602001908152602001600020819055506003600b6000808152602001908152602001600020819055506003600e819055505062000784565b600033905090565b6000600660009054906101000a900473ffffffffffffffffffffffffffffffffffffffff16905081600660006101000a81548173ffffffffffffffffffffffffffffffffffffffff021916908373ffffffffffffffffffffffffffffffffffffffff1602179055508173ffffffffffffffffffffffffffffffffffffffff168173ffffffffffffffffffffffffffffffffffffffff167f8be0079c531659141344cd1fd0a4f28419497f9722a3daafe3b4186f6b6457e060405160405180910390a35050565b828054620005e19062000700565b90600052602060002090601f01602090048101928262000605576000855562000651565b82601f106200062057805160ff191683800117855562000651565b8280016001018555821562000651579182015b828111156200065057825182559160200191906001019062000633565b5b50905062000660919062000664565b5090565b5b808211156200067f57600081600090555060010162000665565b5090565b60008151905062000694816200076a565b92915050565b600060208284031215620006b357620006b262000765565b5b6000620006c38482850162000683565b91505092915050565b6000620006d982620006e0565b9050919050565b600073ffffffffffffffffffffffffffffffffffffffff82169050919050565b600060028204905060018216806200071957607f821691505b6020821081141562000730576200072f62000736565b5b50919050565b7f4e487b7100000000000000000000000000000000000000000000000000000000600052602260045260246000fd5b600080fd5b6200077581620006cc565b81146200078157600080fd5b50565b614d3380620007946000396000f3fe60806040526004361061019c5760003560e01c8063715018a6116100ec578063a80f1e9c1161008a578063c87b56dd11610064578063c87b56dd146105c7578063d0def52114610604578063e985e9c51461062d578063f2fde38b1461066a5761019c565b8063a80f1e9c14610538578063b88d4fde14610561578063bed34bba1461058a5761019c565b806395d89b41116100c657806395d89b411461047c578063a203428c146104a7578063a22cb465146104e4578063a3524a041461050d5761019c565b8063715018a6146103fd5780638bfaf101146104145780638da5cb5b146104515761019c565b806342842e0e1161015957806350a88c7e1161013357806350a88c7e1461033157806355f804b31461035a5780636352211e1461038357806370a08231146103c05761019c565b806342842e0e146102b457806342966c68146102dd5780634c0eb7d9146103065761019c565b806301ffc9a7146101a157806306fdde03146101de578063081812fc14610209578063095ea7b3146102465780630e0659311461026f57806323b872dd1461028b575b600080fd5b3480156101ad57600080fd5b506101c860048036038101906101c39190613854565b610693565b6040516101d59190614036565b60405180910390f35b3480156101ea57600080fd5b506101f3610775565b6040516102009190614051565b60405180910390f35b34801561021557600080fd5b50610230600480360381019061022b91906139cb565b610807565b60405161023d9190613f5b565b60405180910390f35b34801561025257600080fd5b5061026d60048036038101906102689190613814565b61088c565b005b6102896004803603810190610284919061396f565b6109a4565b005b34801561029757600080fd5b506102b260048036038101906102ad9190613617565b610a71565b005b3480156102c057600080fd5b506102db60048036038101906102d69190613617565b610d20565b005b3480156102e957600080fd5b5061030460048036038101906102ff91906139cb565b610ffa565b005b34801561031257600080fd5b5061031b611252565b6040516103289190614014565b60405180910390f35b34801561033d57600080fd5b50610358600480360381019061035391906139cb565b6112ed565b005b34801561036657600080fd5b50610381600480360381019061037c91906138ae565b61179f565b005b34801561038f57600080fd5b506103aa60048036038101906103a591906139cb565b611835565b6040516103b79190613f5b565b60405180910390f35b3480156103cc57600080fd5b506103e760048036038101906103e291906135aa565b6118e7565b6040516103f49190614293565b60405180910390f35b34801561040957600080fd5b5061041261199f565b005b34801561042057600080fd5b5061043b60048036038101906104369190613789565b611a27565b6040516104489190614293565b60405180910390f35b34801561045d57600080fd5b50610466611ad4565b6040516104739190613f5b565b60405180910390f35b34801561048857600080fd5b50610491611afe565b60405161049e9190614051565b60405180910390f35b3480156104b357600080fd5b506104ce60048036038101906104c991906139cb565b611b90565b6040516104db9190613ff2565b60405180910390f35b3480156104f057600080fd5b5061050b600480360381019061050691906136ed565b611cf8565b005b34801561051957600080fd5b50610522611e79565b60405161052f9190613f5b565b60405180910390f35b34801561054457600080fd5b5061055f600480360381019061055a91906139f8565b611e9f565b005b34801561056d57600080fd5b506105886004803603810190610583919061366a565b611f49565b005b34801561059657600080fd5b506105b160048036038101906105ac91906138f7565b611fab565b6040516105be9190614036565b60405180910390f35b3480156105d357600080fd5b506105ee60048036038101906105e991906139cb565b612004565b6040516105fb9190614051565b60405180910390f35b34801561061057600080fd5b5061062b6004803603810190610626919061372d565b612177565b005b34801561063957600080fd5b50610654600480360381019061064f91906135d7565b6122b6565b6040516106619190614036565b60405180910390f35b34801561067657600080fd5b50610691600480360381019061068c91906135aa565b61234a565b005b60007f80ac58cd000000000000000000000000000000000000000000000000000000007bffffffffffffffffffffffffffffffffffffffffffffffffffffffff1916827bffffffffffffffffffffffffffffffffffffffffffffffffffffffff1916148061075e57507f5b5e139f000000000000000000000000000000000000000000000000000000007bffffffffffffffffffffffffffffffffffffffffffffffffffffffff1916827bffffffffffffffffffffffffffffffffffffffffffffffffffffffff1916145b8061076e575061076d82612442565b5b9050919050565b60606000805461078490614579565b80601f01602080910402602001604051908101604052809291908181526020018280546107b090614579565b80156107fd5780601f106107d2576101008083540402835291602001916107fd565b820191906000526020600020905b8154815290600101906020018083116107e057829003601f168201915b5050505050905090565b6000610812826124ac565b610851576040517f08c379a0000000000000000000000000000000000000000000000000000000008152600401610848906141b3565b60405180910390fd5b6004600083815260200190815260200160002060009054906101000a900473ffffffffffffffffffffffffffffffffffffffff169050919050565b600061089782611835565b90508073ffffffffffffffffffffffffffffffffffffffff168373ffffffffffffffffffffffffffffffffffffffff161415610908576040517f08c379a00000000000000000000000000000000000000000000000000000000081526004016108ff90614253565b60405180910390fd5b8073ffffffffffffffffffffffffffffffffffffffff16610927612518565b73ffffffffffffffffffffffffffffffffffffffff161480610956575061095581610950612518565b6122b6565b5b610995576040517f08c379a000000000000000000000000000000000000000000000000000000000815260040161098c90614133565b60405180910390fd5b61099f8383612520565b505050565b6109ac612518565b73ffffffffffffffffffffffffffffffffffffffff166109ca611ad4565b73ffffffffffffffffffffffffffffffffffffffff1614610a20576040517f08c379a0000000000000000000000000000000000000000000000000000000008152600401610a17906141f3565b60405180910390fd5b600d600082815260200190815260200160002082908060018154018082558091505060019003906000526020600020016000909190919091509080519060200190610a6c9291906132fa565b505050565b60005b601360003373ffffffffffffffffffffffffffffffffffffffff1673ffffffffffffffffffffffffffffffffffffffff16815260200190815260200160002080549050811015610ca9576000601360003373ffffffffffffffffffffffffffffffffffffffff1673ffffffffffffffffffffffffffffffffffffffff1681526020019081526020016000208281548110610b1157610b1061476a565b5b9060005260206000200154905082811415610c9557601360003373ffffffffffffffffffffffffffffffffffffffff1673ffffffffffffffffffffffffffffffffffffffff1681526020019081526020016000206001601360003373ffffffffffffffffffffffffffffffffffffffff1673ffffffffffffffffffffffffffffffffffffffff16815260200190815260200160002080549050610bb49190614482565b81548110610bc557610bc461476a565b5b9060005260206000200154601360003373ffffffffffffffffffffffffffffffffffffffff1673ffffffffffffffffffffffffffffffffffffffff1681526020019081526020016000208381548110610c2157610c2061476a565b5b9060005260206000200181905550601360003373ffffffffffffffffffffffffffffffffffffffff1673ffffffffffffffffffffffffffffffffffffffff168152602001908152602001600020805480610c7e57610c7d61473b565b5b600190038181906000526020600020016000905590555b508080610ca1906145dc565b915050610a74565b50601360008373ffffffffffffffffffffffffffffffffffffffff1673ffffffffffffffffffffffffffffffffffffffff168152602001908152602001600020819080600181540180825580915050600190039060005260206000200160009091909190915055610d1b8383836125d9565b505050565b6012600082815260200190815260200160002060009054906101000a900460ff1615610d4b57600080fd5b60005b601360003373ffffffffffffffffffffffffffffffffffffffff1673ffffffffffffffffffffffffffffffffffffffff16815260200190815260200160002080549050811015610f83576000601360003373ffffffffffffffffffffffffffffffffffffffff1673ffffffffffffffffffffffffffffffffffffffff1681526020019081526020016000208281548110610deb57610dea61476a565b5b9060005260206000200154905082811415610f6f57601360003373ffffffffffffffffffffffffffffffffffffffff1673ffffffffffffffffffffffffffffffffffffffff1681526020019081526020016000206001601360003373ffffffffffffffffffffffffffffffffffffffff1673ffffffffffffffffffffffffffffffffffffffff16815260200190815260200160002080549050610e8e9190614482565b81548110610e9f57610e9e61476a565b5b9060005260206000200154601360003373ffffffffffffffffffffffffffffffffffffffff1673ffffffffffffffffffffffffffffffffffffffff1681526020019081526020016000208381548110610efb57610efa61476a565b5b9060005260206000200181905550601360003373ffffffffffffffffffffffffffffffffffffffff1673ffffffffffffffffffffffffffffffffffffffff168152602001908152602001600020805480610f5857610f5761473b565b5b600190038181906000526020600020016000905590555b508080610f7b906145dc565b915050610d4e565b50601360008373ffffffffffffffffffffffffffffffffffffffff1673ffffffffffffffffffffffffffffffffffffffff168152602001908152602001600020819080600181540180825580915050600190039060005260206000200160009091909190915055610ff5838383612639565b505050565b6110043382612659565b61100d57600080fd5b60005b601360003373ffffffffffffffffffffffffffffffffffffffff1673ffffffffffffffffffffffffffffffffffffffff16815260200190815260200160002080549050811015611245576000601360003373ffffffffffffffffffffffffffffffffffffffff1673ffffffffffffffffffffffffffffffffffffffff16815260200190815260200160002082815481106110ad576110ac61476a565b5b906000526020600020015490508281141561123157601360003373ffffffffffffffffffffffffffffffffffffffff1673ffffffffffffffffffffffffffffffffffffffff1681526020019081526020016000206001601360003373ffffffffffffffffffffffffffffffffffffffff1673ffffffffffffffffffffffffffffffffffffffff168152602001908152602001600020805490506111509190614482565b815481106111615761116061476a565b5b9060005260206000200154601360003373ffffffffffffffffffffffffffffffffffffffff1673ffffffffffffffffffffffffffffffffffffffff16815260200190815260200160002083815481106111bd576111bc61476a565b5b9060005260206000200181905550601360003373ffffffffffffffffffffffffffffffffffffffff1673ffffffffffffffffffffffffffffffffffffffff16815260200190815260200160002080548061121a5761121961473b565b5b600190038181906000526020600020016000905590555b50808061123d906145dc565b915050611010565b5061124f81612737565b50565b60606000601360003373ffffffffffffffffffffffffffffffffffffffff1673ffffffffffffffffffffffffffffffffffffffff1681526020019081526020016000208054806020026020016040519081016040528092919081815260200182805480156112df57602002820191906000526020600020905b8154815260200190600101908083116112cb575b505050505090508091505090565b6112f73382612659565b61130057600080fd5b6000600c600083815260200190815260200160002054905060005b600b6000838152602001908152602001600020548160ff1610156117915760006113616113496103e8612848565b600a60008681526020019081526020016000206128a9565b905060006113906001600d60008581526020019081526020016000208054905061138b9190614482565b612848565b90506000600d600084815260200190815260200160002082815481106113b9576113b861476a565b5b9060005260206000200180546113ce90614579565b80601f01602080910402602001604051908101604052809291908181526020018280546113fa90614579565b80156114475780601f1061141c57610100808354040283529160200191611447565b820191906000526020600020905b81548152906001019060200180831161142a57829003601f168201915b50505050509050601060009054906101000a900473ffffffffffffffffffffffffffffffffffffffff1673ffffffffffffffffffffffffffffffffffffffff1663d0def52133836040518363ffffffff1660e01b81526004016114ab929190613fc2565b600060405180830381600087803b1580156114c557600080fd5b505af11580156114d9573d6000803e3d6000fd5b505050506000600d6000858152602001908152602001600020805480602002602001604051908101604052809291908181526020016000905b828210156115be57838290600052602060002001805461153190614579565b80601f016020809104026020016040519081016040528092919081815260200182805461155d90614579565b80156115aa5780601f1061157f576101008083540402835291602001916115aa565b820191906000526020600020905b81548152906001019060200180831161158d57829003601f168201915b505050505081526020019060010190611512565b50505050905060005b600d600086815260200190815260200160002080549050811015611779576000600d6000878152602001908152602001600020828154811061160c5761160b61476a565b5b90600052602060002001805461162190614579565b80601f016020809104026020016040519081016040528092919081815260200182805461164d90614579565b801561169a5780601f1061166f5761010080835404028352916020019161169a565b820191906000526020600020905b81548152906001019060200180831161167d57829003601f168201915b505050505090506116ab8185611fab565b156117655782600184516116bf9190614482565b815181106116d0576116cf61476a565b5b60200260200101518383815181106116eb576116ea61476a565b5b602002602001018190525082600d6000888152602001908152602001600020908051906020019061171d929190613380565b50600d60008781526020019081526020016000208054806117415761174061473b565b5b60019003818190600052602060002001600061175d91906133e0565b905550611779565b508080611771906145dc565b9150506115c7565b5050505050808061178990614625565b91505061131b565b5061179b82610ffa565b5050565b6117a7612518565b73ffffffffffffffffffffffffffffffffffffffff166117c5611ad4565b73ffffffffffffffffffffffffffffffffffffffff161461181b576040517f08c379a0000000000000000000000000000000000000000000000000000000008152600401611812906141f3565b60405180910390fd5b80601490805190602001906118319291906132fa565b5050565b6000806002600084815260200190815260200160002060009054906101000a900473ffffffffffffffffffffffffffffffffffffffff169050600073ffffffffffffffffffffffffffffffffffffffff168173ffffffffffffffffffffffffffffffffffffffff1614156118de576040517f08c379a00000000000000000000000000000000000000000000000000000000081526004016118d590614173565b60405180910390fd5b80915050919050565b60008073ffffffffffffffffffffffffffffffffffffffff168273ffffffffffffffffffffffffffffffffffffffff161415611958576040517f08c379a000000000000000000000000000000000000000000000000000000000815260040161194f90614153565b60405180910390fd5b600360008373ffffffffffffffffffffffffffffffffffffffff1673ffffffffffffffffffffffffffffffffffffffff168152602001908152602001600020549050919050565b6119a7612518565b73ffffffffffffffffffffffffffffffffffffffff166119c5611ad4565b73ffffffffffffffffffffffffffffffffffffffff1614611a1b576040517f08c379a0000000000000000000000000000000000000000000000000000000008152600401611a12906141f3565b60405180910390fd5b611a2560006128fb565b565b60006001600984604051611a3b9190613ee3565b908152602001604051809103902060009054906101000a900460ff1660ff161415611a6557600080fd5b6001600984604051611a779190613ee3565b908152602001604051809103902060006101000a81548160ff021916908360ff160217905550611aa760076129c1565b6000611ab360076129d7565b9050611abf85826129e5565b611ac98184612bb3565b809150509392505050565b6000600660009054906101000a900473ffffffffffffffffffffffffffffffffffffffff16905090565b606060018054611b0d90614579565b80601f0160208091040260200160405190810160405280929190818152602001828054611b3990614579565b8015611b865780601f10611b5b57610100808354040283529160200191611b86565b820191906000526020600020905b815481529060010190602001808311611b6957829003601f168201915b5050505050905090565b6060611b9a612518565b73ffffffffffffffffffffffffffffffffffffffff16611bb8611ad4565b73ffffffffffffffffffffffffffffffffffffffff1614611c0e576040517f08c379a0000000000000000000000000000000000000000000000000000000008152600401611c05906141f3565b60405180910390fd5b600d6000838152602001908152602001600020805480602002602001604051908101604052809291908181526020016000905b82821015611ced578382906000526020600020018054611c6090614579565b80601f0160208091040260200160405190810160405280929190818152602001828054611c8c90614579565b8015611cd95780601f10611cae57610100808354040283529160200191611cd9565b820191906000526020600020905b815481529060010190602001808311611cbc57829003601f168201915b505050505081526020019060010190611c41565b505050509050919050565b611d00612518565b73ffffffffffffffffffffffffffffffffffffffff168273ffffffffffffffffffffffffffffffffffffffff161415611d6e576040517f08c379a0000000000000000000000000000000000000000000000000000000008152600401611d65906140f3565b60405180910390fd5b8060056000611d7b612518565b73ffffffffffffffffffffffffffffffffffffffff1673ffffffffffffffffffffffffffffffffffffffff16815260200190815260200160002060008473ffffffffffffffffffffffffffffffffffffffff1673ffffffffffffffffffffffffffffffffffffffff16815260200190815260200160002060006101000a81548160ff0219169083151502179055508173ffffffffffffffffffffffffffffffffffffffff16611e28612518565b73ffffffffffffffffffffffffffffffffffffffff167f17307eab39ab6107e8899845ad3d59bd9653f200f220920489ca2b5937696c3183604051611e6d9190614036565b60405180910390a35050565b600f60009054906101000a900473ffffffffffffffffffffffffffffffffffffffff1681565b611ea7612518565b73ffffffffffffffffffffffffffffffffffffffff16611ec5611ad4565b73ffffffffffffffffffffffffffffffffffffffff1614611f1b576040517f08c379a0000000000000000000000000000000000000000000000000000000008152600401611f12906141f3565b60405180910390fd5b80600a6000858152602001908152602001600020600084815260200190815260200160002081905550505050565b611f5a611f54612518565b83612659565b611f99576040517f08c379a0000000000000000000000000000000000000000000000000000000008152600401611f9090614273565b60405180910390fd5b611fa584848484612c27565b50505050565b600081604051602001611fbe9190613ee3565b6040516020818303038152906040528051906020012083604051602001611fe59190613ee3565b6040516020818303038152906040528051906020012014905092915050565b606061200f826124ac565b61204e576040517f08c379a000000000000000000000000000000000000000000000000000000000815260040161204590614233565b60405180910390fd5b600060116000848152602001908152602001600020805461206e90614579565b80601f016020809104026020016040519081016040528092919081815260200182805461209a90614579565b80156120e75780601f106120bc576101008083540402835291602001916120e7565b820191906000526020600020905b8154815290600101906020018083116120ca57829003601f168201915b5050505050905060006120f8612c83565b905060008151141561210e578192505050612172565b60008251111561214357808260405160200161212b929190613efa565b60405160208183030381529060405292505050612172565b8061214d85612d15565b60405160200161215e929190613efa565b604051602081830303815290604052925050505b919050565b61217f612518565b73ffffffffffffffffffffffffffffffffffffffff1661219d611ad4565b73ffffffffffffffffffffffffffffffffffffffff16146121f3576040517f08c379a00000000000000000000000000000000000000000000000000000000081526004016121ea906141f3565b60405180910390fd5b6121fd60076129c1565b600061220960076129d7565b90506122158382612e76565b601360008473ffffffffffffffffffffffffffffffffffffffff1673ffffffffffffffffffffffffffffffffffffffff16815260200190815260200160002081908060018154018082558091505060019003906000526020600020016000909190919091505560006012600083815260200190815260200160002060006101000a81548160ff0219169083151502179055506122b18183612bb3565b505050565b6000600560008473ffffffffffffffffffffffffffffffffffffffff1673ffffffffffffffffffffffffffffffffffffffff16815260200190815260200160002060008373ffffffffffffffffffffffffffffffffffffffff1673ffffffffffffffffffffffffffffffffffffffff16815260200190815260200160002060009054906101000a900460ff16905092915050565b612352612518565b73ffffffffffffffffffffffffffffffffffffffff16612370611ad4565b73ffffffffffffffffffffffffffffffffffffffff16146123c6576040517f08c379a00000000000000000000000000000000000000000000000000000000081526004016123bd906141f3565b60405180910390fd5b600073ffffffffffffffffffffffffffffffffffffffff168173ffffffffffffffffffffffffffffffffffffffff161415612436576040517f08c379a000000000000000000000000000000000000000000000000000000000815260040161242d90614093565b60405180910390fd5b61243f816128fb565b50565b60007f01ffc9a7000000000000000000000000000000000000000000000000000000007bffffffffffffffffffffffffffffffffffffffffffffffffffffffff1916827bffffffffffffffffffffffffffffffffffffffffffffffffffffffff1916149050919050565b60008073ffffffffffffffffffffffffffffffffffffffff166002600084815260200190815260200160002060009054906101000a900473ffffffffffffffffffffffffffffffffffffffff1673ffffffffffffffffffffffffffffffffffffffff1614159050919050565b600033905090565b816004600083815260200190815260200160002060006101000a81548173ffffffffffffffffffffffffffffffffffffffff021916908373ffffffffffffffffffffffffffffffffffffffff160217905550808273ffffffffffffffffffffffffffffffffffffffff1661259383611835565b73ffffffffffffffffffffffffffffffffffffffff167f8c5be1e5ebec7d5bd14f71427d1e84f3dd0314c0f7b2291e5b200ac8c7c3b92560405160405180910390a45050565b6125ea6125e4612518565b82612659565b612629576040517f08c379a000000000000000000000000000000000000000000000000000000000815260040161262090614273565b60405180910390fd5b612634838383612e94565b505050565b61265483838360405180602001604052806000815250611f49565b505050565b6000612664826124ac565b6126a3576040517f08c379a000000000000000000000000000000000000000000000000000000000815260040161269a90614113565b60405180910390fd5b60006126ae83611835565b90508073ffffffffffffffffffffffffffffffffffffffff168473ffffffffffffffffffffffffffffffffffffffff16148061271d57508373ffffffffffffffffffffffffffffffffffffffff1661270584610807565b73ffffffffffffffffffffffffffffffffffffffff16145b8061272e575061272d81856122b6565b5b91505092915050565b600061274282611835565b9050612750816000846130f0565b61275b600083612520565b6001600360008373ffffffffffffffffffffffffffffffffffffffff1673ffffffffffffffffffffffffffffffffffffffff16815260200190815260200160002060008282546127ab9190614482565b925050819055506002600083815260200190815260200160002060006101000a81549073ffffffffffffffffffffffffffffffffffffffff021916905581600073ffffffffffffffffffffffffffffffffffffffff168273ffffffffffffffffffffffffffffffffffffffff167fddf252ad1be2c89b69c2b068fc378daa952ba7f163c4a11628f55a4df523b3ef60405160405180910390a45050565b60008082423360155460405160200161286393929190613f1e565b6040516020818303038152906040528051906020012060001c612886919061467d565b90506015600081548092919061289b906145dc565b919050555080915050919050565b600080600090505b600e548112156128f0578260008281526020019081526020016000205484116128dd57809150506128f5565b80806128e8906145dc565b9150506128b1565b809150505b92915050565b6000600660009054906101000a900473ffffffffffffffffffffffffffffffffffffffff16905081600660006101000a81548173ffffffffffffffffffffffffffffffffffffffff021916908373ffffffffffffffffffffffffffffffffffffffff1602179055508173ffffffffffffffffffffffffffffffffffffffff168173ffffffffffffffffffffffffffffffffffffffff167f8be0079c531659141344cd1fd0a4f28419497f9722a3daafe3b4186f6b6457e060405160405180910390a35050565b6001816000016000828254019250508190555050565b600081600001549050919050565b600073ffffffffffffffffffffffffffffffffffffffff168273ffffffffffffffffffffffffffffffffffffffff161415612a55576040517f08c379a0000000000000000000000000000000000000000000000000000000008152600401612a4c90614193565b60405180910390fd5b612a5e816124ac565b15612a9e576040517f08c379a0000000000000000000000000000000000000000000000000000000008152600401612a95906140b3565b60405180910390fd5b612aaa600083836130f0565b6001600360008473ffffffffffffffffffffffffffffffffffffffff1673ffffffffffffffffffffffffffffffffffffffff1681526020019081526020016000206000828254612afa91906143fb565b92505081905550816002600083815260200190815260200160002060006101000a81548173ffffffffffffffffffffffffffffffffffffffff021916908373ffffffffffffffffffffffffffffffffffffffff160217905550808273ffffffffffffffffffffffffffffffffffffffff16600073ffffffffffffffffffffffffffffffffffffffff167fddf252ad1be2c89b69c2b068fc378daa952ba7f163c4a11628f55a4df523b3ef60405160405180910390a45050565b612bbc826124ac565b612bfb576040517f08c379a0000000000000000000000000000000000000000000000000000000008152600401612bf2906141d3565b60405180910390fd5b80601160008481526020019081526020016000209080519060200190612c229291906132fa565b505050565b612c32848484612e94565b612c3e848484846130f5565b612c7d576040517f08c379a0000000000000000000000000000000000000000000000000000000008152600401612c7490614073565b60405180910390fd5b50505050565b606060148054612c9290614579565b80601f0160208091040260200160405190810160405280929190818152602001828054612cbe90614579565b8015612d0b5780601f10612ce057610100808354040283529160200191612d0b565b820191906000526020600020905b815481529060010190602001808311612cee57829003601f168201915b5050505050905090565b60606000821415612d5d576040518060400160405280600181526020017f30000000000000000000000000000000000000000000000000000000000000008152509050612e71565b600082905060005b60008214612d8f578080612d78906145dc565b915050600a82612d889190614451565b9150612d65565b60008167ffffffffffffffff811115612dab57612daa614799565b5b6040519080825280601f01601f191660200182016040528015612ddd5781602001600182028036833780820191505090505b5090505b60008514612e6a57600182612df69190614482565b9150600a85612e05919061467d565b6030612e1191906143fb565b60f81b818381518110612e2757612e2661476a565b5b60200101907effffffffffffffffffffffffffffffffffffffffffffffffffffffffffffff1916908160001a905350600a85612e639190614451565b9450612de1565b8093505050505b919050565b612e9082826040518060200160405280600081525061328c565b5050565b8273ffffffffffffffffffffffffffffffffffffffff16612eb482611835565b73ffffffffffffffffffffffffffffffffffffffff1614612f0a576040517f08c379a0000000000000000000000000000000000000000000000000000000008152600401612f0190614213565b60405180910390fd5b600073ffffffffffffffffffffffffffffffffffffffff168273ffffffffffffffffffffffffffffffffffffffff161415612f7a576040517f08c379a0000000000000000000000000000000000000000000000000000000008152600401612f71906140d3565b60405180910390fd5b612f858383836130f0565b612f90600082612520565b6001600360008573ffffffffffffffffffffffffffffffffffffffff1673ffffffffffffffffffffffffffffffffffffffff1681526020019081526020016000206000828254612fe09190614482565b925050819055506001600360008473ffffffffffffffffffffffffffffffffffffffff1673ffffffffffffffffffffffffffffffffffffffff168152602001908152602001600020600082825461303791906143fb565b92505081905550816002600083815260200190815260200160002060006101000a81548173ffffffffffffffffffffffffffffffffffffffff021916908373ffffffffffffffffffffffffffffffffffffffff160217905550808273ffffffffffffffffffffffffffffffffffffffff168473ffffffffffffffffffffffffffffffffffffffff167fddf252ad1be2c89b69c2b068fc378daa952ba7f163c4a11628f55a4df523b3ef60405160405180910390a4505050565b505050565b60006131168473ffffffffffffffffffffffffffffffffffffffff166132e7565b1561327f578373ffffffffffffffffffffffffffffffffffffffff1663150b7a0261313f612518565b8786866040518563ffffffff1660e01b81526004016131619493929190613f76565b602060405180830381600087803b15801561317b57600080fd5b505af19250505080156131ac57506040513d601f19601f820116820180604052508101906131a99190613881565b60015b61322f573d80600081146131dc576040519150601f19603f3d011682016040523d82523d6000602084013e6131e1565b606091505b50600081511415613227576040517f08c379a000000000000000000000000000000000000000000000000000000000815260040161321e90614073565b60405180910390fd5b805181602001fd5b63150b7a0260e01b7bffffffffffffffffffffffffffffffffffffffffffffffffffffffff1916817bffffffffffffffffffffffffffffffffffffffffffffffffffffffff191614915050613284565b600190505b949350505050565b61329683836129e5565b6132a360008484846130f5565b6132e2576040517f08c379a00000000000000000000000000000000000000000000000000000000081526004016132d990614073565b60405180910390fd5b505050565b600080823b905060008111915050919050565b82805461330690614579565b90600052602060002090601f016020900481019282613328576000855561336f565b82601f1061334157805160ff191683800117855561336f565b8280016001018555821561336f579182015b8281111561336e578251825591602001919060010190613353565b5b50905061337c9190613420565b5090565b8280548282559060005260206000209081019282156133cf579160200282015b828111156133ce5782518290805190602001906133be9291906132fa565b50916020019190600101906133a0565b5b5090506133dc919061343d565b5090565b5080546133ec90614579565b6000825580601f106133fe575061341d565b601f01602090049060005260206000209081019061341c9190613420565b5b50565b5b80821115613439576000816000905550600101613421565b5090565b5b8082111561345d576000818161345491906133e0565b5060010161343e565b5090565b600061347461346f846142d3565b6142ae565b9050828152602081018484840111156134905761348f6147cd565b5b61349b848285614537565b509392505050565b60006134b66134b184614304565b6142ae565b9050828152602081018484840111156134d2576134d16147cd565b5b6134dd848285614537565b509392505050565b6000813590506134f481614ca1565b92915050565b60008135905061350981614cb8565b92915050565b60008135905061351e81614ccf565b92915050565b60008151905061353381614ccf565b92915050565b600082601f83011261354e5761354d6147c8565b5b813561355e848260208601613461565b91505092915050565b600082601f83011261357c5761357b6147c8565b5b813561358c8482602086016134a3565b91505092915050565b6000813590506135a481614ce6565b92915050565b6000602082840312156135c0576135bf6147d7565b5b60006135ce848285016134e5565b91505092915050565b600080604083850312156135ee576135ed6147d7565b5b60006135fc858286016134e5565b925050602061360d858286016134e5565b9150509250929050565b6000806000606084860312156136305761362f6147d7565b5b600061363e868287016134e5565b935050602061364f868287016134e5565b925050604061366086828701613595565b9150509250925092565b60008060008060808587031215613684576136836147d7565b5b6000613692878288016134e5565b94505060206136a3878288016134e5565b93505060406136b487828801613595565b925050606085013567ffffffffffffffff8111156136d5576136d46147d2565b5b6136e187828801613539565b91505092959194509250565b60008060408385031215613704576137036147d7565b5b6000613712858286016134e5565b9250506020613723858286016134fa565b9150509250929050565b60008060408385031215613744576137436147d7565b5b6000613752858286016134e5565b925050602083013567ffffffffffffffff811115613773576137726147d2565b5b61377f85828601613567565b9150509250929050565b6000806000606084860312156137a2576137a16147d7565b5b60006137b0868287016134e5565b935050602084013567ffffffffffffffff8111156137d1576137d06147d2565b5b6137dd86828701613567565b925050604084013567ffffffffffffffff8111156137fe576137fd6147d2565b5b61380a86828701613567565b9150509250925092565b6000806040838503121561382b5761382a6147d7565b5b6000613839858286016134e5565b925050602061384a85828601613595565b9150509250929050565b60006020828403121561386a576138696147d7565b5b60006138788482850161350f565b91505092915050565b600060208284031215613897576138966147d7565b5b60006138a584828501613524565b91505092915050565b6000602082840312156138c4576138c36147d7565b5b600082013567ffffffffffffffff8111156138e2576138e16147d2565b5b6138ee84828501613567565b91505092915050565b6000806040838503121561390e5761390d6147d7565b5b600083013567ffffffffffffffff81111561392c5761392b6147d2565b5b61393885828601613567565b925050602083013567ffffffffffffffff811115613959576139586147d2565b5b61396585828601613567565b9150509250929050565b60008060408385031215613986576139856147d7565b5b600083013567ffffffffffffffff8111156139a4576139a36147d2565b5b6139b085828601613567565b92505060206139c185828601613595565b9150509250929050565b6000602082840312156139e1576139e06147d7565b5b60006139ef84828501613595565b91505092915050565b600080600060608486031215613a1157613a106147d7565b5b6000613a1f86828701613595565b9350506020613a3086828701613595565b9250506040613a4186828701613595565b9150509250925092565b6000613a578383613bb8565b905092915050565b6000613a6b8383613eae565b60208301905092915050565b613a80816144b6565b82525050565b613a97613a92826144b6565b61464f565b82525050565b6000613aa882614355565b613ab2818561439b565b935083602082028501613ac485614335565b8060005b85811015613b005784840389528151613ae18582613a4b565b9450613aec83614381565b925060208a01995050600181019050613ac8565b50829750879550505050505092915050565b6000613b1d82614360565b613b2781856143ac565b9350613b3283614345565b8060005b83811015613b63578151613b4a8882613a5f565b9750613b558361438e565b925050600181019050613b36565b5085935050505092915050565b613b79816144c8565b82525050565b6000613b8a8261436b565b613b9481856143bd565b9350613ba4818560208601614546565b613bad816147dc565b840191505092915050565b6000613bc382614376565b613bcd81856143ce565b9350613bdd818560208601614546565b613be6816147dc565b840191505092915050565b6000613bfc82614376565b613c0681856143df565b9350613c16818560208601614546565b613c1f816147dc565b840191505092915050565b6000613c3582614376565b613c3f81856143f0565b9350613c4f818560208601614546565b80840191505092915050565b6000613c686032836143df565b9150613c73826147fa565b604082019050919050565b6000613c8b6026836143df565b9150613c9682614849565b604082019050919050565b6000613cae601c836143df565b9150613cb982614898565b602082019050919050565b6000613cd16024836143df565b9150613cdc826148c1565b604082019050919050565b6000613cf46019836143df565b9150613cff82614910565b602082019050919050565b6000613d17602c836143df565b9150613d2282614939565b604082019050919050565b6000613d3a6038836143df565b9150613d4582614988565b604082019050919050565b6000613d5d602a836143df565b9150613d68826149d7565b604082019050919050565b6000613d806029836143df565b9150613d8b82614a26565b604082019050919050565b6000613da36020836143df565b9150613dae82614a75565b602082019050919050565b6000613dc6602c836143df565b9150613dd182614a9e565b604082019050919050565b6000613de9602c836143df565b9150613df482614aed565b604082019050919050565b6000613e0c6020836143df565b9150613e1782614b3c565b602082019050919050565b6000613e2f6029836143df565b9150613e3a82614b65565b604082019050919050565b6000613e52602f836143df565b9150613e5d82614bb4565b604082019050919050565b6000613e756021836143df565b9150613e8082614c03565b604082019050919050565b6000613e986031836143df565b9150613ea382614c52565b604082019050919050565b613eb781614520565b82525050565b613ec681614520565b82525050565b613edd613ed882614520565b614673565b82525050565b6000613eef8284613c2a565b915081905092915050565b6000613f068285613c2a565b9150613f128284613c2a565b91508190509392505050565b6000613f2a8286613ecc565b602082019150613f3a8285613a86565b601482019150613f4a8284613ecc565b602082019150819050949350505050565b6000602082019050613f706000830184613a77565b92915050565b6000608082019050613f8b6000830187613a77565b613f986020830186613a77565b613fa56040830185613ebd565b8181036060830152613fb78184613b7f565b905095945050505050565b6000604082019050613fd76000830185613a77565b8181036020830152613fe98184613bf1565b90509392505050565b6000602082019050818103600083015261400c8184613a9d565b905092915050565b6000602082019050818103600083015261402e8184613b12565b905092915050565b600060208201905061404b6000830184613b70565b92915050565b6000602082019050818103600083015261406b8184613bf1565b905092915050565b6000602082019050818103600083015261408c81613c5b565b9050919050565b600060208201905081810360008301526140ac81613c7e565b9050919050565b600060208201905081810360008301526140cc81613ca1565b9050919050565b600060208201905081810360008301526140ec81613cc4565b9050919050565b6000602082019050818103600083015261410c81613ce7565b9050919050565b6000602082019050818103600083015261412c81613d0a565b9050919050565b6000602082019050818103600083015261414c81613d2d565b9050919050565b6000602082019050818103600083015261416c81613d50565b9050919050565b6000602082019050818103600083015261418c81613d73565b9050919050565b600060208201905081810360008301526141ac81613d96565b9050919050565b600060208201905081810360008301526141cc81613db9565b9050919050565b600060208201905081810360008301526141ec81613ddc565b9050919050565b6000602082019050818103600083015261420c81613dff565b9050919050565b6000602082019050818103600083015261422c81613e22565b9050919050565b6000602082019050818103600083015261424c81613e45565b9050919050565b6000602082019050818103600083015261426c81613e68565b9050919050565b6000602082019050818103600083015261428c81613e8b565b9050919050565b60006020820190506142a86000830184613ebd565b92915050565b60006142b86142c9565b90506142c482826145ab565b919050565b6000604051905090565b600067ffffffffffffffff8211156142ee576142ed614799565b5b6142f7826147dc565b9050602081019050919050565b600067ffffffffffffffff82111561431f5761431e614799565b5b614328826147dc565b9050602081019050919050565b6000819050602082019050919050565b6000819050602082019050919050565b600081519050919050565b600081519050919050565b600081519050919050565b600081519050919050565b6000602082019050919050565b6000602082019050919050565b600082825260208201905092915050565b600082825260208201905092915050565b600082825260208201905092915050565b600082825260208201905092915050565b600082825260208201905092915050565b600081905092915050565b600061440682614520565b915061441183614520565b9250827fffffffffffffffffffffffffffffffffffffffffffffffffffffffffffffffff03821115614446576144456146ae565b5b828201905092915050565b600061445c82614520565b915061446783614520565b925082614477576144766146dd565b5b828204905092915050565b600061448d82614520565b915061449883614520565b9250828210156144ab576144aa6146ae565b5b828203905092915050565b60006144c182614500565b9050919050565b60008115159050919050565b60007fffffffff0000000000000000000000000000000000000000000000000000000082169050919050565b600073ffffffffffffffffffffffffffffffffffffffff82169050919050565b6000819050919050565b600060ff82169050919050565b82818337600083830152505050565b60005b83811015614564578082015181840152602081019050614549565b83811115614573576000848401525b50505050565b6000600282049050600182168061459157607f821691505b602082108114156145a5576145a461470c565b5b50919050565b6145b4826147dc565b810181811067ffffffffffffffff821117156145d3576145d2614799565b5b80604052505050565b60006145e782614520565b91507fffffffffffffffffffffffffffffffffffffffffffffffffffffffffffffffff82141561461a576146196146ae565b5b600182019050919050565b60006146308261452a565b915060ff821415614644576146436146ae565b5b600182019050919050565b600061465a82614661565b9050919050565b600061466c826147ed565b9050919050565b6000819050919050565b600061468882614520565b915061469383614520565b9250826146a3576146a26146dd565b5b828206905092915050565b7f4e487b7100000000000000000000000000000000000000000000000000000000600052601160045260246000fd5b7f4e487b7100000000000000000000000000000000000000000000000000000000600052601260045260246000fd5b7f4e487b7100000000000000000000000000000000000000000000000000000000600052602260045260246000fd5b7f4e487b7100000000000000000000000000000000000000000000000000000000600052603160045260246000fd5b7f4e487b7100000000000000000000000000000000000000000000000000000000600052603260045260246000fd5b7f4e487b7100000000000000000000000000000000000000000000000000000000600052604160045260246000fd5b600080fd5b600080fd5b600080fd5b600080fd5b6000601f19601f8301169050919050565b60008160601b9050919050565b7f4552433732313a207472616e7366657220746f206e6f6e20455243373231526560008201527f63656976657220696d706c656d656e7465720000000000000000000000000000602082015250565b7f4f776e61626c653a206e6577206f776e657220697320746865207a65726f206160008201527f6464726573730000000000000000000000000000000000000000000000000000602082015250565b7f4552433732313a20746f6b656e20616c7265616479206d696e74656400000000600082015250565b7f4552433732313a207472616e7366657220746f20746865207a65726f2061646460008201527f7265737300000000000000000000000000000000000000000000000000000000602082015250565b7f4552433732313a20617070726f766520746f2063616c6c657200000000000000600082015250565b7f4552433732313a206f70657261746f7220717565727920666f72206e6f6e657860008201527f697374656e7420746f6b656e0000000000000000000000000000000000000000602082015250565b7f4552433732313a20617070726f76652063616c6c6572206973206e6f74206f7760008201527f6e6572206e6f7220617070726f76656420666f7220616c6c0000000000000000602082015250565b7f4552433732313a2062616c616e636520717565727920666f7220746865207a6560008201527f726f206164647265737300000000000000000000000000000000000000000000602082015250565b7f4552433732313a206f776e657220717565727920666f72206e6f6e657869737460008201527f656e7420746f6b656e0000000000000000000000000000000000000000000000602082015250565b7f4552433732313a206d696e7420746f20746865207a65726f2061646472657373600082015250565b7f4552433732313a20617070726f76656420717565727920666f72206e6f6e657860008201527f697374656e7420746f6b656e0000000000000000000000000000000000000000602082015250565b7f4552433732314d657461646174613a2055524920736574206f66206e6f6e657860008201527f697374656e7420746f6b656e0000000000000000000000000000000000000000602082015250565b7f4f776e61626c653a2063616c6c6572206973206e6f7420746865206f776e6572600082015250565b7f4552433732313a207472616e73666572206f6620746f6b656e2074686174206960008201527f73206e6f74206f776e0000000000000000000000000000000000000000000000602082015250565b7f4552433732314d657461646174613a2055524920717565727920666f72206e6f60008201527f6e6578697374656e7420746f6b656e0000000000000000000000000000000000602082015250565b7f4552433732313a20617070726f76616c20746f2063757272656e74206f776e6560008201527f7200000000000000000000000000000000000000000000000000000000000000602082015250565b7f4552433732313a207472616e736665722063616c6c6572206973206e6f74206f60008201527f776e6572206e6f7220617070726f766564000000000000000000000000000000602082015250565b614caa816144b6565b8114614cb557600080fd5b50565b614cc1816144c8565b8114614ccc57600080fd5b50565b614cd8816144d4565b8114614ce357600080fd5b50565b614cef81614520565b8114614cfa57600080fd5b5056fea26469706673582212200badc73707c5f2de2821e6ac49e3dc58070412e1af5aa7a8e59691eac36acdb464736f6c63430008070033",
  "immutableReferences": {},
  "source": "pragma solidity ^0.8.0;\n\nimport \"@openzeppelin/contracts/token/ERC721/ERC721.sol\";\nimport \"@openzeppelin/contracts/utils/Counters.sol\";\nimport \"@openzeppelin/contracts/access/Ownable.sol\";\n\nimport \"./RandomNumber.sol\";\nimport \"./ViridianNFT.sol\";\n\ncontract ViridianPack is ERC721, Ownable {\n\n    using Counters for Counters.Counter;\n    Counters.Counter private _tokenIds;\n    Counters.Counter private _unmintedTokenIds;\n    mapping(string => uint8) hashes;\n    mapping(uint256 => mapping(uint256 => uint256)) private rarityOdds;\n    mapping(uint256 => uint256) private numNFTs;\n    //mapping(uint256 => string) private unmintedURIs;\n    mapping(uint256 => uint256) tokenRarity;\n    mapping(uint256 => string[]) private uriRarityPools;\n    int private maxRarityIndex;\n\n    address public viridianNFTAddr;\n\n    ViridianNFT vNFT;\n\n    using Strings for uint256;\n\n    constructor(address _viridianNFT) ERC721(\"Viridian Pack\", \"VP\") {\n\n        require(address(_viridianNFT) != address(0));\n\n        viridianNFTAddr = _viridianNFT;\n\n        vNFT = ViridianNFT(viridianNFTAddr);\n\n        //Set all beginning rarities\n\n        // Legendary rarity and cards in pack\n        rarityOdds[0][0] = 25;\n        rarityOdds[0][1] = 100;\n        rarityOdds[0][2] = 300;\n        rarityOdds[0][3] = 1000;\n        numNFTs[0] = 3;\n\n        // Mystical rarity and cards in pack\n        rarityOdds[1][0] = 1;\n        rarityOdds[1][1] = 50;\n        rarityOdds[1][2] = 200;\n        rarityOdds[1][3] = 1000;\n        numNFTs[0] = 3;\n\n        // Rare rarity and cards in pack\n        rarityOdds[1][0] = 0;\n        rarityOdds[1][1] = 50;\n        rarityOdds[1][2] = 100;\n        rarityOdds[1][3] = 1000;\n        numNFTs[0] = 3;\n\n        // Common rarity and cards in pack\n        rarityOdds[2][0] = 0;\n        rarityOdds[2][1] = 10;\n        rarityOdds[2][2] = 50;\n        rarityOdds[2][3] = 1000;\n        numNFTs[0] = 3;\n\n        maxRarityIndex = 3;\n    }\n    \n    struct NFT {\n        uint256 id;\n        string uri;\n    }\n    \n    // Optional mapping for token URIs\n    mapping (uint256 => string) private _tokenURIs;\n\n    mapping (uint256 => bool) private _tokensListed;\n\n    mapping (address => uint256[]) private _ownedNFTs;\n\n    //address private viridianExchangeAddress;\n\n    // Base URI\n    string private _baseURIextended;\n    \n    function setBaseURI(string memory baseURI_) external onlyOwner() {\n        _baseURIextended = baseURI_;\n    }\n    \n    function _setTokenURI(uint256 tokenId, string memory _tokenURI) internal virtual {\n        require(_exists(tokenId), \"ERC721Metadata: URI set of nonexistent token\");\n        _tokenURIs[tokenId] = _tokenURI;\n    }\n    \n    function _baseURI() internal view virtual override returns (string memory) {\n        return _baseURIextended;\n    }\n    \n    function tokenURI(uint256 tokenId) public view virtual override returns (string memory) {\n        require(_exists(tokenId), \"ERC721Metadata: URI query for nonexistent token\");\n\n        string memory _tokenURI = _tokenURIs[tokenId];\n        string memory base = _baseURI();\n        \n        // If there is no base URI, return the token URI.\n        if (bytes(base).length == 0) {\n            return _tokenURI;\n        }\n        // If both are set, concatenate the baseURI and tokenURI (via abi.encodePacked).\n        if (bytes(_tokenURI).length > 0) {\n            return string(abi.encodePacked(base, _tokenURI));\n        }\n        // If there is a baseURI but no tokenURI, concatenate the tokenID to the baseURI.\n        return string(abi.encodePacked(base, tokenId.toString()));\n    }\n\n    function getUriRarityPools(uint256 _rarity) public view onlyOwner() returns (string[] memory) {\n        return uriRarityPools[_rarity];\n    }\n\n    function getOwnedNFTs() public view virtual returns (uint256[] memory) {\n        uint256[] memory _tokens = _ownedNFTs[msg.sender];\n        \n        return _tokens;\n    }\n\n    function setRarityOdds(uint256 _rarity, uint256 _rarityOdd, uint256 _newOdds) external onlyOwner() {\n        rarityOdds[_rarity][_rarityOdd] = _newOdds;\n    }\n\n    function mint(\n        address _to,\n        string memory tokenURI_\n    ) external onlyOwner() {\n        _tokenIds.increment();\n        uint256 _tokenId = _tokenIds.current();\n\n        _safeMint(_to, _tokenId);\n        _ownedNFTs[_to].push(_tokenId);\n        _tokensListed[_tokenId] = false;\n        _setTokenURI(_tokenId, tokenURI_);\n    }\n\n    //TODO: THIS IS NOT TO BE USED IN FINAL DEPLOYED IMPLEMENTATION, convert to LINK VRF for TESTNET and ESPECIALLY MAINNET!!!\n    uint nonce;\n\n\n    function random(uint range) internal returns (uint) {\n        uint randomnumber = uint(keccak256(abi.encodePacked(block.timestamp, msg.sender, nonce))) % range;\n        randomnumber = randomnumber;\n        nonce++;\n\n        return randomnumber;\n    }\n\n    function calculateWeightedOdds(uint256 randomNum, mapping(uint256 => uint256) storage rarityOdd) private view returns (uint) {\n        uint256 n;\n\n        for (n = 0; int(n) < int(maxRarityIndex); n++) {\n            if (randomNum <= rarityOdd[n]) {\n                return n;\n            }\n        }\n\n        return n;\n    }\n\n    function softMintNFT(string memory uri, uint256 rarity) public onlyOwner() payable {\n        uriRarityPools[rarity].push(uri);\n    }\n\n    function compareStrings(string memory _s, string memory _s1) public pure returns (bool) {\n        return (keccak256(abi.encodePacked((_s))) == keccak256(abi.encodePacked((_s1))));\n    }\n\n    function openPack(uint256 _tokenId) public {\n        // Randomly \n        require(_isApprovedOrOwner(msg.sender, _tokenId));\n\n        uint256 tr = tokenRarity[_tokenId];\n\n        for (uint8 n = 0; n < numNFTs[tr]; n++) {\n            uint256 randIndexWithPercentOdds = calculateWeightedOdds(random(1000), rarityOdds[tr]);\n            uint256 randIndexInRarity = random(uriRarityPools[randIndexWithPercentOdds].length - 1);\n\n            string memory newURI = uriRarityPools[randIndexWithPercentOdds][randIndexInRarity];\n\n            vNFT.mint(msg.sender, newURI);\n\n            string[] memory curRarityPool = uriRarityPools[randIndexWithPercentOdds];\n            for (uint i = 0; i < uriRarityPools[randIndexWithPercentOdds].length; i++) {\n                string memory uri = uriRarityPools[randIndexWithPercentOdds][i];\n                if (compareStrings(uri, newURI)) {\n                    curRarityPool[i] = curRarityPool[curRarityPool.length - 1];\n                    uriRarityPools[randIndexWithPercentOdds] = curRarityPool;\n                    uriRarityPools[randIndexWithPercentOdds].pop();\n                    break;\n                }\n            }\n        }\n\n        burn(_tokenId);\n    }\n\n    function burn(uint256 tokenId) public {\n        require(_isApprovedOrOwner(msg.sender, tokenId));\n\n        for (uint256 i = 0; i < _ownedNFTs[msg.sender].length; i++) {\n            uint256 ownedNFT = _ownedNFTs[msg.sender][i];\n            if (ownedNFT == tokenId) {\n                _ownedNFTs[msg.sender][i] = _ownedNFTs[msg.sender][_ownedNFTs[msg.sender].length - 1];\n                _ownedNFTs[msg.sender].pop();\n            }\n        }\n\n        _burn(tokenId);\n    }\n\n    function awardItem(address recipient, string memory hash, string memory metadata) public returns (uint256) {\n        require(hashes[hash] != 1);\n        hashes[hash] = 1;\n        _tokenIds.increment();\n        uint256 newItemId = _tokenIds.current();\n        _mint(recipient, newItemId);\n        _setTokenURI(newItemId, metadata);\n        return newItemId;\n    }\n\n    function safeTransferFrom(address from, address to, uint256 tokenId) public override {\n        require(!_tokensListed[tokenId]);\n        for (uint256 i = 0; i < _ownedNFTs[msg.sender].length; i++) {\n            uint256 ownedNFT = _ownedNFTs[msg.sender][i];\n            if (ownedNFT == tokenId) {\n                _ownedNFTs[msg.sender][i] = _ownedNFTs[msg.sender][_ownedNFTs[msg.sender].length - 1];\n                _ownedNFTs[msg.sender].pop();\n            }\n        }\n        _ownedNFTs[to].push(tokenId);\n\n        super.safeTransferFrom(from, to, tokenId);\n    }\n\n    function transferFrom(address from, address to, uint256 tokenId) public override {\n        for (uint256 i = 0; i < _ownedNFTs[msg.sender].length; i++) {\n            uint256 ownedNFT = _ownedNFTs[msg.sender][i];\n            if (ownedNFT == tokenId) {\n                _ownedNFTs[msg.sender][i] = _ownedNFTs[msg.sender][_ownedNFTs[msg.sender].length - 1];\n                _ownedNFTs[msg.sender].pop();\n            }\n        }\n        _ownedNFTs[to].push(tokenId);\n\n        super.transferFrom(from, to, tokenId);\n    }\n}",
  "sourcePath": "/Users/blakehatch/Viridian-Exchange-Contracts/contracts/ViridianPack.sol",
  "compiler": {
    "name": "solc",
    "version": "0.8.7+commit.e28d00a7.Emscripten.clang"
  },
  "schemaVersion": "3.4.1",
  "updatedAt": "2021-08-27T23:37:42.604Z",
  "networkType": "ethereum",
  "devdoc": {
    "kind": "dev",
    "methods": {
      "approve(address,uint256)": {
        "details": "See {IERC721-approve}."
      },
      "balanceOf(address)": {
        "details": "See {IERC721-balanceOf}."
      },
      "getApproved(uint256)": {
        "details": "See {IERC721-getApproved}."
      },
      "isApprovedForAll(address,address)": {
        "details": "See {IERC721-isApprovedForAll}."
      },
      "name()": {
        "details": "See {IERC721Metadata-name}."
      },
      "owner()": {
        "details": "Returns the address of the current owner."
      },
      "ownerOf(uint256)": {
        "details": "See {IERC721-ownerOf}."
      },
      "renounceOwnership()": {
        "details": "Leaves the contract without owner. It will not be possible to call `onlyOwner` functions anymore. Can only be called by the current owner. NOTE: Renouncing ownership will leave the contract without an owner, thereby removing any functionality that is only available to the owner."
      },
      "safeTransferFrom(address,address,uint256)": {
        "details": "See {IERC721-safeTransferFrom}."
      },
      "safeTransferFrom(address,address,uint256,bytes)": {
        "details": "See {IERC721-safeTransferFrom}."
      },
      "setApprovalForAll(address,bool)": {
        "details": "See {IERC721-setApprovalForAll}."
      },
      "supportsInterface(bytes4)": {
        "details": "See {IERC165-supportsInterface}."
      },
      "symbol()": {
        "details": "See {IERC721Metadata-symbol}."
      },
      "tokenURI(uint256)": {
        "details": "See {IERC721Metadata-tokenURI}."
      },
      "transferFrom(address,address,uint256)": {
        "details": "See {IERC721-transferFrom}."
      },
      "transferOwnership(address)": {
        "details": "Transfers ownership of the contract to a new account (`newOwner`). Can only be called by the current owner."
      }
    },
    "version": 1
  },
  "userdoc": {
    "kind": "user",
    "methods": {},
    "version": 1
  }
}