{
  "contractName": "ViridianPack",
  "abi": [
    {
      "inputs": [
        {
          "internalType": "address",
          "name": "_viridianNFT",
          "type": "address"
        }
      ],
      "stateMutability": "nonpayable",
      "type": "constructor"
    },
    {
      "anonymous": false,
      "inputs": [
        {
          "indexed": true,
          "internalType": "address",
          "name": "owner",
          "type": "address"
        },
        {
          "indexed": true,
          "internalType": "address",
          "name": "approved",
          "type": "address"
        },
        {
          "indexed": true,
          "internalType": "uint256",
          "name": "tokenId",
          "type": "uint256"
        }
      ],
      "name": "Approval",
      "type": "event"
    },
    {
      "anonymous": false,
      "inputs": [
        {
          "indexed": true,
          "internalType": "address",
          "name": "owner",
          "type": "address"
        },
        {
          "indexed": true,
          "internalType": "address",
          "name": "operator",
          "type": "address"
        },
        {
          "indexed": false,
          "internalType": "bool",
          "name": "approved",
          "type": "bool"
        }
      ],
      "name": "ApprovalForAll",
      "type": "event"
    },
    {
      "anonymous": false,
      "inputs": [
        {
          "indexed": false,
          "internalType": "string[10]",
          "name": "newUris",
          "type": "string[10]"
        }
      ],
      "name": "Open",
      "type": "event"
    },
    {
      "anonymous": false,
      "inputs": [
        {
          "indexed": true,
          "internalType": "address",
          "name": "previousOwner",
          "type": "address"
        },
        {
          "indexed": true,
          "internalType": "address",
          "name": "newOwner",
          "type": "address"
        }
      ],
      "name": "OwnershipTransferred",
      "type": "event"
    },
    {
      "anonymous": false,
      "inputs": [
        {
          "indexed": false,
          "internalType": "uint256",
          "name": "tokenId",
          "type": "uint256"
        }
      ],
      "name": "PackResultDecided",
      "type": "event"
    },
    {
      "anonymous": false,
      "inputs": [
        {
          "indexed": true,
          "internalType": "address",
          "name": "from",
          "type": "address"
        },
        {
          "indexed": true,
          "internalType": "address",
          "name": "to",
          "type": "address"
        },
        {
          "indexed": true,
          "internalType": "uint256",
          "name": "tokenId",
          "type": "uint256"
        }
      ],
      "name": "Transfer",
      "type": "event"
    },
    {
      "inputs": [
        {
          "internalType": "address",
          "name": "to",
          "type": "address"
        },
        {
          "internalType": "uint256",
          "name": "tokenId",
          "type": "uint256"
        }
      ],
      "name": "approve",
      "outputs": [],
      "stateMutability": "nonpayable",
      "type": "function"
    },
    {
      "inputs": [
        {
          "internalType": "address",
          "name": "owner",
          "type": "address"
        }
      ],
      "name": "balanceOf",
      "outputs": [
        {
          "internalType": "uint256",
          "name": "",
          "type": "uint256"
        }
      ],
      "stateMutability": "view",
      "type": "function",
      "constant": true
    },
    {
      "inputs": [
        {
          "internalType": "uint256",
          "name": "tokenId",
          "type": "uint256"
        }
      ],
      "name": "getApproved",
      "outputs": [
        {
          "internalType": "address",
          "name": "",
          "type": "address"
        }
      ],
      "stateMutability": "view",
      "type": "function",
      "constant": true
    },
    {
      "inputs": [
        {
          "internalType": "address",
          "name": "owner",
          "type": "address"
        },
        {
          "internalType": "address",
          "name": "operator",
          "type": "address"
        }
      ],
      "name": "isApprovedForAll",
      "outputs": [
        {
          "internalType": "bool",
          "name": "",
          "type": "bool"
        }
      ],
      "stateMutability": "view",
      "type": "function",
      "constant": true
    },
    {
      "inputs": [
        {
          "internalType": "address",
          "name": "forwarder",
          "type": "address"
        }
      ],
      "name": "isTrustedForwarder",
      "outputs": [
        {
          "internalType": "bool",
          "name": "",
          "type": "bool"
        }
      ],
      "stateMutability": "view",
      "type": "function",
      "constant": true
    },
    {
      "inputs": [],
      "name": "name",
      "outputs": [
        {
          "internalType": "string",
          "name": "",
          "type": "string"
        }
      ],
      "stateMutability": "view",
      "type": "function",
      "constant": true
    },
    {
      "inputs": [],
      "name": "owner",
      "outputs": [
        {
          "internalType": "address",
          "name": "",
          "type": "address"
        }
      ],
      "stateMutability": "view",
      "type": "function",
      "constant": true
    },
    {
      "inputs": [
        {
          "internalType": "uint256",
          "name": "tokenId",
          "type": "uint256"
        }
      ],
      "name": "ownerOf",
      "outputs": [
        {
          "internalType": "address",
          "name": "",
          "type": "address"
        }
      ],
      "stateMutability": "view",
      "type": "function",
      "constant": true
    },
    {
      "inputs": [],
      "name": "renounceOwnership",
      "outputs": [],
      "stateMutability": "nonpayable",
      "type": "function"
    },
    {
      "inputs": [
        {
          "internalType": "address",
          "name": "operator",
          "type": "address"
        },
        {
          "internalType": "bool",
          "name": "approved",
          "type": "bool"
        }
      ],
      "name": "setApprovalForAll",
      "outputs": [],
      "stateMutability": "nonpayable",
      "type": "function"
    },
    {
      "inputs": [
        {
          "internalType": "bytes4",
          "name": "interfaceId",
          "type": "bytes4"
        }
      ],
      "name": "supportsInterface",
      "outputs": [
        {
          "internalType": "bool",
          "name": "",
          "type": "bool"
        }
      ],
      "stateMutability": "view",
      "type": "function",
      "constant": true
    },
    {
      "inputs": [],
      "name": "symbol",
      "outputs": [
        {
          "internalType": "string",
          "name": "",
          "type": "string"
        }
      ],
      "stateMutability": "view",
      "type": "function",
      "constant": true
    },
    {
      "inputs": [
        {
          "internalType": "address",
          "name": "newOwner",
          "type": "address"
        }
      ],
      "name": "transferOwnership",
      "outputs": [],
      "stateMutability": "nonpayable",
      "type": "function"
    },
    {
      "inputs": [],
      "name": "trustedForwarder",
      "outputs": [
        {
          "internalType": "address",
          "name": "",
          "type": "address"
        }
      ],
      "stateMutability": "view",
      "type": "function",
      "constant": true
    },
    {
      "inputs": [],
      "name": "versionRecipient",
      "outputs": [
        {
          "internalType": "string",
          "name": "",
          "type": "string"
        }
      ],
      "stateMutability": "view",
      "type": "function",
      "constant": true
    },
    {
      "inputs": [],
      "name": "viridianNFTAddr",
      "outputs": [
        {
          "internalType": "address",
          "name": "",
          "type": "address"
        }
      ],
      "stateMutability": "view",
      "type": "function",
      "constant": true
    },
    {
      "inputs": [
        {
          "internalType": "address",
          "name": "_forwarder",
          "type": "address"
        }
      ],
      "name": "setTrustedForwarder",
      "outputs": [],
      "stateMutability": "nonpayable",
      "type": "function"
    },
    {
      "inputs": [
        {
          "internalType": "address",
          "name": "_newAdmin",
          "type": "address"
        }
      ],
      "name": "addAdmin",
      "outputs": [],
      "stateMutability": "nonpayable",
      "type": "function"
    },
    {
      "inputs": [
        {
          "internalType": "address",
          "name": "_newAdmin",
          "type": "address"
        }
      ],
      "name": "removeAdmin",
      "outputs": [],
      "stateMutability": "nonpayable",
      "type": "function"
    },
    {
      "inputs": [
        {
          "internalType": "string",
          "name": "baseURI_",
          "type": "string"
        }
      ],
      "name": "setBaseURI",
      "outputs": [],
      "stateMutability": "nonpayable",
      "type": "function"
    },
    {
      "inputs": [
        {
          "internalType": "uint256",
          "name": "tokenId",
          "type": "uint256"
        },
        {
          "internalType": "string",
          "name": "_tokenURI",
          "type": "string"
        }
      ],
      "name": "_setTokenURI",
      "outputs": [],
      "stateMutability": "nonpayable",
      "type": "function"
    },
    {
      "inputs": [
        {
          "internalType": "uint256",
          "name": "tokenId",
          "type": "uint256"
        }
      ],
      "name": "tokenURI",
      "outputs": [
        {
          "internalType": "string",
          "name": "",
          "type": "string"
        }
      ],
      "stateMutability": "view",
      "type": "function",
      "constant": true
    },
    {
      "inputs": [
        {
          "internalType": "uint256",
          "name": "_rarity",
          "type": "uint256"
        }
      ],
      "name": "getUriRarityPools",
      "outputs": [
        {
          "internalType": "string[]",
          "name": "",
          "type": "string[]"
        }
      ],
      "stateMutability": "view",
      "type": "function",
      "constant": true
    },
    {
      "inputs": [],
      "name": "getNumNFTs",
      "outputs": [
        {
          "internalType": "uint256",
          "name": "n",
          "type": "uint256"
        }
      ],
      "stateMutability": "view",
      "type": "function",
      "constant": true
    },
    {
      "inputs": [],
      "name": "getNumOwnedNFTs",
      "outputs": [
        {
          "internalType": "uint256",
          "name": "",
          "type": "uint256"
        }
      ],
      "stateMutability": "view",
      "type": "function",
      "constant": true
    },
    {
      "inputs": [],
      "name": "getOwnedNFTs",
      "outputs": [
        {
          "internalType": "uint256[]",
          "name": "",
          "type": "uint256[]"
        }
      ],
      "stateMutability": "view",
      "type": "function",
      "constant": true
    },
    {
      "inputs": [
        {
          "internalType": "uint256",
          "name": "_rarity",
          "type": "uint256"
        },
        {
          "internalType": "uint256",
          "name": "_rarityOdd",
          "type": "uint256"
        },
        {
          "internalType": "uint256",
          "name": "_newOdds",
          "type": "uint256"
        }
      ],
      "name": "setRarityOdds",
      "outputs": [],
      "stateMutability": "nonpayable",
      "type": "function"
    },
    {
      "inputs": [
        {
          "internalType": "uint256",
          "name": "tokenId",
          "type": "uint256"
        }
      ],
      "name": "isListed",
      "outputs": [
        {
          "internalType": "bool",
          "name": "",
          "type": "bool"
        }
      ],
      "stateMutability": "view",
      "type": "function",
      "constant": true
    },
    {
      "inputs": [
        {
          "internalType": "address",
          "name": "_to",
          "type": "address"
        },
        {
          "internalType": "string",
          "name": "tokenURI_",
          "type": "string"
        }
      ],
      "name": "mint",
      "outputs": [],
      "stateMutability": "nonpayable",
      "type": "function"
    },
    {
      "inputs": [
        {
          "internalType": "string",
          "name": "uri",
          "type": "string"
        },
        {
          "internalType": "uint256",
          "name": "rarity",
          "type": "uint256"
        }
      ],
      "name": "softMintNFT",
      "outputs": [],
      "stateMutability": "nonpayable",
      "type": "function"
    },
    {
      "inputs": [
        {
          "internalType": "uint256",
          "name": "rarity",
          "type": "uint256"
        },
        {
          "internalType": "uint256",
          "name": "index",
          "type": "uint256"
        }
      ],
      "name": "burnSoftMintedNFTAtRarityIndex",
      "outputs": [],
      "stateMutability": "nonpayable",
      "type": "function"
    },
    {
      "inputs": [
        {
          "internalType": "string",
          "name": "_s",
          "type": "string"
        },
        {
          "internalType": "string",
          "name": "_s1",
          "type": "string"
        }
      ],
      "name": "compareStrings",
      "outputs": [
        {
          "internalType": "bool",
          "name": "",
          "type": "bool"
        }
      ],
      "stateMutability": "pure",
      "type": "function",
      "constant": true
    },
    {
      "inputs": [
        {
          "internalType": "address",
          "name": "_vrfAddress",
          "type": "address"
        }
      ],
      "name": "configureVRF",
      "outputs": [],
      "stateMutability": "nonpayable",
      "type": "function"
    },
    {
      "inputs": [
        {
          "internalType": "uint256",
          "name": "_tokenId",
          "type": "uint256"
        }
      ],
      "name": "lockInPackResult",
      "outputs": [],
      "stateMutability": "nonpayable",
      "type": "function"
    },
    {
      "inputs": [
        {
          "internalType": "uint256",
          "name": "_tokenId",
          "type": "uint256"
        }
      ],
      "name": "isPackResultDecided",
      "outputs": [
        {
          "internalType": "bool",
          "name": "",
          "type": "bool"
        }
      ],
      "stateMutability": "view",
      "type": "function",
      "constant": true
    },
    {
      "inputs": [
        {
          "internalType": "uint256",
          "name": "_tokenId",
          "type": "uint256"
        }
      ],
      "name": "openPack",
      "outputs": [],
      "stateMutability": "nonpayable",
      "type": "function"
    },
    {
      "inputs": [
        {
          "internalType": "uint256",
          "name": "tokenId",
          "type": "uint256"
        }
      ],
      "name": "burn",
      "outputs": [],
      "stateMutability": "nonpayable",
      "type": "function"
    },
    {
      "inputs": [
        {
          "internalType": "address",
          "name": "recipient",
          "type": "address"
        },
        {
          "internalType": "string",
          "name": "hash",
          "type": "string"
        },
        {
          "internalType": "string",
          "name": "metadata",
          "type": "string"
        }
      ],
      "name": "awardItem",
      "outputs": [
        {
          "internalType": "uint256",
          "name": "",
          "type": "uint256"
        }
      ],
      "stateMutability": "nonpayable",
      "type": "function"
    },
    {
      "inputs": [
        {
          "internalType": "address",
          "name": "from",
          "type": "address"
        },
        {
          "internalType": "address",
          "name": "to",
          "type": "address"
        },
        {
          "internalType": "uint256",
          "name": "tokenId",
          "type": "uint256"
        }
      ],
      "name": "safeTransferFrom",
      "outputs": [],
      "stateMutability": "nonpayable",
      "type": "function"
    },
    {
      "inputs": [
        {
          "internalType": "address",
          "name": "from",
          "type": "address"
        },
        {
          "internalType": "address",
          "name": "to",
          "type": "address"
        },
        {
          "internalType": "uint256",
          "name": "tokenId",
          "type": "uint256"
        },
        {
          "internalType": "bytes",
          "name": "_data",
          "type": "bytes"
        }
      ],
      "name": "safeTransferFrom",
      "outputs": [],
      "stateMutability": "nonpayable",
      "type": "function"
    },
    {
      "inputs": [
        {
          "internalType": "address",
          "name": "from",
          "type": "address"
        },
        {
          "internalType": "address",
          "name": "to",
          "type": "address"
        },
        {
          "internalType": "uint256",
          "name": "tokenId",
          "type": "uint256"
        }
      ],
      "name": "transferFrom",
      "outputs": [],
      "stateMutability": "nonpayable",
      "type": "function"
    },
    {
      "inputs": [
        {
          "internalType": "uint256",
          "name": "_tokenId",
          "type": "uint256"
        }
      ],
      "name": "listToken",
      "outputs": [],
      "stateMutability": "nonpayable",
      "type": "function"
    },
    {
      "inputs": [
        {
          "internalType": "uint256",
          "name": "_tokenId",
          "type": "uint256"
        }
      ],
      "name": "unlistToken",
      "outputs": [],
      "stateMutability": "nonpayable",
      "type": "function"
    }
  ],
  "bytecode": "0x60806040526040518060400160405280600581526020017f322e322e30000000000000000000000000000000000000000000000000000000815250601690805190602001906200005192919062000739565b503480156200005f57600080fd5b50604051620063c2380380620063c2833981810160405281019062000085919062000853565b6040518060400160405280600d81526020017f566972696469616e205061636b000000000000000000000000000000000000008152506040518060400160405280600281526020017f565000000000000000000000000000000000000000000000000000000000000081525081600090805190602001906200010992919062000739565b5080600190805190602001906200012292919062000739565b5050506200014562000139620005bb60201b60201c565b620005d760201b60201c565b600073ffffffffffffffffffffffffffffffffffffffff168173ffffffffffffffffffffffffffffffffffffffff1614156200018057600080fd5b80601360006101000a81548173ffffffffffffffffffffffffffffffffffffffff021916908373ffffffffffffffffffffffffffffffffffffffff160217905550601360009054906101000a900473ffffffffffffffffffffffffffffffffffffffff16601460006101000a81548173ffffffffffffffffffffffffffffffffffffffff021916908373ffffffffffffffffffffffffffffffffffffffff1602179055506019600b60008081526020019081526020016000206000808152602001908152602001600020819055506064600b60008081526020019081526020016000206000600181526020019081526020016000208190555061012c600b6000808152602001908152602001600020600060028152602001908152602001600020819055506103e8600b6000808152602001908152602001600020600060038152602001908152602001600020819055506003600c6000808152602001908152602001600020819055506001600b6000600181526020019081526020016000206000808152602001908152602001600020819055506032600b6000600181526020019081526020016000206000600181526020019081526020016000208190555060c8600b600060018152602001908152602001600020600060028152602001908152602001600020819055506103e8600b600060018152602001908152602001600020600060038152602001908152602001600020819055506003600c6000808152602001908152602001600020819055506000600b6000600281526020019081526020016000206000808152602001908152602001600020819055506032600b600060028152602001908152602001600020600060018152602001908152602001600020819055506064600b600060028152602001908152602001600020600060028152602001908152602001600020819055506103e8600b600060028152602001908152602001600020600060038152602001908152602001600020819055506003600c6000808152602001908152602001600020819055506000600b600060038152602001908152602001600020600080815260200190815260200160002081905550600a600b600060038152602001908152602001600020600060018152602001908152602001600020819055506032600b600060038152602001908152602001600020600060028152602001908152602001600020819055506103e8600b600060038152602001908152602001600020600060038152602001908152602001600020819055506003600c600080815260200190815260200160002081905550600360108190555060016012600062000563620005bb60201b60201c565b73ffffffffffffffffffffffffffffffffffffffff1673ffffffffffffffffffffffffffffffffffffffff16815260200190815260200160002060006101000a81548160ff02191690831515021790555050620008ea565b6000620005d26200069d60201b62002cda1760201c565b905090565b6000600660009054906101000a900473ffffffffffffffffffffffffffffffffffffffff16905081600660006101000a81548173ffffffffffffffffffffffffffffffffffffffff021916908373ffffffffffffffffffffffffffffffffffffffff1602179055508173ffffffffffffffffffffffffffffffffffffffff168173ffffffffffffffffffffffffffffffffffffffff167f8be0079c531659141344cd1fd0a4f28419497f9722a3daafe3b4186f6b6457e060405160405180910390a35050565b60006014600036905010158015620006c25750620006c133620006df60201b60201c565b5b15620006d857601436033560601c9050620006dc565b3390505b90565b6000600760009054906101000a900473ffffffffffffffffffffffffffffffffffffffff1673ffffffffffffffffffffffffffffffffffffffff168273ffffffffffffffffffffffffffffffffffffffff16149050919050565b8280546200074790620008b4565b90600052602060002090601f0160209004810192826200076b5760008555620007b7565b82601f106200078657805160ff1916838001178555620007b7565b82800160010185558215620007b7579182015b82811115620007b657825182559160200191906001019062000799565b5b509050620007c69190620007ca565b5090565b5b80821115620007e5576000816000905550600101620007cb565b5090565b600080fd5b600073ffffffffffffffffffffffffffffffffffffffff82169050919050565b60006200081b82620007ee565b9050919050565b6200082d816200080e565b81146200083957600080fd5b50565b6000815190506200084d8162000822565b92915050565b6000602082840312156200086c576200086b620007e9565b5b60006200087c848285016200083c565b91505092915050565b7f4e487b7100000000000000000000000000000000000000000000000000000000600052602260045260246000fd5b60006002820490506001821680620008cd57607f821691505b60208210811415620008e457620008e362000885565b5b50919050565b615ac880620008fa6000396000f3fe608060405234801561001057600080fd5b50600436106102695760003560e01c80638bfaf10111610151578063bda4e797116100c3578063dc5df54e11610087578063dc5df54e14610742578063e6148d5f1461075e578063e985e9c51461077a578063ece769e7146107aa578063f2fde38b146107c6578063fcce4883146107e257610269565b8063bda4e7971461068c578063bed34bba146106aa578063c87b56dd146106da578063d0def5211461070a578063da7422281461072657610269565b8063a22cb46511610115578063a22cb465146105e0578063a3524a04146105fc578063a80f1e9c1461061a578063ad3a358c14610636578063b88d4fde14610652578063bb92c2481461066e57610269565b80638bfaf101146105145780638da5cb5b1461054457806395d89b41146105625780639e607a3f14610580578063a203428c146105b057610269565b806342966c68116101ea578063572b6c05116101ae578063572b6c05146104405780636352211e1461047057806370480275146104a057806370a08231146104bc578063715018a6146104ec5780637da0a877146104f657610269565b806342966c68146103b0578063486ff0cd146103cc5780634c0eb7d9146103ea57806350a88c7e1461040857806355f804b31461042457610269565b80630e065931116102315780630e065931146103245780631785f53c14610340578063228061cc1461035c57806323b872dd1461037857806342842e0e1461039457610269565b8063015388681461026e57806301ffc9a71461028a57806306fdde03146102ba578063081812fc146102d8578063095ea7b314610308575b600080fd5b61028860048036038101906102839190613e4f565b610812565b005b6102a4600480360381019061029f9190613f03565b610902565b6040516102b19190613f4b565b60405180910390f35b6102c26109e4565b6040516102cf9190613fee565b60405180910390f35b6102f260048036038101906102ed9190614010565b610a76565b6040516102ff919061407e565b60405180910390f35b610322600480360381019061031d91906140c5565b610afb565b005b61033e60048036038101906103399190614105565b610c13565b005b61035a60048036038101906103559190614161565b610cc8565b005b61037660048036038101906103719190614161565b610d9f565b005b610392600480360381019061038d919061418e565b610de3565b005b6103ae60048036038101906103a9919061418e565b610eb5565b005b6103ca60048036038101906103c59190614010565b610f87565b005b6103d4610fad565b6040516103e19190613fee565b60405180910390f35b6103f261103b565b6040516103ff919061429f565b60405180910390f35b610422600480360381019061041d9190614010565b611137565b005b61043e600480360381019061043991906142c1565b6119a1565b005b61045a60048036038101906104559190614161565b611a1f565b6040516104679190613f4b565b60405180910390f35b61048a60048036038101906104859190614010565b611a79565b604051610497919061407e565b60405180910390f35b6104ba60048036038101906104b59190614161565b611b2b565b005b6104d660048036038101906104d19190614161565b611c02565b6040516104e39190614319565b60405180910390f35b6104f4611cba565b005b6104fe611d42565b60405161050b919061407e565b60405180910390f35b61052e60048036038101906105299190614334565b611d6c565b60405161053b9190614319565b60405180910390f35b61054c611e19565b604051610559919061407e565b60405180910390f35b61056a611e43565b6040516105779190613fee565b60405180910390f35b61059a60048036038101906105959190614010565b611ed5565b6040516105a79190613f4b565b60405180910390f35b6105ca60048036038101906105c59190614010565b611eff565b6040516105d791906144cb565b60405180910390f35b6105fa60048036038101906105f59190614519565b61204f565b005b6106046121d0565b604051610611919061407e565b60405180910390f35b610634600480360381019061062f9190614559565b6121f6565b005b610650600480360381019061064b9190614010565b612288565b005b61066c6004803603810190610667919061464d565b6122d1565b005b610676612333565b6040516106839190614319565b60405180910390f35b6106946123be565b6040516106a19190614319565b60405180910390f35b6106c460048036038101906106bf91906146d0565b6123cf565b6040516106d19190613f4b565b60405180910390f35b6106f460048036038101906106ef9190614010565b612428565b6040516107019190613fee565b60405180910390f35b610724600480360381019061071f9190614748565b61259b565b005b610740600480360381019061073b9190614161565b61265c565b005b61075c600480360381019061075791906147a4565b6126e4565b005b61077860048036038101906107739190614010565b612925565b005b610794600480360381019061078f91906147e4565b61296e565b6040516107a19190613f4b565b60405180910390f35b6107c460048036038101906107bf9190614010565b612a02565b005b6107e060048036038101906107db9190614161565b612bb8565b005b6107fc60048036038101906107f79190614010565b612cb0565b6040516108099190613f4b565b60405180910390f35b61081a612d11565b73ffffffffffffffffffffffffffffffffffffffff16610838611e19565b73ffffffffffffffffffffffffffffffffffffffff161461088e576040517f08c379a000000000000000000000000000000000000000000000000000000000815260040161088590614870565b60405180910390fd5b61089782612d20565b6108d6576040517f08c379a00000000000000000000000000000000000000000000000000000000081526004016108cd90614902565b60405180910390fd5b806017600084815260200190815260200160002090805190602001906108fd929190613b30565b505050565b60007f80ac58cd000000000000000000000000000000000000000000000000000000007bffffffffffffffffffffffffffffffffffffffffffffffffffffffff1916827bffffffffffffffffffffffffffffffffffffffffffffffffffffffff191614806109cd57507f5b5e139f000000000000000000000000000000000000000000000000000000007bffffffffffffffffffffffffffffffffffffffffffffffffffffffff1916827bffffffffffffffffffffffffffffffffffffffffffffffffffffffff1916145b806109dd57506109dc82612d8c565b5b9050919050565b6060600080546109f390614951565b80601f0160208091040260200160405190810160405280929190818152602001828054610a1f90614951565b8015610a6c5780601f10610a4157610100808354040283529160200191610a6c565b820191906000526020600020905b815481529060010190602001808311610a4f57829003601f168201915b5050505050905090565b6000610a8182612d20565b610ac0576040517f08c379a0000000000000000000000000000000000000000000000000000000008152600401610ab7906149f5565b60405180910390fd5b6004600083815260200190815260200160002060009054906101000a900473ffffffffffffffffffffffffffffffffffffffff169050919050565b6000610b0682611a79565b90508073ffffffffffffffffffffffffffffffffffffffff168373ffffffffffffffffffffffffffffffffffffffff161415610b77576040517f08c379a0000000000000000000000000000000000000000000000000000000008152600401610b6e90614a87565b60405180910390fd5b8073ffffffffffffffffffffffffffffffffffffffff16610b96612d11565b73ffffffffffffffffffffffffffffffffffffffff161480610bc55750610bc481610bbf612d11565b61296e565b5b610c04576040517f08c379a0000000000000000000000000000000000000000000000000000000008152600401610bfb90614b19565b60405180910390fd5b610c0e8383612df6565b505050565b6001151560126000610c23612d11565b73ffffffffffffffffffffffffffffffffffffffff1673ffffffffffffffffffffffffffffffffffffffff16815260200190815260200160002060009054906101000a900460ff16151514610c7757600080fd5b600f600082815260200190815260200160002082908060018154018082558091505060019003906000526020600020016000909190919091509080519060200190610cc3929190613b30565b505050565b610cd0612d11565b73ffffffffffffffffffffffffffffffffffffffff16610cee611e19565b73ffffffffffffffffffffffffffffffffffffffff1614610d44576040517f08c379a0000000000000000000000000000000000000000000000000000000008152600401610d3b90614870565b60405180910390fd5b6000601260008373ffffffffffffffffffffffffffffffffffffffff1673ffffffffffffffffffffffffffffffffffffffff16815260200190815260200160002060006101000a81548160ff02191690831515021790555050565b80601560006101000a81548173ffffffffffffffffffffffffffffffffffffffff021916908373ffffffffffffffffffffffffffffffffffffffff16021790555050565b600d600082815260200190815260200160002060009054906101000a900460ff1615610e44576040517f08c379a0000000000000000000000000000000000000000000000000000000008152600401610e3b90614bab565b60405180910390fd5b6011600082815260200190815260200160002060009054906101000a900460ff1615610ea5576040517f08c379a0000000000000000000000000000000000000000000000000000000008152600401610e9c90614c3d565b60405180910390fd5b610eb0838383612eaf565b505050565b600d600082815260200190815260200160002060009054906101000a900460ff1615610f16576040517f08c379a0000000000000000000000000000000000000000000000000000000008152600401610f0d90614bab565b60405180910390fd5b6011600082815260200190815260200160002060009054906101000a900460ff1615610f77576040517f08c379a0000000000000000000000000000000000000000000000000000000008152600401610f6e90614c3d565b60405180910390fd5b610f82838383612f0f565b505050565b610f98610f92612d11565b82612f2f565b610fa157600080fd5b610faa8161300d565b50565b60168054610fba90614951565b80601f0160208091040260200160405190810160405280929190818152602001828054610fe690614951565b80156110335780601f1061100857610100808354040283529160200191611033565b820191906000526020600020905b81548152906001019060200180831161101657829003601f168201915b505050505081565b60606000611047612333565b67ffffffffffffffff8111156110605761105f613d24565b5b60405190808252806020026020018201604052801561108e5781602001602082028036833780820191505090505b509050600080600190505b6110a3600861311e565b811161112e576110b1612d11565b73ffffffffffffffffffffffffffffffffffffffff166110d082611a79565b73ffffffffffffffffffffffffffffffffffffffff16141561111b5780838381518110611100576110ff614c5d565b5b602002602001018181525050818061111790614cbb565b9250505b808061112690614cbb565b915050611099565b50819250505090565b611148611142612d11565b82612f2f565b61115157600080fd5b6011600082815260200190815260200160002060009054906101000a900460ff166111b1576040517f08c379a00000000000000000000000000000000000000000000000000000000081526004016111a890614d76565b60405180910390fd5b6000601560009054906101000a900473ffffffffffffffffffffffffffffffffffffffff1673ffffffffffffffffffffffffffffffffffffffff166397597bfd836040518263ffffffff1660e01b815260040161120e9190614319565b602060405180830381865afa15801561122b573d6000803e3d6000fd5b505050506040513d601f19601f8201168201806040525081019061124f9190614dab565b1161128f576040517f08c379a000000000000000000000000000000000000000000000000000000000815260040161128690614e4a565b60405180910390fd5b6000601560009054906101000a900473ffffffffffffffffffffffffffffffffffffffff1673ffffffffffffffffffffffffffffffffffffffff1663d972fa1c836040518263ffffffff1660e01b81526004016112ec9190614319565b602060405180830381865afa158015611309573d6000803e3d6000fd5b505050506040513d601f19601f8201168201806040525081019061132d9190614dab565b1161136d576040517f08c379a000000000000000000000000000000000000000000000000000000000815260040161136490614edc565b60405180910390fd5b6000600e600083815260200190815260200160002054905061138d613bb6565b60005b600c6000848152602001908152602001600020548160ff16101561195b576000611467601560009054906101000a900473ffffffffffffffffffffffffffffffffffffffff1673ffffffffffffffffffffffffffffffffffffffff1663d972fa1c876040518263ffffffff1660e01b815260040161140e9190614319565b602060405180830381865afa15801561142b573d6000803e3d6000fd5b505050506040513d601f19601f8201168201806040525081019061144f9190614dab565b600b600087815260200190815260200160002061312c565b905060006001600f60008481526020019081526020016000208054905061148e9190614efc565b601560009054906101000a900473ffffffffffffffffffffffffffffffffffffffff1673ffffffffffffffffffffffffffffffffffffffff166397597bfd886040518263ffffffff1660e01b81526004016114e99190614319565b602060405180830381865afa158015611506573d6000803e3d6000fd5b505050506040513d601f19601f8201168201806040525081019061152a9190614dab565b6115349190614f5f565b90506000600f6000848152602001908152602001600020828154811061155d5761155c614c5d565b5b90600052602060002001805461157290614951565b80601f016020809104026020016040519081016040528092919081815260200182805461159e90614951565b80156115eb5780601f106115c0576101008083540402835291602001916115eb565b820191906000526020600020905b8154815290600101906020018083116115ce57829003601f168201915b50505050509050601460009054906101000a900473ffffffffffffffffffffffffffffffffffffffff1673ffffffffffffffffffffffffffffffffffffffff1663d0def521611638612d11565b836040518363ffffffff1660e01b8152600401611656929190614f90565b600060405180830381600087803b15801561167057600080fd5b505af1158015611684573d6000803e3d6000fd5b5050505080858560ff16600a811061169f5761169e614c5d565b5b60200201819052506000600f6000858152602001908152602001600020805480602002602001604051908101604052809291908181526020016000905b828210156117885783829060005260206000200180546116fb90614951565b80601f016020809104026020016040519081016040528092919081815260200182805461172790614951565b80156117745780601f1061174957610100808354040283529160200191611774565b820191906000526020600020905b81548152906001019060200180831161175757829003601f168201915b5050505050815260200190600101906116dc565b50505050905060005b600f600086815260200190815260200160002080549050811015611943576000600f600087815260200190815260200160002082815481106117d6576117d5614c5d565b5b9060005260206000200180546117eb90614951565b80601f016020809104026020016040519081016040528092919081815260200182805461181790614951565b80156118645780601f1061183957610100808354040283529160200191611864565b820191906000526020600020905b81548152906001019060200180831161184757829003601f168201915b5050505050905061187581856123cf565b1561192f5782600184516118899190614efc565b8151811061189a57611899614c5d565b5b60200260200101518383815181106118b5576118b4614c5d565b5b602002602001018190525082600f600088815260200190815260200160002090805190602001906118e7929190613bde565b50600f600087815260200190815260200160002080548061190b5761190a614fc0565b5b6001900381819060005260206000200160006119279190613c3e565b905550611943565b50808061193b90614cbb565b915050611791565b5050505050808061195390614ffc565b915050611390565b5061196583610f87565b7f7a8f71ffa367c677061e81db64480595dffec51888e92c29fd97f628ad7be9bc8160405161199491906150c8565b60405180910390a1505050565b60011515601260006119b1612d11565b73ffffffffffffffffffffffffffffffffffffffff1673ffffffffffffffffffffffffffffffffffffffff16815260200190815260200160002060009054906101000a900460ff16151514611a0557600080fd5b8060189080519060200190611a1b929190613b30565b5050565b6000600760009054906101000a900473ffffffffffffffffffffffffffffffffffffffff1673ffffffffffffffffffffffffffffffffffffffff168273ffffffffffffffffffffffffffffffffffffffff16149050919050565b6000806002600084815260200190815260200160002060009054906101000a900473ffffffffffffffffffffffffffffffffffffffff169050600073ffffffffffffffffffffffffffffffffffffffff168173ffffffffffffffffffffffffffffffffffffffff161415611b22576040517f08c379a0000000000000000000000000000000000000000000000000000000008152600401611b199061515c565b60405180910390fd5b80915050919050565b611b33612d11565b73ffffffffffffffffffffffffffffffffffffffff16611b51611e19565b73ffffffffffffffffffffffffffffffffffffffff1614611ba7576040517f08c379a0000000000000000000000000000000000000000000000000000000008152600401611b9e90614870565b60405180910390fd5b6001601260008373ffffffffffffffffffffffffffffffffffffffff1673ffffffffffffffffffffffffffffffffffffffff16815260200190815260200160002060006101000a81548160ff02191690831515021790555050565b60008073ffffffffffffffffffffffffffffffffffffffff168273ffffffffffffffffffffffffffffffffffffffff161415611c73576040517f08c379a0000000000000000000000000000000000000000000000000000000008152600401611c6a906151ee565b60405180910390fd5b600360008373ffffffffffffffffffffffffffffffffffffffff1673ffffffffffffffffffffffffffffffffffffffff168152602001908152602001600020549050919050565b611cc2612d11565b73ffffffffffffffffffffffffffffffffffffffff16611ce0611e19565b73ffffffffffffffffffffffffffffffffffffffff1614611d36576040517f08c379a0000000000000000000000000000000000000000000000000000000008152600401611d2d90614870565b60405180910390fd5b611d40600061317e565b565b6000600760009054906101000a900473ffffffffffffffffffffffffffffffffffffffff16905090565b60006001600a84604051611d80919061524a565b908152602001604051809103902060009054906101000a900460ff1660ff161415611daa57600080fd5b6001600a84604051611dbc919061524a565b908152602001604051809103902060006101000a81548160ff021916908360ff160217905550611dec6008613244565b6000611df8600861311e565b9050611e04858261325a565b611e0e8184610812565b809150509392505050565b6000600660009054906101000a900473ffffffffffffffffffffffffffffffffffffffff16905090565b606060018054611e5290614951565b80601f0160208091040260200160405190810160405280929190818152602001828054611e7e90614951565b8015611ecb5780601f10611ea057610100808354040283529160200191611ecb565b820191906000526020600020905b815481529060010190602001808311611eae57829003601f168201915b5050505050905090565b60006011600083815260200190815260200160002060009054906101000a900460ff169050919050565b60606001151560126000611f11612d11565b73ffffffffffffffffffffffffffffffffffffffff1673ffffffffffffffffffffffffffffffffffffffff16815260200190815260200160002060009054906101000a900460ff16151514611f6557600080fd5b600f6000838152602001908152602001600020805480602002602001604051908101604052809291908181526020016000905b82821015612044578382906000526020600020018054611fb790614951565b80601f0160208091040260200160405190810160405280929190818152602001828054611fe390614951565b80156120305780601f1061200557610100808354040283529160200191612030565b820191906000526020600020905b81548152906001019060200180831161201357829003601f168201915b505050505081526020019060010190611f98565b505050509050919050565b612057612d11565b73ffffffffffffffffffffffffffffffffffffffff168273ffffffffffffffffffffffffffffffffffffffff1614156120c5576040517f08c379a00000000000000000000000000000000000000000000000000000000081526004016120bc906152ad565b60405180910390fd5b80600560006120d2612d11565b73ffffffffffffffffffffffffffffffffffffffff1673ffffffffffffffffffffffffffffffffffffffff16815260200190815260200160002060008473ffffffffffffffffffffffffffffffffffffffff1673ffffffffffffffffffffffffffffffffffffffff16815260200190815260200160002060006101000a81548160ff0219169083151502179055508173ffffffffffffffffffffffffffffffffffffffff1661217f612d11565b73ffffffffffffffffffffffffffffffffffffffff167f17307eab39ab6107e8899845ad3d59bd9653f200f220920489ca2b5937696c31836040516121c49190613f4b565b60405180910390a35050565b601360009054906101000a900473ffffffffffffffffffffffffffffffffffffffff1681565b6001151560126000612206612d11565b73ffffffffffffffffffffffffffffffffffffffff1673ffffffffffffffffffffffffffffffffffffffff16815260200190815260200160002060009054906101000a900460ff1615151461225a57600080fd5b80600b6000858152602001908152602001600020600084815260200190815260200160002081905550505050565b612299612293612d11565b82612f2f565b6122a257600080fd5b6000600d600083815260200190815260200160002060006101000a81548160ff02191690831515021790555050565b6122e26122dc612d11565b83612f2f565b612321576040517f08c379a00000000000000000000000000000000000000000000000000000000081526004016123189061533f565b60405180910390fd5b61232d84848484613428565b50505050565b600080600090506000600190505b61234b600861311e565b81116123b657612359612d11565b73ffffffffffffffffffffffffffffffffffffffff1661237882611a79565b73ffffffffffffffffffffffffffffffffffffffff1614156123a357818061239f90614cbb565b9250505b80806123ae90614cbb565b915050612341565b508091505090565b60006123ca600861311e565b905090565b6000816040516020016123e2919061524a565b6040516020818303038152906040528051906020012083604051602001612409919061524a565b6040516020818303038152906040528051906020012014905092915050565b606061243382612d20565b612472576040517f08c379a0000000000000000000000000000000000000000000000000000000008152600401612469906153d1565b60405180910390fd5b600060176000848152602001908152602001600020805461249290614951565b80601f01602080910402602001604051908101604052809291908181526020018280546124be90614951565b801561250b5780601f106124e05761010080835404028352916020019161250b565b820191906000526020600020905b8154815290600101906020018083116124ee57829003601f168201915b50505050509050600061251c613484565b9050600081511415612532578192505050612596565b60008251111561256757808260405160200161254f9291906153f1565b60405160208183030381529060405292505050612596565b8061257185613516565b6040516020016125829291906153f1565b604051602081830303815290604052925050505b919050565b60011515601260006125ab612d11565b73ffffffffffffffffffffffffffffffffffffffff1673ffffffffffffffffffffffffffffffffffffffff16815260200190815260200160002060009054906101000a900460ff161515146125ff57600080fd5b6126096008613244565b6000612615600861311e565b90506126218382613677565b6000600d600083815260200190815260200160002060006101000a81548160ff0219169083151502179055506126578183610812565b505050565b612664612d11565b73ffffffffffffffffffffffffffffffffffffffff16612682611e19565b73ffffffffffffffffffffffffffffffffffffffff16146126d8576040517f08c379a00000000000000000000000000000000000000000000000000000000081526004016126cf90614870565b60405180910390fd5b6126e181613695565b50565b60011515601260006126f4612d11565b73ffffffffffffffffffffffffffffffffffffffff1673ffffffffffffffffffffffffffffffffffffffff16815260200190815260200160002060009054906101000a900460ff1615151461274857600080fd5b6000600f6000848152602001908152602001600020805480602002602001604051908101604052809291908181526020016000905b8282101561282957838290600052602060002001805461279c90614951565b80601f01602080910402602001604051908101604052809291908181526020018280546127c890614951565b80156128155780601f106127ea57610100808354040283529160200191612815565b820191906000526020600020905b8154815290600101906020018083116127f857829003601f168201915b50505050508152602001906001019061277d565b50505050905060005b600f60008581526020019081526020016000208054905081101561291f578281141561290c5781600183516128679190614efc565b8151811061287857612877614c5d565b5b602002602001015182828151811061289357612892614c5d565b5b602002602001018190525081600f600086815260200190815260200160002090805190602001906128c5929190613bde565b50600f60008581526020019081526020016000208054806128e9576128e8614fc0565b5b6001900381819060005260206000200160006129059190613c3e565b905561291f565b808061291790614cbb565b915050612832565b50505050565b612936612930612d11565b82612f2f565b61293f57600080fd5b6001600d600083815260200190815260200160002060006101000a81548160ff02191690831515021790555050565b6000600560008473ffffffffffffffffffffffffffffffffffffffff1673ffffffffffffffffffffffffffffffffffffffff16815260200190815260200160002060008373ffffffffffffffffffffffffffffffffffffffff1673ffffffffffffffffffffffffffffffffffffffff16815260200190815260200160002060009054906101000a900460ff16905092915050565b612a13612a0d612d11565b82612f2f565b612a52576040517f08c379a0000000000000000000000000000000000000000000000000000000008152600401612a4990615461565b60405180910390fd5b6011600082815260200190815260200160002060009054906101000a900460ff1615612ab3576040517f08c379a0000000000000000000000000000000000000000000000000000000008152600401612aaa906154f3565b60405180910390fd5b60016011600083815260200190815260200160002060006101000a81548160ff021916908315150217905550601560009054906101000a900473ffffffffffffffffffffffffffffffffffffffff1673ffffffffffffffffffffffffffffffffffffffff1663b37217a4826040518263ffffffff1660e01b8152600401612b3a9190614319565b6020604051808303816000875af1158015612b59573d6000803e3d6000fd5b505050506040513d601f19601f82011682018060405250810190612b7d9190615549565b507f702dd7be132b87b70a9e03694fa9b6f9a690d86a1a8f92a6a741dca24ed82e8581604051612bad9190614319565b60405180910390a150565b612bc0612d11565b73ffffffffffffffffffffffffffffffffffffffff16612bde611e19565b73ffffffffffffffffffffffffffffffffffffffff1614612c34576040517f08c379a0000000000000000000000000000000000000000000000000000000008152600401612c2b90614870565b60405180910390fd5b600073ffffffffffffffffffffffffffffffffffffffff168173ffffffffffffffffffffffffffffffffffffffff161415612ca4576040517f08c379a0000000000000000000000000000000000000000000000000000000008152600401612c9b906155e8565b60405180910390fd5b612cad8161317e565b50565b6000600d600083815260200190815260200160002060009054906101000a900460ff169050919050565b60006014600036905010158015612cf65750612cf533611a1f565b5b15612d0a57601436033560601c9050612d0e565b3390505b90565b6000612d1b612cda565b905090565b60008073ffffffffffffffffffffffffffffffffffffffff166002600084815260200190815260200160002060009054906101000a900473ffffffffffffffffffffffffffffffffffffffff1673ffffffffffffffffffffffffffffffffffffffff1614159050919050565b60007f01ffc9a7000000000000000000000000000000000000000000000000000000007bffffffffffffffffffffffffffffffffffffffffffffffffffffffff1916827bffffffffffffffffffffffffffffffffffffffffffffffffffffffff1916149050919050565b816004600083815260200190815260200160002060006101000a81548173ffffffffffffffffffffffffffffffffffffffff021916908373ffffffffffffffffffffffffffffffffffffffff160217905550808273ffffffffffffffffffffffffffffffffffffffff16612e6983611a79565b73ffffffffffffffffffffffffffffffffffffffff167f8c5be1e5ebec7d5bd14f71427d1e84f3dd0314c0f7b2291e5b200ac8c7c3b92560405160405180910390a45050565b612ec0612eba612d11565b82612f2f565b612eff576040517f08c379a0000000000000000000000000000000000000000000000000000000008152600401612ef69061533f565b60405180910390fd5b612f0a8383836136d9565b505050565b612f2a838383604051806020016040528060008152506122d1565b505050565b6000612f3a82612d20565b612f79576040517f08c379a0000000000000000000000000000000000000000000000000000000008152600401612f709061567a565b60405180910390fd5b6000612f8483611a79565b90508073ffffffffffffffffffffffffffffffffffffffff168473ffffffffffffffffffffffffffffffffffffffff161480612ff357508373ffffffffffffffffffffffffffffffffffffffff16612fdb84610a76565b73ffffffffffffffffffffffffffffffffffffffff16145b806130045750613003818561296e565b5b91505092915050565b600061301882611a79565b905061302681600084613935565b613031600083612df6565b6001600360008373ffffffffffffffffffffffffffffffffffffffff1673ffffffffffffffffffffffffffffffffffffffff16815260200190815260200160002060008282546130819190614efc565b925050819055506002600083815260200190815260200160002060006101000a81549073ffffffffffffffffffffffffffffffffffffffff021916905581600073ffffffffffffffffffffffffffffffffffffffff168273ffffffffffffffffffffffffffffffffffffffff167fddf252ad1be2c89b69c2b068fc378daa952ba7f163c4a11628f55a4df523b3ef60405160405180910390a45050565b600081600001549050919050565b600080600090505b601054811215613173578260008281526020019081526020016000205484116131605780915050613178565b808061316b90614cbb565b915050613134565b809150505b92915050565b6000600660009054906101000a900473ffffffffffffffffffffffffffffffffffffffff16905081600660006101000a81548173ffffffffffffffffffffffffffffffffffffffff021916908373ffffffffffffffffffffffffffffffffffffffff1602179055508173ffffffffffffffffffffffffffffffffffffffff168173ffffffffffffffffffffffffffffffffffffffff167f8be0079c531659141344cd1fd0a4f28419497f9722a3daafe3b4186f6b6457e060405160405180910390a35050565b6001816000016000828254019250508190555050565b600073ffffffffffffffffffffffffffffffffffffffff168273ffffffffffffffffffffffffffffffffffffffff1614156132ca576040517f08c379a00000000000000000000000000000000000000000000000000000000081526004016132c1906156e6565b60405180910390fd5b6132d381612d20565b15613313576040517f08c379a000000000000000000000000000000000000000000000000000000000815260040161330a90615752565b60405180910390fd5b61331f60008383613935565b6001600360008473ffffffffffffffffffffffffffffffffffffffff1673ffffffffffffffffffffffffffffffffffffffff168152602001908152602001600020600082825461336f9190615772565b92505081905550816002600083815260200190815260200160002060006101000a81548173ffffffffffffffffffffffffffffffffffffffff021916908373ffffffffffffffffffffffffffffffffffffffff160217905550808273ffffffffffffffffffffffffffffffffffffffff16600073ffffffffffffffffffffffffffffffffffffffff167fddf252ad1be2c89b69c2b068fc378daa952ba7f163c4a11628f55a4df523b3ef60405160405180910390a45050565b6134338484846136d9565b61343f8484848461393a565b61347e576040517f08c379a00000000000000000000000000000000000000000000000000000000081526004016134759061583a565b60405180910390fd5b50505050565b60606018805461349390614951565b80601f01602080910402602001604051908101604052809291908181526020018280546134bf90614951565b801561350c5780601f106134e15761010080835404028352916020019161350c565b820191906000526020600020905b8154815290600101906020018083116134ef57829003601f168201915b5050505050905090565b6060600082141561355e576040518060400160405280600181526020017f30000000000000000000000000000000000000000000000000000000000000008152509050613672565b600082905060005b6000821461359057808061357990614cbb565b915050600a82613589919061585a565b9150613566565b60008167ffffffffffffffff8111156135ac576135ab613d24565b5b6040519080825280601f01601f1916602001820160405280156135de5781602001600182028036833780820191505090505b5090505b6000851461366b576001826135f79190614efc565b9150600a856136069190614f5f565b60306136129190615772565b60f81b81838151811061362857613627614c5d565b5b60200101907effffffffffffffffffffffffffffffffffffffffffffffffffffffffffffff1916908160001a905350600a85613664919061585a565b94506135e2565b8093505050505b919050565b613691828260405180602001604052806000815250613ac2565b5050565b80600760006101000a81548173ffffffffffffffffffffffffffffffffffffffff021916908373ffffffffffffffffffffffffffffffffffffffff16021790555050565b8273ffffffffffffffffffffffffffffffffffffffff166136f982611a79565b73ffffffffffffffffffffffffffffffffffffffff161461374f576040517f08c379a0000000000000000000000000000000000000000000000000000000008152600401613746906158fd565b60405180910390fd5b600073ffffffffffffffffffffffffffffffffffffffff168273ffffffffffffffffffffffffffffffffffffffff1614156137bf576040517f08c379a00000000000000000000000000000000000000000000000000000000081526004016137b69061598f565b60405180910390fd5b6137ca838383613935565b6137d5600082612df6565b6001600360008573ffffffffffffffffffffffffffffffffffffffff1673ffffffffffffffffffffffffffffffffffffffff16815260200190815260200160002060008282546138259190614efc565b925050819055506001600360008473ffffffffffffffffffffffffffffffffffffffff1673ffffffffffffffffffffffffffffffffffffffff168152602001908152602001600020600082825461387c9190615772565b92505081905550816002600083815260200190815260200160002060006101000a81548173ffffffffffffffffffffffffffffffffffffffff021916908373ffffffffffffffffffffffffffffffffffffffff160217905550808273ffffffffffffffffffffffffffffffffffffffff168473ffffffffffffffffffffffffffffffffffffffff167fddf252ad1be2c89b69c2b068fc378daa952ba7f163c4a11628f55a4df523b3ef60405160405180910390a4505050565b505050565b600061395b8473ffffffffffffffffffffffffffffffffffffffff16613b1d565b15613ab5578373ffffffffffffffffffffffffffffffffffffffff1663150b7a02613984612d11565b8786866040518563ffffffff1660e01b81526004016139a69493929190615a04565b6020604051808303816000875af19250505080156139e257506040513d601f19601f820116820180604052508101906139df9190615a65565b60015b613a65573d8060008114613a12576040519150601f19603f3d011682016040523d82523d6000602084013e613a17565b606091505b50600081511415613a5d576040517f08c379a0000000000000000000000000000000000000000000000000000000008152600401613a549061583a565b60405180910390fd5b805181602001fd5b63150b7a0260e01b7bffffffffffffffffffffffffffffffffffffffffffffffffffffffff1916817bffffffffffffffffffffffffffffffffffffffffffffffffffffffff191614915050613aba565b600190505b949350505050565b613acc838361325a565b613ad9600084848461393a565b613b18576040517f08c379a0000000000000000000000000000000000000000000000000000000008152600401613b0f9061583a565b60405180910390fd5b505050565b600080823b905060008111915050919050565b828054613b3c90614951565b90600052602060002090601f016020900481019282613b5e5760008555613ba5565b82601f10613b7757805160ff1916838001178555613ba5565b82800160010185558215613ba5579182015b82811115613ba4578251825591602001919060010190613b89565b5b509050613bb29190613c7e565b5090565b604051806101400160405280600a905b6060815260200190600190039081613bc65790505090565b828054828255906000526020600020908101928215613c2d579160200282015b82811115613c2c578251829080519060200190613c1c929190613b30565b5091602001919060010190613bfe565b5b509050613c3a9190613c9b565b5090565b508054613c4a90614951565b6000825580601f10613c5c5750613c7b565b601f016020900490600052602060002090810190613c7a9190613c7e565b5b50565b5b80821115613c97576000816000905550600101613c7f565b5090565b5b80821115613cbb5760008181613cb29190613c3e565b50600101613c9c565b5090565b6000604051905090565b600080fd5b600080fd5b6000819050919050565b613ce681613cd3565b8114613cf157600080fd5b50565b600081359050613d0381613cdd565b92915050565b600080fd5b600080fd5b6000601f19601f8301169050919050565b7f4e487b7100000000000000000000000000000000000000000000000000000000600052604160045260246000fd5b613d5c82613d13565b810181811067ffffffffffffffff82111715613d7b57613d7a613d24565b5b80604052505050565b6000613d8e613cbf565b9050613d9a8282613d53565b919050565b600067ffffffffffffffff821115613dba57613db9613d24565b5b613dc382613d13565b9050602081019050919050565b82818337600083830152505050565b6000613df2613ded84613d9f565b613d84565b905082815260208101848484011115613e0e57613e0d613d0e565b5b613e19848285613dd0565b509392505050565b600082601f830112613e3657613e35613d09565b5b8135613e46848260208601613ddf565b91505092915050565b60008060408385031215613e6657613e65613cc9565b5b6000613e7485828601613cf4565b925050602083013567ffffffffffffffff811115613e9557613e94613cce565b5b613ea185828601613e21565b9150509250929050565b60007fffffffff0000000000000000000000000000000000000000000000000000000082169050919050565b613ee081613eab565b8114613eeb57600080fd5b50565b600081359050613efd81613ed7565b92915050565b600060208284031215613f1957613f18613cc9565b5b6000613f2784828501613eee565b91505092915050565b60008115159050919050565b613f4581613f30565b82525050565b6000602082019050613f606000830184613f3c565b92915050565b600081519050919050565b600082825260208201905092915050565b60005b83811015613fa0578082015181840152602081019050613f85565b83811115613faf576000848401525b50505050565b6000613fc082613f66565b613fca8185613f71565b9350613fda818560208601613f82565b613fe381613d13565b840191505092915050565b600060208201905081810360008301526140088184613fb5565b905092915050565b60006020828403121561402657614025613cc9565b5b600061403484828501613cf4565b91505092915050565b600073ffffffffffffffffffffffffffffffffffffffff82169050919050565b60006140688261403d565b9050919050565b6140788161405d565b82525050565b6000602082019050614093600083018461406f565b92915050565b6140a28161405d565b81146140ad57600080fd5b50565b6000813590506140bf81614099565b92915050565b600080604083850312156140dc576140db613cc9565b5b60006140ea858286016140b0565b92505060206140fb85828601613cf4565b9150509250929050565b6000806040838503121561411c5761411b613cc9565b5b600083013567ffffffffffffffff81111561413a57614139613cce565b5b61414685828601613e21565b925050602061415785828601613cf4565b9150509250929050565b60006020828403121561417757614176613cc9565b5b6000614185848285016140b0565b91505092915050565b6000806000606084860312156141a7576141a6613cc9565b5b60006141b5868287016140b0565b93505060206141c6868287016140b0565b92505060406141d786828701613cf4565b9150509250925092565b600081519050919050565b600082825260208201905092915050565b6000819050602082019050919050565b61421681613cd3565b82525050565b6000614228838361420d565b60208301905092915050565b6000602082019050919050565b600061424c826141e1565b61425681856141ec565b9350614261836141fd565b8060005b83811015614292578151614279888261421c565b975061428483614234565b925050600181019050614265565b5085935050505092915050565b600060208201905081810360008301526142b98184614241565b905092915050565b6000602082840312156142d7576142d6613cc9565b5b600082013567ffffffffffffffff8111156142f5576142f4613cce565b5b61430184828501613e21565b91505092915050565b61431381613cd3565b82525050565b600060208201905061432e600083018461430a565b92915050565b60008060006060848603121561434d5761434c613cc9565b5b600061435b868287016140b0565b935050602084013567ffffffffffffffff81111561437c5761437b613cce565b5b61438886828701613e21565b925050604084013567ffffffffffffffff8111156143a9576143a8613cce565b5b6143b586828701613e21565b9150509250925092565b600081519050919050565b600082825260208201905092915050565b6000819050602082019050919050565b600082825260208201905092915050565b600061440782613f66565b61441181856143eb565b9350614421818560208601613f82565b61442a81613d13565b840191505092915050565b600061444183836143fc565b905092915050565b6000602082019050919050565b6000614461826143bf565b61446b81856143ca565b93508360208202850161447d856143db565b8060005b858110156144b9578484038952815161449a8582614435565b94506144a583614449565b925060208a01995050600181019050614481565b50829750879550505050505092915050565b600060208201905081810360008301526144e58184614456565b905092915050565b6144f681613f30565b811461450157600080fd5b50565b600081359050614513816144ed565b92915050565b600080604083850312156145305761452f613cc9565b5b600061453e858286016140b0565b925050602061454f85828601614504565b9150509250929050565b60008060006060848603121561457257614571613cc9565b5b600061458086828701613cf4565b935050602061459186828701613cf4565b92505060406145a286828701613cf4565b9150509250925092565b600067ffffffffffffffff8211156145c7576145c6613d24565b5b6145d082613d13565b9050602081019050919050565b60006145f06145eb846145ac565b613d84565b90508281526020810184848401111561460c5761460b613d0e565b5b614617848285613dd0565b509392505050565b600082601f83011261463457614633613d09565b5b81356146448482602086016145dd565b91505092915050565b6000806000806080858703121561466757614666613cc9565b5b6000614675878288016140b0565b9450506020614686878288016140b0565b935050604061469787828801613cf4565b925050606085013567ffffffffffffffff8111156146b8576146b7613cce565b5b6146c48782880161461f565b91505092959194509250565b600080604083850312156146e7576146e6613cc9565b5b600083013567ffffffffffffffff81111561470557614704613cce565b5b61471185828601613e21565b925050602083013567ffffffffffffffff81111561473257614731613cce565b5b61473e85828601613e21565b9150509250929050565b6000806040838503121561475f5761475e613cc9565b5b600061476d858286016140b0565b925050602083013567ffffffffffffffff81111561478e5761478d613cce565b5b61479a85828601613e21565b9150509250929050565b600080604083850312156147bb576147ba613cc9565b5b60006147c985828601613cf4565b92505060206147da85828601613cf4565b9150509250929050565b600080604083850312156147fb576147fa613cc9565b5b6000614809858286016140b0565b925050602061481a858286016140b0565b9150509250929050565b7f4f776e61626c653a2063616c6c6572206973206e6f7420746865206f776e6572600082015250565b600061485a602083613f71565b915061486582614824565b602082019050919050565b600060208201905081810360008301526148898161484d565b9050919050565b7f4552433732314d657461646174613a2055524920736574206f66206e6f6e657860008201527f697374656e7420746f6b656e0000000000000000000000000000000000000000602082015250565b60006148ec602c83613f71565b91506148f782614890565b604082019050919050565b6000602082019050818103600083015261491b816148df565b9050919050565b7f4e487b7100000000000000000000000000000000000000000000000000000000600052602260045260246000fd5b6000600282049050600182168061496957607f821691505b6020821081141561497d5761497c614922565b5b50919050565b7f4552433732313a20617070726f76656420717565727920666f72206e6f6e657860008201527f697374656e7420746f6b656e0000000000000000000000000000000000000000602082015250565b60006149df602c83613f71565b91506149ea82614983565b604082019050919050565b60006020820190508181036000830152614a0e816149d2565b9050919050565b7f4552433732313a20617070726f76616c20746f2063757272656e74206f776e6560008201527f7200000000000000000000000000000000000000000000000000000000000000602082015250565b6000614a71602183613f71565b9150614a7c82614a15565b604082019050919050565b60006020820190508181036000830152614aa081614a64565b9050919050565b7f4552433732313a20617070726f76652063616c6c6572206973206e6f74206f7760008201527f6e6572206e6f7220617070726f76656420666f7220616c6c0000000000000000602082015250565b6000614b03603883613f71565b9150614b0e82614aa7565b604082019050919050565b60006020820190508181036000830152614b3281614af6565b9050919050565b7f566972696469616e204e46543a2043616e6e6f74207472616e7366657220776860008201527f696c65206c6973746564206f6e20566972696469616e2045786368616e676500602082015250565b6000614b95603f83613f71565b9150614ba082614b39565b604082019050919050565b60006020820190508181036000830152614bc481614b88565b9050919050565b7f566972696469616e204e46543a2043616e206f6e6c79206f70656e207061636b60008201527f206f6e636520726573756c742069732064656369646564000000000000000000602082015250565b6000614c27603783613f71565b9150614c3282614bcb565b604082019050919050565b60006020820190508181036000830152614c5681614c1a565b9050919050565b7f4e487b7100000000000000000000000000000000000000000000000000000000600052603260045260246000fd5b7f4e487b7100000000000000000000000000000000000000000000000000000000600052601160045260246000fd5b6000614cc682613cd3565b91507fffffffffffffffffffffffffffffffffffffffffffffffffffffffffffffffff821415614cf957614cf8614c8c565b5b600182019050919050565b7f566972696469616e204e46543a207061636b20726573756c74206e6f7420646560008201527f6369646564207965740000000000000000000000000000000000000000000000602082015250565b6000614d60602983613f71565b9150614d6b82614d04565b604082019050919050565b60006020820190508181036000830152614d8f81614d53565b9050919050565b600081519050614da581613cdd565b92915050565b600060208284031215614dc157614dc0613cc9565b5b6000614dcf84828501614d96565b91505092915050565b7f566972696469616e205061636b3a20565246206861736e27742067656e65726160008201527f7465642072616e646f6d2072617720726573756c742079657400000000000000602082015250565b6000614e34603983613f71565b9150614e3f82614dd8565b604082019050919050565b60006020820190508181036000830152614e6381614e27565b9050919050565b7f566972696469616e205061636b3a20565246206861736e27742067656e65726160008201527f7465642072616e646f6d20726573756c74207965740000000000000000000000602082015250565b6000614ec6603583613f71565b9150614ed182614e6a565b604082019050919050565b60006020820190508181036000830152614ef581614eb9565b9050919050565b6000614f0782613cd3565b9150614f1283613cd3565b925082821015614f2557614f24614c8c565b5b828203905092915050565b7f4e487b7100000000000000000000000000000000000000000000000000000000600052601260045260246000fd5b6000614f6a82613cd3565b9150614f7583613cd3565b925082614f8557614f84614f30565b5b828206905092915050565b6000604082019050614fa5600083018561406f565b8181036020830152614fb78184613fb5565b90509392505050565b7f4e487b7100000000000000000000000000000000000000000000000000000000600052603160045260246000fd5b600060ff82169050919050565b600061500782614fef565b915060ff82141561501b5761501a614c8c565b5b600182019050919050565b6000600a9050919050565b600081905092915050565b6000819050919050565b6000602082019050919050565b600061505e82615026565b6150688185615031565b93508360208202850161507a8561503c565b8060005b858110156150b657848403895281516150978582614435565b94506150a283615046565b925060208a0199505060018101905061507e565b50829750879550505050505092915050565b600060208201905081810360008301526150e28184615053565b905092915050565b7f4552433732313a206f776e657220717565727920666f72206e6f6e657869737460008201527f656e7420746f6b656e0000000000000000000000000000000000000000000000602082015250565b6000615146602983613f71565b9150615151826150ea565b604082019050919050565b6000602082019050818103600083015261517581615139565b9050919050565b7f4552433732313a2062616c616e636520717565727920666f7220746865207a6560008201527f726f206164647265737300000000000000000000000000000000000000000000602082015250565b60006151d8602a83613f71565b91506151e38261517c565b604082019050919050565b60006020820190508181036000830152615207816151cb565b9050919050565b600081905092915050565b600061522482613f66565b61522e818561520e565b935061523e818560208601613f82565b80840191505092915050565b60006152568284615219565b915081905092915050565b7f4552433732313a20617070726f766520746f2063616c6c657200000000000000600082015250565b6000615297601983613f71565b91506152a282615261565b602082019050919050565b600060208201905081810360008301526152c68161528a565b9050919050565b7f4552433732313a207472616e736665722063616c6c6572206973206e6f74206f60008201527f776e6572206e6f7220617070726f766564000000000000000000000000000000602082015250565b6000615329603183613f71565b9150615334826152cd565b604082019050919050565b600060208201905081810360008301526153588161531c565b9050919050565b7f4552433732314d657461646174613a2055524920717565727920666f72206e6f60008201527f6e6578697374656e7420746f6b656e0000000000000000000000000000000000602082015250565b60006153bb602f83613f71565b91506153c68261535f565b604082019050919050565b600060208201905081810360008301526153ea816153ae565b9050919050565b60006153fd8285615219565b91506154098284615219565b91508190509392505050565b7f4e6f7420617070726f766564206f72206f776e65720000000000000000000000600082015250565b600061544b601583613f71565b915061545682615415565b602082019050919050565b6000602082019050818103600083015261547a8161543e565b9050919050565b7f566972696469616e205061636b3a2043616e6e6f74207265646f207061636b2060008201527f726573756c740000000000000000000000000000000000000000000000000000602082015250565b60006154dd602683613f71565b91506154e882615481565b604082019050919050565b6000602082019050818103600083015261550c816154d0565b9050919050565b6000819050919050565b61552681615513565b811461553157600080fd5b50565b6000815190506155438161551d565b92915050565b60006020828403121561555f5761555e613cc9565b5b600061556d84828501615534565b91505092915050565b7f4f776e61626c653a206e6577206f776e657220697320746865207a65726f206160008201527f6464726573730000000000000000000000000000000000000000000000000000602082015250565b60006155d2602683613f71565b91506155dd82615576565b604082019050919050565b60006020820190508181036000830152615601816155c5565b9050919050565b7f4552433732313a206f70657261746f7220717565727920666f72206e6f6e657860008201527f697374656e7420746f6b656e0000000000000000000000000000000000000000602082015250565b6000615664602c83613f71565b915061566f82615608565b604082019050919050565b6000602082019050818103600083015261569381615657565b9050919050565b7f4552433732313a206d696e7420746f20746865207a65726f2061646472657373600082015250565b60006156d0602083613f71565b91506156db8261569a565b602082019050919050565b600060208201905081810360008301526156ff816156c3565b9050919050565b7f4552433732313a20746f6b656e20616c7265616479206d696e74656400000000600082015250565b600061573c601c83613f71565b915061574782615706565b602082019050919050565b6000602082019050818103600083015261576b8161572f565b9050919050565b600061577d82613cd3565b915061578883613cd3565b9250827fffffffffffffffffffffffffffffffffffffffffffffffffffffffffffffffff038211156157bd576157bc614c8c565b5b828201905092915050565b7f4552433732313a207472616e7366657220746f206e6f6e20455243373231526560008201527f63656976657220696d706c656d656e7465720000000000000000000000000000602082015250565b6000615824603283613f71565b915061582f826157c8565b604082019050919050565b6000602082019050818103600083015261585381615817565b9050919050565b600061586582613cd3565b915061587083613cd3565b9250826158805761587f614f30565b5b828204905092915050565b7f4552433732313a207472616e73666572206f6620746f6b656e2074686174206960008201527f73206e6f74206f776e0000000000000000000000000000000000000000000000602082015250565b60006158e7602983613f71565b91506158f28261588b565b604082019050919050565b60006020820190508181036000830152615916816158da565b9050919050565b7f4552433732313a207472616e7366657220746f20746865207a65726f2061646460008201527f7265737300000000000000000000000000000000000000000000000000000000602082015250565b6000615979602483613f71565b91506159848261591d565b604082019050919050565b600060208201905081810360008301526159a88161596c565b9050919050565b600081519050919050565b600082825260208201905092915050565b60006159d6826159af565b6159e081856159ba565b93506159f0818560208601613f82565b6159f981613d13565b840191505092915050565b6000608082019050615a19600083018761406f565b615a26602083018661406f565b615a33604083018561430a565b8181036060830152615a4581846159cb565b905095945050505050565b600081519050615a5f81613ed7565b92915050565b600060208284031215615a7b57615a7a613cc9565b5b6000615a8984828501615a50565b9150509291505056fea2646970667358221220845263190ee6b52e50b9e449d6865c4b8d7e3a3a649ce490090e6b0ac111318864736f6c634300080b0033",
  "immutableReferences": {},
  "source": "pragma solidity ^0.8.0;\n\nimport \"@openzeppelin/contracts/token/ERC721/ERC721.sol\";\nimport \"@openzeppelin/contracts/utils/Counters.sol\";\nimport \"@openzeppelin/contracts/access/Ownable.sol\";\nimport \"@opengsn/contracts/src/BaseRelayRecipient.sol\";\n\nimport \"./RandomNumber.sol\";\nimport \"./ViridianNFT.sol\";\n\ncontract ViridianPack is ERC721, Ownable, BaseRelayRecipient {\n\n    using Counters for Counters.Counter;\n    Counters.Counter private _tokenIds;\n    Counters.Counter private _unmintedTokenIds;\n    mapping(string => uint8) hashes;\n    mapping(uint256 => mapping(uint256 => uint256)) private rarityOdds;\n    mapping(uint256 => uint256) private numNFTs;\n    //mapping(uint256 => string) private unmintedURIs;\n    mapping(uint256 => bool) private _tokensListed;\n    mapping(uint256 => uint256) tokenRarity;\n    mapping(uint256 => string[]) private uriRarityPools;\n    int private maxRarityIndex;\n\n    mapping(uint256 => bool) private packResultDecided;\n\n    mapping(address => bool) admins;\n\n    address public viridianNFTAddr;\n\n    ViridianNFT vNFT;\n    RandomNumberConsumer vrf;\n\n    using Strings for uint256;\n\n    constructor(address _viridianNFT/*, address _forwarder*/) ERC721(\"Viridian Pack\", \"VP\") {\n\n        require(address(_viridianNFT) != address(0));\n\n        viridianNFTAddr = _viridianNFT;\n\n        //_setTrustedForwarder(_forwarder);\n\n        vNFT = ViridianNFT(viridianNFTAddr);\n\n        //Set all beginning rarities\n\n        // Legendary rarity and cards in pack\n        rarityOdds[0][0] = 25;\n        rarityOdds[0][1] = 100;\n        rarityOdds[0][2] = 300;\n        rarityOdds[0][3] = 1000;\n        numNFTs[0] = 3;\n\n        // Mystical rarity and cards in pack\n        rarityOdds[1][0] = 1;\n        rarityOdds[1][1] = 50;\n        rarityOdds[1][2] = 200;\n        rarityOdds[1][3] = 1000;\n        numNFTs[0] = 3;\n\n        // Rare rarity and cards in pack\n        rarityOdds[2][0] = 0;\n        rarityOdds[2][1] = 50;\n        rarityOdds[2][2] = 100;\n        rarityOdds[2][3] = 1000;\n        numNFTs[0] = 3;\n\n        // Common rarity and cards in pack\n        rarityOdds[3][0] = 0;\n        rarityOdds[3][1] = 10;\n        rarityOdds[3][2] = 50;\n        rarityOdds[3][3] = 1000;\n        numNFTs[0] = 3;\n\n        maxRarityIndex = 3;\n\n        admins[_msgSender()] = true;\n    }\n\n    string public override versionRecipient = \"2.2.0\";\n\n    function setTrustedForwarder(address _forwarder) public onlyOwner() {\n        _setTrustedForwarder(_forwarder);\n    }\n\n    event Open(string[10] newUris);\n    event PackResultDecided(uint256 tokenId);\n    \n    // Optional mapping for token URIs\n    mapping (uint256 => string) private _tokenURIs;\n\n    //address private viridianExchangeAddress;\n\n    // Base URI\n    string private _baseURIextended;\n\n    modifier onlyAdmin() {\n        require(admins[_msgSender()] == true);\n            _;\n    }\n\n    function _msgSender() internal view override(Context, BaseRelayRecipient) returns (address sender) {\n        sender = BaseRelayRecipient._msgSender();\n    }\n\n    function _msgData() internal view override(Context, BaseRelayRecipient) returns (bytes memory) {\n        return BaseRelayRecipient._msgData();\n    }\n\n    function addAdmin(address _newAdmin) external onlyOwner() {\n        admins[_newAdmin] = true;\n    }\n\n    function removeAdmin(address _newAdmin) external onlyOwner() {\n        admins[_newAdmin] = false;\n    }\n    \n    function setBaseURI(string memory baseURI_) external onlyAdmin() {\n        _baseURIextended = baseURI_;\n    }\n    \n    function _setTokenURI(uint256 tokenId, string memory _tokenURI) public virtual onlyOwner() {\n        require(_exists(tokenId), \"ERC721Metadata: URI set of nonexistent token\");\n        _tokenURIs[tokenId] = _tokenURI;\n    }\n    \n    function _baseURI() internal view virtual override returns (string memory) {\n        return _baseURIextended;\n    }\n    \n    function tokenURI(uint256 tokenId) public view virtual override returns (string memory) {\n        require(_exists(tokenId), \"ERC721Metadata: URI query for nonexistent token\");\n\n        string memory _tokenURI = _tokenURIs[tokenId];\n        string memory base = _baseURI();\n        \n        // If there is no base URI, return the token URI.\n        if (bytes(base).length == 0) {\n            return _tokenURI;\n        }\n        // If both are set, concatenate the baseURI and tokenURI (via abi.encodePacked).\n        if (bytes(_tokenURI).length > 0) {\n            return string(abi.encodePacked(base, _tokenURI));\n        }\n        // If there is a baseURI but no tokenURI, concatenate the tokenID to the baseURI.\n        return string(abi.encodePacked(base, tokenId.toString()));\n    }\n\n    function getUriRarityPools(uint256 _rarity) public view onlyAdmin() returns (string[] memory) {\n        return uriRarityPools[_rarity];\n    }\n\n    function getNumNFTs() public view returns (uint256 n) {\n        return _tokenIds.current();\n    }\n\n    function getNumOwnedNFTs() public view virtual returns (uint256) {\n        uint256 numOwnedNFTs = 0;\n\n        for (uint256 i = 1; i <= _tokenIds.current(); i++) {\n            if (ownerOf(i) == _msgSender()) {\n                numOwnedNFTs++;\n            }\n        }\n\n        return numOwnedNFTs;\n    }\n \n    function getOwnedNFTs() public view virtual returns (uint256[] memory) {\n\n        uint256[] memory _tokens = new uint256[](getNumOwnedNFTs());\n\n        uint256 curIndex = 0;\n\n        for (uint256 i = 1; i <= _tokenIds.current(); i++) {\n            if (ownerOf(i) == _msgSender()) {\n                _tokens[curIndex] = i;\n                curIndex++;\n            }\n        }\n        \n        return _tokens;\n    }\n\n    function setRarityOdds(uint256 _rarity, uint256 _rarityOdd, uint256 _newOdds) external onlyAdmin() {\n        rarityOdds[_rarity][_rarityOdd] = _newOdds;\n    }\n\n    function isListed(uint256 tokenId) public view returns (bool) {\n        return _tokensListed[tokenId];\n    }\n\n    function mint(\n        address _to,\n        string memory tokenURI_\n    ) external onlyAdmin() {\n        _tokenIds.increment();\n        uint256 _tokenId = _tokenIds.current();\n\n        _safeMint(_to, _tokenId);\n        _tokensListed[_tokenId] = false;\n        _setTokenURI(_tokenId, tokenURI_);\n    }\n\n    //TODO: THIS IS NOT TO BE USED IN FINAL DEPLOYED IMPLEMENTATION, convert to LINK VRF for TESTNET and ESPECIALLY MAINNET!!!\n    uint nonce;\n\n    function calculateWeightedOdds(uint256 randomNum, mapping(uint256 => uint256) storage rarityOdd) private view returns (uint) {\n        uint256 n;\n\n        for (n = 0; int(n) < int(maxRarityIndex); n++) {\n            if (randomNum <= rarityOdd[n]) {\n                return n;\n            }\n        }\n\n        return n;\n    }\n\n    function softMintNFT(string memory uri, uint256 rarity) public onlyAdmin() {\n        uriRarityPools[rarity].push(uri);\n    }\n\n    function burnSoftMintedNFTAtRarityIndex(uint256 rarity, uint256 index) public onlyAdmin() {\n        string[] memory curRarityPool = uriRarityPools[rarity];\n            for (uint i = 0; i < uriRarityPools[rarity].length; i++) {\n                if (i == index) {\n                    curRarityPool[i] = curRarityPool[curRarityPool.length - 1];\n                    uriRarityPools[rarity] = curRarityPool;\n                    uriRarityPools[rarity].pop();\n                    break;\n                }\n            }\n    }\n\n    function compareStrings(string memory _s, string memory _s1) public pure returns (bool) {\n        return (keccak256(abi.encodePacked((_s))) == keccak256(abi.encodePacked((_s1))));\n    }\n\n    function configureVRF(address _vrfAddress) public {\n        vrf = RandomNumberConsumer(_vrfAddress);\n    }\n\n    function lockInPackResult(uint256 _tokenId) public {\n        require(_isApprovedOrOwner(_msgSender(), _tokenId), \"Not approved or owner\");\n        require(!packResultDecided[_tokenId], \"Viridian Pack: Cannot redo pack result\");\n        packResultDecided[_tokenId] = true;\n        vrf.getRandomNumber(_tokenId);\n\n        emit PackResultDecided(_tokenId);\n    }\n\n    function isPackResultDecided(uint256 _tokenId) public view returns (bool) {\n        return packResultDecided[_tokenId];\n    }\n\n    function openPack(uint256 _tokenId) public {\n        // Randomly \n        require(_isApprovedOrOwner(_msgSender(), _tokenId));\n        require(packResultDecided[_tokenId], \"Viridian NFT: pack result not decided yet\");\n        require(vrf.getRandomRawResultForToken(_tokenId) > 0, \"Viridian Pack: VRF hasn't generated random raw result yet\");\n        require(vrf.getRandomResultForToken(_tokenId) > 0, \"Viridian Pack: VRF hasn't generated random result yet\");\n\n        uint256 tr = tokenRarity[_tokenId];\n\n        string[10] memory newUris;\n\n        //Need to delete the item from the rarity pool before minting happens again\n        for (uint8 n = 0; n < numNFTs[tr]; n++) {\n            uint256 randIndexWithPercentOdds = calculateWeightedOdds(vrf.getRandomResultForToken(_tokenId), rarityOdds[tr]);\n            uint256 randIndexInRarity = vrf.getRandomRawResultForToken(_tokenId) % (uriRarityPools[randIndexWithPercentOdds].length - 1);\n\n            string memory newURI = uriRarityPools[randIndexWithPercentOdds][randIndexInRarity];\n\n            vNFT.mint(_msgSender(), newURI);\n\n            newUris[n] = newURI;\n\n            string[] memory curRarityPool = uriRarityPools[randIndexWithPercentOdds];\n            for (uint i = 0; i < uriRarityPools[randIndexWithPercentOdds].length; i++) {\n                string memory uri = uriRarityPools[randIndexWithPercentOdds][i];\n                if (compareStrings(uri, newURI)) {\n                    curRarityPool[i] = curRarityPool[curRarityPool.length - 1];\n                    uriRarityPools[randIndexWithPercentOdds] = curRarityPool;\n                    uriRarityPools[randIndexWithPercentOdds].pop();\n                    break;\n                }\n            }\n        }\n\n        burn(_tokenId);\n\n        emit Open(newUris);\n    }\n\n    function burn(uint256 tokenId) public {\n        require(_isApprovedOrOwner(_msgSender(), tokenId));\n\n        _burn(tokenId);\n    }\n\n    function awardItem(address recipient, string memory hash, string memory metadata) public returns (uint256) {\n        require(hashes[hash] != 1);\n        hashes[hash] = 1;\n        _tokenIds.increment();\n        uint256 newItemId = _tokenIds.current();\n        _mint(recipient, newItemId);\n        _setTokenURI(newItemId, metadata);\n        return newItemId;\n    }\n\n    function safeTransferFrom(address from, address to, uint256 tokenId) public override {\n        require(!_tokensListed[tokenId], \"Viridian NFT: Cannot transfer while listed on Viridian Exchange\");\n        require(!packResultDecided[tokenId], \"Viridian NFT: Can only open pack once result is decided\");\n\n        super.safeTransferFrom(from, to, tokenId);\n    }\n\n    function transferFrom(address from, address to, uint256 tokenId) public override {\n        require(!_tokensListed[tokenId], \"Viridian NFT: Cannot transfer while listed on Viridian Exchange\");\n        require(!packResultDecided[tokenId], \"Viridian NFT: Can only open pack once result is decided\");\n\n        super.transferFrom(from, to, tokenId);\n    }\n\n    function listToken(uint256 _tokenId) public {\n        require(_isApprovedOrOwner(_msgSender(), _tokenId));\n        _tokensListed[_tokenId] = true;\n    }\n\n    function unlistToken(uint256 _tokenId) public {\n        require(_isApprovedOrOwner(_msgSender(), _tokenId));\n        _tokensListed[_tokenId] = false;\n    }\n}",
  "sourcePath": "/Users/blakehatch/Viridian-Exchange-Contracts/contracts/ViridianPack.sol",
  "compiler": {
    "name": "solc",
    "version": "0.8.11+commit.d7f03943.Emscripten.clang"
  },
  "schemaVersion": "3.4.1",
  "updatedAt": "2021-12-29T22:56:51.995Z",
  "networkType": "ethereum",
  "devdoc": {
    "kind": "dev",
    "methods": {
      "approve(address,uint256)": {
        "details": "See {IERC721-approve}."
      },
      "balanceOf(address)": {
        "details": "See {IERC721-balanceOf}."
      },
      "getApproved(uint256)": {
        "details": "See {IERC721-getApproved}."
      },
      "isApprovedForAll(address,address)": {
        "details": "See {IERC721-isApprovedForAll}."
      },
      "name()": {
        "details": "See {IERC721Metadata-name}."
      },
      "owner()": {
        "details": "Returns the address of the current owner."
      },
      "ownerOf(uint256)": {
        "details": "See {IERC721-ownerOf}."
      },
      "renounceOwnership()": {
        "details": "Leaves the contract without owner. It will not be possible to call `onlyOwner` functions anymore. Can only be called by the current owner. NOTE: Renouncing ownership will leave the contract without an owner, thereby removing any functionality that is only available to the owner."
      },
      "safeTransferFrom(address,address,uint256)": {
        "details": "See {IERC721-safeTransferFrom}."
      },
      "safeTransferFrom(address,address,uint256,bytes)": {
        "details": "See {IERC721-safeTransferFrom}."
      },
      "setApprovalForAll(address,bool)": {
        "details": "See {IERC721-setApprovalForAll}."
      },
      "supportsInterface(bytes4)": {
        "details": "See {IERC165-supportsInterface}."
      },
      "symbol()": {
        "details": "See {IERC721Metadata-symbol}."
      },
      "tokenURI(uint256)": {
        "details": "See {IERC721Metadata-tokenURI}."
      },
      "transferFrom(address,address,uint256)": {
        "details": "See {IERC721-transferFrom}."
      },
      "transferOwnership(address)": {
        "details": "Transfers ownership of the contract to a new account (`newOwner`). Can only be called by the current owner."
      }
    },
    "version": 1
  },
  "userdoc": {
    "kind": "user",
    "methods": {
      "isTrustedForwarder(address)": {
        "notice": "return if the forwarder is trusted to forward relayed transactions to us. the forwarder is required to verify the sender's signature, and verify the call is not a replay."
      }
    },
    "version": 1
  }
}