{
  "contractName": "ViridianNFT",
  "abi": [
    {
      "inputs": [],
      "stateMutability": "nonpayable",
      "type": "constructor"
    },
    {
      "anonymous": false,
      "inputs": [
        {
          "indexed": true,
          "internalType": "address",
          "name": "owner",
          "type": "address"
        },
        {
          "indexed": true,
          "internalType": "address",
          "name": "approved",
          "type": "address"
        },
        {
          "indexed": true,
          "internalType": "uint256",
          "name": "tokenId",
          "type": "uint256"
        }
      ],
      "name": "Approval",
      "type": "event"
    },
    {
      "anonymous": false,
      "inputs": [
        {
          "indexed": true,
          "internalType": "address",
          "name": "owner",
          "type": "address"
        },
        {
          "indexed": true,
          "internalType": "address",
          "name": "operator",
          "type": "address"
        },
        {
          "indexed": false,
          "internalType": "bool",
          "name": "approved",
          "type": "bool"
        }
      ],
      "name": "ApprovalForAll",
      "type": "event"
    },
    {
      "anonymous": false,
      "inputs": [
        {
          "indexed": true,
          "internalType": "address",
          "name": "previousOwner",
          "type": "address"
        },
        {
          "indexed": true,
          "internalType": "address",
          "name": "newOwner",
          "type": "address"
        }
      ],
      "name": "OwnershipTransferred",
      "type": "event"
    },
    {
      "anonymous": false,
      "inputs": [
        {
          "indexed": true,
          "internalType": "address",
          "name": "from",
          "type": "address"
        },
        {
          "indexed": true,
          "internalType": "address",
          "name": "to",
          "type": "address"
        },
        {
          "indexed": true,
          "internalType": "uint256",
          "name": "tokenId",
          "type": "uint256"
        }
      ],
      "name": "Transfer",
      "type": "event"
    },
    {
      "inputs": [
        {
          "internalType": "address",
          "name": "to",
          "type": "address"
        },
        {
          "internalType": "uint256",
          "name": "tokenId",
          "type": "uint256"
        }
      ],
      "name": "approve",
      "outputs": [],
      "stateMutability": "nonpayable",
      "type": "function"
    },
    {
      "inputs": [
        {
          "internalType": "address",
          "name": "owner",
          "type": "address"
        }
      ],
      "name": "balanceOf",
      "outputs": [
        {
          "internalType": "uint256",
          "name": "",
          "type": "uint256"
        }
      ],
      "stateMutability": "view",
      "type": "function",
      "constant": true
    },
    {
      "inputs": [
        {
          "internalType": "uint256",
          "name": "tokenId",
          "type": "uint256"
        }
      ],
      "name": "getApproved",
      "outputs": [
        {
          "internalType": "address",
          "name": "",
          "type": "address"
        }
      ],
      "stateMutability": "view",
      "type": "function",
      "constant": true
    },
    {
      "inputs": [
        {
          "internalType": "address",
          "name": "owner",
          "type": "address"
        },
        {
          "internalType": "address",
          "name": "operator",
          "type": "address"
        }
      ],
      "name": "isApprovedForAll",
      "outputs": [
        {
          "internalType": "bool",
          "name": "",
          "type": "bool"
        }
      ],
      "stateMutability": "view",
      "type": "function",
      "constant": true
    },
    {
      "inputs": [],
      "name": "name",
      "outputs": [
        {
          "internalType": "string",
          "name": "",
          "type": "string"
        }
      ],
      "stateMutability": "view",
      "type": "function",
      "constant": true
    },
    {
      "inputs": [],
      "name": "owner",
      "outputs": [
        {
          "internalType": "address",
          "name": "",
          "type": "address"
        }
      ],
      "stateMutability": "view",
      "type": "function",
      "constant": true
    },
    {
      "inputs": [
        {
          "internalType": "uint256",
          "name": "tokenId",
          "type": "uint256"
        }
      ],
      "name": "ownerOf",
      "outputs": [
        {
          "internalType": "address",
          "name": "",
          "type": "address"
        }
      ],
      "stateMutability": "view",
      "type": "function",
      "constant": true
    },
    {
      "inputs": [],
      "name": "renounceOwnership",
      "outputs": [],
      "stateMutability": "nonpayable",
      "type": "function"
    },
    {
      "inputs": [
        {
          "internalType": "address",
          "name": "from",
          "type": "address"
        },
        {
          "internalType": "address",
          "name": "to",
          "type": "address"
        },
        {
          "internalType": "uint256",
          "name": "tokenId",
          "type": "uint256"
        }
      ],
      "name": "safeTransferFrom",
      "outputs": [],
      "stateMutability": "nonpayable",
      "type": "function"
    },
    {
      "inputs": [
        {
          "internalType": "address",
          "name": "from",
          "type": "address"
        },
        {
          "internalType": "address",
          "name": "to",
          "type": "address"
        },
        {
          "internalType": "uint256",
          "name": "tokenId",
          "type": "uint256"
        },
        {
          "internalType": "bytes",
          "name": "_data",
          "type": "bytes"
        }
      ],
      "name": "safeTransferFrom",
      "outputs": [],
      "stateMutability": "nonpayable",
      "type": "function"
    },
    {
      "inputs": [
        {
          "internalType": "address",
          "name": "operator",
          "type": "address"
        },
        {
          "internalType": "bool",
          "name": "approved",
          "type": "bool"
        }
      ],
      "name": "setApprovalForAll",
      "outputs": [],
      "stateMutability": "nonpayable",
      "type": "function"
    },
    {
      "inputs": [
        {
          "internalType": "bytes4",
          "name": "interfaceId",
          "type": "bytes4"
        }
      ],
      "name": "supportsInterface",
      "outputs": [
        {
          "internalType": "bool",
          "name": "",
          "type": "bool"
        }
      ],
      "stateMutability": "view",
      "type": "function",
      "constant": true
    },
    {
      "inputs": [],
      "name": "symbol",
      "outputs": [
        {
          "internalType": "string",
          "name": "",
          "type": "string"
        }
      ],
      "stateMutability": "view",
      "type": "function",
      "constant": true
    },
    {
      "inputs": [
        {
          "internalType": "address",
          "name": "from",
          "type": "address"
        },
        {
          "internalType": "address",
          "name": "to",
          "type": "address"
        },
        {
          "internalType": "uint256",
          "name": "tokenId",
          "type": "uint256"
        }
      ],
      "name": "transferFrom",
      "outputs": [],
      "stateMutability": "nonpayable",
      "type": "function"
    },
    {
      "inputs": [
        {
          "internalType": "address",
          "name": "newOwner",
          "type": "address"
        }
      ],
      "name": "transferOwnership",
      "outputs": [],
      "stateMutability": "nonpayable",
      "type": "function"
    },
    {
      "inputs": [
        {
          "internalType": "string",
          "name": "baseURI_",
          "type": "string"
        }
      ],
      "name": "setBaseURI",
      "outputs": [],
      "stateMutability": "nonpayable",
      "type": "function"
    },
    {
      "inputs": [
        {
          "internalType": "uint256",
          "name": "tokenId",
          "type": "uint256"
        }
      ],
      "name": "tokenURI",
      "outputs": [
        {
          "internalType": "string",
          "name": "",
          "type": "string"
        }
      ],
      "stateMutability": "view",
      "type": "function",
      "constant": true
    },
    {
      "inputs": [
        {
          "internalType": "address",
          "name": "_to",
          "type": "address"
        },
        {
          "internalType": "uint256",
          "name": "_tokenId",
          "type": "uint256"
        },
        {
          "internalType": "string",
          "name": "tokenURI_",
          "type": "string"
        }
      ],
      "name": "mint",
      "outputs": [],
      "stateMutability": "nonpayable",
      "type": "function"
    },
    {
      "inputs": [
        {
          "internalType": "address",
          "name": "recipient",
          "type": "address"
        },
        {
          "internalType": "string",
          "name": "hash",
          "type": "string"
        },
        {
          "internalType": "string",
          "name": "metadata",
          "type": "string"
        }
      ],
      "name": "awardItem",
      "outputs": [
        {
          "internalType": "uint256",
          "name": "",
          "type": "uint256"
        }
      ],
      "stateMutability": "nonpayable",
      "type": "function"
    }
  ],
  "bytecode": "0x60806040523480156200001157600080fd5b506040518060400160405280600c81526020017f566972696469616e204e465400000000000000000000000000000000000000008152506040518060400160405280600481526020017f564e46540000000000000000000000000000000000000000000000000000000081525081600090805190602001906200009692919062000171565b508060019080519060200190620000af92919062000171565b5050506000620000c46200016960201b60201c565b905080600660006101000a81548173ffffffffffffffffffffffffffffffffffffffff021916908373ffffffffffffffffffffffffffffffffffffffff1602179055508073ffffffffffffffffffffffffffffffffffffffff16600073ffffffffffffffffffffffffffffffffffffffff167f8be0079c531659141344cd1fd0a4f28419497f9722a3daafe3b4186f6b6457e060405160405180910390a35062000286565b600033905090565b8280546200017f9062000221565b90600052602060002090601f016020900481019282620001a35760008555620001ef565b82601f10620001be57805160ff1916838001178555620001ef565b82800160010185558215620001ef579182015b82811115620001ee578251825591602001919060010190620001d1565b5b509050620001fe919062000202565b5090565b5b808211156200021d57600081600090555060010162000203565b5090565b600060028204905060018216806200023a57607f821691505b6020821081141562000251576200025062000257565b5b50919050565b7f4e487b7100000000000000000000000000000000000000000000000000000000600052602260045260246000fd5b61326880620002966000396000f3fe608060405234801561001057600080fd5b50600436106101215760003560e01c8063715018a6116100ad578063b88d4fde11610071578063b88d4fde14610306578063c87b56dd14610322578063d3fc986414610352578063e985e9c51461036e578063f2fde38b1461039e57610121565b8063715018a6146102745780638bfaf1011461027e5780638da5cb5b146102ae57806395d89b41146102cc578063a22cb465146102ea57610121565b806323b872dd116100f457806323b872dd146101c057806342842e0e146101dc57806355f804b3146101f85780636352211e1461021457806370a082311461024457610121565b806301ffc9a71461012657806306fdde0314610156578063081812fc14610174578063095ea7b3146101a4575b600080fd5b610140600480360381019061013b91906121fa565b6103ba565b60405161014d919061268f565b60405180910390f35b61015e61049c565b60405161016b91906126aa565b60405180910390f35b61018e6004803603810190610189919061229d565b61052e565b60405161019b9190612628565b60405180910390f35b6101be60048036038101906101b9919061214b565b6105b3565b005b6101da60048036038101906101d59190611faa565b6106cb565b005b6101f660048036038101906101f19190611faa565b61072b565b005b610212600480360381019061020d9190612254565b61074b565b005b61022e6004803603810190610229919061229d565b6107e1565b60405161023b9190612628565b60405180910390f35b61025e60048036038101906102599190611f3d565b610893565b60405161026b91906128ec565b60405180910390f35b61027c61094b565b005b610298600480360381019061029391906120c0565b610a88565b6040516102a591906128ec565b60405180910390f35b6102b6610b35565b6040516102c39190612628565b60405180910390f35b6102d4610b5f565b6040516102e191906126aa565b60405180910390f35b61030460048036038101906102ff9190612080565b610bf1565b005b610320600480360381019061031b9190611ffd565b610d72565b005b61033c6004803603810190610337919061229d565b610dd4565b60405161034991906126aa565b60405180910390f35b61036c6004803603810190610367919061218b565b610f47565b005b61038860048036038101906103839190611f6a565b610fdc565b604051610395919061268f565b60405180910390f35b6103b860048036038101906103b39190611f3d565b611070565b005b60007f80ac58cd000000000000000000000000000000000000000000000000000000007bffffffffffffffffffffffffffffffffffffffffffffffffffffffff1916827bffffffffffffffffffffffffffffffffffffffffffffffffffffffff1916148061048557507f5b5e139f000000000000000000000000000000000000000000000000000000007bffffffffffffffffffffffffffffffffffffffffffffffffffffffff1916827bffffffffffffffffffffffffffffffffffffffffffffffffffffffff1916145b8061049557506104948261121c565b5b9050919050565b6060600080546104ab90612b42565b80601f01602080910402602001604051908101604052809291908181526020018280546104d790612b42565b80156105245780601f106104f957610100808354040283529160200191610524565b820191906000526020600020905b81548152906001019060200180831161050757829003601f168201915b5050505050905090565b600061053982611286565b610578576040517f08c379a000000000000000000000000000000000000000000000000000000000815260040161056f9061280c565b60405180910390fd5b6004600083815260200190815260200160002060009054906101000a900473ffffffffffffffffffffffffffffffffffffffff169050919050565b60006105be826107e1565b90508073ffffffffffffffffffffffffffffffffffffffff168373ffffffffffffffffffffffffffffffffffffffff16141561062f576040517f08c379a0000000000000000000000000000000000000000000000000000000008152600401610626906128ac565b60405180910390fd5b8073ffffffffffffffffffffffffffffffffffffffff1661064e6112f2565b73ffffffffffffffffffffffffffffffffffffffff16148061067d575061067c816106776112f2565b610fdc565b5b6106bc576040517f08c379a00000000000000000000000000000000000000000000000000000000081526004016106b39061278c565b60405180910390fd5b6106c683836112fa565b505050565b6106dc6106d66112f2565b826113b3565b61071b576040517f08c379a0000000000000000000000000000000000000000000000000000000008152600401610712906128cc565b60405180910390fd5b610726838383611491565b505050565b61074683838360405180602001604052806000815250610d72565b505050565b6107536112f2565b73ffffffffffffffffffffffffffffffffffffffff16610771610b35565b73ffffffffffffffffffffffffffffffffffffffff16146107c7576040517f08c379a00000000000000000000000000000000000000000000000000000000081526004016107be9061284c565b60405180910390fd5b80600a90805190602001906107dd929190611d51565b5050565b6000806002600084815260200190815260200160002060009054906101000a900473ffffffffffffffffffffffffffffffffffffffff169050600073ffffffffffffffffffffffffffffffffffffffff168173ffffffffffffffffffffffffffffffffffffffff16141561088a576040517f08c379a0000000000000000000000000000000000000000000000000000000008152600401610881906127cc565b60405180910390fd5b80915050919050565b60008073ffffffffffffffffffffffffffffffffffffffff168273ffffffffffffffffffffffffffffffffffffffff161415610904576040517f08c379a00000000000000000000000000000000000000000000000000000000081526004016108fb906127ac565b60405180910390fd5b600360008373ffffffffffffffffffffffffffffffffffffffff1673ffffffffffffffffffffffffffffffffffffffff168152602001908152602001600020549050919050565b6109536112f2565b73ffffffffffffffffffffffffffffffffffffffff16610971610b35565b73ffffffffffffffffffffffffffffffffffffffff16146109c7576040517f08c379a00000000000000000000000000000000000000000000000000000000081526004016109be9061284c565b60405180910390fd5b600073ffffffffffffffffffffffffffffffffffffffff16600660009054906101000a900473ffffffffffffffffffffffffffffffffffffffff1673ffffffffffffffffffffffffffffffffffffffff167f8be0079c531659141344cd1fd0a4f28419497f9722a3daafe3b4186f6b6457e060405160405180910390a36000600660006101000a81548173ffffffffffffffffffffffffffffffffffffffff021916908373ffffffffffffffffffffffffffffffffffffffff160217905550565b60006001600884604051610a9c91906125ed565b908152602001604051809103902060009054906101000a900460ff1660ff161415610ac657600080fd5b6001600884604051610ad891906125ed565b908152602001604051809103902060006101000a81548160ff021916908360ff160217905550610b0860076116ed565b6000610b146007611703565b9050610b208582611711565b610b2a81846118df565b809150509392505050565b6000600660009054906101000a900473ffffffffffffffffffffffffffffffffffffffff16905090565b606060018054610b6e90612b42565b80601f0160208091040260200160405190810160405280929190818152602001828054610b9a90612b42565b8015610be75780601f10610bbc57610100808354040283529160200191610be7565b820191906000526020600020905b815481529060010190602001808311610bca57829003601f168201915b5050505050905090565b610bf96112f2565b73ffffffffffffffffffffffffffffffffffffffff168273ffffffffffffffffffffffffffffffffffffffff161415610c67576040517f08c379a0000000000000000000000000000000000000000000000000000000008152600401610c5e9061274c565b60405180910390fd5b8060056000610c746112f2565b73ffffffffffffffffffffffffffffffffffffffff1673ffffffffffffffffffffffffffffffffffffffff16815260200190815260200160002060008473ffffffffffffffffffffffffffffffffffffffff1673ffffffffffffffffffffffffffffffffffffffff16815260200190815260200160002060006101000a81548160ff0219169083151502179055508173ffffffffffffffffffffffffffffffffffffffff16610d216112f2565b73ffffffffffffffffffffffffffffffffffffffff167f17307eab39ab6107e8899845ad3d59bd9653f200f220920489ca2b5937696c3183604051610d66919061268f565b60405180910390a35050565b610d83610d7d6112f2565b836113b3565b610dc2576040517f08c379a0000000000000000000000000000000000000000000000000000000008152600401610db9906128cc565b60405180910390fd5b610dce84848484611953565b50505050565b6060610ddf82611286565b610e1e576040517f08c379a0000000000000000000000000000000000000000000000000000000008152600401610e159061288c565b60405180910390fd5b6000600960008481526020019081526020016000208054610e3e90612b42565b80601f0160208091040260200160405190810160405280929190818152602001828054610e6a90612b42565b8015610eb75780601f10610e8c57610100808354040283529160200191610eb7565b820191906000526020600020905b815481529060010190602001808311610e9a57829003601f168201915b505050505090506000610ec86119af565b9050600081511415610ede578192505050610f42565b600082511115610f13578082604051602001610efb929190612604565b60405160208183030381529060405292505050610f42565b80610f1d85611a41565b604051602001610f2e929190612604565b604051602081830303815290604052925050505b919050565b610f4f6112f2565b73ffffffffffffffffffffffffffffffffffffffff16610f6d610b35565b73ffffffffffffffffffffffffffffffffffffffff1614610fc3576040517f08c379a0000000000000000000000000000000000000000000000000000000008152600401610fba9061284c565b60405180910390fd5b610fcd8383611711565b610fd782826118df565b505050565b6000600560008473ffffffffffffffffffffffffffffffffffffffff1673ffffffffffffffffffffffffffffffffffffffff16815260200190815260200160002060008373ffffffffffffffffffffffffffffffffffffffff1673ffffffffffffffffffffffffffffffffffffffff16815260200190815260200160002060009054906101000a900460ff16905092915050565b6110786112f2565b73ffffffffffffffffffffffffffffffffffffffff16611096610b35565b73ffffffffffffffffffffffffffffffffffffffff16146110ec576040517f08c379a00000000000000000000000000000000000000000000000000000000081526004016110e39061284c565b60405180910390fd5b600073ffffffffffffffffffffffffffffffffffffffff168173ffffffffffffffffffffffffffffffffffffffff16141561115c576040517f08c379a0000000000000000000000000000000000000000000000000000000008152600401611153906126ec565b60405180910390fd5b8073ffffffffffffffffffffffffffffffffffffffff16600660009054906101000a900473ffffffffffffffffffffffffffffffffffffffff1673ffffffffffffffffffffffffffffffffffffffff167f8be0079c531659141344cd1fd0a4f28419497f9722a3daafe3b4186f6b6457e060405160405180910390a380600660006101000a81548173ffffffffffffffffffffffffffffffffffffffff021916908373ffffffffffffffffffffffffffffffffffffffff16021790555050565b60007f01ffc9a7000000000000000000000000000000000000000000000000000000007bffffffffffffffffffffffffffffffffffffffffffffffffffffffff1916827bffffffffffffffffffffffffffffffffffffffffffffffffffffffff1916149050919050565b60008073ffffffffffffffffffffffffffffffffffffffff166002600084815260200190815260200160002060009054906101000a900473ffffffffffffffffffffffffffffffffffffffff1673ffffffffffffffffffffffffffffffffffffffff1614159050919050565b600033905090565b816004600083815260200190815260200160002060006101000a81548173ffffffffffffffffffffffffffffffffffffffff021916908373ffffffffffffffffffffffffffffffffffffffff160217905550808273ffffffffffffffffffffffffffffffffffffffff1661136d836107e1565b73ffffffffffffffffffffffffffffffffffffffff167f8c5be1e5ebec7d5bd14f71427d1e84f3dd0314c0f7b2291e5b200ac8c7c3b92560405160405180910390a45050565b60006113be82611286565b6113fd576040517f08c379a00000000000000000000000000000000000000000000000000000000081526004016113f49061276c565b60405180910390fd5b6000611408836107e1565b90508073ffffffffffffffffffffffffffffffffffffffff168473ffffffffffffffffffffffffffffffffffffffff16148061147757508373ffffffffffffffffffffffffffffffffffffffff1661145f8461052e565b73ffffffffffffffffffffffffffffffffffffffff16145b8061148857506114878185610fdc565b5b91505092915050565b8273ffffffffffffffffffffffffffffffffffffffff166114b1826107e1565b73ffffffffffffffffffffffffffffffffffffffff1614611507576040517f08c379a00000000000000000000000000000000000000000000000000000000081526004016114fe9061286c565b60405180910390fd5b600073ffffffffffffffffffffffffffffffffffffffff168273ffffffffffffffffffffffffffffffffffffffff161415611577576040517f08c379a000000000000000000000000000000000000000000000000000000000815260040161156e9061272c565b60405180910390fd5b611582838383611ba2565b61158d6000826112fa565b6001600360008573ffffffffffffffffffffffffffffffffffffffff1673ffffffffffffffffffffffffffffffffffffffff16815260200190815260200160002060008282546115dd9190612a58565b925050819055506001600360008473ffffffffffffffffffffffffffffffffffffffff1673ffffffffffffffffffffffffffffffffffffffff168152602001908152602001600020600082825461163491906129d1565b92505081905550816002600083815260200190815260200160002060006101000a81548173ffffffffffffffffffffffffffffffffffffffff021916908373ffffffffffffffffffffffffffffffffffffffff160217905550808273ffffffffffffffffffffffffffffffffffffffff168473ffffffffffffffffffffffffffffffffffffffff167fddf252ad1be2c89b69c2b068fc378daa952ba7f163c4a11628f55a4df523b3ef60405160405180910390a4505050565b6001816000016000828254019250508190555050565b600081600001549050919050565b600073ffffffffffffffffffffffffffffffffffffffff168273ffffffffffffffffffffffffffffffffffffffff161415611781576040517f08c379a0000000000000000000000000000000000000000000000000000000008152600401611778906127ec565b60405180910390fd5b61178a81611286565b156117ca576040517f08c379a00000000000000000000000000000000000000000000000000000000081526004016117c19061270c565b60405180910390fd5b6117d660008383611ba2565b6001600360008473ffffffffffffffffffffffffffffffffffffffff1673ffffffffffffffffffffffffffffffffffffffff168152602001908152602001600020600082825461182691906129d1565b92505081905550816002600083815260200190815260200160002060006101000a81548173ffffffffffffffffffffffffffffffffffffffff021916908373ffffffffffffffffffffffffffffffffffffffff160217905550808273ffffffffffffffffffffffffffffffffffffffff16600073ffffffffffffffffffffffffffffffffffffffff167fddf252ad1be2c89b69c2b068fc378daa952ba7f163c4a11628f55a4df523b3ef60405160405180910390a45050565b6118e882611286565b611927576040517f08c379a000000000000000000000000000000000000000000000000000000000815260040161191e9061282c565b60405180910390fd5b8060096000848152602001908152602001600020908051906020019061194e929190611d51565b505050565b61195e848484611491565b61196a84848484611ba7565b6119a9576040517f08c379a00000000000000000000000000000000000000000000000000000000081526004016119a0906126cc565b60405180910390fd5b50505050565b6060600a80546119be90612b42565b80601f01602080910402602001604051908101604052809291908181526020018280546119ea90612b42565b8015611a375780601f10611a0c57610100808354040283529160200191611a37565b820191906000526020600020905b815481529060010190602001808311611a1a57829003601f168201915b5050505050905090565b60606000821415611a89576040518060400160405280600181526020017f30000000000000000000000000000000000000000000000000000000000000008152509050611b9d565b600082905060005b60008214611abb578080611aa490612ba5565b915050600a82611ab49190612a27565b9150611a91565b60008167ffffffffffffffff811115611ad757611ad6612cdb565b5b6040519080825280601f01601f191660200182016040528015611b095781602001600182028036833780820191505090505b5090505b60008514611b9657600182611b229190612a58565b9150600a85611b319190612bee565b6030611b3d91906129d1565b60f81b818381518110611b5357611b52612cac565b5b60200101907effffffffffffffffffffffffffffffffffffffffffffffffffffffffffffff1916908160001a905350600a85611b8f9190612a27565b9450611b0d565b8093505050505b919050565b505050565b6000611bc88473ffffffffffffffffffffffffffffffffffffffff16611d3e565b15611d31578373ffffffffffffffffffffffffffffffffffffffff1663150b7a02611bf16112f2565b8786866040518563ffffffff1660e01b8152600401611c139493929190612643565b602060405180830381600087803b158015611c2d57600080fd5b505af1925050508015611c5e57506040513d601f19601f82011682018060405250810190611c5b9190612227565b60015b611ce1573d8060008114611c8e576040519150601f19603f3d011682016040523d82523d6000602084013e611c93565b606091505b50600081511415611cd9576040517f08c379a0000000000000000000000000000000000000000000000000000000008152600401611cd0906126cc565b60405180910390fd5b805181602001fd5b63150b7a0260e01b7bffffffffffffffffffffffffffffffffffffffffffffffffffffffff1916817bffffffffffffffffffffffffffffffffffffffffffffffffffffffff191614915050611d36565b600190505b949350505050565b600080823b905060008111915050919050565b828054611d5d90612b42565b90600052602060002090601f016020900481019282611d7f5760008555611dc6565b82601f10611d9857805160ff1916838001178555611dc6565b82800160010185558215611dc6579182015b82811115611dc5578251825591602001919060010190611daa565b5b509050611dd39190611dd7565b5090565b5b80821115611df0576000816000905550600101611dd8565b5090565b6000611e07611e028461292c565b612907565b905082815260208101848484011115611e2357611e22612d0f565b5b611e2e848285612b00565b509392505050565b6000611e49611e448461295d565b612907565b905082815260208101848484011115611e6557611e64612d0f565b5b611e70848285612b00565b509392505050565b600081359050611e87816131d6565b92915050565b600081359050611e9c816131ed565b92915050565b600081359050611eb181613204565b92915050565b600081519050611ec681613204565b92915050565b600082601f830112611ee157611ee0612d0a565b5b8135611ef1848260208601611df4565b91505092915050565b600082601f830112611f0f57611f0e612d0a565b5b8135611f1f848260208601611e36565b91505092915050565b600081359050611f378161321b565b92915050565b600060208284031215611f5357611f52612d19565b5b6000611f6184828501611e78565b91505092915050565b60008060408385031215611f8157611f80612d19565b5b6000611f8f85828601611e78565b9250506020611fa085828601611e78565b9150509250929050565b600080600060608486031215611fc357611fc2612d19565b5b6000611fd186828701611e78565b9350506020611fe286828701611e78565b9250506040611ff386828701611f28565b9150509250925092565b6000806000806080858703121561201757612016612d19565b5b600061202587828801611e78565b945050602061203687828801611e78565b935050604061204787828801611f28565b925050606085013567ffffffffffffffff81111561206857612067612d14565b5b61207487828801611ecc565b91505092959194509250565b6000806040838503121561209757612096612d19565b5b60006120a585828601611e78565b92505060206120b685828601611e8d565b9150509250929050565b6000806000606084860312156120d9576120d8612d19565b5b60006120e786828701611e78565b935050602084013567ffffffffffffffff81111561210857612107612d14565b5b61211486828701611efa565b925050604084013567ffffffffffffffff81111561213557612134612d14565b5b61214186828701611efa565b9150509250925092565b6000806040838503121561216257612161612d19565b5b600061217085828601611e78565b925050602061218185828601611f28565b9150509250929050565b6000806000606084860312156121a4576121a3612d19565b5b60006121b286828701611e78565b93505060206121c386828701611f28565b925050604084013567ffffffffffffffff8111156121e4576121e3612d14565b5b6121f086828701611efa565b9150509250925092565b6000602082840312156122105761220f612d19565b5b600061221e84828501611ea2565b91505092915050565b60006020828403121561223d5761223c612d19565b5b600061224b84828501611eb7565b91505092915050565b60006020828403121561226a57612269612d19565b5b600082013567ffffffffffffffff81111561228857612287612d14565b5b61229484828501611efa565b91505092915050565b6000602082840312156122b3576122b2612d19565b5b60006122c184828501611f28565b91505092915050565b6122d381612a8c565b82525050565b6122e281612a9e565b82525050565b60006122f38261298e565b6122fd81856129a4565b935061230d818560208601612b0f565b61231681612d1e565b840191505092915050565b600061232c82612999565b61233681856129b5565b9350612346818560208601612b0f565b61234f81612d1e565b840191505092915050565b600061236582612999565b61236f81856129c6565b935061237f818560208601612b0f565b80840191505092915050565b60006123986032836129b5565b91506123a382612d2f565b604082019050919050565b60006123bb6026836129b5565b91506123c682612d7e565b604082019050919050565b60006123de601c836129b5565b91506123e982612dcd565b602082019050919050565b60006124016024836129b5565b915061240c82612df6565b604082019050919050565b60006124246019836129b5565b915061242f82612e45565b602082019050919050565b6000612447602c836129b5565b915061245282612e6e565b604082019050919050565b600061246a6038836129b5565b915061247582612ebd565b604082019050919050565b600061248d602a836129b5565b915061249882612f0c565b604082019050919050565b60006124b06029836129b5565b91506124bb82612f5b565b604082019050919050565b60006124d36020836129b5565b91506124de82612faa565b602082019050919050565b60006124f6602c836129b5565b915061250182612fd3565b604082019050919050565b6000612519602c836129b5565b915061252482613022565b604082019050919050565b600061253c6020836129b5565b915061254782613071565b602082019050919050565b600061255f6029836129b5565b915061256a8261309a565b604082019050919050565b6000612582602f836129b5565b915061258d826130e9565b604082019050919050565b60006125a56021836129b5565b91506125b082613138565b604082019050919050565b60006125c86031836129b5565b91506125d382613187565b604082019050919050565b6125e781612af6565b82525050565b60006125f9828461235a565b915081905092915050565b6000612610828561235a565b915061261c828461235a565b91508190509392505050565b600060208201905061263d60008301846122ca565b92915050565b600060808201905061265860008301876122ca565b61266560208301866122ca565b61267260408301856125de565b818103606083015261268481846122e8565b905095945050505050565b60006020820190506126a460008301846122d9565b92915050565b600060208201905081810360008301526126c48184612321565b905092915050565b600060208201905081810360008301526126e58161238b565b9050919050565b60006020820190508181036000830152612705816123ae565b9050919050565b60006020820190508181036000830152612725816123d1565b9050919050565b60006020820190508181036000830152612745816123f4565b9050919050565b6000602082019050818103600083015261276581612417565b9050919050565b600060208201905081810360008301526127858161243a565b9050919050565b600060208201905081810360008301526127a58161245d565b9050919050565b600060208201905081810360008301526127c581612480565b9050919050565b600060208201905081810360008301526127e5816124a3565b9050919050565b60006020820190508181036000830152612805816124c6565b9050919050565b60006020820190508181036000830152612825816124e9565b9050919050565b600060208201905081810360008301526128458161250c565b9050919050565b600060208201905081810360008301526128658161252f565b9050919050565b6000602082019050818103600083015261288581612552565b9050919050565b600060208201905081810360008301526128a581612575565b9050919050565b600060208201905081810360008301526128c581612598565b9050919050565b600060208201905081810360008301526128e5816125bb565b9050919050565b600060208201905061290160008301846125de565b92915050565b6000612911612922565b905061291d8282612b74565b919050565b6000604051905090565b600067ffffffffffffffff82111561294757612946612cdb565b5b61295082612d1e565b9050602081019050919050565b600067ffffffffffffffff82111561297857612977612cdb565b5b61298182612d1e565b9050602081019050919050565b600081519050919050565b600081519050919050565b600082825260208201905092915050565b600082825260208201905092915050565b600081905092915050565b60006129dc82612af6565b91506129e783612af6565b9250827fffffffffffffffffffffffffffffffffffffffffffffffffffffffffffffffff03821115612a1c57612a1b612c1f565b5b828201905092915050565b6000612a3282612af6565b9150612a3d83612af6565b925082612a4d57612a4c612c4e565b5b828204905092915050565b6000612a6382612af6565b9150612a6e83612af6565b925082821015612a8157612a80612c1f565b5b828203905092915050565b6000612a9782612ad6565b9050919050565b60008115159050919050565b60007fffffffff0000000000000000000000000000000000000000000000000000000082169050919050565b600073ffffffffffffffffffffffffffffffffffffffff82169050919050565b6000819050919050565b82818337600083830152505050565b60005b83811015612b2d578082015181840152602081019050612b12565b83811115612b3c576000848401525b50505050565b60006002820490506001821680612b5a57607f821691505b60208210811415612b6e57612b6d612c7d565b5b50919050565b612b7d82612d1e565b810181811067ffffffffffffffff82111715612b9c57612b9b612cdb565b5b80604052505050565b6000612bb082612af6565b91507fffffffffffffffffffffffffffffffffffffffffffffffffffffffffffffffff821415612be357612be2612c1f565b5b600182019050919050565b6000612bf982612af6565b9150612c0483612af6565b925082612c1457612c13612c4e565b5b828206905092915050565b7f4e487b7100000000000000000000000000000000000000000000000000000000600052601160045260246000fd5b7f4e487b7100000000000000000000000000000000000000000000000000000000600052601260045260246000fd5b7f4e487b7100000000000000000000000000000000000000000000000000000000600052602260045260246000fd5b7f4e487b7100000000000000000000000000000000000000000000000000000000600052603260045260246000fd5b7f4e487b7100000000000000000000000000000000000000000000000000000000600052604160045260246000fd5b600080fd5b600080fd5b600080fd5b600080fd5b6000601f19601f8301169050919050565b7f4552433732313a207472616e7366657220746f206e6f6e20455243373231526560008201527f63656976657220696d706c656d656e7465720000000000000000000000000000602082015250565b7f4f776e61626c653a206e6577206f776e657220697320746865207a65726f206160008201527f6464726573730000000000000000000000000000000000000000000000000000602082015250565b7f4552433732313a20746f6b656e20616c7265616479206d696e74656400000000600082015250565b7f4552433732313a207472616e7366657220746f20746865207a65726f2061646460008201527f7265737300000000000000000000000000000000000000000000000000000000602082015250565b7f4552433732313a20617070726f766520746f2063616c6c657200000000000000600082015250565b7f4552433732313a206f70657261746f7220717565727920666f72206e6f6e657860008201527f697374656e7420746f6b656e0000000000000000000000000000000000000000602082015250565b7f4552433732313a20617070726f76652063616c6c6572206973206e6f74206f7760008201527f6e6572206e6f7220617070726f76656420666f7220616c6c0000000000000000602082015250565b7f4552433732313a2062616c616e636520717565727920666f7220746865207a6560008201527f726f206164647265737300000000000000000000000000000000000000000000602082015250565b7f4552433732313a206f776e657220717565727920666f72206e6f6e657869737460008201527f656e7420746f6b656e0000000000000000000000000000000000000000000000602082015250565b7f4552433732313a206d696e7420746f20746865207a65726f2061646472657373600082015250565b7f4552433732313a20617070726f76656420717565727920666f72206e6f6e657860008201527f697374656e7420746f6b656e0000000000000000000000000000000000000000602082015250565b7f4552433732314d657461646174613a2055524920736574206f66206e6f6e657860008201527f697374656e7420746f6b656e0000000000000000000000000000000000000000602082015250565b7f4f776e61626c653a2063616c6c6572206973206e6f7420746865206f776e6572600082015250565b7f4552433732313a207472616e73666572206f6620746f6b656e2074686174206960008201527f73206e6f74206f776e0000000000000000000000000000000000000000000000602082015250565b7f4552433732314d657461646174613a2055524920717565727920666f72206e6f60008201527f6e6578697374656e7420746f6b656e0000000000000000000000000000000000602082015250565b7f4552433732313a20617070726f76616c20746f2063757272656e74206f776e6560008201527f7200000000000000000000000000000000000000000000000000000000000000602082015250565b7f4552433732313a207472616e736665722063616c6c6572206973206e6f74206f60008201527f776e6572206e6f7220617070726f766564000000000000000000000000000000602082015250565b6131df81612a8c565b81146131ea57600080fd5b50565b6131f681612a9e565b811461320157600080fd5b50565b61320d81612aaa565b811461321857600080fd5b50565b61322481612af6565b811461322f57600080fd5b5056fea264697066735822122094bcaf0b3402a42f76b1a1db083a5f9b4dd0c78902d1441fdec99405f3f8d12164736f6c63430008060033",
  "immutableReferences": {},
  "source": "pragma solidity ^0.8.0;\n\nimport \"@openzeppelin/contracts/token/ERC721/ERC721.sol\";\nimport \"@openzeppelin/contracts/utils/Counters.sol\";\nimport \"@openzeppelin/contracts/access/Ownable.sol\";\n\ncontract ViridianNFT is ERC721, Ownable {\n\n    using Counters for Counters.Counter;\n    Counters.Counter private _tokenIds;\n    mapping(string => uint8) hashes;\n    \n    constructor() ERC721(\"Viridian NFT\", \"VNFT\") {}\n\n    using Strings for uint256;\n    \n    // Optional mapping for token URIs\n    mapping (uint256 => string) private _tokenURIs;\n\n    // Base URI\n    string private _baseURIextended;\n    \n    function setBaseURI(string memory baseURI_) external onlyOwner() {\n        _baseURIextended = baseURI_;\n    }\n    \n    function _setTokenURI(uint256 tokenId, string memory _tokenURI) internal virtual {\n        require(_exists(tokenId), \"ERC721Metadata: URI set of nonexistent token\");\n        _tokenURIs[tokenId] = _tokenURI;\n    }\n    \n    function _baseURI() internal view virtual override returns (string memory) {\n        return _baseURIextended;\n    }\n    \n    function tokenURI(uint256 tokenId) public view virtual override returns (string memory) {\n        require(_exists(tokenId), \"ERC721Metadata: URI query for nonexistent token\");\n\n        string memory _tokenURI = _tokenURIs[tokenId];\n        string memory base = _baseURI();\n        \n        // If there is no base URI, return the token URI.\n        if (bytes(base).length == 0) {\n            return _tokenURI;\n        }\n        // If both are set, concatenate the baseURI and tokenURI (via abi.encodePacked).\n        if (bytes(_tokenURI).length > 0) {\n            return string(abi.encodePacked(base, _tokenURI));\n        }\n        // If there is a baseURI but no tokenURI, concatenate the tokenID to the baseURI.\n        return string(abi.encodePacked(base, tokenId.toString()));\n    }\n    \n\n    function mint(\n        address _to,\n        uint256 _tokenId,\n        string memory tokenURI_\n    ) external onlyOwner() {\n        _mint(_to, _tokenId);\n        _setTokenURI(_tokenId, tokenURI_);\n    }\n\n    function awardItem(address recipient, string memory hash, string memory metadata) public returns (uint256) {\n        require(hashes[hash] != 1);\n        hashes[hash] = 1;\n        _tokenIds.increment();\n        uint256 newItemId = _tokenIds.current();\n        _mint(recipient, newItemId);\n        _setTokenURI(newItemId, metadata);\n        return newItemId;\n    }\n}",
  "sourcePath": "/Users/blakehatch/Viridian-Exchange-Contracts/contracts/ViridianNFT.sol",
  "compiler": {
    "name": "solc",
    "version": "0.8.6+commit.11564f7e.Emscripten.clang"
  },
  "schemaVersion": "3.4.1",
  "updatedAt": "2021-07-08T01:02:24.368Z",
  "networkType": "ethereum",
  "devdoc": {
    "kind": "dev",
    "methods": {
      "approve(address,uint256)": {
        "details": "See {IERC721-approve}."
      },
      "balanceOf(address)": {
        "details": "See {IERC721-balanceOf}."
      },
      "getApproved(uint256)": {
        "details": "See {IERC721-getApproved}."
      },
      "isApprovedForAll(address,address)": {
        "details": "See {IERC721-isApprovedForAll}."
      },
      "name()": {
        "details": "See {IERC721Metadata-name}."
      },
      "owner()": {
        "details": "Returns the address of the current owner."
      },
      "ownerOf(uint256)": {
        "details": "See {IERC721-ownerOf}."
      },
      "renounceOwnership()": {
        "details": "Leaves the contract without owner. It will not be possible to call `onlyOwner` functions anymore. Can only be called by the current owner. NOTE: Renouncing ownership will leave the contract without an owner, thereby removing any functionality that is only available to the owner."
      },
      "safeTransferFrom(address,address,uint256)": {
        "details": "See {IERC721-safeTransferFrom}."
      },
      "safeTransferFrom(address,address,uint256,bytes)": {
        "details": "See {IERC721-safeTransferFrom}."
      },
      "setApprovalForAll(address,bool)": {
        "details": "See {IERC721-setApprovalForAll}."
      },
      "supportsInterface(bytes4)": {
        "details": "See {IERC165-supportsInterface}."
      },
      "symbol()": {
        "details": "See {IERC721Metadata-symbol}."
      },
      "tokenURI(uint256)": {
        "details": "See {IERC721Metadata-tokenURI}."
      },
      "transferFrom(address,address,uint256)": {
        "details": "See {IERC721-transferFrom}."
      },
      "transferOwnership(address)": {
        "details": "Transfers ownership of the contract to a new account (`newOwner`). Can only be called by the current owner."
      }
    },
    "version": 1
  },
  "userdoc": {
    "kind": "user",
    "methods": {},
    "version": 1
  }
}