{
  "contractName": "ViridianExchange",
  "abi": [
    {
      "inputs": [
        {
          "internalType": "address",
          "name": "_viridianToken",
          "type": "address"
        },
        {
          "internalType": "address",
          "name": "_viridianNFT",
          "type": "address"
        }
      ],
      "stateMutability": "nonpayable",
      "type": "constructor"
    },
    {
      "anonymous": false,
      "inputs": [
        {
          "indexed": true,
          "internalType": "address",
          "name": "previousOwner",
          "type": "address"
        },
        {
          "indexed": true,
          "internalType": "address",
          "name": "newOwner",
          "type": "address"
        }
      ],
      "name": "OwnershipTransferred",
      "type": "event"
    },
    {
      "stateMutability": "payable",
      "type": "fallback",
      "payable": true
    },
    {
      "inputs": [],
      "name": "ETH",
      "outputs": [
        {
          "internalType": "address",
          "name": "",
          "type": "address"
        }
      ],
      "stateMutability": "view",
      "type": "function",
      "constant": true
    },
    {
      "inputs": [],
      "name": "owner",
      "outputs": [
        {
          "internalType": "address",
          "name": "",
          "type": "address"
        }
      ],
      "stateMutability": "view",
      "type": "function",
      "constant": true
    },
    {
      "inputs": [],
      "name": "renounceOwnership",
      "outputs": [],
      "stateMutability": "nonpayable",
      "type": "function"
    },
    {
      "inputs": [
        {
          "internalType": "address",
          "name": "newOwner",
          "type": "address"
        }
      ],
      "name": "transferOwnership",
      "outputs": [],
      "stateMutability": "nonpayable",
      "type": "function"
    },
    {
      "inputs": [
        {
          "internalType": "uint256",
          "name": "",
          "type": "uint256"
        }
      ],
      "name": "users",
      "outputs": [
        {
          "internalType": "address",
          "name": "wallet",
          "type": "address"
        },
        {
          "internalType": "string",
          "name": "displayName",
          "type": "string"
        },
        {
          "internalType": "string",
          "name": "coverPhotoURL",
          "type": "string"
        },
        {
          "internalType": "string",
          "name": "profilePhotoURL",
          "type": "string"
        },
        {
          "internalType": "string",
          "name": "bio",
          "type": "string"
        }
      ],
      "stateMutability": "view",
      "type": "function",
      "constant": true
    },
    {
      "inputs": [],
      "name": "viridianNFT",
      "outputs": [
        {
          "internalType": "address",
          "name": "",
          "type": "address"
        }
      ],
      "stateMutability": "view",
      "type": "function",
      "constant": true
    },
    {
      "inputs": [],
      "name": "viridianToken",
      "outputs": [
        {
          "internalType": "address",
          "name": "",
          "type": "address"
        }
      ],
      "stateMutability": "view",
      "type": "function",
      "constant": true
    },
    {
      "stateMutability": "payable",
      "type": "receive",
      "payable": true
    },
    {
      "inputs": [],
      "name": "getBalance",
      "outputs": [
        {
          "internalType": "uint256",
          "name": "",
          "type": "uint256"
        }
      ],
      "stateMutability": "view",
      "type": "function",
      "constant": true
    },
    {
      "inputs": [],
      "name": "getListings",
      "outputs": [
        {
          "internalType": "uint256[]",
          "name": "",
          "type": "uint256[]"
        }
      ],
      "stateMutability": "view",
      "type": "function",
      "constant": true
    },
    {
      "inputs": [
        {
          "internalType": "uint256",
          "name": "_listingId",
          "type": "uint256"
        }
      ],
      "name": "getListingsFromId",
      "outputs": [
        {
          "components": [
            {
              "internalType": "uint256",
              "name": "listingId",
              "type": "uint256"
            },
            {
              "internalType": "uint256",
              "name": "tokenId",
              "type": "uint256"
            },
            {
              "internalType": "address",
              "name": "owner",
              "type": "address"
            },
            {
              "internalType": "uint256",
              "name": "price",
              "type": "uint256"
            },
            {
              "internalType": "bool",
              "name": "purchased",
              "type": "bool"
            },
            {
              "internalType": "uint256",
              "name": "royalty",
              "type": "uint256"
            },
            {
              "internalType": "bool",
              "name": "isAuction",
              "type": "bool"
            },
            {
              "internalType": "uint256",
              "name": "endTime",
              "type": "uint256"
            },
            {
              "components": [
                {
                  "internalType": "address",
                  "name": "owner",
                  "type": "address"
                },
                {
                  "internalType": "uint256",
                  "name": "amount",
                  "type": "uint256"
                },
                {
                  "internalType": "bool",
                  "name": "isVEXT",
                  "type": "bool"
                }
              ],
              "internalType": "struct ViridianExchange.Bid",
              "name": "largestBid",
              "type": "tuple"
            },
            {
              "internalType": "uint256[]",
              "name": "bidIds",
              "type": "uint256[]"
            },
            {
              "internalType": "bool",
              "name": "sold",
              "type": "bool"
            },
            {
              "internalType": "bool",
              "name": "isVEXT",
              "type": "bool"
            }
          ],
          "internalType": "struct ViridianExchange.Listing",
          "name": "",
          "type": "tuple"
        }
      ],
      "stateMutability": "view",
      "type": "function",
      "constant": true
    },
    {
      "inputs": [
        {
          "internalType": "address",
          "name": "_userAddr",
          "type": "address"
        }
      ],
      "name": "getListingsFromUser",
      "outputs": [
        {
          "components": [
            {
              "internalType": "uint256",
              "name": "listingId",
              "type": "uint256"
            },
            {
              "internalType": "uint256",
              "name": "tokenId",
              "type": "uint256"
            },
            {
              "internalType": "address",
              "name": "owner",
              "type": "address"
            },
            {
              "internalType": "uint256",
              "name": "price",
              "type": "uint256"
            },
            {
              "internalType": "bool",
              "name": "purchased",
              "type": "bool"
            },
            {
              "internalType": "uint256",
              "name": "royalty",
              "type": "uint256"
            },
            {
              "internalType": "bool",
              "name": "isAuction",
              "type": "bool"
            },
            {
              "internalType": "uint256",
              "name": "endTime",
              "type": "uint256"
            },
            {
              "components": [
                {
                  "internalType": "address",
                  "name": "owner",
                  "type": "address"
                },
                {
                  "internalType": "uint256",
                  "name": "amount",
                  "type": "uint256"
                },
                {
                  "internalType": "bool",
                  "name": "isVEXT",
                  "type": "bool"
                }
              ],
              "internalType": "struct ViridianExchange.Bid",
              "name": "largestBid",
              "type": "tuple"
            },
            {
              "internalType": "uint256[]",
              "name": "bidIds",
              "type": "uint256[]"
            },
            {
              "internalType": "bool",
              "name": "sold",
              "type": "bool"
            },
            {
              "internalType": "bool",
              "name": "isVEXT",
              "type": "bool"
            }
          ],
          "internalType": "struct ViridianExchange.Listing[]",
          "name": "",
          "type": "tuple[]"
        }
      ],
      "stateMutability": "view",
      "type": "function",
      "constant": true
    },
    {
      "inputs": [
        {
          "internalType": "uint256",
          "name": "_nftId",
          "type": "uint256"
        }
      ],
      "name": "getNftOwner",
      "outputs": [
        {
          "internalType": "address",
          "name": "",
          "type": "address"
        }
      ],
      "stateMutability": "view",
      "type": "function",
      "constant": true
    },
    {
      "inputs": [
        {
          "internalType": "address payable",
          "name": "_to",
          "type": "address"
        }
      ],
      "name": "sendEther",
      "outputs": [],
      "stateMutability": "payable",
      "type": "function",
      "payable": true
    },
    {
      "inputs": [
        {
          "internalType": "uint256",
          "name": "_nftId",
          "type": "uint256"
        },
        {
          "internalType": "uint256",
          "name": "_price",
          "type": "uint256"
        },
        {
          "internalType": "uint256",
          "name": "_royalty",
          "type": "uint256"
        },
        {
          "internalType": "bool",
          "name": "_isAuction",
          "type": "bool"
        },
        {
          "internalType": "uint256",
          "name": "_endTime",
          "type": "uint256"
        },
        {
          "internalType": "bool",
          "name": "_isVEXT",
          "type": "bool"
        }
      ],
      "name": "putUpForSale",
      "outputs": [],
      "stateMutability": "payable",
      "type": "function",
      "payable": true
    },
    {
      "inputs": [
        {
          "internalType": "uint256",
          "name": "_listingId",
          "type": "uint256"
        }
      ],
      "name": "pullFromSale",
      "outputs": [],
      "stateMutability": "payable",
      "type": "function",
      "payable": true
    },
    {
      "inputs": [
        {
          "internalType": "uint256",
          "name": "_listingId",
          "type": "uint256"
        }
      ],
      "name": "buyNFTWithETH",
      "outputs": [],
      "stateMutability": "payable",
      "type": "function",
      "payable": true
    },
    {
      "inputs": [
        {
          "internalType": "uint256",
          "name": "_listingId",
          "type": "uint256"
        }
      ],
      "name": "buyNFTWithVEXT",
      "outputs": [],
      "stateMutability": "payable",
      "type": "function",
      "payable": true
    },
    {
      "inputs": [
        {
          "internalType": "address",
          "name": "_to",
          "type": "address"
        },
        {
          "internalType": "uint256[]",
          "name": "_nftIds",
          "type": "uint256[]"
        },
        {
          "internalType": "uint256",
          "name": "_amount",
          "type": "uint256"
        },
        {
          "internalType": "uint256[]",
          "name": "_recNftIds",
          "type": "uint256[]"
        },
        {
          "internalType": "uint256",
          "name": "_recAmount",
          "type": "uint256"
        },
        {
          "internalType": "bool",
          "name": "isVEXT",
          "type": "bool"
        }
      ],
      "name": "makeOffer",
      "outputs": [],
      "stateMutability": "nonpayable",
      "type": "function"
    },
    {
      "inputs": [
        {
          "internalType": "uint256",
          "name": "_offerId",
          "type": "uint256"
        }
      ],
      "name": "cancelOffer",
      "outputs": [],
      "stateMutability": "nonpayable",
      "type": "function"
    },
    {
      "inputs": [
        {
          "internalType": "uint256",
          "name": "_offerId",
          "type": "uint256"
        }
      ],
      "name": "acceptOfferWithETH",
      "outputs": [],
      "stateMutability": "payable",
      "type": "function",
      "payable": true
    },
    {
      "inputs": [
        {
          "internalType": "uint256",
          "name": "_offerId",
          "type": "uint256"
        }
      ],
      "name": "acceptOfferWithVEXT",
      "outputs": [],
      "stateMutability": "nonpayable",
      "type": "function"
    },
    {
      "inputs": [
        {
          "internalType": "uint256",
          "name": "_listingId",
          "type": "uint256"
        },
        {
          "internalType": "uint256",
          "name": "_amount",
          "type": "uint256"
        }
      ],
      "name": "bidOnAuctionWithVEXT",
      "outputs": [],
      "stateMutability": "nonpayable",
      "type": "function"
    },
    {
      "inputs": [
        {
          "internalType": "uint256",
          "name": "_listingId",
          "type": "uint256"
        },
        {
          "internalType": "uint256",
          "name": "_amount",
          "type": "uint256"
        }
      ],
      "name": "bidOnAuctionWithETH",
      "outputs": [],
      "stateMutability": "nonpayable",
      "type": "function"
    }
  ],
  "bytecode": "0x60806040523480156200001157600080fd5b506040516200585b3803806200585b83398181016040528101906200003791906200023a565b620000576200004b6200015760201b60201c565b6200015f60201b60201c565b600073ffffffffffffffffffffffffffffffffffffffff168273ffffffffffffffffffffffffffffffffffffffff1614156200009257600080fd5b600073ffffffffffffffffffffffffffffffffffffffff168173ffffffffffffffffffffffffffffffffffffffff161415620000cd57600080fd5b81600f60006101000a81548173ffffffffffffffffffffffffffffffffffffffff021916908373ffffffffffffffffffffffffffffffffffffffff16021790555080600d60006101000a81548173ffffffffffffffffffffffffffffffffffffffff021916908373ffffffffffffffffffffffffffffffffffffffff1602179055505050620002d4565b600033905090565b60008060009054906101000a900473ffffffffffffffffffffffffffffffffffffffff169050816000806101000a81548173ffffffffffffffffffffffffffffffffffffffff021916908373ffffffffffffffffffffffffffffffffffffffff1602179055508173ffffffffffffffffffffffffffffffffffffffff168173ffffffffffffffffffffffffffffffffffffffff167f8be0079c531659141344cd1fd0a4f28419497f9722a3daafe3b4186f6b6457e060405160405180910390a35050565b6000815190506200023481620002ba565b92915050565b60008060408385031215620002545762000253620002b5565b5b6000620002648582860162000223565b9250506020620002778582860162000223565b9150509250929050565b60006200028e8262000295565b9050919050565b600073ffffffffffffffffffffffffffffffffffffffff82169050919050565b600080fd5b620002c58162000281565b8114620002d157600080fd5b50565b61557780620002e46000396000f3fe6080604052600436106101445760003560e01c80639a701288116100b6578063bddb06f31161006f578063bddb06f31461041c578063ec186db314610438578063ef706adf14610454578063f1b2d6a31461047d578063f2f57e95146104a8578063f2fde38b146104d35761014b565b80639a7012881461032a5780639cbccc2c14610355578063ac0b27c21461037e578063ac69ada71461039a578063aec99da2146103b6578063af62c684146103df5761014b565b806348c981e21161010857806348c981e21461023b578063715018a6146102575780638322fff21461026e5780638547cd16146102995780638ad2d5a7146102c25780638da5cb5b146102ff5761014b565b806312065fe01461014d57806313b2361e14610178578063273e287e146101b5578063365b98b2146101d15780633d90636b146102125761014b565b3661014b57005b005b34801561015957600080fd5b506101626104fc565b60405161016f9190614f72565b60405180910390f35b34801561018457600080fd5b5061019f600480360381019061019a91906146c3565b610504565b6040516101ac9190614f50565b60405180910390f35b6101cf60048036038101906101ca91906146c3565b61070d565b005b3480156101dd57600080fd5b506101f860048036038101906101f391906146c3565b61075b565b604051610209959493929190614d94565b60405180910390f35b34801561021e57600080fd5b506102396004803603810190610234919061471d565b6109e1565b005b610255600480360381019061025091906145a4565b610c15565b005b34801561026357600080fd5b5061026c610cc8565b005b34801561027a57600080fd5b50610283610d50565b6040516102909190614d42565b60405180910390f35b3480156102a557600080fd5b506102c060048036038101906102bb919061471d565b610d76565b005b3480156102ce57600080fd5b506102e960048036038101906102e491906146c3565b610faa565b6040516102f69190614d42565b60405180910390f35b34801561030b57600080fd5b5061031461105e565b6040516103219190614d42565b60405180910390f35b34801561033657600080fd5b5061033f611087565b60405161034c9190614d42565b60405180910390f35b34801561036157600080fd5b5061037c600480360381019061037791906145d1565b6110ad565b005b610398600480360381019061039391906146c3565b61144d565b005b6103b460048036038101906103af919061475d565b611943565b005b3480156103c257600080fd5b506103dd60048036038101906103d891906146c3565b611ec7565b005b3480156103eb57600080fd5b506104066004803603810190610401919061454a565b612094565b6040516104139190614e2c565b60405180910390f35b610436600480360381019061043191906146c3565b61230e565b005b610452600480360381019061044d91906146c3565b612e5f565b005b34801561046057600080fd5b5061047b600480360381019061047691906146c3565b6131b1565b005b34801561048957600080fd5b50610492613a13565b60405161049f9190614e4e565b60405180910390f35b3480156104b457600080fd5b506104bd613a6b565b6040516104ca9190614d42565b60405180910390f35b3480156104df57600080fd5b506104fa60048036038101906104f5919061454a565b613a91565b005b600047905090565b61050c613c79565b600860008381526020019081526020016000206040518061018001604052908160008201548152602001600182015481526020016002820160009054906101000a900473ffffffffffffffffffffffffffffffffffffffff1673ffffffffffffffffffffffffffffffffffffffff1673ffffffffffffffffffffffffffffffffffffffff168152602001600382015481526020016004820160009054906101000a900460ff16151515158152602001600582015481526020016006820160009054906101000a900460ff1615151515815260200160078201548152602001600882016040518060600160405290816000820160009054906101000a900473ffffffffffffffffffffffffffffffffffffffff1673ffffffffffffffffffffffffffffffffffffffff1673ffffffffffffffffffffffffffffffffffffffff168152602001600182015481526020016002820160009054906101000a900460ff1615151515815250508152602001600b82018054806020026020016040519081016040528092919081815260200182805480156106c757602002820191906000526020600020905b8154815260200190600101908083116106b3575b50505050508152602001600c820160009054906101000a900460ff16151515158152602001600c820160019054906101000a900460ff1615151515815250509050919050565b600060076000838152602001908152602001600020905060008160060160009054906101000a900473ffffffffffffffffffffffffffffffffffffffff16905061075681610c15565b505050565b600c818154811061076b57600080fd5b90600052602060002090600802016000915090508060000160009054906101000a900473ffffffffffffffffffffffffffffffffffffffff16908060010180546107b490615149565b80601f01602080910402602001604051908101604052809291908181526020018280546107e090615149565b801561082d5780601f106108025761010080835404028352916020019161082d565b820191906000526020600020905b81548152906001019060200180831161081057829003601f168201915b50505050509080600201805461084290615149565b80601f016020809104026020016040519081016040528092919081815260200182805461086e90615149565b80156108bb5780601f10610890576101008083540402835291602001916108bb565b820191906000526020600020905b81548152906001019060200180831161089e57829003601f168201915b5050505050908060030180546108d090615149565b80601f01602080910402602001604051908101604052809291908181526020018280546108fc90615149565b80156109495780601f1061091e57610100808354040283529160200191610949565b820191906000526020600020905b81548152906001019060200180831161092c57829003601f168201915b50505050509080600401805461095e90615149565b80601f016020809104026020016040519081016040528092919081815260200182805461098a90615149565b80156109d75780601f106109ac576101008083540402835291602001916109d7565b820191906000526020600020905b8154815290600101906020018083116109ba57829003601f168201915b5050505050905085565b60006008600084815260200190815260200160002090508060060160009054906101000a900460ff16610a49576040517f08c379a0000000000000000000000000000000000000000000000000000000008152600401610a4090614ef0565b60405180910390fd5b81816008016001015410610a92576040517f08c379a0000000000000000000000000000000000000000000000000000000008152600401610a8990614ed0565b60405180910390fd5b600060405180606001604052803373ffffffffffffffffffffffffffffffffffffffff168152602001848152602001600015158152509050610ad46003613b89565b6000610ae06002613b9f565b905082600b01819080600181540180825580915050600190039060005260206000200160009091909190915055816009600083815260200190815260200160002060008201518160000160006101000a81548173ffffffffffffffffffffffffffffffffffffffff021916908373ffffffffffffffffffffffffffffffffffffffff1602179055506020820151816001015560408201518160020160006101000a81548160ff021916908315150217905550905050818360080160008201518160000160006101000a81548173ffffffffffffffffffffffffffffffffffffffff021916908373ffffffffffffffffffffffffffffffffffffffff1602179055506020820151816001015560408201518160020160006101000a81548160ff0219169083151502179055509050505050505050565b6000808273ffffffffffffffffffffffffffffffffffffffff1634604051610c3c90614d2d565b60006040518083038185875af1925050503d8060008114610c79576040519150601f19603f3d011682016040523d82523d6000602084013e610c7e565b606091505b509150915081610cc3576040517f08c379a0000000000000000000000000000000000000000000000000000000008152600401610cba90614eb0565b60405180910390fd5b505050565b610cd0613bad565b73ffffffffffffffffffffffffffffffffffffffff16610cee61105e565b73ffffffffffffffffffffffffffffffffffffffff1614610d44576040517f08c379a0000000000000000000000000000000000000000000000000000000008152600401610d3b90614f10565b60405180910390fd5b610d4e6000613bb5565b565b600e60009054906101000a900473ffffffffffffffffffffffffffffffffffffffff1681565b60006008600084815260200190815260200160002090508060060160009054906101000a900460ff16610dde576040517f08c379a0000000000000000000000000000000000000000000000000000000008152600401610dd590614ef0565b60405180910390fd5b81816008016001015410610e27576040517f08c379a0000000000000000000000000000000000000000000000000000000008152600401610e1e90614ed0565b60405180910390fd5b600060405180606001604052803373ffffffffffffffffffffffffffffffffffffffff168152602001848152602001600115158152509050610e696003613b89565b6000610e756002613b9f565b905082600b01819080600181540180825580915050600190039060005260206000200160009091909190915055816009600083815260200190815260200160002060008201518160000160006101000a81548173ffffffffffffffffffffffffffffffffffffffff021916908373ffffffffffffffffffffffffffffffffffffffff1602179055506020820151816001015560408201518160020160006101000a81548160ff021916908315150217905550905050818360080160008201518160000160006101000a81548173ffffffffffffffffffffffffffffffffffffffff021916908373ffffffffffffffffffffffffffffffffffffffff1602179055506020820151816001015560408201518160020160006101000a81548160ff0219169083151502179055509050505050505050565b6000600d60009054906101000a900473ffffffffffffffffffffffffffffffffffffffff1673ffffffffffffffffffffffffffffffffffffffff16636352211e836040518263ffffffff1660e01b81526004016110079190614f72565b60206040518083038186803b15801561101f57600080fd5b505afa158015611033573d6000803e3d6000fd5b505050506040513d601f19601f820116820180604052508101906110579190614577565b9050919050565b60008060009054906101000a900473ffffffffffffffffffffffffffffffffffffffff16905090565b600d60009054906101000a900473ffffffffffffffffffffffffffffffffffffffff1681565b3373ffffffffffffffffffffffffffffffffffffffff168673ffffffffffffffffffffffffffffffffffffffff1614156110e657600080fd5b6110f06002613b89565b60006110fc6002613b9f565b905060006040518061012001604052808381526020018881526020018781526020018681526020018581526020018973ffffffffffffffffffffffffffffffffffffffff1681526020013373ffffffffffffffffffffffffffffffffffffffff1681526020018415158152602001600115158152509050600660008973ffffffffffffffffffffffffffffffffffffffff1673ffffffffffffffffffffffffffffffffffffffff168152602001908152602001600020819080600181540180825580915050600190039060005260206000209060070201600090919091909150600082015181600001556020820151816001019080519060200190611202929190613cfe565b50604082015181600201556060820151816003019080519060200190611229929190613cfe565b506080820151816004015560a08201518160050160006101000a81548173ffffffffffffffffffffffffffffffffffffffff021916908373ffffffffffffffffffffffffffffffffffffffff16021790555060c08201518160060160006101000a81548173ffffffffffffffffffffffffffffffffffffffff021916908373ffffffffffffffffffffffffffffffffffffffff16021790555060e08201518160060160146101000a81548160ff0219169083151502179055506101008201518160060160156101000a81548160ff0219169083151502179055505050806007600084815260200190815260200160002060008201518160000155602082015181600101908051906020019061133f929190613cfe565b50604082015181600201556060820151816003019080519060200190611366929190613cfe565b506080820151816004015560a08201518160050160006101000a81548173ffffffffffffffffffffffffffffffffffffffff021916908373ffffffffffffffffffffffffffffffffffffffff16021790555060c08201518160060160006101000a81548173ffffffffffffffffffffffffffffffffffffffff021916908373ffffffffffffffffffffffffffffffffffffffff16021790555060e08201518160060160146101000a81548160ff0219169083151502179055506101008201518160060160156101000a81548160ff0219169083151502179055509050505050505050505050565b6000600860008381526020019081526020016000206040518061018001604052908160008201548152602001600182015481526020016002820160009054906101000a900473ffffffffffffffffffffffffffffffffffffffff1673ffffffffffffffffffffffffffffffffffffffff1673ffffffffffffffffffffffffffffffffffffffff168152602001600382015481526020016004820160009054906101000a900460ff16151515158152602001600582015481526020016006820160009054906101000a900460ff1615151515815260200160078201548152602001600882016040518060600160405290816000820160009054906101000a900473ffffffffffffffffffffffffffffffffffffffff1673ffffffffffffffffffffffffffffffffffffffff1673ffffffffffffffffffffffffffffffffffffffff168152602001600182015481526020016002820160009054906101000a900460ff1615151515815250508152602001600b820180548060200260200160405190810160405280929190818152602001828054801561160a57602002820191906000526020600020905b8154815260200190600101908083116115f6575b50505050508152602001600c820160009054906101000a900460ff16151515158152602001600c820160019054906101000a900460ff16151515158152505090508060600151600f60009054906101000a900473ffffffffffffffffffffffffffffffffffffffff1673ffffffffffffffffffffffffffffffffffffffff166370a08231336040518263ffffffff1660e01b81526004016116ab9190614d42565b60206040518083038186803b1580156116c357600080fd5b505afa1580156116d7573d6000803e3d6000fd5b505050506040513d601f19601f820116820180604052508101906116fb91906146f0565b101561173c576040517f08c379a000000000000000000000000000000000000000000000000000000000815260040161173390614f30565b60405180910390fd5b600f60009054906101000a900473ffffffffffffffffffffffffffffffffffffffff1673ffffffffffffffffffffffffffffffffffffffff166323b872dd333084606001516040518463ffffffff1660e01b815260040161179f93929190614d5d565b602060405180830381600087803b1580156117b957600080fd5b505af11580156117cd573d6000803e3d6000fd5b505050506040513d601f19601f820116820180604052508101906117f19190614696565b50600f60009054906101000a900473ffffffffffffffffffffffffffffffffffffffff1673ffffffffffffffffffffffffffffffffffffffff1663a9059cbb826040015183606001516040518363ffffffff1660e01b8152600401611857929190614e03565b602060405180830381600087803b15801561187157600080fd5b505af1158015611885573d6000803e3d6000fd5b505050506040513d601f19601f820116820180604052508101906118a99190614696565b50600d60009054906101000a900473ffffffffffffffffffffffffffffffffffffffff1673ffffffffffffffffffffffffffffffffffffffff166342842e0e303384602001516040518463ffffffff1660e01b815260040161190d93929190614d5d565b600060405180830381600087803b15801561192757600080fd5b505af115801561193b573d6000803e3d6000fd5b505050505050565b3373ffffffffffffffffffffffffffffffffffffffff1661196387610faa565b73ffffffffffffffffffffffffffffffffffffffff161461198357600080fd5b61198d6001613b89565b60006119996001613b9f565b90506119a3613c79565b818160000181815250508781602001818152505033816040019073ffffffffffffffffffffffffffffffffffffffff16908173ffffffffffffffffffffffffffffffffffffffff1681525050868160600181815250506000816080019015159081151581525050858160a0018181525050848160c0019015159081151581525050838160e00181815250506000816101400190151590811515815250508281610160019015159081151581525050600560003373ffffffffffffffffffffffffffffffffffffffff1673ffffffffffffffffffffffffffffffffffffffff1681526020019081526020016000208190806001815401808255809150506001900390600052602060002090600d0201600090919091909150600082015181600001556020820151816001015560408201518160020160006101000a81548173ffffffffffffffffffffffffffffffffffffffff021916908373ffffffffffffffffffffffffffffffffffffffff1602179055506060820151816003015560808201518160040160006101000a81548160ff02191690831515021790555060a0820151816005015560c08201518160060160006101000a81548160ff02191690831515021790555060e082015181600701556101008201518160080160008201518160000160006101000a81548173ffffffffffffffffffffffffffffffffffffffff021916908373ffffffffffffffffffffffffffffffffffffffff1602179055506020820151816001015560408201518160020160006101000a81548160ff021916908315150217905550505061012082015181600b019080519060200190611c0d929190613cfe565b5061014082015181600c0160006101000a81548160ff02191690831515021790555061016082015181600c0160016101000a81548160ff02191690831515021790555050508060086000848152602001908152602001600020600082015181600001556020820151816001015560408201518160020160006101000a81548173ffffffffffffffffffffffffffffffffffffffff021916908373ffffffffffffffffffffffffffffffffffffffff1602179055506060820151816003015560808201518160040160006101000a81548160ff02191690831515021790555060a0820151816005015560c08201518160060160006101000a81548160ff02191690831515021790555060e082015181600701556101008201518160080160008201518160000160006101000a81548173ffffffffffffffffffffffffffffffffffffffff021916908373ffffffffffffffffffffffffffffffffffffffff1602179055506020820151816001015560408201518160020160006101000a81548160ff021916908315150217905550505061012082015181600b019080519060200190611db9929190613cfe565b5061014082015181600c0160006101000a81548160ff02191690831515021790555061016082015181600c0160016101000a81548160ff021916908315150217905550905050600a81600001519080600181540180825580915050600190039060005260206000200160009091909190915055600d60009054906101000a900473ffffffffffffffffffffffffffffffffffffffff1673ffffffffffffffffffffffffffffffffffffffff166342842e0e33308b6040518463ffffffff1660e01b8152600401611e8b93929190614d5d565b600060405180830381600087803b158015611ea557600080fd5b505af1158015611eb9573d6000803e3d6000fd5b505050505050505050505050565b6000600760008381526020019081526020016000209050600f60009054906101000a900473ffffffffffffffffffffffffffffffffffffffff1673ffffffffffffffffffffffffffffffffffffffff166323b872dd8260060160009054906101000a900473ffffffffffffffffffffffffffffffffffffffff163384600401546040518463ffffffff1660e01b8152600401611f6593929190614d5d565b602060405180830381600087803b158015611f7f57600080fd5b505af1158015611f93573d6000803e3d6000fd5b505050506040513d601f19601f82011682018060405250810190611fb79190614696565b50600f60009054906101000a900473ffffffffffffffffffffffffffffffffffffffff1673ffffffffffffffffffffffffffffffffffffffff1663a9059cbb8260060160009054906101000a900473ffffffffffffffffffffffffffffffffffffffff1683600201546040518363ffffffff1660e01b815260040161203d929190614e03565b602060405180830381600087803b15801561205757600080fd5b505af115801561206b573d6000803e3d6000fd5b505050506040513d601f19601f8201168201806040525081019061208f9190614696565b505050565b6060600560008373ffffffffffffffffffffffffffffffffffffffff1673ffffffffffffffffffffffffffffffffffffffff168152602001908152602001600020805480602002602001604051908101604052809291908181526020016000905b8282101561230357838290600052602060002090600d02016040518061018001604052908160008201548152602001600182015481526020016002820160009054906101000a900473ffffffffffffffffffffffffffffffffffffffff1673ffffffffffffffffffffffffffffffffffffffff1673ffffffffffffffffffffffffffffffffffffffff168152602001600382015481526020016004820160009054906101000a900460ff16151515158152602001600582015481526020016006820160009054906101000a900460ff1615151515815260200160078201548152602001600882016040518060600160405290816000820160009054906101000a900473ffffffffffffffffffffffffffffffffffffffff1673ffffffffffffffffffffffffffffffffffffffff1673ffffffffffffffffffffffffffffffffffffffff168152602001600182015481526020016002820160009054906101000a900460ff1615151515815250508152602001600b82018054806020026020016040519081016040528092919081815260200182805480156122b557602002820191906000526020600020905b8154815260200190600101908083116122a1575b50505050508152602001600c820160009054906101000a900460ff16151515158152602001600c820160019054906101000a900460ff161515151581525050815260200190600101906120f5565b505050509050919050565b6000600860008381526020019081526020016000206040518061018001604052908160008201548152602001600182015481526020016002820160009054906101000a900473ffffffffffffffffffffffffffffffffffffffff1673ffffffffffffffffffffffffffffffffffffffff1673ffffffffffffffffffffffffffffffffffffffff168152602001600382015481526020016004820160009054906101000a900460ff16151515158152602001600582015481526020016006820160009054906101000a900460ff1615151515815260200160078201548152602001600882016040518060600160405290816000820160009054906101000a900473ffffffffffffffffffffffffffffffffffffffff1673ffffffffffffffffffffffffffffffffffffffff1673ffffffffffffffffffffffffffffffffffffffff168152602001600182015481526020016002820160009054906101000a900460ff1615151515815250508152602001600b82018054806020026020016040519081016040528092919081815260200182805480156124cb57602002820191906000526020600020905b8154815260200190600101908083116124b7575b50505050508152602001600c820160009054906101000a900460ff16151515158152602001600c820160019054906101000a900460ff16151515158152505090503373ffffffffffffffffffffffffffffffffffffffff16816040015173ffffffffffffffffffffffffffffffffffffffff161461254857600080fd5b600d60009054906101000a900473ffffffffffffffffffffffffffffffffffffffff1673ffffffffffffffffffffffffffffffffffffffff166342842e0e303384602001516040518463ffffffff1660e01b81526004016125ab93929190614d5d565b600060405180830381600087803b1580156125c557600080fd5b505af11580156125d9573d6000803e3d6000fd5b505050506000600560003373ffffffffffffffffffffffffffffffffffffffff1673ffffffffffffffffffffffffffffffffffffffff168152602001908152602001600020905060005b8180549050811015612c7657600082828154811061264457612643615282565b5b90600052602060002090600d02016040518061018001604052908160008201548152602001600182015481526020016002820160009054906101000a900473ffffffffffffffffffffffffffffffffffffffff1673ffffffffffffffffffffffffffffffffffffffff1673ffffffffffffffffffffffffffffffffffffffff168152602001600382015481526020016004820160009054906101000a900460ff16151515158152602001600582015481526020016006820160009054906101000a900460ff1615151515815260200160078201548152602001600882016040518060600160405290816000820160009054906101000a900473ffffffffffffffffffffffffffffffffffffffff1673ffffffffffffffffffffffffffffffffffffffff1673ffffffffffffffffffffffffffffffffffffffff168152602001600182015481526020016002820160009054906101000a900460ff1615151515815250508152602001600b82018054806020026020016040519081016040528092919081815260200182805480156127fa57602002820191906000526020600020905b8154815260200190600101908083116127e6575b50505050508152602001600c820160009054906101000a900460ff16151515158152602001600c820160019054906101000a900460ff1615151515815250509050836000015181600001511415612c6257826001848054905061285d9190615088565b8154811061286e5761286d615282565b5b90600052602060002090600d020183838154811061288f5761288e615282565b5b90600052602060002090600d020160008201548160000155600182015481600101556002820160009054906101000a900473ffffffffffffffffffffffffffffffffffffffff168160020160006101000a81548173ffffffffffffffffffffffffffffffffffffffff021916908373ffffffffffffffffffffffffffffffffffffffff160217905550600382015481600301556004820160009054906101000a900460ff168160040160006101000a81548160ff021916908315150217905550600582015481600501556006820160009054906101000a900460ff168160060160006101000a81548160ff0219169083151502179055506007820154816007015560088201816008016000820160009054906101000a900473ffffffffffffffffffffffffffffffffffffffff168160000160006101000a81548173ffffffffffffffffffffffffffffffffffffffff021916908373ffffffffffffffffffffffffffffffffffffffff160217905550600182015481600101556002820160009054906101000a900460ff168160020160006101000a81548160ff0219169083151502179055505050600b820181600b01908054612a4e929190613d4b565b50600c820160009054906101000a900460ff1681600c0160006101000a81548160ff021916908315150217905550600c820160019054906101000a900460ff1681600c0160016101000a81548160ff02191690831515021790555090505082600560003373ffffffffffffffffffffffffffffffffffffffff1673ffffffffffffffffffffffffffffffffffffffff168152602001908152602001600020908054612afa929190613d9d565b50600560003373ffffffffffffffffffffffffffffffffffffffff1673ffffffffffffffffffffffffffffffffffffffff168152602001908152602001600020805480612b4a57612b49615253565b5b60019003818190600052602060002090600d020160008082016000905560018201600090556002820160006101000a81549073ffffffffffffffffffffffffffffffffffffffff021916905560038201600090556004820160006101000a81549060ff021916905560058201600090556006820160006101000a81549060ff0219169055600782016000905560088201600080820160006101000a81549073ffffffffffffffffffffffffffffffffffffffff021916905560018201600090556002820160006101000a81549060ff02191690555050600b82016000612c309190614001565b600c820160006101000a81549060ff0219169055600c820160016101000a81549060ff02191690555050905550612c76565b508080612c6e906151ac565b915050612623565b5060005b600a80549050811015612d4a576000600a8281548110612c9d57612c9c615282565b5b906000526020600020015490508360000151811415612d3657600a6001600a80549050612cca9190615088565b81548110612cdb57612cda615282565b5b9060005260206000200154600a8381548110612cfa57612cf9615282565b5b9060005260206000200181905550600a805480612d1a57612d19615253565b5b6001900381819060005260206000200160009055905550612d4a565b508080612d42906151ac565b915050612c7a565b506008600084815260200190815260200160002060008082016000905560018201600090556002820160006101000a81549073ffffffffffffffffffffffffffffffffffffffff021916905560038201600090556004820160006101000a81549060ff021916905560058201600090556006820160006101000a81549060ff0219169055600782016000905560088201600080820160006101000a81549073ffffffffffffffffffffffffffffffffffffffff021916905560018201600090556002820160006101000a81549060ff02191690555050600b82016000612e309190614001565b600c820160006101000a81549060ff0219169055600c820160016101000a81549060ff02191690555050505050565b6000600860008381526020019081526020016000206040518061018001604052908160008201548152602001600182015481526020016002820160009054906101000a900473ffffffffffffffffffffffffffffffffffffffff1673ffffffffffffffffffffffffffffffffffffffff1673ffffffffffffffffffffffffffffffffffffffff168152602001600382015481526020016004820160009054906101000a900460ff16151515158152602001600582015481526020016006820160009054906101000a900460ff1615151515815260200160078201548152602001600882016040518060600160405290816000820160009054906101000a900473ffffffffffffffffffffffffffffffffffffffff1673ffffffffffffffffffffffffffffffffffffffff1673ffffffffffffffffffffffffffffffffffffffff168152602001600182015481526020016002820160009054906101000a900460ff1615151515815250508152602001600b820180548060200260200160405190810160405280929190818152602001828054801561301c57602002820191906000526020600020905b815481526020019060010190808311613008575b50505050508152602001600c820160009054906101000a900460ff16151515158152602001600c820160019054906101000a900460ff161515151581525050905080606001513373ffffffffffffffffffffffffffffffffffffffff163110156130bb576040517f08c379a00000000000000000000000000000000000000000000000000000000081526004016130b290614f30565b60405180910390fd5b6000816040015190508160600151341461310a576040517f08c379a000000000000000000000000000000000000000000000000000000000815260040161310190614e70565b60405180910390fd5b61311381610c15565b600d60009054906101000a900473ffffffffffffffffffffffffffffffffffffffff1673ffffffffffffffffffffffffffffffffffffffff166342842e0e83604001513385602001516040518463ffffffff1660e01b815260040161317a93929190614d5d565b600060405180830381600087803b15801561319457600080fd5b505af11580156131a8573d6000803e3d6000fd5b50505050505050565b60006007600083815260200190815260200160002090503373ffffffffffffffffffffffffffffffffffffffff168160060160009054906101000a900473ffffffffffffffffffffffffffffffffffffffff1673ffffffffffffffffffffffffffffffffffffffff16148061327557503373ffffffffffffffffffffffffffffffffffffffff168160050160009054906101000a900473ffffffffffffffffffffffffffffffffffffffff1673ffffffffffffffffffffffffffffffffffffffff16145b61327e57600080fd5b6000600660008360050160009054906101000a900473ffffffffffffffffffffffffffffffffffffffff1673ffffffffffffffffffffffffffffffffffffffff1673ffffffffffffffffffffffffffffffffffffffff168152602001908152602001600020905060005b818054905081101561387557600082828154811061330957613308615282565b5b906000526020600020906007020160405180610120016040529081600082015481526020016001820180548060200260200160405190810160405280929190818152602001828054801561337c57602002820191906000526020600020905b815481526020019060010190808311613368575b5050505050815260200160028201548152602001600382018054806020026020016040519081016040528092919081815260200182805480156133de57602002820191906000526020600020905b8154815260200190600101908083116133ca575b50505050508152602001600482015481526020016005820160009054906101000a900473ffffffffffffffffffffffffffffffffffffffff1673ffffffffffffffffffffffffffffffffffffffff1673ffffffffffffffffffffffffffffffffffffffff1681526020016006820160009054906101000a900473ffffffffffffffffffffffffffffffffffffffff1673ffffffffffffffffffffffffffffffffffffffff1673ffffffffffffffffffffffffffffffffffffffff1681526020016006820160149054906101000a900460ff161515151581526020016006820160159054906101000a900460ff16151515158152505090508360000154816000015114156138615782600184805490506134f79190615088565b8154811061350857613507615282565b5b906000526020600020906007020183838154811061352957613528615282565b5b9060005260206000209060070201600082015481600001556001820181600101908054613557929190613d4b565b50600282015481600201556003820181600301908054613578929190613d4b565b50600482015481600401556005820160009054906101000a900473ffffffffffffffffffffffffffffffffffffffff168160050160006101000a81548173ffffffffffffffffffffffffffffffffffffffff021916908373ffffffffffffffffffffffffffffffffffffffff1602179055506006820160009054906101000a900473ffffffffffffffffffffffffffffffffffffffff168160060160006101000a81548173ffffffffffffffffffffffffffffffffffffffff021916908373ffffffffffffffffffffffffffffffffffffffff1602179055506006820160149054906101000a900460ff168160060160146101000a81548160ff0219169083151502179055506006820160159054906101000a900460ff168160060160156101000a81548160ff02191690831515021790555090505082600660008660050160009054906101000a900473ffffffffffffffffffffffffffffffffffffffff1673ffffffffffffffffffffffffffffffffffffffff1673ffffffffffffffffffffffffffffffffffffffff168152602001908152602001600020908054613720929190614022565b50600660008560050160009054906101000a900473ffffffffffffffffffffffffffffffffffffffff1673ffffffffffffffffffffffffffffffffffffffff1673ffffffffffffffffffffffffffffffffffffffff16815260200190815260200160002080548061379457613793615253565b5b60019003818190600052602060002090600702016000808201600090556001820160006137c19190614001565b60028201600090556003820160006137d99190614001565b60048201600090556005820160006101000a81549073ffffffffffffffffffffffffffffffffffffffff02191690556006820160006101000a81549073ffffffffffffffffffffffffffffffffffffffff02191690556006820160146101000a81549060ff02191690556006820160156101000a81549060ff02191690555050905550613875565b50808061386d906151ac565b9150506132e8565b5060005b600b80549050811015613949576000600b828154811061389c5761389b615282565b5b90600052602060002001549050836000015481141561393557600b6001600b805490506138c99190615088565b815481106138da576138d9615282565b5b9060005260206000200154600b83815481106138f9576138f8615282565b5b9060005260206000200181905550600b80548061391957613918615253565b5b6001900381819060005260206000200160009055905550613949565b508080613941906151ac565b915050613879565b50600760008481526020019081526020016000206000808201600090556001820160006139769190614001565b600282016000905560038201600061398e9190614001565b60048201600090556005820160006101000a81549073ffffffffffffffffffffffffffffffffffffffff02191690556006820160006101000a81549073ffffffffffffffffffffffffffffffffffffffff02191690556006820160146101000a81549060ff02191690556006820160156101000a81549060ff02191690555050505050565b6060600a805480602002602001604051908101604052809291908181526020018280548015613a6157602002820191906000526020600020905b815481526020019060010190808311613a4d575b5050505050905090565b600f60009054906101000a900473ffffffffffffffffffffffffffffffffffffffff1681565b613a99613bad565b73ffffffffffffffffffffffffffffffffffffffff16613ab761105e565b73ffffffffffffffffffffffffffffffffffffffff1614613b0d576040517f08c379a0000000000000000000000000000000000000000000000000000000008152600401613b0490614f10565b60405180910390fd5b600073ffffffffffffffffffffffffffffffffffffffff168173ffffffffffffffffffffffffffffffffffffffff161415613b7d576040517f08c379a0000000000000000000000000000000000000000000000000000000008152600401613b7490614e90565b60405180910390fd5b613b8681613bb5565b50565b6001816000016000828254019250508190555050565b600081600001549050919050565b600033905090565b60008060009054906101000a900473ffffffffffffffffffffffffffffffffffffffff169050816000806101000a81548173ffffffffffffffffffffffffffffffffffffffff021916908373ffffffffffffffffffffffffffffffffffffffff1602179055508173ffffffffffffffffffffffffffffffffffffffff168173ffffffffffffffffffffffffffffffffffffffff167f8be0079c531659141344cd1fd0a4f28419497f9722a3daafe3b4186f6b6457e060405160405180910390a35050565b6040518061018001604052806000815260200160008152602001600073ffffffffffffffffffffffffffffffffffffffff168152602001600081526020016000151581526020016000815260200160001515815260200160008152602001613cdf6141ee565b8152602001606081526020016000151581526020016000151581525090565b828054828255906000526020600020908101928215613d3a579160200282015b82811115613d39578251825591602001919060010190613d1e565b5b509050613d479190614227565b5090565b828054828255906000526020600020908101928215613d8c5760005260206000209182015b82811115613d8b578254825591600101919060010190613d70565b5b509050613d999190614227565b5090565b82805482825590600052602060002090600d028101928215613ff057600052602060002091600d0282015b82811115613fef57828260008201548160000155600182015481600101556002820160009054906101000a900473ffffffffffffffffffffffffffffffffffffffff168160020160006101000a81548173ffffffffffffffffffffffffffffffffffffffff021916908373ffffffffffffffffffffffffffffffffffffffff160217905550600382015481600301556004820160009054906101000a900460ff168160040160006101000a81548160ff021916908315150217905550600582015481600501556006820160009054906101000a900460ff168160060160006101000a81548160ff0219169083151502179055506007820154816007015560088201816008016000820160009054906101000a900473ffffffffffffffffffffffffffffffffffffffff168160000160006101000a81548173ffffffffffffffffffffffffffffffffffffffff021916908373ffffffffffffffffffffffffffffffffffffffff160217905550600182015481600101556002820160009054906101000a900460ff168160020160006101000a81548160ff0219169083151502179055505050600b820181600b01908054613f83929190613d4b565b50600c820160009054906101000a900460ff1681600c0160006101000a81548160ff021916908315150217905550600c820160019054906101000a900460ff1681600c0160016101000a81548160ff021916908315150217905550505091600d019190600d0190613dc8565b5b509050613ffd9190614244565b5090565b508054600082559060005260206000209081019061401f9190614227565b50565b8280548282559060005260206000209060070281019282156141dd5760005260206000209160070282015b828111156141dc578282600082015481600001556001820181600101908054614077929190613d4b565b50600282015481600201556003820181600301908054614098929190613d4b565b50600482015481600401556005820160009054906101000a900473ffffffffffffffffffffffffffffffffffffffff168160050160006101000a81548173ffffffffffffffffffffffffffffffffffffffff021916908373ffffffffffffffffffffffffffffffffffffffff1602179055506006820160009054906101000a900473ffffffffffffffffffffffffffffffffffffffff168160060160006101000a81548173ffffffffffffffffffffffffffffffffffffffff021916908373ffffffffffffffffffffffffffffffffffffffff1602179055506006820160149054906101000a900460ff168160060160146101000a81548160ff0219169083151502179055506006820160159054906101000a900460ff168160060160156101000a81548160ff02191690831515021790555050509160070191906007019061404d565b5b5090506141ea9190614354565b5090565b6040518060600160405280600073ffffffffffffffffffffffffffffffffffffffff168152602001600081526020016000151581525090565b5b80821115614240576000816000905550600101614228565b5090565b5b808211156143505760008082016000905560018201600090556002820160006101000a81549073ffffffffffffffffffffffffffffffffffffffff021916905560038201600090556004820160006101000a81549060ff021916905560058201600090556006820160006101000a81549060ff0219169055600782016000905560088201600080820160006101000a81549073ffffffffffffffffffffffffffffffffffffffff021916905560018201600090556002820160006101000a81549060ff02191690555050600b8201600061431f9190614001565b600c820160006101000a81549060ff0219169055600c820160016101000a81549060ff021916905550600d01614245565b5090565b5b80821115614415576000808201600090556001820160006143769190614001565b600282016000905560038201600061438e9190614001565b60048201600090556005820160006101000a81549073ffffffffffffffffffffffffffffffffffffffff02191690556006820160006101000a81549073ffffffffffffffffffffffffffffffffffffffff02191690556006820160146101000a81549060ff02191690556006820160156101000a81549060ff021916905550600701614355565b5090565b600061442c61442784614fb2565b614f8d565b9050808382526020820190508285602086028201111561444f5761444e6152e5565b5b60005b8581101561447f57816144658882614520565b845260208401935060208301925050600181019050614452565b5050509392505050565b600081359050614498816154e5565b92915050565b6000815190506144ad816154e5565b92915050565b6000813590506144c2816154fc565b92915050565b600082601f8301126144dd576144dc6152e0565b5b81356144ed848260208601614419565b91505092915050565b60008135905061450581615513565b92915050565b60008151905061451a81615513565b92915050565b60008135905061452f8161552a565b92915050565b6000815190506145448161552a565b92915050565b6000602082840312156145605761455f6152ef565b5b600061456e84828501614489565b91505092915050565b60006020828403121561458d5761458c6152ef565b5b600061459b8482850161449e565b91505092915050565b6000602082840312156145ba576145b96152ef565b5b60006145c8848285016144b3565b91505092915050565b60008060008060008060c087890312156145ee576145ed6152ef565b5b60006145fc89828a01614489565b965050602087013567ffffffffffffffff81111561461d5761461c6152ea565b5b61462989828a016144c8565b955050604061463a89828a01614520565b945050606087013567ffffffffffffffff81111561465b5761465a6152ea565b5b61466789828a016144c8565b935050608061467889828a01614520565b92505060a061468989828a016144f6565b9150509295509295509295565b6000602082840312156146ac576146ab6152ef565b5b60006146ba8482850161450b565b91505092915050565b6000602082840312156146d9576146d86152ef565b5b60006146e784828501614520565b91505092915050565b600060208284031215614706576147056152ef565b5b600061471484828501614535565b91505092915050565b60008060408385031215614734576147336152ef565b5b600061474285828601614520565b925050602061475385828601614520565b9150509250929050565b60008060008060008060c0878903121561477a576147796152ef565b5b600061478889828a01614520565b965050602061479989828a01614520565b95505060406147aa89828a01614520565b94505060606147bb89828a016144f6565b93505060806147cc89828a01614520565b92505060a06147dd89828a016144f6565b9150509295509295509295565b60006147f68383614b07565b905092915050565b600061480a8383614d0f565b60208301905092915050565b61481f816150bc565b82525050565b61482e816150bc565b82525050565b600061483f82614ffe565b6148498185615039565b93508360208202850161485b85614fde565b8060005b85811015614897578484038952815161487885826147ea565b94506148838361501f565b925060208a0199505060018101905061485f565b50829750879550505050505092915050565b60006148b482615009565b6148be818561504a565b93506148c983614fee565b8060005b838110156148fa5781516148e188826147fe565b97506148ec8361502c565b9250506001810190506148cd565b5085935050505092915050565b600061491282615009565b61491c818561505b565b935061492783614fee565b8060005b8381101561495857815161493f88826147fe565b975061494a8361502c565b92505060018101905061492b565b5085935050505092915050565b61496e816150e0565b82525050565b600061497f82615014565b6149898185615077565b9350614999818560208601615116565b6149a2816152f4565b840191505092915050565b60006149ba603383615077565b91506149c582615305565b604082019050919050565b60006149dd602683615077565b91506149e882615354565b604082019050919050565b6000614a00601483615077565b9150614a0b826153a3565b602082019050919050565b6000614a23603d83615077565b9150614a2e826153cc565b604082019050919050565b6000614a46603c83615077565b9150614a518261541b565b604082019050919050565b6000614a69602083615077565b9150614a748261546a565b602082019050919050565b6000614a8c60008361506c565b9150614a9782615493565b600082019050919050565b6000614aaf603383615077565b9150614aba82615496565b604082019050919050565b606082016000820151614adb6000850182614816565b506020820151614aee6020850182614d0f565b506040820151614b016040850182614965565b50505050565b60006101c083016000830151614b206000860182614d0f565b506020830151614b336020860182614d0f565b506040830151614b466040860182614816565b506060830151614b596060860182614d0f565b506080830151614b6c6080860182614965565b5060a0830151614b7f60a0860182614d0f565b5060c0830151614b9260c0860182614965565b5060e0830151614ba560e0860182614d0f565b50610100830151614bba610100860182614ac5565b50610120830151848203610160860152614bd482826148a9565b915050610140830151614beb610180860182614965565b50610160830151614c006101a0860182614965565b508091505092915050565b60006101c083016000830151614c246000860182614d0f565b506020830151614c376020860182614d0f565b506040830151614c4a6040860182614816565b506060830151614c5d6060860182614d0f565b506080830151614c706080860182614965565b5060a0830151614c8360a0860182614d0f565b5060c0830151614c9660c0860182614965565b5060e0830151614ca960e0860182614d0f565b50610100830151614cbe610100860182614ac5565b50610120830151848203610160860152614cd882826148a9565b915050610140830151614cef610180860182614965565b50610160830151614d046101a0860182614965565b508091505092915050565b614d188161510c565b82525050565b614d278161510c565b82525050565b6000614d3882614a7f565b9150819050919050565b6000602082019050614d576000830184614825565b92915050565b6000606082019050614d726000830186614825565b614d7f6020830185614825565b614d8c6040830184614d1e565b949350505050565b600060a082019050614da96000830188614825565b8181036020830152614dbb8187614974565b90508181036040830152614dcf8186614974565b90508181036060830152614de38185614974565b90508181036080830152614df78184614974565b90509695505050505050565b6000604082019050614e186000830185614825565b614e256020830184614d1e565b9392505050565b60006020820190508181036000830152614e468184614834565b905092915050565b60006020820190508181036000830152614e688184614907565b905092915050565b60006020820190508181036000830152614e89816149ad565b9050919050565b60006020820190508181036000830152614ea9816149d0565b9050919050565b60006020820190508181036000830152614ec9816149f3565b9050919050565b60006020820190508181036000830152614ee981614a16565b9050919050565b60006020820190508181036000830152614f0981614a39565b9050919050565b60006020820190508181036000830152614f2981614a5c565b9050919050565b60006020820190508181036000830152614f4981614aa2565b9050919050565b60006020820190508181036000830152614f6a8184614c0b565b905092915050565b6000602082019050614f876000830184614d1e565b92915050565b6000614f97614fa8565b9050614fa3828261517b565b919050565b6000604051905090565b600067ffffffffffffffff821115614fcd57614fcc6152b1565b5b602082029050602081019050919050565b6000819050602082019050919050565b6000819050602082019050919050565b600081519050919050565b600081519050919050565b600081519050919050565b6000602082019050919050565b6000602082019050919050565b600082825260208201905092915050565b600082825260208201905092915050565b600082825260208201905092915050565b600081905092915050565b600082825260208201905092915050565b60006150938261510c565b915061509e8361510c565b9250828210156150b1576150b06151f5565b5b828203905092915050565b60006150c7826150ec565b9050919050565b60006150d9826150ec565b9050919050565b60008115159050919050565b600073ffffffffffffffffffffffffffffffffffffffff82169050919050565b6000819050919050565b60005b83811015615134578082015181840152602081019050615119565b83811115615143576000848401525b50505050565b6000600282049050600182168061516157607f821691505b6020821081141561517557615174615224565b5b50919050565b615184826152f4565b810181811067ffffffffffffffff821117156151a3576151a26152b1565b5b80604052505050565b60006151b78261510c565b91507fffffffffffffffffffffffffffffffffffffffffffffffffffffffffffffffff8214156151ea576151e96151f5565b5b600182019050919050565b7f4e487b7100000000000000000000000000000000000000000000000000000000600052601160045260246000fd5b7f4e487b7100000000000000000000000000000000000000000000000000000000600052602260045260246000fd5b7f4e487b7100000000000000000000000000000000000000000000000000000000600052603160045260246000fd5b7f4e487b7100000000000000000000000000000000000000000000000000000000600052603260045260246000fd5b7f4e487b7100000000000000000000000000000000000000000000000000000000600052604160045260246000fd5b600080fd5b600080fd5b600080fd5b600080fd5b6000601f19601f8301169050919050565b7f566972696469616e45786368616e67653a20496e636f727265637420616d6f7560008201527f6e74207061696420746f2066756e6374696f6e00000000000000000000000000602082015250565b7f4f776e61626c653a206e6577206f776e657220697320746865207a65726f206160008201527f6464726573730000000000000000000000000000000000000000000000000000602082015250565b7f4661696c656420746f2073656e64204574686572000000000000000000000000600082015250565b7f566972696469616e4578636861676e653a20426964206d757374206265206c6160008201527f72676572207468616e2063757272656e74206c61726765737420626964000000602082015250565b7f566972696469616e45786368616e67653a2043616e6e6f74206269642c20637560008201527f7272656e74206c697374696e67206973206e6f742061756374696f6e00000000602082015250565b7f4f776e61626c653a2063616c6c6572206973206e6f7420746865206f776e6572600082015250565b50565b7f566972696469616e45786368616e67653a205573657220646f6573206e6f742060008201527f6861766520656e6f7567682062616c616e636500000000000000000000000000602082015250565b6154ee816150bc565b81146154f957600080fd5b50565b615505816150ce565b811461551057600080fd5b50565b61551c816150e0565b811461552757600080fd5b50565b6155338161510c565b811461553e57600080fd5b5056fea2646970667358221220682419fb7b13899c9ef10e99be08f187197c2696d478820518c4816bbcc356fb64736f6c63430008060033",
  "immutableReferences": {},
  "source": "pragma solidity ^0.8.0;\n\nimport \"@openzeppelin/contracts/access/Ownable.sol\";\nimport \"@openzeppelin/contracts/token/ERC721/ERC721.sol\";\nimport \"@openzeppelin/contracts/token/ERC20/IERC20.sol\";\nimport \"@openzeppelin/contracts/token/ERC20/ERC20.sol\";\nimport \"@openzeppelin/contracts/token/ERC721/IERC721.sol\";\n\nimport \"./ViridianNFT.sol\";\n\ncontract ViridianExchange is Ownable {\n\n    struct User {\n        address wallet;\n        string displayName;\n        string coverPhotoURL;\n        string profilePhotoURL;\n        string bio;\n        User[] following;\n        User[] followers;\n        uint256[] likes;\n    }\n\n    struct Offer {\n        uint256 offerId;\n        uint256[] toNftIds;\n        uint toAmt;\n        uint256[] fromNftIds;\n        uint fromAmt;\n        address to;\n        address from;\n        bool isVEXT;\n        bool pending;\n    }\n\n    using Counters for Counters.Counter;\n    Counters.Counter private _listingIds;\n    Counters.Counter private _offerIds;\n    Counters.Counter private _bidIds;\n\n    //address vNFTContract = \n\n    struct Bid {\n        address owner;\n        uint256 amount;\n        bool isVEXT;\n    }\n    \n    struct Listing {\n        uint256 listingId;\n        uint256 tokenId;\n        address owner;\n        uint256 price;\n        bool purchased;\n        uint256 royalty;\n        bool isAuction;\n        uint256 endTime;\n        Bid largestBid;\n        uint256[] bidIds;\n        bool sold;\n        bool isVEXT;\n    }\n\n    struct Collection {\n        string description;\n        uint256[] collectionNFTs;\n    }\n\n    //string[] public nftIds;\n    mapping (address => Collection) displayCases;\n    mapping (address => Listing[]) userListings;\n    mapping (address => Offer[]) userOffers;\n    mapping (uint256 => Offer) offers;\n    mapping (uint256 => Listing) listings;\n    mapping (uint256 => Bid) bids;\n    uint256[] private listingIds;\n    uint256[] private offerIds;\n    User[] public users;\n\n    address public viridianNFT;\n    address public ETH;\n    address public viridianToken;\n\n    constructor(address _viridianToken, address _viridianNFT) {\n        require(address(_viridianToken) != address(0)); \n        //require(address(_ETH) != address(0));\n        require(address(_viridianNFT) != address(0));\n\n        viridianToken = _viridianToken;\n        //address _ETH, ETH = _ETH;\n        viridianNFT = _viridianNFT;\n    }\n\n    function getBalance() public view returns (uint) {\n        return address(this).balance;\n    }\n\n    function getListings() public view returns (uint256[] memory) {\n        return listingIds;\n    }\n\n    function getListingsFromId(uint256 _listingId) public view returns (Listing memory) {\n        return listings[_listingId];\n    }\n\n    function getListingsFromUser(address _userAddr) public view returns (Listing[] memory) {\n        return userListings[_userAddr];\n    }\n\n    function getNftOwner(uint256 _nftId) public view returns (address) {\n        return IERC721(viridianNFT).ownerOf(_nftId);\n    }\n\n    function sendEther(address payable _to) public payable {\n        // Call returns a boolean value indicating success or failure.\n        // This is the current recommended method to use.\n        (bool sent, bytes memory data) = _to.call{value: msg.value}(\"\");\n        require(sent, \"Failed to send Ether\");\n    }\n\n    function putUpForSale(uint256 _nftId, uint256 _price, uint256 _royalty, bool _isAuction, uint256 _endTime, bool _isVEXT) public payable {\n        require(getNftOwner(_nftId) == msg.sender);\n\n        _listingIds.increment();\n        uint256 _listingId = _listingIds.current();\n        Listing memory saleListing;\n        saleListing.listingId = _listingId;\n        saleListing.tokenId = _nftId;\n        saleListing.owner = msg.sender;\n        saleListing.price = _price;\n        saleListing.purchased = false;\n        saleListing.royalty = _royalty;\n        saleListing.isAuction = _isAuction;\n        saleListing.endTime = _endTime;\n        saleListing.sold = false;\n        saleListing.isVEXT = _isVEXT;\n\n        //_listingId, _nftId, msg.sender, _price, false, \n        //                                    _royalty, _isAuction, _endTime, Bid(msg.sender, 0, _isVEXT), new Bid[](0), false, _isVEXT);\n        userListings[msg.sender].push(saleListing);\n        listings[_listingId] = saleListing;\n        listingIds.push(saleListing.listingId);\n\n        IERC721(viridianNFT).safeTransferFrom(msg.sender, address(this), _nftId);\n    }\n    \n    function pullFromSale(uint256 _listingId) public payable {\n        Listing memory curListing = listings[_listingId];\n        require(curListing.owner == msg.sender);\n        IERC721(viridianNFT).safeTransferFrom(address(this), msg.sender, curListing.tokenId);\n        Listing[] storage curUserListings = userListings[msg.sender];\n        for (uint i = 0; i < curUserListings.length; i++) {\n            Listing memory listing = curUserListings[i];\n            if (listing.listingId == curListing.listingId) {\n                curUserListings[i] = curUserListings[curUserListings.length - 1];\n                userListings[msg.sender] = curUserListings;\n                userListings[msg.sender].pop();\n                break;\n            }\n        }\n\n        for (uint256 i = 0; i < listingIds.length; i++) {\n            uint256 listingId = listingIds[i];\n            if (listingId == curListing.listingId) {\n                listingIds[i] = listingIds[listingIds.length - 1];\n                listingIds.pop();\n                break;\n            }\n        }\n\n        delete listings[_listingId];\n    }\n\n    function buyNFTWithETH(uint256 _listingId) public payable {\n        Listing memory curListing = listings[_listingId];\n\n        require(msg.sender.balance >= curListing.price, 'ViridianExchange: User does not have enough balance');\n        address payable ownerWallet = payable(curListing.owner);\n\n        require(msg.value == curListing.price, 'ViridianExchange: Incorrect amount paid to function');\n\n        sendEther(ownerWallet);\n        \n        IERC721(viridianNFT).safeTransferFrom(curListing.owner, msg.sender, curListing.tokenId);\n    }\n\n    function buyNFTWithVEXT(uint256 _listingId) public payable {\n        Listing memory curListing = listings[_listingId];\n\n        require(IERC20(viridianToken).balanceOf(msg.sender) >= curListing.price, 'ViridianExchange: User does not have enough balance');\n\n        // TODO: See if this implementation is preferrable\n        // // Approve and transfer VEXT from sender to contract\n        //IERC20(viridianToken).approve(msg.sender, curListing.price);\n        IERC20(viridianToken).transferFrom(msg.sender, address(this), curListing.price);\n\n        // Approve and transfer VEXT from contract to listing owner\n        //IERC20(viridianToken).approve(address(this), curListing.price);\n        IERC20(viridianToken).transfer(curListing.owner, curListing.price);\n\n        // Approve and transfer NFT from sender to contract\n        //IERC721(viridianNFT).approve(msg.sender, curListing.tokenId);\n\n        // Approve and transfer NFT from contract to listing owner\n        //IERC721(viridianNFT).approve(address(this), curListing.tokenId);\n        IERC721(viridianNFT).safeTransferFrom(address(this), msg.sender, curListing.tokenId);\n\n        //IERC20(viridianToken).approve(msg.sender, curListing.price);\n        //IERC20(viridianToken).transferFrom(msg.sender, curListing.owner, curListing.price);\n\n        //IERC721(viridianNFT).approve(msg.sender, curListing.tokenId);\n        //IERC721(viridianNFT).safeTransferFrom(curListing.owner, msg.sender, curListing.tokenId);\n    }\n\n    receive() external payable {}\n\n    // Fallback function is called when msg.data is not empty\n    fallback() external payable {}\n\n    function makeOffer(address _to, uint256[] memory _nftIds, uint256 _amount, uint256[] memory _recNftIds, uint256 _recAmount, bool isVEXT) public {\n        require(_to != msg.sender);\n\n        _offerIds.increment();\n        uint256 _offerId = _offerIds.current();\n\n        Offer memory newOffer = Offer(_offerId, _nftIds, _amount, _recNftIds, _recAmount, _to, msg.sender, isVEXT, true);\n        \n        userOffers[_to].push(newOffer);\n        offers[_offerId] = newOffer;\n    }\n\n    function cancelOffer(uint256 _offerId) public {\n        Offer storage curOffer = offers[_offerId];\n        require(curOffer.from == msg.sender || curOffer.to == msg.sender);\n        Offer[] storage curUserOffers = userOffers[curOffer.to];\n        \n        //TODO: Check who is cancelling and cancel that person's offers.\n\n        // Remove offer from current user's offers\n        for (uint i = 0; i < curUserOffers.length; i++) {\n            Offer memory offer = curUserOffers[i];\n            if (offer.offerId == curOffer.offerId) {\n                curUserOffers[i] = curUserOffers[curUserOffers.length - 1];\n                userOffers[curOffer.to] = curUserOffers;\n                userOffers[curOffer.to].pop();\n                break;\n            }\n        } \n\n        // Remove offer id from global list of offer ids\n        for (uint256 i = 0; i < offerIds.length; i++) {\n            uint256 offerId = offerIds[i];\n            if (offerId == curOffer.offerId) {\n                offerIds[i] = offerIds[offerIds.length - 1];\n                offerIds.pop();\n                break;\n            }\n        }\n\n        // Remove offer from global mapping of offers\n        delete offers[_offerId];\n    }\n\n    //TODO: Figure out how to send eth from \"from\" wallet to \"to\" wallet.\n    function acceptOfferWithETH(uint256 _offerId) public payable {\n        Offer storage curOffer = offers[_offerId];\n\n        address payable ownerWallet = payable(curOffer.from);\n\n        sendEther(ownerWallet);\n    }\n\n    function acceptOfferWithVEXT(uint256 _offerId) public {\n        Offer storage curOffer = offers[_offerId];\n\n        IERC20(viridianToken).transferFrom(curOffer.from, msg.sender, curOffer.fromAmt);\n\n        IERC20(viridianToken).transfer(curOffer.from, curOffer.toAmt);\n        \n    }\n\n    function bidOnAuctionWithVEXT(uint256 _listingId, uint256 _amount) public {\n        Listing storage curListing = listings[_listingId];\n\n        require(curListing.isAuction, 'ViridianExchange: Cannot bid, current listing is not auction');\n        require(curListing.largestBid.amount < _amount, 'ViridianExchagne: Bid must be larger than current largest bid');\n\n        Bid memory newBid = Bid(msg.sender, _amount, true);\n\n        _bidIds.increment();\n        uint256 _bidId = _offerIds.current();\n\n        curListing.bidIds.push(_bidId);\n        bids[_bidId] = newBid;\n        curListing.largestBid = newBid;\n    }\n\n    function bidOnAuctionWithETH(uint256 _listingId, uint256 _amount) public {\n        Listing storage curListing = listings[_listingId];\n\n        require(curListing.isAuction, 'ViridianExchange: Cannot bid, current listing is not auction');\n        require(curListing.largestBid.amount < _amount, 'ViridianExchagne: Bid must be larger than current largest bid');\n\n        Bid memory newBid = Bid(msg.sender, _amount, false);\n\n        _bidIds.increment();\n        uint256 _bidId = _offerIds.current();\n\n        curListing.bidIds.push(_bidId);\n        bids[_bidId] = newBid;\n        curListing.largestBid = newBid;\n    }\n}",
  "sourcePath": "/Users/blakehatch/Viridian-Exchange-Contracts/contracts/ViridianExchange.sol",
  "compiler": {
    "name": "solc",
    "version": "0.8.6+commit.11564f7e.Emscripten.clang"
  },
  "schemaVersion": "3.4.1",
  "updatedAt": "2021-08-02T18:29:10.190Z",
  "networkType": "ethereum",
  "devdoc": {
    "kind": "dev",
    "methods": {
      "owner()": {
        "details": "Returns the address of the current owner."
      },
      "renounceOwnership()": {
        "details": "Leaves the contract without owner. It will not be possible to call `onlyOwner` functions anymore. Can only be called by the current owner. NOTE: Renouncing ownership will leave the contract without an owner, thereby removing any functionality that is only available to the owner."
      },
      "transferOwnership(address)": {
        "details": "Transfers ownership of the contract to a new account (`newOwner`). Can only be called by the current owner."
      }
    },
    "version": 1
  },
  "userdoc": {
    "kind": "user",
    "methods": {},
    "version": 1
  }
}