{
  "contractName": "ViridianExchange",
  "abi": [
    {
      "anonymous": false,
      "inputs": [
        {
          "indexed": true,
          "internalType": "address",
          "name": "previousOwner",
          "type": "address"
        },
        {
          "indexed": true,
          "internalType": "address",
          "name": "newOwner",
          "type": "address"
        }
      ],
      "name": "OwnershipTransferred",
      "type": "event"
    },
    {
      "inputs": [],
      "name": "owner",
      "outputs": [
        {
          "internalType": "address",
          "name": "",
          "type": "address"
        }
      ],
      "stateMutability": "view",
      "type": "function",
      "constant": true
    },
    {
      "inputs": [],
      "name": "renounceOwnership",
      "outputs": [],
      "stateMutability": "nonpayable",
      "type": "function"
    },
    {
      "inputs": [
        {
          "internalType": "address",
          "name": "newOwner",
          "type": "address"
        }
      ],
      "name": "transferOwnership",
      "outputs": [],
      "stateMutability": "nonpayable",
      "type": "function"
    },
    {
      "inputs": [
        {
          "internalType": "uint256",
          "name": "",
          "type": "uint256"
        }
      ],
      "name": "users",
      "outputs": [
        {
          "internalType": "address",
          "name": "wallet",
          "type": "address"
        },
        {
          "internalType": "string",
          "name": "displayName",
          "type": "string"
        },
        {
          "internalType": "string",
          "name": "coverPhotoURL",
          "type": "string"
        },
        {
          "internalType": "string",
          "name": "profilePhotoURL",
          "type": "string"
        },
        {
          "internalType": "string",
          "name": "bio",
          "type": "string"
        }
      ],
      "stateMutability": "view",
      "type": "function",
      "constant": true
    },
    {
      "inputs": [],
      "name": "getListings",
      "outputs": [
        {
          "components": [
            {
              "internalType": "uint256",
              "name": "listingId",
              "type": "uint256"
            },
            {
              "internalType": "uint256",
              "name": "tokenId",
              "type": "uint256"
            },
            {
              "internalType": "address",
              "name": "owner",
              "type": "address"
            },
            {
              "internalType": "uint256",
              "name": "price",
              "type": "uint256"
            },
            {
              "internalType": "bool",
              "name": "purchased",
              "type": "bool"
            },
            {
              "internalType": "uint256",
              "name": "royalty",
              "type": "uint256"
            },
            {
              "internalType": "bool",
              "name": "isAuction",
              "type": "bool"
            },
            {
              "internalType": "uint256",
              "name": "endTime",
              "type": "uint256"
            }
          ],
          "internalType": "struct ViridianExchange.Listing[]",
          "name": "",
          "type": "tuple[]"
        }
      ],
      "stateMutability": "view",
      "type": "function",
      "constant": true
    },
    {
      "inputs": [
        {
          "internalType": "address",
          "name": "vnftAddr",
          "type": "address"
        },
        {
          "internalType": "uint256",
          "name": "_nftId",
          "type": "uint256"
        }
      ],
      "name": "getNftOwner",
      "outputs": [
        {
          "internalType": "bytes",
          "name": "",
          "type": "bytes"
        }
      ],
      "stateMutability": "payable",
      "type": "function",
      "payable": true
    },
    {
      "inputs": [
        {
          "internalType": "address",
          "name": "_vnftAddr",
          "type": "address"
        },
        {
          "internalType": "uint256",
          "name": "_nftId",
          "type": "uint256"
        }
      ],
      "name": "testGetNftOwner",
      "outputs": [
        {
          "internalType": "address",
          "name": "",
          "type": "address"
        }
      ],
      "stateMutability": "view",
      "type": "function",
      "constant": true
    },
    {
      "inputs": [
        {
          "internalType": "uint256",
          "name": "_nftId",
          "type": "uint256"
        },
        {
          "internalType": "uint256",
          "name": "_price",
          "type": "uint256"
        },
        {
          "internalType": "uint256",
          "name": "_royalty",
          "type": "uint256"
        },
        {
          "internalType": "bool",
          "name": "_isAuction",
          "type": "bool"
        },
        {
          "internalType": "uint256",
          "name": "_endTime",
          "type": "uint256"
        },
        {
          "internalType": "address",
          "name": "vnftAddr",
          "type": "address"
        }
      ],
      "name": "putUpForSale",
      "outputs": [],
      "stateMutability": "payable",
      "type": "function",
      "payable": true
    },
    {
      "inputs": [
        {
          "components": [
            {
              "internalType": "uint256",
              "name": "listingId",
              "type": "uint256"
            },
            {
              "internalType": "uint256",
              "name": "tokenId",
              "type": "uint256"
            },
            {
              "internalType": "address",
              "name": "owner",
              "type": "address"
            },
            {
              "internalType": "uint256",
              "name": "price",
              "type": "uint256"
            },
            {
              "internalType": "bool",
              "name": "purchased",
              "type": "bool"
            },
            {
              "internalType": "uint256",
              "name": "royalty",
              "type": "uint256"
            },
            {
              "internalType": "bool",
              "name": "isAuction",
              "type": "bool"
            },
            {
              "internalType": "uint256",
              "name": "endTime",
              "type": "uint256"
            }
          ],
          "internalType": "struct ViridianExchange.Listing",
          "name": "_listing",
          "type": "tuple"
        }
      ],
      "name": "pullFromSale",
      "outputs": [],
      "stateMutability": "nonpayable",
      "type": "function"
    },
    {
      "inputs": [],
      "name": "withdrawNFT",
      "outputs": [],
      "stateMutability": "nonpayable",
      "type": "function"
    }
  ],
  "bytecode": "0x608060405234801561001057600080fd5b5060006100216100c460201b60201c565b9050806000806101000a81548173ffffffffffffffffffffffffffffffffffffffff021916908373ffffffffffffffffffffffffffffffffffffffff1602179055508073ffffffffffffffffffffffffffffffffffffffff16600073ffffffffffffffffffffffffffffffffffffffff167f8be0079c531659141344cd1fd0a4f28419497f9722a3daafe3b4186f6b6457e060405160405180910390a3506100cc565b600033905090565b611d5a806100db6000396000f3fe6080604052600436106100915760003560e01c80638da5cb5b116100595780638da5cb5b14610151578063ad2f00d41461017c578063b9184dd6146101a5578063f1b2d6a3146101e2578063f2fde38b1461020d57610091565b806333b1fc9f14610096578063365b98b2146100b257806350446136146100f35780635e38c95414610123578063715018a61461013a575b600080fd5b6100b060048036038101906100ab919061154b565b610236565b005b3480156100be57600080fd5b506100d960048036038101906100d4919061151e565b6104bc565b6040516100ea959493929190611857565b60405180910390f35b61010d600480360381019061010891906114b0565b610742565b60405161011a91906118e8565b60405180910390f35b34801561012f57600080fd5b50610138610852565b005b34801561014657600080fd5b5061014f610854565b005b34801561015d57600080fd5b5061016661098e565b604051610173919061183c565b60405180910390f35b34801561018857600080fd5b506101a3600480360381019061019e91906114f0565b6109b7565b005b3480156101b157600080fd5b506101cc60048036038101906101c791906114b0565b610dd9565b6040516101d9919061183c565b60405180910390f35b3480156101ee57600080fd5b506101f7610e6c565b60405161020491906118c6565b60405180910390f35b34801561021957600080fd5b50610234600480360381019061022f9190611456565b610f8a565b005b6102406001611133565b600061024c6001611149565b905060006040518061010001604052808381526020018981526020013373ffffffffffffffffffffffffffffffffffffffff1681526020018881526020016000151581526020018781526020018615158152602001858152509050600360003373ffffffffffffffffffffffffffffffffffffffff1673ffffffffffffffffffffffffffffffffffffffff168152602001908152602001600020819080600181540180825580915050600190039060005260206000209060080201600090919091909150600082015181600001556020820151816001015560408201518160020160006101000a81548173ffffffffffffffffffffffffffffffffffffffff021916908373ffffffffffffffffffffffffffffffffffffffff1602179055506060820151816003015560808201518160040160006101000a81548160ff02191690831515021790555060a0820151816005015560c08201518160060160006101000a81548160ff02191690831515021790555060e0820151816007015550506004819080600181540180825580915050600190039060005260206000209060080201600090919091909150600082015181600001556020820151816001015560408201518160020160006101000a81548173ffffffffffffffffffffffffffffffffffffffff021916908373ffffffffffffffffffffffffffffffffffffffff1602179055506060820151816003015560808201518160040160006101000a81548160ff02191690831515021790555060a0820151816005015560c08201518160060160006101000a81548160ff02191690831515021790555060e0820151816007015550505050505050505050565b600581815481106104cc57600080fd5b90600052602060002090600802016000915090508060000160009054906101000a900473ffffffffffffffffffffffffffffffffffffffff169080600101805461051590611ab5565b80601f016020809104026020016040519081016040528092919081815260200182805461054190611ab5565b801561058e5780601f106105635761010080835404028352916020019161058e565b820191906000526020600020905b81548152906001019060200180831161057157829003601f168201915b5050505050908060020180546105a390611ab5565b80601f01602080910402602001604051908101604052809291908181526020018280546105cf90611ab5565b801561061c5780601f106105f15761010080835404028352916020019161061c565b820191906000526020600020905b8154815290600101906020018083116105ff57829003601f168201915b50505050509080600301805461063190611ab5565b80601f016020809104026020016040519081016040528092919081815260200182805461065d90611ab5565b80156106aa5780601f1061067f576101008083540402835291602001916106aa565b820191906000526020600020905b81548152906001019060200180831161068d57829003601f168201915b5050505050908060040180546106bf90611ab5565b80601f01602080910402602001604051908101604052809291908181526020018280546106eb90611ab5565b80156107385780601f1061070d57610100808354040283529160200191610738565b820191906000526020600020905b81548152906001019060200180831161071b57829003601f168201915b5050505050905085565b60606000808473ffffffffffffffffffffffffffffffffffffffff1634620186a09086604051602401610775919061194a565b6040516020818303038152906040527f38350541000000000000000000000000000000000000000000000000000000007bffffffffffffffffffffffffffffffffffffffffffffffffffffffff19166020820180517bffffffffffffffffffffffffffffffffffffffffffffffffffffffff83818316178352505050506040516107ff9190611825565b600060405180830381858888f193505050503d806000811461083d576040519150601f19603f3d011682016040523d82523d6000602084013e610842565b606091505b5091509150809250505092915050565b565b61085c611157565b73ffffffffffffffffffffffffffffffffffffffff1661087a61098e565b73ffffffffffffffffffffffffffffffffffffffff16146108d0576040517f08c379a00000000000000000000000000000000000000000000000000000000081526004016108c79061192a565b60405180910390fd5b600073ffffffffffffffffffffffffffffffffffffffff1660008054906101000a900473ffffffffffffffffffffffffffffffffffffffff1673ffffffffffffffffffffffffffffffffffffffff167f8be0079c531659141344cd1fd0a4f28419497f9722a3daafe3b4186f6b6457e060405160405180910390a360008060006101000a81548173ffffffffffffffffffffffffffffffffffffffff021916908373ffffffffffffffffffffffffffffffffffffffff160217905550565b60008060009054906101000a900473ffffffffffffffffffffffffffffffffffffffff16905090565b3373ffffffffffffffffffffffffffffffffffffffff16816040015173ffffffffffffffffffffffffffffffffffffffff16146109f357600080fd5b6000600360003373ffffffffffffffffffffffffffffffffffffffff1673ffffffffffffffffffffffffffffffffffffffff168152602001908152602001600020905060005b8180549050811015610dd4576000828281548110610a5a57610a59611bee565b5b90600052602060002090600802016040518061010001604052908160008201548152602001600182015481526020016002820160009054906101000a900473ffffffffffffffffffffffffffffffffffffffff1673ffffffffffffffffffffffffffffffffffffffff1673ffffffffffffffffffffffffffffffffffffffff168152602001600382015481526020016004820160009054906101000a900460ff16151515158152602001600582015481526020016006820160009054906101000a900460ff161515151581526020016007820154815250509050836000015181600001511415610dc0578260018480549050610b569190611a06565b81548110610b6757610b66611bee565b5b9060005260206000209060080201838381548110610b8857610b87611bee565b5b906000526020600020906008020160008201548160000155600182015481600101556002820160009054906101000a900473ffffffffffffffffffffffffffffffffffffffff168160020160006101000a81548173ffffffffffffffffffffffffffffffffffffffff021916908373ffffffffffffffffffffffffffffffffffffffff160217905550600382015481600301556004820160009054906101000a900460ff168160040160006101000a81548160ff021916908315150217905550600582015481600501556006820160009054906101000a900460ff168160060160006101000a81548160ff0219169083151502179055506007820154816007015590505082600360003373ffffffffffffffffffffffffffffffffffffffff1673ffffffffffffffffffffffffffffffffffffffff168152602001908152602001600020908054610cda92919061115f565b50600360003373ffffffffffffffffffffffffffffffffffffffff1673ffffffffffffffffffffffffffffffffffffffff168152602001908152602001600020805480610d2a57610d29611bbf565b5b600190038181906000526020600020906008020160008082016000905560018201600090556002820160006101000a81549073ffffffffffffffffffffffffffffffffffffffff021916905560038201600090556004820160006101000a81549060ff021916905560058201600090556006820160006101000a81549060ff021916905560078201600090555050905550610dd4565b508080610dcc90611b18565b915050610a39565b505050565b60008273ffffffffffffffffffffffffffffffffffffffff16636352211e836040518263ffffffff1660e01b8152600401610e14919061194a565b60206040518083038186803b158015610e2c57600080fd5b505afa158015610e40573d6000803e3d6000fd5b505050506040513d601f19601f82011682018060405250810190610e649190611483565b905092915050565b60606004805480602002602001604051908101604052809291908181526020016000905b82821015610f8157838290600052602060002090600802016040518061010001604052908160008201548152602001600182015481526020016002820160009054906101000a900473ffffffffffffffffffffffffffffffffffffffff1673ffffffffffffffffffffffffffffffffffffffff1673ffffffffffffffffffffffffffffffffffffffff168152602001600382015481526020016004820160009054906101000a900460ff16151515158152602001600582015481526020016006820160009054906101000a900460ff1615151515815260200160078201548152505081526020019060010190610e90565b50505050905090565b610f92611157565b73ffffffffffffffffffffffffffffffffffffffff16610fb061098e565b73ffffffffffffffffffffffffffffffffffffffff1614611006576040517f08c379a0000000000000000000000000000000000000000000000000000000008152600401610ffd9061192a565b60405180910390fd5b600073ffffffffffffffffffffffffffffffffffffffff168173ffffffffffffffffffffffffffffffffffffffff161415611076576040517f08c379a000000000000000000000000000000000000000000000000000000000815260040161106d9061190a565b60405180910390fd5b8073ffffffffffffffffffffffffffffffffffffffff1660008054906101000a900473ffffffffffffffffffffffffffffffffffffffff1673ffffffffffffffffffffffffffffffffffffffff167f8be0079c531659141344cd1fd0a4f28419497f9722a3daafe3b4186f6b6457e060405160405180910390a3806000806101000a81548173ffffffffffffffffffffffffffffffffffffffff021916908373ffffffffffffffffffffffffffffffffffffffff16021790555050565b6001816000016000828254019250508190555050565b600081600001549050919050565b600033905090565b8280548282559060005260206000209060080281019282156112995760005260206000209160080282015b8281111561129857828260008201548160000155600182015481600101556002820160009054906101000a900473ffffffffffffffffffffffffffffffffffffffff168160020160006101000a81548173ffffffffffffffffffffffffffffffffffffffff021916908373ffffffffffffffffffffffffffffffffffffffff160217905550600382015481600301556004820160009054906101000a900460ff168160040160006101000a81548160ff021916908315150217905550600582015481600501556006820160009054906101000a900460ff168160060160006101000a81548160ff0219169083151502179055506007820154816007015550509160080191906008019061118a565b5b5090506112a691906112aa565b5090565b5b808211156113345760008082016000905560018201600090556002820160006101000a81549073ffffffffffffffffffffffffffffffffffffffff021916905560038201600090556004820160006101000a81549060ff021916905560058201600090556006820160006101000a81549060ff02191690556007820160009055506008016112ab565b5090565b60008135905061134781611cdf565b92915050565b60008151905061135c81611cdf565b92915050565b60008135905061137181611cf6565b92915050565b6000610100828403121561138e5761138d611c4c565b5b611399610100611965565b905060006113a984828501611441565b60008301525060206113bd84828501611441565b60208301525060406113d184828501611338565b60408301525060606113e584828501611441565b60608301525060806113f984828501611362565b60808301525060a061140d84828501611441565b60a08301525060c061142184828501611362565b60c08301525060e061143584828501611441565b60e08301525092915050565b60008135905061145081611d0d565b92915050565b60006020828403121561146c5761146b611c51565b5b600061147a84828501611338565b91505092915050565b60006020828403121561149957611498611c51565b5b60006114a78482850161134d565b91505092915050565b600080604083850312156114c7576114c6611c51565b5b60006114d585828601611338565b92505060206114e685828601611441565b9150509250929050565b6000610100828403121561150757611506611c51565b5b600061151584828501611377565b91505092915050565b60006020828403121561153457611533611c51565b5b600061154284828501611441565b91505092915050565b60008060008060008060c0878903121561156857611567611c51565b5b600061157689828a01611441565b965050602061158789828a01611441565b955050604061159889828a01611441565b94505060606115a989828a01611362565b93505060806115ba89828a01611441565b92505060a06115cb89828a01611338565b9150509295509295509295565b60006115e48383611765565b6101008301905092915050565b6115fa81611a3a565b82525050565b61160981611a3a565b82525050565b600061161a8261199a565b61162481856119c8565b935061162f8361198a565b8060005b8381101561166057815161164788826115d8565b9750611652836119bb565b925050600181019050611633565b5085935050505092915050565b61167681611a4c565b82525050565b6000611687826119a5565b61169181856119d9565b93506116a1818560208601611a82565b6116aa81611c56565b840191505092915050565b60006116c0826119a5565b6116ca81856119ea565b93506116da818560208601611a82565b80840191505092915050565b60006116f1826119b0565b6116fb81856119f5565b935061170b818560208601611a82565b61171481611c56565b840191505092915050565b600061172c6026836119f5565b915061173782611c67565b604082019050919050565b600061174f6020836119f5565b915061175a82611cb6565b602082019050919050565b6101008201600082015161177c6000850182611807565b50602082015161178f6020850182611807565b5060408201516117a260408501826115f1565b5060608201516117b56060850182611807565b5060808201516117c8608085018261166d565b5060a08201516117db60a0850182611807565b5060c08201516117ee60c085018261166d565b5060e082015161180160e0850182611807565b50505050565b61181081611a78565b82525050565b61181f81611a78565b82525050565b600061183182846116b5565b915081905092915050565b60006020820190506118516000830184611600565b92915050565b600060a08201905061186c6000830188611600565b818103602083015261187e81876116e6565b9050818103604083015261189281866116e6565b905081810360608301526118a681856116e6565b905081810360808301526118ba81846116e6565b90509695505050505050565b600060208201905081810360008301526118e0818461160f565b905092915050565b60006020820190508181036000830152611902818461167c565b905092915050565b600060208201905081810360008301526119238161171f565b9050919050565b6000602082019050818103600083015261194381611742565b9050919050565b600060208201905061195f6000830184611816565b92915050565b600061196f611980565b905061197b8282611ae7565b919050565b6000604051905090565b6000819050602082019050919050565b600081519050919050565b600081519050919050565b600081519050919050565b6000602082019050919050565b600082825260208201905092915050565b600082825260208201905092915050565b600081905092915050565b600082825260208201905092915050565b6000611a1182611a78565b9150611a1c83611a78565b925082821015611a2f57611a2e611b61565b5b828203905092915050565b6000611a4582611a58565b9050919050565b60008115159050919050565b600073ffffffffffffffffffffffffffffffffffffffff82169050919050565b6000819050919050565b60005b83811015611aa0578082015181840152602081019050611a85565b83811115611aaf576000848401525b50505050565b60006002820490506001821680611acd57607f821691505b60208210811415611ae157611ae0611b90565b5b50919050565b611af082611c56565b810181811067ffffffffffffffff82111715611b0f57611b0e611c1d565b5b80604052505050565b6000611b2382611a78565b91507fffffffffffffffffffffffffffffffffffffffffffffffffffffffffffffffff821415611b5657611b55611b61565b5b600182019050919050565b7f4e487b7100000000000000000000000000000000000000000000000000000000600052601160045260246000fd5b7f4e487b7100000000000000000000000000000000000000000000000000000000600052602260045260246000fd5b7f4e487b7100000000000000000000000000000000000000000000000000000000600052603160045260246000fd5b7f4e487b7100000000000000000000000000000000000000000000000000000000600052603260045260246000fd5b7f4e487b7100000000000000000000000000000000000000000000000000000000600052604160045260246000fd5b600080fd5b600080fd5b6000601f19601f8301169050919050565b7f4f776e61626c653a206e6577206f776e657220697320746865207a65726f206160008201527f6464726573730000000000000000000000000000000000000000000000000000602082015250565b7f4f776e61626c653a2063616c6c6572206973206e6f7420746865206f776e6572600082015250565b611ce881611a3a565b8114611cf357600080fd5b50565b611cff81611a4c565b8114611d0a57600080fd5b50565b611d1681611a78565b8114611d2157600080fd5b5056fea26469706673582212209ec4862ddf26d39e8c8cd6861585a13e44535f6711806d6ffb0e6d3da6a2b59364736f6c63430008060033",
  "immutableReferences": {},
  "source": "pragma solidity ^0.8.0;\n\nimport \"@openzeppelin/contracts/access/Ownable.sol\";\nimport \"@openzeppelin/contracts/token/ERC721/ERC721.sol\";\nimport \"@openzeppelin/contracts/token/ERC20/IERC20.sol\";\nimport \"@openzeppelin/contracts/token/ERC721/IERC721.sol\";\n\nimport \"./ViridianNFT.sol\";\n\ncontract ViridianExchange is Ownable {\n\n    struct User {\n        address wallet;\n        string displayName;\n        string coverPhotoURL;\n        string profilePhotoURL;\n        string bio;\n        User[] following;\n        User[] followers;\n        uint256[] likes;\n    }\n\n    struct Trade {\n        uint256[] nftIds;\n        uint vextAmt;\n        address _to;\n        address _from;\n        bool pending;\n    }\n\n    using Counters for Counters.Counter;\n    Counters.Counter private _listingIds;\n\n    //address vNFTContract = \n    \n    struct Listing {\n        uint256 listingId;\n        uint256 tokenId;\n        address owner;\n        uint256 price;\n        bool purchased;\n        uint256 royalty;\n        bool isAuction;\n        uint256 endTime;\n    }\n\n    struct Collection {\n        string description;\n        uint256[] collectionNFTs;\n    }\n\n    //string[] public nftIds;\n    mapping (address => Collection) displayCases;\n    mapping (address => Listing[]) userListings;\n    Listing[] private listings;\n    User[] public users;\n\n    function getListings() public view returns (Listing[] memory) {\n        return listings;\n    }\n\n    function getNftOwner(address vnftAddr, uint256 _nftId) public payable returns (bytes memory) {\n        (bool success, bytes memory data) = vnftAddr.call{value: msg.value, gas: 100000}(\n                abi.encodeWithSignature(\"_ownerOf(uint256)\", _nftId));\n        \n        return data;\n    } \n\n    function testGetNftOwner(address _vnftAddr, uint256 _nftId) public view returns (address) {\n        return IERC721(_vnftAddr).ownerOf(_nftId);\n    }\n\n    function putUpForSale(uint256 _nftId, uint256 _price, uint256 _royalty, bool _isAuction, uint256 _endTime, address vnftAddr) public payable {\n        //require(IERC721(0xf05fb8663F85AeFC281bAC644B8e9e89e650d711).ownerOf(_nftId) == msg.sender);\n        // Figure out a way to get this require to work\n        _listingIds.increment();\n        uint256 _listingId = _listingIds.current();\n        Listing memory saleListing = Listing(_listingId, _nftId, msg.sender, _price, false, _royalty, _isAuction, _endTime);\n        userListings[msg.sender].push(saleListing);\n        listings.push(saleListing);\n    }\n\n    function pullFromSale(Listing memory _listing) public {\n        require(_listing.owner == msg.sender);\n        Listing[] storage curUserListings = userListings[msg.sender];\n        for (uint i = 0; i < curUserListings.length; i++) {\n            Listing memory listing = curUserListings[i];\n            if (listing.listingId == _listing.listingId) {\n                curUserListings[i] = curUserListings[curUserListings.length - 1];\n                userListings[msg.sender] = curUserListings;\n                userListings[msg.sender].pop();\n                break;\n            }\n        }\n    }\n\n    function withdrawNFT() public {\n        //Burn NFT\n        //Send message to prompt front-end email sending\n    }\n}",
  "sourcePath": "/Users/blakehatch/Viridian-Exchange-Contracts/contracts/ViridianExchange.sol",
  "compiler": {
    "name": "solc",
    "version": "0.8.6+commit.11564f7e.Emscripten.clang"
  },
  "schemaVersion": "3.4.1",
  "updatedAt": "2021-07-19T21:03:11.374Z",
  "networkType": "ethereum",
  "devdoc": {
    "kind": "dev",
    "methods": {
      "owner()": {
        "details": "Returns the address of the current owner."
      },
      "renounceOwnership()": {
        "details": "Leaves the contract without owner. It will not be possible to call `onlyOwner` functions anymore. Can only be called by the current owner. NOTE: Renouncing ownership will leave the contract without an owner, thereby removing any functionality that is only available to the owner."
      },
      "transferOwnership(address)": {
        "details": "Transfers ownership of the contract to a new account (`newOwner`). Can only be called by the current owner."
      }
    },
    "version": 1
  },
  "userdoc": {
    "kind": "user",
    "methods": {},
    "version": 1
  }
}