{
  "contractName": "ViridianExchange",
  "abi": [
    {
      "inputs": [
        {
          "internalType": "address",
          "name": "_viridianToken",
          "type": "address"
        },
        {
          "internalType": "address",
          "name": "_viridianNFT",
          "type": "address"
        }
      ],
      "stateMutability": "nonpayable",
      "type": "constructor"
    },
    {
      "anonymous": false,
      "inputs": [
        {
          "indexed": true,
          "internalType": "address",
          "name": "previousOwner",
          "type": "address"
        },
        {
          "indexed": true,
          "internalType": "address",
          "name": "newOwner",
          "type": "address"
        }
      ],
      "name": "OwnershipTransferred",
      "type": "event"
    },
    {
      "stateMutability": "payable",
      "type": "fallback",
      "payable": true
    },
    {
      "inputs": [],
      "name": "ETH",
      "outputs": [
        {
          "internalType": "address",
          "name": "",
          "type": "address"
        }
      ],
      "stateMutability": "view",
      "type": "function",
      "constant": true
    },
    {
      "inputs": [],
      "name": "owner",
      "outputs": [
        {
          "internalType": "address",
          "name": "",
          "type": "address"
        }
      ],
      "stateMutability": "view",
      "type": "function",
      "constant": true
    },
    {
      "inputs": [],
      "name": "renounceOwnership",
      "outputs": [],
      "stateMutability": "nonpayable",
      "type": "function"
    },
    {
      "inputs": [
        {
          "internalType": "address",
          "name": "newOwner",
          "type": "address"
        }
      ],
      "name": "transferOwnership",
      "outputs": [],
      "stateMutability": "nonpayable",
      "type": "function"
    },
    {
      "inputs": [
        {
          "internalType": "uint256",
          "name": "",
          "type": "uint256"
        }
      ],
      "name": "users",
      "outputs": [
        {
          "internalType": "address",
          "name": "wallet",
          "type": "address"
        },
        {
          "internalType": "string",
          "name": "displayName",
          "type": "string"
        },
        {
          "internalType": "string",
          "name": "coverPhotoURL",
          "type": "string"
        },
        {
          "internalType": "string",
          "name": "profilePhotoURL",
          "type": "string"
        },
        {
          "internalType": "string",
          "name": "bio",
          "type": "string"
        }
      ],
      "stateMutability": "view",
      "type": "function",
      "constant": true
    },
    {
      "inputs": [],
      "name": "viridianNFT",
      "outputs": [
        {
          "internalType": "address",
          "name": "",
          "type": "address"
        }
      ],
      "stateMutability": "view",
      "type": "function",
      "constant": true
    },
    {
      "inputs": [],
      "name": "viridianToken",
      "outputs": [
        {
          "internalType": "address",
          "name": "",
          "type": "address"
        }
      ],
      "stateMutability": "view",
      "type": "function",
      "constant": true
    },
    {
      "stateMutability": "payable",
      "type": "receive",
      "payable": true
    },
    {
      "inputs": [],
      "name": "getListings",
      "outputs": [
        {
          "internalType": "uint256[]",
          "name": "",
          "type": "uint256[]"
        }
      ],
      "stateMutability": "view",
      "type": "function",
      "constant": true
    },
    {
      "inputs": [
        {
          "internalType": "uint256",
          "name": "_listingId",
          "type": "uint256"
        }
      ],
      "name": "getListingFromId",
      "outputs": [
        {
          "components": [
            {
              "internalType": "uint256",
              "name": "listingId",
              "type": "uint256"
            },
            {
              "internalType": "uint256",
              "name": "tokenId",
              "type": "uint256"
            },
            {
              "internalType": "address",
              "name": "owner",
              "type": "address"
            },
            {
              "internalType": "uint256",
              "name": "price",
              "type": "uint256"
            },
            {
              "internalType": "bool",
              "name": "purchased",
              "type": "bool"
            },
            {
              "internalType": "uint256",
              "name": "royalty",
              "type": "uint256"
            },
            {
              "internalType": "bool",
              "name": "isAuction",
              "type": "bool"
            },
            {
              "internalType": "uint256",
              "name": "endTime",
              "type": "uint256"
            },
            {
              "internalType": "bool",
              "name": "sold",
              "type": "bool"
            }
          ],
          "internalType": "struct ViridianExchange.Listing",
          "name": "",
          "type": "tuple"
        }
      ],
      "stateMutability": "view",
      "type": "function",
      "constant": true
    },
    {
      "inputs": [
        {
          "internalType": "uint256",
          "name": "_nftId",
          "type": "uint256"
        }
      ],
      "name": "getNftOwner",
      "outputs": [
        {
          "internalType": "address",
          "name": "",
          "type": "address"
        }
      ],
      "stateMutability": "view",
      "type": "function",
      "constant": true
    },
    {
      "inputs": [
        {
          "internalType": "address payable",
          "name": "_to",
          "type": "address"
        },
        {
          "internalType": "uint256",
          "name": "_amount",
          "type": "uint256"
        }
      ],
      "name": "sendEther",
      "outputs": [],
      "stateMutability": "payable",
      "type": "function",
      "payable": true
    },
    {
      "inputs": [],
      "name": "getBalance",
      "outputs": [
        {
          "internalType": "uint256",
          "name": "",
          "type": "uint256"
        }
      ],
      "stateMutability": "view",
      "type": "function",
      "constant": true
    },
    {
      "inputs": [
        {
          "internalType": "uint256",
          "name": "_listingId",
          "type": "uint256"
        }
      ],
      "name": "buyNFTWithETH",
      "outputs": [],
      "stateMutability": "payable",
      "type": "function",
      "payable": true
    },
    {
      "inputs": [
        {
          "internalType": "uint256",
          "name": "_listingId",
          "type": "uint256"
        }
      ],
      "name": "buyNFTWithVEXT",
      "outputs": [],
      "stateMutability": "payable",
      "type": "function",
      "payable": true
    },
    {
      "inputs": [],
      "name": "acceptOffer",
      "outputs": [],
      "stateMutability": "nonpayable",
      "type": "function"
    },
    {
      "inputs": [],
      "name": "bidOnAuction",
      "outputs": [],
      "stateMutability": "nonpayable",
      "type": "function"
    },
    {
      "inputs": [
        {
          "internalType": "uint256",
          "name": "_nftId",
          "type": "uint256"
        },
        {
          "internalType": "uint256",
          "name": "_price",
          "type": "uint256"
        },
        {
          "internalType": "uint256",
          "name": "_royalty",
          "type": "uint256"
        },
        {
          "internalType": "bool",
          "name": "_isAuction",
          "type": "bool"
        },
        {
          "internalType": "uint256",
          "name": "_endTime",
          "type": "uint256"
        }
      ],
      "name": "putUpForSale",
      "outputs": [],
      "stateMutability": "payable",
      "type": "function",
      "payable": true
    },
    {
      "inputs": [
        {
          "components": [
            {
              "internalType": "uint256",
              "name": "listingId",
              "type": "uint256"
            },
            {
              "internalType": "uint256",
              "name": "tokenId",
              "type": "uint256"
            },
            {
              "internalType": "address",
              "name": "owner",
              "type": "address"
            },
            {
              "internalType": "uint256",
              "name": "price",
              "type": "uint256"
            },
            {
              "internalType": "bool",
              "name": "purchased",
              "type": "bool"
            },
            {
              "internalType": "uint256",
              "name": "royalty",
              "type": "uint256"
            },
            {
              "internalType": "bool",
              "name": "isAuction",
              "type": "bool"
            },
            {
              "internalType": "uint256",
              "name": "endTime",
              "type": "uint256"
            },
            {
              "internalType": "bool",
              "name": "sold",
              "type": "bool"
            }
          ],
          "internalType": "struct ViridianExchange.Listing",
          "name": "_listing",
          "type": "tuple"
        }
      ],
      "name": "pullFromSale",
      "outputs": [],
      "stateMutability": "nonpayable",
      "type": "function"
    },
    {
      "inputs": [],
      "name": "withdrawNFT",
      "outputs": [],
      "stateMutability": "nonpayable",
      "type": "function"
    }
  ],
  "bytecode": "0x60806040523480156200001157600080fd5b5060405162002af338038062002af3833981810160405281019062000037919062000206565b600062000049620001e760201b60201c565b9050806000806101000a81548173ffffffffffffffffffffffffffffffffffffffff021916908373ffffffffffffffffffffffffffffffffffffffff1602179055508073ffffffffffffffffffffffffffffffffffffffff16600073ffffffffffffffffffffffffffffffffffffffff167f8be0079c531659141344cd1fd0a4f28419497f9722a3daafe3b4186f6b6457e060405160405180910390a350600073ffffffffffffffffffffffffffffffffffffffff168273ffffffffffffffffffffffffffffffffffffffff1614156200012257600080fd5b600073ffffffffffffffffffffffffffffffffffffffff168173ffffffffffffffffffffffffffffffffffffffff1614156200015d57600080fd5b81600960006101000a81548173ffffffffffffffffffffffffffffffffffffffff021916908373ffffffffffffffffffffffffffffffffffffffff16021790555080600760006101000a81548173ffffffffffffffffffffffffffffffffffffffff021916908373ffffffffffffffffffffffffffffffffffffffff1602179055505050620002a0565b600033905090565b600081519050620002008162000286565b92915050565b6000806040838503121562000220576200021f62000281565b5b60006200023085828601620001ef565b92505060206200024385828601620001ef565b9150509250929050565b60006200025a8262000261565b9050919050565b600073ffffffffffffffffffffffffffffffffffffffff82169050919050565b600080fd5b62000291816200024d565b81146200029d57600080fd5b50565b61284380620002b06000396000f3fe6080604052600436106101185760003560e01c80639a701288116100a0578063eb62df6111610064578063eb62df611461034a578063ec186db314610361578063f1b2d6a31461037d578063f2f57e95146103a8578063f2fde38b146103d35761011f565b80639a70128814610293578063a19b56ac146102be578063ac0b27c2146102fb578063c1756a2c14610317578063d27ba725146103335761011f565b8063715018a6116100e7578063715018a6146101c05780638322fff2146101d75780638a8d4c2b146102025780638ad2d5a71461022b5780638da5cb5b146102685761011f565b806312065fe0146101215780632f7cdce31461014c578063365b98b2146101685780635e38c954146101a95761011f565b3661011f57005b005b34801561012d57600080fd5b506101366103fc565b60405161014391906123ab565b60405180910390f35b61016660048036038101906101619190611f3c565b610404565b005b34801561017457600080fd5b5061018f600480360381019061018a9190611ee2565b61072a565b6040516101a095949392919061227e565b60405180910390f35b3480156101b557600080fd5b506101be6109b0565b005b3480156101cc57600080fd5b506101d56109b2565b005b3480156101e357600080fd5b506101ec610aec565b6040516101f9919061222c565b60405180910390f35b34801561020e57600080fd5b5061022960048036038101906102249190611eb4565b610b12565b005b34801561023757600080fd5b50610252600480360381019061024d9190611ee2565b610f90565b60405161025f919061222c565b60405180910390f35b34801561027457600080fd5b5061027d611044565b60405161028a919061222c565b60405180910390f35b34801561029f57600080fd5b506102a861106d565b6040516102b5919061222c565b60405180910390f35b3480156102ca57600080fd5b506102e560048036038101906102e09190611ee2565b611093565b6040516102f2919061238f565b60405180910390f35b61031560048036038101906103109190611ee2565b61119a565b005b610331600480360381019061032c9190611e47565b6114de565b005b34801561033f57600080fd5b50610348611592565b005b34801561035657600080fd5b5061035f611594565b005b61037b60048036038101906103769190611ee2565b611596565b005b34801561038957600080fd5b506103926117a5565b60405161039f91906122ed565b60405180910390f35b3480156103b457600080fd5b506103bd6117fd565b6040516103ca919061222c565b60405180910390f35b3480156103df57600080fd5b506103fa60048036038101906103f59190611ded565b611823565b005b600047905090565b3373ffffffffffffffffffffffffffffffffffffffff1661042486610f90565b73ffffffffffffffffffffffffffffffffffffffff161461044457600080fd5b61044e60016119cc565b600061045a60016119e2565b905060006040518061012001604052808381526020018881526020013373ffffffffffffffffffffffffffffffffffffffff1681526020018781526020016000151581526020018681526020018515158152602001848152602001600015158152509050600360003373ffffffffffffffffffffffffffffffffffffffff1673ffffffffffffffffffffffffffffffffffffffff168152602001908152602001600020819080600181540180825580915050600190039060005260206000209060090201600090919091909150600082015181600001556020820151816001015560408201518160020160006101000a81548173ffffffffffffffffffffffffffffffffffffffff021916908373ffffffffffffffffffffffffffffffffffffffff1602179055506060820151816003015560808201518160040160006101000a81548160ff02191690831515021790555060a0820151816005015560c08201518160060160006101000a81548160ff02191690831515021790555060e082015181600701556101008201518160080160006101000a81548160ff02191690831515021790555050508060046000848152602001908152602001600020600082015181600001556020820151816001015560408201518160020160006101000a81548173ffffffffffffffffffffffffffffffffffffffff021916908373ffffffffffffffffffffffffffffffffffffffff1602179055506060820151816003015560808201518160040160006101000a81548160ff02191690831515021790555060a0820151816005015560c08201518160060160006101000a81548160ff02191690831515021790555060e082015181600701556101008201518160080160006101000a81548160ff02191690831515021790555090505060058160000151908060018154018082558091505060019003906000526020600020016000909190919091505550505050505050565b6006818154811061073a57600080fd5b90600052602060002090600802016000915090508060000160009054906101000a900473ffffffffffffffffffffffffffffffffffffffff16908060010180546107839061250c565b80601f01602080910402602001604051908101604052809291908181526020018280546107af9061250c565b80156107fc5780601f106107d1576101008083540402835291602001916107fc565b820191906000526020600020905b8154815290600101906020018083116107df57829003601f168201915b5050505050908060020180546108119061250c565b80601f016020809104026020016040519081016040528092919081815260200182805461083d9061250c565b801561088a5780601f1061085f5761010080835404028352916020019161088a565b820191906000526020600020905b81548152906001019060200180831161086d57829003601f168201915b50505050509080600301805461089f9061250c565b80601f01602080910402602001604051908101604052809291908181526020018280546108cb9061250c565b80156109185780601f106108ed57610100808354040283529160200191610918565b820191906000526020600020905b8154815290600101906020018083116108fb57829003601f168201915b50505050509080600401805461092d9061250c565b80601f01602080910402602001604051908101604052809291908181526020018280546109599061250c565b80156109a65780601f1061097b576101008083540402835291602001916109a6565b820191906000526020600020905b81548152906001019060200180831161098957829003601f168201915b5050505050905085565b565b6109ba6119f0565b73ffffffffffffffffffffffffffffffffffffffff166109d8611044565b73ffffffffffffffffffffffffffffffffffffffff1614610a2e576040517f08c379a0000000000000000000000000000000000000000000000000000000008152600401610a259061234f565b60405180910390fd5b600073ffffffffffffffffffffffffffffffffffffffff1660008054906101000a900473ffffffffffffffffffffffffffffffffffffffff1673ffffffffffffffffffffffffffffffffffffffff167f8be0079c531659141344cd1fd0a4f28419497f9722a3daafe3b4186f6b6457e060405160405180910390a360008060006101000a81548173ffffffffffffffffffffffffffffffffffffffff021916908373ffffffffffffffffffffffffffffffffffffffff160217905550565b600860009054906101000a900473ffffffffffffffffffffffffffffffffffffffff1681565b3373ffffffffffffffffffffffffffffffffffffffff16816040015173ffffffffffffffffffffffffffffffffffffffff1614610b4e57600080fd5b6000600360003373ffffffffffffffffffffffffffffffffffffffff1673ffffffffffffffffffffffffffffffffffffffff168152602001908152602001600020905060005b8180549050811015610f8b576000828281548110610bb557610bb4612645565b5b90600052602060002090600902016040518061012001604052908160008201548152602001600182015481526020016002820160009054906101000a900473ffffffffffffffffffffffffffffffffffffffff1673ffffffffffffffffffffffffffffffffffffffff1673ffffffffffffffffffffffffffffffffffffffff168152602001600382015481526020016004820160009054906101000a900460ff16151515158152602001600582015481526020016006820160009054906101000a900460ff16151515158152602001600782015481526020016008820160009054906101000a900460ff1615151515815250509050836000015181600001511415610f77578260018480549050610ccc919061244b565b81548110610cdd57610cdc612645565b5b9060005260206000209060090201838381548110610cfe57610cfd612645565b5b906000526020600020906009020160008201548160000155600182015481600101556002820160009054906101000a900473ffffffffffffffffffffffffffffffffffffffff168160020160006101000a81548173ffffffffffffffffffffffffffffffffffffffff021916908373ffffffffffffffffffffffffffffffffffffffff160217905550600382015481600301556004820160009054906101000a900460ff168160040160006101000a81548160ff021916908315150217905550600582015481600501556006820160009054906101000a900460ff168160060160006101000a81548160ff021916908315150217905550600782015481600701556008820160009054906101000a900460ff168160080160006101000a81548160ff02191690831515021790555090505082600360003373ffffffffffffffffffffffffffffffffffffffff1673ffffffffffffffffffffffffffffffffffffffff168152602001908152602001600020908054610e7d9291906119f8565b50600360003373ffffffffffffffffffffffffffffffffffffffff1673ffffffffffffffffffffffffffffffffffffffff168152602001908152602001600020805480610ecd57610ecc612616565b5b600190038181906000526020600020906009020160008082016000905560018201600090556002820160006101000a81549073ffffffffffffffffffffffffffffffffffffffff021916905560038201600090556004820160006101000a81549060ff021916905560058201600090556006820160006101000a81549060ff021916905560078201600090556008820160006101000a81549060ff02191690555050905550610f8b565b508080610f839061256f565b915050610b94565b505050565b6000600760009054906101000a900473ffffffffffffffffffffffffffffffffffffffff1673ffffffffffffffffffffffffffffffffffffffff16636352211e836040518263ffffffff1660e01b8152600401610fed91906123ab565b60206040518083038186803b15801561100557600080fd5b505afa158015611019573d6000803e3d6000fd5b505050506040513d601f19601f8201168201806040525081019061103d9190611e1a565b9050919050565b60008060009054906101000a900473ffffffffffffffffffffffffffffffffffffffff16905090565b600760009054906101000a900473ffffffffffffffffffffffffffffffffffffffff1681565b61109b611b70565b600460008381526020019081526020016000206040518061012001604052908160008201548152602001600182015481526020016002820160009054906101000a900473ffffffffffffffffffffffffffffffffffffffff1673ffffffffffffffffffffffffffffffffffffffff1673ffffffffffffffffffffffffffffffffffffffff168152602001600382015481526020016004820160009054906101000a900460ff16151515158152602001600582015481526020016006820160009054906101000a900460ff16151515158152602001600782015481526020016008820160009054906101000a900460ff1615151515815250509050919050565b6000600460008381526020019081526020016000206040518061012001604052908160008201548152602001600182015481526020016002820160009054906101000a900473ffffffffffffffffffffffffffffffffffffffff1673ffffffffffffffffffffffffffffffffffffffff1673ffffffffffffffffffffffffffffffffffffffff168152602001600382015481526020016004820160009054906101000a900460ff16151515158152602001600582015481526020016006820160009054906101000a900460ff16151515158152602001600782015481526020016008820160009054906101000a900460ff16151515158152505090508060600151600960009054906101000a900473ffffffffffffffffffffffffffffffffffffffff1673ffffffffffffffffffffffffffffffffffffffff166370a08231336040518263ffffffff1660e01b81526004016112f6919061222c565b60206040518083038186803b15801561130e57600080fd5b505afa158015611322573d6000803e3d6000fd5b505050506040513d601f19601f820116820180604052508101906113469190611f0f565b1015611387576040517f08c379a000000000000000000000000000000000000000000000000000000000815260040161137e9061236f565b60405180910390fd5b600960009054906101000a900473ffffffffffffffffffffffffffffffffffffffff1673ffffffffffffffffffffffffffffffffffffffff166323b872dd82604001513384606001516040518463ffffffff1660e01b81526004016113ee93929190612247565b602060405180830381600087803b15801561140857600080fd5b505af115801561141c573d6000803e3d6000fd5b505050506040513d601f19601f820116820180604052508101906114409190611e87565b50600760009054906101000a900473ffffffffffffffffffffffffffffffffffffffff1673ffffffffffffffffffffffffffffffffffffffff166342842e0e82604001513384602001516040518463ffffffff1660e01b81526004016114a893929190612247565b600060405180830381600087803b1580156114c257600080fd5b505af11580156114d6573d6000803e3d6000fd5b505050505050565b6000808373ffffffffffffffffffffffffffffffffffffffff168360405161150590612217565b60006040518083038185875af1925050503d8060008114611542576040519150601f19603f3d011682016040523d82523d6000602084013e611547565b606091505b50915091508161158c576040517f08c379a00000000000000000000000000000000000000000000000000000000081526004016115839061232f565b60405180910390fd5b50505050565b565b565b6000600460008381526020019081526020016000206040518061012001604052908160008201548152602001600182015481526020016002820160009054906101000a900473ffffffffffffffffffffffffffffffffffffffff1673ffffffffffffffffffffffffffffffffffffffff1673ffffffffffffffffffffffffffffffffffffffff168152602001600382015481526020016004820160009054906101000a900460ff16151515158152602001600582015481526020016006820160009054906101000a900460ff16151515158152602001600782015481526020016008820160009054906101000a900460ff161515151581525050905080606001513373ffffffffffffffffffffffffffffffffffffffff163110156116f0576040517f08c379a00000000000000000000000000000000000000000000000000000000081526004016116e79061236f565b60405180910390fd5b6000816040015190506117078183606001516114de565b600760009054906101000a900473ffffffffffffffffffffffffffffffffffffffff1673ffffffffffffffffffffffffffffffffffffffff166342842e0e83604001513385602001516040518463ffffffff1660e01b815260040161176e93929190612247565b600060405180830381600087803b15801561178857600080fd5b505af115801561179c573d6000803e3d6000fd5b50505050505050565b606060058054806020026020016040519081016040528092919081815260200182805480156117f357602002820191906000526020600020905b8154815260200190600101908083116117df575b5050505050905090565b600960009054906101000a900473ffffffffffffffffffffffffffffffffffffffff1681565b61182b6119f0565b73ffffffffffffffffffffffffffffffffffffffff16611849611044565b73ffffffffffffffffffffffffffffffffffffffff161461189f576040517f08c379a00000000000000000000000000000000000000000000000000000000081526004016118969061234f565b60405180910390fd5b600073ffffffffffffffffffffffffffffffffffffffff168173ffffffffffffffffffffffffffffffffffffffff16141561190f576040517f08c379a00000000000000000000000000000000000000000000000000000000081526004016119069061230f565b60405180910390fd5b8073ffffffffffffffffffffffffffffffffffffffff1660008054906101000a900473ffffffffffffffffffffffffffffffffffffffff1673ffffffffffffffffffffffffffffffffffffffff167f8be0079c531659141344cd1fd0a4f28419497f9722a3daafe3b4186f6b6457e060405160405180910390a3806000806101000a81548173ffffffffffffffffffffffffffffffffffffffff021916908373ffffffffffffffffffffffffffffffffffffffff16021790555050565b6001816000016000828254019250508190555050565b600081600001549050919050565b600033905090565b828054828255906000526020600020906009028101928215611b5f5760005260206000209160090282015b82811115611b5e57828260008201548160000155600182015481600101556002820160009054906101000a900473ffffffffffffffffffffffffffffffffffffffff168160020160006101000a81548173ffffffffffffffffffffffffffffffffffffffff021916908373ffffffffffffffffffffffffffffffffffffffff160217905550600382015481600301556004820160009054906101000a900460ff168160040160006101000a81548160ff021916908315150217905550600582015481600501556006820160009054906101000a900460ff168160060160006101000a81548160ff021916908315150217905550600782015481600701556008820160009054906101000a900460ff168160080160006101000a81548160ff021916908315150217905550505091600901919060090190611a23565b5b509050611b6c9190611bd8565b5090565b6040518061012001604052806000815260200160008152602001600073ffffffffffffffffffffffffffffffffffffffff1681526020016000815260200160001515815260200160008152602001600015158152602001600081526020016000151581525090565b5b80821115611c765760008082016000905560018201600090556002820160006101000a81549073ffffffffffffffffffffffffffffffffffffffff021916905560038201600090556004820160006101000a81549060ff021916905560058201600090556006820160006101000a81549060ff021916905560078201600090556008820160006101000a81549060ff021916905550600901611bd9565b5090565b600081359050611c89816127b1565b92915050565b600081519050611c9e816127b1565b92915050565b600081359050611cb3816127c8565b92915050565b600081359050611cc8816127df565b92915050565b600081519050611cdd816127df565b92915050565b60006101208284031215611cfa57611cf96126a3565b5b611d056101206123c6565b90506000611d1584828501611dc3565b6000830152506020611d2984828501611dc3565b6020830152506040611d3d84828501611c7a565b6040830152506060611d5184828501611dc3565b6060830152506080611d6584828501611cb9565b60808301525060a0611d7984828501611dc3565b60a08301525060c0611d8d84828501611cb9565b60c08301525060e0611da184828501611dc3565b60e083015250610100611db684828501611cb9565b6101008301525092915050565b600081359050611dd2816127f6565b92915050565b600081519050611de7816127f6565b92915050565b600060208284031215611e0357611e026126a8565b5b6000611e1184828501611c7a565b91505092915050565b600060208284031215611e3057611e2f6126a8565b5b6000611e3e84828501611c8f565b91505092915050565b60008060408385031215611e5e57611e5d6126a8565b5b6000611e6c85828601611ca4565b9250506020611e7d85828601611dc3565b9150509250929050565b600060208284031215611e9d57611e9c6126a8565b5b6000611eab84828501611cce565b91505092915050565b60006101208284031215611ecb57611eca6126a8565b5b6000611ed984828501611ce3565b91505092915050565b600060208284031215611ef857611ef76126a8565b5b6000611f0684828501611dc3565b91505092915050565b600060208284031215611f2557611f246126a8565b5b6000611f3384828501611dd8565b91505092915050565b600080600080600060a08688031215611f5857611f576126a8565b5b6000611f6688828901611dc3565b9550506020611f7788828901611dc3565b9450506040611f8888828901611dc3565b9350506060611f9988828901611cb9565b9250506080611faa88828901611dc3565b9150509295509295909350565b6000611fc383836121f9565b60208301905092915050565b611fd88161247f565b82525050565b611fe78161247f565b82525050565b6000611ff8826123fb565b612002818561241e565b935061200d836123eb565b8060005b8381101561203e5781516120258882611fb7565b975061203083612411565b925050600181019050612011565b5085935050505092915050565b612054816124a3565b82525050565b600061206582612406565b61206f818561243a565b935061207f8185602086016124d9565b612088816126ad565b840191505092915050565b60006120a060268361243a565b91506120ab826126be565b604082019050919050565b60006120c360148361243a565b91506120ce8261270d565b602082019050919050565b60006120e660208361243a565b91506120f182612736565b602082019050919050565b600061210960008361242f565b91506121148261275f565b600082019050919050565b600061212c60338361243a565b915061213782612762565b604082019050919050565b6101208201600082015161215960008501826121f9565b50602082015161216c60208501826121f9565b50604082015161217f6040850182611fcf565b50606082015161219260608501826121f9565b5060808201516121a5608085018261204b565b5060a08201516121b860a08501826121f9565b5060c08201516121cb60c085018261204b565b5060e08201516121de60e08501826121f9565b506101008201516121f361010085018261204b565b50505050565b612202816124cf565b82525050565b612211816124cf565b82525050565b6000612222826120fc565b9150819050919050565b60006020820190506122416000830184611fde565b92915050565b600060608201905061225c6000830186611fde565b6122696020830185611fde565b6122766040830184612208565b949350505050565b600060a0820190506122936000830188611fde565b81810360208301526122a5818761205a565b905081810360408301526122b9818661205a565b905081810360608301526122cd818561205a565b905081810360808301526122e1818461205a565b90509695505050505050565b600060208201905081810360008301526123078184611fed565b905092915050565b6000602082019050818103600083015261232881612093565b9050919050565b60006020820190508181036000830152612348816120b6565b9050919050565b60006020820190508181036000830152612368816120d9565b9050919050565b600060208201905081810360008301526123888161211f565b9050919050565b6000610120820190506123a56000830184612142565b92915050565b60006020820190506123c06000830184612208565b92915050565b60006123d06123e1565b90506123dc828261253e565b919050565b6000604051905090565b6000819050602082019050919050565b600081519050919050565b600081519050919050565b6000602082019050919050565b600082825260208201905092915050565b600081905092915050565b600082825260208201905092915050565b6000612456826124cf565b9150612461836124cf565b925082821015612474576124736125b8565b5b828203905092915050565b600061248a826124af565b9050919050565b600061249c826124af565b9050919050565b60008115159050919050565b600073ffffffffffffffffffffffffffffffffffffffff82169050919050565b6000819050919050565b60005b838110156124f75780820151818401526020810190506124dc565b83811115612506576000848401525b50505050565b6000600282049050600182168061252457607f821691505b60208210811415612538576125376125e7565b5b50919050565b612547826126ad565b810181811067ffffffffffffffff8211171561256657612565612674565b5b80604052505050565b600061257a826124cf565b91507fffffffffffffffffffffffffffffffffffffffffffffffffffffffffffffffff8214156125ad576125ac6125b8565b5b600182019050919050565b7f4e487b7100000000000000000000000000000000000000000000000000000000600052601160045260246000fd5b7f4e487b7100000000000000000000000000000000000000000000000000000000600052602260045260246000fd5b7f4e487b7100000000000000000000000000000000000000000000000000000000600052603160045260246000fd5b7f4e487b7100000000000000000000000000000000000000000000000000000000600052603260045260246000fd5b7f4e487b7100000000000000000000000000000000000000000000000000000000600052604160045260246000fd5b600080fd5b600080fd5b6000601f19601f8301169050919050565b7f4f776e61626c653a206e6577206f776e657220697320746865207a65726f206160008201527f6464726573730000000000000000000000000000000000000000000000000000602082015250565b7f4661696c656420746f2073656e64204574686572000000000000000000000000600082015250565b7f4f776e61626c653a2063616c6c6572206973206e6f7420746865206f776e6572600082015250565b50565b7f566972696469616e45786368616e67653a205573657220646f6573206e6f742060008201527f6861766520656e6f7567682062616c616e636500000000000000000000000000602082015250565b6127ba8161247f565b81146127c557600080fd5b50565b6127d181612491565b81146127dc57600080fd5b50565b6127e8816124a3565b81146127f357600080fd5b50565b6127ff816124cf565b811461280a57600080fd5b5056fea264697066735822122024f54b41ca43b62d1acbc3c3a93c04e7e0519fda5f134c5a6ff1656f68a35d3964736f6c63430008060033",
  "immutableReferences": {},
  "source": "pragma solidity ^0.8.0;\n\nimport \"@openzeppelin/contracts/access/Ownable.sol\";\nimport \"@openzeppelin/contracts/token/ERC721/ERC721.sol\";\nimport \"@openzeppelin/contracts/token/ERC20/IERC20.sol\";\nimport \"@openzeppelin/contracts/token/ERC20/ERC20.sol\";\nimport \"@openzeppelin/contracts/token/ERC721/IERC721.sol\";\n\nimport \"./ViridianNFT.sol\";\n\ncontract ViridianExchange is Ownable {\n\n    struct User {\n        address wallet;\n        string displayName;\n        string coverPhotoURL;\n        string profilePhotoURL;\n        string bio;\n        User[] following;\n        User[] followers;\n        uint256[] likes;\n    }\n\n    struct Trade {\n        uint256[] nftIds;\n        uint vextAmt;\n        address _to;\n        address _from;\n        bool pending;\n    }\n\n    using Counters for Counters.Counter;\n    Counters.Counter private _listingIds;\n\n    //address vNFTContract = \n    \n    struct Listing {\n        uint256 listingId;\n        uint256 tokenId;\n        address owner;\n        uint256 price;\n        bool purchased;\n        uint256 royalty;\n        bool isAuction;\n        uint256 endTime;\n        bool sold;\n    }\n\n    struct Collection {\n        string description;\n        uint256[] collectionNFTs;\n    }\n\n    //string[] public nftIds;\n    mapping (address => Collection) displayCases;\n    mapping (address => Listing[]) userListings;\n    mapping (uint256 => Listing) listings;\n    uint256[] private listingIds;\n    User[] public users;\n\n    address public viridianNFT;\n    address public ETH;\n    address public viridianToken;\n\n    constructor( address _viridianToken, address _viridianNFT) {\n        require(address(_viridianToken) != address(0)); \n        //require(address(_ETH) != address(0));\n        require(address(_viridianNFT) != address(0));\n\n        viridianToken = _viridianToken;\n        //address _ETH, ETH = _ETH;\n        viridianNFT = _viridianNFT;\n    }\n\n    function getListings() public view returns (uint256[] memory) {\n        return listingIds;\n    }\n\n    function getListingFromId(uint256 _listingId) public view returns (Listing memory) {\n        return listings[_listingId];\n    }\n\n    function getNftOwner(uint256 _nftId) public view returns (address) {\n        return IERC721(viridianNFT).ownerOf(_nftId);\n    }\n\n    function sendEther(address payable _to, uint256 _amount) public payable {\n        // Call returns a boolean value indicating success or failure.\n        // This is the current recommended method to use.\n        (bool sent, bytes memory data) = _to.call{value: _amount}(\"\");\n        require(sent, \"Failed to send Ether\");\n    }\n\n    receive() external payable {}\n\n    // Fallback function is called when msg.data is not empty\n    fallback() external payable {}\n\n    function getBalance() public view returns (uint) {\n        return address(this).balance;\n    }\n\n    function buyNFTWithETH(uint256 _listingId) public payable {\n        Listing memory curListing = listings[_listingId];\n\n        require(msg.sender.balance >= curListing.price, 'ViridianExchange: User does not have enough balance');\n        address payable ownerWallet = payable(curListing.owner);\n        sendEther(ownerWallet, curListing.price);\n        \n        IERC721(viridianNFT).safeTransferFrom(curListing.owner, msg.sender, curListing.tokenId);\n    }\n\n    function buyNFTWithVEXT(uint256 _listingId) public payable {\n        Listing memory curListing = listings[_listingId];\n\n        require(IERC20(viridianToken).balanceOf(msg.sender) >= curListing.price, 'ViridianExchange: User does not have enough balance');\n        \n        IERC20(viridianToken).transferFrom(curListing.owner, msg.sender, curListing.price);\n        IERC721(viridianNFT).safeTransferFrom(curListing.owner, msg.sender, curListing.tokenId);\n    }\n\n    function acceptOffer() public {\n        \n    }\n\n    function bidOnAuction() public {\n\n    }\n\n    function putUpForSale(uint256 _nftId, uint256 _price, uint256 _royalty, bool _isAuction, uint256 _endTime) public payable {\n        require(getNftOwner(_nftId) == msg.sender);\n\n        _listingIds.increment();\n        uint256 _listingId = _listingIds.current();\n        Listing memory saleListing = Listing(_listingId, _nftId, msg.sender, _price, false, _royalty, _isAuction, _endTime, false);\n        userListings[msg.sender].push(saleListing);\n        listings[_listingId] = saleListing;\n        listingIds.push(saleListing.listingId);\n    }\n\n    function pullFromSale(Listing memory _listing) public {\n        require(_listing.owner == msg.sender);\n        Listing[] storage curUserListings = userListings[msg.sender];\n        for (uint i = 0; i < curUserListings.length; i++) {\n            Listing memory listing = curUserListings[i];\n            if (listing.listingId == _listing.listingId) {\n                curUserListings[i] = curUserListings[curUserListings.length - 1];\n                userListings[msg.sender] = curUserListings;\n                userListings[msg.sender].pop();\n                break;\n            }\n        }\n    }\n\n    function withdrawNFT() public {\n        //Burn NFT\n        //Send message to prompt front-end email sending\n    }\n}",
  "sourcePath": "/Users/blakehatch/Viridian-Exchange-Contracts/contracts/ViridianExchange.sol",
  "compiler": {
    "name": "solc",
    "version": "0.8.6+commit.11564f7e.Emscripten.clang"
  },
  "schemaVersion": "3.4.1",
  "updatedAt": "2021-07-21T05:28:38.995Z",
  "networkType": "ethereum",
  "devdoc": {
    "kind": "dev",
    "methods": {
      "owner()": {
        "details": "Returns the address of the current owner."
      },
      "renounceOwnership()": {
        "details": "Leaves the contract without owner. It will not be possible to call `onlyOwner` functions anymore. Can only be called by the current owner. NOTE: Renouncing ownership will leave the contract without an owner, thereby removing any functionality that is only available to the owner."
      },
      "transferOwnership(address)": {
        "details": "Transfers ownership of the contract to a new account (`newOwner`). Can only be called by the current owner."
      }
    },
    "version": 1
  },
  "userdoc": {
    "kind": "user",
    "methods": {},
    "version": 1
  }
}