{
  "contractName": "ViridianNFT",
  "abi": [
    {
      "inputs": [],
      "stateMutability": "nonpayable",
      "type": "constructor"
    },
    {
      "anonymous": false,
      "inputs": [
        {
          "indexed": true,
          "internalType": "address",
          "name": "owner",
          "type": "address"
        },
        {
          "indexed": true,
          "internalType": "address",
          "name": "approved",
          "type": "address"
        },
        {
          "indexed": true,
          "internalType": "uint256",
          "name": "tokenId",
          "type": "uint256"
        }
      ],
      "name": "Approval",
      "type": "event"
    },
    {
      "anonymous": false,
      "inputs": [
        {
          "indexed": true,
          "internalType": "address",
          "name": "owner",
          "type": "address"
        },
        {
          "indexed": true,
          "internalType": "address",
          "name": "operator",
          "type": "address"
        },
        {
          "indexed": false,
          "internalType": "bool",
          "name": "approved",
          "type": "bool"
        }
      ],
      "name": "ApprovalForAll",
      "type": "event"
    },
    {
      "anonymous": false,
      "inputs": [
        {
          "indexed": true,
          "internalType": "address",
          "name": "previousOwner",
          "type": "address"
        },
        {
          "indexed": true,
          "internalType": "address",
          "name": "newOwner",
          "type": "address"
        }
      ],
      "name": "OwnershipTransferred",
      "type": "event"
    },
    {
      "anonymous": false,
      "inputs": [
        {
          "indexed": true,
          "internalType": "address",
          "name": "from",
          "type": "address"
        },
        {
          "indexed": true,
          "internalType": "address",
          "name": "to",
          "type": "address"
        },
        {
          "indexed": true,
          "internalType": "uint256",
          "name": "tokenId",
          "type": "uint256"
        }
      ],
      "name": "Transfer",
      "type": "event"
    },
    {
      "inputs": [
        {
          "internalType": "address",
          "name": "to",
          "type": "address"
        },
        {
          "internalType": "uint256",
          "name": "tokenId",
          "type": "uint256"
        }
      ],
      "name": "approve",
      "outputs": [],
      "stateMutability": "nonpayable",
      "type": "function"
    },
    {
      "inputs": [
        {
          "internalType": "address",
          "name": "owner",
          "type": "address"
        }
      ],
      "name": "balanceOf",
      "outputs": [
        {
          "internalType": "uint256",
          "name": "",
          "type": "uint256"
        }
      ],
      "stateMutability": "view",
      "type": "function",
      "constant": true
    },
    {
      "inputs": [
        {
          "internalType": "uint256",
          "name": "tokenId",
          "type": "uint256"
        }
      ],
      "name": "getApproved",
      "outputs": [
        {
          "internalType": "address",
          "name": "",
          "type": "address"
        }
      ],
      "stateMutability": "view",
      "type": "function",
      "constant": true
    },
    {
      "inputs": [
        {
          "internalType": "address",
          "name": "owner",
          "type": "address"
        },
        {
          "internalType": "address",
          "name": "operator",
          "type": "address"
        }
      ],
      "name": "isApprovedForAll",
      "outputs": [
        {
          "internalType": "bool",
          "name": "",
          "type": "bool"
        }
      ],
      "stateMutability": "view",
      "type": "function",
      "constant": true
    },
    {
      "inputs": [],
      "name": "name",
      "outputs": [
        {
          "internalType": "string",
          "name": "",
          "type": "string"
        }
      ],
      "stateMutability": "view",
      "type": "function",
      "constant": true
    },
    {
      "inputs": [],
      "name": "owner",
      "outputs": [
        {
          "internalType": "address",
          "name": "",
          "type": "address"
        }
      ],
      "stateMutability": "view",
      "type": "function",
      "constant": true
    },
    {
      "inputs": [
        {
          "internalType": "uint256",
          "name": "tokenId",
          "type": "uint256"
        }
      ],
      "name": "ownerOf",
      "outputs": [
        {
          "internalType": "address",
          "name": "",
          "type": "address"
        }
      ],
      "stateMutability": "view",
      "type": "function",
      "constant": true
    },
    {
      "inputs": [],
      "name": "renounceOwnership",
      "outputs": [],
      "stateMutability": "nonpayable",
      "type": "function"
    },
    {
      "inputs": [
        {
          "internalType": "address",
          "name": "operator",
          "type": "address"
        },
        {
          "internalType": "bool",
          "name": "approved",
          "type": "bool"
        }
      ],
      "name": "setApprovalForAll",
      "outputs": [],
      "stateMutability": "nonpayable",
      "type": "function"
    },
    {
      "inputs": [
        {
          "internalType": "bytes4",
          "name": "interfaceId",
          "type": "bytes4"
        }
      ],
      "name": "supportsInterface",
      "outputs": [
        {
          "internalType": "bool",
          "name": "",
          "type": "bool"
        }
      ],
      "stateMutability": "view",
      "type": "function",
      "constant": true
    },
    {
      "inputs": [],
      "name": "symbol",
      "outputs": [
        {
          "internalType": "string",
          "name": "",
          "type": "string"
        }
      ],
      "stateMutability": "view",
      "type": "function",
      "constant": true
    },
    {
      "inputs": [
        {
          "internalType": "address",
          "name": "newOwner",
          "type": "address"
        }
      ],
      "name": "transferOwnership",
      "outputs": [],
      "stateMutability": "nonpayable",
      "type": "function"
    },
    {
      "inputs": [
        {
          "internalType": "address",
          "name": "_newAdmin",
          "type": "address"
        }
      ],
      "name": "addAdmin",
      "outputs": [],
      "stateMutability": "nonpayable",
      "type": "function"
    },
    {
      "inputs": [
        {
          "internalType": "address",
          "name": "_newAdmin",
          "type": "address"
        }
      ],
      "name": "removeAdmin",
      "outputs": [],
      "stateMutability": "nonpayable",
      "type": "function"
    },
    {
      "inputs": [
        {
          "internalType": "string",
          "name": "baseURI_",
          "type": "string"
        }
      ],
      "name": "setBaseURI",
      "outputs": [],
      "stateMutability": "nonpayable",
      "type": "function"
    },
    {
      "inputs": [
        {
          "internalType": "uint256",
          "name": "tokenId",
          "type": "uint256"
        },
        {
          "internalType": "string",
          "name": "_tokenURI",
          "type": "string"
        }
      ],
      "name": "_setTokenURI",
      "outputs": [],
      "stateMutability": "nonpayable",
      "type": "function"
    },
    {
      "inputs": [
        {
          "internalType": "uint256",
          "name": "tokenId",
          "type": "uint256"
        }
      ],
      "name": "tokenURI",
      "outputs": [
        {
          "internalType": "string",
          "name": "",
          "type": "string"
        }
      ],
      "stateMutability": "view",
      "type": "function",
      "constant": true
    },
    {
      "inputs": [],
      "name": "getNumNFTs",
      "outputs": [
        {
          "internalType": "uint256",
          "name": "n",
          "type": "uint256"
        }
      ],
      "stateMutability": "view",
      "type": "function",
      "constant": true
    },
    {
      "inputs": [],
      "name": "getNumOwnedNFTs",
      "outputs": [
        {
          "internalType": "uint256",
          "name": "",
          "type": "uint256"
        }
      ],
      "stateMutability": "view",
      "type": "function",
      "constant": true
    },
    {
      "inputs": [],
      "name": "getOwnedNFTs",
      "outputs": [
        {
          "internalType": "uint256[]",
          "name": "",
          "type": "uint256[]"
        }
      ],
      "stateMutability": "view",
      "type": "function",
      "constant": true
    },
    {
      "inputs": [
        {
          "internalType": "address",
          "name": "_to",
          "type": "address"
        },
        {
          "internalType": "string",
          "name": "tokenURI_",
          "type": "string"
        }
      ],
      "name": "mint",
      "outputs": [],
      "stateMutability": "nonpayable",
      "type": "function"
    },
    {
      "inputs": [
        {
          "internalType": "uint256",
          "name": "tokenId",
          "type": "uint256"
        }
      ],
      "name": "isListed",
      "outputs": [
        {
          "internalType": "bool",
          "name": "",
          "type": "bool"
        }
      ],
      "stateMutability": "view",
      "type": "function",
      "constant": true
    },
    {
      "inputs": [
        {
          "internalType": "uint256",
          "name": "tokenId",
          "type": "uint256"
        }
      ],
      "name": "burn",
      "outputs": [],
      "stateMutability": "nonpayable",
      "type": "function"
    },
    {
      "inputs": [
        {
          "internalType": "address",
          "name": "recipient",
          "type": "address"
        },
        {
          "internalType": "string",
          "name": "hash",
          "type": "string"
        },
        {
          "internalType": "string",
          "name": "metadata",
          "type": "string"
        }
      ],
      "name": "awardItem",
      "outputs": [
        {
          "internalType": "uint256",
          "name": "",
          "type": "uint256"
        }
      ],
      "stateMutability": "nonpayable",
      "type": "function"
    },
    {
      "inputs": [
        {
          "internalType": "address",
          "name": "from",
          "type": "address"
        },
        {
          "internalType": "address",
          "name": "to",
          "type": "address"
        },
        {
          "internalType": "uint256",
          "name": "tokenId",
          "type": "uint256"
        }
      ],
      "name": "safeTransferFrom",
      "outputs": [],
      "stateMutability": "nonpayable",
      "type": "function"
    },
    {
      "inputs": [
        {
          "internalType": "address",
          "name": "from",
          "type": "address"
        },
        {
          "internalType": "address",
          "name": "to",
          "type": "address"
        },
        {
          "internalType": "uint256",
          "name": "tokenId",
          "type": "uint256"
        },
        {
          "internalType": "bytes",
          "name": "_data",
          "type": "bytes"
        }
      ],
      "name": "safeTransferFrom",
      "outputs": [],
      "stateMutability": "nonpayable",
      "type": "function"
    },
    {
      "inputs": [
        {
          "internalType": "address",
          "name": "from",
          "type": "address"
        },
        {
          "internalType": "address",
          "name": "to",
          "type": "address"
        },
        {
          "internalType": "uint256",
          "name": "tokenId",
          "type": "uint256"
        }
      ],
      "name": "transferFrom",
      "outputs": [],
      "stateMutability": "nonpayable",
      "type": "function"
    },
    {
      "inputs": [
        {
          "internalType": "uint256",
          "name": "_tokenId",
          "type": "uint256"
        }
      ],
      "name": "listToken",
      "outputs": [],
      "stateMutability": "nonpayable",
      "type": "function"
    },
    {
      "inputs": [
        {
          "internalType": "uint256",
          "name": "_tokenId",
          "type": "uint256"
        }
      ],
      "name": "unlistToken",
      "outputs": [],
      "stateMutability": "nonpayable",
      "type": "function"
    }
  ],
  "bytecode": "0x60806040523480156200001157600080fd5b506040518060400160405280600c81526020017f566972696469616e204e465400000000000000000000000000000000000000008152506040518060400160405280600481526020017f564e465400000000000000000000000000000000000000000000000000000000815250816000908051906020019062000096929190620001fe565b508060019080519060200190620000af929190620001fe565b505050620000d2620000c66200013060201b60201c565b6200013860201b60201c565b6001600960003373ffffffffffffffffffffffffffffffffffffffff1673ffffffffffffffffffffffffffffffffffffffff16815260200190815260200160002060006101000a81548160ff02191690831515021790555062000313565b600033905090565b6000600660009054906101000a900473ffffffffffffffffffffffffffffffffffffffff16905081600660006101000a81548173ffffffffffffffffffffffffffffffffffffffff021916908373ffffffffffffffffffffffffffffffffffffffff1602179055508173ffffffffffffffffffffffffffffffffffffffff168173ffffffffffffffffffffffffffffffffffffffff167f8be0079c531659141344cd1fd0a4f28419497f9722a3daafe3b4186f6b6457e060405160405180910390a35050565b8280546200020c90620002dd565b90600052602060002090601f0160209004810192826200023057600085556200027c565b82601f106200024b57805160ff19168380011785556200027c565b828001600101855582156200027c579182015b828111156200027b5782518255916020019190600101906200025e565b5b5090506200028b91906200028f565b5090565b5b80821115620002aa57600081600090555060010162000290565b5090565b7f4e487b7100000000000000000000000000000000000000000000000000000000600052602260045260246000fd5b60006002820490506001821680620002f657607f821691505b602082108114156200030d576200030c620002ae565b5b50919050565b613c0580620003236000396000f3fe608060405234801561001057600080fd5b50600436106101cf5760003560e01c8063715018a611610104578063bb92c248116100a2578063e6148d5f11610071578063e6148d5f14610502578063e985e9c51461051e578063f2fde38b1461054e578063fcce48831461056a576101cf565b8063bb92c2481461047a578063bda4e79714610498578063c87b56dd146104b6578063d0def521146104e6576101cf565b806395d89b41116100de57806395d89b4114610408578063a22cb46514610426578063ad3a358c14610442578063b88d4fde1461045e576101cf565b8063715018a6146103b05780638bfaf101146103ba5780638da5cb5b146103ea576101cf565b806342842e0e1161017157806355f804b31161014b57806355f804b3146103185780636352211e14610334578063704802751461036457806370a0823114610380576101cf565b806342842e0e146102c257806342966c68146102de5780634c0eb7d9146102fa576101cf565b8063081812fc116101ad578063081812fc1461023e578063095ea7b31461026e5780631785f53c1461028a57806323b872dd146102a6576101cf565b806301538868146101d457806301ffc9a7146101f057806306fdde0314610220575b600080fd5b6101ee60048036038101906101e99190612766565b61059a565b005b61020a6004803603810190610205919061281a565b61066b565b6040516102179190612862565b60405180910390f35b61022861074d565b6040516102359190612905565b60405180910390f35b61025860048036038101906102539190612927565b6107df565b6040516102659190612995565b60405180910390f35b610288600480360381019061028391906129dc565b610864565b005b6102a4600480360381019061029f9190612a1c565b61097c565b005b6102c060048036038101906102bb9190612a49565b610a34565b005b6102dc60048036038101906102d79190612a49565b610aa5565b005b6102f860048036038101906102f39190612927565b610b16565b005b610302610b35565b60405161030f9190612b5a565b60405180910390f35b610332600480360381019061032d9190612b7c565b610c39565b005b61034e60048036038101906103499190612927565b610cb0565b60405161035b9190612995565b60405180910390f35b61037e60048036038101906103799190612a1c565b610d62565b005b61039a60048036038101906103959190612a1c565b610e1a565b6040516103a79190612bd4565b60405180910390f35b6103b8610ed2565b005b6103d460048036038101906103cf9190612bef565b610f5a565b6040516103e19190612bd4565b60405180910390f35b6103f2611007565b6040516103ff9190612995565b60405180910390f35b610410611031565b60405161041d9190612905565b60405180910390f35b610440600480360381019061043b9190612ca6565b6110c3565b005b61045c60048036038101906104579190612927565b611244565b005b61047860048036038101906104739190612d87565b611286565b005b6104826112e8565b60405161048f9190612bd4565b60405180910390f35b6104a061137b565b6040516104ad9190612bd4565b60405180910390f35b6104d060048036038101906104cb9190612927565b61138c565b6040516104dd9190612905565b60405180910390f35b61050060048036038101906104fb9190612e0a565b6114ff565b005b61051c60048036038101906105179190612927565b6115b9565b005b61053860048036038101906105339190612e66565b6115fb565b6040516105459190612862565b60405180910390f35b61056860048036038101906105639190612a1c565b61168f565b005b610584600480360381019061057f9190612927565b611787565b6040516105919190612862565b60405180910390f35b60011515600960003373ffffffffffffffffffffffffffffffffffffffff1673ffffffffffffffffffffffffffffffffffffffff16815260200190815260200160002060009054906101000a900460ff161515146105f757600080fd5b610600826117b1565b61063f576040517f08c379a000000000000000000000000000000000000000000000000000000000815260040161063690612f18565b60405180910390fd5b80600a60008481526020019081526020016000209080519060200190610666929190612533565b505050565b60007f80ac58cd000000000000000000000000000000000000000000000000000000007bffffffffffffffffffffffffffffffffffffffffffffffffffffffff1916827bffffffffffffffffffffffffffffffffffffffffffffffffffffffff1916148061073657507f5b5e139f000000000000000000000000000000000000000000000000000000007bffffffffffffffffffffffffffffffffffffffffffffffffffffffff1916827bffffffffffffffffffffffffffffffffffffffffffffffffffffffff1916145b8061074657506107458261181d565b5b9050919050565b60606000805461075c90612f67565b80601f016020809104026020016040519081016040528092919081815260200182805461078890612f67565b80156107d55780601f106107aa576101008083540402835291602001916107d5565b820191906000526020600020905b8154815290600101906020018083116107b857829003601f168201915b5050505050905090565b60006107ea826117b1565b610829576040517f08c379a00000000000000000000000000000000000000000000000000000000081526004016108209061300b565b60405180910390fd5b6004600083815260200190815260200160002060009054906101000a900473ffffffffffffffffffffffffffffffffffffffff169050919050565b600061086f82610cb0565b90508073ffffffffffffffffffffffffffffffffffffffff168373ffffffffffffffffffffffffffffffffffffffff1614156108e0576040517f08c379a00000000000000000000000000000000000000000000000000000000081526004016108d79061309d565b60405180910390fd5b8073ffffffffffffffffffffffffffffffffffffffff166108ff611887565b73ffffffffffffffffffffffffffffffffffffffff16148061092e575061092d81610928611887565b6115fb565b5b61096d576040517f08c379a00000000000000000000000000000000000000000000000000000000081526004016109649061312f565b60405180910390fd5b610977838361188f565b505050565b60011515600960003373ffffffffffffffffffffffffffffffffffffffff1673ffffffffffffffffffffffffffffffffffffffff16815260200190815260200160002060009054906101000a900460ff161515146109d957600080fd5b6000600960008373ffffffffffffffffffffffffffffffffffffffff1673ffffffffffffffffffffffffffffffffffffffff16815260200190815260200160002060006101000a81548160ff02191690831515021790555050565b600b600082815260200190815260200160002060009054906101000a900460ff1615610a95576040517f08c379a0000000000000000000000000000000000000000000000000000000008152600401610a8c906131c1565b60405180910390fd5b610aa0838383611948565b505050565b600b600082815260200190815260200160002060009054906101000a900460ff1615610b06576040517f08c379a0000000000000000000000000000000000000000000000000000000008152600401610afd906131c1565b60405180910390fd5b610b118383836119a8565b505050565b610b2033826119c8565b610b2957600080fd5b610b3281611aa6565b50565b60606000610b416112e8565b67ffffffffffffffff811115610b5a57610b5961263b565b5b604051908082528060200260200182016040528015610b885781602001602082028036833780820191505090505b509050600080600190505b610b9d6007611bb7565b8111610c3057610bac816117b1565b15610c1d573373ffffffffffffffffffffffffffffffffffffffff16610bd182610cb0565b73ffffffffffffffffffffffffffffffffffffffff161415610c1c5780838381518110610c0157610c006131e1565b5b6020026020010181815250508180610c189061323f565b9250505b5b8080610c289061323f565b915050610b93565b50819250505090565b60011515600960003373ffffffffffffffffffffffffffffffffffffffff1673ffffffffffffffffffffffffffffffffffffffff16815260200190815260200160002060009054906101000a900460ff16151514610c9657600080fd5b80600c9080519060200190610cac929190612533565b5050565b6000806002600084815260200190815260200160002060009054906101000a900473ffffffffffffffffffffffffffffffffffffffff169050600073ffffffffffffffffffffffffffffffffffffffff168173ffffffffffffffffffffffffffffffffffffffff161415610d59576040517f08c379a0000000000000000000000000000000000000000000000000000000008152600401610d50906132fa565b60405180910390fd5b80915050919050565b60011515600960003373ffffffffffffffffffffffffffffffffffffffff1673ffffffffffffffffffffffffffffffffffffffff16815260200190815260200160002060009054906101000a900460ff16151514610dbf57600080fd5b6001600960008373ffffffffffffffffffffffffffffffffffffffff1673ffffffffffffffffffffffffffffffffffffffff16815260200190815260200160002060006101000a81548160ff02191690831515021790555050565b60008073ffffffffffffffffffffffffffffffffffffffff168273ffffffffffffffffffffffffffffffffffffffff161415610e8b576040517f08c379a0000000000000000000000000000000000000000000000000000000008152600401610e829061338c565b60405180910390fd5b600360008373ffffffffffffffffffffffffffffffffffffffff1673ffffffffffffffffffffffffffffffffffffffff168152602001908152602001600020549050919050565b610eda611887565b73ffffffffffffffffffffffffffffffffffffffff16610ef8611007565b73ffffffffffffffffffffffffffffffffffffffff1614610f4e576040517f08c379a0000000000000000000000000000000000000000000000000000000008152600401610f45906133f8565b60405180910390fd5b610f586000611bc5565b565b60006001600884604051610f6e9190613454565b908152602001604051809103902060009054906101000a900460ff1660ff161415610f9857600080fd5b6001600884604051610faa9190613454565b908152602001604051809103902060006101000a81548160ff021916908360ff160217905550610fda6007611c8b565b6000610fe66007611bb7565b9050610ff28582611ca1565b610ffc818461059a565b809150509392505050565b6000600660009054906101000a900473ffffffffffffffffffffffffffffffffffffffff16905090565b60606001805461104090612f67565b80601f016020809104026020016040519081016040528092919081815260200182805461106c90612f67565b80156110b95780601f1061108e576101008083540402835291602001916110b9565b820191906000526020600020905b81548152906001019060200180831161109c57829003601f168201915b5050505050905090565b6110cb611887565b73ffffffffffffffffffffffffffffffffffffffff168273ffffffffffffffffffffffffffffffffffffffff161415611139576040517f08c379a0000000000000000000000000000000000000000000000000000000008152600401611130906134b7565b60405180910390fd5b8060056000611146611887565b73ffffffffffffffffffffffffffffffffffffffff1673ffffffffffffffffffffffffffffffffffffffff16815260200190815260200160002060008473ffffffffffffffffffffffffffffffffffffffff1673ffffffffffffffffffffffffffffffffffffffff16815260200190815260200160002060006101000a81548160ff0219169083151502179055508173ffffffffffffffffffffffffffffffffffffffff166111f3611887565b73ffffffffffffffffffffffffffffffffffffffff167f17307eab39ab6107e8899845ad3d59bd9653f200f220920489ca2b5937696c31836040516112389190612862565b60405180910390a35050565b61124e33826119c8565b61125757600080fd5b6000600b600083815260200190815260200160002060006101000a81548160ff02191690831515021790555050565b611297611291611887565b836119c8565b6112d6576040517f08c379a00000000000000000000000000000000000000000000000000000000081526004016112cd90613549565b60405180910390fd5b6112e284848484611e6f565b50505050565b600080600090506000600190505b6113006007611bb7565b81116113735761130f816117b1565b15611360573373ffffffffffffffffffffffffffffffffffffffff1661133482610cb0565b73ffffffffffffffffffffffffffffffffffffffff16141561135f57818061135b9061323f565b9250505b5b808061136b9061323f565b9150506112f6565b508091505090565b60006113876007611bb7565b905090565b6060611397826117b1565b6113d6576040517f08c379a00000000000000000000000000000000000000000000000000000000081526004016113cd906135db565b60405180910390fd5b6000600a600084815260200190815260200160002080546113f690612f67565b80601f016020809104026020016040519081016040528092919081815260200182805461142290612f67565b801561146f5780601f106114445761010080835404028352916020019161146f565b820191906000526020600020905b81548152906001019060200180831161145257829003601f168201915b505050505090506000611480611ecb565b90506000815114156114965781925050506114fa565b6000825111156114cb5780826040516020016114b39291906135fb565b604051602081830303815290604052925050506114fa565b806114d585611f5d565b6040516020016114e69291906135fb565b604051602081830303815290604052925050505b919050565b60011515600960003373ffffffffffffffffffffffffffffffffffffffff1673ffffffffffffffffffffffffffffffffffffffff16815260200190815260200160002060009054906101000a900460ff1615151461155c57600080fd5b6115666007611c8b565b60006115726007611bb7565b905061157e83826120be565b6000600b600083815260200190815260200160002060006101000a81548160ff0219169083151502179055506115b4818361059a565b505050565b6115c333826119c8565b6115cc57600080fd5b6001600b600083815260200190815260200160002060006101000a81548160ff02191690831515021790555050565b6000600560008473ffffffffffffffffffffffffffffffffffffffff1673ffffffffffffffffffffffffffffffffffffffff16815260200190815260200160002060008373ffffffffffffffffffffffffffffffffffffffff1673ffffffffffffffffffffffffffffffffffffffff16815260200190815260200160002060009054906101000a900460ff16905092915050565b611697611887565b73ffffffffffffffffffffffffffffffffffffffff166116b5611007565b73ffffffffffffffffffffffffffffffffffffffff161461170b576040517f08c379a0000000000000000000000000000000000000000000000000000000008152600401611702906133f8565b60405180910390fd5b600073ffffffffffffffffffffffffffffffffffffffff168173ffffffffffffffffffffffffffffffffffffffff16141561177b576040517f08c379a000000000000000000000000000000000000000000000000000000000815260040161177290613691565b60405180910390fd5b61178481611bc5565b50565b6000600b600083815260200190815260200160002060009054906101000a900460ff169050919050565b60008073ffffffffffffffffffffffffffffffffffffffff166002600084815260200190815260200160002060009054906101000a900473ffffffffffffffffffffffffffffffffffffffff1673ffffffffffffffffffffffffffffffffffffffff1614159050919050565b60007f01ffc9a7000000000000000000000000000000000000000000000000000000007bffffffffffffffffffffffffffffffffffffffffffffffffffffffff1916827bffffffffffffffffffffffffffffffffffffffffffffffffffffffff1916149050919050565b600033905090565b816004600083815260200190815260200160002060006101000a81548173ffffffffffffffffffffffffffffffffffffffff021916908373ffffffffffffffffffffffffffffffffffffffff160217905550808273ffffffffffffffffffffffffffffffffffffffff1661190283610cb0565b73ffffffffffffffffffffffffffffffffffffffff167f8c5be1e5ebec7d5bd14f71427d1e84f3dd0314c0f7b2291e5b200ac8c7c3b92560405160405180910390a45050565b611959611953611887565b826119c8565b611998576040517f08c379a000000000000000000000000000000000000000000000000000000000815260040161198f90613549565b60405180910390fd5b6119a38383836120dc565b505050565b6119c383838360405180602001604052806000815250611286565b505050565b60006119d3826117b1565b611a12576040517f08c379a0000000000000000000000000000000000000000000000000000000008152600401611a0990613723565b60405180910390fd5b6000611a1d83610cb0565b90508073ffffffffffffffffffffffffffffffffffffffff168473ffffffffffffffffffffffffffffffffffffffff161480611a8c57508373ffffffffffffffffffffffffffffffffffffffff16611a74846107df565b73ffffffffffffffffffffffffffffffffffffffff16145b80611a9d5750611a9c81856115fb565b5b91505092915050565b6000611ab182610cb0565b9050611abf81600084612338565b611aca60008361188f565b6001600360008373ffffffffffffffffffffffffffffffffffffffff1673ffffffffffffffffffffffffffffffffffffffff1681526020019081526020016000206000828254611b1a9190613743565b925050819055506002600083815260200190815260200160002060006101000a81549073ffffffffffffffffffffffffffffffffffffffff021916905581600073ffffffffffffffffffffffffffffffffffffffff168273ffffffffffffffffffffffffffffffffffffffff167fddf252ad1be2c89b69c2b068fc378daa952ba7f163c4a11628f55a4df523b3ef60405160405180910390a45050565b600081600001549050919050565b6000600660009054906101000a900473ffffffffffffffffffffffffffffffffffffffff16905081600660006101000a81548173ffffffffffffffffffffffffffffffffffffffff021916908373ffffffffffffffffffffffffffffffffffffffff1602179055508173ffffffffffffffffffffffffffffffffffffffff168173ffffffffffffffffffffffffffffffffffffffff167f8be0079c531659141344cd1fd0a4f28419497f9722a3daafe3b4186f6b6457e060405160405180910390a35050565b6001816000016000828254019250508190555050565b600073ffffffffffffffffffffffffffffffffffffffff168273ffffffffffffffffffffffffffffffffffffffff161415611d11576040517f08c379a0000000000000000000000000000000000000000000000000000000008152600401611d08906137c3565b60405180910390fd5b611d1a816117b1565b15611d5a576040517f08c379a0000000000000000000000000000000000000000000000000000000008152600401611d519061382f565b60405180910390fd5b611d6660008383612338565b6001600360008473ffffffffffffffffffffffffffffffffffffffff1673ffffffffffffffffffffffffffffffffffffffff1681526020019081526020016000206000828254611db6919061384f565b92505081905550816002600083815260200190815260200160002060006101000a81548173ffffffffffffffffffffffffffffffffffffffff021916908373ffffffffffffffffffffffffffffffffffffffff160217905550808273ffffffffffffffffffffffffffffffffffffffff16600073ffffffffffffffffffffffffffffffffffffffff167fddf252ad1be2c89b69c2b068fc378daa952ba7f163c4a11628f55a4df523b3ef60405160405180910390a45050565b611e7a8484846120dc565b611e868484848461233d565b611ec5576040517f08c379a0000000000000000000000000000000000000000000000000000000008152600401611ebc90613917565b60405180910390fd5b50505050565b6060600c8054611eda90612f67565b80601f0160208091040260200160405190810160405280929190818152602001828054611f0690612f67565b8015611f535780601f10611f2857610100808354040283529160200191611f53565b820191906000526020600020905b815481529060010190602001808311611f3657829003601f168201915b5050505050905090565b60606000821415611fa5576040518060400160405280600181526020017f300000000000000000000000000000000000000000000000000000000000000081525090506120b9565b600082905060005b60008214611fd7578080611fc09061323f565b915050600a82611fd09190613966565b9150611fad565b60008167ffffffffffffffff811115611ff357611ff261263b565b5b6040519080825280601f01601f1916602001820160405280156120255781602001600182028036833780820191505090505b5090505b600085146120b25760018261203e9190613743565b9150600a8561204d9190613997565b6030612059919061384f565b60f81b81838151811061206f5761206e6131e1565b5b60200101907effffffffffffffffffffffffffffffffffffffffffffffffffffffffffffff1916908160001a905350600a856120ab9190613966565b9450612029565b8093505050505b919050565b6120d88282604051806020016040528060008152506124c5565b5050565b8273ffffffffffffffffffffffffffffffffffffffff166120fc82610cb0565b73ffffffffffffffffffffffffffffffffffffffff1614612152576040517f08c379a000000000000000000000000000000000000000000000000000000000815260040161214990613a3a565b60405180910390fd5b600073ffffffffffffffffffffffffffffffffffffffff168273ffffffffffffffffffffffffffffffffffffffff1614156121c2576040517f08c379a00000000000000000000000000000000000000000000000000000000081526004016121b990613acc565b60405180910390fd5b6121cd838383612338565b6121d860008261188f565b6001600360008573ffffffffffffffffffffffffffffffffffffffff1673ffffffffffffffffffffffffffffffffffffffff16815260200190815260200160002060008282546122289190613743565b925050819055506001600360008473ffffffffffffffffffffffffffffffffffffffff1673ffffffffffffffffffffffffffffffffffffffff168152602001908152602001600020600082825461227f919061384f565b92505081905550816002600083815260200190815260200160002060006101000a81548173ffffffffffffffffffffffffffffffffffffffff021916908373ffffffffffffffffffffffffffffffffffffffff160217905550808273ffffffffffffffffffffffffffffffffffffffff168473ffffffffffffffffffffffffffffffffffffffff167fddf252ad1be2c89b69c2b068fc378daa952ba7f163c4a11628f55a4df523b3ef60405160405180910390a4505050565b505050565b600061235e8473ffffffffffffffffffffffffffffffffffffffff16612520565b156124b8578373ffffffffffffffffffffffffffffffffffffffff1663150b7a02612387611887565b8786866040518563ffffffff1660e01b81526004016123a99493929190613b41565b6020604051808303816000875af19250505080156123e557506040513d601f19601f820116820180604052508101906123e29190613ba2565b60015b612468573d8060008114612415576040519150601f19603f3d011682016040523d82523d6000602084013e61241a565b606091505b50600081511415612460576040517f08c379a000000000000000000000000000000000000000000000000000000000815260040161245790613917565b60405180910390fd5b805181602001fd5b63150b7a0260e01b7bffffffffffffffffffffffffffffffffffffffffffffffffffffffff1916817bffffffffffffffffffffffffffffffffffffffffffffffffffffffff1916149150506124bd565b600190505b949350505050565b6124cf8383611ca1565b6124dc600084848461233d565b61251b576040517f08c379a000000000000000000000000000000000000000000000000000000000815260040161251290613917565b60405180910390fd5b505050565b600080823b905060008111915050919050565b82805461253f90612f67565b90600052602060002090601f01602090048101928261256157600085556125a8565b82601f1061257a57805160ff19168380011785556125a8565b828001600101855582156125a8579182015b828111156125a757825182559160200191906001019061258c565b5b5090506125b591906125b9565b5090565b5b808211156125d25760008160009055506001016125ba565b5090565b6000604051905090565b600080fd5b600080fd5b6000819050919050565b6125fd816125ea565b811461260857600080fd5b50565b60008135905061261a816125f4565b92915050565b600080fd5b600080fd5b6000601f19601f8301169050919050565b7f4e487b7100000000000000000000000000000000000000000000000000000000600052604160045260246000fd5b6126738261262a565b810181811067ffffffffffffffff821117156126925761269161263b565b5b80604052505050565b60006126a56125d6565b90506126b1828261266a565b919050565b600067ffffffffffffffff8211156126d1576126d061263b565b5b6126da8261262a565b9050602081019050919050565b82818337600083830152505050565b6000612709612704846126b6565b61269b565b90508281526020810184848401111561272557612724612625565b5b6127308482856126e7565b509392505050565b600082601f83011261274d5761274c612620565b5b813561275d8482602086016126f6565b91505092915050565b6000806040838503121561277d5761277c6125e0565b5b600061278b8582860161260b565b925050602083013567ffffffffffffffff8111156127ac576127ab6125e5565b5b6127b885828601612738565b9150509250929050565b60007fffffffff0000000000000000000000000000000000000000000000000000000082169050919050565b6127f7816127c2565b811461280257600080fd5b50565b600081359050612814816127ee565b92915050565b6000602082840312156128305761282f6125e0565b5b600061283e84828501612805565b91505092915050565b60008115159050919050565b61285c81612847565b82525050565b60006020820190506128776000830184612853565b92915050565b600081519050919050565b600082825260208201905092915050565b60005b838110156128b757808201518184015260208101905061289c565b838111156128c6576000848401525b50505050565b60006128d78261287d565b6128e18185612888565b93506128f1818560208601612899565b6128fa8161262a565b840191505092915050565b6000602082019050818103600083015261291f81846128cc565b905092915050565b60006020828403121561293d5761293c6125e0565b5b600061294b8482850161260b565b91505092915050565b600073ffffffffffffffffffffffffffffffffffffffff82169050919050565b600061297f82612954565b9050919050565b61298f81612974565b82525050565b60006020820190506129aa6000830184612986565b92915050565b6129b981612974565b81146129c457600080fd5b50565b6000813590506129d6816129b0565b92915050565b600080604083850312156129f3576129f26125e0565b5b6000612a01858286016129c7565b9250506020612a128582860161260b565b9150509250929050565b600060208284031215612a3257612a316125e0565b5b6000612a40848285016129c7565b91505092915050565b600080600060608486031215612a6257612a616125e0565b5b6000612a70868287016129c7565b9350506020612a81868287016129c7565b9250506040612a928682870161260b565b9150509250925092565b600081519050919050565b600082825260208201905092915050565b6000819050602082019050919050565b612ad1816125ea565b82525050565b6000612ae38383612ac8565b60208301905092915050565b6000602082019050919050565b6000612b0782612a9c565b612b118185612aa7565b9350612b1c83612ab8565b8060005b83811015612b4d578151612b348882612ad7565b9750612b3f83612aef565b925050600181019050612b20565b5085935050505092915050565b60006020820190508181036000830152612b748184612afc565b905092915050565b600060208284031215612b9257612b916125e0565b5b600082013567ffffffffffffffff811115612bb057612baf6125e5565b5b612bbc84828501612738565b91505092915050565b612bce816125ea565b82525050565b6000602082019050612be96000830184612bc5565b92915050565b600080600060608486031215612c0857612c076125e0565b5b6000612c16868287016129c7565b935050602084013567ffffffffffffffff811115612c3757612c366125e5565b5b612c4386828701612738565b925050604084013567ffffffffffffffff811115612c6457612c636125e5565b5b612c7086828701612738565b9150509250925092565b612c8381612847565b8114612c8e57600080fd5b50565b600081359050612ca081612c7a565b92915050565b60008060408385031215612cbd57612cbc6125e0565b5b6000612ccb858286016129c7565b9250506020612cdc85828601612c91565b9150509250929050565b600067ffffffffffffffff821115612d0157612d0061263b565b5b612d0a8261262a565b9050602081019050919050565b6000612d2a612d2584612ce6565b61269b565b905082815260208101848484011115612d4657612d45612625565b5b612d518482856126e7565b509392505050565b600082601f830112612d6e57612d6d612620565b5b8135612d7e848260208601612d17565b91505092915050565b60008060008060808587031215612da157612da06125e0565b5b6000612daf878288016129c7565b9450506020612dc0878288016129c7565b9350506040612dd18782880161260b565b925050606085013567ffffffffffffffff811115612df257612df16125e5565b5b612dfe87828801612d59565b91505092959194509250565b60008060408385031215612e2157612e206125e0565b5b6000612e2f858286016129c7565b925050602083013567ffffffffffffffff811115612e5057612e4f6125e5565b5b612e5c85828601612738565b9150509250929050565b60008060408385031215612e7d57612e7c6125e0565b5b6000612e8b858286016129c7565b9250506020612e9c858286016129c7565b9150509250929050565b7f4552433732314d657461646174613a2055524920736574206f66206e6f6e657860008201527f697374656e7420746f6b656e0000000000000000000000000000000000000000602082015250565b6000612f02602c83612888565b9150612f0d82612ea6565b604082019050919050565b60006020820190508181036000830152612f3181612ef5565b9050919050565b7f4e487b7100000000000000000000000000000000000000000000000000000000600052602260045260246000fd5b60006002820490506001821680612f7f57607f821691505b60208210811415612f9357612f92612f38565b5b50919050565b7f4552433732313a20617070726f76656420717565727920666f72206e6f6e657860008201527f697374656e7420746f6b656e0000000000000000000000000000000000000000602082015250565b6000612ff5602c83612888565b915061300082612f99565b604082019050919050565b6000602082019050818103600083015261302481612fe8565b9050919050565b7f4552433732313a20617070726f76616c20746f2063757272656e74206f776e6560008201527f7200000000000000000000000000000000000000000000000000000000000000602082015250565b6000613087602183612888565b91506130928261302b565b604082019050919050565b600060208201905081810360008301526130b68161307a565b9050919050565b7f4552433732313a20617070726f76652063616c6c6572206973206e6f74206f7760008201527f6e6572206e6f7220617070726f76656420666f7220616c6c0000000000000000602082015250565b6000613119603883612888565b9150613124826130bd565b604082019050919050565b600060208201905081810360008301526131488161310c565b9050919050565b7f566972696469616e204e46543a2043616e6e6f74207472616e7366657220776860008201527f696c65206c6973746564206f6e20566972696469616e2045786368616e676500602082015250565b60006131ab603f83612888565b91506131b68261314f565b604082019050919050565b600060208201905081810360008301526131da8161319e565b9050919050565b7f4e487b7100000000000000000000000000000000000000000000000000000000600052603260045260246000fd5b7f4e487b7100000000000000000000000000000000000000000000000000000000600052601160045260246000fd5b600061324a826125ea565b91507fffffffffffffffffffffffffffffffffffffffffffffffffffffffffffffffff82141561327d5761327c613210565b5b600182019050919050565b7f4552433732313a206f776e657220717565727920666f72206e6f6e657869737460008201527f656e7420746f6b656e0000000000000000000000000000000000000000000000602082015250565b60006132e4602983612888565b91506132ef82613288565b604082019050919050565b60006020820190508181036000830152613313816132d7565b9050919050565b7f4552433732313a2062616c616e636520717565727920666f7220746865207a6560008201527f726f206164647265737300000000000000000000000000000000000000000000602082015250565b6000613376602a83612888565b91506133818261331a565b604082019050919050565b600060208201905081810360008301526133a581613369565b9050919050565b7f4f776e61626c653a2063616c6c6572206973206e6f7420746865206f776e6572600082015250565b60006133e2602083612888565b91506133ed826133ac565b602082019050919050565b60006020820190508181036000830152613411816133d5565b9050919050565b600081905092915050565b600061342e8261287d565b6134388185613418565b9350613448818560208601612899565b80840191505092915050565b60006134608284613423565b915081905092915050565b7f4552433732313a20617070726f766520746f2063616c6c657200000000000000600082015250565b60006134a1601983612888565b91506134ac8261346b565b602082019050919050565b600060208201905081810360008301526134d081613494565b9050919050565b7f4552433732313a207472616e736665722063616c6c6572206973206e6f74206f60008201527f776e6572206e6f7220617070726f766564000000000000000000000000000000602082015250565b6000613533603183612888565b915061353e826134d7565b604082019050919050565b6000602082019050818103600083015261356281613526565b9050919050565b7f4552433732314d657461646174613a2055524920717565727920666f72206e6f60008201527f6e6578697374656e7420746f6b656e0000000000000000000000000000000000602082015250565b60006135c5602f83612888565b91506135d082613569565b604082019050919050565b600060208201905081810360008301526135f4816135b8565b9050919050565b60006136078285613423565b91506136138284613423565b91508190509392505050565b7f4f776e61626c653a206e6577206f776e657220697320746865207a65726f206160008201527f6464726573730000000000000000000000000000000000000000000000000000602082015250565b600061367b602683612888565b91506136868261361f565b604082019050919050565b600060208201905081810360008301526136aa8161366e565b9050919050565b7f4552433732313a206f70657261746f7220717565727920666f72206e6f6e657860008201527f697374656e7420746f6b656e0000000000000000000000000000000000000000602082015250565b600061370d602c83612888565b9150613718826136b1565b604082019050919050565b6000602082019050818103600083015261373c81613700565b9050919050565b600061374e826125ea565b9150613759836125ea565b92508282101561376c5761376b613210565b5b828203905092915050565b7f4552433732313a206d696e7420746f20746865207a65726f2061646472657373600082015250565b60006137ad602083612888565b91506137b882613777565b602082019050919050565b600060208201905081810360008301526137dc816137a0565b9050919050565b7f4552433732313a20746f6b656e20616c7265616479206d696e74656400000000600082015250565b6000613819601c83612888565b9150613824826137e3565b602082019050919050565b600060208201905081810360008301526138488161380c565b9050919050565b600061385a826125ea565b9150613865836125ea565b9250827fffffffffffffffffffffffffffffffffffffffffffffffffffffffffffffffff0382111561389a57613899613210565b5b828201905092915050565b7f4552433732313a207472616e7366657220746f206e6f6e20455243373231526560008201527f63656976657220696d706c656d656e7465720000000000000000000000000000602082015250565b6000613901603283612888565b915061390c826138a5565b604082019050919050565b60006020820190508181036000830152613930816138f4565b9050919050565b7f4e487b7100000000000000000000000000000000000000000000000000000000600052601260045260246000fd5b6000613971826125ea565b915061397c836125ea565b92508261398c5761398b613937565b5b828204905092915050565b60006139a2826125ea565b91506139ad836125ea565b9250826139bd576139bc613937565b5b828206905092915050565b7f4552433732313a207472616e73666572206f6620746f6b656e2074686174206960008201527f73206e6f74206f776e0000000000000000000000000000000000000000000000602082015250565b6000613a24602983612888565b9150613a2f826139c8565b604082019050919050565b60006020820190508181036000830152613a5381613a17565b9050919050565b7f4552433732313a207472616e7366657220746f20746865207a65726f2061646460008201527f7265737300000000000000000000000000000000000000000000000000000000602082015250565b6000613ab6602483612888565b9150613ac182613a5a565b604082019050919050565b60006020820190508181036000830152613ae581613aa9565b9050919050565b600081519050919050565b600082825260208201905092915050565b6000613b1382613aec565b613b1d8185613af7565b9350613b2d818560208601612899565b613b368161262a565b840191505092915050565b6000608082019050613b566000830187612986565b613b636020830186612986565b613b706040830185612bc5565b8181036060830152613b828184613b08565b905095945050505050565b600081519050613b9c816127ee565b92915050565b600060208284031215613bb857613bb76125e0565b5b6000613bc684828501613b8d565b9150509291505056fea264697066735822122078188c133be8a5c36979c745f8cafbc62d65dc0bcfb339f6dc9b9486b8712b8b64736f6c634300080a0033",
  "immutableReferences": {},
  "source": "pragma solidity ^0.8.0;\n\nimport \"@openzeppelin/contracts/token/ERC721/ERC721.sol\";\nimport \"@openzeppelin/contracts/utils/Counters.sol\";\nimport \"@openzeppelin/contracts/access/Ownable.sol\";\nimport \"@opengsn/contracts/src/BaseRelayRecipient.sol\";\n\ncontract ViridianNFT is ERC721, Ownable {\n\n    using Counters for Counters.Counter;\n    Counters.Counter private _tokenIds;\n    mapping(string => uint8) hashes;\n    \n    mapping(address => bool) admins;\n    \n    // constructor(address _imx) ERC721(\"Viridian NFT\", \"VNFT\") Mintable(msg.sender, _imx) {\n    //     admins[msg.sender] = true;\n    // }\n\n    constructor() ERC721(\"Viridian NFT\", \"VNFT\") {\n        admins[msg.sender] = true;\n    }\n\n    using Strings for uint256;\n\n    //TODO: Maybe add restrictions to NFT usage when it is listed on the exchange, do not allow ownership transfer \n    // while it is listed for sale or offer to avoid issues with invalid purchasing, or just protect from transactions going through\n    // on exchange, ask someone about this scenario.\n\n\n    // Optional mapping for token URIs\n    mapping (uint256 => string) private _tokenURIs;\n\n    //mapping(uint256 => bytes) public blueprints;\n\n    mapping (uint256 => bool) private _tokensListed;\n\n    //address private viridianExchangeAddress;\n\n    // Base URI\n    string private _baseURIextended;\n\n    modifier onlyAdmin() {\n        require(admins[msg.sender] == true);\n            _;\n    }\n\n    function addAdmin(address _newAdmin) external onlyAdmin() {\n        admins[_newAdmin] = true;\n    }\n\n    function removeAdmin(address _newAdmin) external onlyAdmin() {\n        admins[_newAdmin] = false;\n    }\n\n    // function setExchangeAddress(address ea) public onlyAdmin() {\n    //     viridianExchangeAddress = ea;\n    // }\n    \n    function setBaseURI(string memory baseURI_) external onlyAdmin() {\n        _baseURIextended = baseURI_;\n    }\n    \n    function _setTokenURI(uint256 tokenId, string memory _tokenURI) public virtual onlyAdmin() {\n        require(_exists(tokenId), \"ERC721Metadata: URI set of nonexistent token\");\n        _tokenURIs[tokenId] = _tokenURI;\n    }\n    \n    function _baseURI() internal view virtual override returns (string memory) {\n        return _baseURIextended;\n    }\n    \n    function tokenURI(uint256 tokenId) public view virtual override returns (string memory) {\n        require(_exists(tokenId), \"ERC721Metadata: URI query for nonexistent token\");\n\n        string memory _tokenURI = _tokenURIs[tokenId];\n        string memory base = _baseURI();\n        \n        // If there is no base URI, return the token URI.\n        if (bytes(base).length == 0) {\n            return _tokenURI;\n        }\n        // If both are set, concatenate the baseURI and tokenURI (via abi.encodePacked).\n        if (bytes(_tokenURI).length > 0) {\n            return string(abi.encodePacked(base, _tokenURI));\n        }\n        // If there is a baseURI but no tokenURI, concatenate the tokenID to the baseURI.\n        return string(abi.encodePacked(base, tokenId.toString()));\n    }\n\n    function getNumNFTs() public view returns (uint256 n) {\n        return _tokenIds.current();\n    }\n\n    function getNumOwnedNFTs() public view virtual returns (uint256) {\n        uint256 numOwnedNFTs = 0;\n\n        for (uint256 i = 1; i <= _tokenIds.current(); i++) {\n            if (_exists(i)) {\n                if (ownerOf(i) == msg.sender) {\n                    numOwnedNFTs++;\n                }\n            }\n        }\n\n        return numOwnedNFTs;\n    }\n \n    function getOwnedNFTs() public view virtual returns (uint256[] memory) {\n\n        uint256[] memory _tokens = new uint256[](getNumOwnedNFTs());\n\n        uint256 curIndex = 0;\n\n        for (uint256 i = 1; i <= _tokenIds.current(); i++) {\n            if (_exists(i)) {\n                if (ownerOf(i) == msg.sender) {\n                    _tokens[curIndex] = i;\n                    curIndex++;\n                }\n            }\n        }\n        \n        return _tokens;\n    }\n\n    function mint(\n        address _to,\n        string memory tokenURI_\n    ) external onlyAdmin() {\n        _tokenIds.increment();\n        uint256 _tokenId = _tokenIds.current();\n\n        _safeMint(_to, _tokenId);\n        _tokensListed[_tokenId] = false;\n        _setTokenURI(_tokenId, tokenURI_);\n    }\n\n    function isListed(uint256 tokenId) public view returns (bool) {\n        return _tokensListed[tokenId];\n    }\n\n    function burn(uint256 tokenId) public {\n        require(_isApprovedOrOwner(msg.sender, tokenId));\n\n        //address owner = ownerOf(tokenId);\n\n        _burn(tokenId);\n    }\n\n    function awardItem(address recipient, string memory hash, string memory metadata) public returns (uint256) {\n        require(hashes[hash] != 1);\n        hashes[hash] = 1;\n        _tokenIds.increment();\n        uint256 newItemId = _tokenIds.current();\n        _mint(recipient, newItemId);\n        _setTokenURI(newItemId, metadata);\n        return newItemId;\n    }\n\n    function safeTransferFrom(address from, address to, uint256 tokenId) public override {\n        require(!_tokensListed[tokenId], \"Viridian NFT: Cannot transfer while listed on Viridian Exchange\");\n\n        super.safeTransferFrom(from, to, tokenId);\n    }\n\n    function transferFrom(address from, address to, uint256 tokenId) public override {\n        require(!_tokensListed[tokenId], \"Viridian NFT: Cannot transfer while listed on Viridian Exchange\");\n\n        super.transferFrom(from, to, tokenId);\n    }\n\n    function listToken(uint256 _tokenId) public {\n        require(_isApprovedOrOwner(msg.sender, _tokenId));\n        _tokensListed[_tokenId] = true;\n    }\n\n    function unlistToken(uint256 _tokenId) public {\n        require(_isApprovedOrOwner(msg.sender, _tokenId));\n        _tokensListed[_tokenId] = false;\n    }\n}",
  "sourcePath": "/Users/blakehatch/Viridian-Exchange-Contracts/contracts/ViridianNFT.sol",
  "compiler": {
    "name": "solc",
    "version": "0.8.10+commit.fc410830.Emscripten.clang"
  },
  "schemaVersion": "3.4.1",
  "updatedAt": "2021-12-02T22:26:26.141Z",
  "networkType": "ethereum",
  "devdoc": {
    "kind": "dev",
    "methods": {
      "approve(address,uint256)": {
        "details": "See {IERC721-approve}."
      },
      "balanceOf(address)": {
        "details": "See {IERC721-balanceOf}."
      },
      "getApproved(uint256)": {
        "details": "See {IERC721-getApproved}."
      },
      "isApprovedForAll(address,address)": {
        "details": "See {IERC721-isApprovedForAll}."
      },
      "name()": {
        "details": "See {IERC721Metadata-name}."
      },
      "owner()": {
        "details": "Returns the address of the current owner."
      },
      "ownerOf(uint256)": {
        "details": "See {IERC721-ownerOf}."
      },
      "renounceOwnership()": {
        "details": "Leaves the contract without owner. It will not be possible to call `onlyOwner` functions anymore. Can only be called by the current owner. NOTE: Renouncing ownership will leave the contract without an owner, thereby removing any functionality that is only available to the owner."
      },
      "safeTransferFrom(address,address,uint256)": {
        "details": "See {IERC721-safeTransferFrom}."
      },
      "safeTransferFrom(address,address,uint256,bytes)": {
        "details": "See {IERC721-safeTransferFrom}."
      },
      "setApprovalForAll(address,bool)": {
        "details": "See {IERC721-setApprovalForAll}."
      },
      "supportsInterface(bytes4)": {
        "details": "See {IERC165-supportsInterface}."
      },
      "symbol()": {
        "details": "See {IERC721Metadata-symbol}."
      },
      "tokenURI(uint256)": {
        "details": "See {IERC721Metadata-tokenURI}."
      },
      "transferFrom(address,address,uint256)": {
        "details": "See {IERC721-transferFrom}."
      },
      "transferOwnership(address)": {
        "details": "Transfers ownership of the contract to a new account (`newOwner`). Can only be called by the current owner."
      }
    },
    "version": 1
  },
  "userdoc": {
    "kind": "user",
    "methods": {},
    "version": 1
  }
}