{
  "contractName": "ViridianNFT",
  "abi": [
    {
      "inputs": [],
      "stateMutability": "nonpayable",
      "type": "constructor"
    },
    {
      "anonymous": false,
      "inputs": [
        {
          "indexed": true,
          "internalType": "address",
          "name": "owner",
          "type": "address"
        },
        {
          "indexed": true,
          "internalType": "address",
          "name": "approved",
          "type": "address"
        },
        {
          "indexed": true,
          "internalType": "uint256",
          "name": "tokenId",
          "type": "uint256"
        }
      ],
      "name": "Approval",
      "type": "event"
    },
    {
      "anonymous": false,
      "inputs": [
        {
          "indexed": true,
          "internalType": "address",
          "name": "owner",
          "type": "address"
        },
        {
          "indexed": true,
          "internalType": "address",
          "name": "operator",
          "type": "address"
        },
        {
          "indexed": false,
          "internalType": "bool",
          "name": "approved",
          "type": "bool"
        }
      ],
      "name": "ApprovalForAll",
      "type": "event"
    },
    {
      "anonymous": false,
      "inputs": [
        {
          "indexed": true,
          "internalType": "address",
          "name": "previousOwner",
          "type": "address"
        },
        {
          "indexed": true,
          "internalType": "address",
          "name": "newOwner",
          "type": "address"
        }
      ],
      "name": "OwnershipTransferred",
      "type": "event"
    },
    {
      "anonymous": false,
      "inputs": [
        {
          "indexed": true,
          "internalType": "address",
          "name": "from",
          "type": "address"
        },
        {
          "indexed": true,
          "internalType": "address",
          "name": "to",
          "type": "address"
        },
        {
          "indexed": true,
          "internalType": "uint256",
          "name": "tokenId",
          "type": "uint256"
        }
      ],
      "name": "Transfer",
      "type": "event"
    },
    {
      "inputs": [
        {
          "internalType": "address",
          "name": "to",
          "type": "address"
        },
        {
          "internalType": "uint256",
          "name": "tokenId",
          "type": "uint256"
        }
      ],
      "name": "approve",
      "outputs": [],
      "stateMutability": "nonpayable",
      "type": "function"
    },
    {
      "inputs": [
        {
          "internalType": "address",
          "name": "owner",
          "type": "address"
        }
      ],
      "name": "balanceOf",
      "outputs": [
        {
          "internalType": "uint256",
          "name": "",
          "type": "uint256"
        }
      ],
      "stateMutability": "view",
      "type": "function",
      "constant": true
    },
    {
      "inputs": [
        {
          "internalType": "uint256",
          "name": "tokenId",
          "type": "uint256"
        }
      ],
      "name": "getApproved",
      "outputs": [
        {
          "internalType": "address",
          "name": "",
          "type": "address"
        }
      ],
      "stateMutability": "view",
      "type": "function",
      "constant": true
    },
    {
      "inputs": [
        {
          "internalType": "address",
          "name": "owner",
          "type": "address"
        },
        {
          "internalType": "address",
          "name": "operator",
          "type": "address"
        }
      ],
      "name": "isApprovedForAll",
      "outputs": [
        {
          "internalType": "bool",
          "name": "",
          "type": "bool"
        }
      ],
      "stateMutability": "view",
      "type": "function",
      "constant": true
    },
    {
      "inputs": [],
      "name": "name",
      "outputs": [
        {
          "internalType": "string",
          "name": "",
          "type": "string"
        }
      ],
      "stateMutability": "view",
      "type": "function",
      "constant": true
    },
    {
      "inputs": [],
      "name": "owner",
      "outputs": [
        {
          "internalType": "address",
          "name": "",
          "type": "address"
        }
      ],
      "stateMutability": "view",
      "type": "function",
      "constant": true
    },
    {
      "inputs": [
        {
          "internalType": "uint256",
          "name": "tokenId",
          "type": "uint256"
        }
      ],
      "name": "ownerOf",
      "outputs": [
        {
          "internalType": "address",
          "name": "",
          "type": "address"
        }
      ],
      "stateMutability": "view",
      "type": "function",
      "constant": true
    },
    {
      "inputs": [],
      "name": "renounceOwnership",
      "outputs": [],
      "stateMutability": "nonpayable",
      "type": "function"
    },
    {
      "inputs": [
        {
          "internalType": "address",
          "name": "operator",
          "type": "address"
        },
        {
          "internalType": "bool",
          "name": "approved",
          "type": "bool"
        }
      ],
      "name": "setApprovalForAll",
      "outputs": [],
      "stateMutability": "nonpayable",
      "type": "function"
    },
    {
      "inputs": [
        {
          "internalType": "bytes4",
          "name": "interfaceId",
          "type": "bytes4"
        }
      ],
      "name": "supportsInterface",
      "outputs": [
        {
          "internalType": "bool",
          "name": "",
          "type": "bool"
        }
      ],
      "stateMutability": "view",
      "type": "function",
      "constant": true
    },
    {
      "inputs": [],
      "name": "symbol",
      "outputs": [
        {
          "internalType": "string",
          "name": "",
          "type": "string"
        }
      ],
      "stateMutability": "view",
      "type": "function",
      "constant": true
    },
    {
      "inputs": [
        {
          "internalType": "address",
          "name": "newOwner",
          "type": "address"
        }
      ],
      "name": "transferOwnership",
      "outputs": [],
      "stateMutability": "nonpayable",
      "type": "function"
    },
    {
      "inputs": [
        {
          "internalType": "address",
          "name": "ea",
          "type": "address"
        }
      ],
      "name": "setExchangeAddress",
      "outputs": [],
      "stateMutability": "nonpayable",
      "type": "function"
    },
    {
      "inputs": [
        {
          "internalType": "string",
          "name": "baseURI_",
          "type": "string"
        }
      ],
      "name": "setBaseURI",
      "outputs": [],
      "stateMutability": "nonpayable",
      "type": "function"
    },
    {
      "inputs": [
        {
          "internalType": "uint256",
          "name": "tokenId",
          "type": "uint256"
        }
      ],
      "name": "tokenURI",
      "outputs": [
        {
          "internalType": "string",
          "name": "",
          "type": "string"
        }
      ],
      "stateMutability": "view",
      "type": "function",
      "constant": true
    },
    {
      "inputs": [],
      "name": "getOwnedNFTs",
      "outputs": [
        {
          "internalType": "uint256[]",
          "name": "",
          "type": "uint256[]"
        }
      ],
      "stateMutability": "view",
      "type": "function",
      "constant": true
    },
    {
      "inputs": [
        {
          "internalType": "address",
          "name": "_to",
          "type": "address"
        },
        {
          "internalType": "string",
          "name": "tokenURI_",
          "type": "string"
        }
      ],
      "name": "mint",
      "outputs": [],
      "stateMutability": "nonpayable",
      "type": "function"
    },
    {
      "inputs": [
        {
          "internalType": "uint256",
          "name": "tokenId",
          "type": "uint256"
        }
      ],
      "name": "burn",
      "outputs": [],
      "stateMutability": "nonpayable",
      "type": "function"
    },
    {
      "inputs": [
        {
          "internalType": "address",
          "name": "recipient",
          "type": "address"
        },
        {
          "internalType": "string",
          "name": "hash",
          "type": "string"
        },
        {
          "internalType": "string",
          "name": "metadata",
          "type": "string"
        }
      ],
      "name": "awardItem",
      "outputs": [
        {
          "internalType": "uint256",
          "name": "",
          "type": "uint256"
        }
      ],
      "stateMutability": "nonpayable",
      "type": "function"
    },
    {
      "inputs": [
        {
          "internalType": "address",
          "name": "from",
          "type": "address"
        },
        {
          "internalType": "address",
          "name": "to",
          "type": "address"
        },
        {
          "internalType": "uint256",
          "name": "tokenId",
          "type": "uint256"
        }
      ],
      "name": "safeTransferFrom",
      "outputs": [],
      "stateMutability": "nonpayable",
      "type": "function"
    },
    {
      "inputs": [
        {
          "internalType": "address",
          "name": "from",
          "type": "address"
        },
        {
          "internalType": "address",
          "name": "to",
          "type": "address"
        },
        {
          "internalType": "uint256",
          "name": "tokenId",
          "type": "uint256"
        },
        {
          "internalType": "bytes",
          "name": "_data",
          "type": "bytes"
        }
      ],
      "name": "safeTransferFrom",
      "outputs": [],
      "stateMutability": "nonpayable",
      "type": "function"
    },
    {
      "inputs": [
        {
          "internalType": "address",
          "name": "from",
          "type": "address"
        },
        {
          "internalType": "address",
          "name": "to",
          "type": "address"
        },
        {
          "internalType": "uint256",
          "name": "tokenId",
          "type": "uint256"
        }
      ],
      "name": "transferFrom",
      "outputs": [],
      "stateMutability": "nonpayable",
      "type": "function"
    }
  ],
  "bytecode": "0x60806040523480156200001157600080fd5b506040518060400160405280600c81526020017f566972696469616e204e465400000000000000000000000000000000000000008152506040518060400160405280600481526020017f564e465400000000000000000000000000000000000000000000000000000000815250816000908051906020019062000096929190620001a6565b508060019080519060200190620000af929190620001a6565b505050620000d2620000c6620000d860201b60201c565b620000e060201b60201c565b620002bb565b600033905090565b6000600660009054906101000a900473ffffffffffffffffffffffffffffffffffffffff16905081600660006101000a81548173ffffffffffffffffffffffffffffffffffffffff021916908373ffffffffffffffffffffffffffffffffffffffff1602179055508173ffffffffffffffffffffffffffffffffffffffff168173ffffffffffffffffffffffffffffffffffffffff167f8be0079c531659141344cd1fd0a4f28419497f9722a3daafe3b4186f6b6457e060405160405180910390a35050565b828054620001b49062000256565b90600052602060002090601f016020900481019282620001d8576000855562000224565b82601f10620001f357805160ff191683800117855562000224565b8280016001018555821562000224579182015b828111156200022357825182559160200191906001019062000206565b5b50905062000233919062000237565b5090565b5b808211156200025257600081600090555060010162000238565b5090565b600060028204905060018216806200026f57607f821691505b602082108114156200028657620002856200028c565b5b50919050565b7f4e487b7100000000000000000000000000000000000000000000000000000000600052602260045260246000fd5b613bf680620002cb6000396000f3fe608060405234801561001057600080fd5b50600436106101425760003560e01c8063715018a6116100b8578063b88d4fde1161007c578063b88d4fde14610361578063c87b56dd1461037d578063d082ea8c146103ad578063d0def521146103c9578063e985e9c5146103e5578063f2fde38b1461041557610142565b8063715018a6146102cf5780638bfaf101146102d95780638da5cb5b1461030957806395d89b4114610327578063a22cb4651461034557610142565b806342842e0e1161010a57806342842e0e146101fd57806342966c68146102195780634c0eb7d91461023557806355f804b3146102535780636352211e1461026f57806370a082311461029f57610142565b806301ffc9a71461014757806306fdde0314610177578063081812fc14610195578063095ea7b3146101c557806323b872dd146101e1575b600080fd5b610161600480360381019061015c9190612a79565b610431565b60405161016e9190612fb5565b60405180910390f35b61017f610513565b60405161018c9190612fd0565b60405180910390f35b6101af60048036038101906101aa9190612b1c565b6105a5565b6040516101bc9190612f2c565b60405180910390f35b6101df60048036038101906101da9190612a39565b61062a565b005b6101fb60048036038101906101f6919061283c565b610742565b005b6102176004803603810190610212919061283c565b6109f1565b005b610233600480360381019061022e9190612b1c565b610ccb565b005b61023d610cea565b60405161024a9190612f93565b60405180910390f35b61026d60048036038101906102689190612ad3565b610d85565b005b61028960048036038101906102849190612b1c565b610e1b565b6040516102969190612f2c565b60405180910390f35b6102b960048036038101906102b491906127cf565b610ecd565b6040516102c69190613212565b60405180910390f35b6102d7610f85565b005b6102f360048036038101906102ee91906129ae565b61100d565b6040516103009190613212565b60405180910390f35b6103116110ba565b60405161031e9190612f2c565b60405180910390f35b61032f6110e4565b60405161033c9190612fd0565b60405180910390f35b61035f600480360381019061035a9190612912565b611176565b005b61037b6004803603810190610376919061288f565b6112f7565b005b61039760048036038101906103929190612b1c565b611359565b6040516103a49190612fd0565b60405180910390f35b6103c760048036038101906103c291906127cf565b6114cc565b005b6103e360048036038101906103de9190612952565b61158c565b005b6103ff60048036038101906103fa91906127fc565b6116cb565b60405161040c9190612fb5565b60405180910390f35b61042f600480360381019061042a91906127cf565b61175f565b005b60007f80ac58cd000000000000000000000000000000000000000000000000000000007bffffffffffffffffffffffffffffffffffffffffffffffffffffffff1916827bffffffffffffffffffffffffffffffffffffffffffffffffffffffff191614806104fc57507f5b5e139f000000000000000000000000000000000000000000000000000000007bffffffffffffffffffffffffffffffffffffffffffffffffffffffff1916827bffffffffffffffffffffffffffffffffffffffffffffffffffffffff1916145b8061050c575061050b82611857565b5b9050919050565b606060008054610522906134a1565b80601f016020809104026020016040519081016040528092919081815260200182805461054e906134a1565b801561059b5780601f106105705761010080835404028352916020019161059b565b820191906000526020600020905b81548152906001019060200180831161057e57829003601f168201915b5050505050905090565b60006105b0826118c1565b6105ef576040517f08c379a00000000000000000000000000000000000000000000000000000000081526004016105e690613132565b60405180910390fd5b6004600083815260200190815260200160002060009054906101000a900473ffffffffffffffffffffffffffffffffffffffff169050919050565b600061063582610e1b565b90508073ffffffffffffffffffffffffffffffffffffffff168373ffffffffffffffffffffffffffffffffffffffff1614156106a6576040517f08c379a000000000000000000000000000000000000000000000000000000000815260040161069d906131d2565b60405180910390fd5b8073ffffffffffffffffffffffffffffffffffffffff166106c561192d565b73ffffffffffffffffffffffffffffffffffffffff1614806106f457506106f3816106ee61192d565b6116cb565b5b610733576040517f08c379a000000000000000000000000000000000000000000000000000000000815260040161072a906130b2565b60405180910390fd5b61073d8383611935565b505050565b60005b600b60003373ffffffffffffffffffffffffffffffffffffffff1673ffffffffffffffffffffffffffffffffffffffff1681526020019081526020016000208054905081101561097a576000600b60003373ffffffffffffffffffffffffffffffffffffffff1673ffffffffffffffffffffffffffffffffffffffff16815260200190815260200160002082815481106107e2576107e161363a565b5b906000526020600020015490508281141561096657600b60003373ffffffffffffffffffffffffffffffffffffffff1673ffffffffffffffffffffffffffffffffffffffff1681526020019081526020016000206001600b60003373ffffffffffffffffffffffffffffffffffffffff1673ffffffffffffffffffffffffffffffffffffffff1681526020019081526020016000208054905061088591906133b7565b815481106108965761089561363a565b5b9060005260206000200154600b60003373ffffffffffffffffffffffffffffffffffffffff1673ffffffffffffffffffffffffffffffffffffffff16815260200190815260200160002083815481106108f2576108f161363a565b5b9060005260206000200181905550600b60003373ffffffffffffffffffffffffffffffffffffffff1673ffffffffffffffffffffffffffffffffffffffff16815260200190815260200160002080548061094f5761094e61360b565b5b600190038181906000526020600020016000905590555b50808061097290613504565b915050610745565b50600b60008373ffffffffffffffffffffffffffffffffffffffff1673ffffffffffffffffffffffffffffffffffffffff1681526020019081526020016000208190806001815401808255809150506001900390600052602060002001600090919091909150556109ec8383836119ee565b505050565b600a600082815260200190815260200160002060009054906101000a900460ff1615610a1c57600080fd5b60005b600b60003373ffffffffffffffffffffffffffffffffffffffff1673ffffffffffffffffffffffffffffffffffffffff16815260200190815260200160002080549050811015610c54576000600b60003373ffffffffffffffffffffffffffffffffffffffff1673ffffffffffffffffffffffffffffffffffffffff1681526020019081526020016000208281548110610abc57610abb61363a565b5b9060005260206000200154905082811415610c4057600b60003373ffffffffffffffffffffffffffffffffffffffff1673ffffffffffffffffffffffffffffffffffffffff1681526020019081526020016000206001600b60003373ffffffffffffffffffffffffffffffffffffffff1673ffffffffffffffffffffffffffffffffffffffff16815260200190815260200160002080549050610b5f91906133b7565b81548110610b7057610b6f61363a565b5b9060005260206000200154600b60003373ffffffffffffffffffffffffffffffffffffffff1673ffffffffffffffffffffffffffffffffffffffff1681526020019081526020016000208381548110610bcc57610bcb61363a565b5b9060005260206000200181905550600b60003373ffffffffffffffffffffffffffffffffffffffff1673ffffffffffffffffffffffffffffffffffffffff168152602001908152602001600020805480610c2957610c2861360b565b5b600190038181906000526020600020016000905590555b508080610c4c90613504565b915050610a1f565b50600b60008373ffffffffffffffffffffffffffffffffffffffff1673ffffffffffffffffffffffffffffffffffffffff168152602001908152602001600020819080600181540180825580915050600190039060005260206000200160009091909190915055610cc6838383611a4e565b505050565b610cd53382611a6e565b610cde57600080fd5b610ce781611b4c565b50565b60606000600b60003373ffffffffffffffffffffffffffffffffffffffff1673ffffffffffffffffffffffffffffffffffffffff168152602001908152602001600020805480602002602001604051908101604052809291908181526020018280548015610d7757602002820191906000526020600020905b815481526020019060010190808311610d63575b505050505090508091505090565b610d8d61192d565b73ffffffffffffffffffffffffffffffffffffffff16610dab6110ba565b73ffffffffffffffffffffffffffffffffffffffff1614610e01576040517f08c379a0000000000000000000000000000000000000000000000000000000008152600401610df890613172565b60405180910390fd5b80600d9080519060200190610e179291906125e3565b5050565b6000806002600084815260200190815260200160002060009054906101000a900473ffffffffffffffffffffffffffffffffffffffff169050600073ffffffffffffffffffffffffffffffffffffffff168173ffffffffffffffffffffffffffffffffffffffff161415610ec4576040517f08c379a0000000000000000000000000000000000000000000000000000000008152600401610ebb906130f2565b60405180910390fd5b80915050919050565b60008073ffffffffffffffffffffffffffffffffffffffff168273ffffffffffffffffffffffffffffffffffffffff161415610f3e576040517f08c379a0000000000000000000000000000000000000000000000000000000008152600401610f35906130d2565b60405180910390fd5b600360008373ffffffffffffffffffffffffffffffffffffffff1673ffffffffffffffffffffffffffffffffffffffff168152602001908152602001600020549050919050565b610f8d61192d565b73ffffffffffffffffffffffffffffffffffffffff16610fab6110ba565b73ffffffffffffffffffffffffffffffffffffffff1614611001576040517f08c379a0000000000000000000000000000000000000000000000000000000008152600401610ff890613172565b60405180910390fd5b61100b6000611c5d565b565b600060016008846040516110219190612ef1565b908152602001604051809103902060009054906101000a900460ff1660ff16141561104b57600080fd5b600160088460405161105d9190612ef1565b908152602001604051809103902060006101000a81548160ff021916908360ff16021790555061108d6007611d23565b60006110996007611d39565b90506110a58582611d47565b6110af8184611f15565b809150509392505050565b6000600660009054906101000a900473ffffffffffffffffffffffffffffffffffffffff16905090565b6060600180546110f3906134a1565b80601f016020809104026020016040519081016040528092919081815260200182805461111f906134a1565b801561116c5780601f106111415761010080835404028352916020019161116c565b820191906000526020600020905b81548152906001019060200180831161114f57829003601f168201915b5050505050905090565b61117e61192d565b73ffffffffffffffffffffffffffffffffffffffff168273ffffffffffffffffffffffffffffffffffffffff1614156111ec576040517f08c379a00000000000000000000000000000000000000000000000000000000081526004016111e390613072565b60405180910390fd5b80600560006111f961192d565b73ffffffffffffffffffffffffffffffffffffffff1673ffffffffffffffffffffffffffffffffffffffff16815260200190815260200160002060008473ffffffffffffffffffffffffffffffffffffffff1673ffffffffffffffffffffffffffffffffffffffff16815260200190815260200160002060006101000a81548160ff0219169083151502179055508173ffffffffffffffffffffffffffffffffffffffff166112a661192d565b73ffffffffffffffffffffffffffffffffffffffff167f17307eab39ab6107e8899845ad3d59bd9653f200f220920489ca2b5937696c31836040516112eb9190612fb5565b60405180910390a35050565b61130861130261192d565b83611a6e565b611347576040517f08c379a000000000000000000000000000000000000000000000000000000000815260040161133e906131f2565b60405180910390fd5b61135384848484611f89565b50505050565b6060611364826118c1565b6113a3576040517f08c379a000000000000000000000000000000000000000000000000000000000815260040161139a906131b2565b60405180910390fd5b60006009600084815260200190815260200160002080546113c3906134a1565b80601f01602080910402602001604051908101604052809291908181526020018280546113ef906134a1565b801561143c5780601f106114115761010080835404028352916020019161143c565b820191906000526020600020905b81548152906001019060200180831161141f57829003601f168201915b50505050509050600061144d611fe5565b90506000815114156114635781925050506114c7565b600082511115611498578082604051602001611480929190612f08565b604051602081830303815290604052925050506114c7565b806114a285612077565b6040516020016114b3929190612f08565b604051602081830303815290604052925050505b919050565b6114d461192d565b73ffffffffffffffffffffffffffffffffffffffff166114f26110ba565b73ffffffffffffffffffffffffffffffffffffffff1614611548576040517f08c379a000000000000000000000000000000000000000000000000000000000815260040161153f90613172565b60405180910390fd5b80600c60006101000a81548173ffffffffffffffffffffffffffffffffffffffff021916908373ffffffffffffffffffffffffffffffffffffffff16021790555050565b61159461192d565b73ffffffffffffffffffffffffffffffffffffffff166115b26110ba565b73ffffffffffffffffffffffffffffffffffffffff1614611608576040517f08c379a00000000000000000000000000000000000000000000000000000000081526004016115ff90613172565b60405180910390fd5b6116126007611d23565b600061161e6007611d39565b905061162a8382611d47565b600b60008473ffffffffffffffffffffffffffffffffffffffff1673ffffffffffffffffffffffffffffffffffffffff1681526020019081526020016000208190806001815401808255809150506001900390600052602060002001600090919091909150556000600a600083815260200190815260200160002060006101000a81548160ff0219169083151502179055506116c68183611f15565b505050565b6000600560008473ffffffffffffffffffffffffffffffffffffffff1673ffffffffffffffffffffffffffffffffffffffff16815260200190815260200160002060008373ffffffffffffffffffffffffffffffffffffffff1673ffffffffffffffffffffffffffffffffffffffff16815260200190815260200160002060009054906101000a900460ff16905092915050565b61176761192d565b73ffffffffffffffffffffffffffffffffffffffff166117856110ba565b73ffffffffffffffffffffffffffffffffffffffff16146117db576040517f08c379a00000000000000000000000000000000000000000000000000000000081526004016117d290613172565b60405180910390fd5b600073ffffffffffffffffffffffffffffffffffffffff168173ffffffffffffffffffffffffffffffffffffffff16141561184b576040517f08c379a000000000000000000000000000000000000000000000000000000000815260040161184290613012565b60405180910390fd5b61185481611c5d565b50565b60007f01ffc9a7000000000000000000000000000000000000000000000000000000007bffffffffffffffffffffffffffffffffffffffffffffffffffffffff1916827bffffffffffffffffffffffffffffffffffffffffffffffffffffffff1916149050919050565b60008073ffffffffffffffffffffffffffffffffffffffff166002600084815260200190815260200160002060009054906101000a900473ffffffffffffffffffffffffffffffffffffffff1673ffffffffffffffffffffffffffffffffffffffff1614159050919050565b600033905090565b816004600083815260200190815260200160002060006101000a81548173ffffffffffffffffffffffffffffffffffffffff021916908373ffffffffffffffffffffffffffffffffffffffff160217905550808273ffffffffffffffffffffffffffffffffffffffff166119a883610e1b565b73ffffffffffffffffffffffffffffffffffffffff167f8c5be1e5ebec7d5bd14f71427d1e84f3dd0314c0f7b2291e5b200ac8c7c3b92560405160405180910390a45050565b6119ff6119f961192d565b82611a6e565b611a3e576040517f08c379a0000000000000000000000000000000000000000000000000000000008152600401611a35906131f2565b60405180910390fd5b611a498383836121d8565b505050565b611a69838383604051806020016040528060008152506112f7565b505050565b6000611a79826118c1565b611ab8576040517f08c379a0000000000000000000000000000000000000000000000000000000008152600401611aaf90613092565b60405180910390fd5b6000611ac383610e1b565b90508073ffffffffffffffffffffffffffffffffffffffff168473ffffffffffffffffffffffffffffffffffffffff161480611b3257508373ffffffffffffffffffffffffffffffffffffffff16611b1a846105a5565b73ffffffffffffffffffffffffffffffffffffffff16145b80611b435750611b4281856116cb565b5b91505092915050565b6000611b5782610e1b565b9050611b6581600084612434565b611b70600083611935565b6001600360008373ffffffffffffffffffffffffffffffffffffffff1673ffffffffffffffffffffffffffffffffffffffff1681526020019081526020016000206000828254611bc091906133b7565b925050819055506002600083815260200190815260200160002060006101000a81549073ffffffffffffffffffffffffffffffffffffffff021916905581600073ffffffffffffffffffffffffffffffffffffffff168273ffffffffffffffffffffffffffffffffffffffff167fddf252ad1be2c89b69c2b068fc378daa952ba7f163c4a11628f55a4df523b3ef60405160405180910390a45050565b6000600660009054906101000a900473ffffffffffffffffffffffffffffffffffffffff16905081600660006101000a81548173ffffffffffffffffffffffffffffffffffffffff021916908373ffffffffffffffffffffffffffffffffffffffff1602179055508173ffffffffffffffffffffffffffffffffffffffff168173ffffffffffffffffffffffffffffffffffffffff167f8be0079c531659141344cd1fd0a4f28419497f9722a3daafe3b4186f6b6457e060405160405180910390a35050565b6001816000016000828254019250508190555050565b600081600001549050919050565b600073ffffffffffffffffffffffffffffffffffffffff168273ffffffffffffffffffffffffffffffffffffffff161415611db7576040517f08c379a0000000000000000000000000000000000000000000000000000000008152600401611dae90613112565b60405180910390fd5b611dc0816118c1565b15611e00576040517f08c379a0000000000000000000000000000000000000000000000000000000008152600401611df790613032565b60405180910390fd5b611e0c60008383612434565b6001600360008473ffffffffffffffffffffffffffffffffffffffff1673ffffffffffffffffffffffffffffffffffffffff1681526020019081526020016000206000828254611e5c9190613330565b92505081905550816002600083815260200190815260200160002060006101000a81548173ffffffffffffffffffffffffffffffffffffffff021916908373ffffffffffffffffffffffffffffffffffffffff160217905550808273ffffffffffffffffffffffffffffffffffffffff16600073ffffffffffffffffffffffffffffffffffffffff167fddf252ad1be2c89b69c2b068fc378daa952ba7f163c4a11628f55a4df523b3ef60405160405180910390a45050565b611f1e826118c1565b611f5d576040517f08c379a0000000000000000000000000000000000000000000000000000000008152600401611f5490613152565b60405180910390fd5b80600960008481526020019081526020016000209080519060200190611f849291906125e3565b505050565b611f948484846121d8565b611fa084848484612439565b611fdf576040517f08c379a0000000000000000000000000000000000000000000000000000000008152600401611fd690612ff2565b60405180910390fd5b50505050565b6060600d8054611ff4906134a1565b80601f0160208091040260200160405190810160405280929190818152602001828054612020906134a1565b801561206d5780601f106120425761010080835404028352916020019161206d565b820191906000526020600020905b81548152906001019060200180831161205057829003601f168201915b5050505050905090565b606060008214156120bf576040518060400160405280600181526020017f300000000000000000000000000000000000000000000000000000000000000081525090506121d3565b600082905060005b600082146120f15780806120da90613504565b915050600a826120ea9190613386565b91506120c7565b60008167ffffffffffffffff81111561210d5761210c613669565b5b6040519080825280601f01601f19166020018201604052801561213f5781602001600182028036833780820191505090505b5090505b600085146121cc5760018261215891906133b7565b9150600a85612167919061354d565b60306121739190613330565b60f81b8183815181106121895761218861363a565b5b60200101907effffffffffffffffffffffffffffffffffffffffffffffffffffffffffffff1916908160001a905350600a856121c59190613386565b9450612143565b8093505050505b919050565b8273ffffffffffffffffffffffffffffffffffffffff166121f882610e1b565b73ffffffffffffffffffffffffffffffffffffffff161461224e576040517f08c379a000000000000000000000000000000000000000000000000000000000815260040161224590613192565b60405180910390fd5b600073ffffffffffffffffffffffffffffffffffffffff168273ffffffffffffffffffffffffffffffffffffffff1614156122be576040517f08c379a00000000000000000000000000000000000000000000000000000000081526004016122b590613052565b60405180910390fd5b6122c9838383612434565b6122d4600082611935565b6001600360008573ffffffffffffffffffffffffffffffffffffffff1673ffffffffffffffffffffffffffffffffffffffff168152602001908152602001600020600082825461232491906133b7565b925050819055506001600360008473ffffffffffffffffffffffffffffffffffffffff1673ffffffffffffffffffffffffffffffffffffffff168152602001908152602001600020600082825461237b9190613330565b92505081905550816002600083815260200190815260200160002060006101000a81548173ffffffffffffffffffffffffffffffffffffffff021916908373ffffffffffffffffffffffffffffffffffffffff160217905550808273ffffffffffffffffffffffffffffffffffffffff168473ffffffffffffffffffffffffffffffffffffffff167fddf252ad1be2c89b69c2b068fc378daa952ba7f163c4a11628f55a4df523b3ef60405160405180910390a4505050565b505050565b600061245a8473ffffffffffffffffffffffffffffffffffffffff166125d0565b156125c3578373ffffffffffffffffffffffffffffffffffffffff1663150b7a0261248361192d565b8786866040518563ffffffff1660e01b81526004016124a59493929190612f47565b602060405180830381600087803b1580156124bf57600080fd5b505af19250505080156124f057506040513d601f19601f820116820180604052508101906124ed9190612aa6565b60015b612573573d8060008114612520576040519150601f19603f3d011682016040523d82523d6000602084013e612525565b606091505b5060008151141561256b576040517f08c379a000000000000000000000000000000000000000000000000000000000815260040161256290612ff2565b60405180910390fd5b805181602001fd5b63150b7a0260e01b7bffffffffffffffffffffffffffffffffffffffffffffffffffffffff1916817bffffffffffffffffffffffffffffffffffffffffffffffffffffffff1916149150506125c8565b600190505b949350505050565b600080823b905060008111915050919050565b8280546125ef906134a1565b90600052602060002090601f0160209004810192826126115760008555612658565b82601f1061262a57805160ff1916838001178555612658565b82800160010185558215612658579182015b8281111561265757825182559160200191906001019061263c565b5b5090506126659190612669565b5090565b5b8082111561268257600081600090555060010161266a565b5090565b600061269961269484613252565b61322d565b9050828152602081018484840111156126b5576126b461369d565b5b6126c084828561345f565b509392505050565b60006126db6126d684613283565b61322d565b9050828152602081018484840111156126f7576126f661369d565b5b61270284828561345f565b509392505050565b60008135905061271981613b64565b92915050565b60008135905061272e81613b7b565b92915050565b60008135905061274381613b92565b92915050565b60008151905061275881613b92565b92915050565b600082601f83011261277357612772613698565b5b8135612783848260208601612686565b91505092915050565b600082601f8301126127a1576127a0613698565b5b81356127b18482602086016126c8565b91505092915050565b6000813590506127c981613ba9565b92915050565b6000602082840312156127e5576127e46136a7565b5b60006127f38482850161270a565b91505092915050565b60008060408385031215612813576128126136a7565b5b60006128218582860161270a565b92505060206128328582860161270a565b9150509250929050565b600080600060608486031215612855576128546136a7565b5b60006128638682870161270a565b93505060206128748682870161270a565b9250506040612885868287016127ba565b9150509250925092565b600080600080608085870312156128a9576128a86136a7565b5b60006128b78782880161270a565b94505060206128c88782880161270a565b93505060406128d9878288016127ba565b925050606085013567ffffffffffffffff8111156128fa576128f96136a2565b5b6129068782880161275e565b91505092959194509250565b60008060408385031215612929576129286136a7565b5b60006129378582860161270a565b92505060206129488582860161271f565b9150509250929050565b60008060408385031215612969576129686136a7565b5b60006129778582860161270a565b925050602083013567ffffffffffffffff811115612998576129976136a2565b5b6129a48582860161278c565b9150509250929050565b6000806000606084860312156129c7576129c66136a7565b5b60006129d58682870161270a565b935050602084013567ffffffffffffffff8111156129f6576129f56136a2565b5b612a028682870161278c565b925050604084013567ffffffffffffffff811115612a2357612a226136a2565b5b612a2f8682870161278c565b9150509250925092565b60008060408385031215612a5057612a4f6136a7565b5b6000612a5e8582860161270a565b9250506020612a6f858286016127ba565b9150509250929050565b600060208284031215612a8f57612a8e6136a7565b5b6000612a9d84828501612734565b91505092915050565b600060208284031215612abc57612abb6136a7565b5b6000612aca84828501612749565b91505092915050565b600060208284031215612ae957612ae86136a7565b5b600082013567ffffffffffffffff811115612b0757612b066136a2565b5b612b138482850161278c565b91505092915050565b600060208284031215612b3257612b316136a7565b5b6000612b40848285016127ba565b91505092915050565b6000612b558383612ed3565b60208301905092915050565b612b6a816133eb565b82525050565b6000612b7b826132c4565b612b8581856132f2565b9350612b90836132b4565b8060005b83811015612bc1578151612ba88882612b49565b9750612bb3836132e5565b925050600181019050612b94565b5085935050505092915050565b612bd7816133fd565b82525050565b6000612be8826132cf565b612bf28185613303565b9350612c0281856020860161346e565b612c0b816136ac565b840191505092915050565b6000612c21826132da565b612c2b8185613314565b9350612c3b81856020860161346e565b612c44816136ac565b840191505092915050565b6000612c5a826132da565b612c648185613325565b9350612c7481856020860161346e565b80840191505092915050565b6000612c8d603283613314565b9150612c98826136bd565b604082019050919050565b6000612cb0602683613314565b9150612cbb8261370c565b604082019050919050565b6000612cd3601c83613314565b9150612cde8261375b565b602082019050919050565b6000612cf6602483613314565b9150612d0182613784565b604082019050919050565b6000612d19601983613314565b9150612d24826137d3565b602082019050919050565b6000612d3c602c83613314565b9150612d47826137fc565b604082019050919050565b6000612d5f603883613314565b9150612d6a8261384b565b604082019050919050565b6000612d82602a83613314565b9150612d8d8261389a565b604082019050919050565b6000612da5602983613314565b9150612db0826138e9565b604082019050919050565b6000612dc8602083613314565b9150612dd382613938565b602082019050919050565b6000612deb602c83613314565b9150612df682613961565b604082019050919050565b6000612e0e602c83613314565b9150612e19826139b0565b604082019050919050565b6000612e31602083613314565b9150612e3c826139ff565b602082019050919050565b6000612e54602983613314565b9150612e5f82613a28565b604082019050919050565b6000612e77602f83613314565b9150612e8282613a77565b604082019050919050565b6000612e9a602183613314565b9150612ea582613ac6565b604082019050919050565b6000612ebd603183613314565b9150612ec882613b15565b604082019050919050565b612edc81613455565b82525050565b612eeb81613455565b82525050565b6000612efd8284612c4f565b915081905092915050565b6000612f148285612c4f565b9150612f208284612c4f565b91508190509392505050565b6000602082019050612f416000830184612b61565b92915050565b6000608082019050612f5c6000830187612b61565b612f696020830186612b61565b612f766040830185612ee2565b8181036060830152612f888184612bdd565b905095945050505050565b60006020820190508181036000830152612fad8184612b70565b905092915050565b6000602082019050612fca6000830184612bce565b92915050565b60006020820190508181036000830152612fea8184612c16565b905092915050565b6000602082019050818103600083015261300b81612c80565b9050919050565b6000602082019050818103600083015261302b81612ca3565b9050919050565b6000602082019050818103600083015261304b81612cc6565b9050919050565b6000602082019050818103600083015261306b81612ce9565b9050919050565b6000602082019050818103600083015261308b81612d0c565b9050919050565b600060208201905081810360008301526130ab81612d2f565b9050919050565b600060208201905081810360008301526130cb81612d52565b9050919050565b600060208201905081810360008301526130eb81612d75565b9050919050565b6000602082019050818103600083015261310b81612d98565b9050919050565b6000602082019050818103600083015261312b81612dbb565b9050919050565b6000602082019050818103600083015261314b81612dde565b9050919050565b6000602082019050818103600083015261316b81612e01565b9050919050565b6000602082019050818103600083015261318b81612e24565b9050919050565b600060208201905081810360008301526131ab81612e47565b9050919050565b600060208201905081810360008301526131cb81612e6a565b9050919050565b600060208201905081810360008301526131eb81612e8d565b9050919050565b6000602082019050818103600083015261320b81612eb0565b9050919050565b60006020820190506132276000830184612ee2565b92915050565b6000613237613248565b905061324382826134d3565b919050565b6000604051905090565b600067ffffffffffffffff82111561326d5761326c613669565b5b613276826136ac565b9050602081019050919050565b600067ffffffffffffffff82111561329e5761329d613669565b5b6132a7826136ac565b9050602081019050919050565b6000819050602082019050919050565b600081519050919050565b600081519050919050565b600081519050919050565b6000602082019050919050565b600082825260208201905092915050565b600082825260208201905092915050565b600082825260208201905092915050565b600081905092915050565b600061333b82613455565b915061334683613455565b9250827fffffffffffffffffffffffffffffffffffffffffffffffffffffffffffffffff0382111561337b5761337a61357e565b5b828201905092915050565b600061339182613455565b915061339c83613455565b9250826133ac576133ab6135ad565b5b828204905092915050565b60006133c282613455565b91506133cd83613455565b9250828210156133e0576133df61357e565b5b828203905092915050565b60006133f682613435565b9050919050565b60008115159050919050565b60007fffffffff0000000000000000000000000000000000000000000000000000000082169050919050565b600073ffffffffffffffffffffffffffffffffffffffff82169050919050565b6000819050919050565b82818337600083830152505050565b60005b8381101561348c578082015181840152602081019050613471565b8381111561349b576000848401525b50505050565b600060028204905060018216806134b957607f821691505b602082108114156134cd576134cc6135dc565b5b50919050565b6134dc826136ac565b810181811067ffffffffffffffff821117156134fb576134fa613669565b5b80604052505050565b600061350f82613455565b91507fffffffffffffffffffffffffffffffffffffffffffffffffffffffffffffffff8214156135425761354161357e565b5b600182019050919050565b600061355882613455565b915061356383613455565b925082613573576135726135ad565b5b828206905092915050565b7f4e487b7100000000000000000000000000000000000000000000000000000000600052601160045260246000fd5b7f4e487b7100000000000000000000000000000000000000000000000000000000600052601260045260246000fd5b7f4e487b7100000000000000000000000000000000000000000000000000000000600052602260045260246000fd5b7f4e487b7100000000000000000000000000000000000000000000000000000000600052603160045260246000fd5b7f4e487b7100000000000000000000000000000000000000000000000000000000600052603260045260246000fd5b7f4e487b7100000000000000000000000000000000000000000000000000000000600052604160045260246000fd5b600080fd5b600080fd5b600080fd5b600080fd5b6000601f19601f8301169050919050565b7f4552433732313a207472616e7366657220746f206e6f6e20455243373231526560008201527f63656976657220696d706c656d656e7465720000000000000000000000000000602082015250565b7f4f776e61626c653a206e6577206f776e657220697320746865207a65726f206160008201527f6464726573730000000000000000000000000000000000000000000000000000602082015250565b7f4552433732313a20746f6b656e20616c7265616479206d696e74656400000000600082015250565b7f4552433732313a207472616e7366657220746f20746865207a65726f2061646460008201527f7265737300000000000000000000000000000000000000000000000000000000602082015250565b7f4552433732313a20617070726f766520746f2063616c6c657200000000000000600082015250565b7f4552433732313a206f70657261746f7220717565727920666f72206e6f6e657860008201527f697374656e7420746f6b656e0000000000000000000000000000000000000000602082015250565b7f4552433732313a20617070726f76652063616c6c6572206973206e6f74206f7760008201527f6e6572206e6f7220617070726f76656420666f7220616c6c0000000000000000602082015250565b7f4552433732313a2062616c616e636520717565727920666f7220746865207a6560008201527f726f206164647265737300000000000000000000000000000000000000000000602082015250565b7f4552433732313a206f776e657220717565727920666f72206e6f6e657869737460008201527f656e7420746f6b656e0000000000000000000000000000000000000000000000602082015250565b7f4552433732313a206d696e7420746f20746865207a65726f2061646472657373600082015250565b7f4552433732313a20617070726f76656420717565727920666f72206e6f6e657860008201527f697374656e7420746f6b656e0000000000000000000000000000000000000000602082015250565b7f4552433732314d657461646174613a2055524920736574206f66206e6f6e657860008201527f697374656e7420746f6b656e0000000000000000000000000000000000000000602082015250565b7f4f776e61626c653a2063616c6c6572206973206e6f7420746865206f776e6572600082015250565b7f4552433732313a207472616e73666572206f6620746f6b656e2074686174206960008201527f73206e6f74206f776e0000000000000000000000000000000000000000000000602082015250565b7f4552433732314d657461646174613a2055524920717565727920666f72206e6f60008201527f6e6578697374656e7420746f6b656e0000000000000000000000000000000000602082015250565b7f4552433732313a20617070726f76616c20746f2063757272656e74206f776e6560008201527f7200000000000000000000000000000000000000000000000000000000000000602082015250565b7f4552433732313a207472616e736665722063616c6c6572206973206e6f74206f60008201527f776e6572206e6f7220617070726f766564000000000000000000000000000000602082015250565b613b6d816133eb565b8114613b7857600080fd5b50565b613b84816133fd565b8114613b8f57600080fd5b50565b613b9b81613409565b8114613ba657600080fd5b50565b613bb281613455565b8114613bbd57600080fd5b5056fea2646970667358221220e537090c683b911c41e89828b8a2ccc2d7716ac0d8d0a1856754d3c350a871ab64736f6c63430008060033",
  "immutableReferences": {},
  "source": "pragma solidity ^0.8.0;\n\nimport \"@openzeppelin/contracts/token/ERC721/ERC721.sol\";\nimport \"@openzeppelin/contracts/utils/Counters.sol\";\nimport \"@openzeppelin/contracts/access/Ownable.sol\";\n\ncontract ViridianNFT is ERC721, Ownable {\n\n    using Counters for Counters.Counter;\n    Counters.Counter private _tokenIds;\n    mapping(string => uint8) hashes;\n    \n    constructor() ERC721(\"Viridian NFT\", \"VNFT\") {}\n\n    using Strings for uint256;\n\n\n    //TODO: Maybe add restrictions to NFT usage when it is listed on the exchange, do not allow ownership transfer \n    // while it is listed for sale or offer to avoid issues with invalid purchasing, or just protect from transactions going through\n    // on exchange, ask someone about this scenario.\n    struct NFT {\n        uint256 id;\n        string uri;\n    }\n    \n    // Optional mapping for token URIs\n    mapping (uint256 => string) private _tokenURIs;\n\n    mapping (uint256 => bool) private _tokensListed;\n\n    mapping (address => uint256[]) private _ownedNFTs;\n\n    address private viridianExchangeAddress;\n\n    // Base URI\n    string private _baseURIextended;\n\n    function setExchangeAddress(address ea) public onlyOwner() {\n        viridianExchangeAddress = ea;\n    }\n    \n    function setBaseURI(string memory baseURI_) external onlyOwner() {\n        _baseURIextended = baseURI_;\n    }\n    \n    function _setTokenURI(uint256 tokenId, string memory _tokenURI) internal virtual {\n        require(_exists(tokenId), \"ERC721Metadata: URI set of nonexistent token\");\n        _tokenURIs[tokenId] = _tokenURI;\n    }\n    \n    function _baseURI() internal view virtual override returns (string memory) {\n        return _baseURIextended;\n    }\n    \n    function tokenURI(uint256 tokenId) public view virtual override returns (string memory) {\n        require(_exists(tokenId), \"ERC721Metadata: URI query for nonexistent token\");\n\n        string memory _tokenURI = _tokenURIs[tokenId];\n        string memory base = _baseURI();\n        \n        // If there is no base URI, return the token URI.\n        if (bytes(base).length == 0) {\n            return _tokenURI;\n        }\n        // If both are set, concatenate the baseURI and tokenURI (via abi.encodePacked).\n        if (bytes(_tokenURI).length > 0) {\n            return string(abi.encodePacked(base, _tokenURI));\n        }\n        // If there is a baseURI but no tokenURI, concatenate the tokenID to the baseURI.\n        return string(abi.encodePacked(base, tokenId.toString()));\n    }\n\n    function getOwnedNFTs() public view virtual returns (uint256[] memory) {\n        uint256[] memory _tokens = _ownedNFTs[msg.sender];\n        \n        return _tokens;\n    }\n\n    function mint(\n        address _to,\n        string memory tokenURI_\n    ) external onlyOwner() {\n        _tokenIds.increment();\n        uint256 _tokenId = _tokenIds.current();\n\n        _mint(_to, _tokenId);\n        _ownedNFTs[_to].push(_tokenId);\n        _tokensListed[_tokenId] = false;\n        _setTokenURI(_tokenId, tokenURI_);\n    }\n\n    function burn(uint256 tokenId) public {\n        require(_isApprovedOrOwner(msg.sender, tokenId));\n        _burn(tokenId);\n    }\n\n    function awardItem(address recipient, string memory hash, string memory metadata) public returns (uint256) {\n        require(hashes[hash] != 1);\n        hashes[hash] = 1;\n        _tokenIds.increment();\n        uint256 newItemId = _tokenIds.current();\n        _mint(recipient, newItemId);\n        _setTokenURI(newItemId, metadata);\n        return newItemId;\n    }\n\n    function safeTransferFrom(address from, address to, uint256 tokenId) public override {\n        require(!_tokensListed[tokenId]);\n        for (uint256 i = 0; i < _ownedNFTs[msg.sender].length; i++) {\n            uint256 ownedNFT = _ownedNFTs[msg.sender][i];\n            if (ownedNFT == tokenId) {\n                _ownedNFTs[msg.sender][i] = _ownedNFTs[msg.sender][_ownedNFTs[msg.sender].length - 1];\n                _ownedNFTs[msg.sender].pop();\n            }\n        }\n        _ownedNFTs[to].push(tokenId);\n\n        super.safeTransferFrom(from, to, tokenId);\n    }\n\n    function transferFrom(address from, address to, uint256 tokenId) public override {\n        for (uint256 i = 0; i < _ownedNFTs[msg.sender].length; i++) {\n            uint256 ownedNFT = _ownedNFTs[msg.sender][i];\n            if (ownedNFT == tokenId) {\n                _ownedNFTs[msg.sender][i] = _ownedNFTs[msg.sender][_ownedNFTs[msg.sender].length - 1];\n                _ownedNFTs[msg.sender].pop();\n            }\n        }\n        _ownedNFTs[to].push(tokenId);\n\n        super.transferFrom(from, to, tokenId);\n    }\n}",
  "sourcePath": "/Users/blakehatch/Viridian-Exchange-Contracts/contracts/ViridianNFT.sol",
  "compiler": {
    "name": "solc",
    "version": "0.8.6+commit.11564f7e.Emscripten.clang"
  },
  "schemaVersion": "3.4.1",
  "updatedAt": "2021-08-02T18:29:10.164Z",
  "networkType": "ethereum",
  "devdoc": {
    "kind": "dev",
    "methods": {
      "approve(address,uint256)": {
        "details": "See {IERC721-approve}."
      },
      "balanceOf(address)": {
        "details": "See {IERC721-balanceOf}."
      },
      "getApproved(uint256)": {
        "details": "See {IERC721-getApproved}."
      },
      "isApprovedForAll(address,address)": {
        "details": "See {IERC721-isApprovedForAll}."
      },
      "name()": {
        "details": "See {IERC721Metadata-name}."
      },
      "owner()": {
        "details": "Returns the address of the current owner."
      },
      "ownerOf(uint256)": {
        "details": "See {IERC721-ownerOf}."
      },
      "renounceOwnership()": {
        "details": "Leaves the contract without owner. It will not be possible to call `onlyOwner` functions anymore. Can only be called by the current owner. NOTE: Renouncing ownership will leave the contract without an owner, thereby removing any functionality that is only available to the owner."
      },
      "safeTransferFrom(address,address,uint256)": {
        "details": "See {IERC721-safeTransferFrom}."
      },
      "safeTransferFrom(address,address,uint256,bytes)": {
        "details": "See {IERC721-safeTransferFrom}."
      },
      "setApprovalForAll(address,bool)": {
        "details": "See {IERC721-setApprovalForAll}."
      },
      "supportsInterface(bytes4)": {
        "details": "See {IERC165-supportsInterface}."
      },
      "symbol()": {
        "details": "See {IERC721Metadata-symbol}."
      },
      "tokenURI(uint256)": {
        "details": "See {IERC721Metadata-tokenURI}."
      },
      "transferFrom(address,address,uint256)": {
        "details": "See {IERC721-transferFrom}."
      },
      "transferOwnership(address)": {
        "details": "Transfers ownership of the contract to a new account (`newOwner`). Can only be called by the current owner."
      }
    },
    "version": 1
  },
  "userdoc": {
    "kind": "user",
    "methods": {},
    "version": 1
  }
}