{
  "contractName": "ViridianExchange",
  "abi": [
    {
      "inputs": [
        {
          "internalType": "uint256",
          "name": "",
          "type": "uint256"
        }
      ],
      "name": "users",
      "outputs": [
        {
          "internalType": "address",
          "name": "wallet",
          "type": "address"
        },
        {
          "internalType": "string",
          "name": "displayName",
          "type": "string"
        },
        {
          "internalType": "string",
          "name": "coverPhotoURL",
          "type": "string"
        },
        {
          "internalType": "string",
          "name": "profilePhotoURL",
          "type": "string"
        },
        {
          "internalType": "string",
          "name": "bio",
          "type": "string"
        }
      ],
      "stateMutability": "view",
      "type": "function",
      "constant": true
    },
    {
      "inputs": [],
      "name": "getListings",
      "outputs": [
        {
          "components": [
            {
              "internalType": "uint256",
              "name": "listingId",
              "type": "uint256"
            },
            {
              "internalType": "uint256",
              "name": "tokenId",
              "type": "uint256"
            },
            {
              "internalType": "address",
              "name": "owner",
              "type": "address"
            },
            {
              "internalType": "uint256",
              "name": "price",
              "type": "uint256"
            },
            {
              "internalType": "bool",
              "name": "purchased",
              "type": "bool"
            },
            {
              "internalType": "uint256",
              "name": "royalty",
              "type": "uint256"
            },
            {
              "internalType": "bool",
              "name": "isAuction",
              "type": "bool"
            },
            {
              "internalType": "uint256",
              "name": "endTime",
              "type": "uint256"
            }
          ],
          "internalType": "struct ViridianExchange.Listing[]",
          "name": "",
          "type": "tuple[]"
        }
      ],
      "stateMutability": "view",
      "type": "function",
      "constant": true
    },
    {
      "inputs": [
        {
          "internalType": "address",
          "name": "vnftAddr",
          "type": "address"
        },
        {
          "internalType": "uint256",
          "name": "_nftId",
          "type": "uint256"
        }
      ],
      "name": "getNftOwner",
      "outputs": [
        {
          "internalType": "bool",
          "name": "",
          "type": "bool"
        }
      ],
      "stateMutability": "payable",
      "type": "function",
      "payable": true
    },
    {
      "inputs": [
        {
          "internalType": "uint256",
          "name": "_nftId",
          "type": "uint256"
        },
        {
          "internalType": "uint256",
          "name": "_price",
          "type": "uint256"
        },
        {
          "internalType": "uint256",
          "name": "_royalty",
          "type": "uint256"
        },
        {
          "internalType": "bool",
          "name": "_isAuction",
          "type": "bool"
        },
        {
          "internalType": "uint256",
          "name": "_endTime",
          "type": "uint256"
        },
        {
          "internalType": "address",
          "name": "vnftAddr",
          "type": "address"
        }
      ],
      "name": "putUpForSale",
      "outputs": [],
      "stateMutability": "payable",
      "type": "function",
      "payable": true
    },
    {
      "inputs": [
        {
          "components": [
            {
              "internalType": "uint256",
              "name": "listingId",
              "type": "uint256"
            },
            {
              "internalType": "uint256",
              "name": "tokenId",
              "type": "uint256"
            },
            {
              "internalType": "address",
              "name": "owner",
              "type": "address"
            },
            {
              "internalType": "uint256",
              "name": "price",
              "type": "uint256"
            },
            {
              "internalType": "bool",
              "name": "purchased",
              "type": "bool"
            },
            {
              "internalType": "uint256",
              "name": "royalty",
              "type": "uint256"
            },
            {
              "internalType": "bool",
              "name": "isAuction",
              "type": "bool"
            },
            {
              "internalType": "uint256",
              "name": "endTime",
              "type": "uint256"
            }
          ],
          "internalType": "struct ViridianExchange.Listing",
          "name": "_listing",
          "type": "tuple"
        }
      ],
      "name": "pullFromSale",
      "outputs": [],
      "stateMutability": "nonpayable",
      "type": "function"
    },
    {
      "inputs": [],
      "name": "withdrawNFT",
      "outputs": [],
      "stateMutability": "nonpayable",
      "type": "function"
    }
  ],
  "bytecode": "0x608060405234801561001057600080fd5b50611706806100206000396000f3fe6080604052600436106100555760003560e01c806333b1fc9f1461005a578063365b98b21461007657806350446136146100b75780635e38c954146100e7578063ad2f00d4146100fe578063f1b2d6a314610127575b600080fd5b610074600480360381019061006f9190611052565b610152565b005b34801561008257600080fd5b5061009d60048036038101906100989190611025565b6103d8565b6040516100ae9594939291906112d3565b60405180910390f35b6100d160048036038101906100cc9190610fb7565b61065e565b6040516100de9190611364565b60405180910390f35b3480156100f357600080fd5b506100fc61076f565b005b34801561010a57600080fd5b5061012560048036038101906101209190610ff7565b610771565b005b34801561013357600080fd5b5061013c610b93565b6040516101499190611342565b60405180910390f35b61015c6000610cb1565b60006101686000610cc7565b905060006040518061010001604052808381526020018981526020013373ffffffffffffffffffffffffffffffffffffffff1681526020018881526020016000151581526020018781526020018615158152602001858152509050600260003373ffffffffffffffffffffffffffffffffffffffff1673ffffffffffffffffffffffffffffffffffffffff168152602001908152602001600020819080600181540180825580915050600190039060005260206000209060080201600090919091909150600082015181600001556020820151816001015560408201518160020160006101000a81548173ffffffffffffffffffffffffffffffffffffffff021916908373ffffffffffffffffffffffffffffffffffffffff1602179055506060820151816003015560808201518160040160006101000a81548160ff02191690831515021790555060a0820151816005015560c08201518160060160006101000a81548160ff02191690831515021790555060e0820151816007015550506003819080600181540180825580915050600190039060005260206000209060080201600090919091909150600082015181600001556020820151816001015560408201518160020160006101000a81548173ffffffffffffffffffffffffffffffffffffffff021916908373ffffffffffffffffffffffffffffffffffffffff1602179055506060820151816003015560808201518160040160006101000a81548160ff02191690831515021790555060a0820151816005015560c08201518160060160006101000a81548160ff02191690831515021790555060e0820151816007015550505050505050505050565b600481815481106103e857600080fd5b90600052602060002090600802016000915090508060000160009054906101000a900473ffffffffffffffffffffffffffffffffffffffff1690806001018054610431906114d9565b80601f016020809104026020016040519081016040528092919081815260200182805461045d906114d9565b80156104aa5780601f1061047f576101008083540402835291602001916104aa565b820191906000526020600020905b81548152906001019060200180831161048d57829003601f168201915b5050505050908060020180546104bf906114d9565b80601f01602080910402602001604051908101604052809291908181526020018280546104eb906114d9565b80156105385780601f1061050d57610100808354040283529160200191610538565b820191906000526020600020905b81548152906001019060200180831161051b57829003601f168201915b50505050509080600301805461054d906114d9565b80601f0160208091040260200160405190810160405280929190818152602001828054610579906114d9565b80156105c65780601f1061059b576101008083540402835291602001916105c6565b820191906000526020600020905b8154815290600101906020018083116105a957829003601f168201915b5050505050908060040180546105db906114d9565b80601f0160208091040260200160405190810160405280929190818152602001828054610607906114d9565b80156106545780601f1061062957610100808354040283529160200191610654565b820191906000526020600020905b81548152906001019060200180831161063757829003601f168201915b5050505050905085565b60008060008473ffffffffffffffffffffffffffffffffffffffff1634620186a09086604051602401610691919061137f565b6040516020818303038152906040527f6352211e000000000000000000000000000000000000000000000000000000007bffffffffffffffffffffffffffffffffffffffffffffffffffffffff19166020820180517bffffffffffffffffffffffffffffffffffffffffffffffffffffffff838183161783525050505060405161071b91906112bc565b600060405180830381858888f193505050503d8060008114610759576040519150601f19603f3d011682016040523d82523d6000602084013e61075e565b606091505b509150915060019250505092915050565b565b3373ffffffffffffffffffffffffffffffffffffffff16816040015173ffffffffffffffffffffffffffffffffffffffff16146107ad57600080fd5b6000600260003373ffffffffffffffffffffffffffffffffffffffff1673ffffffffffffffffffffffffffffffffffffffff168152602001908152602001600020905060005b8180549050811015610b8e57600082828154811061081457610813611612565b5b90600052602060002090600802016040518061010001604052908160008201548152602001600182015481526020016002820160009054906101000a900473ffffffffffffffffffffffffffffffffffffffff1673ffffffffffffffffffffffffffffffffffffffff1673ffffffffffffffffffffffffffffffffffffffff168152602001600382015481526020016004820160009054906101000a900460ff16151515158152602001600582015481526020016006820160009054906101000a900460ff161515151581526020016007820154815250509050836000015181600001511415610b7a578260018480549050610910919061142a565b8154811061092157610920611612565b5b906000526020600020906008020183838154811061094257610941611612565b5b906000526020600020906008020160008201548160000155600182015481600101556002820160009054906101000a900473ffffffffffffffffffffffffffffffffffffffff168160020160006101000a81548173ffffffffffffffffffffffffffffffffffffffff021916908373ffffffffffffffffffffffffffffffffffffffff160217905550600382015481600301556004820160009054906101000a900460ff168160040160006101000a81548160ff021916908315150217905550600582015481600501556006820160009054906101000a900460ff168160060160006101000a81548160ff0219169083151502179055506007820154816007015590505082600260003373ffffffffffffffffffffffffffffffffffffffff1673ffffffffffffffffffffffffffffffffffffffff168152602001908152602001600020908054610a94929190610cd5565b50600260003373ffffffffffffffffffffffffffffffffffffffff1673ffffffffffffffffffffffffffffffffffffffff168152602001908152602001600020805480610ae457610ae36115e3565b5b600190038181906000526020600020906008020160008082016000905560018201600090556002820160006101000a81549073ffffffffffffffffffffffffffffffffffffffff021916905560038201600090556004820160006101000a81549060ff021916905560058201600090556006820160006101000a81549060ff021916905560078201600090555050905550610b8e565b508080610b869061153c565b9150506107f3565b505050565b60606003805480602002602001604051908101604052809291908181526020016000905b82821015610ca857838290600052602060002090600802016040518061010001604052908160008201548152602001600182015481526020016002820160009054906101000a900473ffffffffffffffffffffffffffffffffffffffff1673ffffffffffffffffffffffffffffffffffffffff1673ffffffffffffffffffffffffffffffffffffffff168152602001600382015481526020016004820160009054906101000a900460ff16151515158152602001600582015481526020016006820160009054906101000a900460ff1615151515815260200160078201548152505081526020019060010190610bb7565b50505050905090565b6001816000016000828254019250508190555050565b600081600001549050919050565b828054828255906000526020600020906008028101928215610e0f5760005260206000209160080282015b82811115610e0e57828260008201548160000155600182015481600101556002820160009054906101000a900473ffffffffffffffffffffffffffffffffffffffff168160020160006101000a81548173ffffffffffffffffffffffffffffffffffffffff021916908373ffffffffffffffffffffffffffffffffffffffff160217905550600382015481600301556004820160009054906101000a900460ff168160040160006101000a81548160ff021916908315150217905550600582015481600501556006820160009054906101000a900460ff168160060160006101000a81548160ff02191690831515021790555060078201548160070155505091600801919060080190610d00565b5b509050610e1c9190610e20565b5090565b5b80821115610eaa5760008082016000905560018201600090556002820160006101000a81549073ffffffffffffffffffffffffffffffffffffffff021916905560038201600090556004820160006101000a81549060ff021916905560058201600090556006820160006101000a81549060ff0219169055600782016000905550600801610e21565b5090565b600081359050610ebd8161168b565b92915050565b600081359050610ed2816116a2565b92915050565b60006101008284031215610eef57610eee611670565b5b610efa61010061139a565b90506000610f0a84828501610fa2565b6000830152506020610f1e84828501610fa2565b6020830152506040610f3284828501610eae565b6040830152506060610f4684828501610fa2565b6060830152506080610f5a84828501610ec3565b60808301525060a0610f6e84828501610fa2565b60a08301525060c0610f8284828501610ec3565b60c08301525060e0610f9684828501610fa2565b60e08301525092915050565b600081359050610fb1816116b9565b92915050565b60008060408385031215610fce57610fcd611675565b5b6000610fdc85828601610eae565b9250506020610fed85828601610fa2565b9150509250929050565b6000610100828403121561100e5761100d611675565b5b600061101c84828501610ed8565b91505092915050565b60006020828403121561103b5761103a611675565b5b600061104984828501610fa2565b91505092915050565b60008060008060008060c0878903121561106f5761106e611675565b5b600061107d89828a01610fa2565b965050602061108e89828a01610fa2565b955050604061109f89828a01610fa2565b94505060606110b089828a01610ec3565b93505060806110c189828a01610fa2565b92505060a06110d289828a01610eae565b9150509295509295509295565b60006110eb83836111fc565b6101008301905092915050565b6111018161145e565b82525050565b6111108161145e565b82525050565b6000611121826113cf565b61112b81856113fd565b9350611136836113bf565b8060005b8381101561116757815161114e88826110df565b9750611159836113f0565b92505060018101905061113a565b5085935050505092915050565b61117d81611470565b82525050565b61118c81611470565b82525050565b600061119d826113da565b6111a7818561140e565b93506111b78185602086016114a6565b80840191505092915050565b60006111ce826113e5565b6111d88185611419565b93506111e88185602086016114a6565b6111f18161167a565b840191505092915050565b61010082016000820151611213600085018261129e565b506020820151611226602085018261129e565b50604082015161123960408501826110f8565b50606082015161124c606085018261129e565b50608082015161125f6080850182611174565b5060a082015161127260a085018261129e565b5060c082015161128560c0850182611174565b5060e082015161129860e085018261129e565b50505050565b6112a78161149c565b82525050565b6112b68161149c565b82525050565b60006112c88284611192565b915081905092915050565b600060a0820190506112e86000830188611107565b81810360208301526112fa81876111c3565b9050818103604083015261130e81866111c3565b9050818103606083015261132281856111c3565b9050818103608083015261133681846111c3565b90509695505050505050565b6000602082019050818103600083015261135c8184611116565b905092915050565b60006020820190506113796000830184611183565b92915050565b600060208201905061139460008301846112ad565b92915050565b60006113a46113b5565b90506113b0828261150b565b919050565b6000604051905090565b6000819050602082019050919050565b600081519050919050565b600081519050919050565b600081519050919050565b6000602082019050919050565b600082825260208201905092915050565b600081905092915050565b600082825260208201905092915050565b60006114358261149c565b91506114408361149c565b92508282101561145357611452611585565b5b828203905092915050565b60006114698261147c565b9050919050565b60008115159050919050565b600073ffffffffffffffffffffffffffffffffffffffff82169050919050565b6000819050919050565b60005b838110156114c45780820151818401526020810190506114a9565b838111156114d3576000848401525b50505050565b600060028204905060018216806114f157607f821691505b60208210811415611505576115046115b4565b5b50919050565b6115148261167a565b810181811067ffffffffffffffff8211171561153357611532611641565b5b80604052505050565b60006115478261149c565b91507fffffffffffffffffffffffffffffffffffffffffffffffffffffffffffffffff82141561157a57611579611585565b5b600182019050919050565b7f4e487b7100000000000000000000000000000000000000000000000000000000600052601160045260246000fd5b7f4e487b7100000000000000000000000000000000000000000000000000000000600052602260045260246000fd5b7f4e487b7100000000000000000000000000000000000000000000000000000000600052603160045260246000fd5b7f4e487b7100000000000000000000000000000000000000000000000000000000600052603260045260246000fd5b7f4e487b7100000000000000000000000000000000000000000000000000000000600052604160045260246000fd5b600080fd5b600080fd5b6000601f19601f8301169050919050565b6116948161145e565b811461169f57600080fd5b50565b6116ab81611470565b81146116b657600080fd5b50565b6116c28161149c565b81146116cd57600080fd5b5056fea264697066735822122024e3fcdc1b5a81efe35cd36b577c8a364d204eb69e188c3ccbfaecf7fd02277d64736f6c63430008060033",
  "immutableReferences": {},
  "source": "pragma solidity ^0.8.0;\n\nimport \"@openzeppelin/contracts/access/Ownable.sol\";\nimport \"@openzeppelin/contracts/token/ERC721/ERC721.sol\";\nimport \"@openzeppelin/contracts/token/ERC20/IERC20.sol\";\nimport \"./ViridianNFT.sol\";\n\ncontract ViridianExchange {\n\n    struct User {\n        address wallet;\n        string displayName;\n        string coverPhotoURL;\n        string profilePhotoURL;\n        string bio;\n        User[] following;\n        User[] followers;\n        uint256[] likes;\n    }\n\n    struct Trade {\n        uint256[] nftIds;\n        uint vextAmt;\n        address _to;\n        address _from;\n        bool pending;\n    }\n\n    using Counters for Counters.Counter;\n    Counters.Counter private _listingIds;\n\n    //address vNFTContract = \n    \n    struct Listing {\n        uint256 listingId;\n        uint256 tokenId;\n        address owner;\n        uint256 price;\n        bool purchased;\n        uint256 royalty;\n        bool isAuction;\n        uint256 endTime;\n    }\n\n    struct Collection {\n        string description;\n        uint256[] collectionNFTs;\n    }\n\n    //string[] public nftIds;\n    mapping (address => Collection) displayCases;\n    mapping (address => Listing[]) userListings;\n    Listing[] private listings;\n    User[] public users;\n\n    function getListings() public view returns (Listing[] memory) {\n        return listings;\n    }\n\n    function getNftOwner(address vnftAddr, uint256 _nftId) public payable returns (bool) {\n        (bool success, bytes memory data) = vnftAddr.call{value: msg.value, gas: 100000}(\n                abi.encodeWithSignature(\"ownerOf(uint256)\", _nftId));\n        \n        return true;\n    }\n\n    function putUpForSale(uint256 _nftId, uint256 _price, uint256 _royalty, bool _isAuction, uint256 _endTime, address vnftAddr) public payable {\n        //require(getNftOwner == msg.sender);\n        // Figure out a way to get this require to work\n        _listingIds.increment();\n        uint256 _listingId = _listingIds.current();\n        Listing memory saleListing = Listing(_listingId, _nftId, msg.sender, _price, false, _royalty, _isAuction, _endTime);\n        userListings[msg.sender].push(saleListing);\n        listings.push(saleListing);\n    }\n\n    function pullFromSale(Listing memory _listing) public {\n        require(_listing.owner == msg.sender);\n        Listing[] storage curUserListings = userListings[msg.sender];\n        for (uint i = 0; i < curUserListings.length; i++) {\n            Listing memory listing = curUserListings[i];\n            if (listing.listingId == _listing.listingId) {\n                curUserListings[i] = curUserListings[curUserListings.length - 1];\n                userListings[msg.sender] = curUserListings;\n                userListings[msg.sender].pop();\n                break;\n            }\n        }\n    }\n\n    function withdrawNFT() public {\n        //Burn NFT\n        //Send message to prompt front-end email sending\n    }\n}",
  "sourcePath": "/Users/blakehatch/Viridian-Exchange-Contracts/contracts/ViridianExchange.sol",
  "compiler": {
    "name": "solc",
    "version": "0.8.6+commit.11564f7e.Emscripten.clang"
  },
  "schemaVersion": "3.4.1",
  "updatedAt": "2021-07-19T16:18:52.080Z",
  "networkType": "ethereum",
  "devdoc": {
    "kind": "dev",
    "methods": {},
    "version": 1
  },
  "userdoc": {
    "kind": "user",
    "methods": {},
    "version": 1
  }
}