{
  "contractName": "ViridianToken",
  "abi": [
    {
      "inputs": [],
      "stateMutability": "nonpayable",
      "type": "constructor"
    },
    {
      "anonymous": false,
      "inputs": [
        {
          "indexed": true,
          "internalType": "address",
          "name": "_owner",
          "type": "address"
        },
        {
          "indexed": true,
          "internalType": "address",
          "name": "_spender",
          "type": "address"
        },
        {
          "indexed": false,
          "internalType": "uint256",
          "name": "_value",
          "type": "uint256"
        }
      ],
      "name": "Approval",
      "type": "event"
    },
    {
      "anonymous": false,
      "inputs": [
        {
          "indexed": true,
          "internalType": "address",
          "name": "_from",
          "type": "address"
        },
        {
          "indexed": true,
          "internalType": "address",
          "name": "_to",
          "type": "address"
        },
        {
          "indexed": false,
          "internalType": "uint256",
          "name": "_value",
          "type": "uint256"
        }
      ],
      "name": "Transfer",
      "type": "event"
    },
    {
      "stateMutability": "nonpayable",
      "type": "fallback"
    },
    {
      "inputs": [
        {
          "internalType": "address",
          "name": "_owner",
          "type": "address"
        },
        {
          "internalType": "address",
          "name": "_spender",
          "type": "address"
        }
      ],
      "name": "allowance",
      "outputs": [
        {
          "internalType": "uint256",
          "name": "remaining",
          "type": "uint256"
        }
      ],
      "stateMutability": "view",
      "type": "function",
      "constant": true
    },
    {
      "inputs": [
        {
          "internalType": "address",
          "name": "_spender",
          "type": "address"
        },
        {
          "internalType": "uint256",
          "name": "_value",
          "type": "uint256"
        }
      ],
      "name": "approve",
      "outputs": [
        {
          "internalType": "bool",
          "name": "success",
          "type": "bool"
        }
      ],
      "stateMutability": "nonpayable",
      "type": "function"
    },
    {
      "inputs": [
        {
          "internalType": "address",
          "name": "_owner",
          "type": "address"
        }
      ],
      "name": "balanceOf",
      "outputs": [
        {
          "internalType": "uint256",
          "name": "balance",
          "type": "uint256"
        }
      ],
      "stateMutability": "view",
      "type": "function",
      "constant": true
    },
    {
      "inputs": [],
      "name": "decimals",
      "outputs": [
        {
          "internalType": "uint8",
          "name": "",
          "type": "uint8"
        }
      ],
      "stateMutability": "view",
      "type": "function",
      "constant": true
    },
    {
      "inputs": [],
      "name": "name",
      "outputs": [
        {
          "internalType": "string",
          "name": "",
          "type": "string"
        }
      ],
      "stateMutability": "view",
      "type": "function",
      "constant": true
    },
    {
      "inputs": [],
      "name": "symbol",
      "outputs": [
        {
          "internalType": "string",
          "name": "",
          "type": "string"
        }
      ],
      "stateMutability": "view",
      "type": "function",
      "constant": true
    },
    {
      "inputs": [],
      "name": "totalSupply",
      "outputs": [
        {
          "internalType": "uint256",
          "name": "",
          "type": "uint256"
        }
      ],
      "stateMutability": "view",
      "type": "function",
      "constant": true
    },
    {
      "inputs": [
        {
          "internalType": "address",
          "name": "_to",
          "type": "address"
        },
        {
          "internalType": "uint256",
          "name": "_value",
          "type": "uint256"
        }
      ],
      "name": "transfer",
      "outputs": [
        {
          "internalType": "bool",
          "name": "success",
          "type": "bool"
        }
      ],
      "stateMutability": "nonpayable",
      "type": "function"
    },
    {
      "inputs": [
        {
          "internalType": "address",
          "name": "_from",
          "type": "address"
        },
        {
          "internalType": "address",
          "name": "_to",
          "type": "address"
        },
        {
          "internalType": "uint256",
          "name": "_value",
          "type": "uint256"
        }
      ],
      "name": "transferFrom",
      "outputs": [
        {
          "internalType": "bool",
          "name": "success",
          "type": "bool"
        }
      ],
      "stateMutability": "nonpayable",
      "type": "function"
    },
    {
      "inputs": [],
      "name": "version",
      "outputs": [
        {
          "internalType": "string",
          "name": "",
          "type": "string"
        }
      ],
      "stateMutability": "view",
      "type": "function",
      "constant": true
    },
    {
      "inputs": [
        {
          "internalType": "address",
          "name": "_spender",
          "type": "address"
        },
        {
          "internalType": "uint256",
          "name": "_value",
          "type": "uint256"
        },
        {
          "internalType": "bytes",
          "name": "_extraData",
          "type": "bytes"
        }
      ],
      "name": "approveAndCall",
      "outputs": [
        {
          "internalType": "bool",
          "name": "success",
          "type": "bool"
        }
      ],
      "stateMutability": "payable",
      "type": "function",
      "payable": true
    }
  ],
  "bytecode": "0x60806040526040518060400160405280600481526020017f48312e300000000000000000000000000000000000000000000000000000000081525060069080519060200190620000519291906200016f565b503480156200005f57600080fd5b5062e4e1c06000803373ffffffffffffffffffffffffffffffffffffffff1673ffffffffffffffffffffffffffffffffffffffff168152602001908152602001600020819055506305f5e1006002819055506040518060400160405280600e81526020017f566972696469616e20546f6b656e00000000000000000000000000000000000081525060039080519060200190620000fe9291906200016f565b506000600460006101000a81548160ff021916908360ff1602179055506040518060400160405280600481526020017f564558540000000000000000000000000000000000000000000000000000000081525060059080519060200190620001689291906200016f565b5062000284565b8280546200017d906200021f565b90600052602060002090601f016020900481019282620001a15760008555620001ed565b82601f10620001bc57805160ff1916838001178555620001ed565b82800160010185558215620001ed579182015b82811115620001ec578251825591602001919060010190620001cf565b5b509050620001fc919062000200565b5090565b5b808211156200021b57600081600090555060010162000201565b5090565b600060028204905060018216806200023857607f821691505b602082108114156200024f576200024e62000255565b5b50919050565b7f4e487b7100000000000000000000000000000000000000000000000000000000600052602260045260246000fd5b6113a680620002946000396000f3fe6080604052600436106100a05760003560e01c806354fd4d501161006457806354fd4d50146101ae57806370a08231146101d957806395d89b4114610216578063a9059cbb14610241578063cae9ca511461027e578063dd62ed3e146102ae576100a1565b806306fdde03146100b3578063095ea7b3146100de57806318160ddd1461011b57806323b872dd14610146578063313ce56714610183576100a1565b5b3480156100ad57600080fd5b50600080fd5b3480156100bf57600080fd5b506100c86102eb565b6040516100d59190610ff7565b60405180910390f35b3480156100ea57600080fd5b5061010560048036038101906101009190610ddc565b610379565b6040516101129190610fdc565b60405180910390f35b34801561012757600080fd5b5061013061046b565b60405161013d9190611019565b60405180910390f35b34801561015257600080fd5b5061016d60048036038101906101689190610d89565b610471565b60405161017a9190610fdc565b60405180910390f35b34801561018f57600080fd5b50610198610705565b6040516101a59190611034565b60405180910390f35b3480156101ba57600080fd5b506101c3610718565b6040516101d09190610ff7565b60405180910390f35b3480156101e557600080fd5b5061020060048036038101906101fb9190610d1c565b6107a6565b60405161020d9190611019565b60405180910390f35b34801561022257600080fd5b5061022b6107ee565b6040516102389190610ff7565b60405180910390f35b34801561024d57600080fd5b5061026860048036038101906102639190610ddc565b61087c565b6040516102759190610fdc565b60405180910390f35b61029860048036038101906102939190610e1c565b6109f4565b6040516102a59190610fdc565b60405180910390f35b3480156102ba57600080fd5b506102d560048036038101906102d09190610d49565b610bfb565b6040516102e29190611019565b60405180910390f35b600380546102f89061122d565b80601f01602080910402602001604051908101604052809291908181526020018280546103249061122d565b80156103715780601f1061034657610100808354040283529160200191610371565b820191906000526020600020905b81548152906001019060200180831161035457829003601f168201915b505050505081565b600081600160003373ffffffffffffffffffffffffffffffffffffffff1673ffffffffffffffffffffffffffffffffffffffff16815260200190815260200160002060008573ffffffffffffffffffffffffffffffffffffffff1673ffffffffffffffffffffffffffffffffffffffff168152602001908152602001600020819055508273ffffffffffffffffffffffffffffffffffffffff163373ffffffffffffffffffffffffffffffffffffffff167f8c5be1e5ebec7d5bd14f71427d1e84f3dd0314c0f7b2291e5b200ac8c7c3b925846040516104599190611019565b60405180910390a36001905092915050565b60025481565b6000816000808673ffffffffffffffffffffffffffffffffffffffff1673ffffffffffffffffffffffffffffffffffffffff168152602001908152602001600020541015801561053d575081600160008673ffffffffffffffffffffffffffffffffffffffff1673ffffffffffffffffffffffffffffffffffffffff16815260200190815260200160002060003373ffffffffffffffffffffffffffffffffffffffff1673ffffffffffffffffffffffffffffffffffffffff1681526020019081526020016000205410155b80156105495750600082115b156106f957816000808573ffffffffffffffffffffffffffffffffffffffff1673ffffffffffffffffffffffffffffffffffffffff168152602001908152602001600020600082825461059c91906110e8565b92505081905550816000808673ffffffffffffffffffffffffffffffffffffffff1673ffffffffffffffffffffffffffffffffffffffff16815260200190815260200160002060008282546105f1919061113e565b9250508190555081600160008673ffffffffffffffffffffffffffffffffffffffff1673ffffffffffffffffffffffffffffffffffffffff16815260200190815260200160002060003373ffffffffffffffffffffffffffffffffffffffff1673ffffffffffffffffffffffffffffffffffffffff1681526020019081526020016000206000828254610684919061113e565b925050819055508273ffffffffffffffffffffffffffffffffffffffff168473ffffffffffffffffffffffffffffffffffffffff167fddf252ad1be2c89b69c2b068fc378daa952ba7f163c4a11628f55a4df523b3ef846040516106e89190611019565b60405180910390a3600190506106fe565b600090505b9392505050565b600460009054906101000a900460ff1681565b600680546107259061122d565b80601f01602080910402602001604051908101604052809291908181526020018280546107519061122d565b801561079e5780601f106107735761010080835404028352916020019161079e565b820191906000526020600020905b81548152906001019060200180831161078157829003601f168201915b505050505081565b60008060008373ffffffffffffffffffffffffffffffffffffffff1673ffffffffffffffffffffffffffffffffffffffff168152602001908152602001600020549050919050565b600580546107fb9061122d565b80601f01602080910402602001604051908101604052809291908181526020018280546108279061122d565b80156108745780601f1061084957610100808354040283529160200191610874565b820191906000526020600020905b81548152906001019060200180831161085757829003601f168201915b505050505081565b6000816000803373ffffffffffffffffffffffffffffffffffffffff1673ffffffffffffffffffffffffffffffffffffffff16815260200190815260200160002054101580156108cc5750600082115b156109e957816000803373ffffffffffffffffffffffffffffffffffffffff1673ffffffffffffffffffffffffffffffffffffffff168152602001908152602001600020600082825461091f919061113e565b92505081905550816000808573ffffffffffffffffffffffffffffffffffffffff1673ffffffffffffffffffffffffffffffffffffffff168152602001908152602001600020600082825461097491906110e8565b925050819055508273ffffffffffffffffffffffffffffffffffffffff163373ffffffffffffffffffffffffffffffffffffffff167fddf252ad1be2c89b69c2b068fc378daa952ba7f163c4a11628f55a4df523b3ef846040516109d89190611019565b60405180910390a3600190506109ee565b600090505b92915050565b600082600160003373ffffffffffffffffffffffffffffffffffffffff1673ffffffffffffffffffffffffffffffffffffffff16815260200190815260200160002060008673ffffffffffffffffffffffffffffffffffffffff1673ffffffffffffffffffffffffffffffffffffffff168152602001908152602001600020819055508373ffffffffffffffffffffffffffffffffffffffff163373ffffffffffffffffffffffffffffffffffffffff167f8c5be1e5ebec7d5bd14f71427d1e84f3dd0314c0f7b2291e5b200ac8c7c3b92585604051610ad49190611019565b60405180910390a36000808573ffffffffffffffffffffffffffffffffffffffff16346113889033883089604051602401610b129493929190610f90565b6040516020818303038152906040527f8f4ffcb1000000000000000000000000000000000000000000000000000000007bffffffffffffffffffffffffffffffffffffffffffffffffffffffff19166020820180517bffffffffffffffffffffffffffffffffffffffffffffffffffffffff8381831617835250505050604051610b9c9190610f79565b600060405180830381858888f193505050503d8060008114610bda576040519150601f19603f3d011682016040523d82523d6000602084013e610bdf565b606091505b509150915081610bee57600080fd5b6001925050509392505050565b6000600160008473ffffffffffffffffffffffffffffffffffffffff1673ffffffffffffffffffffffffffffffffffffffff16815260200190815260200160002060008373ffffffffffffffffffffffffffffffffffffffff1673ffffffffffffffffffffffffffffffffffffffff16815260200190815260200160002054905092915050565b6000610c95610c9084611074565b61104f565b905082815260208101848484011115610cb157610cb0611322565b5b610cbc8482856111eb565b509392505050565b600081359050610cd381611342565b92915050565b600082601f830112610cee57610ced61131d565b5b8135610cfe848260208601610c82565b91505092915050565b600081359050610d1681611359565b92915050565b600060208284031215610d3257610d3161132c565b5b6000610d4084828501610cc4565b91505092915050565b60008060408385031215610d6057610d5f61132c565b5b6000610d6e85828601610cc4565b9250506020610d7f85828601610cc4565b9150509250929050565b600080600060608486031215610da257610da161132c565b5b6000610db086828701610cc4565b9350506020610dc186828701610cc4565b9250506040610dd286828701610d07565b9150509250925092565b60008060408385031215610df357610df261132c565b5b6000610e0185828601610cc4565b9250506020610e1285828601610d07565b9150509250929050565b600080600060608486031215610e3557610e3461132c565b5b6000610e4386828701610cc4565b9350506020610e5486828701610d07565b925050604084013567ffffffffffffffff811115610e7557610e74611327565b5b610e8186828701610cd9565b9150509250925092565b610e9481611172565b82525050565b610ea381611184565b82525050565b6000610eb4826110a5565b610ebe81856110bb565b9350610ece8185602086016111fa565b610ed781611331565b840191505092915050565b6000610eed826110a5565b610ef781856110cc565b9350610f078185602086016111fa565b80840191505092915050565b610f1c816111c7565b82525050565b6000610f2d826110b0565b610f3781856110d7565b9350610f478185602086016111fa565b610f5081611331565b840191505092915050565b610f64816111b0565b82525050565b610f73816111ba565b82525050565b6000610f858284610ee2565b915081905092915050565b6000608082019050610fa56000830187610e8b565b610fb26020830186610f5b565b610fbf6040830185610f13565b8181036060830152610fd18184610ea9565b905095945050505050565b6000602082019050610ff16000830184610e9a565b92915050565b600060208201905081810360008301526110118184610f22565b905092915050565b600060208201905061102e6000830184610f5b565b92915050565b60006020820190506110496000830184610f6a565b92915050565b600061105961106a565b9050611065828261125f565b919050565b6000604051905090565b600067ffffffffffffffff82111561108f5761108e6112ee565b5b61109882611331565b9050602081019050919050565b600081519050919050565b600081519050919050565b600082825260208201905092915050565b600081905092915050565b600082825260208201905092915050565b60006110f3826111b0565b91506110fe836111b0565b9250827fffffffffffffffffffffffffffffffffffffffffffffffffffffffffffffffff0382111561113357611132611290565b5b828201905092915050565b6000611149826111b0565b9150611154836111b0565b92508282101561116757611166611290565b5b828203905092915050565b600061117d82611190565b9050919050565b60008115159050919050565b600073ffffffffffffffffffffffffffffffffffffffff82169050919050565b6000819050919050565b600060ff82169050919050565b60006111d2826111d9565b9050919050565b60006111e482611190565b9050919050565b82818337600083830152505050565b60005b838110156112185780820151818401526020810190506111fd565b83811115611227576000848401525b50505050565b6000600282049050600182168061124557607f821691505b60208210811415611259576112586112bf565b5b50919050565b61126882611331565b810181811067ffffffffffffffff82111715611287576112866112ee565b5b80604052505050565b7f4e487b7100000000000000000000000000000000000000000000000000000000600052601160045260246000fd5b7f4e487b7100000000000000000000000000000000000000000000000000000000600052602260045260246000fd5b7f4e487b7100000000000000000000000000000000000000000000000000000000600052604160045260246000fd5b600080fd5b600080fd5b600080fd5b600080fd5b6000601f19601f8301169050919050565b61134b81611172565b811461135657600080fd5b50565b611362816111b0565b811461136d57600080fd5b5056fea2646970667358221220728b37c9b5699b43c85de2c0370e60ccaa84906df34b1fe6446caf1f19b952d564736f6c63430008060033",
  "immutableReferences": {},
  "source": "pragma solidity ^0.8.0;\n\nimport \"@openzeppelin/contracts/token/ERC20/IERC20.sol\";\nimport \"@openzeppelin/contracts/access/Ownable.sol\";\n\ncontract Token {\n    /// @return supply : total amount of tokens\n    function totalSupply() virtual external view returns (uint256 supply) {}\n\n    /// @param _owner The address from which the balance will be retrieved\n    /// @return balance : The balance\n    function balanceOf(address _owner) virtual public view returns (uint256 balance) {}\n\n    /// @notice send `_value` token to `_to` from `msg.sender`\n    /// @param _to The address of the recipient\n    /// @param _value The amount of token to be transferred\n    /// @return success : Whether the transfer was successful or not\n    function transfer(address _to, uint256 _value) virtual public returns (bool success) {}\n\n    /// @notice send `_value` token to `_to` from `_from` on the condition it is approved by `_from`\n    /// @param _from The address of the sender\n    /// @param _to The address of the recipient\n    /// @param _value The amount of token to be transferred\n    /// @return success : Whether the transfer was successful or not\n    function transferFrom(address _from, address _to, uint256 _value) virtual public returns (bool success) {}\n\n    /// @notice `msg.sender` approves `_addr` to spend `_value` tokens\n    /// @param _spender The address of the account able to transfer the tokens\n    /// @param _value The amount of wei to be approved for transfer\n    /// @return success : Whether the approval was successful or not\n    function approve(address _spender, uint256 _value) virtual public returns (bool success) {}\n\n    /// @param _owner The address of the account owning tokens\n    /// @param _spender The address of the account able to transfer the tokens\n    /// @return remaining : Amount of remaining tokens allowed to spent\n    function allowance(address _owner, address _spender) virtual public view returns (uint256 remaining) {}\n\n    event Transfer(address indexed _from, address indexed _to, uint256 _value);\n    event Approval(address indexed _owner, address indexed _spender, uint256 _value);\n    \n}\n\n\n\ncontract StandardToken is Token {\n\n    function transfer(address _to, uint256 _value) public override returns (bool success) {\n        //Default assumes totalSupply can't be over max (2^256 - 1).\n        //If your token leaves out totalSupply and can issue more tokens as time goes on, you need to check if it doesn't wrap.\n        //Replace the if with this one instead.\n        //if (balances[msg.sender] >= _value && balances[_to] + _value > balances[_to]) {\n        if (balances[msg.sender] >= _value && _value > 0) {\n            balances[msg.sender] -= _value;\n            balances[_to] += _value;\n            emit Transfer(msg.sender, _to, _value);\n            return true;\n        } else { return false; }\n    }\n\n    function transferFrom(address _from, address _to, uint256 _value) public override returns (bool success) {\n        //same as above. Replace this line with the following if you want to protect against wrapping uints.\n        //if (balances[_from] >= _value && allowed[_from][msg.sender] >= _value && balances[_to] + _value > balances[_to]) {\n        if (balances[_from] >= _value && allowed[_from][msg.sender] >= _value && _value > 0) {\n            balances[_to] += _value;\n            balances[_from] -= _value;\n            allowed[_from][msg.sender] -= _value;\n            emit Transfer(_from, _to, _value);\n            return true;\n        } else { return false; }\n    }\n\n    function balanceOf(address _owner) view public override returns (uint256 balance) {\n        return balances[_owner];\n    }\n\n    function approve(address _spender, uint256 _value) public override returns (bool success) {\n        allowed[msg.sender][_spender] = _value;\n        emit Approval(msg.sender, _spender, _value);\n        return true;\n    }\n\n    function allowance(address _owner, address _spender) view public override returns (uint256 remaining) {\n      return allowed[_owner][_spender];\n    }\n\n    mapping (address => uint256) balances;\n    mapping (address => mapping (address => uint256)) allowed;\n    uint256 public override totalSupply;\n}\n\n\n//name this contract whatever you'd like\ncontract ViridianToken is StandardToken {\n\n    fallback () external {\n        //if ether is sent to this address, send it back.\n        revert();\n    }\n\n    /* Public variables of the token */\n\n    /*\n    NOTE:\n    The following variables are OPTIONAL vanities. One does not have to include them.\n    They allow one to customise the token contract & in no way influences the core functionality.\n    Some wallets/interfaces might not even bother to look at this information.\n    */\n    string public name;                   //fancy name: eg Simon Bucks\n    uint8 public decimals;                //How many decimals to show. ie. There could 1000 base units with 3 decimals. Meaning 0.980 SBX = 980 base units. It's like comparing 1 wei to 1 ether.\n    string public symbol;                 //An identifier: eg SBX\n    string public version = 'H1.0';       //human 0.1 standard. Just an arbitrary versioning scheme.\n\n//\n// CHANGE THESE VALUES FOR YOUR TOKEN\n//\n\n//make sure this function name matches the contract name above. So if you're token is called TutorialToken, make sure the //contract name above is also TutorialToken instead of ERC20Token\n\n    constructor() {\n        balances[msg.sender] = 15000000;               // Give the creator all initial tokens (100000 for example)\n        totalSupply = 100000000;                        // Update total supply (100000 for example)\n        name = \"Viridian Token\";                                   // Set the name for display purposes\n        decimals = 0;                            // Amount of decimals for display purposes\n        symbol = \"VEXT\";                               // Set the symbol for display purposes\n    }\n\n    /* Approves and then calls the receiving contract */\n    function approveAndCall(address _spender, uint256 _value, bytes memory _extraData) public payable returns (bool success) {\n        allowed[msg.sender][_spender] = _value;\n        emit Approval(msg.sender, _spender, _value);\n\n        //call the receiveApproval function on the contract you want to be notified. This crafts the function signature manually so one doesn't have to include a contract in here just for this.\n        //receiveApproval(address _from, uint256 _value, address _tokenContract, bytes _extraData)\n        //it is assumed that when does this that the call *should* succeed, otherwise one would use vanilla approve instead.\n        // if(!_spender.call(bytes4(bytes32(sha3(\"receiveApproval(address,uint256,address,bytes)\"))), msg.sender, _value, this, _extraData)) { revert(); }\n        (bool call_success, bytes memory data) = _spender.call{value: msg.value, gas: 5000}(\n                abi.encodeWithSignature(\"receiveApproval(address,uint256,address,bytes)\", msg.sender, _value, this, _extraData)\n            );\n        \n        if (!call_success) {\n            revert();\n        }\n        return true;\n    }\n}\n",
  "sourcePath": "/Users/blakehatch/Viridian-Exchange-Contracts/contracts/ViridianToken.sol",
  "compiler": {
    "name": "solc",
    "version": "0.8.6+commit.11564f7e.Emscripten.clang"
  },
  "schemaVersion": "3.4.1",
  "updatedAt": "2021-06-27T17:03:29.883Z",
  "networkType": "ethereum",
  "devdoc": {
    "kind": "dev",
    "methods": {
      "allowance(address,address)": {
        "params": {
          "_owner": "The address of the account owning tokens",
          "_spender": "The address of the account able to transfer the tokens"
        },
        "returns": {
          "remaining": ": Amount of remaining tokens allowed to spent"
        }
      },
      "approve(address,uint256)": {
        "params": {
          "_spender": "The address of the account able to transfer the tokens",
          "_value": "The amount of wei to be approved for transfer"
        },
        "returns": {
          "success": ": Whether the approval was successful or not"
        }
      },
      "balanceOf(address)": {
        "params": {
          "_owner": "The address from which the balance will be retrieved"
        },
        "returns": {
          "balance": ": The balance"
        }
      },
      "transfer(address,uint256)": {
        "params": {
          "_to": "The address of the recipient",
          "_value": "The amount of token to be transferred"
        },
        "returns": {
          "success": ": Whether the transfer was successful or not"
        }
      },
      "transferFrom(address,address,uint256)": {
        "params": {
          "_from": "The address of the sender",
          "_to": "The address of the recipient",
          "_value": "The amount of token to be transferred"
        },
        "returns": {
          "success": ": Whether the transfer was successful or not"
        }
      }
    },
    "version": 1
  },
  "userdoc": {
    "kind": "user",
    "methods": {
      "approve(address,uint256)": {
        "notice": "`msg.sender` approves `_addr` to spend `_value` tokens"
      },
      "transfer(address,uint256)": {
        "notice": "send `_value` token to `_to` from `msg.sender`"
      },
      "transferFrom(address,address,uint256)": {
        "notice": "send `_value` token to `_to` from `_from` on the condition it is approved by `_from`"
      }
    },
    "version": 1
  }
}