{
  "contractName": "ViridianExchange",
  "abi": [
    {
      "inputs": [
        {
          "internalType": "address",
          "name": "_viridianToken",
          "type": "address"
        },
        {
          "internalType": "address",
          "name": "_viridianNFT",
          "type": "address"
        }
      ],
      "stateMutability": "nonpayable",
      "type": "constructor"
    },
    {
      "anonymous": false,
      "inputs": [
        {
          "indexed": true,
          "internalType": "address",
          "name": "previousOwner",
          "type": "address"
        },
        {
          "indexed": true,
          "internalType": "address",
          "name": "newOwner",
          "type": "address"
        }
      ],
      "name": "OwnershipTransferred",
      "type": "event"
    },
    {
      "stateMutability": "payable",
      "type": "fallback",
      "payable": true
    },
    {
      "inputs": [],
      "name": "ETH",
      "outputs": [
        {
          "internalType": "address",
          "name": "",
          "type": "address"
        }
      ],
      "stateMutability": "view",
      "type": "function",
      "constant": true
    },
    {
      "inputs": [],
      "name": "owner",
      "outputs": [
        {
          "internalType": "address",
          "name": "",
          "type": "address"
        }
      ],
      "stateMutability": "view",
      "type": "function",
      "constant": true
    },
    {
      "inputs": [],
      "name": "renounceOwnership",
      "outputs": [],
      "stateMutability": "nonpayable",
      "type": "function"
    },
    {
      "inputs": [
        {
          "internalType": "address",
          "name": "newOwner",
          "type": "address"
        }
      ],
      "name": "transferOwnership",
      "outputs": [],
      "stateMutability": "nonpayable",
      "type": "function"
    },
    {
      "inputs": [
        {
          "internalType": "uint256",
          "name": "",
          "type": "uint256"
        }
      ],
      "name": "users",
      "outputs": [
        {
          "internalType": "address",
          "name": "wallet",
          "type": "address"
        },
        {
          "internalType": "string",
          "name": "displayName",
          "type": "string"
        },
        {
          "internalType": "string",
          "name": "coverPhotoURL",
          "type": "string"
        },
        {
          "internalType": "string",
          "name": "profilePhotoURL",
          "type": "string"
        },
        {
          "internalType": "string",
          "name": "bio",
          "type": "string"
        }
      ],
      "stateMutability": "view",
      "type": "function",
      "constant": true
    },
    {
      "inputs": [],
      "name": "viridianNFT",
      "outputs": [
        {
          "internalType": "address",
          "name": "",
          "type": "address"
        }
      ],
      "stateMutability": "view",
      "type": "function",
      "constant": true
    },
    {
      "inputs": [],
      "name": "viridianToken",
      "outputs": [
        {
          "internalType": "address",
          "name": "",
          "type": "address"
        }
      ],
      "stateMutability": "view",
      "type": "function",
      "constant": true
    },
    {
      "stateMutability": "payable",
      "type": "receive",
      "payable": true
    },
    {
      "inputs": [],
      "name": "getListings",
      "outputs": [
        {
          "internalType": "uint256[]",
          "name": "",
          "type": "uint256[]"
        }
      ],
      "stateMutability": "view",
      "type": "function",
      "constant": true
    },
    {
      "inputs": [
        {
          "internalType": "uint256",
          "name": "_listingId",
          "type": "uint256"
        }
      ],
      "name": "getListingFromId",
      "outputs": [
        {
          "components": [
            {
              "internalType": "uint256",
              "name": "listingId",
              "type": "uint256"
            },
            {
              "internalType": "uint256",
              "name": "tokenId",
              "type": "uint256"
            },
            {
              "internalType": "address",
              "name": "owner",
              "type": "address"
            },
            {
              "internalType": "uint256",
              "name": "price",
              "type": "uint256"
            },
            {
              "internalType": "bool",
              "name": "purchased",
              "type": "bool"
            },
            {
              "internalType": "uint256",
              "name": "royalty",
              "type": "uint256"
            },
            {
              "internalType": "bool",
              "name": "isAuction",
              "type": "bool"
            },
            {
              "internalType": "uint256",
              "name": "endTime",
              "type": "uint256"
            },
            {
              "internalType": "bool",
              "name": "sold",
              "type": "bool"
            }
          ],
          "internalType": "struct ViridianExchange.Listing",
          "name": "",
          "type": "tuple"
        }
      ],
      "stateMutability": "view",
      "type": "function",
      "constant": true
    },
    {
      "inputs": [
        {
          "internalType": "uint256",
          "name": "_nftId",
          "type": "uint256"
        }
      ],
      "name": "getNftOwner",
      "outputs": [
        {
          "internalType": "address",
          "name": "",
          "type": "address"
        }
      ],
      "stateMutability": "view",
      "type": "function",
      "constant": true
    },
    {
      "inputs": [
        {
          "internalType": "address payable",
          "name": "_to",
          "type": "address"
        },
        {
          "internalType": "uint256",
          "name": "_amount",
          "type": "uint256"
        }
      ],
      "name": "sendEther",
      "outputs": [],
      "stateMutability": "payable",
      "type": "function",
      "payable": true
    },
    {
      "inputs": [],
      "name": "getBalance",
      "outputs": [
        {
          "internalType": "uint256",
          "name": "",
          "type": "uint256"
        }
      ],
      "stateMutability": "view",
      "type": "function",
      "constant": true
    },
    {
      "inputs": [
        {
          "internalType": "uint256",
          "name": "_listingId",
          "type": "uint256"
        }
      ],
      "name": "buyNFTWithETH",
      "outputs": [],
      "stateMutability": "payable",
      "type": "function",
      "payable": true
    },
    {
      "inputs": [
        {
          "internalType": "uint256",
          "name": "_listingId",
          "type": "uint256"
        }
      ],
      "name": "buyNFTWithVEXT",
      "outputs": [],
      "stateMutability": "payable",
      "type": "function",
      "payable": true
    },
    {
      "inputs": [],
      "name": "acceptOffer",
      "outputs": [],
      "stateMutability": "nonpayable",
      "type": "function"
    },
    {
      "inputs": [],
      "name": "bidOnAuction",
      "outputs": [],
      "stateMutability": "nonpayable",
      "type": "function"
    },
    {
      "inputs": [
        {
          "internalType": "uint256",
          "name": "_nftId",
          "type": "uint256"
        },
        {
          "internalType": "uint256",
          "name": "_price",
          "type": "uint256"
        },
        {
          "internalType": "uint256",
          "name": "_royalty",
          "type": "uint256"
        },
        {
          "internalType": "bool",
          "name": "_isAuction",
          "type": "bool"
        },
        {
          "internalType": "uint256",
          "name": "_endTime",
          "type": "uint256"
        }
      ],
      "name": "putUpForSale",
      "outputs": [],
      "stateMutability": "payable",
      "type": "function",
      "payable": true
    },
    {
      "inputs": [
        {
          "components": [
            {
              "internalType": "uint256",
              "name": "listingId",
              "type": "uint256"
            },
            {
              "internalType": "uint256",
              "name": "tokenId",
              "type": "uint256"
            },
            {
              "internalType": "address",
              "name": "owner",
              "type": "address"
            },
            {
              "internalType": "uint256",
              "name": "price",
              "type": "uint256"
            },
            {
              "internalType": "bool",
              "name": "purchased",
              "type": "bool"
            },
            {
              "internalType": "uint256",
              "name": "royalty",
              "type": "uint256"
            },
            {
              "internalType": "bool",
              "name": "isAuction",
              "type": "bool"
            },
            {
              "internalType": "uint256",
              "name": "endTime",
              "type": "uint256"
            },
            {
              "internalType": "bool",
              "name": "sold",
              "type": "bool"
            }
          ],
          "internalType": "struct ViridianExchange.Listing",
          "name": "_listing",
          "type": "tuple"
        }
      ],
      "name": "pullFromSale",
      "outputs": [],
      "stateMutability": "nonpayable",
      "type": "function"
    },
    {
      "inputs": [],
      "name": "withdrawNFT",
      "outputs": [],
      "stateMutability": "nonpayable",
      "type": "function"
    }
  ],
  "bytecode": "0x60806040523480156200001157600080fd5b5060405162002b5d38038062002b5d833981810160405281019062000037919062000206565b600062000049620001e760201b60201c565b9050806000806101000a81548173ffffffffffffffffffffffffffffffffffffffff021916908373ffffffffffffffffffffffffffffffffffffffff1602179055508073ffffffffffffffffffffffffffffffffffffffff16600073ffffffffffffffffffffffffffffffffffffffff167f8be0079c531659141344cd1fd0a4f28419497f9722a3daafe3b4186f6b6457e060405160405180910390a350600073ffffffffffffffffffffffffffffffffffffffff168273ffffffffffffffffffffffffffffffffffffffff1614156200012257600080fd5b600073ffffffffffffffffffffffffffffffffffffffff168173ffffffffffffffffffffffffffffffffffffffff1614156200015d57600080fd5b81600960006101000a81548173ffffffffffffffffffffffffffffffffffffffff021916908373ffffffffffffffffffffffffffffffffffffffff16021790555080600760006101000a81548173ffffffffffffffffffffffffffffffffffffffff021916908373ffffffffffffffffffffffffffffffffffffffff1602179055505050620002a0565b600033905090565b600081519050620002008162000286565b92915050565b6000806040838503121562000220576200021f62000281565b5b60006200023085828601620001ef565b92505060206200024385828601620001ef565b9150509250929050565b60006200025a8262000261565b9050919050565b600073ffffffffffffffffffffffffffffffffffffffff82169050919050565b600080fd5b62000291816200024d565b81146200029d57600080fd5b50565b6128ad80620002b06000396000f3fe6080604052600436106101185760003560e01c80639a701288116100a0578063eb62df6111610064578063eb62df611461034a578063ec186db314610361578063f1b2d6a31461037d578063f2f57e95146103a8578063f2fde38b146103d35761011f565b80639a70128814610293578063a19b56ac146102be578063ac0b27c2146102fb578063c1756a2c14610317578063d27ba725146103335761011f565b8063715018a6116100e7578063715018a6146101c05780638322fff2146101d75780638a8d4c2b146102025780638ad2d5a71461022b5780638da5cb5b146102685761011f565b806312065fe0146101215780632f7cdce31461014c578063365b98b2146101685780635e38c954146101a95761011f565b3661011f57005b005b34801561012d57600080fd5b506101366103fc565b60405161014391906123bb565b60405180910390f35b61016660048036038101906101619190611f4c565b610404565b005b34801561017457600080fd5b5061018f600480360381019061018a9190611ef2565b61072a565b6040516101a095949392919061228e565b60405180910390f35b3480156101b557600080fd5b506101be6109b0565b005b3480156101cc57600080fd5b506101d56109b2565b005b3480156101e357600080fd5b506101ec610aec565b6040516101f9919061223c565b60405180910390f35b34801561020e57600080fd5b5061022960048036038101906102249190611ec4565b610b12565b005b34801561023757600080fd5b50610252600480360381019061024d9190611ef2565b610f90565b60405161025f919061223c565b60405180910390f35b34801561027457600080fd5b5061027d611044565b60405161028a919061223c565b60405180910390f35b34801561029f57600080fd5b506102a861106d565b6040516102b5919061223c565b60405180910390f35b3480156102ca57600080fd5b506102e560048036038101906102e09190611ef2565b611093565b6040516102f2919061239f565b60405180910390f35b61031560048036038101906103109190611ef2565b61119a565b005b610331600480360381019061032c9190611e57565b6114de565b005b34801561033f57600080fd5b50610348611592565b005b34801561035657600080fd5b5061035f611594565b005b61037b60048036038101906103769190611ef2565b611596565b005b34801561038957600080fd5b506103926117b5565b60405161039f91906122fd565b60405180910390f35b3480156103b457600080fd5b506103bd61180d565b6040516103ca919061223c565b60405180910390f35b3480156103df57600080fd5b506103fa60048036038101906103f59190611dfd565b611833565b005b600047905090565b3373ffffffffffffffffffffffffffffffffffffffff1661042486610f90565b73ffffffffffffffffffffffffffffffffffffffff161461044457600080fd5b61044e60016119dc565b600061045a60016119f2565b905060006040518061012001604052808381526020018881526020013373ffffffffffffffffffffffffffffffffffffffff1681526020018781526020016000151581526020018681526020018515158152602001848152602001600015158152509050600360003373ffffffffffffffffffffffffffffffffffffffff1673ffffffffffffffffffffffffffffffffffffffff168152602001908152602001600020819080600181540180825580915050600190039060005260206000209060090201600090919091909150600082015181600001556020820151816001015560408201518160020160006101000a81548173ffffffffffffffffffffffffffffffffffffffff021916908373ffffffffffffffffffffffffffffffffffffffff1602179055506060820151816003015560808201518160040160006101000a81548160ff02191690831515021790555060a0820151816005015560c08201518160060160006101000a81548160ff02191690831515021790555060e082015181600701556101008201518160080160006101000a81548160ff02191690831515021790555050508060046000848152602001908152602001600020600082015181600001556020820151816001015560408201518160020160006101000a81548173ffffffffffffffffffffffffffffffffffffffff021916908373ffffffffffffffffffffffffffffffffffffffff1602179055506060820151816003015560808201518160040160006101000a81548160ff02191690831515021790555060a0820151816005015560c08201518160060160006101000a81548160ff02191690831515021790555060e082015181600701556101008201518160080160006101000a81548160ff02191690831515021790555090505060058160000151908060018154018082558091505060019003906000526020600020016000909190919091505550505050505050565b6006818154811061073a57600080fd5b90600052602060002090600802016000915090508060000160009054906101000a900473ffffffffffffffffffffffffffffffffffffffff169080600101805461078390612576565b80601f01602080910402602001604051908101604052809291908181526020018280546107af90612576565b80156107fc5780601f106107d1576101008083540402835291602001916107fc565b820191906000526020600020905b8154815290600101906020018083116107df57829003601f168201915b50505050509080600201805461081190612576565b80601f016020809104026020016040519081016040528092919081815260200182805461083d90612576565b801561088a5780601f1061085f5761010080835404028352916020019161088a565b820191906000526020600020905b81548152906001019060200180831161086d57829003601f168201915b50505050509080600301805461089f90612576565b80601f01602080910402602001604051908101604052809291908181526020018280546108cb90612576565b80156109185780601f106108ed57610100808354040283529160200191610918565b820191906000526020600020905b8154815290600101906020018083116108fb57829003601f168201915b50505050509080600401805461092d90612576565b80601f016020809104026020016040519081016040528092919081815260200182805461095990612576565b80156109a65780601f1061097b576101008083540402835291602001916109a6565b820191906000526020600020905b81548152906001019060200180831161098957829003601f168201915b5050505050905085565b565b6109ba611a00565b73ffffffffffffffffffffffffffffffffffffffff166109d8611044565b73ffffffffffffffffffffffffffffffffffffffff1614610a2e576040517f08c379a0000000000000000000000000000000000000000000000000000000008152600401610a259061235f565b60405180910390fd5b600073ffffffffffffffffffffffffffffffffffffffff1660008054906101000a900473ffffffffffffffffffffffffffffffffffffffff1673ffffffffffffffffffffffffffffffffffffffff167f8be0079c531659141344cd1fd0a4f28419497f9722a3daafe3b4186f6b6457e060405160405180910390a360008060006101000a81548173ffffffffffffffffffffffffffffffffffffffff021916908373ffffffffffffffffffffffffffffffffffffffff160217905550565b600860009054906101000a900473ffffffffffffffffffffffffffffffffffffffff1681565b3373ffffffffffffffffffffffffffffffffffffffff16816040015173ffffffffffffffffffffffffffffffffffffffff1614610b4e57600080fd5b6000600360003373ffffffffffffffffffffffffffffffffffffffff1673ffffffffffffffffffffffffffffffffffffffff168152602001908152602001600020905060005b8180549050811015610f8b576000828281548110610bb557610bb46126af565b5b90600052602060002090600902016040518061012001604052908160008201548152602001600182015481526020016002820160009054906101000a900473ffffffffffffffffffffffffffffffffffffffff1673ffffffffffffffffffffffffffffffffffffffff1673ffffffffffffffffffffffffffffffffffffffff168152602001600382015481526020016004820160009054906101000a900460ff16151515158152602001600582015481526020016006820160009054906101000a900460ff16151515158152602001600782015481526020016008820160009054906101000a900460ff1615151515815250509050836000015181600001511415610f77578260018480549050610ccc91906124b5565b81548110610cdd57610cdc6126af565b5b9060005260206000209060090201838381548110610cfe57610cfd6126af565b5b906000526020600020906009020160008201548160000155600182015481600101556002820160009054906101000a900473ffffffffffffffffffffffffffffffffffffffff168160020160006101000a81548173ffffffffffffffffffffffffffffffffffffffff021916908373ffffffffffffffffffffffffffffffffffffffff160217905550600382015481600301556004820160009054906101000a900460ff168160040160006101000a81548160ff021916908315150217905550600582015481600501556006820160009054906101000a900460ff168160060160006101000a81548160ff021916908315150217905550600782015481600701556008820160009054906101000a900460ff168160080160006101000a81548160ff02191690831515021790555090505082600360003373ffffffffffffffffffffffffffffffffffffffff1673ffffffffffffffffffffffffffffffffffffffff168152602001908152602001600020908054610e7d929190611a08565b50600360003373ffffffffffffffffffffffffffffffffffffffff1673ffffffffffffffffffffffffffffffffffffffff168152602001908152602001600020805480610ecd57610ecc612680565b5b600190038181906000526020600020906009020160008082016000905560018201600090556002820160006101000a81549073ffffffffffffffffffffffffffffffffffffffff021916905560038201600090556004820160006101000a81549060ff021916905560058201600090556006820160006101000a81549060ff021916905560078201600090556008820160006101000a81549060ff02191690555050905550610f8b565b508080610f83906125d9565b915050610b94565b505050565b6000600760009054906101000a900473ffffffffffffffffffffffffffffffffffffffff1673ffffffffffffffffffffffffffffffffffffffff16636352211e836040518263ffffffff1660e01b8152600401610fed91906123bb565b60206040518083038186803b15801561100557600080fd5b505afa158015611019573d6000803e3d6000fd5b505050506040513d601f19601f8201168201806040525081019061103d9190611e2a565b9050919050565b60008060009054906101000a900473ffffffffffffffffffffffffffffffffffffffff16905090565b600760009054906101000a900473ffffffffffffffffffffffffffffffffffffffff1681565b61109b611b80565b600460008381526020019081526020016000206040518061012001604052908160008201548152602001600182015481526020016002820160009054906101000a900473ffffffffffffffffffffffffffffffffffffffff1673ffffffffffffffffffffffffffffffffffffffff1673ffffffffffffffffffffffffffffffffffffffff168152602001600382015481526020016004820160009054906101000a900460ff16151515158152602001600582015481526020016006820160009054906101000a900460ff16151515158152602001600782015481526020016008820160009054906101000a900460ff1615151515815250509050919050565b6000600460008381526020019081526020016000206040518061012001604052908160008201548152602001600182015481526020016002820160009054906101000a900473ffffffffffffffffffffffffffffffffffffffff1673ffffffffffffffffffffffffffffffffffffffff1673ffffffffffffffffffffffffffffffffffffffff168152602001600382015481526020016004820160009054906101000a900460ff16151515158152602001600582015481526020016006820160009054906101000a900460ff16151515158152602001600782015481526020016008820160009054906101000a900460ff16151515158152505090508060600151600960009054906101000a900473ffffffffffffffffffffffffffffffffffffffff1673ffffffffffffffffffffffffffffffffffffffff166370a08231336040518263ffffffff1660e01b81526004016112f6919061223c565b60206040518083038186803b15801561130e57600080fd5b505afa158015611322573d6000803e3d6000fd5b505050506040513d601f19601f820116820180604052508101906113469190611f1f565b1015611387576040517f08c379a000000000000000000000000000000000000000000000000000000000815260040161137e9061237f565b60405180910390fd5b600960009054906101000a900473ffffffffffffffffffffffffffffffffffffffff1673ffffffffffffffffffffffffffffffffffffffff166323b872dd82604001513384606001516040518463ffffffff1660e01b81526004016113ee93929190612257565b602060405180830381600087803b15801561140857600080fd5b505af115801561141c573d6000803e3d6000fd5b505050506040513d601f19601f820116820180604052508101906114409190611e97565b50600760009054906101000a900473ffffffffffffffffffffffffffffffffffffffff1673ffffffffffffffffffffffffffffffffffffffff166342842e0e82604001513384602001516040518463ffffffff1660e01b81526004016114a893929190612257565b600060405180830381600087803b1580156114c257600080fd5b505af11580156114d6573d6000803e3d6000fd5b505050505050565b6000808373ffffffffffffffffffffffffffffffffffffffff168360405161150590612227565b60006040518083038185875af1925050503d8060008114611542576040519150601f19603f3d011682016040523d82523d6000602084013e611547565b606091505b50915091508161158c576040517f08c379a00000000000000000000000000000000000000000000000000000000081526004016115839061233f565b60405180910390fd5b50505050565b565b565b6000600460008381526020019081526020016000206040518061012001604052908160008201548152602001600182015481526020016002820160009054906101000a900473ffffffffffffffffffffffffffffffffffffffff1673ffffffffffffffffffffffffffffffffffffffff1673ffffffffffffffffffffffffffffffffffffffff168152602001600382015481526020016004820160009054906101000a900460ff16151515158152602001600582015481526020016006820160009054906101000a900460ff16151515158152602001600782015481526020016008820160009054906101000a900460ff161515151581525050905080606001513373ffffffffffffffffffffffffffffffffffffffff163110156116f0576040517f08c379a00000000000000000000000000000000000000000000000000000000081526004016116e79061237f565b60405180910390fd5b6000816040015190506117178164e8d4a510008460600151611712919061245b565b6114de565b600760009054906101000a900473ffffffffffffffffffffffffffffffffffffffff1673ffffffffffffffffffffffffffffffffffffffff166342842e0e83604001513385602001516040518463ffffffff1660e01b815260040161177e93929190612257565b600060405180830381600087803b15801561179857600080fd5b505af11580156117ac573d6000803e3d6000fd5b50505050505050565b6060600580548060200260200160405190810160405280929190818152602001828054801561180357602002820191906000526020600020905b8154815260200190600101908083116117ef575b5050505050905090565b600960009054906101000a900473ffffffffffffffffffffffffffffffffffffffff1681565b61183b611a00565b73ffffffffffffffffffffffffffffffffffffffff16611859611044565b73ffffffffffffffffffffffffffffffffffffffff16146118af576040517f08c379a00000000000000000000000000000000000000000000000000000000081526004016118a69061235f565b60405180910390fd5b600073ffffffffffffffffffffffffffffffffffffffff168173ffffffffffffffffffffffffffffffffffffffff16141561191f576040517f08c379a00000000000000000000000000000000000000000000000000000000081526004016119169061231f565b60405180910390fd5b8073ffffffffffffffffffffffffffffffffffffffff1660008054906101000a900473ffffffffffffffffffffffffffffffffffffffff1673ffffffffffffffffffffffffffffffffffffffff167f8be0079c531659141344cd1fd0a4f28419497f9722a3daafe3b4186f6b6457e060405160405180910390a3806000806101000a81548173ffffffffffffffffffffffffffffffffffffffff021916908373ffffffffffffffffffffffffffffffffffffffff16021790555050565b6001816000016000828254019250508190555050565b600081600001549050919050565b600033905090565b828054828255906000526020600020906009028101928215611b6f5760005260206000209160090282015b82811115611b6e57828260008201548160000155600182015481600101556002820160009054906101000a900473ffffffffffffffffffffffffffffffffffffffff168160020160006101000a81548173ffffffffffffffffffffffffffffffffffffffff021916908373ffffffffffffffffffffffffffffffffffffffff160217905550600382015481600301556004820160009054906101000a900460ff168160040160006101000a81548160ff021916908315150217905550600582015481600501556006820160009054906101000a900460ff168160060160006101000a81548160ff021916908315150217905550600782015481600701556008820160009054906101000a900460ff168160080160006101000a81548160ff021916908315150217905550505091600901919060090190611a33565b5b509050611b7c9190611be8565b5090565b6040518061012001604052806000815260200160008152602001600073ffffffffffffffffffffffffffffffffffffffff1681526020016000815260200160001515815260200160008152602001600015158152602001600081526020016000151581525090565b5b80821115611c865760008082016000905560018201600090556002820160006101000a81549073ffffffffffffffffffffffffffffffffffffffff021916905560038201600090556004820160006101000a81549060ff021916905560058201600090556006820160006101000a81549060ff021916905560078201600090556008820160006101000a81549060ff021916905550600901611be9565b5090565b600081359050611c998161281b565b92915050565b600081519050611cae8161281b565b92915050565b600081359050611cc381612832565b92915050565b600081359050611cd881612849565b92915050565b600081519050611ced81612849565b92915050565b60006101208284031215611d0a57611d0961270d565b5b611d156101206123d6565b90506000611d2584828501611dd3565b6000830152506020611d3984828501611dd3565b6020830152506040611d4d84828501611c8a565b6040830152506060611d6184828501611dd3565b6060830152506080611d7584828501611cc9565b60808301525060a0611d8984828501611dd3565b60a08301525060c0611d9d84828501611cc9565b60c08301525060e0611db184828501611dd3565b60e083015250610100611dc684828501611cc9565b6101008301525092915050565b600081359050611de281612860565b92915050565b600081519050611df781612860565b92915050565b600060208284031215611e1357611e12612712565b5b6000611e2184828501611c8a565b91505092915050565b600060208284031215611e4057611e3f612712565b5b6000611e4e84828501611c9f565b91505092915050565b60008060408385031215611e6e57611e6d612712565b5b6000611e7c85828601611cb4565b9250506020611e8d85828601611dd3565b9150509250929050565b600060208284031215611ead57611eac612712565b5b6000611ebb84828501611cde565b91505092915050565b60006101208284031215611edb57611eda612712565b5b6000611ee984828501611cf3565b91505092915050565b600060208284031215611f0857611f07612712565b5b6000611f1684828501611dd3565b91505092915050565b600060208284031215611f3557611f34612712565b5b6000611f4384828501611de8565b91505092915050565b600080600080600060a08688031215611f6857611f67612712565b5b6000611f7688828901611dd3565b9550506020611f8788828901611dd3565b9450506040611f9888828901611dd3565b9350506060611fa988828901611cc9565b9250506080611fba88828901611dd3565b9150509295509295909350565b6000611fd38383612209565b60208301905092915050565b611fe8816124e9565b82525050565b611ff7816124e9565b82525050565b60006120088261240b565b612012818561242e565b935061201d836123fb565b8060005b8381101561204e5781516120358882611fc7565b975061204083612421565b925050600181019050612021565b5085935050505092915050565b6120648161250d565b82525050565b600061207582612416565b61207f818561244a565b935061208f818560208601612543565b61209881612717565b840191505092915050565b60006120b060268361244a565b91506120bb82612728565b604082019050919050565b60006120d360148361244a565b91506120de82612777565b602082019050919050565b60006120f660208361244a565b9150612101826127a0565b602082019050919050565b600061211960008361243f565b9150612124826127c9565b600082019050919050565b600061213c60338361244a565b9150612147826127cc565b604082019050919050565b610120820160008201516121696000850182612209565b50602082015161217c6020850182612209565b50604082015161218f6040850182611fdf565b5060608201516121a26060850182612209565b5060808201516121b5608085018261205b565b5060a08201516121c860a0850182612209565b5060c08201516121db60c085018261205b565b5060e08201516121ee60e0850182612209565b5061010082015161220361010085018261205b565b50505050565b61221281612539565b82525050565b61222181612539565b82525050565b60006122328261210c565b9150819050919050565b60006020820190506122516000830184611fee565b92915050565b600060608201905061226c6000830186611fee565b6122796020830185611fee565b6122866040830184612218565b949350505050565b600060a0820190506122a36000830188611fee565b81810360208301526122b5818761206a565b905081810360408301526122c9818661206a565b905081810360608301526122dd818561206a565b905081810360808301526122f1818461206a565b90509695505050505050565b600060208201905081810360008301526123178184611ffd565b905092915050565b60006020820190508181036000830152612338816120a3565b9050919050565b60006020820190508181036000830152612358816120c6565b9050919050565b60006020820190508181036000830152612378816120e9565b9050919050565b600060208201905081810360008301526123988161212f565b9050919050565b6000610120820190506123b56000830184612152565b92915050565b60006020820190506123d06000830184612218565b92915050565b60006123e06123f1565b90506123ec82826125a8565b919050565b6000604051905090565b6000819050602082019050919050565b600081519050919050565b600081519050919050565b6000602082019050919050565b600082825260208201905092915050565b600081905092915050565b600082825260208201905092915050565b600061246682612539565b915061247183612539565b9250817fffffffffffffffffffffffffffffffffffffffffffffffffffffffffffffffff04831182151516156124aa576124a9612622565b5b828202905092915050565b60006124c082612539565b91506124cb83612539565b9250828210156124de576124dd612622565b5b828203905092915050565b60006124f482612519565b9050919050565b600061250682612519565b9050919050565b60008115159050919050565b600073ffffffffffffffffffffffffffffffffffffffff82169050919050565b6000819050919050565b60005b83811015612561578082015181840152602081019050612546565b83811115612570576000848401525b50505050565b6000600282049050600182168061258e57607f821691505b602082108114156125a2576125a1612651565b5b50919050565b6125b182612717565b810181811067ffffffffffffffff821117156125d0576125cf6126de565b5b80604052505050565b60006125e482612539565b91507fffffffffffffffffffffffffffffffffffffffffffffffffffffffffffffffff82141561261757612616612622565b5b600182019050919050565b7f4e487b7100000000000000000000000000000000000000000000000000000000600052601160045260246000fd5b7f4e487b7100000000000000000000000000000000000000000000000000000000600052602260045260246000fd5b7f4e487b7100000000000000000000000000000000000000000000000000000000600052603160045260246000fd5b7f4e487b7100000000000000000000000000000000000000000000000000000000600052603260045260246000fd5b7f4e487b7100000000000000000000000000000000000000000000000000000000600052604160045260246000fd5b600080fd5b600080fd5b6000601f19601f8301169050919050565b7f4f776e61626c653a206e6577206f776e657220697320746865207a65726f206160008201527f6464726573730000000000000000000000000000000000000000000000000000602082015250565b7f4661696c656420746f2073656e64204574686572000000000000000000000000600082015250565b7f4f776e61626c653a2063616c6c6572206973206e6f7420746865206f776e6572600082015250565b50565b7f566972696469616e45786368616e67653a205573657220646f6573206e6f742060008201527f6861766520656e6f7567682062616c616e636500000000000000000000000000602082015250565b612824816124e9565b811461282f57600080fd5b50565b61283b816124fb565b811461284657600080fd5b50565b6128528161250d565b811461285d57600080fd5b50565b61286981612539565b811461287457600080fd5b5056fea26469706673582212200926f4b8c72a1871fce85cdab93d9a3d3b21ef75690beb669ba685bdab7cbfa464736f6c63430008060033",
  "immutableReferences": {},
  "source": "pragma solidity ^0.8.0;\n\nimport \"@openzeppelin/contracts/access/Ownable.sol\";\nimport \"@openzeppelin/contracts/token/ERC721/ERC721.sol\";\nimport \"@openzeppelin/contracts/token/ERC20/IERC20.sol\";\nimport \"@openzeppelin/contracts/token/ERC20/ERC20.sol\";\nimport \"@openzeppelin/contracts/token/ERC721/IERC721.sol\";\n\nimport \"./ViridianNFT.sol\";\n\ncontract ViridianExchange is Ownable {\n\n    struct User {\n        address wallet;\n        string displayName;\n        string coverPhotoURL;\n        string profilePhotoURL;\n        string bio;\n        User[] following;\n        User[] followers;\n        uint256[] likes;\n    }\n\n    struct Trade {\n        uint256[] nftIds;\n        uint vextAmt;\n        address _to;\n        address _from;\n        bool pending;\n    }\n\n    using Counters for Counters.Counter;\n    Counters.Counter private _listingIds;\n\n    //address vNFTContract = \n    \n    struct Listing {\n        uint256 listingId;\n        uint256 tokenId;\n        address owner;\n        uint256 price;\n        bool purchased;\n        uint256 royalty;\n        bool isAuction;\n        uint256 endTime;\n        bool sold;\n    }\n\n    struct Collection {\n        string description;\n        uint256[] collectionNFTs;\n    }\n\n    //string[] public nftIds;\n    mapping (address => Collection) displayCases;\n    mapping (address => Listing[]) userListings;\n    mapping (uint256 => Listing) listings;\n    uint256[] private listingIds;\n    User[] public users;\n\n    address public viridianNFT;\n    address public ETH;\n    address public viridianToken;\n\n    constructor( address _viridianToken, address _viridianNFT) {\n        require(address(_viridianToken) != address(0)); \n        //require(address(_ETH) != address(0));\n        require(address(_viridianNFT) != address(0));\n\n        viridianToken = _viridianToken;\n        //address _ETH, ETH = _ETH;\n        viridianNFT = _viridianNFT;\n    }\n\n    function getListings() public view returns (uint256[] memory) {\n        return listingIds;\n    }\n\n    function getListingFromId(uint256 _listingId) public view returns (Listing memory) {\n        return listings[_listingId];\n    }\n\n    function getNftOwner(uint256 _nftId) public view returns (address) {\n        return IERC721(viridianNFT).ownerOf(_nftId);\n    }\n\n    function sendEther(address payable _to, uint256 _amount) public payable {\n        // Call returns a boolean value indicating success or failure.\n        // This is the current recommended method to use.\n        (bool sent, bytes memory data) = _to.call{value: _amount}(\"\");\n        require(sent, \"Failed to send Ether\");\n    }\n\n    receive() external payable {}\n\n    // Fallback function is called when msg.data is not empty\n    fallback() external payable {}\n\n    function getBalance() public view returns (uint) {\n        return address(this).balance;\n    }\n\n    function buyNFTWithETH(uint256 _listingId) public payable {\n        Listing memory curListing = listings[_listingId];\n\n        require(msg.sender.balance >= curListing.price, 'ViridianExchange: User does not have enough balance');\n        address payable ownerWallet = payable(curListing.owner);\n        sendEther(ownerWallet, curListing.price * 1000000000000);\n        \n        IERC721(viridianNFT).safeTransferFrom(curListing.owner, msg.sender, curListing.tokenId);\n    }\n\n    function buyNFTWithVEXT(uint256 _listingId) public payable {\n        Listing memory curListing = listings[_listingId];\n\n        require(IERC20(viridianToken).balanceOf(msg.sender) >= curListing.price, 'ViridianExchange: User does not have enough balance');\n\n        IERC20(viridianToken).transferFrom(curListing.owner, msg.sender, curListing.price);\n        IERC721(viridianNFT).safeTransferFrom(curListing.owner, msg.sender, curListing.tokenId);\n    }\n\n    function acceptOffer() public {\n        \n    }\n\n    function bidOnAuction() public {\n\n    }\n\n    function putUpForSale(uint256 _nftId, uint256 _price, uint256 _royalty, bool _isAuction, uint256 _endTime) public payable {\n        require(getNftOwner(_nftId) == msg.sender);\n\n        _listingIds.increment();\n        uint256 _listingId = _listingIds.current();\n        Listing memory saleListing = Listing(_listingId, _nftId, msg.sender, _price, false, _royalty, _isAuction, _endTime, false);\n        userListings[msg.sender].push(saleListing);\n        listings[_listingId] = saleListing;\n        listingIds.push(saleListing.listingId);\n    }\n\n    function pullFromSale(Listing memory _listing) public {\n        require(_listing.owner == msg.sender);\n        Listing[] storage curUserListings = userListings[msg.sender];\n        for (uint i = 0; i < curUserListings.length; i++) {\n            Listing memory listing = curUserListings[i];\n            if (listing.listingId == _listing.listingId) {\n                curUserListings[i] = curUserListings[curUserListings.length - 1];\n                userListings[msg.sender] = curUserListings;\n                userListings[msg.sender].pop();\n                break;\n            }\n        }\n    }\n\n    function withdrawNFT() public {\n        //Burn NFT\n        //Send message to prompt front-end email sending\n    }\n}",
  "sourcePath": "/Users/blakehatch/Viridian-Exchange-Contracts/contracts/ViridianExchange.sol",
  "compiler": {
    "name": "solc",
    "version": "0.8.6+commit.11564f7e.Emscripten.clang"
  },
  "schemaVersion": "3.4.1",
  "updatedAt": "2021-07-21T16:32:22.145Z",
  "networkType": "ethereum",
  "devdoc": {
    "kind": "dev",
    "methods": {
      "owner()": {
        "details": "Returns the address of the current owner."
      },
      "renounceOwnership()": {
        "details": "Leaves the contract without owner. It will not be possible to call `onlyOwner` functions anymore. Can only be called by the current owner. NOTE: Renouncing ownership will leave the contract without an owner, thereby removing any functionality that is only available to the owner."
      },
      "transferOwnership(address)": {
        "details": "Transfers ownership of the contract to a new account (`newOwner`). Can only be called by the current owner."
      }
    },
    "version": 1
  },
  "userdoc": {
    "kind": "user",
    "methods": {},
    "version": 1
  }
}