{
  "contractName": "ViridianExchange",
  "abi": [
    {
      "inputs": [
        {
          "internalType": "address",
          "name": "_erc20Token",
          "type": "address"
        },
        {
          "internalType": "address",
          "name": "_viridianNFT",
          "type": "address"
        },
        {
          "internalType": "address",
          "name": "_forwarder",
          "type": "address"
        },
        {
          "internalType": "address",
          "name": "_treasury",
          "type": "address"
        }
      ],
      "stateMutability": "nonpayable",
      "type": "constructor"
    },
    {
      "anonymous": false,
      "inputs": [
        {
          "indexed": false,
          "internalType": "uint256",
          "name": "tokenId",
          "type": "uint256"
        },
        {
          "indexed": false,
          "internalType": "string",
          "name": "uri",
          "type": "string"
        },
        {
          "indexed": false,
          "internalType": "address",
          "name": "wallet",
          "type": "address"
        },
        {
          "indexed": false,
          "internalType": "bool",
          "name": "listed",
          "type": "bool"
        }
      ],
      "name": "ItemListed",
      "type": "event"
    },
    {
      "anonymous": false,
      "inputs": [
        {
          "indexed": false,
          "internalType": "uint256",
          "name": "tokenId",
          "type": "uint256"
        },
        {
          "indexed": false,
          "internalType": "string",
          "name": "uri",
          "type": "string"
        },
        {
          "indexed": false,
          "internalType": "address",
          "name": "wallet",
          "type": "address"
        },
        {
          "indexed": false,
          "internalType": "bool",
          "name": "listed",
          "type": "bool"
        }
      ],
      "name": "ItemUnlisted",
      "type": "event"
    },
    {
      "anonymous": false,
      "inputs": [
        {
          "indexed": true,
          "internalType": "address",
          "name": "previousOwner",
          "type": "address"
        },
        {
          "indexed": true,
          "internalType": "address",
          "name": "newOwner",
          "type": "address"
        }
      ],
      "name": "OwnershipTransferred",
      "type": "event"
    },
    {
      "anonymous": false,
      "inputs": [
        {
          "indexed": false,
          "internalType": "uint256",
          "name": "tokenId",
          "type": "uint256"
        },
        {
          "indexed": false,
          "internalType": "uint256",
          "name": "price",
          "type": "uint256"
        },
        {
          "indexed": false,
          "internalType": "string",
          "name": "uri",
          "type": "string"
        },
        {
          "indexed": false,
          "internalType": "address",
          "name": "wallet",
          "type": "address"
        },
        {
          "indexed": false,
          "internalType": "bool",
          "name": "purchased",
          "type": "bool"
        }
      ],
      "name": "PurchasedListing",
      "type": "event"
    },
    {
      "inputs": [
        {
          "internalType": "address",
          "name": "",
          "type": "address"
        }
      ],
      "name": "approvedTokens",
      "outputs": [
        {
          "internalType": "bool",
          "name": "",
          "type": "bool"
        }
      ],
      "stateMutability": "view",
      "type": "function",
      "constant": true
    },
    {
      "inputs": [
        {
          "internalType": "address",
          "name": "forwarder",
          "type": "address"
        }
      ],
      "name": "isTrustedForwarder",
      "outputs": [
        {
          "internalType": "bool",
          "name": "",
          "type": "bool"
        }
      ],
      "stateMutability": "view",
      "type": "function",
      "constant": true
    },
    {
      "inputs": [],
      "name": "owner",
      "outputs": [
        {
          "internalType": "address",
          "name": "",
          "type": "address"
        }
      ],
      "stateMutability": "view",
      "type": "function",
      "constant": true
    },
    {
      "inputs": [],
      "name": "renounceOwnership",
      "outputs": [],
      "stateMutability": "nonpayable",
      "type": "function"
    },
    {
      "inputs": [
        {
          "internalType": "address",
          "name": "newOwner",
          "type": "address"
        }
      ],
      "name": "transferOwnership",
      "outputs": [],
      "stateMutability": "nonpayable",
      "type": "function"
    },
    {
      "inputs": [],
      "name": "trustedForwarder",
      "outputs": [
        {
          "internalType": "address",
          "name": "",
          "type": "address"
        }
      ],
      "stateMutability": "view",
      "type": "function",
      "constant": true
    },
    {
      "inputs": [],
      "name": "versionRecipient",
      "outputs": [
        {
          "internalType": "string",
          "name": "",
          "type": "string"
        }
      ],
      "stateMutability": "view",
      "type": "function",
      "constant": true
    },
    {
      "inputs": [],
      "name": "viridianNFT",
      "outputs": [
        {
          "internalType": "address",
          "name": "",
          "type": "address"
        }
      ],
      "stateMutability": "view",
      "type": "function",
      "constant": true
    },
    {
      "inputs": [
        {
          "internalType": "address",
          "name": "_forwarder",
          "type": "address"
        }
      ],
      "name": "setTrustedForwarder",
      "outputs": [],
      "stateMutability": "nonpayable",
      "type": "function"
    },
    {
      "inputs": [
        {
          "internalType": "uint256",
          "name": "_newRoyalty",
          "type": "uint256"
        }
      ],
      "name": "setRoyalty",
      "outputs": [],
      "stateMutability": "nonpayable",
      "type": "function"
    },
    {
      "inputs": [
        {
          "internalType": "uint256",
          "name": "_newRoyalty",
          "type": "uint256"
        }
      ],
      "name": "setWhitelistRoyalty",
      "outputs": [],
      "stateMutability": "nonpayable",
      "type": "function"
    },
    {
      "inputs": [
        {
          "internalType": "address",
          "name": "_erc20Address",
          "type": "address"
        }
      ],
      "name": "addERC20Token",
      "outputs": [],
      "stateMutability": "nonpayable",
      "type": "function"
    },
    {
      "inputs": [
        {
          "internalType": "address",
          "name": "_erc20Address",
          "type": "address"
        }
      ],
      "name": "removeERC20Token",
      "outputs": [],
      "stateMutability": "nonpayable",
      "type": "function"
    },
    {
      "inputs": [
        {
          "internalType": "address",
          "name": "_erc20Address",
          "type": "address"
        }
      ],
      "name": "isTokenApproved",
      "outputs": [
        {
          "internalType": "bool",
          "name": "",
          "type": "bool"
        }
      ],
      "stateMutability": "view",
      "type": "function",
      "constant": true
    },
    {
      "inputs": [],
      "name": "getBalance",
      "outputs": [
        {
          "internalType": "uint256",
          "name": "",
          "type": "uint256"
        }
      ],
      "stateMutability": "view",
      "type": "function",
      "constant": true
    },
    {
      "inputs": [],
      "name": "getListings",
      "outputs": [
        {
          "internalType": "uint256[]",
          "name": "",
          "type": "uint256[]"
        }
      ],
      "stateMutability": "view",
      "type": "function",
      "constant": true
    },
    {
      "inputs": [
        {
          "internalType": "uint256",
          "name": "_listingId",
          "type": "uint256"
        }
      ],
      "name": "getListingFromId",
      "outputs": [
        {
          "components": [
            {
              "internalType": "uint256",
              "name": "listingId",
              "type": "uint256"
            },
            {
              "internalType": "uint256",
              "name": "tokenId",
              "type": "uint256"
            },
            {
              "internalType": "uint256",
              "name": "chainId",
              "type": "uint256"
            },
            {
              "internalType": "address",
              "name": "owner",
              "type": "address"
            },
            {
              "internalType": "uint256",
              "name": "price",
              "type": "uint256"
            },
            {
              "internalType": "bool",
              "name": "purchased",
              "type": "bool"
            },
            {
              "internalType": "uint256",
              "name": "baseRoyalty",
              "type": "uint256"
            },
            {
              "internalType": "uint256",
              "name": "endTime",
              "type": "uint256"
            },
            {
              "internalType": "bool",
              "name": "sold",
              "type": "bool"
            },
            {
              "internalType": "address",
              "name": "erc20Address",
              "type": "address"
            },
            {
              "internalType": "uint256",
              "name": "timeListed",
              "type": "uint256"
            }
          ],
          "internalType": "struct ViridianExchange.Listing",
          "name": "",
          "type": "tuple"
        }
      ],
      "stateMutability": "view",
      "type": "function",
      "constant": true
    },
    {
      "inputs": [
        {
          "internalType": "address",
          "name": "_userAddr",
          "type": "address"
        }
      ],
      "name": "getListingsFromUser",
      "outputs": [
        {
          "components": [
            {
              "internalType": "uint256",
              "name": "listingId",
              "type": "uint256"
            },
            {
              "internalType": "uint256",
              "name": "tokenId",
              "type": "uint256"
            },
            {
              "internalType": "uint256",
              "name": "chainId",
              "type": "uint256"
            },
            {
              "internalType": "address",
              "name": "owner",
              "type": "address"
            },
            {
              "internalType": "uint256",
              "name": "price",
              "type": "uint256"
            },
            {
              "internalType": "bool",
              "name": "purchased",
              "type": "bool"
            },
            {
              "internalType": "uint256",
              "name": "baseRoyalty",
              "type": "uint256"
            },
            {
              "internalType": "uint256",
              "name": "endTime",
              "type": "uint256"
            },
            {
              "internalType": "bool",
              "name": "sold",
              "type": "bool"
            },
            {
              "internalType": "address",
              "name": "erc20Address",
              "type": "address"
            },
            {
              "internalType": "uint256",
              "name": "timeListed",
              "type": "uint256"
            }
          ],
          "internalType": "struct ViridianExchange.Listing[]",
          "name": "",
          "type": "tuple[]"
        }
      ],
      "stateMutability": "view",
      "type": "function",
      "constant": true
    },
    {
      "inputs": [
        {
          "internalType": "uint256",
          "name": "_nftId",
          "type": "uint256"
        }
      ],
      "name": "getNftOwner",
      "outputs": [
        {
          "internalType": "address",
          "name": "",
          "type": "address"
        }
      ],
      "stateMutability": "view",
      "type": "function",
      "constant": true
    },
    {
      "inputs": [
        {
          "internalType": "uint256",
          "name": "_nftId",
          "type": "uint256"
        },
        {
          "internalType": "uint256",
          "name": "_price",
          "type": "uint256"
        },
        {
          "internalType": "uint256",
          "name": "_royalty",
          "type": "uint256"
        },
        {
          "internalType": "uint256",
          "name": "_endTime",
          "type": "uint256"
        },
        {
          "internalType": "address",
          "name": "_erc20Address",
          "type": "address"
        }
      ],
      "name": "putUpForSale",
      "outputs": [],
      "stateMutability": "nonpayable",
      "type": "function"
    },
    {
      "inputs": [
        {
          "internalType": "uint256",
          "name": "_listingId",
          "type": "uint256"
        },
        {
          "internalType": "uint256",
          "name": "_newPrice",
          "type": "uint256"
        }
      ],
      "name": "changeSalePrice",
      "outputs": [],
      "stateMutability": "nonpayable",
      "type": "function"
    },
    {
      "inputs": [
        {
          "internalType": "uint256",
          "name": "_listingId",
          "type": "uint256"
        }
      ],
      "name": "pullFromSale",
      "outputs": [],
      "stateMutability": "nonpayable",
      "type": "function"
    },
    {
      "inputs": [
        {
          "internalType": "uint256",
          "name": "_listingId",
          "type": "uint256"
        }
      ],
      "name": "purchaseListing",
      "outputs": [],
      "stateMutability": "nonpayable",
      "type": "function"
    },
    {
      "inputs": [
        {
          "internalType": "uint256",
          "name": "_listingId",
          "type": "uint256"
        }
      ],
      "name": "purchaseListingOmniChain",
      "outputs": [],
      "stateMutability": "nonpayable",
      "type": "function"
    },
    {
      "inputs": [
        {
          "internalType": "uint256",
          "name": "_tokenId",
          "type": "uint256"
        }
      ],
      "name": "rollbackSales",
      "outputs": [],
      "stateMutability": "nonpayable",
      "type": "function"
    }
  ],
  "bytecode": "0x60c060405260056080819052640322e322e360dc1b60a09081526200002891600f91906200028b565b503480156200003657600080fd5b5060405162002b9a38038062002b9a83398101604081905262000059916200034e565b6200006d6200006762000149565b62000165565b6001600160a01b0384166200009f5760405162461bcd60e51b81526004016200009690620003ab565b60405180910390fd5b6001600160a01b038316620000c85760405162461bcd60e51b81526004016200009690620003ab565b600c80546001600160a01b0319166001600160a01b0383161790556005600a556000600b55620000f882620001b7565b50506001600160a01b039182166000908152600e60205260409020805460ff19166001179055600d8054919092166001600160a01b031991821681179092556003805490911690911790556200042e565b6000620001606200025560201b6200197a1760201c565b905090565b600180546001600160a01b038381166001600160a01b0319831681179093556040519116919082907f8be0079c531659141344cd1fd0a4f28419497f9722a3daafe3b4186f6b6457e090600090a35050565b620001c162000149565b6001600160a01b0316620001dd6001546001600160a01b031690565b6001600160a01b031614620002355760405162461bcd60e51b815260206004820181905260248201527f4f776e61626c653a2063616c6c6572206973206e6f7420746865206f776e6572604482015260640162000096565b600080546001600160a01b0383166001600160a01b031990911617905550565b6000601436108015906200027357506000546001600160a01b031633145b1562000286575060131936013560601c90565b503390565b8280546200029990620003f2565b90600052602060002090601f016020900481019282620002bd576000855562000308565b82601f10620002d857805160ff191683800117855562000308565b8280016001018555821562000308579182015b8281111562000308578251825591602001919060010190620002eb565b50620003169291506200031a565b5090565b5b808211156200031657600081556001016200031b565b80516001600160a01b03811681146200034957600080fd5b919050565b600080600080608085870312156200036557600080fd5b620003708562000331565b9350620003806020860162000331565b9250620003906040860162000331565b9150620003a06060860162000331565b905092959194509250565b60208082526027908201527f546f6b656e2061646472657373206d757374206e6f74206265207468652030206040820152666164647265737360c81b606082015260800190565b600181811c908216806200040757607f821691505b6020821081036200042857634e487b7160e01b600052602260045260246000fd5b50919050565b61275c806200043e6000396000f3fe608060405234801561001057600080fd5b50600436106101335760003560e01c8063086d62311461013857806312065fe01461014d578063169d5a7d1461016057806326988fe8146101735780634209a2e114610138578063486ff0cd14610186578063572b6c051461019b578063656bf63f146101605780636d1ea3fa146101be578063715018a6146101e15780637da0a877146101e95780638ad2d5a71461020e5780638da5cb5b14610221578063971ccc16146102295780639a7012881461023c5780639d93d3521461024f578063a19b56ac1461027b578063af62c6841461029b578063bddb06f3146102bb578063c82e474b146102ce578063ca9ff922146102e1578063da742228146102f4578063ea82067314610307578063f1b2d6a31461031a578063f2fde38b1461032f575b600080fd5b61014b6101463660046121fd565b610342565b005b6040514781526020015b60405180910390f35b61014b61016e3660046121fd565b61038f565b61014b6101813660046121fd565b610838565b61018e61087a565b6040516101579190612272565b6101ae6101a93660046122a1565b610908565b6040519015158152602001610157565b6101ae6101cc3660046122a1565b600e6020526000908152604090205460ff1681565b61014b61091c565b6000546001600160a01b03165b6040516001600160a01b039091168152602001610157565b6101f661021c3660046121fd565b610967565b6101f66109db565b61014b6102373660046122a1565b6109ea565b600d546101f6906001600160a01b031681565b6101ae61025d3660046122a1565b6001600160a01b03166000908152600e602052604090205460ff1690565b61028e6102893660046121fd565b610a4d565b604051610157919061235f565b6102ae6102a93660046122a1565b610afe565b604051610157919061236e565b61014b6102c93660046121fd565b610bf8565b61014b6102dc3660046123bd565b61121c565b61014b6102ef3660046122a1565b6112b3565b61014b6103023660046122a1565b611313565b61014b6103153660046123df565b611370565b610322611875565b604051610157919061242c565b61014b61033d3660046122a1565b6118cd565b61034a6119a8565b6001600160a01b031661035b6109db565b6001600160a01b03161461038a5760405162461bcd60e51b815260040161038190612464565b60405180910390fd5b600a55565b60008181526005602081815260409283902083516101608101855281548152600182015492810183905260028201548186015260038201546001600160a01b03908116606083015260048084015460808401529483015460ff908116151560a0840152600684015460c0840152600784015460e0840152600884015490811615156101008085019190915290048116610120830152600990920154610140820152600d5494516331a9108f60e11b81529384019290925290921690636352211e90602401602060405180830381865afa158015610470573d6000803e3d6000fd5b505050506040513d601f19601f820116820180604052508101906104949190612499565b6001600160a01b031681606001516001600160a01b03161461051d5760405162461bcd60e51b815260206004820152603c60248201527f4c697374696e6720696e6163746976653a206c697374696e672063726561746f60448201527b39103737ba103637b733b2b91037bbb739903a3432903a37b5b2b71760211b6064820152608401610381565b8061012001516001600160a01b03166323b872dd6105396119a8565b600c54600a5460808601516001600160a01b039092169161055c906064906124cc565b61056691906124ee565b6040518463ffffffff1660e01b81526004016105849392919061250d565b6020604051808303816000875af11580156105a3573d6000803e3d6000fd5b505050506040513d601f19601f820116820180604052508101906105c79190612531565b508061012001516001600160a01b03166323b872dd6105e46119a8565b8360600151600a54606486608001516105fd91906124cc565b61060791906124ee565b85608001516106169190612553565b6040518463ffffffff1660e01b81526004016106349392919061250d565b6020604051808303816000875af1158015610653573d6000803e3d6000fd5b505050506040513d601f19601f820116820180604052508101906106779190612531565b50600d546001600160a01b031663095ea7b36106916119a8565b60208401516040516001600160e01b031960e085901b1681526001600160a01b0390921660048301526024820152604401600060405180830381600087803b1580156106dc57600080fd5b505af11580156106f0573d6000803e3d6000fd5b5050600d5460608401516001600160a01b0390911692506342842e0e91506107166119a8565b84602001516040518463ffffffff1660e01b81526004016107399392919061250d565b600060405180830381600087803b15801561075357600080fd5b505af1158015610767573d6000803e3d6000fd5b50505050610774826119b7565b6020810151608082015160035460405163c87b56dd60e01b8152600481018490527fed50efc3a37e95478fb9c9e1d2cef8a52fe12bc05baa63ad904fa0122ef0dbe49392916001600160a01b03169063c87b56dd90602401600060405180830381865afa1580156107e9573d6000803e3d6000fd5b505050506040513d6000823e601f3d908101601f191682016040526108119190810190612580565b6108196119a8565b600160405161082c95949392919061262c565b60405180910390a15050565b6108406119a8565b6001600160a01b03166108516109db565b6001600160a01b0316146108775760405162461bcd60e51b815260040161038190612464565b50565b600f80546108879061266d565b80601f01602080910402602001604051908101604052809291908181526020018280546108b39061266d565b80156109005780601f106108d557610100808354040283529160200191610900565b820191906000526020600020905b8154815290600101906020018083116108e357829003601f168201915b505050505081565b6000546001600160a01b0391821691161490565b6109246119a8565b6001600160a01b03166109356109db565b6001600160a01b03161461095b5760405162461bcd60e51b815260040161038190612464565b6109656000611fb4565b565b600d546040516331a9108f60e11b8152600481018390526000916001600160a01b031690636352211e90602401602060405180830381865afa1580156109b1573d6000803e3d6000fd5b505050506040513d601f19601f820116820180604052508101906109d59190612499565b92915050565b6001546001600160a01b031690565b6109f26119a8565b6001600160a01b0316610a036109db565b6001600160a01b031614610a295760405162461bcd60e51b815260040161038190612464565b6001600160a01b03166000908152600e60205260409020805460ff19166001179055565b610a55612006565b506000908152600560208181526040928390208351610160810185528154815260018201549281019290925260028101549382019390935260038301546001600160a01b039081166060830152600484015460808301529183015460ff908116151560a0830152600684015460c0830152600784015460e08301526008840154908116151561010080840191909152900490911661012082015260099091015461014082015290565b6001600160a01b0381166000908152600460209081526040808320805482518185028101850190935280835260609492939192909184015b82821015610bed5760008481526020908190206040805161016081018252600a8602909201805483526001808201548486015260028201549284019290925260038101546001600160a01b03908116606085015260048201546080850152600582015460ff908116151560a0860152600683015460c0860152600783015460e08601526008830154908116151561010080870191909152900416610120840152600901546101408301529083529092019101610b36565b505050509050919050565b6000818152600560208181526040928390208351610160810185528154815260018201549281019290925260028101549382019390935260038301546001600160a01b039081166060830152600484015460808301529183015460ff908116151560a0830152600684015460c0830152600784015460e083015260088401549081161515610100808401919091529004909116610120820152600990910154610140820152610ca56119a8565b6001600160a01b031681606001516001600160a01b031614610d155760405162461bcd60e51b815260206004820152602360248201527f4d75737420626520746865206f776e657220746f2070756c6c2066726f6d2073604482015262616c6560e81b6064820152608401610381565b600060046000610d236119a8565b6001600160a01b03166001600160a01b03168152602001908152602001600020905060005b8154811015611029576000828281548110610d6557610d656126a7565b60009182526020918290206040805161016081018252600a909302909101805480845260018201549484019490945260028101549183019190915260038101546001600160a01b03908116606084015260048201546080840152600582015460ff908116151560a0850152600683015460c0850152600783015460e0850152600883015490811615156101008086019190915290041661012083015260090154610140820152855190925090036110165782548390610e2690600190612553565b81548110610e3657610e366126a7565b90600052602060002090600a0201838381548110610e5657610e566126a7565b6000918252602082208354600a9290920201908155600180840154908201556002808401549082015560038084015490820180546001600160a01b039283166001600160a01b031990911617905560048085015481840155600580860154908401805460ff1990811660ff93841615151790915560068088015490860155600780880154908601556008808801805491870180549384169290941615159182178455546001600160a81b0319909216610100600160a81b0319909116176101009182900490941602929092179091556009938401549390910192909255849190610f3e6119a8565b6001600160a01b0316815260208101919091526040016000208154610f639290612076565b5060046000610f706119a8565b6001600160a01b03166001600160a01b03168152602001908152602001600020805480610f9f57610f9f6126bd565b600082815260208120600a6000199093019283020181815560018101829055600281018290556003810180546001600160a01b03191690556004810182905560058101805460ff1916905560068101829055600781018290556008810180546001600160a81b031916905560090155905550611029565b5080611021816126d3565b915050610d48565b5060005b6008548110156110ee5760006008828154811061104c5761104c6126a7565b90600052602060002001549050836000015181036110db576008805461107490600190612553565b81548110611084576110846126a7565b9060005260206000200154600883815481106110a2576110a26126a7565b60009182526020909120015560088054806110bf576110bf6126bd565b60019003818190600052602060002001600090559055506110ee565b50806110e6816126d3565b91505061102d565b5060008381526005602081815260408084208481556001810185905560028101859055600380820180546001600160a01b03191690556004808301879055948201805460ff1916905560068201869055600782018690556008820180546001600160a81b0319169055600990910194909455908501519254905163c87b56dd60e01b81529182018390527fd1542b8a62548de416836f4b86ab871dfb6a539e1c8290295e1e870e3f5b0fce92916001600160a01b039091169063c87b56dd90602401600060405180830381865afa1580156111cd573d6000803e3d6000fd5b505050506040513d6000823e601f3d908101601f191682016040526111f59190810190612580565b6111fd6119a8565b600060405161120f94939291906126ec565b60405180910390a1505050565b6112246119a8565b6000838152600560205260409020600301546001600160a01b0390811691161461129e5760405162461bcd60e51b815260206004820152602560248201527f4d757374206265206f776e657220746f206368616e6765206c697374696e6720604482015264707269636560d81b6064820152608401610381565b60009182526005602052604090912060040155565b6112bb6119a8565b6001600160a01b03166112cc6109db565b6001600160a01b0316146112f25760405162461bcd60e51b815260040161038190612464565b6001600160a01b03166000908152600e60205260409020805460ff19169055565b61131b6119a8565b6001600160a01b031661132c6109db565b6001600160a01b0316146113525760405162461bcd60e51b815260040161038190612464565b600080546001600160a01b0319166001600160a01b03831617905550565b6001600160a01b0381166000908152600e602052604090205460ff166113e75760405162461bcd60e51b815260206004820152602660248201527f4d757374206265206c697374656420707269636520696e20617070726f766564604482015265103a37b5b2b760d11b6064820152608401610381565b60008581526007602052604090205460ff1661145a5760405162461bcd60e51b815260206004820152602c60248201527f43616e6e6f74206d616b652061206c697374696e6720666f72206120626c616360448201526b1adb1a5cdd1959081d93919560a21b6064820152608401610381565b6114626119a8565b6001600160a01b031661147486610967565b6001600160a01b0316146114c75760405162461bcd60e51b815260206004820152601a602482015279135d5cdd081899481bdddb995c881d1bc81b1a5cdd081d93919560321b6044820152606401610381565b6114d5600280546001019055565b60006114e060025490565b90506114ea612006565b818152602081018790526114fc6119a8565b6001600160a01b03908116606083015260808201879052600060a0830181905260c0830187905260e0830186905261010083018190529084166101208301524261014083015260049061154d6119a8565b6001600160a01b03166001600160a01b031681526020019081526020016000208190806001815401808255809150506001900390600052602060002090600a020160009091909190915060008201518160000155602082015181600101556040820151816002015560608201518160030160006101000a8154816001600160a01b0302191690836001600160a01b031602179055506080820151816004015560a08201518160050160006101000a81548160ff02191690831515021790555060c0820151816006015560e082015181600701556101008201518160080160006101000a81548160ff0219169083151502179055506101208201518160080160016101000a8154816001600160a01b0302191690836001600160a01b0316021790555061014082015181600901555050806005600084815260200190815260200160002060008201518160000155602082015181600101556040820151816002015560608201518160030160006101000a8154816001600160a01b0302191690836001600160a01b031602179055506080820151816004015560a08201518160050160006101000a81548160ff02191690831515021790555060c0820151816006015560e082015181600701556101008201518160080160006101000a81548160ff0219169083151502179055506101208201518160080160016101000a8154816001600160a01b0302191690836001600160a01b0316021790555061014082015181600901559050506008816000015190806001815401808255809150506001900390600052602060002001600090919091909150557ff4fed5a4ea597a866c3bf2adb1d0e0334a9980d031fce4b5e174edb01d2fab9287600360009054906101000a90046001600160a01b03166001600160a01b031663c87b56dd8a6040518263ffffffff1660e01b815260040161180891815260200190565b600060405180830381865afa158015611825573d6000803e3d6000fd5b505050506040513d6000823e601f3d908101601f1916820160405261184d9190810190612580565b8360600151600160405161186494939291906126ec565b60405180910390a150505050505050565b606060088054806020026020016040519081016040528092919081815260200182805480156118c357602002820191906000526020600020905b8154815260200190600101908083116118af575b5050505050905090565b6118d56119a8565b6001600160a01b03166118e66109db565b6001600160a01b03161461190c5760405162461bcd60e51b815260040161038190612464565b6001600160a01b0381166119715760405162461bcd60e51b815260206004820152602660248201527f4f776e61626c653a206e6577206f776e657220697320746865207a65726f206160448201526564647265737360d01b6064820152608401610381565b61087781611fb4565b600060143610801590611991575061199133610908565b156119a3575060131936013560601c90565b503390565b60006119b261197a565b905090565b60008181526005602081815260408084208151610160810183528154815260018201548185015260028201548184015260038201546001600160a01b039081166060830181905260048085015460808501529684015460ff908116151560a0850152600685015460c0850152600785015460e08501526008850154908116151561010080860191909152900490911661012083015260099092015461014082015290855292909152822090915b8154811015611d1c576000828281548110611a8157611a816126a7565b60009182526020918290206040805161016081018252600a909302909101805480845260018201549484019490945260028101549183019190915260038101546001600160a01b03908116606084015260048201546080840152600582015460ff908116151560a0850152600683015460c0850152600783015460e085015260088301549081161515610100808601919091529004166101208301526009015461014082015285519092509003611d095782548390611b4290600190612553565b81548110611b5257611b526126a7565b90600052602060002090600a0201838381548110611b7257611b726126a7565b600091825260208083208454600a90930201918255600180850154908301556002808501549083015560038085015490830180546001600160a01b0319166001600160a01b0392831617905560048086015481850155600580870154908501805460ff928316151560ff19918216179091556006808901549087015560078089015490870155600880890180549188018054929094161515928216831784555461010090819004861602610100600160a81b03199092166001600160a81b031990911617179055600995860154959093019490945560608801519093168252909152604090208354611c6691908590612076565b5060608401516001600160a01b03166000908152600460205260409020805480611c9257611c926126bd565b600082815260208120600a6000199093019283020181815560018101829055600281018290556003810180546001600160a01b03191690556004810182905560058101805460ff1916905560068101829055600781018290556008810180546001600160a81b031916905560090155905550611d1c565b5080611d14816126d3565b915050611a64565b5060005b600854811015611de157600060088281548110611d3f57611d3f6126a7565b9060005260206000200154905083600001518103611dce5760088054611d6790600190612553565b81548110611d7757611d776126a7565b906000526020600020015460088381548110611d9557611d956126a7565b6000918252602090912001556008805480611db257611db26126bd565b6001900381819060005260206000200160009055905550611de1565b5080611dd9816126d3565b915050611d20565b50816006600085815260200190815260200160002060008201518160000155602082015181600101556040820151816002015560608201518160030160006101000a8154816001600160a01b0302191690836001600160a01b031602179055506080820151816004015560a08201518160050160006101000a81548160ff02191690831515021790555060c0820151816006015560e082015181600701556101008201518160080160006101000a81548160ff0219169083151502179055506101208201518160080160016101000a8154816001600160a01b0302191690836001600160a01b031602179055506101408201518160090155905050600983908060018154018082558091505060019003906000526020600020016000909190919091505560056000848152602001908152602001600020600080820160009055600182016000905560028201600090556003820160006101000a8154906001600160a01b03021916905560048201600090556005820160006101000a81549060ff0219169055600682016000905560078201600090556008820160006101000a81549060ff02191690556008820160016101000a8154906001600160a01b03021916905560098201600090555050505050565b600180546001600160a01b038381166001600160a01b0319831681179093556040519116919082907f8be0079c531659141344cd1fd0a4f28419497f9722a3daafe3b4186f6b6457e090600090a35050565b60405180610160016040528060008152602001600081526020016000815260200160006001600160a01b0316815260200160008152602001600015158152602001600081526020016000815260200160001515815260200160006001600160a01b03168152602001600081525090565b82805482825590600052602060002090600a02810192821561217f57600052602060002091600a0282015b8281111561217f5782548255600180840154908301556002808401549083015560038084015490830180546001600160a01b039283166001600160a01b031990911617905560048085015490840155600580850154908401805460ff1990811660ff93841615151790915560068087015490860155600780870154908601556008808701805491870180549384169290941615159182178455546001600160a81b0319909216610100600160a81b031990911617610100918290049093160291909117905560098084015490830155600a92830192909101906120a1565b5061218b92915061218f565b5090565b5b8082111561218b57600080825560018201819055600282018190556003820180546001600160a01b03191690556004820181905560058201805460ff1916905560068201819055600782018190556008820180546001600160a81b03191690556009820155600a01612190565b60006020828403121561220f57600080fd5b5035919050565b60005b83811015612231578181015183820152602001612219565b83811115612240576000848401525b50505050565b6000815180845261225e816020860160208601612216565b601f01601f19169290920160200192915050565b6020815260006122856020830184612246565b9392505050565b6001600160a01b038116811461087757600080fd5b6000602082840312156122b357600080fd5b81356122858161228c565b6001600160a01b03169052565b80518252602081015160208301526040810151604083015260608101516122f560608401826122be565b506080810151608083015260a081015161231360a084018215159052565b5060c081015160c083015260e081015160e08301526101008082015161233c8285018215159052565b505061012080820151612351828501826122be565b505061014090810151910152565b61016081016109d582846122cb565b6020808252825182820181905260009190848201906040850190845b818110156123b15761239d8385516122cb565b92840192610160929092019160010161238a565b50909695505050505050565b600080604083850312156123d057600080fd5b50508035926020909101359150565b600080600080600060a086880312156123f757600080fd5b85359450602086013593506040860135925060608601359150608086013561241e8161228c565b809150509295509295909350565b6020808252825182820181905260009190848201906040850190845b818110156123b157835183529284019291840191600101612448565b6020808252818101527f4f776e61626c653a2063616c6c6572206973206e6f7420746865206f776e6572604082015260600190565b6000602082840312156124ab57600080fd5b81516122858161228c565b634e487b7160e01b600052601160045260246000fd5b6000826124e957634e487b7160e01b600052601260045260246000fd5b500490565b6000816000190483118215151615612508576125086124b6565b500290565b6001600160a01b039384168152919092166020820152604081019190915260600190565b60006020828403121561254357600080fd5b8151801515811461228557600080fd5b600082821015612565576125656124b6565b500390565b634e487b7160e01b600052604160045260246000fd5b60006020828403121561259257600080fd5b81516001600160401b03808211156125a957600080fd5b818401915084601f8301126125bd57600080fd5b8151818111156125cf576125cf61256a565b604051601f8201601f19908116603f011681019083821181831017156125f7576125f761256a565b8160405282815287602084870101111561261057600080fd5b612621836020830160208801612216565b979650505050505050565b85815284602082015260a06040820152600061264b60a0830186612246565b6001600160a01b03949094166060830152509015156080909101529392505050565b600181811c9082168061268157607f821691505b6020821081036126a157634e487b7160e01b600052602260045260246000fd5b50919050565b634e487b7160e01b600052603260045260246000fd5b634e487b7160e01b600052603160045260246000fd5b6000600182016126e5576126e56124b6565b5060010190565b8481526080602082015260006127056080830186612246565b6001600160a01b03949094166040830152509015156060909101529291505056fea264697066735822122035ad880c3afe60f43dd78fe0c9d9cb0a10822760af6c024ed10618c250ea955d64736f6c634300080e0033",
  "immutableReferences": {},
  "source": "// SPDX-License-Identifier: MIT\n\n/**\n *****    .*****************************************     *****.\n  *****     ***************************************    .*****\n   ******    ******                                   ******\n     *****     *****                                ******        ***       ****    ***,      **********      ****      ***********       .***         .***          ***       ***\n      ******    ******                             *****           ***.    ****     ***,      ***     ***.    ****      ***      ****     .***        ******         *****     ***\n        *****     **************************,    ******             ***,  ***       ***,      ***    ****     ****      ***       ****    .***       **** ***        *** ****  ***\n         ,*****    ************************     *****                *******        ***,      ********.       ****      ***       ***     .***      ***,   ***       ***   *******\n           *****     *****                    ******                  *****         ***,      ***   ***,      ****      ***     ****,     .***     ************      ***     *****\n            ,*****    ******                ,*****                     .**          ***,      ***    ****     ****      **********        .***    ***        ***     ***       ***\n              *****     ******             ******\n                *****     ***********    ,*****\n                 ******    ********     ******\n                   *****     *****    ******                       **********     ****    ****      ,**********     ***       ***.          **.          **        ***        **********      **********\n                    ******    **     *****                         ***.            **** ****      .****      *      ***       ***.        .****,         *****     ***      ****      *,      ***.\n                      *****        ******                          *********         ******       ***               *************.       ,*******        *******   ***     ****               *********\n                       .*****     *****                            *********         ******       ***               *************.      ****  ****       ***  ********     ***.     *****     *********\n                         *****. ******                             ***.            **** ****      ****.             ***       ***.     ************      ***     *****      ****      ***     ***.\n                          .*********                               **********     ****    ****      ***********     ***       ***.    ***.       ***     ***       ***        ***********     **********\n                            *******\n                              ***\n */\n\npragma solidity ^0.8.0;\n\nimport \"@openzeppelin/contracts/access/Ownable.sol\";\nimport \"@openzeppelin/contracts/token/ERC721/ERC721.sol\";\nimport \"@openzeppelin/contracts/token/ERC20/IERC20.sol\";\nimport \"@openzeppelin/contracts/token/ERC20/ERC20.sol\";\nimport \"@openzeppelin/contracts/utils/Counters.sol\";\nimport \"erc721a/contracts/IERC721A.sol\";\nimport \"@opengsn/contracts/src/BaseRelayRecipient.sol\";\n\nimport \"./ViridianNFT.sol\";\n\n/**\n * Exchange contract that helps facilitate the buying and selling on Viridian NFTs.\n * Will support cross-chain purcahsing whether the NFT or listing is on that chain or not.\n */\ncontract ViridianExchange is BaseRelayRecipient, Ownable {\n\n    // Events to assist listing, purchasing, and unlisting visuals on front-end.\n    event ItemListed(uint256 tokenId, string uri, address wallet, bool listed);\n    event ItemUnlisted(uint256 tokenId, string uri, address wallet, bool listed);\n    event PurchasedListing(uint256 tokenId, uint256 price, string uri, address wallet, bool purchased);\n\n    // Incrementing counter for listing Ids\n    using Counters for Counters.Counter;\n    Counters.Counter private _listingIds;\n\n    // Viridian Genesis NFT instance\n    ViridianNFT vNFT;\n    \n    // Struct with all information for a listing\n    struct Listing {\n        uint256 listingId;\n        uint256 tokenId;\n        uint256 chainId;\n        address owner;\n        uint256 price;\n        bool purchased;\n        uint256 baseRoyalty;\n        uint256 endTime;\n        bool sold;\n        address erc20Address;\n        uint256 timeListed;\n    }\n\n    // All listings that an individual user has made (Maybe remove for gas optimization on Ethereum)\n    mapping (address => Listing[]) userListings;\n\n    // All listings on the exchange\n    mapping (uint256 => Listing) listings;\n    // All listing sales that have been completed on the platform\n    mapping (uint256 => Listing) soldListings;\n    // All tokens that are not allowed to be listed on the platform\n    mapping (uint256 => bool) tokenIdBlacklist;\n\n    // All listing ids on the site (Maybe remove for gas optimization)\n    uint256[] private listingIds;\n\n    // All listing ids of sales that have been completed on the platform\n    uint256[] private soldListingIds;\n\n    // Base royalty amount for site transactions\n    uint256 private baseRoyalty;\n    // Royalty for users who are recieving promotional rates\n    uint256 private whitelistRoyalty;\n    // Treasury address where royalty payments are sent to\n    address private treasuryAddress;\n\n    // The current address for the Viridian NFT Contract\n    address public viridianNFT;\n\n    // All approved ERC20 tokens that can be used on the site.\n    mapping (address => bool) public approvedTokens;\n\n    /**\n     * @dev Set the default ERC20Token address, Viridian NFT address, forwarder for gasless, and treasury for royalty payments.\n     */\n    constructor(address _erc20Token, address _viridianNFT, address _forwarder, address _treasury) {\n        require(address(_erc20Token) != address(0), \"Token address must not be the 0 address\");\n        require(address(_viridianNFT) != address(0), \"Token address must not be the 0 address\");\n\n        treasuryAddress = _treasury;\n        baseRoyalty = 5;\n        whitelistRoyalty = 0;\n\n        setTrustedForwarder(_forwarder);\n\n        approvedTokens[_erc20Token] = true;\n        viridianNFT = _viridianNFT;\n\n        vNFT = ViridianNFT(_viridianNFT);\n    }\n\n    string public override versionRecipient = \"2.2.0\";\n\n    /**\n     * @dev Owner can change the trusted forwarder used for gasless.\n     */\n    function setTrustedForwarder(address _forwarder) public onlyOwner() {\n        _setTrustedForwarder(_forwarder);\n    }\n\n    /**\n     * @dev Replaces msg.sender for gasless support.\n     */\n    function _msgSender() internal view override(Context, BaseRelayRecipient) returns (address sender) {\n        sender = BaseRelayRecipient._msgSender();\n    }\n\n    /**\n     * @dev Replaces msg.data for gasless support.\n     */\n    function _msgData() internal view override(Context, BaseRelayRecipient) returns (bytes calldata) {\n        return BaseRelayRecipient._msgData();\n    }\n\n    /**\n     * @dev Owner can set a new default royalty value for the exchange.\n     */\n    function setRoyalty(uint256 _newRoyalty) public onlyOwner() {\n        baseRoyalty = _newRoyalty;\n    }\n\n    /**\n     * @dev Owner can set a new promotional royalty value for the exchange.\n     */\n    function setWhitelistRoyalty(uint256 _newRoyalty) public onlyOwner() {\n        baseRoyalty = _newRoyalty;\n    }\n\n    /**\n     * @dev Owner can add support for a new ERC20 token on the exchange.\n     */\n    function addERC20Token(address _erc20Address) public onlyOwner() {\n        approvedTokens[_erc20Address] = true;\n    }\n\n    /**\n     * @dev Owner can remove support for an ERC20 token on the exchange.\n     */\n    function removeERC20Token(address _erc20Address) public onlyOwner() {\n        approvedTokens[_erc20Address] = false;\n    }\n\n    /**\n     * @dev Returns whether the ERC20 token is supported on the exchange.\n     */\n    function isTokenApproved(address _erc20Address) public view returns (bool) {\n        return approvedTokens[_erc20Address];\n    }\n\n    /**\n     * @dev Gets the balance of the exchange contract.\n     */\n    function getBalance() public view returns (uint) {\n        return address(this).balance;\n    }\n\n    /**\n     * @dev Gets all listing ids that are currently on the exchange.\n     */\n    function getListings() public view returns (uint256[] memory) {\n        return listingIds;\n    }\n\n    /**\n     * @dev Gets the listing struct from a listing Id.\n     */\n    function getListingFromId(uint256 _listingId) public view returns (Listing memory) {\n        return listings[_listingId];\n    }\n\n    /**\n     * @dev Gets all listings a user has on the exchange.\n     */\n    function getListingsFromUser(address _userAddr) public view returns (Listing[] memory) {\n        return userListings[_userAddr];\n    }\n\n    /**\n     * @dev Gets the owner of an NFT on the exchange.\n     */\n    function getNftOwner(uint256 _nftId) public view returns (address) {\n        return IERC721(viridianNFT).ownerOf(_nftId);\n    }\n\n    /**\n     * @dev User can put one of their NFTs up for sale.\n     */\n    function putUpForSale(uint256 _nftId, uint256 _price, uint256 _royalty, uint256 _endTime, address _erc20Address) public {\n        // All listing restrictions must be enforced\n        require(approvedTokens[_erc20Address], \"Must be listed price in approved token\");\n        require(tokenIdBlacklist[_nftId], \"Cannot make a listing for a blacklisted vNFT\");\n        require(getNftOwner(_nftId) == _msgSender(), \"Must be owner to list vNFT\");\n\n        // Set all data on the listing struct\n        _listingIds.increment();\n        uint256 _listingId = _listingIds.current();\n        Listing memory saleListing;\n        saleListing.listingId = _listingId;\n        saleListing.tokenId = _nftId;\n        saleListing.owner = _msgSender();\n        saleListing.price = _price;\n        saleListing.purchased = false;\n        saleListing.baseRoyalty = _royalty;\n        saleListing.endTime = _endTime;\n        saleListing.sold = false;\n        saleListing.erc20Address = _erc20Address;\n        saleListing.timeListed = block.timestamp;\n\n        // Push the listing to the current senders listings and the array of exchange listings.\n        userListings[_msgSender()].push(saleListing);\n        listings[_listingId] = saleListing;\n        listingIds.push(saleListing.listingId);\n\n        emit ItemListed(_nftId, vNFT.tokenURI(_nftId), saleListing.owner, true);\n    }\n\n    /**\n     * @dev User can put one of their NFTs up for sale.\n     */\n    function changeSalePrice(uint256 _listingId, uint256 _newPrice) public {\n        require(listings[_listingId].owner == _msgSender(), \"Must be owner to change listing price\");\n        listings[_listingId].price = _newPrice;\n    }\n\n    /**\n     * @dev User can remove one of their listings from the exchange.\n     */\n    function pullFromSale(uint256 _listingId) public {\n        Listing memory curListing = listings[_listingId];\n        require(curListing.owner == _msgSender(), \"Must be the owner to pull from sale\");\n\n        Listing[] storage curUserListings = userListings[_msgSender()];\n        for (uint i = 0; i < curUserListings.length; i++) {\n            Listing memory listing = curUserListings[i];\n            if (listing.listingId == curListing.listingId) {\n                curUserListings[i] = curUserListings[curUserListings.length - 1];\n                userListings[_msgSender()] = curUserListings;\n                userListings[_msgSender()].pop();\n                break;\n            }\n        }\n\n        for (uint256 i = 0; i < listingIds.length; i++) {\n            uint256 listingId = listingIds[i];\n            if (listingId == curListing.listingId) {\n                listingIds[i] = listingIds[listingIds.length - 1];\n                listingIds.pop();\n                break;\n            }\n        }\n\n        delete listings[_listingId];\n\n        emit ItemUnlisted(curListing.tokenId, vNFT.tokenURI(curListing.tokenId), _msgSender(), false);\n    }\n\n    /**\n     * @dev When a listing is purchased remove listing and add it to sold listings.\n     */\n    function pullFromSaleOnListingPurchase(uint256 _listingId) private {\n        Listing memory curListing = listings[_listingId];\n        //IERC721(viridianNFT).safeTransferFrom(address(this), _msgSender(), curListing.tokenId);\n        Listing[] storage curUserListings = userListings[curListing.owner];\n        for (uint i = 0; i < curUserListings.length; i++) {\n            Listing memory listing = curUserListings[i];\n            if (listing.listingId == curListing.listingId) {\n                curUserListings[i] = curUserListings[curUserListings.length - 1];\n                userListings[curListing.owner] = curUserListings;\n                userListings[curListing.owner].pop();\n                break;\n            }\n        }\n\n        for (uint256 i = 0; i < listingIds.length; i++) {\n            uint256 listingId = listingIds[i];\n            if (listingId == curListing.listingId) {\n                listingIds[i] = listingIds[listingIds.length - 1];\n                listingIds.pop();\n                break;\n            }\n        }\n\n        //TODO: Make sure this is correct\n        soldListings[_listingId] = curListing;\n        soldListingIds.push(_listingId);\n\n        delete listings[_listingId];\n    }\n\n    /**\n     * @dev Purchase listing for an NFT with an ERC20 token payment.\n     */\n    function purchaseListing(uint256 _listingId) public {\n        Listing memory curListing = listings[_listingId];\n\n        require(curListing.owner == IERC721(viridianNFT).ownerOf(curListing.tokenId), \"Listing inactive: listing creator not longer owns the token.\");\n\n        IERC20(curListing.erc20Address).transferFrom(_msgSender(), treasuryAddress, (curListing.price / 100) * baseRoyalty);\n        IERC20(curListing.erc20Address).transferFrom(_msgSender(), curListing.owner, curListing.price - ((curListing.price / 100) * baseRoyalty));\n\n        IERC721(viridianNFT).approve(_msgSender(), curListing.tokenId);\n        IERC721(viridianNFT).safeTransferFrom(curListing.owner, _msgSender(), curListing.tokenId);\n        pullFromSaleOnListingPurchase(_listingId);\n\n        emit PurchasedListing(curListing.tokenId, curListing.price, vNFT.tokenURI(curListing.tokenId), _msgSender(), true);\n    }\n\n    /**\n     * @dev Purchase listing for an NFT on a different chain with an ERC20 token payment using stargate.\n     */\n    function purchaseListingOmniChain(uint256 _listingId) public {\n        Listing memory curListing = listings[_listingId];\n\n        require(curListing.owner == IERC721(viridianNFT).ownerOf(curListing.tokenId), \"Listing inactive: listing creator not longer owns the token.\");\n\n\n        IERC20(curListing.erc20Address).transferFrom(_msgSender(), treasuryAddress, (curListing.price / 100) * baseRoyalty);\n        // TODO: Transfer payment money with stargate\n        IERC20(curListing.erc20Address).transferFrom(_msgSender(), curListing.owner, curListing.price - ((curListing.price / 100) * baseRoyalty));\n\n        IERC721(viridianNFT).approve(_msgSender(), curListing.tokenId);\n        IERC721(viridianNFT).safeTransferFrom(curListing.owner, _msgSender(), curListing.tokenId);\n        pullFromSaleOnListingPurchase(_listingId);\n\n        emit PurchasedListing(curListing.tokenId, curListing.price, vNFT.tokenURI(curListing.tokenId), _msgSender(), true);\n    }\n\n    /**\n     * @dev Reimburse every address that purcahsed a listing involving the tokenId.\n     */\n    function rollbackSales(uint256 _tokenId) external onlyOwner() {\n        // Loop through all previous sales that contain the _tokenId\n        // Put then in order in a list\n        // Loop through in-order, reimburse the current holder the full amount they paid, and reimburse the\n        // initial purchase price - final sale price if the final sale is lower than the purchase/\n    }\n}\n",
  "sourcePath": "/Users/blakehatch/Viridian-Exchange-Contracts/contracts/ViridianExchange.sol",
  "compiler": {
    "name": "solc",
    "version": "0.8.14+commit.80d49f37.Emscripten.clang"
  },
  "schemaVersion": "3.4.1",
  "updatedAt": "2022-05-23T00:22:10.600Z",
  "networkType": "ethereum",
  "devdoc": {
    "kind": "dev",
    "methods": {
      "addERC20Token(address)": {
        "details": "Owner can add support for a new ERC20 token on the exchange."
      },
      "changeSalePrice(uint256,uint256)": {
        "details": "User can put one of their NFTs up for sale."
      },
      "constructor": {
        "details": "Set the default ERC20Token address, Viridian NFT address, forwarder for gasless, and treasury for royalty payments."
      },
      "getBalance()": {
        "details": "Gets the balance of the exchange contract."
      },
      "getListingFromId(uint256)": {
        "details": "Gets the listing struct from a listing Id."
      },
      "getListings()": {
        "details": "Gets all listing ids that are currently on the exchange."
      },
      "getListingsFromUser(address)": {
        "details": "Gets all listings a user has on the exchange."
      },
      "getNftOwner(uint256)": {
        "details": "Gets the owner of an NFT on the exchange."
      },
      "isTokenApproved(address)": {
        "details": "Returns whether the ERC20 token is supported on the exchange."
      },
      "owner()": {
        "details": "Returns the address of the current owner."
      },
      "pullFromSale(uint256)": {
        "details": "User can remove one of their listings from the exchange."
      },
      "purchaseListing(uint256)": {
        "details": "Purchase listing for an NFT with an ERC20 token payment."
      },
      "purchaseListingOmniChain(uint256)": {
        "details": "Purchase listing for an NFT on a different chain with an ERC20 token payment using stargate."
      },
      "putUpForSale(uint256,uint256,uint256,uint256,address)": {
        "details": "User can put one of their NFTs up for sale."
      },
      "removeERC20Token(address)": {
        "details": "Owner can remove support for an ERC20 token on the exchange."
      },
      "renounceOwnership()": {
        "details": "Leaves the contract without owner. It will not be possible to call `onlyOwner` functions anymore. Can only be called by the current owner. NOTE: Renouncing ownership will leave the contract without an owner, thereby removing any functionality that is only available to the owner."
      },
      "rollbackSales(uint256)": {
        "details": "Reimburse every address that purcahsed a listing involving the tokenId."
      },
      "setRoyalty(uint256)": {
        "details": "Owner can set a new default royalty value for the exchange."
      },
      "setTrustedForwarder(address)": {
        "details": "Owner can change the trusted forwarder used for gasless."
      },
      "setWhitelistRoyalty(uint256)": {
        "details": "Owner can set a new promotional royalty value for the exchange."
      },
      "transferOwnership(address)": {
        "details": "Transfers ownership of the contract to a new account (`newOwner`). Can only be called by the current owner."
      }
    },
    "version": 1
  },
  "userdoc": {
    "kind": "user",
    "methods": {
      "isTrustedForwarder(address)": {
        "notice": "return if the forwarder is trusted to forward relayed transactions to us. the forwarder is required to verify the sender's signature, and verify the call is not a replay."
      }
    },
    "notice": "Exchange contract that helps facilitate the buying and selling on Viridian NFTs. Will support cross-chain purcahsing whether the NFT or listing is on that chain or not.",
    "version": 1
  }
}