{
  "contractName": "ViridianPack",
  "abi": [
    {
      "inputs": [
        {
          "internalType": "address",
          "name": "_viridianNFT",
          "type": "address"
        },
        {
          "internalType": "address",
          "name": "_forwarder",
          "type": "address"
        }
      ],
      "stateMutability": "nonpayable",
      "type": "constructor"
    },
    {
      "anonymous": false,
      "inputs": [
        {
          "indexed": true,
          "internalType": "address",
          "name": "owner",
          "type": "address"
        },
        {
          "indexed": true,
          "internalType": "address",
          "name": "approved",
          "type": "address"
        },
        {
          "indexed": true,
          "internalType": "uint256",
          "name": "tokenId",
          "type": "uint256"
        }
      ],
      "name": "Approval",
      "type": "event"
    },
    {
      "anonymous": false,
      "inputs": [
        {
          "indexed": true,
          "internalType": "address",
          "name": "owner",
          "type": "address"
        },
        {
          "indexed": true,
          "internalType": "address",
          "name": "operator",
          "type": "address"
        },
        {
          "indexed": false,
          "internalType": "bool",
          "name": "approved",
          "type": "bool"
        }
      ],
      "name": "ApprovalForAll",
      "type": "event"
    },
    {
      "anonymous": false,
      "inputs": [
        {
          "indexed": false,
          "internalType": "string[10]",
          "name": "newUris",
          "type": "string[10]"
        }
      ],
      "name": "Open",
      "type": "event"
    },
    {
      "anonymous": false,
      "inputs": [
        {
          "indexed": true,
          "internalType": "address",
          "name": "previousOwner",
          "type": "address"
        },
        {
          "indexed": true,
          "internalType": "address",
          "name": "newOwner",
          "type": "address"
        }
      ],
      "name": "OwnershipTransferred",
      "type": "event"
    },
    {
      "anonymous": false,
      "inputs": [
        {
          "indexed": false,
          "internalType": "uint256",
          "name": "tokenId",
          "type": "uint256"
        }
      ],
      "name": "PackResultDecided",
      "type": "event"
    },
    {
      "anonymous": false,
      "inputs": [
        {
          "indexed": true,
          "internalType": "address",
          "name": "from",
          "type": "address"
        },
        {
          "indexed": true,
          "internalType": "address",
          "name": "to",
          "type": "address"
        },
        {
          "indexed": true,
          "internalType": "uint256",
          "name": "tokenId",
          "type": "uint256"
        }
      ],
      "name": "Transfer",
      "type": "event"
    },
    {
      "inputs": [
        {
          "internalType": "address",
          "name": "to",
          "type": "address"
        },
        {
          "internalType": "uint256",
          "name": "tokenId",
          "type": "uint256"
        }
      ],
      "name": "approve",
      "outputs": [],
      "stateMutability": "nonpayable",
      "type": "function"
    },
    {
      "inputs": [
        {
          "internalType": "address",
          "name": "owner",
          "type": "address"
        }
      ],
      "name": "balanceOf",
      "outputs": [
        {
          "internalType": "uint256",
          "name": "",
          "type": "uint256"
        }
      ],
      "stateMutability": "view",
      "type": "function",
      "constant": true
    },
    {
      "inputs": [
        {
          "internalType": "uint256",
          "name": "tokenId",
          "type": "uint256"
        }
      ],
      "name": "getApproved",
      "outputs": [
        {
          "internalType": "address",
          "name": "",
          "type": "address"
        }
      ],
      "stateMutability": "view",
      "type": "function",
      "constant": true
    },
    {
      "inputs": [
        {
          "internalType": "address",
          "name": "owner",
          "type": "address"
        },
        {
          "internalType": "address",
          "name": "operator",
          "type": "address"
        }
      ],
      "name": "isApprovedForAll",
      "outputs": [
        {
          "internalType": "bool",
          "name": "",
          "type": "bool"
        }
      ],
      "stateMutability": "view",
      "type": "function",
      "constant": true
    },
    {
      "inputs": [
        {
          "internalType": "address",
          "name": "forwarder",
          "type": "address"
        }
      ],
      "name": "isTrustedForwarder",
      "outputs": [
        {
          "internalType": "bool",
          "name": "",
          "type": "bool"
        }
      ],
      "stateMutability": "view",
      "type": "function",
      "constant": true
    },
    {
      "inputs": [],
      "name": "name",
      "outputs": [
        {
          "internalType": "string",
          "name": "",
          "type": "string"
        }
      ],
      "stateMutability": "view",
      "type": "function",
      "constant": true
    },
    {
      "inputs": [],
      "name": "owner",
      "outputs": [
        {
          "internalType": "address",
          "name": "",
          "type": "address"
        }
      ],
      "stateMutability": "view",
      "type": "function",
      "constant": true
    },
    {
      "inputs": [
        {
          "internalType": "uint256",
          "name": "tokenId",
          "type": "uint256"
        }
      ],
      "name": "ownerOf",
      "outputs": [
        {
          "internalType": "address",
          "name": "",
          "type": "address"
        }
      ],
      "stateMutability": "view",
      "type": "function",
      "constant": true
    },
    {
      "inputs": [],
      "name": "renounceOwnership",
      "outputs": [],
      "stateMutability": "nonpayable",
      "type": "function"
    },
    {
      "inputs": [
        {
          "internalType": "address",
          "name": "operator",
          "type": "address"
        },
        {
          "internalType": "bool",
          "name": "approved",
          "type": "bool"
        }
      ],
      "name": "setApprovalForAll",
      "outputs": [],
      "stateMutability": "nonpayable",
      "type": "function"
    },
    {
      "inputs": [
        {
          "internalType": "bytes4",
          "name": "interfaceId",
          "type": "bytes4"
        }
      ],
      "name": "supportsInterface",
      "outputs": [
        {
          "internalType": "bool",
          "name": "",
          "type": "bool"
        }
      ],
      "stateMutability": "view",
      "type": "function",
      "constant": true
    },
    {
      "inputs": [],
      "name": "symbol",
      "outputs": [
        {
          "internalType": "string",
          "name": "",
          "type": "string"
        }
      ],
      "stateMutability": "view",
      "type": "function",
      "constant": true
    },
    {
      "inputs": [
        {
          "internalType": "address",
          "name": "newOwner",
          "type": "address"
        }
      ],
      "name": "transferOwnership",
      "outputs": [],
      "stateMutability": "nonpayable",
      "type": "function"
    },
    {
      "inputs": [],
      "name": "trustedForwarder",
      "outputs": [
        {
          "internalType": "address",
          "name": "",
          "type": "address"
        }
      ],
      "stateMutability": "view",
      "type": "function",
      "constant": true
    },
    {
      "inputs": [],
      "name": "versionRecipient",
      "outputs": [
        {
          "internalType": "string",
          "name": "",
          "type": "string"
        }
      ],
      "stateMutability": "view",
      "type": "function",
      "constant": true
    },
    {
      "inputs": [],
      "name": "viridianNFTAddr",
      "outputs": [
        {
          "internalType": "address",
          "name": "",
          "type": "address"
        }
      ],
      "stateMutability": "view",
      "type": "function",
      "constant": true
    },
    {
      "inputs": [
        {
          "internalType": "address",
          "name": "_forwarder",
          "type": "address"
        }
      ],
      "name": "setTrustedForwarder",
      "outputs": [],
      "stateMutability": "nonpayable",
      "type": "function"
    },
    {
      "inputs": [
        {
          "internalType": "address",
          "name": "_newAdmin",
          "type": "address"
        }
      ],
      "name": "addAdmin",
      "outputs": [],
      "stateMutability": "nonpayable",
      "type": "function"
    },
    {
      "inputs": [
        {
          "internalType": "address",
          "name": "_newAdmin",
          "type": "address"
        }
      ],
      "name": "removeAdmin",
      "outputs": [],
      "stateMutability": "nonpayable",
      "type": "function"
    },
    {
      "inputs": [
        {
          "internalType": "string",
          "name": "baseURI_",
          "type": "string"
        }
      ],
      "name": "setBaseURI",
      "outputs": [],
      "stateMutability": "nonpayable",
      "type": "function"
    },
    {
      "inputs": [
        {
          "internalType": "uint256",
          "name": "tokenId",
          "type": "uint256"
        },
        {
          "internalType": "string",
          "name": "_tokenURI",
          "type": "string"
        }
      ],
      "name": "_setTokenURI",
      "outputs": [],
      "stateMutability": "nonpayable",
      "type": "function"
    },
    {
      "inputs": [
        {
          "internalType": "uint256",
          "name": "tokenId",
          "type": "uint256"
        }
      ],
      "name": "tokenURI",
      "outputs": [
        {
          "internalType": "string",
          "name": "",
          "type": "string"
        }
      ],
      "stateMutability": "view",
      "type": "function",
      "constant": true
    },
    {
      "inputs": [
        {
          "internalType": "uint256",
          "name": "_rarity",
          "type": "uint256"
        }
      ],
      "name": "getUriRarityPools",
      "outputs": [
        {
          "internalType": "string[]",
          "name": "",
          "type": "string[]"
        }
      ],
      "stateMutability": "view",
      "type": "function",
      "constant": true
    },
    {
      "inputs": [],
      "name": "getNumNFTs",
      "outputs": [
        {
          "internalType": "uint256",
          "name": "n",
          "type": "uint256"
        }
      ],
      "stateMutability": "view",
      "type": "function",
      "constant": true
    },
    {
      "inputs": [],
      "name": "getNumOwnedNFTs",
      "outputs": [
        {
          "internalType": "uint256",
          "name": "",
          "type": "uint256"
        }
      ],
      "stateMutability": "view",
      "type": "function",
      "constant": true
    },
    {
      "inputs": [],
      "name": "getOwnedNFTs",
      "outputs": [
        {
          "internalType": "uint256[]",
          "name": "",
          "type": "uint256[]"
        }
      ],
      "stateMutability": "view",
      "type": "function",
      "constant": true
    },
    {
      "inputs": [
        {
          "internalType": "uint256",
          "name": "_rarity",
          "type": "uint256"
        },
        {
          "internalType": "uint256",
          "name": "_rarityOdd",
          "type": "uint256"
        },
        {
          "internalType": "uint256",
          "name": "_newOdds",
          "type": "uint256"
        }
      ],
      "name": "setRarityOdds",
      "outputs": [],
      "stateMutability": "nonpayable",
      "type": "function"
    },
    {
      "inputs": [
        {
          "internalType": "uint256",
          "name": "tokenId",
          "type": "uint256"
        }
      ],
      "name": "isListed",
      "outputs": [
        {
          "internalType": "bool",
          "name": "",
          "type": "bool"
        }
      ],
      "stateMutability": "view",
      "type": "function",
      "constant": true
    },
    {
      "inputs": [
        {
          "internalType": "address",
          "name": "_to",
          "type": "address"
        },
        {
          "internalType": "string",
          "name": "tokenURI_",
          "type": "string"
        }
      ],
      "name": "mint",
      "outputs": [],
      "stateMutability": "nonpayable",
      "type": "function"
    },
    {
      "inputs": [
        {
          "internalType": "string",
          "name": "uri",
          "type": "string"
        },
        {
          "internalType": "uint256",
          "name": "rarity",
          "type": "uint256"
        }
      ],
      "name": "softMintNFT",
      "outputs": [],
      "stateMutability": "nonpayable",
      "type": "function"
    },
    {
      "inputs": [
        {
          "internalType": "uint256",
          "name": "rarity",
          "type": "uint256"
        },
        {
          "internalType": "uint256",
          "name": "index",
          "type": "uint256"
        }
      ],
      "name": "burnSoftMintedNFTAtRarityIndex",
      "outputs": [],
      "stateMutability": "nonpayable",
      "type": "function"
    },
    {
      "inputs": [
        {
          "internalType": "string",
          "name": "_s",
          "type": "string"
        },
        {
          "internalType": "string",
          "name": "_s1",
          "type": "string"
        }
      ],
      "name": "compareStrings",
      "outputs": [
        {
          "internalType": "bool",
          "name": "",
          "type": "bool"
        }
      ],
      "stateMutability": "pure",
      "type": "function",
      "constant": true
    },
    {
      "inputs": [
        {
          "internalType": "address",
          "name": "_vrfAddress",
          "type": "address"
        }
      ],
      "name": "configureVRF",
      "outputs": [],
      "stateMutability": "nonpayable",
      "type": "function"
    },
    {
      "inputs": [
        {
          "internalType": "uint256",
          "name": "_tokenId",
          "type": "uint256"
        }
      ],
      "name": "lockInPackResult",
      "outputs": [],
      "stateMutability": "nonpayable",
      "type": "function"
    },
    {
      "inputs": [
        {
          "internalType": "uint256",
          "name": "_tokenId",
          "type": "uint256"
        }
      ],
      "name": "isPackResultDecided",
      "outputs": [
        {
          "internalType": "bool",
          "name": "",
          "type": "bool"
        }
      ],
      "stateMutability": "view",
      "type": "function",
      "constant": true
    },
    {
      "inputs": [
        {
          "internalType": "uint256",
          "name": "_tokenId",
          "type": "uint256"
        }
      ],
      "name": "getRandIndexPercentOdds",
      "outputs": [
        {
          "internalType": "uint256",
          "name": "",
          "type": "uint256"
        }
      ],
      "stateMutability": "view",
      "type": "function",
      "constant": true
    },
    {
      "inputs": [
        {
          "internalType": "uint256",
          "name": "_tokenId",
          "type": "uint256"
        }
      ],
      "name": "getRandIndexRarity",
      "outputs": [
        {
          "internalType": "uint256",
          "name": "",
          "type": "uint256"
        }
      ],
      "stateMutability": "view",
      "type": "function",
      "constant": true
    },
    {
      "inputs": [
        {
          "internalType": "uint256",
          "name": "_tokenId",
          "type": "uint256"
        }
      ],
      "name": "openPack",
      "outputs": [],
      "stateMutability": "nonpayable",
      "type": "function"
    },
    {
      "inputs": [
        {
          "internalType": "uint256",
          "name": "tokenId",
          "type": "uint256"
        }
      ],
      "name": "burn",
      "outputs": [],
      "stateMutability": "nonpayable",
      "type": "function"
    },
    {
      "inputs": [
        {
          "internalType": "address",
          "name": "from",
          "type": "address"
        },
        {
          "internalType": "address",
          "name": "to",
          "type": "address"
        },
        {
          "internalType": "uint256",
          "name": "tokenId",
          "type": "uint256"
        }
      ],
      "name": "safeTransferFrom",
      "outputs": [],
      "stateMutability": "nonpayable",
      "type": "function"
    },
    {
      "inputs": [
        {
          "internalType": "address",
          "name": "from",
          "type": "address"
        },
        {
          "internalType": "address",
          "name": "to",
          "type": "address"
        },
        {
          "internalType": "uint256",
          "name": "tokenId",
          "type": "uint256"
        },
        {
          "internalType": "bytes",
          "name": "_data",
          "type": "bytes"
        }
      ],
      "name": "safeTransferFrom",
      "outputs": [],
      "stateMutability": "nonpayable",
      "type": "function"
    },
    {
      "inputs": [
        {
          "internalType": "address",
          "name": "from",
          "type": "address"
        },
        {
          "internalType": "address",
          "name": "to",
          "type": "address"
        },
        {
          "internalType": "uint256",
          "name": "tokenId",
          "type": "uint256"
        }
      ],
      "name": "transferFrom",
      "outputs": [],
      "stateMutability": "nonpayable",
      "type": "function"
    },
    {
      "inputs": [
        {
          "internalType": "uint256",
          "name": "_tokenId",
          "type": "uint256"
        }
      ],
      "name": "listToken",
      "outputs": [],
      "stateMutability": "nonpayable",
      "type": "function"
    },
    {
      "inputs": [
        {
          "internalType": "uint256",
          "name": "_tokenId",
          "type": "uint256"
        }
      ],
      "name": "unlistToken",
      "outputs": [],
      "stateMutability": "nonpayable",
      "type": "function"
    }
  ],
  "bytecode": "0x60806040526040518060400160405280600581526020017f322e322e3000000000000000000000000000000000000000000000000000000081525060169080519060200190620000519291906200078f565b503480156200005f57600080fd5b50604051620066b1380380620066b18339818101604052810190620000859190620008a9565b6040518060400160405280600d81526020017f566972696469616e205061636b000000000000000000000000000000000000008152506040518060400160405280600281526020017f56500000000000000000000000000000000000000000000000000000000000008152508160009080519060200190620001099291906200078f565b508060019080519060200190620001229291906200078f565b5050506200014562000139620005cd60201b60201c565b620005e960201b60201c565b600073ffffffffffffffffffffffffffffffffffffffff168273ffffffffffffffffffffffffffffffffffffffff1614156200018057600080fd5b81601360006101000a81548173ffffffffffffffffffffffffffffffffffffffff021916908373ffffffffffffffffffffffffffffffffffffffff160217905550620001d281620006af60201b60201c565b601360009054906101000a900473ffffffffffffffffffffffffffffffffffffffff16601460006101000a81548173ffffffffffffffffffffffffffffffffffffffff021916908373ffffffffffffffffffffffffffffffffffffffff1602179055506019600b60008081526020019081526020016000206000808152602001908152602001600020819055506064600b60008081526020019081526020016000206000600181526020019081526020016000208190555061012c600b6000808152602001908152602001600020600060028152602001908152602001600020819055506103e8600b6000808152602001908152602001600020600060038152602001908152602001600020819055506003600c6000808152602001908152602001600020819055506001600b6000600181526020019081526020016000206000808152602001908152602001600020819055506032600b6000600181526020019081526020016000206000600181526020019081526020016000208190555060c8600b600060018152602001908152602001600020600060028152602001908152602001600020819055506103e8600b600060018152602001908152602001600020600060038152602001908152602001600020819055506003600c6000808152602001908152602001600020819055506000600b6000600281526020019081526020016000206000808152602001908152602001600020819055506032600b600060028152602001908152602001600020600060018152602001908152602001600020819055506064600b600060028152602001908152602001600020600060028152602001908152602001600020819055506103e8600b600060028152602001908152602001600020600060038152602001908152602001600020819055506003600c6000808152602001908152602001600020819055506000600b600060038152602001908152602001600020600080815260200190815260200160002081905550600a600b600060038152602001908152602001600020600060018152602001908152602001600020819055506032600b600060038152602001908152602001600020600060028152602001908152602001600020819055506103e8600b600060038152602001908152602001600020600060038152602001908152602001600020819055506003600c600080815260200190815260200160002081905550600360108190555060016012600062000574620005cd60201b60201c565b73ffffffffffffffffffffffffffffffffffffffff1673ffffffffffffffffffffffffffffffffffffffff16815260200190815260200160002060006101000a81548160ff021916908315150217905550505062000955565b6000620005e4620006f360201b62002ee01760201c565b905090565b6000600660009054906101000a900473ffffffffffffffffffffffffffffffffffffffff16905081600660006101000a81548173ffffffffffffffffffffffffffffffffffffffff021916908373ffffffffffffffffffffffffffffffffffffffff1602179055508173ffffffffffffffffffffffffffffffffffffffff168173ffffffffffffffffffffffffffffffffffffffff167f8be0079c531659141344cd1fd0a4f28419497f9722a3daafe3b4186f6b6457e060405160405180910390a35050565b80600760006101000a81548173ffffffffffffffffffffffffffffffffffffffff021916908373ffffffffffffffffffffffffffffffffffffffff16021790555050565b6000601460003690501015801562000718575062000717336200073560201b60201c565b5b156200072e57601436033560601c905062000732565b3390505b90565b6000600760009054906101000a900473ffffffffffffffffffffffffffffffffffffffff1673ffffffffffffffffffffffffffffffffffffffff168273ffffffffffffffffffffffffffffffffffffffff16149050919050565b8280546200079d906200091f565b90600052602060002090601f016020900481019282620007c157600085556200080d565b82601f10620007dc57805160ff19168380011785556200080d565b828001600101855582156200080d579182015b828111156200080c578251825591602001919060010190620007ef565b5b5090506200081c919062000820565b5090565b5b808211156200083b57600081600090555060010162000821565b5090565b600080fd5b600073ffffffffffffffffffffffffffffffffffffffff82169050919050565b6000620008718262000844565b9050919050565b620008838162000864565b81146200088f57600080fd5b50565b600081519050620008a38162000878565b92915050565b60008060408385031215620008c357620008c26200083f565b5b6000620008d38582860162000892565b9250506020620008e68582860162000892565b9150509250929050565b7f4e487b7100000000000000000000000000000000000000000000000000000000600052602260045260246000fd5b600060028204905060018216806200093857607f821691505b602082108114156200094f576200094e620008f0565b5b50919050565b615d4c80620009656000396000f3fe608060405234801561001057600080fd5b50600436106102745760003560e01c80638da5cb5b11610151578063bed34bba116100c3578063e1e3e4e211610087578063e1e3e4e214610769578063e6148d5f14610799578063e985e9c5146107b5578063ece769e7146107e5578063f2fde38b14610801578063fcce48831461081d57610274565b8063bed34bba146106b5578063c87b56dd146106e5578063d0def52114610715578063da74222814610731578063dc5df54e1461074d57610274565b8063a3524a0411610115578063a3524a0414610607578063a80f1e9c14610625578063ad3a358c14610641578063b88d4fde1461065d578063bb92c24814610679578063bda4e7971461069757610274565b80638da5cb5b1461054f57806395d89b411461056d5780639e607a3f1461058b578063a203428c146105bb578063a22cb465146105eb57610274565b8063486ff0cd116101ea5780636352211e116101ae5780636352211e1461047b57806370480275146104ab57806370a08231146104c7578063715018a6146104f75780637da0a877146105015780638a2a1fda1461051f57610274565b8063486ff0cd146103d75780634c0eb7d9146103f557806350a88c7e1461041357806355f804b31461042f578063572b6c051461044b57610274565b80630e0659311161023c5780630e0659311461032f5780631785f53c1461034b578063228061cc1461036757806323b872dd1461038357806342842e0e1461039f57806342966c68146103bb57610274565b8063015388681461027957806301ffc9a71461029557806306fdde03146102c5578063081812fc146102e3578063095ea7b314610313575b600080fd5b610293600480360381019061028e91906140cc565b61084d565b005b6102af60048036038101906102aa9190614180565b610925565b6040516102bc91906141c8565b60405180910390f35b6102cd610a07565b6040516102da919061426b565b60405180910390f35b6102fd60048036038101906102f8919061428d565b610a99565b60405161030a91906142fb565b60405180910390f35b61032d60048036038101906103289190614342565b610b1e565b005b61034960048036038101906103449190614382565b610c36565b005b610365600480360381019061036091906143de565b610ceb565b005b610381600480360381019061037c91906143de565b610dc2565b005b61039d6004803603810190610398919061440b565b610e06565b005b6103b960048036038101906103b4919061440b565b610ed8565b005b6103d560048036038101906103d0919061428d565b610faa565b005b6103df610fd0565b6040516103ec919061426b565b60405180910390f35b6103fd61105e565b60405161040a919061451c565b60405180910390f35b61042d6004803603810190610428919061428d565b611169565b005b6104496004803603810190610444919061453e565b6118df565b005b610465600480360381019061046091906143de565b61195d565b60405161047291906141c8565b60405180910390f35b6104956004803603810190610490919061428d565b6119b7565b6040516104a291906142fb565b60405180910390f35b6104c560048036038101906104c091906143de565b611a69565b005b6104e160048036038101906104dc91906143de565b611b40565b6040516104ee9190614596565b60405180910390f35b6104ff611bf8565b005b610509611c80565b60405161051691906142fb565b60405180910390f35b6105396004803603810190610534919061428d565b611caa565b6040516105469190614596565b60405180910390f35b610557611df3565b60405161056491906142fb565b60405180910390f35b610575611e1d565b604051610582919061426b565b60405180910390f35b6105a560048036038101906105a0919061428d565b611eaf565b6040516105b291906141c8565b60405180910390f35b6105d560048036038101906105d0919061428d565b611ed9565b6040516105e291906146bd565b60405180910390f35b6106056004803603810190610600919061470b565b612029565b005b61060f6121aa565b60405161061c91906142fb565b60405180910390f35b61063f600480360381019061063a919061474b565b6121d0565b005b61065b6004803603810190610656919061428d565b612262565b005b6106776004803603810190610672919061483f565b6122ab565b005b61068161230d565b60405161068e9190614596565b60405180910390f35b61069f6123a7565b6040516106ac9190614596565b60405180910390f35b6106cf60048036038101906106ca91906148c2565b6123b8565b6040516106dc91906141c8565b60405180910390f35b6106ff60048036038101906106fa919061428d565b612411565b60405161070c919061426b565b60405180910390f35b61072f600480360381019061072a919061493a565b612584565b005b61074b600480360381019061074691906143de565b612645565b005b61076760048036038101906107629190614996565b6126cd565b005b610783600480360381019061077e919061428d565b61290e565b6040516107909190614596565b60405180910390f35b6107b360048036038101906107ae919061428d565b612b2b565b005b6107cf60048036038101906107ca91906149d6565b612b74565b6040516107dc91906141c8565b60405180910390f35b6107ff60048036038101906107fa919061428d565b612c08565b005b61081b600480360381019061081691906143de565b612dbe565b005b6108376004803603810190610832919061428d565b612eb6565b60405161084491906141c8565b60405180910390f35b600115156012600061085d612f17565b73ffffffffffffffffffffffffffffffffffffffff1673ffffffffffffffffffffffffffffffffffffffff16815260200190815260200160002060009054906101000a900460ff161515146108b157600080fd5b6108ba82612f26565b6108f9576040517f08c379a00000000000000000000000000000000000000000000000000000000081526004016108f090614a88565b60405180910390fd5b80601760008481526020019081526020016000209080519060200190610920929190613dad565b505050565b60007f80ac58cd000000000000000000000000000000000000000000000000000000007bffffffffffffffffffffffffffffffffffffffffffffffffffffffff1916827bffffffffffffffffffffffffffffffffffffffffffffffffffffffff191614806109f057507f5b5e139f000000000000000000000000000000000000000000000000000000007bffffffffffffffffffffffffffffffffffffffffffffffffffffffff1916827bffffffffffffffffffffffffffffffffffffffffffffffffffffffff1916145b80610a0057506109ff82612f92565b5b9050919050565b606060008054610a1690614ad7565b80601f0160208091040260200160405190810160405280929190818152602001828054610a4290614ad7565b8015610a8f5780601f10610a6457610100808354040283529160200191610a8f565b820191906000526020600020905b815481529060010190602001808311610a7257829003601f168201915b5050505050905090565b6000610aa482612f26565b610ae3576040517f08c379a0000000000000000000000000000000000000000000000000000000008152600401610ada90614b7b565b60405180910390fd5b6004600083815260200190815260200160002060009054906101000a900473ffffffffffffffffffffffffffffffffffffffff169050919050565b6000610b29826119b7565b90508073ffffffffffffffffffffffffffffffffffffffff168373ffffffffffffffffffffffffffffffffffffffff161415610b9a576040517f08c379a0000000000000000000000000000000000000000000000000000000008152600401610b9190614c0d565b60405180910390fd5b8073ffffffffffffffffffffffffffffffffffffffff16610bb9612f17565b73ffffffffffffffffffffffffffffffffffffffff161480610be85750610be781610be2612f17565b612b74565b5b610c27576040517f08c379a0000000000000000000000000000000000000000000000000000000008152600401610c1e90614c9f565b60405180910390fd5b610c318383612ffc565b505050565b6001151560126000610c46612f17565b73ffffffffffffffffffffffffffffffffffffffff1673ffffffffffffffffffffffffffffffffffffffff16815260200190815260200160002060009054906101000a900460ff16151514610c9a57600080fd5b600f600082815260200190815260200160002082908060018154018082558091505060019003906000526020600020016000909190919091509080519060200190610ce6929190613dad565b505050565b610cf3612f17565b73ffffffffffffffffffffffffffffffffffffffff16610d11611df3565b73ffffffffffffffffffffffffffffffffffffffff1614610d67576040517f08c379a0000000000000000000000000000000000000000000000000000000008152600401610d5e90614d0b565b60405180910390fd5b6000601260008373ffffffffffffffffffffffffffffffffffffffff1673ffffffffffffffffffffffffffffffffffffffff16815260200190815260200160002060006101000a81548160ff02191690831515021790555050565b80601560006101000a81548173ffffffffffffffffffffffffffffffffffffffff021916908373ffffffffffffffffffffffffffffffffffffffff16021790555050565b600d600082815260200190815260200160002060009054906101000a900460ff1615610e67576040517f08c379a0000000000000000000000000000000000000000000000000000000008152600401610e5e90614d9d565b60405180910390fd5b6011600082815260200190815260200160002060009054906101000a900460ff1615610ec8576040517f08c379a0000000000000000000000000000000000000000000000000000000008152600401610ebf90614e2f565b60405180910390fd5b610ed38383836130b5565b505050565b600d600082815260200190815260200160002060009054906101000a900460ff1615610f39576040517f08c379a0000000000000000000000000000000000000000000000000000000008152600401610f3090614d9d565b60405180910390fd5b6011600082815260200190815260200160002060009054906101000a900460ff1615610f9a576040517f08c379a0000000000000000000000000000000000000000000000000000000008152600401610f9190614e2f565b60405180910390fd5b610fa5838383613115565b505050565b610fbb610fb5612f17565b82613135565b610fc457600080fd5b610fcd816131ac565b50565b60168054610fdd90614ad7565b80601f016020809104026020016040519081016040528092919081815260200182805461100990614ad7565b80156110565780601f1061102b57610100808354040283529160200191611056565b820191906000526020600020905b81548152906001019060200180831161103957829003601f168201915b505050505081565b6060600061106a61230d565b67ffffffffffffffff81111561108357611082613fa1565b5b6040519080825280602002602001820160405280156110b15781602001602082028036833780820191505090505b509050600080600190505b6110c660086132bd565b8111611160576110d581612f26565b1561114d576110e2612f17565b73ffffffffffffffffffffffffffffffffffffffff16611101826119b7565b73ffffffffffffffffffffffffffffffffffffffff16141561114c578083838151811061113157611130614e4f565b5b602002602001018181525050818061114890614ead565b9250505b5b808061115890614ead565b9150506110bc565b50819250505090565b61117a611174612f17565b82613135565b6111b9576040517f08c379a00000000000000000000000000000000000000000000000000000000081526004016111b090614f68565b60405180910390fd5b6011600082815260200190815260200160002060009054906101000a900460ff16611219576040517f08c379a000000000000000000000000000000000000000000000000000000000815260040161121090614ffa565b60405180910390fd5b6000601560009054906101000a900473ffffffffffffffffffffffffffffffffffffffff1673ffffffffffffffffffffffffffffffffffffffff166397597bfd836040518263ffffffff1660e01b81526004016112769190614596565b602060405180830381865afa158015611293573d6000803e3d6000fd5b505050506040513d601f19601f820116820180604052508101906112b7919061502f565b90506000601560009054906101000a900473ffffffffffffffffffffffffffffffffffffffff1673ffffffffffffffffffffffffffffffffffffffff1663d972fa1c846040518263ffffffff1660e01b81526004016113169190614596565b602060405180830381865afa158015611333573d6000803e3d6000fd5b505050506040513d601f19601f82011682018060405250810190611357919061502f565b90506000821161139c576040517f08c379a0000000000000000000000000000000000000000000000000000000008152600401611393906150ce565b60405180910390fd5b600081116113df576040517f08c379a00000000000000000000000000000000000000000000000000000000081526004016113d690615160565b60405180910390fd5b6000600e60008581526020019081526020016000205490506113ff613e33565b60005b600c6000848152602001908152602001600020548160ff16101561189757600061143e85600b60008781526020019081526020016000206132cb565b905060006001600f6000848152602001908152602001600020805490506114659190615180565b8761147091906151e3565b90506000600f6000848152602001908152602001600020828154811061149957611498614e4f565b5b9060005260206000200180546114ae90614ad7565b80601f01602080910402602001604051908101604052809291908181526020018280546114da90614ad7565b80156115275780601f106114fc57610100808354040283529160200191611527565b820191906000526020600020905b81548152906001019060200180831161150a57829003601f168201915b50505050509050601460009054906101000a900473ffffffffffffffffffffffffffffffffffffffff1673ffffffffffffffffffffffffffffffffffffffff1663d0def521611574612f17565b836040518363ffffffff1660e01b8152600401611592929190615214565b600060405180830381600087803b1580156115ac57600080fd5b505af11580156115c0573d6000803e3d6000fd5b5050505080858560ff16600a81106115db576115da614e4f565b5b60200201819052506000600f6000858152602001908152602001600020805480602002602001604051908101604052809291908181526020016000905b828210156116c457838290600052602060002001805461163790614ad7565b80601f016020809104026020016040519081016040528092919081815260200182805461166390614ad7565b80156116b05780601f10611685576101008083540402835291602001916116b0565b820191906000526020600020905b81548152906001019060200180831161169357829003601f168201915b505050505081526020019060010190611618565b50505050905060005b600f60008681526020019081526020016000208054905081101561187f576000600f6000878152602001908152602001600020828154811061171257611711614e4f565b5b90600052602060002001805461172790614ad7565b80601f016020809104026020016040519081016040528092919081815260200182805461175390614ad7565b80156117a05780601f10611775576101008083540402835291602001916117a0565b820191906000526020600020905b81548152906001019060200180831161178357829003601f168201915b505050505090506117b181856123b8565b1561186b5782600184516117c59190615180565b815181106117d6576117d5614e4f565b5b60200260200101518383815181106117f1576117f0614e4f565b5b602002602001018190525082600f60008881526020019081526020016000209080519060200190611823929190613e5b565b50600f600087815260200190815260200160002080548061184757611846615244565b5b6001900381819060005260206000200160006118639190613ebb565b90555061187f565b50808061187790614ead565b9150506116cd565b5050505050808061188f90615280565b915050611402565b506118a185610faa565b7f7a8f71ffa367c677061e81db64480595dffec51888e92c29fd97f628ad7be9bc816040516118d0919061534c565b60405180910390a15050505050565b60011515601260006118ef612f17565b73ffffffffffffffffffffffffffffffffffffffff1673ffffffffffffffffffffffffffffffffffffffff16815260200190815260200160002060009054906101000a900460ff1615151461194357600080fd5b8060189080519060200190611959929190613dad565b5050565b6000600760009054906101000a900473ffffffffffffffffffffffffffffffffffffffff1673ffffffffffffffffffffffffffffffffffffffff168273ffffffffffffffffffffffffffffffffffffffff16149050919050565b6000806002600084815260200190815260200160002060009054906101000a900473ffffffffffffffffffffffffffffffffffffffff169050600073ffffffffffffffffffffffffffffffffffffffff168173ffffffffffffffffffffffffffffffffffffffff161415611a60576040517f08c379a0000000000000000000000000000000000000000000000000000000008152600401611a57906153e0565b60405180910390fd5b80915050919050565b611a71612f17565b73ffffffffffffffffffffffffffffffffffffffff16611a8f611df3565b73ffffffffffffffffffffffffffffffffffffffff1614611ae5576040517f08c379a0000000000000000000000000000000000000000000000000000000008152600401611adc90614d0b565b60405180910390fd5b6001601260008373ffffffffffffffffffffffffffffffffffffffff1673ffffffffffffffffffffffffffffffffffffffff16815260200190815260200160002060006101000a81548160ff02191690831515021790555050565b60008073ffffffffffffffffffffffffffffffffffffffff168273ffffffffffffffffffffffffffffffffffffffff161415611bb1576040517f08c379a0000000000000000000000000000000000000000000000000000000008152600401611ba890615472565b60405180910390fd5b600360008373ffffffffffffffffffffffffffffffffffffffff1673ffffffffffffffffffffffffffffffffffffffff168152602001908152602001600020549050919050565b611c00612f17565b73ffffffffffffffffffffffffffffffffffffffff16611c1e611df3565b73ffffffffffffffffffffffffffffffffffffffff1614611c74576040517f08c379a0000000000000000000000000000000000000000000000000000000008152600401611c6b90614d0b565b60405180910390fd5b611c7e600061331d565b565b6000600760009054906101000a900473ffffffffffffffffffffffffffffffffffffffff16905090565b60006001151560126000611cbc612f17565b73ffffffffffffffffffffffffffffffffffffffff1673ffffffffffffffffffffffffffffffffffffffff16815260200190815260200160002060009054906101000a900460ff16151514611d1057600080fd5b6000601560009054906101000a900473ffffffffffffffffffffffffffffffffffffffff1673ffffffffffffffffffffffffffffffffffffffff1663d972fa1c846040518263ffffffff1660e01b8152600401611d6d9190614596565b602060405180830381865afa158015611d8a573d6000803e3d6000fd5b505050506040513d601f19601f82011682018060405250810190611dae919061502f565b90506000600e60008581526020019081526020016000205490506000611de683600b60008581526020019081526020016000206132cb565b9050809350505050919050565b6000600660009054906101000a900473ffffffffffffffffffffffffffffffffffffffff16905090565b606060018054611e2c90614ad7565b80601f0160208091040260200160405190810160405280929190818152602001828054611e5890614ad7565b8015611ea55780601f10611e7a57610100808354040283529160200191611ea5565b820191906000526020600020905b815481529060010190602001808311611e8857829003601f168201915b5050505050905090565b60006011600083815260200190815260200160002060009054906101000a900460ff169050919050565b60606001151560126000611eeb612f17565b73ffffffffffffffffffffffffffffffffffffffff1673ffffffffffffffffffffffffffffffffffffffff16815260200190815260200160002060009054906101000a900460ff16151514611f3f57600080fd5b600f6000838152602001908152602001600020805480602002602001604051908101604052809291908181526020016000905b8282101561201e578382906000526020600020018054611f9190614ad7565b80601f0160208091040260200160405190810160405280929190818152602001828054611fbd90614ad7565b801561200a5780601f10611fdf5761010080835404028352916020019161200a565b820191906000526020600020905b815481529060010190602001808311611fed57829003601f168201915b505050505081526020019060010190611f72565b505050509050919050565b612031612f17565b73ffffffffffffffffffffffffffffffffffffffff168273ffffffffffffffffffffffffffffffffffffffff16141561209f576040517f08c379a0000000000000000000000000000000000000000000000000000000008152600401612096906154de565b60405180910390fd5b80600560006120ac612f17565b73ffffffffffffffffffffffffffffffffffffffff1673ffffffffffffffffffffffffffffffffffffffff16815260200190815260200160002060008473ffffffffffffffffffffffffffffffffffffffff1673ffffffffffffffffffffffffffffffffffffffff16815260200190815260200160002060006101000a81548160ff0219169083151502179055508173ffffffffffffffffffffffffffffffffffffffff16612159612f17565b73ffffffffffffffffffffffffffffffffffffffff167f17307eab39ab6107e8899845ad3d59bd9653f200f220920489ca2b5937696c318360405161219e91906141c8565b60405180910390a35050565b601360009054906101000a900473ffffffffffffffffffffffffffffffffffffffff1681565b60011515601260006121e0612f17565b73ffffffffffffffffffffffffffffffffffffffff1673ffffffffffffffffffffffffffffffffffffffff16815260200190815260200160002060009054906101000a900460ff1615151461223457600080fd5b80600b6000858152602001908152602001600020600084815260200190815260200160002081905550505050565b61227361226d612f17565b82613135565b61227c57600080fd5b6000600d600083815260200190815260200160002060006101000a81548160ff02191690831515021790555050565b6122bc6122b6612f17565b83613135565b6122fb576040517f08c379a00000000000000000000000000000000000000000000000000000000081526004016122f290615570565b60405180910390fd5b612307848484846133e3565b50505050565b600080600090506000600190505b61232560086132bd565b811161239f5761233481612f26565b1561238c57612341612f17565b73ffffffffffffffffffffffffffffffffffffffff16612360826119b7565b73ffffffffffffffffffffffffffffffffffffffff16141561238b57818061238790614ead565b9250505b5b808061239790614ead565b91505061231b565b508091505090565b60006123b360086132bd565b905090565b6000816040516020016123cb91906155cc565b60405160208183030381529060405280519060200120836040516020016123f291906155cc565b6040516020818303038152906040528051906020012014905092915050565b606061241c82612f26565b61245b576040517f08c379a000000000000000000000000000000000000000000000000000000000815260040161245290615655565b60405180910390fd5b600060176000848152602001908152602001600020805461247b90614ad7565b80601f01602080910402602001604051908101604052809291908181526020018280546124a790614ad7565b80156124f45780601f106124c9576101008083540402835291602001916124f4565b820191906000526020600020905b8154815290600101906020018083116124d757829003601f168201915b50505050509050600061250561343f565b905060008151141561251b57819250505061257f565b600082511115612550578082604051602001612538929190615675565b6040516020818303038152906040529250505061257f565b8061255a856134d1565b60405160200161256b929190615675565b604051602081830303815290604052925050505b919050565b6001151560126000612594612f17565b73ffffffffffffffffffffffffffffffffffffffff1673ffffffffffffffffffffffffffffffffffffffff16815260200190815260200160002060009054906101000a900460ff161515146125e857600080fd5b6125f26008613632565b60006125fe60086132bd565b905061260a8382613648565b6000600d600083815260200190815260200160002060006101000a81548160ff021916908315150217905550612640818361084d565b505050565b61264d612f17565b73ffffffffffffffffffffffffffffffffffffffff1661266b611df3565b73ffffffffffffffffffffffffffffffffffffffff16146126c1576040517f08c379a00000000000000000000000000000000000000000000000000000000081526004016126b890614d0b565b60405180910390fd5b6126ca81613666565b50565b60011515601260006126dd612f17565b73ffffffffffffffffffffffffffffffffffffffff1673ffffffffffffffffffffffffffffffffffffffff16815260200190815260200160002060009054906101000a900460ff1615151461273157600080fd5b6000600f6000848152602001908152602001600020805480602002602001604051908101604052809291908181526020016000905b8282101561281257838290600052602060002001805461278590614ad7565b80601f01602080910402602001604051908101604052809291908181526020018280546127b190614ad7565b80156127fe5780601f106127d3576101008083540402835291602001916127fe565b820191906000526020600020905b8154815290600101906020018083116127e157829003601f168201915b505050505081526020019060010190612766565b50505050905060005b600f60008581526020019081526020016000208054905081101561290857828114156128f55781600183516128509190615180565b8151811061286157612860614e4f565b5b602002602001015182828151811061287c5761287b614e4f565b5b602002602001018190525081600f600086815260200190815260200160002090805190602001906128ae929190613e5b565b50600f60008581526020019081526020016000208054806128d2576128d1615244565b5b6001900381819060005260206000200160006128ee9190613ebb565b9055612908565b808061290090614ead565b91505061281b565b50505050565b60006001151560126000612920612f17565b73ffffffffffffffffffffffffffffffffffffffff1673ffffffffffffffffffffffffffffffffffffffff16815260200190815260200160002060009054906101000a900460ff1615151461297457600080fd5b6000601560009054906101000a900473ffffffffffffffffffffffffffffffffffffffff1673ffffffffffffffffffffffffffffffffffffffff166397597bfd846040518263ffffffff1660e01b81526004016129d19190614596565b602060405180830381865afa1580156129ee573d6000803e3d6000fd5b505050506040513d601f19601f82011682018060405250810190612a12919061502f565b90506000601560009054906101000a900473ffffffffffffffffffffffffffffffffffffffff1673ffffffffffffffffffffffffffffffffffffffff1663d972fa1c856040518263ffffffff1660e01b8152600401612a719190614596565b602060405180830381865afa158015612a8e573d6000803e3d6000fd5b505050506040513d601f19601f82011682018060405250810190612ab2919061502f565b90506000600e60008681526020019081526020016000205490506000612aea83600b60008581526020019081526020016000206132cb565b905060006001600f600084815260200190815260200160002080549050612b119190615180565b85612b1c91906151e3565b90508095505050505050919050565b612b3c612b36612f17565b82613135565b612b4557600080fd5b6001600d600083815260200190815260200160002060006101000a81548160ff02191690831515021790555050565b6000600560008473ffffffffffffffffffffffffffffffffffffffff1673ffffffffffffffffffffffffffffffffffffffff16815260200190815260200160002060008373ffffffffffffffffffffffffffffffffffffffff1673ffffffffffffffffffffffffffffffffffffffff16815260200190815260200160002060009054906101000a900460ff16905092915050565b612c19612c13612f17565b82613135565b612c58576040517f08c379a0000000000000000000000000000000000000000000000000000000008152600401612c4f906156e5565b60405180910390fd5b6011600082815260200190815260200160002060009054906101000a900460ff1615612cb9576040517f08c379a0000000000000000000000000000000000000000000000000000000008152600401612cb090615777565b60405180910390fd5b60016011600083815260200190815260200160002060006101000a81548160ff021916908315150217905550601560009054906101000a900473ffffffffffffffffffffffffffffffffffffffff1673ffffffffffffffffffffffffffffffffffffffff1663b37217a4826040518263ffffffff1660e01b8152600401612d409190614596565b6020604051808303816000875af1158015612d5f573d6000803e3d6000fd5b505050506040513d601f19601f82011682018060405250810190612d8391906157cd565b507f702dd7be132b87b70a9e03694fa9b6f9a690d86a1a8f92a6a741dca24ed82e8581604051612db39190614596565b60405180910390a150565b612dc6612f17565b73ffffffffffffffffffffffffffffffffffffffff16612de4611df3565b73ffffffffffffffffffffffffffffffffffffffff1614612e3a576040517f08c379a0000000000000000000000000000000000000000000000000000000008152600401612e3190614d0b565b60405180910390fd5b600073ffffffffffffffffffffffffffffffffffffffff168173ffffffffffffffffffffffffffffffffffffffff161415612eaa576040517f08c379a0000000000000000000000000000000000000000000000000000000008152600401612ea19061586c565b60405180910390fd5b612eb38161331d565b50565b6000600d600083815260200190815260200160002060009054906101000a900460ff169050919050565b60006014600036905010158015612efc5750612efb3361195d565b5b15612f1057601436033560601c9050612f14565b3390505b90565b6000612f21612ee0565b905090565b60008073ffffffffffffffffffffffffffffffffffffffff166002600084815260200190815260200160002060009054906101000a900473ffffffffffffffffffffffffffffffffffffffff1673ffffffffffffffffffffffffffffffffffffffff1614159050919050565b60007f01ffc9a7000000000000000000000000000000000000000000000000000000007bffffffffffffffffffffffffffffffffffffffffffffffffffffffff1916827bffffffffffffffffffffffffffffffffffffffffffffffffffffffff1916149050919050565b816004600083815260200190815260200160002060006101000a81548173ffffffffffffffffffffffffffffffffffffffff021916908373ffffffffffffffffffffffffffffffffffffffff160217905550808273ffffffffffffffffffffffffffffffffffffffff1661306f836119b7565b73ffffffffffffffffffffffffffffffffffffffff167f8c5be1e5ebec7d5bd14f71427d1e84f3dd0314c0f7b2291e5b200ac8c7c3b92560405160405180910390a45050565b6130c66130c0612f17565b82613135565b613105576040517f08c379a00000000000000000000000000000000000000000000000000000000081526004016130fc90615570565b60405180910390fd5b6131108383836136aa565b505050565b613130838383604051806020016040528060008152506122ab565b505050565b600060126000613143612f17565b73ffffffffffffffffffffffffffffffffffffffff1673ffffffffffffffffffffffffffffffffffffffff16815260200190815260200160002060009054906101000a900460ff161561319957600190506131a6565b6131a38383613906565b90505b92915050565b60006131b7826119b7565b90506131c5816000846139e4565b6131d0600083612ffc565b6001600360008373ffffffffffffffffffffffffffffffffffffffff1673ffffffffffffffffffffffffffffffffffffffff16815260200190815260200160002060008282546132209190615180565b925050819055506002600083815260200190815260200160002060006101000a81549073ffffffffffffffffffffffffffffffffffffffff021916905581600073ffffffffffffffffffffffffffffffffffffffff168273ffffffffffffffffffffffffffffffffffffffff167fddf252ad1be2c89b69c2b068fc378daa952ba7f163c4a11628f55a4df523b3ef60405160405180910390a45050565b600081600001549050919050565b600080600090505b601054811215613312578260008281526020019081526020016000205484116132ff5780915050613317565b808061330a90614ead565b9150506132d3565b809150505b92915050565b6000600660009054906101000a900473ffffffffffffffffffffffffffffffffffffffff16905081600660006101000a81548173ffffffffffffffffffffffffffffffffffffffff021916908373ffffffffffffffffffffffffffffffffffffffff1602179055508173ffffffffffffffffffffffffffffffffffffffff168173ffffffffffffffffffffffffffffffffffffffff167f8be0079c531659141344cd1fd0a4f28419497f9722a3daafe3b4186f6b6457e060405160405180910390a35050565b6133ee8484846136aa565b6133fa848484846139e9565b613439576040517f08c379a0000000000000000000000000000000000000000000000000000000008152600401613430906158fe565b60405180910390fd5b50505050565b60606018805461344e90614ad7565b80601f016020809104026020016040519081016040528092919081815260200182805461347a90614ad7565b80156134c75780601f1061349c576101008083540402835291602001916134c7565b820191906000526020600020905b8154815290600101906020018083116134aa57829003601f168201915b5050505050905090565b60606000821415613519576040518060400160405280600181526020017f3000000000000000000000000000000000000000000000000000000000000000815250905061362d565b600082905060005b6000821461354b57808061353490614ead565b915050600a82613544919061591e565b9150613521565b60008167ffffffffffffffff81111561356757613566613fa1565b5b6040519080825280601f01601f1916602001820160405280156135995781602001600182028036833780820191505090505b5090505b60008514613626576001826135b29190615180565b9150600a856135c191906151e3565b60306135cd919061594f565b60f81b8183815181106135e3576135e2614e4f565b5b60200101907effffffffffffffffffffffffffffffffffffffffffffffffffffffffffffff1916908160001a905350600a8561361f919061591e565b945061359d565b8093505050505b919050565b6001816000016000828254019250508190555050565b613662828260405180602001604052806000815250613b71565b5050565b80600760006101000a81548173ffffffffffffffffffffffffffffffffffffffff021916908373ffffffffffffffffffffffffffffffffffffffff16021790555050565b8273ffffffffffffffffffffffffffffffffffffffff166136ca826119b7565b73ffffffffffffffffffffffffffffffffffffffff1614613720576040517f08c379a000000000000000000000000000000000000000000000000000000000815260040161371790615a17565b60405180910390fd5b600073ffffffffffffffffffffffffffffffffffffffff168273ffffffffffffffffffffffffffffffffffffffff161415613790576040517f08c379a000000000000000000000000000000000000000000000000000000000815260040161378790615aa9565b60405180910390fd5b61379b8383836139e4565b6137a6600082612ffc565b6001600360008573ffffffffffffffffffffffffffffffffffffffff1673ffffffffffffffffffffffffffffffffffffffff16815260200190815260200160002060008282546137f69190615180565b925050819055506001600360008473ffffffffffffffffffffffffffffffffffffffff1673ffffffffffffffffffffffffffffffffffffffff168152602001908152602001600020600082825461384d919061594f565b92505081905550816002600083815260200190815260200160002060006101000a81548173ffffffffffffffffffffffffffffffffffffffff021916908373ffffffffffffffffffffffffffffffffffffffff160217905550808273ffffffffffffffffffffffffffffffffffffffff168473ffffffffffffffffffffffffffffffffffffffff167fddf252ad1be2c89b69c2b068fc378daa952ba7f163c4a11628f55a4df523b3ef60405160405180910390a4505050565b600061391182612f26565b613950576040517f08c379a000000000000000000000000000000000000000000000000000000000815260040161394790615b3b565b60405180910390fd5b600061395b836119b7565b90508073ffffffffffffffffffffffffffffffffffffffff168473ffffffffffffffffffffffffffffffffffffffff1614806139ca57508373ffffffffffffffffffffffffffffffffffffffff166139b284610a99565b73ffffffffffffffffffffffffffffffffffffffff16145b806139db57506139da8185612b74565b5b91505092915050565b505050565b6000613a0a8473ffffffffffffffffffffffffffffffffffffffff16613bcc565b15613b64578373ffffffffffffffffffffffffffffffffffffffff1663150b7a02613a33612f17565b8786866040518563ffffffff1660e01b8152600401613a559493929190615bb0565b6020604051808303816000875af1925050508015613a9157506040513d601f19601f82011682018060405250810190613a8e9190615c11565b60015b613b14573d8060008114613ac1576040519150601f19603f3d011682016040523d82523d6000602084013e613ac6565b606091505b50600081511415613b0c576040517f08c379a0000000000000000000000000000000000000000000000000000000008152600401613b03906158fe565b60405180910390fd5b805181602001fd5b63150b7a0260e01b7bffffffffffffffffffffffffffffffffffffffffffffffffffffffff1916817bffffffffffffffffffffffffffffffffffffffffffffffffffffffff191614915050613b69565b600190505b949350505050565b613b7b8383613bdf565b613b8860008484846139e9565b613bc7576040517f08c379a0000000000000000000000000000000000000000000000000000000008152600401613bbe906158fe565b60405180910390fd5b505050565b600080823b905060008111915050919050565b600073ffffffffffffffffffffffffffffffffffffffff168273ffffffffffffffffffffffffffffffffffffffff161415613c4f576040517f08c379a0000000000000000000000000000000000000000000000000000000008152600401613c4690615c8a565b60405180910390fd5b613c5881612f26565b15613c98576040517f08c379a0000000000000000000000000000000000000000000000000000000008152600401613c8f90615cf6565b60405180910390fd5b613ca4600083836139e4565b6001600360008473ffffffffffffffffffffffffffffffffffffffff1673ffffffffffffffffffffffffffffffffffffffff1681526020019081526020016000206000828254613cf4919061594f565b92505081905550816002600083815260200190815260200160002060006101000a81548173ffffffffffffffffffffffffffffffffffffffff021916908373ffffffffffffffffffffffffffffffffffffffff160217905550808273ffffffffffffffffffffffffffffffffffffffff16600073ffffffffffffffffffffffffffffffffffffffff167fddf252ad1be2c89b69c2b068fc378daa952ba7f163c4a11628f55a4df523b3ef60405160405180910390a45050565b828054613db990614ad7565b90600052602060002090601f016020900481019282613ddb5760008555613e22565b82601f10613df457805160ff1916838001178555613e22565b82800160010185558215613e22579182015b82811115613e21578251825591602001919060010190613e06565b5b509050613e2f9190613efb565b5090565b604051806101400160405280600a905b6060815260200190600190039081613e435790505090565b828054828255906000526020600020908101928215613eaa579160200282015b82811115613ea9578251829080519060200190613e99929190613dad565b5091602001919060010190613e7b565b5b509050613eb79190613f18565b5090565b508054613ec790614ad7565b6000825580601f10613ed95750613ef8565b601f016020900490600052602060002090810190613ef79190613efb565b5b50565b5b80821115613f14576000816000905550600101613efc565b5090565b5b80821115613f385760008181613f2f9190613ebb565b50600101613f19565b5090565b6000604051905090565b600080fd5b600080fd5b6000819050919050565b613f6381613f50565b8114613f6e57600080fd5b50565b600081359050613f8081613f5a565b92915050565b600080fd5b600080fd5b6000601f19601f8301169050919050565b7f4e487b7100000000000000000000000000000000000000000000000000000000600052604160045260246000fd5b613fd982613f90565b810181811067ffffffffffffffff82111715613ff857613ff7613fa1565b5b80604052505050565b600061400b613f3c565b90506140178282613fd0565b919050565b600067ffffffffffffffff82111561403757614036613fa1565b5b61404082613f90565b9050602081019050919050565b82818337600083830152505050565b600061406f61406a8461401c565b614001565b90508281526020810184848401111561408b5761408a613f8b565b5b61409684828561404d565b509392505050565b600082601f8301126140b3576140b2613f86565b5b81356140c384826020860161405c565b91505092915050565b600080604083850312156140e3576140e2613f46565b5b60006140f185828601613f71565b925050602083013567ffffffffffffffff81111561411257614111613f4b565b5b61411e8582860161409e565b9150509250929050565b60007fffffffff0000000000000000000000000000000000000000000000000000000082169050919050565b61415d81614128565b811461416857600080fd5b50565b60008135905061417a81614154565b92915050565b60006020828403121561419657614195613f46565b5b60006141a48482850161416b565b91505092915050565b60008115159050919050565b6141c2816141ad565b82525050565b60006020820190506141dd60008301846141b9565b92915050565b600081519050919050565b600082825260208201905092915050565b60005b8381101561421d578082015181840152602081019050614202565b8381111561422c576000848401525b50505050565b600061423d826141e3565b61424781856141ee565b93506142578185602086016141ff565b61426081613f90565b840191505092915050565b600060208201905081810360008301526142858184614232565b905092915050565b6000602082840312156142a3576142a2613f46565b5b60006142b184828501613f71565b91505092915050565b600073ffffffffffffffffffffffffffffffffffffffff82169050919050565b60006142e5826142ba565b9050919050565b6142f5816142da565b82525050565b600060208201905061431060008301846142ec565b92915050565b61431f816142da565b811461432a57600080fd5b50565b60008135905061433c81614316565b92915050565b6000806040838503121561435957614358613f46565b5b60006143678582860161432d565b925050602061437885828601613f71565b9150509250929050565b6000806040838503121561439957614398613f46565b5b600083013567ffffffffffffffff8111156143b7576143b6613f4b565b5b6143c38582860161409e565b92505060206143d485828601613f71565b9150509250929050565b6000602082840312156143f4576143f3613f46565b5b60006144028482850161432d565b91505092915050565b60008060006060848603121561442457614423613f46565b5b60006144328682870161432d565b93505060206144438682870161432d565b925050604061445486828701613f71565b9150509250925092565b600081519050919050565b600082825260208201905092915050565b6000819050602082019050919050565b61449381613f50565b82525050565b60006144a5838361448a565b60208301905092915050565b6000602082019050919050565b60006144c98261445e565b6144d38185614469565b93506144de8361447a565b8060005b8381101561450f5781516144f68882614499565b9750614501836144b1565b9250506001810190506144e2565b5085935050505092915050565b6000602082019050818103600083015261453681846144be565b905092915050565b60006020828403121561455457614553613f46565b5b600082013567ffffffffffffffff81111561457257614571613f4b565b5b61457e8482850161409e565b91505092915050565b61459081613f50565b82525050565b60006020820190506145ab6000830184614587565b92915050565b600081519050919050565b600082825260208201905092915050565b6000819050602082019050919050565b600082825260208201905092915050565b60006145f9826141e3565b61460381856145dd565b93506146138185602086016141ff565b61461c81613f90565b840191505092915050565b600061463383836145ee565b905092915050565b6000602082019050919050565b6000614653826145b1565b61465d81856145bc565b93508360208202850161466f856145cd565b8060005b858110156146ab578484038952815161468c8582614627565b94506146978361463b565b925060208a01995050600181019050614673565b50829750879550505050505092915050565b600060208201905081810360008301526146d78184614648565b905092915050565b6146e8816141ad565b81146146f357600080fd5b50565b600081359050614705816146df565b92915050565b6000806040838503121561472257614721613f46565b5b60006147308582860161432d565b9250506020614741858286016146f6565b9150509250929050565b60008060006060848603121561476457614763613f46565b5b600061477286828701613f71565b935050602061478386828701613f71565b925050604061479486828701613f71565b9150509250925092565b600067ffffffffffffffff8211156147b9576147b8613fa1565b5b6147c282613f90565b9050602081019050919050565b60006147e26147dd8461479e565b614001565b9050828152602081018484840111156147fe576147fd613f8b565b5b61480984828561404d565b509392505050565b600082601f83011261482657614825613f86565b5b81356148368482602086016147cf565b91505092915050565b6000806000806080858703121561485957614858613f46565b5b60006148678782880161432d565b94505060206148788782880161432d565b935050604061488987828801613f71565b925050606085013567ffffffffffffffff8111156148aa576148a9613f4b565b5b6148b687828801614811565b91505092959194509250565b600080604083850312156148d9576148d8613f46565b5b600083013567ffffffffffffffff8111156148f7576148f6613f4b565b5b6149038582860161409e565b925050602083013567ffffffffffffffff81111561492457614923613f4b565b5b6149308582860161409e565b9150509250929050565b6000806040838503121561495157614950613f46565b5b600061495f8582860161432d565b925050602083013567ffffffffffffffff8111156149805761497f613f4b565b5b61498c8582860161409e565b9150509250929050565b600080604083850312156149ad576149ac613f46565b5b60006149bb85828601613f71565b92505060206149cc85828601613f71565b9150509250929050565b600080604083850312156149ed576149ec613f46565b5b60006149fb8582860161432d565b9250506020614a0c8582860161432d565b9150509250929050565b7f4552433732314d657461646174613a2055524920736574206f66206e6f6e657860008201527f697374656e7420746f6b656e0000000000000000000000000000000000000000602082015250565b6000614a72602c836141ee565b9150614a7d82614a16565b604082019050919050565b60006020820190508181036000830152614aa181614a65565b9050919050565b7f4e487b7100000000000000000000000000000000000000000000000000000000600052602260045260246000fd5b60006002820490506001821680614aef57607f821691505b60208210811415614b0357614b02614aa8565b5b50919050565b7f4552433732313a20617070726f76656420717565727920666f72206e6f6e657860008201527f697374656e7420746f6b656e0000000000000000000000000000000000000000602082015250565b6000614b65602c836141ee565b9150614b7082614b09565b604082019050919050565b60006020820190508181036000830152614b9481614b58565b9050919050565b7f4552433732313a20617070726f76616c20746f2063757272656e74206f776e6560008201527f7200000000000000000000000000000000000000000000000000000000000000602082015250565b6000614bf76021836141ee565b9150614c0282614b9b565b604082019050919050565b60006020820190508181036000830152614c2681614bea565b9050919050565b7f4552433732313a20617070726f76652063616c6c6572206973206e6f74206f7760008201527f6e6572206e6f7220617070726f76656420666f7220616c6c0000000000000000602082015250565b6000614c896038836141ee565b9150614c9482614c2d565b604082019050919050565b60006020820190508181036000830152614cb881614c7c565b9050919050565b7f4f776e61626c653a2063616c6c6572206973206e6f7420746865206f776e6572600082015250565b6000614cf56020836141ee565b9150614d0082614cbf565b602082019050919050565b60006020820190508181036000830152614d2481614ce8565b9050919050565b7f566972696469616e204e46543a2043616e6e6f74207472616e7366657220776860008201527f696c65206c6973746564206f6e20566972696469616e2045786368616e676500602082015250565b6000614d87603f836141ee565b9150614d9282614d2b565b604082019050919050565b60006020820190508181036000830152614db681614d7a565b9050919050565b7f566972696469616e204e46543a2043616e206f6e6c79206f70656e207061636b60008201527f206f6e636520726573756c742069732064656369646564000000000000000000602082015250565b6000614e196037836141ee565b9150614e2482614dbd565b604082019050919050565b60006020820190508181036000830152614e4881614e0c565b9050919050565b7f4e487b7100000000000000000000000000000000000000000000000000000000600052603260045260246000fd5b7f4e487b7100000000000000000000000000000000000000000000000000000000600052601160045260246000fd5b6000614eb882613f50565b91507fffffffffffffffffffffffffffffffffffffffffffffffffffffffffffffffff821415614eeb57614eea614e7e565b5b600182019050919050565b7f566972696469616e205061636b3a206d75737420626520617070726f7665642060008201527f6f72206f776e657220746f206f70656e00000000000000000000000000000000602082015250565b6000614f526030836141ee565b9150614f5d82614ef6565b604082019050919050565b60006020820190508181036000830152614f8181614f45565b9050919050565b7f566972696469616e205061636b3a207061636b20726573756c74206e6f74206460008201527f6563696465642079657400000000000000000000000000000000000000000000602082015250565b6000614fe4602a836141ee565b9150614fef82614f88565b604082019050919050565b6000602082019050818103600083015261501381614fd7565b9050919050565b60008151905061502981613f5a565b92915050565b60006020828403121561504557615044613f46565b5b60006150538482850161501a565b91505092915050565b7f566972696469616e205061636b3a20565246206861736e27742067656e65726160008201527f7465642072616e646f6d2072617720726573756c742079657400000000000000602082015250565b60006150b86039836141ee565b91506150c38261505c565b604082019050919050565b600060208201905081810360008301526150e7816150ab565b9050919050565b7f566972696469616e205061636b3a20565246206861736e27742067656e65726160008201527f7465642072616e646f6d20726573756c74207965740000000000000000000000602082015250565b600061514a6035836141ee565b9150615155826150ee565b604082019050919050565b600060208201905081810360008301526151798161513d565b9050919050565b600061518b82613f50565b915061519683613f50565b9250828210156151a9576151a8614e7e565b5b828203905092915050565b7f4e487b7100000000000000000000000000000000000000000000000000000000600052601260045260246000fd5b60006151ee82613f50565b91506151f983613f50565b925082615209576152086151b4565b5b828206905092915050565b600060408201905061522960008301856142ec565b818103602083015261523b8184614232565b90509392505050565b7f4e487b7100000000000000000000000000000000000000000000000000000000600052603160045260246000fd5b600060ff82169050919050565b600061528b82615273565b915060ff82141561529f5761529e614e7e565b5b600182019050919050565b6000600a9050919050565b600081905092915050565b6000819050919050565b6000602082019050919050565b60006152e2826152aa565b6152ec81856152b5565b9350836020820285016152fe856152c0565b8060005b8581101561533a578484038952815161531b8582614627565b9450615326836152ca565b925060208a01995050600181019050615302565b50829750879550505050505092915050565b6000602082019050818103600083015261536681846152d7565b905092915050565b7f4552433732313a206f776e657220717565727920666f72206e6f6e657869737460008201527f656e7420746f6b656e0000000000000000000000000000000000000000000000602082015250565b60006153ca6029836141ee565b91506153d58261536e565b604082019050919050565b600060208201905081810360008301526153f9816153bd565b9050919050565b7f4552433732313a2062616c616e636520717565727920666f7220746865207a6560008201527f726f206164647265737300000000000000000000000000000000000000000000602082015250565b600061545c602a836141ee565b915061546782615400565b604082019050919050565b6000602082019050818103600083015261548b8161544f565b9050919050565b7f4552433732313a20617070726f766520746f2063616c6c657200000000000000600082015250565b60006154c86019836141ee565b91506154d382615492565b602082019050919050565b600060208201905081810360008301526154f7816154bb565b9050919050565b7f4552433732313a207472616e736665722063616c6c6572206973206e6f74206f60008201527f776e6572206e6f7220617070726f766564000000000000000000000000000000602082015250565b600061555a6031836141ee565b9150615565826154fe565b604082019050919050565b600060208201905081810360008301526155898161554d565b9050919050565b600081905092915050565b60006155a6826141e3565b6155b08185615590565b93506155c08185602086016141ff565b80840191505092915050565b60006155d8828461559b565b915081905092915050565b7f4552433732314d657461646174613a2055524920717565727920666f72206e6f60008201527f6e6578697374656e7420746f6b656e0000000000000000000000000000000000602082015250565b600061563f602f836141ee565b915061564a826155e3565b604082019050919050565b6000602082019050818103600083015261566e81615632565b9050919050565b6000615681828561559b565b915061568d828461559b565b91508190509392505050565b7f4e6f7420617070726f766564206f72206f776e65720000000000000000000000600082015250565b60006156cf6015836141ee565b91506156da82615699565b602082019050919050565b600060208201905081810360008301526156fe816156c2565b9050919050565b7f566972696469616e205061636b3a2043616e6e6f74207265646f207061636b2060008201527f726573756c740000000000000000000000000000000000000000000000000000602082015250565b60006157616026836141ee565b915061576c82615705565b604082019050919050565b6000602082019050818103600083015261579081615754565b9050919050565b6000819050919050565b6157aa81615797565b81146157b557600080fd5b50565b6000815190506157c7816157a1565b92915050565b6000602082840312156157e3576157e2613f46565b5b60006157f1848285016157b8565b91505092915050565b7f4f776e61626c653a206e6577206f776e657220697320746865207a65726f206160008201527f6464726573730000000000000000000000000000000000000000000000000000602082015250565b60006158566026836141ee565b9150615861826157fa565b604082019050919050565b6000602082019050818103600083015261588581615849565b9050919050565b7f4552433732313a207472616e7366657220746f206e6f6e20455243373231526560008201527f63656976657220696d706c656d656e7465720000000000000000000000000000602082015250565b60006158e86032836141ee565b91506158f38261588c565b604082019050919050565b60006020820190508181036000830152615917816158db565b9050919050565b600061592982613f50565b915061593483613f50565b925082615944576159436151b4565b5b828204905092915050565b600061595a82613f50565b915061596583613f50565b9250827fffffffffffffffffffffffffffffffffffffffffffffffffffffffffffffffff0382111561599a57615999614e7e565b5b828201905092915050565b7f4552433732313a207472616e73666572206f6620746f6b656e2074686174206960008201527f73206e6f74206f776e0000000000000000000000000000000000000000000000602082015250565b6000615a016029836141ee565b9150615a0c826159a5565b604082019050919050565b60006020820190508181036000830152615a30816159f4565b9050919050565b7f4552433732313a207472616e7366657220746f20746865207a65726f2061646460008201527f7265737300000000000000000000000000000000000000000000000000000000602082015250565b6000615a936024836141ee565b9150615a9e82615a37565b604082019050919050565b60006020820190508181036000830152615ac281615a86565b9050919050565b7f4552433732313a206f70657261746f7220717565727920666f72206e6f6e657860008201527f697374656e7420746f6b656e0000000000000000000000000000000000000000602082015250565b6000615b25602c836141ee565b9150615b3082615ac9565b604082019050919050565b60006020820190508181036000830152615b5481615b18565b9050919050565b600081519050919050565b600082825260208201905092915050565b6000615b8282615b5b565b615b8c8185615b66565b9350615b9c8185602086016141ff565b615ba581613f90565b840191505092915050565b6000608082019050615bc560008301876142ec565b615bd260208301866142ec565b615bdf6040830185614587565b8181036060830152615bf18184615b77565b905095945050505050565b600081519050615c0b81614154565b92915050565b600060208284031215615c2757615c26613f46565b5b6000615c3584828501615bfc565b91505092915050565b7f4552433732313a206d696e7420746f20746865207a65726f2061646472657373600082015250565b6000615c746020836141ee565b9150615c7f82615c3e565b602082019050919050565b60006020820190508181036000830152615ca381615c67565b9050919050565b7f4552433732313a20746f6b656e20616c7265616479206d696e74656400000000600082015250565b6000615ce0601c836141ee565b9150615ceb82615caa565b602082019050919050565b60006020820190508181036000830152615d0f81615cd3565b905091905056fea26469706673582212205d916ca57d9e9bf273ca02362b1a3448d263ab78c9967aeabd9938f7b484fb4b64736f6c634300080b0033",
  "immutableReferences": {},
  "source": "pragma solidity ^0.8.0;\n\nimport \"@openzeppelin/contracts/token/ERC721/ERC721.sol\";\nimport \"@openzeppelin/contracts/utils/Counters.sol\";\nimport \"@openzeppelin/contracts/access/Ownable.sol\";\nimport \"@opengsn/contracts/src/BaseRelayRecipient.sol\";\n\nimport \"./RandomNumber.sol\";\nimport \"./ViridianNFT.sol\";\n\ncontract ViridianPack is ERC721, Ownable, BaseRelayRecipient {\n\n    using Counters for Counters.Counter;\n    Counters.Counter private _tokenIds;\n    Counters.Counter private _unmintedTokenIds;\n    mapping(string => uint8) hashes;\n    mapping(uint256 => mapping(uint256 => uint256)) private rarityOdds;\n    mapping(uint256 => uint256) private numNFTs;\n    //mapping(uint256 => string) private unmintedURIs;\n    mapping(uint256 => bool) private _tokensListed;\n    mapping(uint256 => uint256) tokenRarity;\n    mapping(uint256 => string[]) private uriRarityPools;\n    int private maxRarityIndex;\n\n    mapping(uint256 => bool) private packResultDecided;\n\n    mapping(address => bool) admins;\n\n    address public viridianNFTAddr;\n\n    ViridianNFT vNFT;\n    RandomNumberConsumer vrf;\n\n    using Strings for uint256;\n\n    constructor(address _viridianNFT, address _forwarder) ERC721(\"Viridian Pack\", \"VP\") {\n\n        require(address(_viridianNFT) != address(0));\n\n        viridianNFTAddr = _viridianNFT;\n\n        _setTrustedForwarder(_forwarder);\n\n        vNFT = ViridianNFT(viridianNFTAddr);\n\n        //Set all beginning rarities\n\n        // Legendary rarity and cards in pack\n        rarityOdds[0][0] = 25;\n        rarityOdds[0][1] = 100;\n        rarityOdds[0][2] = 300;\n        rarityOdds[0][3] = 1000;\n        numNFTs[0] = 3;\n\n        // Mystical rarity and cards in pack\n        rarityOdds[1][0] = 1;\n        rarityOdds[1][1] = 50;\n        rarityOdds[1][2] = 200;\n        rarityOdds[1][3] = 1000;\n        numNFTs[0] = 3;\n\n        // Rare rarity and cards in pack\n        rarityOdds[2][0] = 0;\n        rarityOdds[2][1] = 50;\n        rarityOdds[2][2] = 100;\n        rarityOdds[2][3] = 1000;\n        numNFTs[0] = 3;\n\n        // Common rarity and cards in pack\n        rarityOdds[3][0] = 0;\n        rarityOdds[3][1] = 10;\n        rarityOdds[3][2] = 50;\n        rarityOdds[3][3] = 1000;\n        numNFTs[0] = 3;\n\n        maxRarityIndex = 3;\n\n        admins[_msgSender()] = true;\n    }\n\n    string public override versionRecipient = \"2.2.0\";\n\n    function setTrustedForwarder(address _forwarder) public onlyOwner() {\n        _setTrustedForwarder(_forwarder);\n    }\n\n    event Open(string[10] newUris);\n    event PackResultDecided(uint256 tokenId);\n    \n    // Optional mapping for token URIs\n    mapping (uint256 => string) private _tokenURIs;\n\n    //address private viridianExchangeAddress;\n\n    // Base URI\n    string private _baseURIextended;\n\n    modifier onlyAdmin() {\n        require(admins[_msgSender()] == true);\n            _;\n    }\n\n    function _msgSender() internal view override(Context, BaseRelayRecipient) returns (address sender) {\n        sender = BaseRelayRecipient._msgSender();\n    }\n\n    function _msgData() internal view override(Context, BaseRelayRecipient) returns (bytes memory) {\n        return BaseRelayRecipient._msgData();\n    }\n\n    function _isApprovedOrOwner(address spender, uint256 tokenId) internal view override returns (bool) {\n        if (admins[_msgSender()]) {\n            return true;\n        }\n\n        return super._isApprovedOrOwner(spender, tokenId);\n    }\n\n    function addAdmin(address _newAdmin) external onlyOwner() {\n        admins[_newAdmin] = true;\n    }\n\n    function removeAdmin(address _newAdmin) external onlyOwner() {\n        admins[_newAdmin] = false;\n    }\n    \n    function setBaseURI(string memory baseURI_) external onlyAdmin() {\n        _baseURIextended = baseURI_;\n    }\n    \n    function _setTokenURI(uint256 tokenId, string memory _tokenURI) public virtual onlyAdmin() {\n        require(_exists(tokenId), \"ERC721Metadata: URI set of nonexistent token\");\n        _tokenURIs[tokenId] = _tokenURI;\n    }\n    \n    function _baseURI() internal view virtual override returns (string memory) {\n        return _baseURIextended;\n    }\n    \n    function tokenURI(uint256 tokenId) public view virtual override returns (string memory) {\n        require(_exists(tokenId), \"ERC721Metadata: URI query for nonexistent token\");\n\n        string memory _tokenURI = _tokenURIs[tokenId];\n        string memory base = _baseURI();\n        \n        // If there is no base URI, return the token URI.\n        if (bytes(base).length == 0) {\n            return _tokenURI;\n        }\n        // If both are set, concatenate the baseURI and tokenURI (via abi.encodePacked).\n        if (bytes(_tokenURI).length > 0) {\n            return string(abi.encodePacked(base, _tokenURI));\n        }\n        // If there is a baseURI but no tokenURI, concatenate the tokenID to the baseURI.\n        return string(abi.encodePacked(base, tokenId.toString()));\n    }\n\n    function getUriRarityPools(uint256 _rarity) public view onlyAdmin() returns (string[] memory) {\n        return uriRarityPools[_rarity];\n    }\n\n    function getNumNFTs() public view returns (uint256 n) {\n        return _tokenIds.current();\n    }\n\n    function getNumOwnedNFTs() public view virtual returns (uint256) {\n        uint256 numOwnedNFTs = 0;\n\n        for (uint256 i = 1; i <= _tokenIds.current(); i++) {\n            if (_exists(i)) {\n                if (ownerOf(i) == _msgSender()) {\n                    numOwnedNFTs++;\n                }\n            }\n        }\n\n        return numOwnedNFTs;\n    }\n \n    function getOwnedNFTs() public view virtual returns (uint256[] memory) {\n\n        uint256[] memory _tokens = new uint256[](getNumOwnedNFTs());\n\n        uint256 curIndex = 0;\n\n        for (uint256 i = 1; i <= _tokenIds.current(); i++) {\n            if (_exists(i)) {\n                if (ownerOf(i) == _msgSender()) {\n                    _tokens[curIndex] = i;\n                    curIndex++;\n                }\n            }\n        }\n        \n        return _tokens;\n    }\n\n    function setRarityOdds(uint256 _rarity, uint256 _rarityOdd, uint256 _newOdds) external onlyAdmin() {\n        rarityOdds[_rarity][_rarityOdd] = _newOdds;\n    }\n\n    function isListed(uint256 tokenId) public view returns (bool) {\n        return _tokensListed[tokenId];\n    }\n\n    function mint(\n        address _to,\n        string memory tokenURI_\n    ) external onlyAdmin() {\n        _tokenIds.increment();\n        uint256 _tokenId = _tokenIds.current();\n\n        _safeMint(_to, _tokenId);\n        _tokensListed[_tokenId] = false;\n        _setTokenURI(_tokenId, tokenURI_);\n    }\n\n    //TODO: THIS IS NOT TO BE USED IN FINAL DEPLOYED IMPLEMENTATION, convert to LINK VRF for TESTNET and ESPECIALLY MAINNET!!!\n    uint nonce;\n\n    function calculateWeightedOdds(uint256 randomNum, mapping(uint256 => uint256) storage rarityOdd) private view returns (uint) {\n        uint256 n;\n\n        for (n = 0; int(n) < int(maxRarityIndex); n++) {\n            if (randomNum <= rarityOdd[n]) {\n                return n;\n            }\n        }\n\n        return n;\n    }\n\n    function softMintNFT(string memory uri, uint256 rarity) public onlyAdmin() {\n        uriRarityPools[rarity].push(uri);\n    }\n\n    function burnSoftMintedNFTAtRarityIndex(uint256 rarity, uint256 index) public onlyAdmin() {\n        string[] memory curRarityPool = uriRarityPools[rarity];\n            for (uint i = 0; i < uriRarityPools[rarity].length; i++) {\n                if (i == index) {\n                    curRarityPool[i] = curRarityPool[curRarityPool.length - 1];\n                    uriRarityPools[rarity] = curRarityPool;\n                    uriRarityPools[rarity].pop();\n                    break;\n                }\n            }\n    }\n\n    function compareStrings(string memory _s, string memory _s1) public pure returns (bool) {\n        return (keccak256(abi.encodePacked((_s))) == keccak256(abi.encodePacked((_s1))));\n    }\n\n    function configureVRF(address _vrfAddress) public {\n        vrf = RandomNumberConsumer(_vrfAddress);\n    }\n\n    function lockInPackResult(uint256 _tokenId) public {\n        require(_isApprovedOrOwner(_msgSender(), _tokenId), \"Not approved or owner\");\n        require(!packResultDecided[_tokenId], \"Viridian Pack: Cannot redo pack result\");\n        packResultDecided[_tokenId] = true;\n        vrf.getRandomNumber(_tokenId);\n\n        emit PackResultDecided(_tokenId);\n    }\n\n    function isPackResultDecided(uint256 _tokenId) public view returns (bool) {\n        return packResultDecided[_tokenId];\n    }\n\n    function getRandIndexPercentOdds(uint256 _tokenId) public view onlyAdmin() returns (uint256) {\n        uint256 randRes = vrf.getRandomResultForToken(_tokenId);\n        uint256 tr = tokenRarity[_tokenId];\n        uint256 randIndexWithPercentOdds = calculateWeightedOdds(randRes, rarityOdds[tr]);\n        return randIndexWithPercentOdds;\n    }\n\n    function getRandIndexRarity(uint256 _tokenId) public view onlyAdmin() returns (uint256) {\n        uint256 rawRandRes = vrf.getRandomRawResultForToken(_tokenId);\n\n        uint256 randRes = vrf.getRandomResultForToken(_tokenId);\n        uint256 tr = tokenRarity[_tokenId];\n        uint256 randIndexWithPercentOdds = calculateWeightedOdds(randRes, rarityOdds[tr]);\n\n        uint256 randIndexInRarity = rawRandRes % (uriRarityPools[randIndexWithPercentOdds].length - 1);\n\n        return randIndexInRarity;\n    }\n\n    function openPack(uint256 _tokenId) public {\n        // Randomly \n        require(_isApprovedOrOwner(_msgSender(), _tokenId), \"Viridian Pack: must be approved or owner to open\");\n        require(packResultDecided[_tokenId], \"Viridian Pack: pack result not decided yet\");\n\n        uint256 rawRandRes = vrf.getRandomRawResultForToken(_tokenId);\n        uint256 randRes = vrf.getRandomResultForToken(_tokenId);\n\n        require(rawRandRes > 0, \"Viridian Pack: VRF hasn't generated random raw result yet\");\n        require(randRes > 0, \"Viridian Pack: VRF hasn't generated random result yet\");\n\n        uint256 tr = tokenRarity[_tokenId];\n\n        string[10] memory newUris;\n\n        //Need to delete the item from the rarity pool before minting happens again\n        for (uint8 n = 0; n < numNFTs[tr]; n++) {\n            uint256 randIndexWithPercentOdds = calculateWeightedOdds(randRes, rarityOdds[tr]);\n            uint256 randIndexInRarity = rawRandRes % (uriRarityPools[randIndexWithPercentOdds].length - 1);\n\n            string memory newURI = uriRarityPools[randIndexWithPercentOdds][randIndexInRarity];\n\n            vNFT.mint(_msgSender(), newURI);\n\n            newUris[n] = newURI;\n\n            string[] memory curRarityPool = uriRarityPools[randIndexWithPercentOdds];\n            for (uint i = 0; i < uriRarityPools[randIndexWithPercentOdds].length; i++) {\n                string memory uri = uriRarityPools[randIndexWithPercentOdds][i];\n                if (compareStrings(uri, newURI)) {\n                    curRarityPool[i] = curRarityPool[curRarityPool.length - 1];\n                    uriRarityPools[randIndexWithPercentOdds] = curRarityPool;\n                    uriRarityPools[randIndexWithPercentOdds].pop();\n                    break;\n                }\n            }\n        }\n\n        burn(_tokenId);\n\n        emit Open(newUris);\n    }\n\n    function burn(uint256 tokenId) public {\n        require(_isApprovedOrOwner(_msgSender(), tokenId));\n\n        _burn(tokenId);\n    }\n\n    function safeTransferFrom(address from, address to, uint256 tokenId) public override {\n        require(!_tokensListed[tokenId], \"Viridian NFT: Cannot transfer while listed on Viridian Exchange\");\n        require(!packResultDecided[tokenId], \"Viridian NFT: Can only open pack once result is decided\");\n\n        super.safeTransferFrom(from, to, tokenId);\n    }\n\n    function transferFrom(address from, address to, uint256 tokenId) public override {\n        require(!_tokensListed[tokenId], \"Viridian NFT: Cannot transfer while listed on Viridian Exchange\");\n        require(!packResultDecided[tokenId], \"Viridian NFT: Can only open pack once result is decided\");\n\n        super.transferFrom(from, to, tokenId);\n    }\n\n    function listToken(uint256 _tokenId) public {\n        require(_isApprovedOrOwner(_msgSender(), _tokenId));\n        _tokensListed[_tokenId] = true;\n    }\n\n    function unlistToken(uint256 _tokenId) public {\n        require(_isApprovedOrOwner(_msgSender(), _tokenId));\n        _tokensListed[_tokenId] = false;\n    }\n}",
  "sourcePath": "/Users/blakehatch/Viridian-Exchange-Contracts/contracts/ViridianPack.sol",
  "compiler": {
    "name": "solc",
    "version": "0.8.11+commit.d7f03943.Emscripten.clang"
  },
  "schemaVersion": "3.4.1",
  "updatedAt": "2022-02-10T05:43:28.790Z",
  "networkType": "ethereum",
  "devdoc": {
    "kind": "dev",
    "methods": {
      "approve(address,uint256)": {
        "details": "See {IERC721-approve}."
      },
      "balanceOf(address)": {
        "details": "See {IERC721-balanceOf}."
      },
      "getApproved(uint256)": {
        "details": "See {IERC721-getApproved}."
      },
      "isApprovedForAll(address,address)": {
        "details": "See {IERC721-isApprovedForAll}."
      },
      "name()": {
        "details": "See {IERC721Metadata-name}."
      },
      "owner()": {
        "details": "Returns the address of the current owner."
      },
      "ownerOf(uint256)": {
        "details": "See {IERC721-ownerOf}."
      },
      "renounceOwnership()": {
        "details": "Leaves the contract without owner. It will not be possible to call `onlyOwner` functions anymore. Can only be called by the current owner. NOTE: Renouncing ownership will leave the contract without an owner, thereby removing any functionality that is only available to the owner."
      },
      "safeTransferFrom(address,address,uint256)": {
        "details": "See {IERC721-safeTransferFrom}."
      },
      "safeTransferFrom(address,address,uint256,bytes)": {
        "details": "See {IERC721-safeTransferFrom}."
      },
      "setApprovalForAll(address,bool)": {
        "details": "See {IERC721-setApprovalForAll}."
      },
      "supportsInterface(bytes4)": {
        "details": "See {IERC165-supportsInterface}."
      },
      "symbol()": {
        "details": "See {IERC721Metadata-symbol}."
      },
      "tokenURI(uint256)": {
        "details": "See {IERC721Metadata-tokenURI}."
      },
      "transferFrom(address,address,uint256)": {
        "details": "See {IERC721-transferFrom}."
      },
      "transferOwnership(address)": {
        "details": "Transfers ownership of the contract to a new account (`newOwner`). Can only be called by the current owner."
      }
    },
    "version": 1
  },
  "userdoc": {
    "kind": "user",
    "methods": {
      "isTrustedForwarder(address)": {
        "notice": "return if the forwarder is trusted to forward relayed transactions to us. the forwarder is required to verify the sender's signature, and verify the call is not a replay."
      }
    },
    "version": 1
  }
}