{
  "contractName": "ViridianExchange",
  "abi": [
    {
      "inputs": [
        {
          "internalType": "address",
          "name": "_erc20Token",
          "type": "address"
        },
        {
          "internalType": "address",
          "name": "_viridianNFT",
          "type": "address"
        },
        {
          "internalType": "address",
          "name": "_viridianPack",
          "type": "address"
        },
        {
          "internalType": "address",
          "name": "_forwarder",
          "type": "address"
        }
      ],
      "stateMutability": "nonpayable",
      "type": "constructor"
    },
    {
      "anonymous": false,
      "inputs": [
        {
          "indexed": false,
          "internalType": "uint256",
          "name": "tokenId",
          "type": "uint256"
        },
        {
          "indexed": false,
          "internalType": "string",
          "name": "uri",
          "type": "string"
        },
        {
          "indexed": false,
          "internalType": "address",
          "name": "wallet",
          "type": "address"
        },
        {
          "indexed": false,
          "internalType": "bool",
          "name": "listed",
          "type": "bool"
        }
      ],
      "name": "ItemListed",
      "type": "event"
    },
    {
      "anonymous": false,
      "inputs": [
        {
          "indexed": false,
          "internalType": "uint256",
          "name": "tokenId",
          "type": "uint256"
        },
        {
          "indexed": false,
          "internalType": "string",
          "name": "uri",
          "type": "string"
        },
        {
          "indexed": false,
          "internalType": "address",
          "name": "wallet",
          "type": "address"
        },
        {
          "indexed": false,
          "internalType": "bool",
          "name": "listed",
          "type": "bool"
        }
      ],
      "name": "ItemUnlisted",
      "type": "event"
    },
    {
      "anonymous": false,
      "inputs": [
        {
          "indexed": true,
          "internalType": "address",
          "name": "previousOwner",
          "type": "address"
        },
        {
          "indexed": true,
          "internalType": "address",
          "name": "newOwner",
          "type": "address"
        }
      ],
      "name": "OwnershipTransferred",
      "type": "event"
    },
    {
      "anonymous": false,
      "inputs": [
        {
          "indexed": false,
          "internalType": "uint256",
          "name": "tokenId",
          "type": "uint256"
        },
        {
          "indexed": false,
          "internalType": "uint256",
          "name": "price",
          "type": "uint256"
        },
        {
          "indexed": false,
          "internalType": "string",
          "name": "uri",
          "type": "string"
        },
        {
          "indexed": false,
          "internalType": "address",
          "name": "wallet",
          "type": "address"
        },
        {
          "indexed": false,
          "internalType": "bool",
          "name": "purchased",
          "type": "bool"
        }
      ],
      "name": "PurchasedListing",
      "type": "event"
    },
    {
      "inputs": [
        {
          "internalType": "address",
          "name": "",
          "type": "address"
        }
      ],
      "name": "approvedTokens",
      "outputs": [
        {
          "internalType": "bool",
          "name": "",
          "type": "bool"
        }
      ],
      "stateMutability": "view",
      "type": "function",
      "constant": true
    },
    {
      "inputs": [
        {
          "internalType": "address",
          "name": "forwarder",
          "type": "address"
        }
      ],
      "name": "isTrustedForwarder",
      "outputs": [
        {
          "internalType": "bool",
          "name": "",
          "type": "bool"
        }
      ],
      "stateMutability": "view",
      "type": "function",
      "constant": true
    },
    {
      "inputs": [],
      "name": "owner",
      "outputs": [
        {
          "internalType": "address",
          "name": "",
          "type": "address"
        }
      ],
      "stateMutability": "view",
      "type": "function",
      "constant": true
    },
    {
      "inputs": [],
      "name": "renounceOwnership",
      "outputs": [],
      "stateMutability": "nonpayable",
      "type": "function"
    },
    {
      "inputs": [
        {
          "internalType": "address",
          "name": "newOwner",
          "type": "address"
        }
      ],
      "name": "transferOwnership",
      "outputs": [],
      "stateMutability": "nonpayable",
      "type": "function"
    },
    {
      "inputs": [],
      "name": "trustedForwarder",
      "outputs": [
        {
          "internalType": "address",
          "name": "",
          "type": "address"
        }
      ],
      "stateMutability": "view",
      "type": "function",
      "constant": true
    },
    {
      "inputs": [],
      "name": "versionRecipient",
      "outputs": [
        {
          "internalType": "string",
          "name": "",
          "type": "string"
        }
      ],
      "stateMutability": "view",
      "type": "function",
      "constant": true
    },
    {
      "inputs": [],
      "name": "viridianNFT",
      "outputs": [
        {
          "internalType": "address",
          "name": "",
          "type": "address"
        }
      ],
      "stateMutability": "view",
      "type": "function",
      "constant": true
    },
    {
      "inputs": [],
      "name": "viridianPack",
      "outputs": [
        {
          "internalType": "address",
          "name": "",
          "type": "address"
        }
      ],
      "stateMutability": "view",
      "type": "function",
      "constant": true
    },
    {
      "inputs": [
        {
          "internalType": "address",
          "name": "_forwarder",
          "type": "address"
        }
      ],
      "name": "setTrustedForwarder",
      "outputs": [],
      "stateMutability": "nonpayable",
      "type": "function"
    },
    {
      "inputs": [
        {
          "internalType": "uint256",
          "name": "_newRoyalty",
          "type": "uint256"
        }
      ],
      "name": "setRoyalty",
      "outputs": [],
      "stateMutability": "nonpayable",
      "type": "function"
    },
    {
      "inputs": [
        {
          "internalType": "uint256",
          "name": "_newRoyalty",
          "type": "uint256"
        }
      ],
      "name": "setWhitelistRoyalty",
      "outputs": [],
      "stateMutability": "nonpayable",
      "type": "function"
    },
    {
      "inputs": [
        {
          "internalType": "address",
          "name": "_erc20Address",
          "type": "address"
        }
      ],
      "name": "addERC20Token",
      "outputs": [],
      "stateMutability": "nonpayable",
      "type": "function"
    },
    {
      "inputs": [
        {
          "internalType": "address",
          "name": "_erc20Address",
          "type": "address"
        }
      ],
      "name": "isTokenApproved",
      "outputs": [
        {
          "internalType": "bool",
          "name": "",
          "type": "bool"
        }
      ],
      "stateMutability": "view",
      "type": "function",
      "constant": true
    },
    {
      "inputs": [],
      "name": "getBalance",
      "outputs": [
        {
          "internalType": "uint256",
          "name": "",
          "type": "uint256"
        }
      ],
      "stateMutability": "view",
      "type": "function",
      "constant": true
    },
    {
      "inputs": [],
      "name": "getListings",
      "outputs": [
        {
          "internalType": "uint256[]",
          "name": "",
          "type": "uint256[]"
        }
      ],
      "stateMutability": "view",
      "type": "function",
      "constant": true
    },
    {
      "inputs": [
        {
          "internalType": "uint256",
          "name": "_listingId",
          "type": "uint256"
        }
      ],
      "name": "getListingFromId",
      "outputs": [
        {
          "components": [
            {
              "internalType": "uint256",
              "name": "listingId",
              "type": "uint256"
            },
            {
              "internalType": "uint256",
              "name": "tokenId",
              "type": "uint256"
            },
            {
              "internalType": "address",
              "name": "owner",
              "type": "address"
            },
            {
              "internalType": "uint256",
              "name": "price",
              "type": "uint256"
            },
            {
              "internalType": "bool",
              "name": "purchased",
              "type": "bool"
            },
            {
              "internalType": "uint256",
              "name": "baseRoyalty",
              "type": "uint256"
            },
            {
              "internalType": "uint256",
              "name": "endTime",
              "type": "uint256"
            },
            {
              "internalType": "bool",
              "name": "sold",
              "type": "bool"
            },
            {
              "internalType": "address",
              "name": "erc20Address",
              "type": "address"
            },
            {
              "internalType": "bool",
              "name": "isVNFT",
              "type": "bool"
            },
            {
              "internalType": "uint256",
              "name": "timeListed",
              "type": "uint256"
            }
          ],
          "internalType": "struct ViridianExchange.Listing",
          "name": "",
          "type": "tuple"
        }
      ],
      "stateMutability": "view",
      "type": "function",
      "constant": true
    },
    {
      "inputs": [
        {
          "internalType": "address",
          "name": "_userAddr",
          "type": "address"
        }
      ],
      "name": "getListingsFromUser",
      "outputs": [
        {
          "components": [
            {
              "internalType": "uint256",
              "name": "listingId",
              "type": "uint256"
            },
            {
              "internalType": "uint256",
              "name": "tokenId",
              "type": "uint256"
            },
            {
              "internalType": "address",
              "name": "owner",
              "type": "address"
            },
            {
              "internalType": "uint256",
              "name": "price",
              "type": "uint256"
            },
            {
              "internalType": "bool",
              "name": "purchased",
              "type": "bool"
            },
            {
              "internalType": "uint256",
              "name": "baseRoyalty",
              "type": "uint256"
            },
            {
              "internalType": "uint256",
              "name": "endTime",
              "type": "uint256"
            },
            {
              "internalType": "bool",
              "name": "sold",
              "type": "bool"
            },
            {
              "internalType": "address",
              "name": "erc20Address",
              "type": "address"
            },
            {
              "internalType": "bool",
              "name": "isVNFT",
              "type": "bool"
            },
            {
              "internalType": "uint256",
              "name": "timeListed",
              "type": "uint256"
            }
          ],
          "internalType": "struct ViridianExchange.Listing[]",
          "name": "",
          "type": "tuple[]"
        }
      ],
      "stateMutability": "view",
      "type": "function",
      "constant": true
    },
    {
      "inputs": [
        {
          "internalType": "uint256",
          "name": "_nftId",
          "type": "uint256"
        }
      ],
      "name": "getNftOwner",
      "outputs": [
        {
          "internalType": "address",
          "name": "",
          "type": "address"
        }
      ],
      "stateMutability": "view",
      "type": "function",
      "constant": true
    },
    {
      "inputs": [
        {
          "internalType": "uint256",
          "name": "_nftId",
          "type": "uint256"
        }
      ],
      "name": "getPackOwner",
      "outputs": [
        {
          "internalType": "address",
          "name": "",
          "type": "address"
        }
      ],
      "stateMutability": "view",
      "type": "function",
      "constant": true
    },
    {
      "inputs": [
        {
          "internalType": "uint256",
          "name": "_nftId",
          "type": "uint256"
        },
        {
          "internalType": "uint256",
          "name": "_price",
          "type": "uint256"
        },
        {
          "internalType": "uint256",
          "name": "_royalty",
          "type": "uint256"
        },
        {
          "internalType": "uint256",
          "name": "_endTime",
          "type": "uint256"
        },
        {
          "internalType": "address",
          "name": "_erc20Address",
          "type": "address"
        },
        {
          "internalType": "bool",
          "name": "_isVNFT",
          "type": "bool"
        }
      ],
      "name": "putUpForSale",
      "outputs": [],
      "stateMutability": "nonpayable",
      "type": "function"
    },
    {
      "inputs": [
        {
          "internalType": "uint256",
          "name": "_listingId",
          "type": "uint256"
        },
        {
          "internalType": "uint256",
          "name": "_newPrice",
          "type": "uint256"
        }
      ],
      "name": "changeSalePrice",
      "outputs": [],
      "stateMutability": "nonpayable",
      "type": "function"
    },
    {
      "inputs": [
        {
          "internalType": "uint256",
          "name": "_listingId",
          "type": "uint256"
        }
      ],
      "name": "pullFromSale",
      "outputs": [],
      "stateMutability": "nonpayable",
      "type": "function"
    },
    {
      "inputs": [
        {
          "internalType": "uint256",
          "name": "_listingId",
          "type": "uint256"
        }
      ],
      "name": "buyNFTWithERC20",
      "outputs": [],
      "stateMutability": "nonpayable",
      "type": "function"
    }
  ],
  "bytecode": "0x60806040526040518060400160405280600581526020017f322e322e30000000000000000000000000000000000000000000000000000000815250600f90805190602001906200005192919062000662565b503480156200005f57600080fd5b50604051620053a1380380620053a183398181016040528101906200008591906200077c565b620000a562000099620003d560201b60201c565b620003f160201b60201c565b600073ffffffffffffffffffffffffffffffffffffffff168473ffffffffffffffffffffffffffffffffffffffff16141562000118576040517f08c379a00000000000000000000000000000000000000000000000000000000081526004016200010f9062000875565b60405180910390fd5b600073ffffffffffffffffffffffffffffffffffffffff168373ffffffffffffffffffffffffffffffffffffffff1614156200018b576040517f08c379a0000000000000000000000000000000000000000000000000000000008152600401620001829062000875565b60405180910390fd5b600073ffffffffffffffffffffffffffffffffffffffff168273ffffffffffffffffffffffffffffffffffffffff161415620001fe576040517f08c379a0000000000000000000000000000000000000000000000000000000008152600401620001f59062000875565b60405180910390fd5b6200020e620003d560201b60201c565b600b60006101000a81548173ffffffffffffffffffffffffffffffffffffffff021916908373ffffffffffffffffffffffffffffffffffffffff16021790555060056009819055506000600a819055506200026f81620004b760201b60201c565b6001600e60008673ffffffffffffffffffffffffffffffffffffffff1673ffffffffffffffffffffffffffffffffffffffff16815260200190815260200160002060006101000a81548160ff02191690831515021790555082600c60006101000a81548173ffffffffffffffffffffffffffffffffffffffff021916908373ffffffffffffffffffffffffffffffffffffffff16021790555081600d60006101000a81548173ffffffffffffffffffffffffffffffffffffffff021916908373ffffffffffffffffffffffffffffffffffffffff16021790555082600360006101000a81548173ffffffffffffffffffffffffffffffffffffffff021916908373ffffffffffffffffffffffffffffffffffffffff16021790555081600460006101000a81548173ffffffffffffffffffffffffffffffffffffffff021916908373ffffffffffffffffffffffffffffffffffffffff160217905550505050506200096e565b6000620003ec6200055a60201b62002cbb1760201c565b905090565b6000600160009054906101000a900473ffffffffffffffffffffffffffffffffffffffff16905081600160006101000a81548173ffffffffffffffffffffffffffffffffffffffff021916908373ffffffffffffffffffffffffffffffffffffffff1602179055508173ffffffffffffffffffffffffffffffffffffffff168173ffffffffffffffffffffffffffffffffffffffff167f8be0079c531659141344cd1fd0a4f28419497f9722a3daafe3b4186f6b6457e060405160405180910390a35050565b620004c7620003d560201b60201c565b73ffffffffffffffffffffffffffffffffffffffff16620004ed6200059c60201b60201c565b73ffffffffffffffffffffffffffffffffffffffff161462000546576040517f08c379a00000000000000000000000000000000000000000000000000000000081526004016200053d90620008e7565b60405180910390fd5b6200055781620005c660201b60201c565b50565b600060146000369050101580156200057f57506200057e336200060960201b60201c565b5b156200059557601436033560601c905062000599565b3390505b90565b6000600160009054906101000a900473ffffffffffffffffffffffffffffffffffffffff16905090565b806000806101000a81548173ffffffffffffffffffffffffffffffffffffffff021916908373ffffffffffffffffffffffffffffffffffffffff16021790555050565b60008060009054906101000a900473ffffffffffffffffffffffffffffffffffffffff1673ffffffffffffffffffffffffffffffffffffffff168273ffffffffffffffffffffffffffffffffffffffff16149050919050565b828054620006709062000938565b90600052602060002090601f016020900481019282620006945760008555620006e0565b82601f10620006af57805160ff1916838001178555620006e0565b82800160010185558215620006e0579182015b82811115620006df578251825591602001919060010190620006c2565b5b509050620006ef9190620006f3565b5090565b5b808211156200070e576000816000905550600101620006f4565b5090565b600080fd5b600073ffffffffffffffffffffffffffffffffffffffff82169050919050565b6000620007448262000717565b9050919050565b620007568162000737565b81146200076257600080fd5b50565b60008151905062000776816200074b565b92915050565b6000806000806080858703121562000799576200079862000712565b5b6000620007a98782880162000765565b9450506020620007bc8782880162000765565b9350506040620007cf8782880162000765565b9250506060620007e28782880162000765565b91505092959194509250565b600082825260208201905092915050565b7f546f6b656e2061646472657373206d757374206e6f742062652074686520302060008201527f6164647265737300000000000000000000000000000000000000000000000000602082015250565b60006200085d602783620007ee565b91506200086a82620007ff565b604082019050919050565b6000602082019050818103600083015262000890816200084e565b9050919050565b7f4f776e61626c653a2063616c6c6572206973206e6f7420746865206f776e6572600082015250565b6000620008cf602083620007ee565b9150620008dc8262000897565b602082019050919050565b600060208201905081810360008301526200090281620008c0565b9050919050565b7f4e487b7100000000000000000000000000000000000000000000000000000000600052602260045260246000fd5b600060028204905060018216806200095157607f821691505b6020821081141562000968576200096762000909565b5b50919050565b614a23806200097e6000396000f3fe608060405234801561001057600080fd5b50600436106101585760003560e01c80639a701288116100c3578063c82e474b1161007c578063c82e474b146103c5578063d3e6a7ad146103e1578063da74222814610411578063f1b2d6a31461042d578063f2fde38b1461044b578063fe257afc1461046757610158565b80639a701288146102df5780639d93d352146102fd5780639dfc183a1461032d578063a19b56ac14610349578063af62c68414610379578063bddb06f3146103a957610158565b80636d1ea3fa116101155780636d1ea3fa1461021d578063715018a61461024d5780637da0a877146102575780638ad2d5a7146102755780638da5cb5b146102a5578063971ccc16146102c357610158565b8063086d62311461015d57806312065fe0146101795780634209a2e114610197578063486ff0cd146101b3578063572b6c05146101d157806366e3e12214610201575b600080fd5b61017760048036038101906101729190613a0d565b610485565b005b61018161050b565b60405161018e9190613a49565b60405180910390f35b6101b160048036038101906101ac9190613a0d565b610513565b005b6101bb610599565b6040516101c89190613afd565b60405180910390f35b6101eb60048036038101906101e69190613b7d565b610627565b6040516101f89190613bc5565b60405180910390f35b61021b60048036038101906102169190613a0d565b610680565b005b61023760048036038101906102329190613b7d565b610f62565b6040516102449190613bc5565b60405180910390f35b610255610f82565b005b61025f61100a565b60405161026c9190613bef565b60405180910390f35b61028f600480360381019061028a9190613a0d565b611033565b60405161029c9190613bef565b60405180910390f35b6102ad6110d8565b6040516102ba9190613bef565b60405180910390f35b6102dd60048036038101906102d89190613b7d565b611102565b005b6102e76111d9565b6040516102f49190613bef565b60405180910390f35b61031760048036038101906103129190613b7d565b6111ff565b6040516103249190613bc5565b60405180910390f35b61034760048036038101906103429190613c36565b611255565b005b610363600480360381019061035e9190613a0d565b611bc9565b6040516103709190613dd1565b60405180910390f35b610393600480360381019061038e9190613b7d565b611d30565b6040516103a09190613f7e565b60405180910390f35b6103c360048036038101906103be9190613a0d565b611f08565b005b6103df60048036038101906103da9190613fa0565b6129f9565b005b6103fb60048036038101906103f69190613a0d565b612a18565b6040516104089190613bef565b60405180910390f35b61042b60048036038101906104269190613b7d565b612abd565b005b610435612b45565b604051610442919061408f565b60405180910390f35b61046560048036038101906104609190613b7d565b612b9d565b005b61046f612c95565b60405161047c9190613bef565b60405180910390f35b61048d612cf2565b73ffffffffffffffffffffffffffffffffffffffff166104ab6110d8565b73ffffffffffffffffffffffffffffffffffffffff1614610501576040517f08c379a00000000000000000000000000000000000000000000000000000000081526004016104f8906140fd565b60405180910390fd5b8060098190555050565b600047905090565b61051b612cf2565b73ffffffffffffffffffffffffffffffffffffffff166105396110d8565b73ffffffffffffffffffffffffffffffffffffffff161461058f576040517f08c379a0000000000000000000000000000000000000000000000000000000008152600401610586906140fd565b60405180910390fd5b8060098190555050565b600f80546105a69061414c565b80601f01602080910402602001604051908101604052809291908181526020018280546105d29061414c565b801561061f5780601f106105f45761010080835404028352916020019161061f565b820191906000526020600020905b81548152906001019060200180831161060257829003601f168201915b505050505081565b60008060009054906101000a900473ffffffffffffffffffffffffffffffffffffffff1673ffffffffffffffffffffffffffffffffffffffff168273ffffffffffffffffffffffffffffffffffffffff16149050919050565b6000600660008381526020019081526020016000206040518061016001604052908160008201548152602001600182015481526020016002820160009054906101000a900473ffffffffffffffffffffffffffffffffffffffff1673ffffffffffffffffffffffffffffffffffffffff1673ffffffffffffffffffffffffffffffffffffffff168152602001600382015481526020016004820160009054906101000a900460ff1615151515815260200160058201548152602001600682015481526020016007820160009054906101000a900460ff161515151581526020016007820160019054906101000a900473ffffffffffffffffffffffffffffffffffffffff1673ffffffffffffffffffffffffffffffffffffffff1673ffffffffffffffffffffffffffffffffffffffff1681526020016007820160159054906101000a900460ff16151515158152602001600882015481525050905080610120015115610b2b57600360009054906101000a900473ffffffffffffffffffffffffffffffffffffffff1673ffffffffffffffffffffffffffffffffffffffff1663ad3a358c82602001516040518263ffffffff1660e01b81526004016108469190613a49565b600060405180830381600087803b15801561086057600080fd5b505af1158015610874573d6000803e3d6000fd5b5050505080610100015173ffffffffffffffffffffffffffffffffffffffff166323b872dd6108a1612cf2565b8360400151600954606486606001516108ba91906141dc565b6108c4919061420d565b6040518463ffffffff1660e01b81526004016108e293929190614267565b6020604051808303816000875af1158015610901573d6000803e3d6000fd5b505050506040513d601f19601f8201168201806040525081019061092591906142b3565b5080610100015173ffffffffffffffffffffffffffffffffffffffff166323b872dd61094f612cf2565b83604001516009546064866060015161096891906141dc565b610972919061420d565b856060015161098191906142e0565b6040518463ffffffff1660e01b815260040161099f93929190614267565b6020604051808303816000875af11580156109be573d6000803e3d6000fd5b505050506040513d601f19601f820116820180604052508101906109e291906142b3565b50600c60009054906101000a900473ffffffffffffffffffffffffffffffffffffffff1673ffffffffffffffffffffffffffffffffffffffff1663095ea7b3610a29612cf2565b83602001516040518363ffffffff1660e01b8152600401610a4b929190614314565b600060405180830381600087803b158015610a6557600080fd5b505af1158015610a79573d6000803e3d6000fd5b50505050600c60009054906101000a900473ffffffffffffffffffffffffffffffffffffffff1673ffffffffffffffffffffffffffffffffffffffff166342842e0e8260400151610ac8612cf2565b84602001516040518463ffffffff1660e01b8152600401610aeb93929190614267565b600060405180830381600087803b158015610b0557600080fd5b505af1158015610b19573d6000803e3d6000fd5b50505050610b2682612d01565b610e6b565b600460009054906101000a900473ffffffffffffffffffffffffffffffffffffffff1673ffffffffffffffffffffffffffffffffffffffff1663ad3a358c82602001516040518263ffffffff1660e01b8152600401610b8a9190613a49565b600060405180830381600087803b158015610ba457600080fd5b505af1158015610bb8573d6000803e3d6000fd5b5050505080610100015173ffffffffffffffffffffffffffffffffffffffff166323b872dd610be5612cf2565b836040015160095460648660600151610bfe91906141dc565b610c08919061420d565b6040518463ffffffff1660e01b8152600401610c2693929190614267565b6020604051808303816000875af1158015610c45573d6000803e3d6000fd5b505050506040513d601f19601f82011682018060405250810190610c6991906142b3565b5080610100015173ffffffffffffffffffffffffffffffffffffffff166323b872dd610c93612cf2565b836040015160095460648660600151610cac91906141dc565b610cb6919061420d565b8560600151610cc591906142e0565b6040518463ffffffff1660e01b8152600401610ce393929190614267565b6020604051808303816000875af1158015610d02573d6000803e3d6000fd5b505050506040513d601f19601f82011682018060405250810190610d2691906142b3565b50600d60009054906101000a900473ffffffffffffffffffffffffffffffffffffffff1673ffffffffffffffffffffffffffffffffffffffff1663095ea7b3610d6d612cf2565b83602001516040518363ffffffff1660e01b8152600401610d8f929190614314565b600060405180830381600087803b158015610da957600080fd5b505af1158015610dbd573d6000803e3d6000fd5b50505050600d60009054906101000a900473ffffffffffffffffffffffffffffffffffffffff1673ffffffffffffffffffffffffffffffffffffffff166342842e0e8260400151610e0c612cf2565b84602001516040518463ffffffff1660e01b8152600401610e2f93929190614267565b600060405180830381600087803b158015610e4957600080fd5b505af1158015610e5d573d6000803e3d6000fd5b50505050610e6a82612d01565b5b7fed50efc3a37e95478fb9c9e1d2cef8a52fe12bc05baa63ad904fa0122ef0dbe481602001518260600151600360009054906101000a900473ffffffffffffffffffffffffffffffffffffffff1673ffffffffffffffffffffffffffffffffffffffff1663c87b56dd85602001516040518263ffffffff1660e01b8152600401610ef59190613a49565b600060405180830381865afa158015610f12573d6000803e3d6000fd5b505050506040513d6000823e3d601f19601f82011682018060405250810190610f3b9190614463565b610f43612cf2565b6001604051610f569594939291906144ac565b60405180910390a15050565b600e6020528060005260406000206000915054906101000a900460ff1681565b610f8a612cf2565b73ffffffffffffffffffffffffffffffffffffffff16610fa86110d8565b73ffffffffffffffffffffffffffffffffffffffff1614610ffe576040517f08c379a0000000000000000000000000000000000000000000000000000000008152600401610ff5906140fd565b60405180910390fd5b6110086000613550565b565b60008060009054906101000a900473ffffffffffffffffffffffffffffffffffffffff16905090565b6000600c60009054906101000a900473ffffffffffffffffffffffffffffffffffffffff1673ffffffffffffffffffffffffffffffffffffffff16636352211e836040518263ffffffff1660e01b81526004016110909190613a49565b602060405180830381865afa1580156110ad573d6000803e3d6000fd5b505050506040513d601f19601f820116820180604052508101906110d1919061451b565b9050919050565b6000600160009054906101000a900473ffffffffffffffffffffffffffffffffffffffff16905090565b61110a612cf2565b73ffffffffffffffffffffffffffffffffffffffff166111286110d8565b73ffffffffffffffffffffffffffffffffffffffff161461117e576040517f08c379a0000000000000000000000000000000000000000000000000000000008152600401611175906140fd565b60405180910390fd5b6001600e60008373ffffffffffffffffffffffffffffffffffffffff1673ffffffffffffffffffffffffffffffffffffffff16815260200190815260200160002060006101000a81548160ff02191690831515021790555050565b600c60009054906101000a900473ffffffffffffffffffffffffffffffffffffffff1681565b6000600e60008373ffffffffffffffffffffffffffffffffffffffff1673ffffffffffffffffffffffffffffffffffffffff16815260200190815260200160002060009054906101000a900460ff169050919050565b600e60008373ffffffffffffffffffffffffffffffffffffffff1673ffffffffffffffffffffffffffffffffffffffff16815260200190815260200160002060009054906101000a900460ff166112e1576040517f08c379a00000000000000000000000000000000000000000000000000000000081526004016112d8906145ba565b60405180910390fd5b8015611445576112ef612cf2565b73ffffffffffffffffffffffffffffffffffffffff1661130e87611033565b73ffffffffffffffffffffffffffffffffffffffff1614611364576040517f08c379a000000000000000000000000000000000000000000000000000000000815260040161135b90614626565b60405180910390fd5b600360009054906101000a900473ffffffffffffffffffffffffffffffffffffffff1673ffffffffffffffffffffffffffffffffffffffff1663fcce4883876040518263ffffffff1660e01b81526004016113bf9190613a49565b602060405180830381865afa1580156113dc573d6000803e3d6000fd5b505050506040513d601f19601f8201168201806040525081019061140091906142b3565b15611440576040517f08c379a0000000000000000000000000000000000000000000000000000000008152600401611437906146b8565b60405180910390fd5b61159f565b61144d612cf2565b73ffffffffffffffffffffffffffffffffffffffff1661146c87612a18565b73ffffffffffffffffffffffffffffffffffffffff16146114c2576040517f08c379a00000000000000000000000000000000000000000000000000000000081526004016114b990614724565b60405180910390fd5b600460009054906101000a900473ffffffffffffffffffffffffffffffffffffffff1673ffffffffffffffffffffffffffffffffffffffff1663fcce4883876040518263ffffffff1660e01b815260040161151d9190613a49565b602060405180830381865afa15801561153a573d6000803e3d6000fd5b505050506040513d601f19601f8201168201806040525081019061155e91906142b3565b1561159e576040517f08c379a0000000000000000000000000000000000000000000000000000000008152600401611595906147b6565b60405180910390fd5b5b6115a96002613616565b60006115b5600261362c565b90506115bf61367d565b81816000018181525050878160200181815250506115db612cf2565b816040019073ffffffffffffffffffffffffffffffffffffffff16908173ffffffffffffffffffffffffffffffffffffffff1681525050868160600181815250506000816080019015159081151581525050858160a0018181525050848160c001818152505060008160e00190151590811515815250508381610100019073ffffffffffffffffffffffffffffffffffffffff16908173ffffffffffffffffffffffffffffffffffffffff168152505082816101200190151590811515815250504281610140018181525050600560006116b3612cf2565b73ffffffffffffffffffffffffffffffffffffffff1673ffffffffffffffffffffffffffffffffffffffff168152602001908152602001600020819080600181540180825580915050600190039060005260206000209060090201600090919091909150600082015181600001556020820151816001015560408201518160020160006101000a81548173ffffffffffffffffffffffffffffffffffffffff021916908373ffffffffffffffffffffffffffffffffffffffff1602179055506060820151816003015560808201518160040160006101000a81548160ff02191690831515021790555060a0820151816005015560c0820151816006015560e08201518160070160006101000a81548160ff0219169083151502179055506101008201518160070160016101000a81548173ffffffffffffffffffffffffffffffffffffffff021916908373ffffffffffffffffffffffffffffffffffffffff1602179055506101208201518160070160156101000a81548160ff021916908315150217905550610140820151816008015550508060066000848152602001908152602001600020600082015181600001556020820151816001015560408201518160020160006101000a81548173ffffffffffffffffffffffffffffffffffffffff021916908373ffffffffffffffffffffffffffffffffffffffff1602179055506060820151816003015560808201518160040160006101000a81548160ff02191690831515021790555060a0820151816005015560c0820151816006015560e08201518160070160006101000a81548160ff0219169083151502179055506101008201518160070160016101000a81548173ffffffffffffffffffffffffffffffffffffffff021916908373ffffffffffffffffffffffffffffffffffffffff1602179055506101208201518160070160156101000a81548160ff02191690831515021790555061014082015181600801559050506008816000015190806001815401808255809150506001900390600052602060002001600090919091909150558215611a4f57600360009054906101000a900473ffffffffffffffffffffffffffffffffffffffff1673ffffffffffffffffffffffffffffffffffffffff1663e6148d5f896040518263ffffffff1660e01b8152600401611a189190613a49565b600060405180830381600087803b158015611a3257600080fd5b505af1158015611a46573d6000803e3d6000fd5b50505050611add565b600460009054906101000a900473ffffffffffffffffffffffffffffffffffffffff1673ffffffffffffffffffffffffffffffffffffffff1663e6148d5f896040518263ffffffff1660e01b8152600401611aaa9190613a49565b600060405180830381600087803b158015611ac457600080fd5b505af1158015611ad8573d6000803e3d6000fd5b505050505b7ff4fed5a4ea597a866c3bf2adb1d0e0334a9980d031fce4b5e174edb01d2fab9288600360009054906101000a900473ffffffffffffffffffffffffffffffffffffffff1673ffffffffffffffffffffffffffffffffffffffff1663c87b56dd8b6040518263ffffffff1660e01b8152600401611b5a9190613a49565b600060405180830381865afa158015611b77573d6000803e3d6000fd5b505050506040513d6000823e3d601f19601f82011682018060405250810190611ba09190614463565b83604001516001604051611bb794939291906147d6565b60405180910390a15050505050505050565b611bd161367d565b600660008381526020019081526020016000206040518061016001604052908160008201548152602001600182015481526020016002820160009054906101000a900473ffffffffffffffffffffffffffffffffffffffff1673ffffffffffffffffffffffffffffffffffffffff1673ffffffffffffffffffffffffffffffffffffffff168152602001600382015481526020016004820160009054906101000a900460ff1615151515815260200160058201548152602001600682015481526020016007820160009054906101000a900460ff161515151581526020016007820160019054906101000a900473ffffffffffffffffffffffffffffffffffffffff1673ffffffffffffffffffffffffffffffffffffffff1673ffffffffffffffffffffffffffffffffffffffff1681526020016007820160159054906101000a900460ff161515151581526020016008820154815250509050919050565b6060600560008373ffffffffffffffffffffffffffffffffffffffff1673ffffffffffffffffffffffffffffffffffffffff168152602001908152602001600020805480602002602001604051908101604052809291908181526020016000905b82821015611efd57838290600052602060002090600902016040518061016001604052908160008201548152602001600182015481526020016002820160009054906101000a900473ffffffffffffffffffffffffffffffffffffffff1673ffffffffffffffffffffffffffffffffffffffff1673ffffffffffffffffffffffffffffffffffffffff168152602001600382015481526020016004820160009054906101000a900460ff1615151515815260200160058201548152602001600682015481526020016007820160009054906101000a900460ff161515151581526020016007820160019054906101000a900473ffffffffffffffffffffffffffffffffffffffff1673ffffffffffffffffffffffffffffffffffffffff1673ffffffffffffffffffffffffffffffffffffffff1681526020016007820160159054906101000a900460ff1615151515815260200160088201548152505081526020019060010190611d91565b505050509050919050565b6000600660008381526020019081526020016000206040518061016001604052908160008201548152602001600182015481526020016002820160009054906101000a900473ffffffffffffffffffffffffffffffffffffffff1673ffffffffffffffffffffffffffffffffffffffff1673ffffffffffffffffffffffffffffffffffffffff168152602001600382015481526020016004820160009054906101000a900460ff1615151515815260200160058201548152602001600682015481526020016007820160009054906101000a900460ff161515151581526020016007820160019054906101000a900473ffffffffffffffffffffffffffffffffffffffff1673ffffffffffffffffffffffffffffffffffffffff1673ffffffffffffffffffffffffffffffffffffffff1681526020016007820160159054906101000a900460ff16151515158152602001600882015481525050905061206c612cf2565b73ffffffffffffffffffffffffffffffffffffffff16816040015173ffffffffffffffffffffffffffffffffffffffff16146120dd576040517f08c379a00000000000000000000000000000000000000000000000000000000081526004016120d490614894565b60405180910390fd5b8061012001511561217e57600360009054906101000a900473ffffffffffffffffffffffffffffffffffffffff1673ffffffffffffffffffffffffffffffffffffffff1663ad3a358c82602001516040518263ffffffff1660e01b81526004016121479190613a49565b600060405180830381600087803b15801561216157600080fd5b505af1158015612175573d6000803e3d6000fd5b50505050612210565b600460009054906101000a900473ffffffffffffffffffffffffffffffffffffffff1673ffffffffffffffffffffffffffffffffffffffff1663ad3a358c82602001516040518263ffffffff1660e01b81526004016121dd9190613a49565b600060405180830381600087803b1580156121f757600080fd5b505af115801561220b573d6000803e3d6000fd5b505050505b60006005600061221e612cf2565b73ffffffffffffffffffffffffffffffffffffffff1673ffffffffffffffffffffffffffffffffffffffff168152602001908152602001600020905060005b818054905081101561276257600082828154811061227e5761227d6148b4565b5b90600052602060002090600902016040518061016001604052908160008201548152602001600182015481526020016002820160009054906101000a900473ffffffffffffffffffffffffffffffffffffffff1673ffffffffffffffffffffffffffffffffffffffff1673ffffffffffffffffffffffffffffffffffffffff168152602001600382015481526020016004820160009054906101000a900460ff1615151515815260200160058201548152602001600682015481526020016007820160009054906101000a900460ff161515151581526020016007820160019054906101000a900473ffffffffffffffffffffffffffffffffffffffff1673ffffffffffffffffffffffffffffffffffffffff1673ffffffffffffffffffffffffffffffffffffffff1681526020016007820160159054906101000a900460ff16151515158152602001600882015481525050905083600001518160000151141561274e5782600184805490506123f591906142e0565b81548110612406576124056148b4565b5b9060005260206000209060090201838381548110612427576124266148b4565b5b906000526020600020906009020160008201548160000155600182015481600101556002820160009054906101000a900473ffffffffffffffffffffffffffffffffffffffff168160020160006101000a81548173ffffffffffffffffffffffffffffffffffffffff021916908373ffffffffffffffffffffffffffffffffffffffff160217905550600382015481600301556004820160009054906101000a900460ff168160040160006101000a81548160ff02191690831515021790555060058201548160050155600682015481600601556007820160009054906101000a900460ff168160070160006101000a81548160ff0219169083151502179055506007820160019054906101000a900473ffffffffffffffffffffffffffffffffffffffff168160070160016101000a81548173ffffffffffffffffffffffffffffffffffffffff021916908373ffffffffffffffffffffffffffffffffffffffff1602179055506007820160159054906101000a900460ff168160070160156101000a81548160ff0219169083151502179055506008820154816008015590505082600560006125d6612cf2565b73ffffffffffffffffffffffffffffffffffffffff1673ffffffffffffffffffffffffffffffffffffffff16815260200190815260200160002090805461261e929190613709565b506005600061262b612cf2565b73ffffffffffffffffffffffffffffffffffffffff1673ffffffffffffffffffffffffffffffffffffffff168152602001908152602001600020805480612675576126746148e3565b5b600190038181906000526020600020906009020160008082016000905560018201600090556002820160006101000a81549073ffffffffffffffffffffffffffffffffffffffff021916905560038201600090556004820160006101000a81549060ff0219169055600582016000905560068201600090556007820160006101000a81549060ff02191690556007820160016101000a81549073ffffffffffffffffffffffffffffffffffffffff02191690556007820160156101000a81549060ff021916905560088201600090555050905550612762565b50808061275a90614912565b91505061225d565b5060005b60088054905081101561283657600060088281548110612789576127886148b4565b5b90600052602060002001549050836000015181141561282257600860016008805490506127b691906142e0565b815481106127c7576127c66148b4565b5b9060005260206000200154600883815481106127e6576127e56148b4565b5b90600052602060002001819055506008805480612806576128056148e3565b5b6001900381819060005260206000200160009055905550612836565b50808061282e90614912565b915050612766565b506006600084815260200190815260200160002060008082016000905560018201600090556002820160006101000a81549073ffffffffffffffffffffffffffffffffffffffff021916905560038201600090556004820160006101000a81549060ff0219169055600582016000905560068201600090556007820160006101000a81549060ff02191690556007820160016101000a81549073ffffffffffffffffffffffffffffffffffffffff02191690556007820160156101000a81549060ff0219169055600882016000905550507fd1542b8a62548de416836f4b86ab871dfb6a539e1c8290295e1e870e3f5b0fce8260200151600360009054906101000a900473ffffffffffffffffffffffffffffffffffffffff1673ffffffffffffffffffffffffffffffffffffffff1663c87b56dd85602001516040518263ffffffff1660e01b815260040161298c9190613a49565b600060405180830381865afa1580156129a9573d6000803e3d6000fd5b505050506040513d6000823e3d601f19601f820116820180604052508101906129d29190614463565b6129da612cf2565b60006040516129ec94939291906147d6565b60405180910390a1505050565b8060066000848152602001908152602001600020600301819055505050565b6000600d60009054906101000a900473ffffffffffffffffffffffffffffffffffffffff1673ffffffffffffffffffffffffffffffffffffffff16636352211e836040518263ffffffff1660e01b8152600401612a759190613a49565b602060405180830381865afa158015612a92573d6000803e3d6000fd5b505050506040513d601f19601f82011682018060405250810190612ab6919061451b565b9050919050565b612ac5612cf2565b73ffffffffffffffffffffffffffffffffffffffff16612ae36110d8565b73ffffffffffffffffffffffffffffffffffffffff1614612b39576040517f08c379a0000000000000000000000000000000000000000000000000000000008152600401612b30906140fd565b60405180910390fd5b612b428161363a565b50565b60606008805480602002602001604051908101604052809291908181526020018280548015612b9357602002820191906000526020600020905b815481526020019060010190808311612b7f575b5050505050905090565b612ba5612cf2565b73ffffffffffffffffffffffffffffffffffffffff16612bc36110d8565b73ffffffffffffffffffffffffffffffffffffffff1614612c19576040517f08c379a0000000000000000000000000000000000000000000000000000000008152600401612c10906140fd565b60405180910390fd5b600073ffffffffffffffffffffffffffffffffffffffff168173ffffffffffffffffffffffffffffffffffffffff161415612c89576040517f08c379a0000000000000000000000000000000000000000000000000000000008152600401612c80906149cd565b60405180910390fd5b612c9281613550565b50565b600d60009054906101000a900473ffffffffffffffffffffffffffffffffffffffff1681565b60006014600036905010158015612cd75750612cd633610627565b5b15612ceb57601436033560601c9050612cef565b3390505b90565b6000612cfc612cbb565b905090565b6000600660008381526020019081526020016000206040518061016001604052908160008201548152602001600182015481526020016002820160009054906101000a900473ffffffffffffffffffffffffffffffffffffffff1673ffffffffffffffffffffffffffffffffffffffff1673ffffffffffffffffffffffffffffffffffffffff168152602001600382015481526020016004820160009054906101000a900460ff1615151515815260200160058201548152602001600682015481526020016007820160009054906101000a900460ff161515151581526020016007820160019054906101000a900473ffffffffffffffffffffffffffffffffffffffff1673ffffffffffffffffffffffffffffffffffffffff1673ffffffffffffffffffffffffffffffffffffffff1681526020016007820160159054906101000a900460ff161515151581526020016008820154815250509050600060056000836040015173ffffffffffffffffffffffffffffffffffffffff1673ffffffffffffffffffffffffffffffffffffffff168152602001908152602001600020905060005b81805490508110156133a6576000828281548110612ec857612ec76148b4565b5b90600052602060002090600902016040518061016001604052908160008201548152602001600182015481526020016002820160009054906101000a900473ffffffffffffffffffffffffffffffffffffffff1673ffffffffffffffffffffffffffffffffffffffff1673ffffffffffffffffffffffffffffffffffffffff168152602001600382015481526020016004820160009054906101000a900460ff1615151515815260200160058201548152602001600682015481526020016007820160009054906101000a900460ff161515151581526020016007820160019054906101000a900473ffffffffffffffffffffffffffffffffffffffff1673ffffffffffffffffffffffffffffffffffffffff1673ffffffffffffffffffffffffffffffffffffffff1681526020016007820160159054906101000a900460ff16151515158152602001600882015481525050905083600001518160000151141561339257826001848054905061303f91906142e0565b815481106130505761304f6148b4565b5b9060005260206000209060090201838381548110613071576130706148b4565b5b906000526020600020906009020160008201548160000155600182015481600101556002820160009054906101000a900473ffffffffffffffffffffffffffffffffffffffff168160020160006101000a81548173ffffffffffffffffffffffffffffffffffffffff021916908373ffffffffffffffffffffffffffffffffffffffff160217905550600382015481600301556004820160009054906101000a900460ff168160040160006101000a81548160ff02191690831515021790555060058201548160050155600682015481600601556007820160009054906101000a900460ff168160070160006101000a81548160ff0219169083151502179055506007820160019054906101000a900473ffffffffffffffffffffffffffffffffffffffff168160070160016101000a81548173ffffffffffffffffffffffffffffffffffffffff021916908373ffffffffffffffffffffffffffffffffffffffff1602179055506007820160159054906101000a900460ff168160070160156101000a81548160ff021916908315150217905550600882015481600801559050508260056000866040015173ffffffffffffffffffffffffffffffffffffffff1673ffffffffffffffffffffffffffffffffffffffff168152602001908152602001600020908054613265929190613709565b5060056000856040015173ffffffffffffffffffffffffffffffffffffffff1673ffffffffffffffffffffffffffffffffffffffff1681526020019081526020016000208054806132b9576132b86148e3565b5b600190038181906000526020600020906009020160008082016000905560018201600090556002820160006101000a81549073ffffffffffffffffffffffffffffffffffffffff021916905560038201600090556004820160006101000a81549060ff0219169055600582016000905560068201600090556007820160006101000a81549060ff02191690556007820160016101000a81549073ffffffffffffffffffffffffffffffffffffffff02191690556007820160156101000a81549060ff0219169055600882016000905550509055506133a6565b50808061339e90614912565b915050612ea7565b5060005b60088054905081101561347a576000600882815481106133cd576133cc6148b4565b5b90600052602060002001549050836000015181141561346657600860016008805490506133fa91906142e0565b8154811061340b5761340a6148b4565b5b90600052602060002001546008838154811061342a576134296148b4565b5b9060005260206000200181905550600880548061344a576134496148e3565b5b600190038181906000526020600020016000905590555061347a565b50808061347290614912565b9150506133aa565b506006600084815260200190815260200160002060008082016000905560018201600090556002820160006101000a81549073ffffffffffffffffffffffffffffffffffffffff021916905560038201600090556004820160006101000a81549060ff0219169055600582016000905560068201600090556007820160006101000a81549060ff02191690556007820160016101000a81549073ffffffffffffffffffffffffffffffffffffffff02191690556007820160156101000a81549060ff021916905560088201600090555050505050565b6000600160009054906101000a900473ffffffffffffffffffffffffffffffffffffffff16905081600160006101000a81548173ffffffffffffffffffffffffffffffffffffffff021916908373ffffffffffffffffffffffffffffffffffffffff1602179055508173ffffffffffffffffffffffffffffffffffffffff168173ffffffffffffffffffffffffffffffffffffffff167f8be0079c531659141344cd1fd0a4f28419497f9722a3daafe3b4186f6b6457e060405160405180910390a35050565b6001816000016000828254019250508190555050565b600081600001549050919050565b806000806101000a81548173ffffffffffffffffffffffffffffffffffffffff021916908373ffffffffffffffffffffffffffffffffffffffff16021790555050565b6040518061016001604052806000815260200160008152602001600073ffffffffffffffffffffffffffffffffffffffff168152602001600081526020016000151581526020016000815260200160008152602001600015158152602001600073ffffffffffffffffffffffffffffffffffffffff168152602001600015158152602001600081525090565b8280548282559060005260206000209060090281019282156138e15760005260206000209160090282015b828111156138e057828260008201548160000155600182015481600101556002820160009054906101000a900473ffffffffffffffffffffffffffffffffffffffff168160020160006101000a81548173ffffffffffffffffffffffffffffffffffffffff021916908373ffffffffffffffffffffffffffffffffffffffff160217905550600382015481600301556004820160009054906101000a900460ff168160040160006101000a81548160ff02191690831515021790555060058201548160050155600682015481600601556007820160009054906101000a900460ff168160070160006101000a81548160ff0219169083151502179055506007820160019054906101000a900473ffffffffffffffffffffffffffffffffffffffff168160070160016101000a81548173ffffffffffffffffffffffffffffffffffffffff021916908373ffffffffffffffffffffffffffffffffffffffff1602179055506007820160159054906101000a900460ff168160070160156101000a81548160ff02191690831515021790555060088201548160080155505091600901919060090190613734565b5b5090506138ee91906138f2565b5090565b5b808211156139bf5760008082016000905560018201600090556002820160006101000a81549073ffffffffffffffffffffffffffffffffffffffff021916905560038201600090556004820160006101000a81549060ff0219169055600582016000905560068201600090556007820160006101000a81549060ff02191690556007820160016101000a81549073ffffffffffffffffffffffffffffffffffffffff02191690556007820160156101000a81549060ff02191690556008820160009055506009016138f3565b5090565b6000604051905090565b600080fd5b600080fd5b6000819050919050565b6139ea816139d7565b81146139f557600080fd5b50565b600081359050613a07816139e1565b92915050565b600060208284031215613a2357613a226139cd565b5b6000613a31848285016139f8565b91505092915050565b613a43816139d7565b82525050565b6000602082019050613a5e6000830184613a3a565b92915050565b600081519050919050565b600082825260208201905092915050565b60005b83811015613a9e578082015181840152602081019050613a83565b83811115613aad576000848401525b50505050565b6000601f19601f8301169050919050565b6000613acf82613a64565b613ad98185613a6f565b9350613ae9818560208601613a80565b613af281613ab3565b840191505092915050565b60006020820190508181036000830152613b178184613ac4565b905092915050565b600073ffffffffffffffffffffffffffffffffffffffff82169050919050565b6000613b4a82613b1f565b9050919050565b613b5a81613b3f565b8114613b6557600080fd5b50565b600081359050613b7781613b51565b92915050565b600060208284031215613b9357613b926139cd565b5b6000613ba184828501613b68565b91505092915050565b60008115159050919050565b613bbf81613baa565b82525050565b6000602082019050613bda6000830184613bb6565b92915050565b613be981613b3f565b82525050565b6000602082019050613c046000830184613be0565b92915050565b613c1381613baa565b8114613c1e57600080fd5b50565b600081359050613c3081613c0a565b92915050565b60008060008060008060c08789031215613c5357613c526139cd565b5b6000613c6189828a016139f8565b9650506020613c7289828a016139f8565b9550506040613c8389828a016139f8565b9450506060613c9489828a016139f8565b9350506080613ca589828a01613b68565b92505060a0613cb689828a01613c21565b9150509295509295509295565b613ccc816139d7565b82525050565b613cdb81613b3f565b82525050565b613cea81613baa565b82525050565b61016082016000820151613d076000850182613cc3565b506020820151613d1a6020850182613cc3565b506040820151613d2d6040850182613cd2565b506060820151613d406060850182613cc3565b506080820151613d536080850182613ce1565b5060a0820151613d6660a0850182613cc3565b5060c0820151613d7960c0850182613cc3565b5060e0820151613d8c60e0850182613ce1565b50610100820151613da1610100850182613cd2565b50610120820151613db6610120850182613ce1565b50610140820151613dcb610140850182613cc3565b50505050565b600061016082019050613de76000830184613cf0565b92915050565b600081519050919050565b600082825260208201905092915050565b6000819050602082019050919050565b61016082016000820151613e306000850182613cc3565b506020820151613e436020850182613cc3565b506040820151613e566040850182613cd2565b506060820151613e696060850182613cc3565b506080820151613e7c6080850182613ce1565b5060a0820151613e8f60a0850182613cc3565b5060c0820151613ea260c0850182613cc3565b5060e0820151613eb560e0850182613ce1565b50610100820151613eca610100850182613cd2565b50610120820151613edf610120850182613ce1565b50610140820151613ef4610140850182613cc3565b50505050565b6000613f068383613e19565b6101608301905092915050565b6000602082019050919050565b6000613f2b82613ded565b613f358185613df8565b9350613f4083613e09565b8060005b83811015613f71578151613f588882613efa565b9750613f6383613f13565b925050600181019050613f44565b5085935050505092915050565b60006020820190508181036000830152613f988184613f20565b905092915050565b60008060408385031215613fb757613fb66139cd565b5b6000613fc5858286016139f8565b9250506020613fd6858286016139f8565b9150509250929050565b600081519050919050565b600082825260208201905092915050565b6000819050602082019050919050565b60006140188383613cc3565b60208301905092915050565b6000602082019050919050565b600061403c82613fe0565b6140468185613feb565b935061405183613ffc565b8060005b83811015614082578151614069888261400c565b975061407483614024565b925050600181019050614055565b5085935050505092915050565b600060208201905081810360008301526140a98184614031565b905092915050565b7f4f776e61626c653a2063616c6c6572206973206e6f7420746865206f776e6572600082015250565b60006140e7602083613a6f565b91506140f2826140b1565b602082019050919050565b60006020820190508181036000830152614116816140da565b9050919050565b7f4e487b7100000000000000000000000000000000000000000000000000000000600052602260045260246000fd5b6000600282049050600182168061416457607f821691505b602082108114156141785761417761411d565b5b50919050565b7f4e487b7100000000000000000000000000000000000000000000000000000000600052601260045260246000fd5b7f4e487b7100000000000000000000000000000000000000000000000000000000600052601160045260246000fd5b60006141e7826139d7565b91506141f2836139d7565b9250826142025761420161417e565b5b828204905092915050565b6000614218826139d7565b9150614223836139d7565b9250817fffffffffffffffffffffffffffffffffffffffffffffffffffffffffffffffff048311821515161561425c5761425b6141ad565b5b828202905092915050565b600060608201905061427c6000830186613be0565b6142896020830185613be0565b6142966040830184613a3a565b949350505050565b6000815190506142ad81613c0a565b92915050565b6000602082840312156142c9576142c86139cd565b5b60006142d78482850161429e565b91505092915050565b60006142eb826139d7565b91506142f6836139d7565b925082821015614309576143086141ad565b5b828203905092915050565b60006040820190506143296000830185613be0565b6143366020830184613a3a565b9392505050565b600080fd5b600080fd5b7f4e487b7100000000000000000000000000000000000000000000000000000000600052604160045260246000fd5b61437f82613ab3565b810181811067ffffffffffffffff8211171561439e5761439d614347565b5b80604052505050565b60006143b16139c3565b90506143bd8282614376565b919050565b600067ffffffffffffffff8211156143dd576143dc614347565b5b6143e682613ab3565b9050602081019050919050565b6000614406614401846143c2565b6143a7565b90508281526020810184848401111561442257614421614342565b5b61442d848285613a80565b509392505050565b600082601f83011261444a5761444961433d565b5b815161445a8482602086016143f3565b91505092915050565b600060208284031215614479576144786139cd565b5b600082015167ffffffffffffffff811115614497576144966139d2565b5b6144a384828501614435565b91505092915050565b600060a0820190506144c16000830188613a3a565b6144ce6020830187613a3a565b81810360408301526144e08186613ac4565b90506144ef6060830185613be0565b6144fc6080830184613bb6565b9695505050505050565b60008151905061451581613b51565b92915050565b600060208284031215614531576145306139cd565b5b600061453f84828501614506565b91505092915050565b7f4d757374206265206c697374656420707269636520696e20617070726f76656460008201527f20746f6b656e0000000000000000000000000000000000000000000000000000602082015250565b60006145a4602683613a6f565b91506145af82614548565b604082019050919050565b600060208201905081810360008301526145d381614597565b9050919050565b7f4d757374206265206f776e657220746f206c69737420766e6674000000000000600082015250565b6000614610601a83613a6f565b915061461b826145da565b602082019050919050565b6000602082019050818103600083015261463f81614603565b9050919050565b7f43616e6e6f7420637265617465206d756c7469706c65206c697374696e67732060008201527f666f72206f6e65206e6674000000000000000000000000000000000000000000602082015250565b60006146a2602b83613a6f565b91506146ad82614646565b604082019050919050565b600060208201905081810360008301526146d181614695565b9050919050565b7f4d757374206265206f776e657220746f206c697374207061636b000000000000600082015250565b600061470e601a83613a6f565b9150614719826146d8565b602082019050919050565b6000602082019050818103600083015261473d81614701565b9050919050565b7f43616e6e6f7420637265617465206d756c7469706c65206c697374696e67732060008201527f666f72206f6e65207061636b0000000000000000000000000000000000000000602082015250565b60006147a0602c83613a6f565b91506147ab82614744565b604082019050919050565b600060208201905081810360008301526147cf81614793565b9050919050565b60006080820190506147eb6000830187613a3a565b81810360208301526147fd8186613ac4565b905061480c6040830185613be0565b6148196060830184613bb6565b95945050505050565b7f4d75737420626520746865206f776e657220746f2070756c6c2066726f6d207360008201527f616c650000000000000000000000000000000000000000000000000000000000602082015250565b600061487e602383613a6f565b915061488982614822565b604082019050919050565b600060208201905081810360008301526148ad81614871565b9050919050565b7f4e487b7100000000000000000000000000000000000000000000000000000000600052603260045260246000fd5b7f4e487b7100000000000000000000000000000000000000000000000000000000600052603160045260246000fd5b600061491d826139d7565b91507fffffffffffffffffffffffffffffffffffffffffffffffffffffffffffffffff8214156149505761494f6141ad565b5b600182019050919050565b7f4f776e61626c653a206e6577206f776e657220697320746865207a65726f206160008201527f6464726573730000000000000000000000000000000000000000000000000000602082015250565b60006149b7602683613a6f565b91506149c28261495b565b604082019050919050565b600060208201905081810360008301526149e6816149aa565b905091905056fea26469706673582212202d3ee1433f531b1160a0026e1882dcfcaa1c8486efa28e39ae0c42a67775205064736f6c634300080b0033",
  "immutableReferences": {},
  "source": "pragma solidity ^0.8.0;\n\nimport \"@openzeppelin/contracts/access/Ownable.sol\";\nimport \"@openzeppelin/contracts/token/ERC721/ERC721.sol\";\nimport \"@openzeppelin/contracts/token/ERC20/IERC20.sol\";\nimport \"@openzeppelin/contracts/token/ERC20/ERC20.sol\";\nimport \"@openzeppelin/contracts/token/ERC721/IERC721.sol\";\nimport \"@opengsn/contracts/src/BaseRelayRecipient.sol\";\n\nimport \"./ViridianNFT.sol\";\nimport \"./ViridianPack.sol\";\n\ncontract ViridianExchange is BaseRelayRecipient, Ownable {\n\n    event ItemListed(uint256 tokenId, string uri, address wallet, bool listed);\n    event ItemUnlisted(uint256 tokenId, string uri, address wallet, bool listed);\n    event PurchasedListing(uint256 tokenId, uint256 price, string uri, address wallet, bool purchased);\n\n    using Counters for Counters.Counter;\n    Counters.Counter private _listingIds;\n\n    ViridianNFT vNFT;\n    ViridianPack vPack;\n    \n    struct Listing {\n        uint256 listingId;\n        uint256 tokenId;\n        address owner;\n        uint256 price;\n        bool purchased;\n        uint256 baseRoyalty;\n        uint256 endTime;\n        bool sold;\n        address erc20Address;\n        bool isVNFT;\n        uint256 timeListed;\n    }\n\n    mapping (address => Listing[]) userListings;\n    mapping (uint256 => Listing) listings;\n    address[] private userAddresses;\n    uint256[] private listingIds;\n\n    uint256 private baseRoyalty;\n    uint256 private whitelistRoyalty;\n\n    address private treasuryAddress;\n\n    address public viridianNFT;\n    address public viridianPack;\n    mapping (address => bool) public approvedTokens;\n\n    constructor(address _erc20Token, address _viridianNFT, address _viridianPack, address _forwarder) {\n        require(address(_erc20Token) != address(0), \"Token address must not be the 0 address\");\n        require(address(_viridianNFT) != address(0), \"Token address must not be the 0 address\");\n        require(address(_viridianPack) != address(0), \"Token address must not be the 0 address\");\n\n        treasuryAddress = _msgSender();\n        baseRoyalty = 5;\n        whitelistRoyalty = 0;\n\n        setTrustedForwarder(_forwarder);\n\n        approvedTokens[_erc20Token] = true;\n        viridianNFT = _viridianNFT;\n        viridianPack = _viridianPack;\n\n        vNFT = ViridianNFT(_viridianNFT);\n        vPack = ViridianPack(_viridianPack);\n    }\n\n    string public override versionRecipient = \"2.2.0\";\n\n    function setTrustedForwarder(address _forwarder) public onlyOwner() {\n        _setTrustedForwarder(_forwarder);\n    }\n\n    function _msgSender() internal view override(Context, BaseRelayRecipient) returns (address sender) {\n        sender = BaseRelayRecipient._msgSender();\n    }\n\n    function _msgData() internal view override(Context, BaseRelayRecipient) returns (bytes memory) {\n        return BaseRelayRecipient._msgData();\n    }\n\n    function setRoyalty(uint256 _newRoyalty) public onlyOwner() {\n        baseRoyalty = _newRoyalty;\n    }\n\n    function setWhitelistRoyalty(uint256 _newRoyalty) public onlyOwner() {\n        baseRoyalty = _newRoyalty;\n    }\n\n    function addERC20Token(address _erc20Address) public onlyOwner() {\n        approvedTokens[_erc20Address] = true;\n    }\n\n    function isTokenApproved(address _erc20Address) public view returns (bool) {\n        return approvedTokens[_erc20Address];\n    }\n\n    function getBalance() public view returns (uint) {\n        return address(this).balance;\n    }\n\n    function getListings() public view returns (uint256[] memory) {\n        return listingIds;\n    }\n\n    function getListingFromId(uint256 _listingId) public view returns (Listing memory) {\n        return listings[_listingId];\n    }\n\n    function getListingsFromUser(address _userAddr) public view returns (Listing[] memory) {\n        return userListings[_userAddr];\n    }\n\n    function getNftOwner(uint256 _nftId) public view returns (address) {\n        return IERC721(viridianNFT).ownerOf(_nftId);\n    }\n\n    function getPackOwner(uint256 _nftId) public view returns (address) {\n        return IERC721(viridianPack).ownerOf(_nftId);\n    }\n\n    function putUpForSale(uint256 _nftId, uint256 _price, uint256 _royalty, uint256 _endTime, address _erc20Address, bool _isVNFT) public {\n        require(approvedTokens[_erc20Address], \"Must be listed price in approved token\");\n\n        if (_isVNFT) {\n            require(getNftOwner(_nftId) == _msgSender(), \"Must be owner to list vnft\");\n            require(!vNFT.isListed(_nftId), \"Cannot create multiple listings for one nft\");\n        }\n        else {\n            require(getPackOwner(_nftId) == _msgSender(), \"Must be owner to list pack\");\n            require(!vPack.isListed(_nftId), \"Cannot create multiple listings for one pack\");\n        }\n        \n        //TODO: Maybe put this back\n        // if(!IERC721(viridianNFT).isApprovedForAll(_msgSender(), address(this))) {\n        //     IERC721(viridianNFT).setApprovalForAll(address(this), true);\n        // }\n\n        // if(!IERC721(viridianPack).isApprovedForAll(_msgSender(), address(this))) {\n        //     IERC721(viridianPack).setApprovalForAll(address(this), true);\n        // }\n\n        _listingIds.increment();\n        uint256 _listingId = _listingIds.current();\n        Listing memory saleListing;\n        saleListing.listingId = _listingId;\n        saleListing.tokenId = _nftId;\n        saleListing.owner = _msgSender();\n        saleListing.price = _price;\n        saleListing.purchased = false;\n        saleListing.baseRoyalty = _royalty;\n        saleListing.endTime = _endTime;\n        saleListing.sold = false;\n        saleListing.erc20Address = _erc20Address;\n        saleListing.isVNFT = _isVNFT;\n        saleListing.timeListed = block.timestamp;\n\n\n        userListings[_msgSender()].push(saleListing);\n        listings[_listingId] = saleListing;\n        listingIds.push(saleListing.listingId);\n\n        if (_isVNFT) {\n            vNFT.listToken(_nftId);\n        }\n        else {\n            vPack.listToken(_nftId);\n        }\n\n        //ERC20(viridianToken).approve(address(this), _price);\n\n        //IERC721(viridianNFT).approve(address(this), _nftId);\n        //IERC721(viridianNFT).safeTransferFrom(_msgSender(), address(this), _nftId);\n\n        emit ItemListed(_nftId, vNFT.tokenURI(_nftId), saleListing.owner, true);\n    }\n\n    function changeSalePrice(uint256 _listingId, uint256 _newPrice) public {\n        listings[_listingId].price = _newPrice;\n    }\n    \n    function pullFromSale(uint256 _listingId) public {\n        Listing memory curListing = listings[_listingId];\n        require(curListing.owner == _msgSender(), \"Must be the owner to pull from sale\");\n        //IERC721(viridianNFT).safeTransferFrom(address(this), _msgSender(), curListing.tokenId);\n        if(curListing.isVNFT) {\n            vNFT.unlistToken(curListing.tokenId);\n        }\n        else {\n            vPack.unlistToken(curListing.tokenId);\n        }\n\n        Listing[] storage curUserListings = userListings[_msgSender()];\n        for (uint i = 0; i < curUserListings.length; i++) {\n            Listing memory listing = curUserListings[i];\n            if (listing.listingId == curListing.listingId) {\n                curUserListings[i] = curUserListings[curUserListings.length - 1];\n                userListings[_msgSender()] = curUserListings;\n                userListings[_msgSender()].pop();\n                break;\n            }\n        }\n\n        for (uint256 i = 0; i < listingIds.length; i++) {\n            uint256 listingId = listingIds[i];\n            if (listingId == curListing.listingId) {\n                listingIds[i] = listingIds[listingIds.length - 1];\n                listingIds.pop();\n                break;\n            }\n        }\n\n        delete listings[_listingId];\n\n        emit ItemUnlisted(curListing.tokenId, vNFT.tokenURI(curListing.tokenId), _msgSender(), false);\n    }\n\n    function pullFromSaleOnBuy(uint256 _listingId) private {\n        Listing memory curListing = listings[_listingId];\n        //IERC721(viridianNFT).safeTransferFrom(address(this), _msgSender(), curListing.tokenId);\n        Listing[] storage curUserListings = userListings[curListing.owner];\n        for (uint i = 0; i < curUserListings.length; i++) {\n            Listing memory listing = curUserListings[i];\n            if (listing.listingId == curListing.listingId) {\n                curUserListings[i] = curUserListings[curUserListings.length - 1];\n                userListings[curListing.owner] = curUserListings;\n                userListings[curListing.owner].pop();\n                break;\n            }\n        }\n\n        for (uint256 i = 0; i < listingIds.length; i++) {\n            uint256 listingId = listingIds[i];\n            if (listingId == curListing.listingId) {\n                listingIds[i] = listingIds[listingIds.length - 1];\n                listingIds.pop();\n                break;\n            }\n        }\n\n        delete listings[_listingId];\n    }\n\n    function buyNFTWithERC20(uint256 _listingId) public {\n        Listing memory curListing = listings[_listingId];\n\n        if(curListing.isVNFT) {\n            vNFT.unlistToken(curListing.tokenId);\n\n            IERC20(curListing.erc20Address).transferFrom(_msgSender(), curListing.owner, (curListing.price / 100) * baseRoyalty);\n            IERC20(curListing.erc20Address).transferFrom(_msgSender(), curListing.owner, curListing.price - ((curListing.price / 100) * baseRoyalty));\n\n            IERC721(viridianNFT).approve(_msgSender(), curListing.tokenId);\n            IERC721(viridianNFT).safeTransferFrom(curListing.owner, _msgSender(), curListing.tokenId);\n            pullFromSaleOnBuy(_listingId);\n        }\n        else {\n            vPack.unlistToken(curListing.tokenId);\n\n            IERC20(curListing.erc20Address).transferFrom(_msgSender(), curListing.owner, (curListing.price / 100) * baseRoyalty);\n            IERC20(curListing.erc20Address).transferFrom(_msgSender(), curListing.owner, curListing.price - ((curListing.price / 100) * baseRoyalty));\n\n            IERC721(viridianPack).approve(_msgSender(), curListing.tokenId);\n            IERC721(viridianPack).safeTransferFrom(curListing.owner, _msgSender(), curListing.tokenId);\n            pullFromSaleOnBuy(_listingId);\n        }\n        emit PurchasedListing(curListing.tokenId, curListing.price, vNFT.tokenURI(curListing.tokenId), _msgSender(), true);\n    }\n}",
  "sourcePath": "/Users/blakehatch/Viridian-Exchange-Contracts/contracts/ViridianExchange.sol",
  "compiler": {
    "name": "solc",
    "version": "0.8.11+commit.d7f03943.Emscripten.clang"
  },
  "schemaVersion": "3.4.1",
  "updatedAt": "2022-02-10T05:43:28.826Z",
  "networkType": "ethereum",
  "devdoc": {
    "kind": "dev",
    "methods": {
      "owner()": {
        "details": "Returns the address of the current owner."
      },
      "renounceOwnership()": {
        "details": "Leaves the contract without owner. It will not be possible to call `onlyOwner` functions anymore. Can only be called by the current owner. NOTE: Renouncing ownership will leave the contract without an owner, thereby removing any functionality that is only available to the owner."
      },
      "transferOwnership(address)": {
        "details": "Transfers ownership of the contract to a new account (`newOwner`). Can only be called by the current owner."
      }
    },
    "version": 1
  },
  "userdoc": {
    "kind": "user",
    "methods": {
      "isTrustedForwarder(address)": {
        "notice": "return if the forwarder is trusted to forward relayed transactions to us. the forwarder is required to verify the sender's signature, and verify the call is not a replay."
      }
    },
    "version": 1
  }
}