{
  "contractName": "ViridianNFT",
  "abi": [
    {
      "anonymous": false,
      "inputs": [
        {
          "indexed": true,
          "internalType": "address",
          "name": "owner",
          "type": "address"
        },
        {
          "indexed": true,
          "internalType": "address",
          "name": "approved",
          "type": "address"
        },
        {
          "indexed": true,
          "internalType": "uint256",
          "name": "tokenId",
          "type": "uint256"
        }
      ],
      "name": "Approval",
      "type": "event"
    },
    {
      "anonymous": false,
      "inputs": [
        {
          "indexed": true,
          "internalType": "address",
          "name": "owner",
          "type": "address"
        },
        {
          "indexed": true,
          "internalType": "address",
          "name": "operator",
          "type": "address"
        },
        {
          "indexed": false,
          "internalType": "bool",
          "name": "approved",
          "type": "bool"
        }
      ],
      "name": "ApprovalForAll",
      "type": "event"
    },
    {
      "anonymous": false,
      "inputs": [
        {
          "indexed": false,
          "internalType": "uint8",
          "name": "version",
          "type": "uint8"
        }
      ],
      "name": "Initialized",
      "type": "event"
    },
    {
      "anonymous": false,
      "inputs": [
        {
          "indexed": false,
          "internalType": "uint256",
          "name": "newTokenId",
          "type": "uint256"
        }
      ],
      "name": "Open",
      "type": "event"
    },
    {
      "anonymous": false,
      "inputs": [
        {
          "indexed": true,
          "internalType": "address",
          "name": "previousOwner",
          "type": "address"
        },
        {
          "indexed": true,
          "internalType": "address",
          "name": "newOwner",
          "type": "address"
        }
      ],
      "name": "OwnershipTransferred",
      "type": "event"
    },
    {
      "anonymous": false,
      "inputs": [
        {
          "indexed": false,
          "internalType": "uint16",
          "name": "tokenId",
          "type": "uint16"
        }
      ],
      "name": "PackResultDecided",
      "type": "event"
    },
    {
      "anonymous": false,
      "inputs": [
        {
          "indexed": true,
          "internalType": "address",
          "name": "from",
          "type": "address"
        },
        {
          "indexed": true,
          "internalType": "address",
          "name": "to",
          "type": "address"
        },
        {
          "indexed": true,
          "internalType": "uint256",
          "name": "tokenId",
          "type": "uint256"
        }
      ],
      "name": "Transfer",
      "type": "event"
    },
    {
      "inputs": [
        {
          "internalType": "address",
          "name": "to",
          "type": "address"
        },
        {
          "internalType": "uint256",
          "name": "tokenId",
          "type": "uint256"
        }
      ],
      "name": "approve",
      "outputs": [],
      "stateMutability": "nonpayable",
      "type": "function"
    },
    {
      "inputs": [
        {
          "internalType": "address",
          "name": "owner",
          "type": "address"
        }
      ],
      "name": "balanceOf",
      "outputs": [
        {
          "internalType": "uint256",
          "name": "",
          "type": "uint256"
        }
      ],
      "stateMutability": "view",
      "type": "function",
      "constant": true
    },
    {
      "inputs": [
        {
          "internalType": "uint256",
          "name": "tokenId",
          "type": "uint256"
        }
      ],
      "name": "getApproved",
      "outputs": [
        {
          "internalType": "address",
          "name": "",
          "type": "address"
        }
      ],
      "stateMutability": "view",
      "type": "function",
      "constant": true
    },
    {
      "inputs": [
        {
          "internalType": "uint256",
          "name": "",
          "type": "uint256"
        }
      ],
      "name": "isOpened",
      "outputs": [
        {
          "internalType": "bool",
          "name": "",
          "type": "bool"
        }
      ],
      "stateMutability": "view",
      "type": "function",
      "constant": true
    },
    {
      "inputs": [
        {
          "internalType": "address",
          "name": "forwarder",
          "type": "address"
        }
      ],
      "name": "isTrustedForwarder",
      "outputs": [
        {
          "internalType": "bool",
          "name": "",
          "type": "bool"
        }
      ],
      "stateMutability": "view",
      "type": "function",
      "constant": true
    },
    {
      "inputs": [],
      "name": "maxMintAmt",
      "outputs": [
        {
          "internalType": "uint16",
          "name": "",
          "type": "uint16"
        }
      ],
      "stateMutability": "view",
      "type": "function",
      "constant": true
    },
    {
      "inputs": [],
      "name": "mintPrice",
      "outputs": [
        {
          "internalType": "uint256",
          "name": "",
          "type": "uint256"
        }
      ],
      "stateMutability": "view",
      "type": "function",
      "constant": true
    },
    {
      "inputs": [],
      "name": "name",
      "outputs": [
        {
          "internalType": "string",
          "name": "",
          "type": "string"
        }
      ],
      "stateMutability": "view",
      "type": "function",
      "constant": true
    },
    {
      "inputs": [],
      "name": "owner",
      "outputs": [
        {
          "internalType": "address",
          "name": "",
          "type": "address"
        }
      ],
      "stateMutability": "view",
      "type": "function",
      "constant": true
    },
    {
      "inputs": [
        {
          "internalType": "uint256",
          "name": "tokenId",
          "type": "uint256"
        }
      ],
      "name": "ownerOf",
      "outputs": [
        {
          "internalType": "address",
          "name": "",
          "type": "address"
        }
      ],
      "stateMutability": "view",
      "type": "function",
      "constant": true
    },
    {
      "inputs": [],
      "name": "renounceOwnership",
      "outputs": [],
      "stateMutability": "nonpayable",
      "type": "function"
    },
    {
      "inputs": [
        {
          "internalType": "address",
          "name": "from",
          "type": "address"
        },
        {
          "internalType": "address",
          "name": "to",
          "type": "address"
        },
        {
          "internalType": "uint256",
          "name": "tokenId",
          "type": "uint256"
        }
      ],
      "name": "safeTransferFrom",
      "outputs": [],
      "stateMutability": "nonpayable",
      "type": "function"
    },
    {
      "inputs": [
        {
          "internalType": "address",
          "name": "from",
          "type": "address"
        },
        {
          "internalType": "address",
          "name": "to",
          "type": "address"
        },
        {
          "internalType": "uint256",
          "name": "tokenId",
          "type": "uint256"
        },
        {
          "internalType": "bytes",
          "name": "_data",
          "type": "bytes"
        }
      ],
      "name": "safeTransferFrom",
      "outputs": [],
      "stateMutability": "nonpayable",
      "type": "function"
    },
    {
      "inputs": [
        {
          "internalType": "address",
          "name": "operator",
          "type": "address"
        },
        {
          "internalType": "bool",
          "name": "approved",
          "type": "bool"
        }
      ],
      "name": "setApprovalForAll",
      "outputs": [],
      "stateMutability": "nonpayable",
      "type": "function"
    },
    {
      "inputs": [
        {
          "internalType": "bytes4",
          "name": "interfaceId",
          "type": "bytes4"
        }
      ],
      "name": "supportsInterface",
      "outputs": [
        {
          "internalType": "bool",
          "name": "",
          "type": "bool"
        }
      ],
      "stateMutability": "view",
      "type": "function",
      "constant": true
    },
    {
      "inputs": [],
      "name": "symbol",
      "outputs": [
        {
          "internalType": "string",
          "name": "",
          "type": "string"
        }
      ],
      "stateMutability": "view",
      "type": "function",
      "constant": true
    },
    {
      "inputs": [
        {
          "internalType": "address",
          "name": "from",
          "type": "address"
        },
        {
          "internalType": "address",
          "name": "to",
          "type": "address"
        },
        {
          "internalType": "uint256",
          "name": "tokenId",
          "type": "uint256"
        }
      ],
      "name": "transferFrom",
      "outputs": [],
      "stateMutability": "nonpayable",
      "type": "function"
    },
    {
      "inputs": [
        {
          "internalType": "address",
          "name": "newOwner",
          "type": "address"
        }
      ],
      "name": "transferOwnership",
      "outputs": [],
      "stateMutability": "nonpayable",
      "type": "function"
    },
    {
      "inputs": [],
      "name": "trustedForwarder",
      "outputs": [
        {
          "internalType": "address",
          "name": "",
          "type": "address"
        }
      ],
      "stateMutability": "view",
      "type": "function",
      "constant": true
    },
    {
      "inputs": [],
      "name": "versionRecipient",
      "outputs": [
        {
          "internalType": "string",
          "name": "",
          "type": "string"
        }
      ],
      "stateMutability": "view",
      "type": "function",
      "constant": true
    },
    {
      "inputs": [
        {
          "internalType": "address",
          "name": "_forwarder",
          "type": "address"
        },
        {
          "internalType": "address payable",
          "name": "_treasury",
          "type": "address"
        },
        {
          "internalType": "string",
          "name": "_packURI",
          "type": "string"
        },
        {
          "internalType": "string",
          "name": "_openURI",
          "type": "string"
        }
      ],
      "name": "initialize",
      "outputs": [],
      "stateMutability": "nonpayable",
      "type": "function"
    },
    {
      "inputs": [
        {
          "internalType": "address",
          "name": "_forwarder",
          "type": "address"
        }
      ],
      "name": "setTrustedForwarder",
      "outputs": [],
      "stateMutability": "nonpayable",
      "type": "function"
    },
    {
      "inputs": [
        {
          "internalType": "uint16",
          "name": "_numMints",
          "type": "uint16"
        },
        {
          "internalType": "uint256",
          "name": "_mintPrice",
          "type": "uint256"
        },
        {
          "internalType": "string",
          "name": "_newUnrevealedBaseURI",
          "type": "string"
        },
        {
          "internalType": "string",
          "name": "_newRevealedBaseURI",
          "type": "string"
        }
      ],
      "name": "newDrop",
      "outputs": [],
      "stateMutability": "nonpayable",
      "type": "function"
    },
    {
      "inputs": [
        {
          "internalType": "address payable",
          "name": "_newTreasury",
          "type": "address"
        }
      ],
      "name": "setTreasury",
      "outputs": [],
      "stateMutability": "nonpayable",
      "type": "function"
    },
    {
      "inputs": [
        {
          "internalType": "address[]",
          "name": "addresses",
          "type": "address[]"
        },
        {
          "internalType": "uint8",
          "name": "numAllowedToMint",
          "type": "uint8"
        }
      ],
      "name": "setWhitelist",
      "outputs": [],
      "stateMutability": "nonpayable",
      "type": "function"
    },
    {
      "inputs": [
        {
          "internalType": "uint256[]",
          "name": "_hashedTokenIds",
          "type": "uint256[]"
        },
        {
          "internalType": "uint256",
          "name": "_minIndex",
          "type": "uint256"
        },
        {
          "internalType": "uint256",
          "name": "_maxIndex",
          "type": "uint256"
        }
      ],
      "name": "setHashedTokenIds",
      "outputs": [],
      "stateMutability": "nonpayable",
      "type": "function"
    },
    {
      "inputs": [
        {
          "internalType": "address",
          "name": "owner",
          "type": "address"
        },
        {
          "internalType": "address",
          "name": "operator",
          "type": "address"
        }
      ],
      "name": "isApprovedForAll",
      "outputs": [
        {
          "internalType": "bool",
          "name": "",
          "type": "bool"
        }
      ],
      "stateMutability": "view",
      "type": "function",
      "constant": true
    },
    {
      "inputs": [
        {
          "internalType": "address",
          "name": "_newAdmin",
          "type": "address"
        }
      ],
      "name": "addAdmin",
      "outputs": [],
      "stateMutability": "nonpayable",
      "type": "function"
    },
    {
      "inputs": [
        {
          "internalType": "address",
          "name": "_newAdmin",
          "type": "address"
        }
      ],
      "name": "removeAdmin",
      "outputs": [],
      "stateMutability": "nonpayable",
      "type": "function"
    },
    {
      "inputs": [
        {
          "internalType": "string",
          "name": "baseURI_",
          "type": "string"
        }
      ],
      "name": "setBaseURI",
      "outputs": [],
      "stateMutability": "nonpayable",
      "type": "function"
    },
    {
      "inputs": [
        {
          "internalType": "string",
          "name": "baseURI_",
          "type": "string"
        }
      ],
      "name": "setBaseURIOpened",
      "outputs": [],
      "stateMutability": "nonpayable",
      "type": "function"
    },
    {
      "inputs": [
        {
          "internalType": "uint256",
          "name": "tokenId",
          "type": "uint256"
        },
        {
          "internalType": "string",
          "name": "_tokenURI",
          "type": "string"
        }
      ],
      "name": "_setTokenURIAdmin",
      "outputs": [],
      "stateMutability": "nonpayable",
      "type": "function"
    },
    {
      "inputs": [
        {
          "internalType": "uint256",
          "name": "tokenId",
          "type": "uint256"
        }
      ],
      "name": "tokenURI",
      "outputs": [
        {
          "internalType": "string",
          "name": "",
          "type": "string"
        }
      ],
      "stateMutability": "view",
      "type": "function",
      "constant": true
    },
    {
      "inputs": [
        {
          "internalType": "address",
          "name": "_addr",
          "type": "address"
        }
      ],
      "name": "isAddressWhitelisted",
      "outputs": [
        {
          "internalType": "bool",
          "name": "",
          "type": "bool"
        }
      ],
      "stateMutability": "view",
      "type": "function",
      "constant": true
    },
    {
      "inputs": [
        {
          "internalType": "bool",
          "name": "_allowed",
          "type": "bool"
        }
      ],
      "name": "setWhitelistMinting",
      "outputs": [],
      "stateMutability": "nonpayable",
      "type": "function"
    },
    {
      "inputs": [
        {
          "internalType": "bool",
          "name": "_allowed",
          "type": "bool"
        }
      ],
      "name": "setPublicMinting",
      "outputs": [],
      "stateMutability": "nonpayable",
      "type": "function"
    },
    {
      "inputs": [],
      "name": "isWhitelistMintingEnabled",
      "outputs": [
        {
          "internalType": "bool",
          "name": "",
          "type": "bool"
        }
      ],
      "stateMutability": "view",
      "type": "function",
      "constant": true
    },
    {
      "inputs": [],
      "name": "isPublicMintingEnabled",
      "outputs": [
        {
          "internalType": "bool",
          "name": "",
          "type": "bool"
        }
      ],
      "stateMutability": "view",
      "type": "function",
      "constant": true
    },
    {
      "inputs": [
        {
          "internalType": "uint256",
          "name": "_newMintPrice",
          "type": "uint256"
        }
      ],
      "name": "setMintPrice",
      "outputs": [],
      "stateMutability": "nonpayable",
      "type": "function"
    },
    {
      "inputs": [
        {
          "internalType": "uint256[]",
          "name": "_tokenIds",
          "type": "uint256[]"
        },
        {
          "internalType": "address",
          "name": "_to",
          "type": "address"
        },
        {
          "internalType": "bool",
          "name": "opened",
          "type": "bool"
        }
      ],
      "name": "adminMint",
      "outputs": [],
      "stateMutability": "payable",
      "type": "function",
      "payable": true
    },
    {
      "inputs": [
        {
          "internalType": "uint8",
          "name": "_numMint",
          "type": "uint8"
        },
        {
          "internalType": "address",
          "name": "_to",
          "type": "address"
        }
      ],
      "name": "mint",
      "outputs": [],
      "stateMutability": "payable",
      "type": "function",
      "payable": true
    },
    {
      "inputs": [
        {
          "internalType": "uint8",
          "name": "_numMint",
          "type": "uint8"
        },
        {
          "internalType": "address",
          "name": "_to",
          "type": "address"
        }
      ],
      "name": "crossmintMint",
      "outputs": [],
      "stateMutability": "payable",
      "type": "function",
      "payable": true
    },
    {
      "inputs": [],
      "name": "allowOpening",
      "outputs": [],
      "stateMutability": "nonpayable",
      "type": "function"
    },
    {
      "inputs": [],
      "name": "freezeOpening",
      "outputs": [],
      "stateMutability": "nonpayable",
      "type": "function"
    },
    {
      "inputs": [],
      "name": "isOpeningUnlocked",
      "outputs": [
        {
          "internalType": "bool",
          "name": "",
          "type": "bool"
        }
      ],
      "stateMutability": "view",
      "type": "function",
      "constant": true
    },
    {
      "inputs": [
        {
          "internalType": "uint256",
          "name": "_tokenId",
          "type": "uint256"
        }
      ],
      "name": "isTokenOpeningUnlocked",
      "outputs": [
        {
          "internalType": "bool",
          "name": "",
          "type": "bool"
        }
      ],
      "stateMutability": "view",
      "type": "function",
      "constant": true
    },
    {
      "inputs": [
        {
          "internalType": "uint256",
          "name": "_tokenId",
          "type": "uint256"
        }
      ],
      "name": "open",
      "outputs": [],
      "stateMutability": "nonpayable",
      "type": "function"
    },
    {
      "inputs": [
        {
          "internalType": "uint256",
          "name": "_tokenId",
          "type": "uint256"
        },
        {
          "internalType": "address",
          "name": "_to",
          "type": "address"
        }
      ],
      "name": "openTo",
      "outputs": [],
      "stateMutability": "nonpayable",
      "type": "function"
    },
    {
      "inputs": [
        {
          "internalType": "uint256",
          "name": "tokenId",
          "type": "uint256"
        }
      ],
      "name": "burn",
      "outputs": [],
      "stateMutability": "nonpayable",
      "type": "function"
    }
  ],
  "bytecode": "0x6080604052600060ce60006101000a81548160ff021916908315150217905550600060ce60016101000a81548160ff0219169083151502179055506107d060d060006101000a81548161ffff021916908361ffff1602179055506702c68af0bb14000060d1556040518060400160405280600581526020017f322e322e3000000000000000000000000000000000000000000000000000000081525060d69080519060200190620000b2929190620000c7565b50348015620000c057600080fd5b50620001db565b828054620000d590620001a6565b90600052602060002090601f016020900481019282620000f9576000855562000145565b82601f106200011457805160ff191683800117855562000145565b8280016001018555821562000145579182015b828111156200014457825182559160200191906001019062000127565b5b50905062000154919062000158565b5090565b5b808211156200017357600081600090555060010162000159565b5090565b7f4e487b7100000000000000000000000000000000000000000000000000000000600052602260045260246000fd5b60006002820490506001821680620001bf57607f821691505b602082108103620001d557620001d462000177565b5b50919050565b615eb480620001eb6000396000f3fe6080604052600436106102ae5760003560e01c8063708950be116101755780639e080500116100dc578063d7e40acc11610095578063e985e9c51161006f578063e985e9c514610a53578063f0f4426014610a90578063f2fde38b14610ab9578063f4a0a52814610ae2576102ae565b8063d7e40acc146109e5578063da74222814610a01578063e3d6339e14610a2a576102ae565b80639e080500146108d7578063a22cb46514610902578063a53dc05f1461092b578063b88d4fde14610956578063c40542ec1461097f578063c87b56dd146109a8576102ae565b80638584f6361161012e5780638584f636146107ed57806387324e70146108185780638d2a703e1461082f5780638da5cb5b1461085857806395d89b411461088357806397495d71146108ae576102ae565b8063708950be1461071f57806370a0823114610736578063715018a6146107735780637bf75f6c1461078a5780637da0a877146107a65780637f36bf8d146107d1576102ae565b8063441f06ac116102195780635faf46bb116101d25780635faf46bb146105ff5780636352211e1461063c578063669e1087146106795780636817c76c146106a2578063690e7c09146106cd57806370480275146106f6576102ae565b8063441f06ac146104dd578063486ff0cd1461050857806355f804b314610533578063572b6c051461055c5780635aa8cf91146105995780635d589292146105c2576102ae565b80631785f53c1161026b5780631785f53c146103e75780632016a0d21461041057806323b872dd14610439578063254a47371461046257806342842e0e1461048b57806342966c68146104b4576102ae565b806301ffc9a7146102b357806306e9f54a146102f057806306fdde0314610319578063081812fc14610344578063095ea7b31461038157806313f44d10146103aa575b600080fd5b3480156102bf57600080fd5b506102da60048036038101906102d5919061416e565b610b0b565b6040516102e791906141b6565b60405180910390f35b3480156102fc57600080fd5b506103176004803603810190610312919061434d565b610bed565b005b34801561032557600080fd5b5061032e610cc5565b60405161033b9190614431565b60405180910390f35b34801561035057600080fd5b5061036b60048036038101906103669190614453565b610d57565b60405161037891906144c1565b60405180910390f35b34801561038d57600080fd5b506103a860048036038101906103a39190614508565b610ddc565b005b3480156103b657600080fd5b506103d160048036038101906103cc9190614548565b610ef3565b6040516103de91906141b6565b60405180910390f35b3480156103f357600080fd5b5061040e60048036038101906104099190614548565b610f4e565b005b34801561041c57600080fd5b50610437600480360381019061043291906145b3565b611025565b005b34801561044557600080fd5b50610460600480360381019061045b9190614652565b611168565b005b34801561046e57600080fd5b50610489600480360381019061048491906146d1565b6111c8565b005b34801561049757600080fd5b506104b260048036038101906104ad9190614652565b611261565b005b3480156104c057600080fd5b506104db60048036038101906104d69190614453565b611281565b005b3480156104e957600080fd5b506104f261128d565b6040516104ff91906141b6565b60405180910390f35b34801561051457600080fd5b5061051d6112a4565b60405161052a9190614431565b60405180910390f35b34801561053f57600080fd5b5061055a600480360381019061055591906146fe565b611332565b005b34801561056857600080fd5b50610583600480360381019061057e9190614548565b6113ca565b60405161059091906141b6565b60405180910390f35b3480156105a557600080fd5b506105c060048036038101906105bb919061480f565b611424565b005b3480156105ce57600080fd5b506105e960048036038101906105e49190614453565b61154b565b6040516105f691906141b6565b60405180910390f35b34801561060b57600080fd5b5061062660048036038101906106219190614453565b611588565b60405161063391906141b6565b60405180910390f35b34801561064857600080fd5b50610663600480360381019061065e9190614453565b6115a8565b60405161067091906144c1565b60405180910390f35b34801561068557600080fd5b506106a0600480360381019061069b91906148b8565b611659565b005b3480156106ae57600080fd5b506106b7611772565b6040516106c49190614966565b60405180910390f35b3480156106d957600080fd5b506106f460048036038101906106ef9190614453565b611778565b005b34801561070257600080fd5b5061071d60048036038101906107189190614548565b6118c9565b005b34801561072b57600080fd5b506107346119a0565b005b34801561074257600080fd5b5061075d60048036038101906107589190614548565b611a53565b60405161076a9190614966565b60405180910390f35b34801561077f57600080fd5b50610788611b0a565b005b6107a4600480360381019061079f91906149ba565b611b92565b005b3480156107b257600080fd5b506107bb611e49565b6040516107c891906144c1565b60405180910390f35b6107eb60048036038101906107e691906149ba565b611e73565b005b3480156107f957600080fd5b5061080261213c565b60405161080f91906141b6565b60405180910390f35b34801561082457600080fd5b5061082d612153565b005b34801561083b57600080fd5b50610856600480360381019061085191906149fa565b612206565b005b34801561086457600080fd5b5061086d61236a565b60405161087a91906144c1565b60405180910390f35b34801561088f57600080fd5b50610898612394565b6040516108a59190614431565b60405180910390f35b3480156108ba57600080fd5b506108d560048036038101906108d09190614a95565b612426565b005b3480156108e357600080fd5b506108ec612548565b6040516108f991906141b6565b60405180910390f35b34801561090e57600080fd5b5061092960048036038101906109249190614af5565b612579565b005b34801561093757600080fd5b5061094061258f565b60405161094d9190614b44565b60405180910390f35b34801561096257600080fd5b5061097d60048036038101906109789190614c00565b6125a3565b005b34801561098b57600080fd5b506109a660048036038101906109a191906146d1565b612605565b005b3480156109b457600080fd5b506109cf60048036038101906109ca9190614453565b61269e565b6040516109dc9190614431565b60405180910390f35b6109ff60048036038101906109fa9190614cd9565b61286d565b005b348015610a0d57600080fd5b50610a286004803603810190610a239190614548565b612a94565b005b348015610a3657600080fd5b50610a516004803603810190610a4c91906146fe565b612b1c565b005b348015610a5f57600080fd5b50610a7a6004803603810190610a759190614d4d565b612bb4565b604051610a8791906141b6565b60405180910390f35b348015610a9c57600080fd5b50610ab76004803603810190610ab29190614d8d565b612c2b565b005b348015610ac557600080fd5b50610ae06004803603810190610adb9190614548565b612ceb565b005b348015610aee57600080fd5b50610b096004803603810190610b049190614453565b612de2565b005b60007f80ac58cd000000000000000000000000000000000000000000000000000000007bffffffffffffffffffffffffffffffffffffffffffffffffffffffff1916827bffffffffffffffffffffffffffffffffffffffffffffffffffffffff19161480610bd657507f5b5e139f000000000000000000000000000000000000000000000000000000007bffffffffffffffffffffffffffffffffffffffffffffffffffffffff1916827bffffffffffffffffffffffffffffffffffffffffffffffffffffffff1916145b80610be65750610be582612e68565b5b9050919050565b6001151560d46000610bfd612ed2565b73ffffffffffffffffffffffffffffffffffffffff1673ffffffffffffffffffffffffffffffffffffffff16815260200190815260200160002060009054906101000a900460ff16151514610c5157600080fd5b610c5a82612ee1565b610c99576040517f08c379a0000000000000000000000000000000000000000000000000000000008152600401610c9090614e2c565b60405180910390fd5b8060d760008481526020019081526020016000209080519060200190610cc092919061405f565b505050565b606060658054610cd490614e7b565b80601f0160208091040260200160405190810160405280929190818152602001828054610d0090614e7b565b8015610d4d5780601f10610d2257610100808354040283529160200191610d4d565b820191906000526020600020905b815481529060010190602001808311610d3057829003601f168201915b5050505050905090565b6000610d6282612ee1565b610da1576040517f08c379a0000000000000000000000000000000000000000000000000000000008152600401610d9890614f1e565b60405180910390fd5b6069600083815260200190815260200160002060009054906101000a900473ffffffffffffffffffffffffffffffffffffffff169050919050565b6000610de7826115a8565b90508073ffffffffffffffffffffffffffffffffffffffff168373ffffffffffffffffffffffffffffffffffffffff1603610e57576040517f08c379a0000000000000000000000000000000000000000000000000000000008152600401610e4e90614fb0565b60405180910390fd5b8073ffffffffffffffffffffffffffffffffffffffff16610e76612ed2565b73ffffffffffffffffffffffffffffffffffffffff161480610ea55750610ea481610e9f612ed2565b612bb4565b5b610ee4576040517f08c379a0000000000000000000000000000000000000000000000000000000008152600401610edb90615042565b60405180910390fd5b610eee8383612f4d565b505050565b60008060cf60008473ffffffffffffffffffffffffffffffffffffffff1673ffffffffffffffffffffffffffffffffffffffff16815260200190815260200160002060009054906101000a900460ff1660ff16119050919050565b610f56612ed2565b73ffffffffffffffffffffffffffffffffffffffff16610f7461236a565b73ffffffffffffffffffffffffffffffffffffffff1614610fca576040517f08c379a0000000000000000000000000000000000000000000000000000000008152600401610fc1906150ae565b60405180910390fd5b600060d460008373ffffffffffffffffffffffffffffffffffffffff1673ffffffffffffffffffffffffffffffffffffffff16815260200190815260200160002060006101000a81548160ff02191690831515021790555050565b60006110316001613006565b90508015611055576001600060016101000a81548160ff0219169083151502179055505b61105e856130f6565b61106860cb61313a565b600061107460cb613150565b90508360d86000838152602001908152602001600020908051906020019061109d92919061405f565b508260d9600083815260200190815260200160002090805190602001906110c592919061405f565b508460d560006101000a81548173ffffffffffffffffffffffffffffffffffffffff021916908373ffffffffffffffffffffffffffffffffffffffff1602179055505080156111615760008060016101000a81548160ff0219169083151502179055507f7f26b83ff96e1f2b6a682f133852f6798a09c465da95921460cefb384740249860016040516111589190615113565b60405180910390a15b5050505050565b611179611173612ed2565b8261315e565b6111b8576040517f08c379a00000000000000000000000000000000000000000000000000000000081526004016111af906151a0565b60405180910390fd5b6111c383838361323c565b505050565b6111d0612ed2565b73ffffffffffffffffffffffffffffffffffffffff166111ee61236a565b73ffffffffffffffffffffffffffffffffffffffff1614611244576040517f08c379a000000000000000000000000000000000000000000000000000000000815260040161123b906150ae565b60405180910390fd5b8060ce60016101000a81548160ff02191690831515021790555050565b61127c838383604051806020016040528060008152506125a3565b505050565b61128a816134a2565b50565b600060ce60019054906101000a900460ff16905090565b60d680546112b190614e7b565b80601f01602080910402602001604051908101604052809291908181526020018280546112dd90614e7b565b801561132a5780601f106112ff5761010080835404028352916020019161132a565b820191906000526020600020905b81548152906001019060200180831161130d57829003601f168201915b505050505081565b6001151560d46000611342612ed2565b73ffffffffffffffffffffffffffffffffffffffff1673ffffffffffffffffffffffffffffffffffffffff16815260200190815260200160002060009054906101000a900460ff1615151461139657600080fd5b8060d860006113a560cb613150565b815260200190815260200160002090805190602001906113c692919061405f565b5050565b600060c960009054906101000a900473ffffffffffffffffffffffffffffffffffffffff1673ffffffffffffffffffffffffffffffffffffffff168273ffffffffffffffffffffffffffffffffffffffff16149050919050565b61142c612ed2565b73ffffffffffffffffffffffffffffffffffffffff1661144a61236a565b73ffffffffffffffffffffffffffffffffffffffff16146114a0576040517f08c379a0000000000000000000000000000000000000000000000000000000008152600401611497906150ae565b60405180910390fd5b60008290505b81811161154557836001826114bb91906151ef565b815181106114cc576114cb615223565b5b602002602001015160d36000838152602001908152602001600020819055506114f560cb613150565b60cc60008660018561150791906151ef565b8151811061151857611517615223565b5b6020026020010151815260200190815260200160002081905550808061153d90615252565b9150506114a6565b50505050565b600060cd600060cc600085815260200190815260200160002054815260200190815260200160002060009054906101000a900460ff169050919050565b60d26020528060005260406000206000915054906101000a900460ff1681565b6000806067600084815260200190815260200160002060009054906101000a900473ffffffffffffffffffffffffffffffffffffffff169050600073ffffffffffffffffffffffffffffffffffffffff168173ffffffffffffffffffffffffffffffffffffffff1603611650576040517f08c379a00000000000000000000000000000000000000000000000000000000081526004016116479061530c565b60405180910390fd5b80915050919050565b611661612ed2565b73ffffffffffffffffffffffffffffffffffffffff1661167f61236a565b73ffffffffffffffffffffffffffffffffffffffff16146116d5576040517f08c379a00000000000000000000000000000000000000000000000000000000081526004016116cc906150ae565b60405180910390fd5b6116df60ca6135bf565b8360d060006101000a81548161ffff021916908361ffff16021790555061170660cb61313a565b600061171260cb613150565b90508260d86000838152602001908152602001600020908051906020019061173b92919061405f565b508160d96000838152602001908152602001600020908051906020019061176392919061405f565b508360d1819055505050505050565b60d15481565b6000611783826115a8565b73ffffffffffffffffffffffffffffffffffffffff166117a1612ed2565b73ffffffffffffffffffffffffffffffffffffffff1614806117d857506117d76117ca836115a8565b6117d2612ed2565b612bb4565b5b90508061181a576040517f08c379a000000000000000000000000000000000000000000000000000000000815260040161181190615378565b60405180910390fd5b6118238261154b565b611862576040517f08c379a0000000000000000000000000000000000000000000000000000000008152600401611859906153e4565b60405180910390fd5b600160d2600084815260200190815260200160002060006101000a81548160ff0219169083151502179055507f9648cf7f2eb86b564ae3c4a466bc03e87267933667490eb8737a5a3f2a9b284d826040516118bd9190614966565b60405180910390a15050565b6118d1612ed2565b73ffffffffffffffffffffffffffffffffffffffff166118ef61236a565b73ffffffffffffffffffffffffffffffffffffffff1614611945576040517f08c379a000000000000000000000000000000000000000000000000000000000815260040161193c906150ae565b60405180910390fd5b600160d460008373ffffffffffffffffffffffffffffffffffffffff1673ffffffffffffffffffffffffffffffffffffffff16815260200190815260200160002060006101000a81548160ff02191690831515021790555050565b6119a8612ed2565b73ffffffffffffffffffffffffffffffffffffffff166119c661236a565b73ffffffffffffffffffffffffffffffffffffffff1614611a1c576040517f08c379a0000000000000000000000000000000000000000000000000000000008152600401611a13906150ae565b60405180910390fd5b600160cd6000611a2c60cb613150565b815260200190815260200160002060006101000a81548160ff021916908315150217905550565b60008073ffffffffffffffffffffffffffffffffffffffff168273ffffffffffffffffffffffffffffffffffffffff1603611ac3576040517f08c379a0000000000000000000000000000000000000000000000000000000008152600401611aba90615476565b60405180910390fd5b606860008373ffffffffffffffffffffffffffffffffffffffff1673ffffffffffffffffffffffffffffffffffffffff168152602001908152602001600020549050919050565b611b12612ed2565b73ffffffffffffffffffffffffffffffffffffffff16611b3061236a565b73ffffffffffffffffffffffffffffffffffffffff1614611b86576040517f08c379a0000000000000000000000000000000000000000000000000000000008152600401611b7d906150ae565b60405180910390fd5b611b9060006135cc565b565b60d060009054906101000a900461ffff1661ffff168260ff16611bb560ca613150565b611bbf9190615496565b1115611c00576040517f08c379a0000000000000000000000000000000000000000000000000000000008152600401611bf79061555e565b60405180910390fd5b60ce60009054906101000a900460ff168015611c6b5750600060cf60008373ffffffffffffffffffffffffffffffffffffffff1673ffffffffffffffffffffffffffffffffffffffff16815260200190815260200160002060009054906101000a900460ff1660ff16115b80611c82575060ce60019054906101000a900460ff165b611cc1576040517f08c379a0000000000000000000000000000000000000000000000000000000008152600401611cb8906155f0565b60405180910390fd5b60008260ff1603611d07576040517f08c379a0000000000000000000000000000000000000000000000000000000008152600401611cfe9061565c565b60405180910390fd5b3460d1548360ff16611d19919061567c565b14611d59576040517f08c379a0000000000000000000000000000000000000000000000000000000008152600401611d5090615748565b60405180910390fd5b60d560009054906101000a900473ffffffffffffffffffffffffffffffffffffffff1673ffffffffffffffffffffffffffffffffffffffff166108fc349081150290604051600060405180830381858888f19350505050158015611dc1573d6000803e3d6000fd5b5060005b8260ff16811015611e4457611dda60ca61313a565b6000611de660ca613150565b90506000611df382613692565b9050611e128460d36000858152602001908152602001600020546137f2565b611e2f60d360008481526020019081526020016000205482613810565b50508080611e3c90615252565b915050611dc5565b505050565b600060c960009054906101000a900473ffffffffffffffffffffffffffffffffffffffff16905090565b60d060009054906101000a900461ffff1661ffff168260ff16611e9660ca613150565b611ea09190615496565b1115611ee1576040517f08c379a0000000000000000000000000000000000000000000000000000000008152600401611ed89061555e565b60405180910390fd5b60ce60009054906101000a900460ff168015611f4c5750600060cf60008373ffffffffffffffffffffffffffffffffffffffff1673ffffffffffffffffffffffffffffffffffffffff16815260200190815260200160002060009054906101000a900460ff1660ff16115b80611f63575060ce60019054906101000a900460ff165b611fa2576040517f08c379a0000000000000000000000000000000000000000000000000000000008152600401611f99906155f0565b60405180910390fd5b60008260ff1603611fe8576040517f08c379a0000000000000000000000000000000000000000000000000000000008152600401611fdf9061565c565b60405180910390fd5b34611ff1613884565b60d154611ffe9190615496565b8360ff1661200c919061567c565b1461204c576040517f08c379a000000000000000000000000000000000000000000000000000000000815260040161204390615748565b60405180910390fd5b60d560009054906101000a900473ffffffffffffffffffffffffffffffffffffffff1673ffffffffffffffffffffffffffffffffffffffff166108fc349081150290604051600060405180830381858888f193505050501580156120b4573d6000803e3d6000fd5b5060005b8260ff16811015612137576120cd60ca61313a565b60006120d960ca613150565b905060006120e682613692565b90506121058460d36000858152602001908152602001600020546137f2565b61212260d360008481526020019081526020016000205482613810565b5050808061212f90615252565b9150506120b8565b505050565b600060ce60009054906101000a900460ff16905090565b61215b612ed2565b73ffffffffffffffffffffffffffffffffffffffff1661217961236a565b73ffffffffffffffffffffffffffffffffffffffff16146121cf576040517f08c379a00000000000000000000000000000000000000000000000000000000081526004016121c6906150ae565b60405180910390fd5b600060cd60006121df60cb613150565b815260200190815260200160002060006101000a81548160ff021916908315150217905550565b6000612211836115a8565b73ffffffffffffffffffffffffffffffffffffffff1661222f612ed2565b73ffffffffffffffffffffffffffffffffffffffff1614806122665750612265612258846115a8565b612260612ed2565b612bb4565b5b9050806122a8576040517f08c379a000000000000000000000000000000000000000000000000000000000815260040161229f90615378565b60405180910390fd5b6122b18361154b565b6122f0576040517f08c379a00000000000000000000000000000000000000000000000000000000081526004016122e7906153e4565b60405180910390fd5b600160d2600085815260200190815260200160002060006101000a81548160ff02191690831515021790555061232e612327612ed2565b8385611261565b7f9648cf7f2eb86b564ae3c4a466bc03e87267933667490eb8737a5a3f2a9b284d8360405161235d9190614966565b60405180910390a1505050565b6000609760009054906101000a900473ffffffffffffffffffffffffffffffffffffffff16905090565b6060606680546123a390614e7b565b80601f01602080910402602001604051908101604052809291908181526020018280546123cf90614e7b565b801561241c5780601f106123f15761010080835404028352916020019161241c565b820191906000526020600020905b8154815290600101906020018083116123ff57829003601f168201915b5050505050905090565b61242e612ed2565b73ffffffffffffffffffffffffffffffffffffffff1661244c61236a565b73ffffffffffffffffffffffffffffffffffffffff16146124a2576040517f08c379a0000000000000000000000000000000000000000000000000000000008152600401612499906150ae565b60405180910390fd5b60005b83839050811015612542578160cf60008686858181106124c8576124c7615223565b5b90506020020160208101906124dd9190614548565b73ffffffffffffffffffffffffffffffffffffffff1673ffffffffffffffffffffffffffffffffffffffff16815260200190815260200160002060006101000a81548160ff021916908360ff160217905550808061253a90615252565b9150506124a5565b50505050565b600060cd600061255860cb613150565b815260200190815260200160002060009054906101000a900460ff16905090565b61258b612584612ed2565b838361389a565b5050565b60d060009054906101000a900461ffff1681565b6125b46125ae612ed2565b8361315e565b6125f3576040517f08c379a00000000000000000000000000000000000000000000000000000000081526004016125ea906151a0565b60405180910390fd5b6125ff84848484613a06565b50505050565b61260d612ed2565b73ffffffffffffffffffffffffffffffffffffffff1661262b61236a565b73ffffffffffffffffffffffffffffffffffffffff1614612681576040517f08c379a0000000000000000000000000000000000000000000000000000000008152600401612678906150ae565b60405180910390fd5b8060ce60006101000a81548160ff02191690831515021790555050565b60606126a982612ee1565b6126e8576040517f08c379a00000000000000000000000000000000000000000000000000000000081526004016126df906157da565b60405180910390fd5b60608060d2600085815260200190815260200160002060009054906101000a900460ff16156127345761272d60cc600086815260200190815260200160002054613a62565b90506127f1565b61275060cc600086815260200190815260200160002054613b07565b905060d76000858152602001908152602001600020805461277090614e7b565b80601f016020809104026020016040519081016040528092919081815260200182805461279c90614e7b565b80156127e95780601f106127be576101008083540402835291602001916127e9565b820191906000526020600020905b8154815290600101906020018083116127cc57829003601f168201915b505050505091505b6000815103612804578192505050612868565b600082511115612839578082604051602001612821929190615836565b60405160208183030381529060405292505050612868565b8061284385613692565b604051602001612854929190615836565b604051602081830303815290604052925050505b919050565b6001151560d4600061287d612ed2565b73ffffffffffffffffffffffffffffffffffffffff1673ffffffffffffffffffffffffffffffffffffffff16815260200190815260200160002060009054906101000a900460ff161515146128d157600080fd5b60008484905003612917576040517f08c379a000000000000000000000000000000000000000000000000000000000815260040161290e9061565c565b60405180910390fd5b3460d15485859050612929919061567c565b14612969576040517f08c379a000000000000000000000000000000000000000000000000000000000815260040161296090615748565b60405180910390fd5b60d560009054906101000a900473ffffffffffffffffffffffffffffffffffffffff1673ffffffffffffffffffffffffffffffffffffffff166108fc349081150290604051600060405180830381858888f193505050501580156129d1573d6000803e3d6000fd5b5060005b84849050811015612a8d5760008585838181106129f5576129f4615223565b5b9050602002013590508215612a3157600160d2600083815260200190815260200160002060006101000a81548160ff0219169083151502179055505b6000612a3c82613692565b9050612a5b8560d36000858152602001908152602001600020546137f2565b612a7860d360008481526020019081526020016000205482613810565b50508080612a8590615252565b9150506129d5565b5050505050565b612a9c612ed2565b73ffffffffffffffffffffffffffffffffffffffff16612aba61236a565b73ffffffffffffffffffffffffffffffffffffffff1614612b10576040517f08c379a0000000000000000000000000000000000000000000000000000000008152600401612b07906150ae565b60405180910390fd5b612b19816130f6565b50565b6001151560d46000612b2c612ed2565b73ffffffffffffffffffffffffffffffffffffffff1673ffffffffffffffffffffffffffffffffffffffff16815260200190815260200160002060009054906101000a900460ff16151514612b8057600080fd5b8060d96000612b8f60cb613150565b81526020019081526020016000209080519060200190612bb092919061405f565b5050565b600060d46000612bc2612ed2565b73ffffffffffffffffffffffffffffffffffffffff1673ffffffffffffffffffffffffffffffffffffffff16815260200190815260200160002060009054906101000a900460ff1615612c185760019050612c25565b612c228383613bac565b90505b92915050565b612c33612ed2565b73ffffffffffffffffffffffffffffffffffffffff16612c5161236a565b73ffffffffffffffffffffffffffffffffffffffff1614612ca7576040517f08c379a0000000000000000000000000000000000000000000000000000000008152600401612c9e906150ae565b60405180910390fd5b8060d560006101000a81548173ffffffffffffffffffffffffffffffffffffffff021916908373ffffffffffffffffffffffffffffffffffffffff16021790555050565b612cf3612ed2565b73ffffffffffffffffffffffffffffffffffffffff16612d1161236a565b73ffffffffffffffffffffffffffffffffffffffff1614612d67576040517f08c379a0000000000000000000000000000000000000000000000000000000008152600401612d5e906150ae565b60405180910390fd5b600073ffffffffffffffffffffffffffffffffffffffff168173ffffffffffffffffffffffffffffffffffffffff1603612dd6576040517f08c379a0000000000000000000000000000000000000000000000000000000008152600401612dcd906158cc565b60405180910390fd5b612ddf816135cc565b50565b612dea612ed2565b73ffffffffffffffffffffffffffffffffffffffff16612e0861236a565b73ffffffffffffffffffffffffffffffffffffffff1614612e5e576040517f08c379a0000000000000000000000000000000000000000000000000000000008152600401612e55906150ae565b60405180910390fd5b8060d18190555050565b60007f01ffc9a7000000000000000000000000000000000000000000000000000000007bffffffffffffffffffffffffffffffffffffffffffffffffffffffff1916827bffffffffffffffffffffffffffffffffffffffffffffffffffffffff1916149050919050565b6000612edc613c40565b905090565b60008073ffffffffffffffffffffffffffffffffffffffff166067600084815260200190815260200160002060009054906101000a900473ffffffffffffffffffffffffffffffffffffffff1673ffffffffffffffffffffffffffffffffffffffff1614159050919050565b816069600083815260200190815260200160002060006101000a81548173ffffffffffffffffffffffffffffffffffffffff021916908373ffffffffffffffffffffffffffffffffffffffff160217905550808273ffffffffffffffffffffffffffffffffffffffff16612fc0836115a8565b73ffffffffffffffffffffffffffffffffffffffff167f8c5be1e5ebec7d5bd14f71427d1e84f3dd0314c0f7b2291e5b200ac8c7c3b92560405160405180910390a45050565b60008060019054906101000a900460ff161561307d5760018260ff16148015613035575061303330613c77565b155b613074576040517f08c379a000000000000000000000000000000000000000000000000000000000815260040161306b9061595e565b60405180910390fd5b600090506130f1565b8160ff1660008054906101000a900460ff1660ff16106130d2576040517f08c379a00000000000000000000000000000000000000000000000000000000081526004016130c99061595e565b60405180910390fd5b816000806101000a81548160ff021916908360ff160217905550600190505b919050565b8060c960006101000a81548173ffffffffffffffffffffffffffffffffffffffff021916908373ffffffffffffffffffffffffffffffffffffffff16021790555050565b6001816000016000828254019250508190555050565b600081600001549050919050565b600061316982612ee1565b6131a8576040517f08c379a000000000000000000000000000000000000000000000000000000000815260040161319f906159f0565b60405180910390fd5b60006131b3836115a8565b90508073ffffffffffffffffffffffffffffffffffffffff168473ffffffffffffffffffffffffffffffffffffffff1614806131f557506131f48185612bb4565b5b8061323357508373ffffffffffffffffffffffffffffffffffffffff1661321b84610d57565b73ffffffffffffffffffffffffffffffffffffffff16145b91505092915050565b8273ffffffffffffffffffffffffffffffffffffffff1661325c826115a8565b73ffffffffffffffffffffffffffffffffffffffff16146132b2576040517f08c379a00000000000000000000000000000000000000000000000000000000081526004016132a990615a82565b60405180910390fd5b600073ffffffffffffffffffffffffffffffffffffffff168273ffffffffffffffffffffffffffffffffffffffff1603613321576040517f08c379a000000000000000000000000000000000000000000000000000000000815260040161331890615b14565b60405180910390fd5b61332c838383613c9a565b613337600082612f4d565b6001606860008573ffffffffffffffffffffffffffffffffffffffff1673ffffffffffffffffffffffffffffffffffffffff168152602001908152602001600020600082825461338791906151ef565b925050819055506001606860008473ffffffffffffffffffffffffffffffffffffffff1673ffffffffffffffffffffffffffffffffffffffff16815260200190815260200160002060008282546133de9190615496565b92505081905550816067600083815260200190815260200160002060006101000a81548173ffffffffffffffffffffffffffffffffffffffff021916908373ffffffffffffffffffffffffffffffffffffffff160217905550808273ffffffffffffffffffffffffffffffffffffffff168473ffffffffffffffffffffffffffffffffffffffff167fddf252ad1be2c89b69c2b068fc378daa952ba7f163c4a11628f55a4df523b3ef60405160405180910390a461349d838383613c9f565b505050565b60006134ad826115a8565b90506134bb81600084613c9a565b6134c6600083612f4d565b6001606860008373ffffffffffffffffffffffffffffffffffffffff1673ffffffffffffffffffffffffffffffffffffffff168152602001908152602001600020600082825461351691906151ef565b925050819055506067600083815260200190815260200160002060006101000a81549073ffffffffffffffffffffffffffffffffffffffff021916905581600073ffffffffffffffffffffffffffffffffffffffff168273ffffffffffffffffffffffffffffffffffffffff167fddf252ad1be2c89b69c2b068fc378daa952ba7f163c4a11628f55a4df523b3ef60405160405180910390a46135bb81600084613c9f565b5050565b6000816000018190555050565b6000609760009054906101000a900473ffffffffffffffffffffffffffffffffffffffff16905081609760006101000a81548173ffffffffffffffffffffffffffffffffffffffff021916908373ffffffffffffffffffffffffffffffffffffffff1602179055508173ffffffffffffffffffffffffffffffffffffffff168173ffffffffffffffffffffffffffffffffffffffff167f8be0079c531659141344cd1fd0a4f28419497f9722a3daafe3b4186f6b6457e060405160405180910390a35050565b6060600082036136d9576040518060400160405280600181526020017f300000000000000000000000000000000000000000000000000000000000000081525090506137ed565b600082905060005b6000821461370b5780806136f490615252565b915050600a826137049190615b63565b91506136e1565b60008167ffffffffffffffff81111561372757613726614222565b5b6040519080825280601f01601f1916602001820160405280156137595781602001600182028036833780820191505090505b5090505b600085146137e65760018261377291906151ef565b9150600a856137819190615b94565b603061378d9190615496565b60f81b8183815181106137a3576137a2615223565b5b60200101907effffffffffffffffffffffffffffffffffffffffffffffffffffffffffffff1916908160001a905350600a856137df9190615b63565b945061375d565b8093505050505b919050565b61380c828260405180602001604052806000815250613ca4565b5050565b61381982612ee1565b613858576040517f08c379a000000000000000000000000000000000000000000000000000000000815260040161384f90614e2c565b60405180910390fd5b8060d76000848152602001908152602001600020908051906020019061387f92919061405f565b505050565b6000600860d1546138959190615b63565b905090565b8173ffffffffffffffffffffffffffffffffffffffff168373ffffffffffffffffffffffffffffffffffffffff1603613908576040517f08c379a00000000000000000000000000000000000000000000000000000000081526004016138ff90615c11565b60405180910390fd5b80606a60008573ffffffffffffffffffffffffffffffffffffffff1673ffffffffffffffffffffffffffffffffffffffff16815260200190815260200160002060008473ffffffffffffffffffffffffffffffffffffffff1673ffffffffffffffffffffffffffffffffffffffff16815260200190815260200160002060006101000a81548160ff0219169083151502179055508173ffffffffffffffffffffffffffffffffffffffff168373ffffffffffffffffffffffffffffffffffffffff167f17307eab39ab6107e8899845ad3d59bd9653f200f220920489ca2b5937696c31836040516139f991906141b6565b60405180910390a3505050565b613a1184848461323c565b613a1d84848484613cff565b613a5c576040517f08c379a0000000000000000000000000000000000000000000000000000000008152600401613a5390615ca3565b60405180910390fd5b50505050565b606060d960008381526020019081526020016000208054613a8290614e7b565b80601f0160208091040260200160405190810160405280929190818152602001828054613aae90614e7b565b8015613afb5780601f10613ad057610100808354040283529160200191613afb565b820191906000526020600020905b815481529060010190602001808311613ade57829003601f168201915b50505050509050919050565b606060d860008381526020019081526020016000208054613b2790614e7b565b80601f0160208091040260200160405190810160405280929190818152602001828054613b5390614e7b565b8015613ba05780601f10613b7557610100808354040283529160200191613ba0565b820191906000526020600020905b815481529060010190602001808311613b8357829003601f168201915b50505050509050919050565b6000606a60008473ffffffffffffffffffffffffffffffffffffffff1673ffffffffffffffffffffffffffffffffffffffff16815260200190815260200160002060008373ffffffffffffffffffffffffffffffffffffffff1673ffffffffffffffffffffffffffffffffffffffff16815260200190815260200160002060009054906101000a900460ff16905092915050565b60006014600036905010158015613c5c5750613c5b336113ca565b5b15613c7057601436033560601c9050613c74565b3390505b90565b6000808273ffffffffffffffffffffffffffffffffffffffff163b119050919050565b505050565b505050565b613cae8383613e86565b613cbb6000848484613cff565b613cfa576040517f08c379a0000000000000000000000000000000000000000000000000000000008152600401613cf190615ca3565b60405180910390fd5b505050565b6000613d208473ffffffffffffffffffffffffffffffffffffffff16613c77565b15613e79578373ffffffffffffffffffffffffffffffffffffffff1663150b7a02613d49612ed2565b8786866040518563ffffffff1660e01b8152600401613d6b9493929190615d18565b6020604051808303816000875af1925050508015613da757506040513d601f19601f82011682018060405250810190613da49190615d79565b60015b613e29573d8060008114613dd7576040519150601f19603f3d011682016040523d82523d6000602084013e613ddc565b606091505b506000815103613e21576040517f08c379a0000000000000000000000000000000000000000000000000000000008152600401613e1890615ca3565b60405180910390fd5b805181602001fd5b63150b7a0260e01b7bffffffffffffffffffffffffffffffffffffffffffffffffffffffff1916817bffffffffffffffffffffffffffffffffffffffffffffffffffffffff191614915050613e7e565b600190505b949350505050565b600073ffffffffffffffffffffffffffffffffffffffff168273ffffffffffffffffffffffffffffffffffffffff1603613ef5576040517f08c379a0000000000000000000000000000000000000000000000000000000008152600401613eec90615df2565b60405180910390fd5b613efe81612ee1565b15613f3e576040517f08c379a0000000000000000000000000000000000000000000000000000000008152600401613f3590615e5e565b60405180910390fd5b613f4a60008383613c9a565b6001606860008473ffffffffffffffffffffffffffffffffffffffff1673ffffffffffffffffffffffffffffffffffffffff1681526020019081526020016000206000828254613f9a9190615496565b92505081905550816067600083815260200190815260200160002060006101000a81548173ffffffffffffffffffffffffffffffffffffffff021916908373ffffffffffffffffffffffffffffffffffffffff160217905550808273ffffffffffffffffffffffffffffffffffffffff16600073ffffffffffffffffffffffffffffffffffffffff167fddf252ad1be2c89b69c2b068fc378daa952ba7f163c4a11628f55a4df523b3ef60405160405180910390a461405b60008383613c9f565b5050565b82805461406b90614e7b565b90600052602060002090601f01602090048101928261408d57600085556140d4565b82601f106140a657805160ff19168380011785556140d4565b828001600101855582156140d4579182015b828111156140d35782518255916020019190600101906140b8565b5b5090506140e191906140e5565b5090565b5b808211156140fe5760008160009055506001016140e6565b5090565b6000604051905090565b600080fd5b600080fd5b60007fffffffff0000000000000000000000000000000000000000000000000000000082169050919050565b61414b81614116565b811461415657600080fd5b50565b60008135905061416881614142565b92915050565b6000602082840312156141845761418361410c565b5b600061419284828501614159565b91505092915050565b60008115159050919050565b6141b08161419b565b82525050565b60006020820190506141cb60008301846141a7565b92915050565b6000819050919050565b6141e4816141d1565b81146141ef57600080fd5b50565b600081359050614201816141db565b92915050565b600080fd5b600080fd5b6000601f19601f8301169050919050565b7f4e487b7100000000000000000000000000000000000000000000000000000000600052604160045260246000fd5b61425a82614211565b810181811067ffffffffffffffff8211171561427957614278614222565b5b80604052505050565b600061428c614102565b90506142988282614251565b919050565b600067ffffffffffffffff8211156142b8576142b7614222565b5b6142c182614211565b9050602081019050919050565b82818337600083830152505050565b60006142f06142eb8461429d565b614282565b90508281526020810184848401111561430c5761430b61420c565b5b6143178482856142ce565b509392505050565b600082601f83011261433457614333614207565b5b81356143448482602086016142dd565b91505092915050565b600080604083850312156143645761436361410c565b5b6000614372858286016141f2565b925050602083013567ffffffffffffffff81111561439357614392614111565b5b61439f8582860161431f565b9150509250929050565b600081519050919050565b600082825260208201905092915050565b60005b838110156143e35780820151818401526020810190506143c8565b838111156143f2576000848401525b50505050565b6000614403826143a9565b61440d81856143b4565b935061441d8185602086016143c5565b61442681614211565b840191505092915050565b6000602082019050818103600083015261444b81846143f8565b905092915050565b6000602082840312156144695761446861410c565b5b6000614477848285016141f2565b91505092915050565b600073ffffffffffffffffffffffffffffffffffffffff82169050919050565b60006144ab82614480565b9050919050565b6144bb816144a0565b82525050565b60006020820190506144d660008301846144b2565b92915050565b6144e5816144a0565b81146144f057600080fd5b50565b600081359050614502816144dc565b92915050565b6000806040838503121561451f5761451e61410c565b5b600061452d858286016144f3565b925050602061453e858286016141f2565b9150509250929050565b60006020828403121561455e5761455d61410c565b5b600061456c848285016144f3565b91505092915050565b600061458082614480565b9050919050565b61459081614575565b811461459b57600080fd5b50565b6000813590506145ad81614587565b92915050565b600080600080608085870312156145cd576145cc61410c565b5b60006145db878288016144f3565b94505060206145ec8782880161459e565b935050604085013567ffffffffffffffff81111561460d5761460c614111565b5b6146198782880161431f565b925050606085013567ffffffffffffffff81111561463a57614639614111565b5b6146468782880161431f565b91505092959194509250565b60008060006060848603121561466b5761466a61410c565b5b6000614679868287016144f3565b935050602061468a868287016144f3565b925050604061469b868287016141f2565b9150509250925092565b6146ae8161419b565b81146146b957600080fd5b50565b6000813590506146cb816146a5565b92915050565b6000602082840312156146e7576146e661410c565b5b60006146f5848285016146bc565b91505092915050565b6000602082840312156147145761471361410c565b5b600082013567ffffffffffffffff81111561473257614731614111565b5b61473e8482850161431f565b91505092915050565b600067ffffffffffffffff82111561476257614761614222565b5b602082029050602081019050919050565b600080fd5b600061478b61478684614747565b614282565b905080838252602082019050602084028301858111156147ae576147ad614773565b5b835b818110156147d757806147c388826141f2565b8452602084019350506020810190506147b0565b5050509392505050565b600082601f8301126147f6576147f5614207565b5b8135614806848260208601614778565b91505092915050565b6000806000606084860312156148285761482761410c565b5b600084013567ffffffffffffffff81111561484657614845614111565b5b614852868287016147e1565b9350506020614863868287016141f2565b9250506040614874868287016141f2565b9150509250925092565b600061ffff82169050919050565b6148958161487e565b81146148a057600080fd5b50565b6000813590506148b28161488c565b92915050565b600080600080608085870312156148d2576148d161410c565b5b60006148e0878288016148a3565b94505060206148f1878288016141f2565b935050604085013567ffffffffffffffff81111561491257614911614111565b5b61491e8782880161431f565b925050606085013567ffffffffffffffff81111561493f5761493e614111565b5b61494b8782880161431f565b91505092959194509250565b614960816141d1565b82525050565b600060208201905061497b6000830184614957565b92915050565b600060ff82169050919050565b61499781614981565b81146149a257600080fd5b50565b6000813590506149b48161498e565b92915050565b600080604083850312156149d1576149d061410c565b5b60006149df858286016149a5565b92505060206149f0858286016144f3565b9150509250929050565b60008060408385031215614a1157614a1061410c565b5b6000614a1f858286016141f2565b9250506020614a30858286016144f3565b9150509250929050565b600080fd5b60008083601f840112614a5557614a54614207565b5b8235905067ffffffffffffffff811115614a7257614a71614a3a565b5b602083019150836020820283011115614a8e57614a8d614773565b5b9250929050565b600080600060408486031215614aae57614aad61410c565b5b600084013567ffffffffffffffff811115614acc57614acb614111565b5b614ad886828701614a3f565b93509350506020614aeb868287016149a5565b9150509250925092565b60008060408385031215614b0c57614b0b61410c565b5b6000614b1a858286016144f3565b9250506020614b2b858286016146bc565b9150509250929050565b614b3e8161487e565b82525050565b6000602082019050614b596000830184614b35565b92915050565b600067ffffffffffffffff821115614b7a57614b79614222565b5b614b8382614211565b9050602081019050919050565b6000614ba3614b9e84614b5f565b614282565b905082815260208101848484011115614bbf57614bbe61420c565b5b614bca8482856142ce565b509392505050565b600082601f830112614be757614be6614207565b5b8135614bf7848260208601614b90565b91505092915050565b60008060008060808587031215614c1a57614c1961410c565b5b6000614c28878288016144f3565b9450506020614c39878288016144f3565b9350506040614c4a878288016141f2565b925050606085013567ffffffffffffffff811115614c6b57614c6a614111565b5b614c7787828801614bd2565b91505092959194509250565b60008083601f840112614c9957614c98614207565b5b8235905067ffffffffffffffff811115614cb657614cb5614a3a565b5b602083019150836020820283011115614cd257614cd1614773565b5b9250929050565b60008060008060608587031215614cf357614cf261410c565b5b600085013567ffffffffffffffff811115614d1157614d10614111565b5b614d1d87828801614c83565b94509450506020614d30878288016144f3565b9250506040614d41878288016146bc565b91505092959194509250565b60008060408385031215614d6457614d6361410c565b5b6000614d72858286016144f3565b9250506020614d83858286016144f3565b9150509250929050565b600060208284031215614da357614da261410c565b5b6000614db18482850161459e565b91505092915050565b7f4552433732314d657461646174613a2055524920736574206f66206e6f6e657860008201527f697374656e7420746f6b656e0000000000000000000000000000000000000000602082015250565b6000614e16602c836143b4565b9150614e2182614dba565b604082019050919050565b60006020820190508181036000830152614e4581614e09565b9050919050565b7f4e487b7100000000000000000000000000000000000000000000000000000000600052602260045260246000fd5b60006002820490506001821680614e9357607f821691505b602082108103614ea657614ea5614e4c565b5b50919050565b7f4552433732313a20617070726f76656420717565727920666f72206e6f6e657860008201527f697374656e7420746f6b656e0000000000000000000000000000000000000000602082015250565b6000614f08602c836143b4565b9150614f1382614eac565b604082019050919050565b60006020820190508181036000830152614f3781614efb565b9050919050565b7f4552433732313a20617070726f76616c20746f2063757272656e74206f776e6560008201527f7200000000000000000000000000000000000000000000000000000000000000602082015250565b6000614f9a6021836143b4565b9150614fa582614f3e565b604082019050919050565b60006020820190508181036000830152614fc981614f8d565b9050919050565b7f4552433732313a20617070726f76652063616c6c6572206973206e6f74206f7760008201527f6e6572206e6f7220617070726f76656420666f7220616c6c0000000000000000602082015250565b600061502c6038836143b4565b915061503782614fd0565b604082019050919050565b6000602082019050818103600083015261505b8161501f565b9050919050565b7f4f776e61626c653a2063616c6c6572206973206e6f7420746865206f776e6572600082015250565b60006150986020836143b4565b91506150a382615062565b602082019050919050565b600060208201905081810360008301526150c78161508b565b9050919050565b6000819050919050565b6000819050919050565b60006150fd6150f86150f3846150ce565b6150d8565b614981565b9050919050565b61510d816150e2565b82525050565b60006020820190506151286000830184615104565b92915050565b7f4552433732313a207472616e736665722063616c6c6572206973206e6f74206f60008201527f776e6572206e6f7220617070726f766564000000000000000000000000000000602082015250565b600061518a6031836143b4565b91506151958261512e565b604082019050919050565b600060208201905081810360008301526151b98161517d565b9050919050565b7f4e487b7100000000000000000000000000000000000000000000000000000000600052601160045260246000fd5b60006151fa826141d1565b9150615205836141d1565b925082821015615218576152176151c0565b5b828203905092915050565b7f4e487b7100000000000000000000000000000000000000000000000000000000600052603260045260246000fd5b600061525d826141d1565b91507fffffffffffffffffffffffffffffffffffffffffffffffffffffffffffffffff820361528f5761528e6151c0565b5b600182019050919050565b7f4552433732313a206f776e657220717565727920666f72206e6f6e657869737460008201527f656e7420746f6b656e0000000000000000000000000000000000000000000000602082015250565b60006152f66029836143b4565b91506153018261529a565b604082019050919050565b60006020820190508181036000830152615325816152e9565b9050919050565b7f43616c6c6572206973206e6f7420617070726f766564206f72206f776e657200600082015250565b6000615362601f836143b4565b915061536d8261532c565b602082019050919050565b6000602082019050818103600083015261539181615355565b9050919050565b7f4f70656e696e67206973206e6f7420616c6c6c6f776564207965740000000000600082015250565b60006153ce601b836143b4565b91506153d982615398565b602082019050919050565b600060208201905081810360008301526153fd816153c1565b9050919050565b7f4552433732313a2062616c616e636520717565727920666f7220746865207a6560008201527f726f206164647265737300000000000000000000000000000000000000000000602082015250565b6000615460602a836143b4565b915061546b82615404565b604082019050919050565b6000602082019050818103600083015261548f81615453565b9050919050565b60006154a1826141d1565b91506154ac836141d1565b9250827fffffffffffffffffffffffffffffffffffffffffffffffffffffffffffffffff038211156154e1576154e06151c0565b5b828201905092915050565b7f4d696e7420616d6f756e742069732063617573696e6720746f74616c2073757060008201527f706c7920746f2065786365656420323030300000000000000000000000000000602082015250565b60006155486032836143b4565b9150615553826154ec565b604082019050919050565b600060208201905081810360008301526155778161553b565b9050919050565b7f4d696e74696e67206e6f7420656e61626c6564206f72206e6f74206f6e20776860008201527f6974656c69737400000000000000000000000000000000000000000000000000602082015250565b60006155da6027836143b4565b91506155e58261557e565b604082019050919050565b60006020820190508181036000830152615609816155cd565b9050919050565b7f43616e6e6f74206d696e742030206e6674732e00000000000000000000000000600082015250565b60006156466013836143b4565b915061565182615610565b602082019050919050565b6000602082019050818103600083015261567581615639565b9050919050565b6000615687826141d1565b9150615692836141d1565b9250817fffffffffffffffffffffffffffffffffffffffffffffffffffffffffffffffff04831182151516156156cb576156ca6151c0565b5b828202905092915050565b7f4d7573742070617920636f727265637420616d6f756e74206f6620455448207460008201527f6f206d696e742e00000000000000000000000000000000000000000000000000602082015250565b60006157326027836143b4565b915061573d826156d6565b604082019050919050565b6000602082019050818103600083015261576181615725565b9050919050565b7f4552433732314d657461646174613a2055524920717565727920666f72206e6f60008201527f6e6578697374656e7420746f6b656e0000000000000000000000000000000000602082015250565b60006157c4602f836143b4565b91506157cf82615768565b604082019050919050565b600060208201905081810360008301526157f3816157b7565b9050919050565b600081905092915050565b6000615810826143a9565b61581a81856157fa565b935061582a8185602086016143c5565b80840191505092915050565b60006158428285615805565b915061584e8284615805565b91508190509392505050565b7f4f776e61626c653a206e6577206f776e657220697320746865207a65726f206160008201527f6464726573730000000000000000000000000000000000000000000000000000602082015250565b60006158b66026836143b4565b91506158c18261585a565b604082019050919050565b600060208201905081810360008301526158e5816158a9565b9050919050565b7f496e697469616c697a61626c653a20636f6e747261637420697320616c72656160008201527f647920696e697469616c697a6564000000000000000000000000000000000000602082015250565b6000615948602e836143b4565b9150615953826158ec565b604082019050919050565b600060208201905081810360008301526159778161593b565b9050919050565b7f4552433732313a206f70657261746f7220717565727920666f72206e6f6e657860008201527f697374656e7420746f6b656e0000000000000000000000000000000000000000602082015250565b60006159da602c836143b4565b91506159e58261597e565b604082019050919050565b60006020820190508181036000830152615a09816159cd565b9050919050565b7f4552433732313a207472616e736665722066726f6d20696e636f72726563742060008201527f6f776e6572000000000000000000000000000000000000000000000000000000602082015250565b6000615a6c6025836143b4565b9150615a7782615a10565b604082019050919050565b60006020820190508181036000830152615a9b81615a5f565b9050919050565b7f4552433732313a207472616e7366657220746f20746865207a65726f2061646460008201527f7265737300000000000000000000000000000000000000000000000000000000602082015250565b6000615afe6024836143b4565b9150615b0982615aa2565b604082019050919050565b60006020820190508181036000830152615b2d81615af1565b9050919050565b7f4e487b7100000000000000000000000000000000000000000000000000000000600052601260045260246000fd5b6000615b6e826141d1565b9150615b79836141d1565b925082615b8957615b88615b34565b5b828204905092915050565b6000615b9f826141d1565b9150615baa836141d1565b925082615bba57615bb9615b34565b5b828206905092915050565b7f4552433732313a20617070726f766520746f2063616c6c657200000000000000600082015250565b6000615bfb6019836143b4565b9150615c0682615bc5565b602082019050919050565b60006020820190508181036000830152615c2a81615bee565b9050919050565b7f4552433732313a207472616e7366657220746f206e6f6e20455243373231526560008201527f63656976657220696d706c656d656e7465720000000000000000000000000000602082015250565b6000615c8d6032836143b4565b9150615c9882615c31565b604082019050919050565b60006020820190508181036000830152615cbc81615c80565b9050919050565b600081519050919050565b600082825260208201905092915050565b6000615cea82615cc3565b615cf48185615cce565b9350615d048185602086016143c5565b615d0d81614211565b840191505092915050565b6000608082019050615d2d60008301876144b2565b615d3a60208301866144b2565b615d476040830185614957565b8181036060830152615d598184615cdf565b905095945050505050565b600081519050615d7381614142565b92915050565b600060208284031215615d8f57615d8e61410c565b5b6000615d9d84828501615d64565b91505092915050565b7f4552433732313a206d696e7420746f20746865207a65726f2061646472657373600082015250565b6000615ddc6020836143b4565b9150615de782615da6565b602082019050919050565b60006020820190508181036000830152615e0b81615dcf565b9050919050565b7f4552433732313a20746f6b656e20616c7265616479206d696e74656400000000600082015250565b6000615e48601c836143b4565b9150615e5382615e12565b602082019050919050565b60006020820190508181036000830152615e7781615e3b565b905091905056fea264697066735822122042c2bc7ab31f08b7aa166327c8d4818266f42ca878a703bb193370f2ba088f2564736f6c634300080e0033",
  "immutableReferences": {},
  "source": "// SPDX-License-Identifier: MIT\n\n/**\n *****    .*****************************************     *****.\n  *****     ***************************************    .*****\n   ******    ******                                   ******\n     *****     *****                                ******        ***       ****    ***,      **********      ****      ***********       .***         .***          ***       ***\n      ******    ******                             *****           ***.    ****     ***,      ***     ***.    ****      ***      ****     .***        ******         *****     ***\n        *****     **************************,    ******             ***,  ***       ***,      ***    ****     ****      ***       ****    .***       **** ***        *** ****  ***\n         ,*****    ************************     *****                *******        ***,      ********.       ****      ***       ***     .***      ***,   ***       ***   *******\n           *****     *****                    ******                  *****         ***,      ***   ***,      ****      ***     ****,     .***     ************      ***     *****\n            ,*****    ******                ,*****                     .**          ***,      ***    ****     ****      **********        .***    ***        ***     ***       ***\n              *****     ******             ******\n                *****     ***********    ,*****\n                 ******    ********     ******\n                   *****     *****    ******                       **********     ****    ****      ,**********     ***       ***.          **.          **        ***        **********      **********\n                    ******    **     *****                         ***.            **** ****      .****      *      ***       ***.        .****,         *****     ***      ****      *,      ***.\n                      *****        ******                          *********         ******       ***               *************.       ,*******        *******   ***     ****               *********\n                       .*****     *****                            *********         ******       ***               *************.      ****  ****       ***  ********     ***.     *****     *********\n                         *****. ******                             ***.            **** ****      ****.             ***       ***.     ************      ***     *****      ****      ***     ***.\n                          .*********                               **********     ****    ****      ***********     ***       ***.    ***.       ***     ***       ***        ***********     **********\n                            *******\n                              ***\n */\n\npragma solidity ^0.8.0;\n\nimport \"@openzeppelin/contracts-upgradeable/token/ERC721/extensions/ERC721EnumerableUpgradeable.sol\";\nimport \"@openzeppelin/contracts-upgradeable/token/ERC721/ERC721Upgradeable.sol\";\nimport \"@openzeppelin/contracts-upgradeable/utils/CountersUpgradeable.sol\";\nimport \"@openzeppelin/contracts-upgradeable/access/OwnableUpgradeable.sol\";\nimport \"@openzeppelin/contracts-upgradeable/utils/StringsUpgradeable.sol\";\nimport \"@openzeppelin/contracts-upgradeable/proxy/utils/Initializable.sol\";\nimport \"@opengsn/contracts/src/BaseRelayRecipient.sol\";\n\n/**\n* Viridian Genesis NFT\n*\n* This contract is designed to be used on our genesis Ethereum mint and future drops on the same contract, it is extremely gas efficient for minting multiple packs.\n*\n* If this contract can be upgradable and/or be upgradable it could be converted to our main infrastructure contract.\n*/\ncontract ViridianNFT is Initializable, ERC721Upgradeable, OwnableUpgradeable, BaseRelayRecipient {\n\n    // Keeps track of the current minted NFT for setting the pack URI correctly\n    using CountersUpgradeable for CountersUpgradeable.Counter;\n    CountersUpgradeable.Counter private numMinted;\n    CountersUpgradeable.Counter private dropId;\n\n    mapping(uint256 => uint256) private tokenDropId;\n\n    // Mint and Opening control booleans\n    mapping(uint256 => bool) private openingUnlocked;\n    bool private allowWhitelistMinting = false;\n    bool private allowPublicMinting = false;\n\n    mapping(address => uint8) private _whitelist;\n\n    // Default number of NFTs that can be minted in the Genesis drop\n    uint16 public maxMintAmt = 2000;\n\n    // Default cost for minting one NFT in the Genesis drop\n    uint256 public mintPrice = 200000000000000000;\n\n    // Mapping for determining whether an unrevealed pack has been opened yet\n    mapping(uint256 => bool) public isOpened;\n\n    // All tokenIds derived from proof of integrity hashes that will be used in the geneis mint (Should have a length of 2000 before the mint starts)\n    mapping(uint256 => uint256) private hashedTokenIds;\n\n    // All admin addresses, primarily the exchange contracts\n    mapping(address => bool) admins;\n\n    // Treasury address where minting payments are sent\n    address payable treasury;\n\n    using StringsUpgradeable for uint256;\n\n    /**\n     * @dev Set the original default opened and unopenend base URI. Also set the forwarder for gaseless and the treasury address.\n     */\n     function initialize(address _forwarder, address payable _treasury, string memory _packURI, string memory _openURI) initializer public  {\n        /* require(!initialized, \"Contract instance has already been initialized\"); */\n        /* __ERC721_init(\"Viridian NFT\", \"VNFT\"); */\n        /* __Ownable_init(); */\n        _setTrustedForwarder(_forwarder);\n\n        dropId.increment();\n        uint256 _dropId = dropId.current();\n\n        _baseURIextended[_dropId] = _packURI;\n        _baseURIextendedOpened[_dropId] = _openURI;\n        treasury = _treasury;\n    }\n\n    string public override versionRecipient = \"2.2.0\";\n\n    /**\n     * @dev Owner can change the trusted forwarder used for gasless.\n     */\n    function setTrustedForwarder(address _forwarder) public onlyOwner() {\n        _setTrustedForwarder(_forwarder);\n    }\n\n    // Events for the pack opening experience\n    event Open(uint256 newTokenId);\n    event PackResultDecided(uint16 tokenId);\n\n    // Optional mapping for token URIs\n    mapping (uint256 => string) private _tokenURIs;\n\n    //address private viridianExchangeAddress;\n\n    // Base URI for unopened NFTs\n    mapping (uint256 => string) private _baseURIextended;\n\n    // Base URI for opened NFTs\n    mapping (uint256 => string) private _baseURIextendedOpened;\n\n    // Enfornces only admins calling a function\n    modifier onlyAdmin() {\n        require(admins[_msgSender()] == true);\n            _;\n    }\n\n    /**\n     * @dev Start a new drop while leaving the previous drops alone.\n     */\n    function newDrop(uint16 _numMints, uint256 _mintPrice, string memory _newUnrevealedBaseURI, string memory _newRevealedBaseURI) external onlyOwner() {\n        numMinted.reset();\n        maxMintAmt = _numMints;\n\n        dropId.increment();\n        uint256 _dropId = dropId.current();\n\n        _baseURIextended[_dropId] = _newUnrevealedBaseURI;\n        _baseURIextendedOpened[_dropId] = _newRevealedBaseURI;\n\n        mintPrice = _mintPrice;\n    }\n\n    /**\n     * @dev Owner can change the treasury address.\n     */\n    function setTreasury(address payable _newTreasury) external onlyOwner() {\n        treasury = _newTreasury;\n    }\n\n    /**\n     * @dev Owner can set the whitelist addresses and how many NFTs each whitelist member can mint.\n     */\n    function setWhitelist(address[] calldata addresses, uint8 numAllowedToMint) external onlyOwner {\n        for (uint256 i = 0; i < addresses.length; i++) {\n            _whitelist[addresses[i]] = numAllowedToMint;\n        }\n    }\n\n    /**\n     * @dev Owner can set the hashed tokenIds.\n     */\n    function setHashedTokenIds(uint256[] memory _hashedTokenIds, uint256 _minIndex, uint256 _maxIndex) external onlyOwner {\n        for (uint256 i = _minIndex; i <= _maxIndex; i++) {\n            hashedTokenIds[i] = _hashedTokenIds[i - 1];\n            tokenDropId[_hashedTokenIds[i - 1]] = dropId.current();\n        }\n    }\n\n    /**\n     * @dev Replaces msg.sender for gasless support.\n     */\n    function _msgSender() internal view override(ContextUpgradeable, BaseRelayRecipient) returns (address sender) {\n        sender = BaseRelayRecipient._msgSender();\n    }\n\n    /**\n     * @dev Replaces msg.data for gasless support.\n     */\n    function _msgData() internal view override(ContextUpgradeable, BaseRelayRecipient) returns (bytes calldata) {\n        return BaseRelayRecipient._msgData();\n    }\n\n    /**\n     * @dev Overridden version of isApprovedForAll where the admins (exchange addresses) are always approved\n     */\n    function isApprovedForAll(address owner, address operator) public view override returns (bool) {\n        if (admins[_msgSender()]) {\n            return true;\n        }\n\n        return super.isApprovedForAll(owner, operator);\n    }\n\n    /**\n     * @dev Owner can add new admins addresses if exchange is upgraded.\n     */\n    function addAdmin(address _newAdmin) external onlyOwner() {\n        admins[_newAdmin] = true;\n    }\n\n    /**\n     * @dev Owner can remove permissions from depreciated admin addresses.\n     */\n    function removeAdmin(address _newAdmin) external onlyOwner() {\n        admins[_newAdmin] = false;\n    }\n\n    /**\n     * @dev Admin can change base URI for unopened NFTs.\n     */\n    function setBaseURI(string memory baseURI_) external onlyAdmin() {\n        _baseURIextended[dropId.current()] = baseURI_;\n    }\n\n    /**\n     * @dev Admin can change base URI for openend NFTs.\n     */\n    function setBaseURIOpened(string memory baseURI_) external onlyAdmin() {\n        _baseURIextendedOpened[dropId.current()] = baseURI_;\n    }\n\n    /**\n     * @dev Changes the tokenURI.\n     */\n    function _setTokenURI(uint256 tokenId, string memory _tokenURI) private {\n        require(_exists(tokenId), \"ERC721Metadata: URI set of nonexistent token\");\n        _tokenURIs[tokenId] = _tokenURI;\n    }\n\n    /**\n     * @dev Admin can change the tokenURI.\n     */\n    function _setTokenURIAdmin(uint256 tokenId, string memory _tokenURI) public virtual onlyAdmin() {\n        require(_exists(tokenId), \"ERC721Metadata: URI set of nonexistent token\");\n        _tokenURIs[tokenId] = _tokenURI;\n    }\n\n    /**\n     * @dev Returns the baseURI for unopened NFTs.\n     */\n    function _baseURI(uint256 _dropId) internal view virtual returns (string memory) {\n        return _baseURIextended[_dropId];\n    }\n\n    /**\n     * @dev Returns the baseURI for opened NFTs.\n     */\n    function _baseURIOpened(uint256 _dropId) internal view virtual returns (string memory) {\n        return _baseURIextendedOpened[_dropId];\n    }\n\n    /**\n     * Returns the token URI which will be different dependent on whether the NFT has been opened.\n     */\n    function tokenURI(uint256 tokenId) public view virtual override returns (string memory) {\n        require(_exists(tokenId), \"ERC721Metadata: URI query for nonexistent token\");\n\n        string memory _tokenURI;\n        string memory base;\n\n        if (isOpened[tokenId]) {\n            base = _baseURIOpened(tokenDropId[tokenId]);\n        }\n        else {\n            base = _baseURI(tokenDropId[tokenId]);\n            _tokenURI = _tokenURIs[tokenId];\n        }\n\n        // If there is no base URI, return the token URI.\n        if (bytes(base).length == 0) {\n            return _tokenURI;\n        }\n        // If both are set, concatenate the baseURI and tokenURI (via abi.encodePacked).\n        if (bytes(_tokenURI).length > 0) {\n            return string(abi.encodePacked(base, _tokenURI));\n        }\n        // If there is a baseURI but no tokenURI, concatenate the tokenID to the baseURI.\n        return string(abi.encodePacked(base, tokenId.toString()));\n    }\n\n    /**\n     * @dev Returns whether the address is on the whitelist.\n     */\n    function isAddressWhitelisted(address _addr) external view returns (bool) {\n        return _whitelist[_addr] > 0;\n    }\n\n    /**\n     * @dev Enables the ability for addresses on the whitelist to begin minting.\n     */\n    function setWhitelistMinting(bool _allowed) external onlyOwner() {\n        allowWhitelistMinting = _allowed;\n    }\n\n    /**\n     * @dev Enables the ability for any addresses to begin minting.\n     */\n    function setPublicMinting(bool _allowed) external onlyOwner() {\n        allowPublicMinting = _allowed;\n    }\n\n    /**\n     * @dev Returns whether the whitelist minting period has started.\n     */\n    function isWhitelistMintingEnabled() public view returns (bool) {\n        return allowWhitelistMinting;\n    }\n\n    /**\n     * @dev Returns whether the public minting period has started.\n     */\n    function isPublicMintingEnabled() public view returns (bool) {\n        return allowPublicMinting;\n    }\n\n    /**\n     * @dev Adjusted mint price convenience fee for mintign with USD.\n     */\n    function convenienceFee() private view returns (uint256) {\n        return mintPrice / 8;\n    }\n\n    /**\n     * @dev Appends three strings together.\n     */\n    function append(string memory a, string memory b, string memory c) internal pure returns (string memory) {\n\n        return string(abi.encodePacked(a, b, c));\n    }\n\n    /**\n     * @dev Owner can change the mint price for one NFT.\n     */\n    function setMintPrice(uint256 _newMintPrice) external onlyOwner() {\n        mintPrice = _newMintPrice;\n    }\n\n    /**\n     * @dev Admin addresses can manually mint NFTs either unrevealed or revealed. This will primarily be used for getting submissions onto the exchange.\n     */\n    function adminMint(\n        uint256[] calldata _tokenIds,\n        address _to,\n        bool opened\n    ) public payable onlyAdmin() {\n        require(_tokenIds.length != 0, 'Cannot mint 0 nfts.');\n\n        //TODO: Remove this after testing\n        require(_tokenIds.length * mintPrice == msg.value, \"Must pay correct amount of ETH to mint.\");\n        (payable(treasury)).transfer(msg.value);\n\n\n        for (uint256 i; i < _tokenIds.length; i++) {\n            uint256 _tokenId = _tokenIds[i];\n\n            if (opened) {\n                isOpened[_tokenId] = true;\n            }\n\n            string memory tokenURI_ = StringsUpgradeable.toString(_tokenId);\n\n            _safeMint(_to, hashedTokenIds[_tokenId]);\n            _setTokenURI(hashedTokenIds[_tokenId], tokenURI_);\n        }\n    }\n\n    /**\n     * @dev Users can mint during the drop using the blockchains native currency (ex: Ether on Ethereum).\n     */\n    function mint(\n        uint8 _numMint,\n        address _to\n    ) public payable {\n        require((numMinted.current() + _numMint) <= maxMintAmt, \"Mint amount is causing total supply to exceed 2000\");\n        require((allowWhitelistMinting && _whitelist[_to] > 0) ||\n                allowPublicMinting, \"Minting not enabled or not on whitelist\");\n\n        require(_numMint != 0, 'Cannot mint 0 nfts.');\n\n        //TODO: Remove this after testing\n        require(_numMint * mintPrice == msg.value, \"Must pay correct amount of ETH to mint.\");\n        (payable(treasury)).transfer(msg.value);\n\n\n        for (uint256 i; i < _numMint; i++) {\n            numMinted.increment();\n            uint256 _tokenId = numMinted.current();\n\n            string memory tokenURI_ = StringsUpgradeable.toString(_tokenId);\n\n            _safeMint(_to, hashedTokenIds[_tokenId]);\n            _setTokenURI(hashedTokenIds[_tokenId], tokenURI_);\n        }\n    }\n\n    /**\n     * @dev Users can mint with USD on crossmint during the drop for a convenience fee (ex: Ether on Ethereum).\n     */\n    function crossmintMint(\n        uint8 _numMint,\n        address _to\n    ) public payable {\n        require((numMinted.current() + _numMint) <= maxMintAmt, \"Mint amount is causing total supply to exceed 2000\");\n        require((allowWhitelistMinting && _whitelist[_to] > 0) ||\n                allowPublicMinting, \"Minting not enabled or not on whitelist\");\n\n        require(_numMint != 0, 'Cannot mint 0 nfts.');\n\n        //TODO: Remove this after testing\n        require(_numMint * (mintPrice + convenienceFee()) == msg.value, \"Must pay correct amount of ETH to mint.\");\n        (payable(treasury)).transfer(msg.value);\n\n\n        for (uint256 i; i < _numMint; i++) {\n            numMinted.increment();\n            uint256 _tokenId = numMinted.current();\n\n            string memory tokenURI_ = StringsUpgradeable.toString(_tokenId);\n\n            _safeMint(_to, hashedTokenIds[_tokenId]);\n            _setTokenURI(hashedTokenIds[_tokenId], tokenURI_);\n        }\n    }\n\n    /**\n     * @dev Enables users to be able to open their NFTs.\n     */\n    function allowOpening() public onlyOwner() {\n        openingUnlocked[dropId.current()] = true;\n    }\n\n    /**\n     * @dev Disables the ability to open NFTs.\n     */\n    function freezeOpening() public onlyOwner() {\n        openingUnlocked[dropId.current()] = false;\n    }\n\n    /**\n     * @dev Returns whether users are able to open their NFTs.\n     */\n    function isOpeningUnlocked() public view returns (bool) {\n        return openingUnlocked[dropId.current()];\n    }\n\n    /**\n     * @dev Returns whether users are able to open their NFTs.\n     */\n    function isTokenOpeningUnlocked(uint256 _tokenId) public view returns (bool) {\n        return openingUnlocked[tokenDropId[_tokenId]];\n    }\n\n    /**\n     * @dev Allows user to open an NFT and reveal the contents.\n     */\n    function open(uint256 _tokenId) public {\n        bool isApprovedOrOwner = (_msgSender() == ownerOf(_tokenId) ||\n                isApprovedForAll(ownerOf(_tokenId), _msgSender()));\n        require(isApprovedOrOwner, \"Caller is not approved or owner\");\n        require(isTokenOpeningUnlocked(_tokenId), \"Opening is not alllowed yet\");\n\n        isOpened[_tokenId] = true;\n\n        emit Open(_tokenId);\n    }\n\n    /**\n     * @dev Allows user to open an NFT and reveal the contents, then have it transferred to a different address.\n     * This will be primarily used by streamers to open up packs their audience has purcahsed.\n     */\n    function openTo(uint256 _tokenId, address _to) public {\n        bool isApprovedOrOwner = (_msgSender() == ownerOf(_tokenId) ||\n                isApprovedForAll(ownerOf(_tokenId), _msgSender()));\n        require(isApprovedOrOwner, \"Caller is not approved or owner\");\n        require(isTokenOpeningUnlocked(_tokenId), \"Opening is not alllowed yet\");\n\n        isOpened[_tokenId] = true;\n\n        safeTransferFrom(_msgSender(), _to, _tokenId);\n\n        emit Open(_tokenId);\n    }\n\n    /**\n     * Destroy the NFT with the given token Id.\n     */\n    function burn(uint256 tokenId) public {\n        _burn(tokenId);\n    }\n}\n",
  "sourcePath": "/Users/rohiljaveri/Viridian/Viridian-Exchange-Contracts/contracts/ViridianNFT.sol",
  "compiler": {
    "name": "solc",
    "version": "0.8.14+commit.80d49f37.Emscripten.clang"
  },
  "schemaVersion": "3.4.7",
  "updatedAt": "2022-05-22T22:22:55.340Z",
  "networkType": "ethereum",
  "devdoc": {
    "kind": "dev",
    "methods": {
      "_setTokenURIAdmin(uint256,string)": {
        "details": "Admin can change the tokenURI."
      },
      "addAdmin(address)": {
        "details": "Owner can add new admins addresses if exchange is upgraded."
      },
      "adminMint(uint256[],address,bool)": {
        "details": "Admin addresses can manually mint NFTs either unrevealed or revealed. This will primarily be used for getting submissions onto the exchange."
      },
      "allowOpening()": {
        "details": "Enables users to be able to open their NFTs."
      },
      "approve(address,uint256)": {
        "details": "See {IERC721-approve}."
      },
      "balanceOf(address)": {
        "details": "See {IERC721-balanceOf}."
      },
      "crossmintMint(uint8,address)": {
        "details": "Users can mint with USD on crossmint during the drop for a convenience fee (ex: Ether on Ethereum)."
      },
      "freezeOpening()": {
        "details": "Disables the ability to open NFTs."
      },
      "getApproved(uint256)": {
        "details": "See {IERC721-getApproved}."
      },
      "initialize(address,address,string,string)": {
        "details": "Set the original default opened and unopenend base URI. Also set the forwarder for gaseless and the treasury address."
      },
      "isAddressWhitelisted(address)": {
        "details": "Returns whether the address is on the whitelist."
      },
      "isApprovedForAll(address,address)": {
        "details": "Overridden version of isApprovedForAll where the admins (exchange addresses) are always approved"
      },
      "isOpeningUnlocked()": {
        "details": "Returns whether users are able to open their NFTs."
      },
      "isPublicMintingEnabled()": {
        "details": "Returns whether the public minting period has started."
      },
      "isTokenOpeningUnlocked(uint256)": {
        "details": "Returns whether users are able to open their NFTs."
      },
      "isWhitelistMintingEnabled()": {
        "details": "Returns whether the whitelist minting period has started."
      },
      "mint(uint8,address)": {
        "details": "Users can mint during the drop using the blockchains native currency (ex: Ether on Ethereum)."
      },
      "name()": {
        "details": "See {IERC721Metadata-name}."
      },
      "newDrop(uint16,uint256,string,string)": {
        "details": "Start a new drop while leaving the previous drops alone."
      },
      "open(uint256)": {
        "details": "Allows user to open an NFT and reveal the contents."
      },
      "openTo(uint256,address)": {
        "details": "Allows user to open an NFT and reveal the contents, then have it transferred to a different address. This will be primarily used by streamers to open up packs their audience has purcahsed."
      },
      "owner()": {
        "details": "Returns the address of the current owner."
      },
      "ownerOf(uint256)": {
        "details": "See {IERC721-ownerOf}."
      },
      "removeAdmin(address)": {
        "details": "Owner can remove permissions from depreciated admin addresses."
      },
      "renounceOwnership()": {
        "details": "Leaves the contract without owner. It will not be possible to call `onlyOwner` functions anymore. Can only be called by the current owner. NOTE: Renouncing ownership will leave the contract without an owner, thereby removing any functionality that is only available to the owner."
      },
      "safeTransferFrom(address,address,uint256)": {
        "details": "See {IERC721-safeTransferFrom}."
      },
      "safeTransferFrom(address,address,uint256,bytes)": {
        "details": "See {IERC721-safeTransferFrom}."
      },
      "setApprovalForAll(address,bool)": {
        "details": "See {IERC721-setApprovalForAll}."
      },
      "setBaseURI(string)": {
        "details": "Admin can change base URI for unopened NFTs."
      },
      "setBaseURIOpened(string)": {
        "details": "Admin can change base URI for openend NFTs."
      },
      "setHashedTokenIds(uint256[],uint256,uint256)": {
        "details": "Owner can set the hashed tokenIds."
      },
      "setMintPrice(uint256)": {
        "details": "Owner can change the mint price for one NFT."
      },
      "setPublicMinting(bool)": {
        "details": "Enables the ability for any addresses to begin minting."
      },
      "setTreasury(address)": {
        "details": "Owner can change the treasury address."
      },
      "setTrustedForwarder(address)": {
        "details": "Owner can change the trusted forwarder used for gasless."
      },
      "setWhitelist(address[],uint8)": {
        "details": "Owner can set the whitelist addresses and how many NFTs each whitelist member can mint."
      },
      "setWhitelistMinting(bool)": {
        "details": "Enables the ability for addresses on the whitelist to begin minting."
      },
      "supportsInterface(bytes4)": {
        "details": "See {IERC165-supportsInterface}."
      },
      "symbol()": {
        "details": "See {IERC721Metadata-symbol}."
      },
      "transferFrom(address,address,uint256)": {
        "details": "See {IERC721-transferFrom}."
      },
      "transferOwnership(address)": {
        "details": "Transfers ownership of the contract to a new account (`newOwner`). Can only be called by the current owner."
      }
    },
    "version": 1
  },
  "userdoc": {
    "kind": "user",
    "methods": {
      "burn(uint256)": {
        "notice": "Destroy the NFT with the given token Id."
      },
      "isTrustedForwarder(address)": {
        "notice": "return if the forwarder is trusted to forward relayed transactions to us. the forwarder is required to verify the sender's signature, and verify the call is not a replay."
      },
      "tokenURI(uint256)": {
        "notice": "Returns the token URI which will be different dependent on whether the NFT has been opened."
      }
    },
    "notice": "Viridian Genesis NFT This contract is designed to be used on our genesis Ethereum mint and future drops on the same contract, it is extremely gas efficient for minting multiple packs. If this contract can be upgradable and/or be upgradable it could be converted to our main infrastructure contract.",
    "version": 1
  }
}