{
  "contractName": "ViridianNFT",
  "abi": [
    {
      "inputs": [],
      "stateMutability": "nonpayable",
      "type": "constructor"
    },
    {
      "anonymous": false,
      "inputs": [
        {
          "indexed": true,
          "internalType": "address",
          "name": "owner",
          "type": "address"
        },
        {
          "indexed": true,
          "internalType": "address",
          "name": "approved",
          "type": "address"
        },
        {
          "indexed": true,
          "internalType": "uint256",
          "name": "tokenId",
          "type": "uint256"
        }
      ],
      "name": "Approval",
      "type": "event"
    },
    {
      "anonymous": false,
      "inputs": [
        {
          "indexed": true,
          "internalType": "address",
          "name": "owner",
          "type": "address"
        },
        {
          "indexed": true,
          "internalType": "address",
          "name": "operator",
          "type": "address"
        },
        {
          "indexed": false,
          "internalType": "bool",
          "name": "approved",
          "type": "bool"
        }
      ],
      "name": "ApprovalForAll",
      "type": "event"
    },
    {
      "anonymous": false,
      "inputs": [
        {
          "indexed": true,
          "internalType": "address",
          "name": "previousOwner",
          "type": "address"
        },
        {
          "indexed": true,
          "internalType": "address",
          "name": "newOwner",
          "type": "address"
        }
      ],
      "name": "OwnershipTransferred",
      "type": "event"
    },
    {
      "anonymous": false,
      "inputs": [
        {
          "indexed": true,
          "internalType": "address",
          "name": "from",
          "type": "address"
        },
        {
          "indexed": true,
          "internalType": "address",
          "name": "to",
          "type": "address"
        },
        {
          "indexed": true,
          "internalType": "uint256",
          "name": "tokenId",
          "type": "uint256"
        }
      ],
      "name": "Transfer",
      "type": "event"
    },
    {
      "inputs": [
        {
          "internalType": "address",
          "name": "to",
          "type": "address"
        },
        {
          "internalType": "uint256",
          "name": "tokenId",
          "type": "uint256"
        }
      ],
      "name": "approve",
      "outputs": [],
      "stateMutability": "nonpayable",
      "type": "function"
    },
    {
      "inputs": [
        {
          "internalType": "address",
          "name": "owner",
          "type": "address"
        }
      ],
      "name": "balanceOf",
      "outputs": [
        {
          "internalType": "uint256",
          "name": "",
          "type": "uint256"
        }
      ],
      "stateMutability": "view",
      "type": "function",
      "constant": true
    },
    {
      "inputs": [
        {
          "internalType": "uint256",
          "name": "tokenId",
          "type": "uint256"
        }
      ],
      "name": "getApproved",
      "outputs": [
        {
          "internalType": "address",
          "name": "",
          "type": "address"
        }
      ],
      "stateMutability": "view",
      "type": "function",
      "constant": true
    },
    {
      "inputs": [
        {
          "internalType": "address",
          "name": "owner",
          "type": "address"
        },
        {
          "internalType": "address",
          "name": "operator",
          "type": "address"
        }
      ],
      "name": "isApprovedForAll",
      "outputs": [
        {
          "internalType": "bool",
          "name": "",
          "type": "bool"
        }
      ],
      "stateMutability": "view",
      "type": "function",
      "constant": true
    },
    {
      "inputs": [],
      "name": "name",
      "outputs": [
        {
          "internalType": "string",
          "name": "",
          "type": "string"
        }
      ],
      "stateMutability": "view",
      "type": "function",
      "constant": true
    },
    {
      "inputs": [],
      "name": "owner",
      "outputs": [
        {
          "internalType": "address",
          "name": "",
          "type": "address"
        }
      ],
      "stateMutability": "view",
      "type": "function",
      "constant": true
    },
    {
      "inputs": [
        {
          "internalType": "uint256",
          "name": "tokenId",
          "type": "uint256"
        }
      ],
      "name": "ownerOf",
      "outputs": [
        {
          "internalType": "address",
          "name": "",
          "type": "address"
        }
      ],
      "stateMutability": "view",
      "type": "function",
      "constant": true
    },
    {
      "inputs": [],
      "name": "renounceOwnership",
      "outputs": [],
      "stateMutability": "nonpayable",
      "type": "function"
    },
    {
      "inputs": [
        {
          "internalType": "address",
          "name": "from",
          "type": "address"
        },
        {
          "internalType": "address",
          "name": "to",
          "type": "address"
        },
        {
          "internalType": "uint256",
          "name": "tokenId",
          "type": "uint256"
        }
      ],
      "name": "safeTransferFrom",
      "outputs": [],
      "stateMutability": "nonpayable",
      "type": "function"
    },
    {
      "inputs": [
        {
          "internalType": "address",
          "name": "from",
          "type": "address"
        },
        {
          "internalType": "address",
          "name": "to",
          "type": "address"
        },
        {
          "internalType": "uint256",
          "name": "tokenId",
          "type": "uint256"
        },
        {
          "internalType": "bytes",
          "name": "_data",
          "type": "bytes"
        }
      ],
      "name": "safeTransferFrom",
      "outputs": [],
      "stateMutability": "nonpayable",
      "type": "function"
    },
    {
      "inputs": [
        {
          "internalType": "address",
          "name": "operator",
          "type": "address"
        },
        {
          "internalType": "bool",
          "name": "approved",
          "type": "bool"
        }
      ],
      "name": "setApprovalForAll",
      "outputs": [],
      "stateMutability": "nonpayable",
      "type": "function"
    },
    {
      "inputs": [
        {
          "internalType": "bytes4",
          "name": "interfaceId",
          "type": "bytes4"
        }
      ],
      "name": "supportsInterface",
      "outputs": [
        {
          "internalType": "bool",
          "name": "",
          "type": "bool"
        }
      ],
      "stateMutability": "view",
      "type": "function",
      "constant": true
    },
    {
      "inputs": [],
      "name": "symbol",
      "outputs": [
        {
          "internalType": "string",
          "name": "",
          "type": "string"
        }
      ],
      "stateMutability": "view",
      "type": "function",
      "constant": true
    },
    {
      "inputs": [
        {
          "internalType": "address",
          "name": "from",
          "type": "address"
        },
        {
          "internalType": "address",
          "name": "to",
          "type": "address"
        },
        {
          "internalType": "uint256",
          "name": "tokenId",
          "type": "uint256"
        }
      ],
      "name": "transferFrom",
      "outputs": [],
      "stateMutability": "nonpayable",
      "type": "function"
    },
    {
      "inputs": [
        {
          "internalType": "address",
          "name": "newOwner",
          "type": "address"
        }
      ],
      "name": "transferOwnership",
      "outputs": [],
      "stateMutability": "nonpayable",
      "type": "function"
    },
    {
      "inputs": [
        {
          "internalType": "string",
          "name": "baseURI_",
          "type": "string"
        }
      ],
      "name": "setBaseURI",
      "outputs": [],
      "stateMutability": "nonpayable",
      "type": "function"
    },
    {
      "inputs": [
        {
          "internalType": "uint256",
          "name": "tokenId",
          "type": "uint256"
        }
      ],
      "name": "tokenURI",
      "outputs": [
        {
          "internalType": "string",
          "name": "",
          "type": "string"
        }
      ],
      "stateMutability": "view",
      "type": "function",
      "constant": true
    },
    {
      "inputs": [],
      "name": "getOwnedNFTs",
      "outputs": [
        {
          "components": [
            {
              "internalType": "uint256",
              "name": "id",
              "type": "uint256"
            },
            {
              "internalType": "string",
              "name": "uri",
              "type": "string"
            }
          ],
          "internalType": "struct ViridianNFT.NFT[]",
          "name": "",
          "type": "tuple[]"
        }
      ],
      "stateMutability": "view",
      "type": "function",
      "constant": true
    },
    {
      "inputs": [
        {
          "internalType": "address",
          "name": "_to",
          "type": "address"
        },
        {
          "internalType": "string",
          "name": "tokenURI_",
          "type": "string"
        }
      ],
      "name": "mint",
      "outputs": [],
      "stateMutability": "nonpayable",
      "type": "function"
    },
    {
      "inputs": [
        {
          "internalType": "uint256",
          "name": "tokenId",
          "type": "uint256"
        }
      ],
      "name": "burn",
      "outputs": [],
      "stateMutability": "nonpayable",
      "type": "function"
    },
    {
      "inputs": [
        {
          "internalType": "address",
          "name": "recipient",
          "type": "address"
        },
        {
          "internalType": "string",
          "name": "hash",
          "type": "string"
        },
        {
          "internalType": "string",
          "name": "metadata",
          "type": "string"
        }
      ],
      "name": "awardItem",
      "outputs": [
        {
          "internalType": "uint256",
          "name": "",
          "type": "uint256"
        }
      ],
      "stateMutability": "nonpayable",
      "type": "function"
    }
  ],
  "bytecode": "0x60806040523480156200001157600080fd5b506040518060400160405280600c81526020017f566972696469616e204e465400000000000000000000000000000000000000008152506040518060400160405280600481526020017f564e46540000000000000000000000000000000000000000000000000000000081525081600090805190602001906200009692919062000171565b508060019080519060200190620000af92919062000171565b5050506000620000c46200016960201b60201c565b905080600660006101000a81548173ffffffffffffffffffffffffffffffffffffffff021916908373ffffffffffffffffffffffffffffffffffffffff1602179055508073ffffffffffffffffffffffffffffffffffffffff16600073ffffffffffffffffffffffffffffffffffffffff167f8be0079c531659141344cd1fd0a4f28419497f9722a3daafe3b4186f6b6457e060405160405180910390a35062000286565b600033905090565b8280546200017f9062000221565b90600052602060002090601f016020900481019282620001a35760008555620001ef565b82601f10620001be57805160ff1916838001178555620001ef565b82800160010185558215620001ef579182015b82811115620001ee578251825591602001919060010190620001d1565b5b509050620001fe919062000202565b5090565b5b808211156200021d57600081600090555060010162000203565b5090565b600060028204905060018216806200023a57607f821691505b6020821081141562000251576200025062000257565b5b50919050565b7f4e487b7100000000000000000000000000000000000000000000000000000000600052602260045260246000fd5b61374b80620002966000396000f3fe608060405234801561001057600080fd5b50600436106101375760003560e01c806370a08231116100b8578063a22cb4651161007c578063a22cb4651461033a578063b88d4fde14610356578063c87b56dd14610372578063d0def521146103a2578063e985e9c5146103be578063f2fde38b146103ee57610137565b806370a0823114610294578063715018a6146102c45780638bfaf101146102ce5780638da5cb5b146102fe57806395d89b411461031c57610137565b806342842e0e116100ff57806342842e0e146101f257806342966c681461020e5780634c0eb7d91461022a57806355f804b3146102485780636352211e1461026457610137565b806301ffc9a71461013c57806306fdde031461016c578063081812fc1461018a578063095ea7b3146101ba57806323b872dd146101d6575b600080fd5b61015660048036038101906101519190612563565b61040a565b6040516101639190612b28565b60405180910390f35b6101746104ec565b6040516101819190612b43565b60405180910390f35b6101a4600480360381019061019f9190612606565b61057e565b6040516101b19190612a9f565b60405180910390f35b6101d460048036038101906101cf9190612523565b610603565b005b6101f060048036038101906101eb9190612326565b61071b565b005b61020c60048036038101906102079190612326565b61077b565b005b61022860048036038101906102239190612606565b61079b565b005b6102326107ba565b60405161023f9190612b06565b60405180910390f35b610262600480360381019061025d91906125bd565b6108f8565b005b61027e60048036038101906102799190612606565b61098e565b60405161028b9190612a9f565b60405180910390f35b6102ae60048036038101906102a991906122b9565b610a40565b6040516102bb9190612d85565b60405180910390f35b6102cc610af8565b005b6102e860048036038101906102e39190612498565b610c35565b6040516102f59190612d85565b60405180910390f35b610306610ce2565b6040516103139190612a9f565b60405180910390f35b610324610d0c565b6040516103319190612b43565b60405180910390f35b610354600480360381019061034f91906123fc565b610d9e565b005b610370600480360381019061036b9190612379565b610f1f565b005b61038c60048036038101906103879190612606565b610f81565b6040516103999190612b43565b60405180910390f35b6103bc60048036038101906103b7919061243c565b6110f4565b005b6103d860048036038101906103d391906122e6565b611247565b6040516103e59190612b28565b60405180910390f35b610408600480360381019061040391906122b9565b6112db565b005b60007f80ac58cd000000000000000000000000000000000000000000000000000000007bffffffffffffffffffffffffffffffffffffffffffffffffffffffff1916827bffffffffffffffffffffffffffffffffffffffffffffffffffffffff191614806104d557507f5b5e139f000000000000000000000000000000000000000000000000000000007bffffffffffffffffffffffffffffffffffffffffffffffffffffffff1916827bffffffffffffffffffffffffffffffffffffffffffffffffffffffff1916145b806104e557506104e482611487565b5b9050919050565b6060600080546104fb90613025565b80601f016020809104026020016040519081016040528092919081815260200182805461052790613025565b80156105745780601f1061054957610100808354040283529160200191610574565b820191906000526020600020905b81548152906001019060200180831161055757829003601f168201915b5050505050905090565b6000610589826114f1565b6105c8576040517f08c379a00000000000000000000000000000000000000000000000000000000081526004016105bf90612ca5565b60405180910390fd5b6004600083815260200190815260200160002060009054906101000a900473ffffffffffffffffffffffffffffffffffffffff169050919050565b600061060e8261098e565b90508073ffffffffffffffffffffffffffffffffffffffff168373ffffffffffffffffffffffffffffffffffffffff16141561067f576040517f08c379a000000000000000000000000000000000000000000000000000000000815260040161067690612d45565b60405180910390fd5b8073ffffffffffffffffffffffffffffffffffffffff1661069e61155d565b73ffffffffffffffffffffffffffffffffffffffff1614806106cd57506106cc816106c761155d565b611247565b5b61070c576040517f08c379a000000000000000000000000000000000000000000000000000000000815260040161070390612c25565b60405180910390fd5b6107168383611565565b505050565b61072c61072661155d565b8261161e565b61076b576040517f08c379a000000000000000000000000000000000000000000000000000000000815260040161076290612d65565b60405180910390fd5b6107768383836116fc565b505050565b61079683838360405180602001604052806000815250610f1f565b505050565b6107a5338261161e565b6107ae57600080fd5b6107b781611958565b50565b60606000600a60003373ffffffffffffffffffffffffffffffffffffffff1673ffffffffffffffffffffffffffffffffffffffff168152602001908152602001600020805480602002602001604051908101604052809291908181526020016000905b828210156108eb57838290600052602060002090600202016040518060400160405290816000820154815260200160018201805461085a90613025565b80601f016020809104026020016040519081016040528092919081815260200182805461088690613025565b80156108d35780601f106108a8576101008083540402835291602001916108d3565b820191906000526020600020905b8154815290600101906020018083116108b657829003601f168201915b5050505050815250508152602001906001019061081d565b5050505090508091505090565b61090061155d565b73ffffffffffffffffffffffffffffffffffffffff1661091e610ce2565b73ffffffffffffffffffffffffffffffffffffffff1614610974576040517f08c379a000000000000000000000000000000000000000000000000000000000815260040161096b90612ce5565b60405180910390fd5b80600b908051906020019061098a9291906120cd565b5050565b6000806002600084815260200190815260200160002060009054906101000a900473ffffffffffffffffffffffffffffffffffffffff169050600073ffffffffffffffffffffffffffffffffffffffff168173ffffffffffffffffffffffffffffffffffffffff161415610a37576040517f08c379a0000000000000000000000000000000000000000000000000000000008152600401610a2e90612c65565b60405180910390fd5b80915050919050565b60008073ffffffffffffffffffffffffffffffffffffffff168273ffffffffffffffffffffffffffffffffffffffff161415610ab1576040517f08c379a0000000000000000000000000000000000000000000000000000000008152600401610aa890612c45565b60405180910390fd5b600360008373ffffffffffffffffffffffffffffffffffffffff1673ffffffffffffffffffffffffffffffffffffffff168152602001908152602001600020549050919050565b610b0061155d565b73ffffffffffffffffffffffffffffffffffffffff16610b1e610ce2565b73ffffffffffffffffffffffffffffffffffffffff1614610b74576040517f08c379a0000000000000000000000000000000000000000000000000000000008152600401610b6b90612ce5565b60405180910390fd5b600073ffffffffffffffffffffffffffffffffffffffff16600660009054906101000a900473ffffffffffffffffffffffffffffffffffffffff1673ffffffffffffffffffffffffffffffffffffffff167f8be0079c531659141344cd1fd0a4f28419497f9722a3daafe3b4186f6b6457e060405160405180910390a36000600660006101000a81548173ffffffffffffffffffffffffffffffffffffffff021916908373ffffffffffffffffffffffffffffffffffffffff160217905550565b60006001600884604051610c499190612a64565b908152602001604051809103902060009054906101000a900460ff1660ff161415610c7357600080fd5b6001600884604051610c859190612a64565b908152602001604051809103902060006101000a81548160ff021916908360ff160217905550610cb56007611a69565b6000610cc16007611a7f565b9050610ccd8582611a8d565b610cd78184611c5b565b809150509392505050565b6000600660009054906101000a900473ffffffffffffffffffffffffffffffffffffffff16905090565b606060018054610d1b90613025565b80601f0160208091040260200160405190810160405280929190818152602001828054610d4790613025565b8015610d945780601f10610d6957610100808354040283529160200191610d94565b820191906000526020600020905b815481529060010190602001808311610d7757829003601f168201915b5050505050905090565b610da661155d565b73ffffffffffffffffffffffffffffffffffffffff168273ffffffffffffffffffffffffffffffffffffffff161415610e14576040517f08c379a0000000000000000000000000000000000000000000000000000000008152600401610e0b90612be5565b60405180910390fd5b8060056000610e2161155d565b73ffffffffffffffffffffffffffffffffffffffff1673ffffffffffffffffffffffffffffffffffffffff16815260200190815260200160002060008473ffffffffffffffffffffffffffffffffffffffff1673ffffffffffffffffffffffffffffffffffffffff16815260200190815260200160002060006101000a81548160ff0219169083151502179055508173ffffffffffffffffffffffffffffffffffffffff16610ece61155d565b73ffffffffffffffffffffffffffffffffffffffff167f17307eab39ab6107e8899845ad3d59bd9653f200f220920489ca2b5937696c3183604051610f139190612b28565b60405180910390a35050565b610f30610f2a61155d565b8361161e565b610f6f576040517f08c379a0000000000000000000000000000000000000000000000000000000008152600401610f6690612d65565b60405180910390fd5b610f7b84848484611ccf565b50505050565b6060610f8c826114f1565b610fcb576040517f08c379a0000000000000000000000000000000000000000000000000000000008152600401610fc290612d25565b60405180910390fd5b6000600960008481526020019081526020016000208054610feb90613025565b80601f016020809104026020016040519081016040528092919081815260200182805461101790613025565b80156110645780601f1061103957610100808354040283529160200191611064565b820191906000526020600020905b81548152906001019060200180831161104757829003601f168201915b505050505090506000611075611d2b565b905060008151141561108b5781925050506110ef565b6000825111156110c05780826040516020016110a8929190612a7b565b604051602081830303815290604052925050506110ef565b806110ca85611dbd565b6040516020016110db929190612a7b565b604051602081830303815290604052925050505b919050565b6110fc61155d565b73ffffffffffffffffffffffffffffffffffffffff1661111a610ce2565b73ffffffffffffffffffffffffffffffffffffffff1614611170576040517f08c379a000000000000000000000000000000000000000000000000000000000815260040161116790612ce5565b60405180910390fd5b61117a6007611a69565b60006111866007611a7f565b90506111928382611a8d565b600a60008473ffffffffffffffffffffffffffffffffffffffff1673ffffffffffffffffffffffffffffffffffffffff16815260200190815260200160002060405180604001604052808381526020018481525090806001815401808255809150506001900390600052602060002090600202016000909190919091506000820151816000015560208201518160010190805190602001906112359291906120cd565b5050506112428183611c5b565b505050565b6000600560008473ffffffffffffffffffffffffffffffffffffffff1673ffffffffffffffffffffffffffffffffffffffff16815260200190815260200160002060008373ffffffffffffffffffffffffffffffffffffffff1673ffffffffffffffffffffffffffffffffffffffff16815260200190815260200160002060009054906101000a900460ff16905092915050565b6112e361155d565b73ffffffffffffffffffffffffffffffffffffffff16611301610ce2565b73ffffffffffffffffffffffffffffffffffffffff1614611357576040517f08c379a000000000000000000000000000000000000000000000000000000000815260040161134e90612ce5565b60405180910390fd5b600073ffffffffffffffffffffffffffffffffffffffff168173ffffffffffffffffffffffffffffffffffffffff1614156113c7576040517f08c379a00000000000000000000000000000000000000000000000000000000081526004016113be90612b85565b60405180910390fd5b8073ffffffffffffffffffffffffffffffffffffffff16600660009054906101000a900473ffffffffffffffffffffffffffffffffffffffff1673ffffffffffffffffffffffffffffffffffffffff167f8be0079c531659141344cd1fd0a4f28419497f9722a3daafe3b4186f6b6457e060405160405180910390a380600660006101000a81548173ffffffffffffffffffffffffffffffffffffffff021916908373ffffffffffffffffffffffffffffffffffffffff16021790555050565b60007f01ffc9a7000000000000000000000000000000000000000000000000000000007bffffffffffffffffffffffffffffffffffffffffffffffffffffffff1916827bffffffffffffffffffffffffffffffffffffffffffffffffffffffff1916149050919050565b60008073ffffffffffffffffffffffffffffffffffffffff166002600084815260200190815260200160002060009054906101000a900473ffffffffffffffffffffffffffffffffffffffff1673ffffffffffffffffffffffffffffffffffffffff1614159050919050565b600033905090565b816004600083815260200190815260200160002060006101000a81548173ffffffffffffffffffffffffffffffffffffffff021916908373ffffffffffffffffffffffffffffffffffffffff160217905550808273ffffffffffffffffffffffffffffffffffffffff166115d88361098e565b73ffffffffffffffffffffffffffffffffffffffff167f8c5be1e5ebec7d5bd14f71427d1e84f3dd0314c0f7b2291e5b200ac8c7c3b92560405160405180910390a45050565b6000611629826114f1565b611668576040517f08c379a000000000000000000000000000000000000000000000000000000000815260040161165f90612c05565b60405180910390fd5b60006116738361098e565b90508073ffffffffffffffffffffffffffffffffffffffff168473ffffffffffffffffffffffffffffffffffffffff1614806116e257508373ffffffffffffffffffffffffffffffffffffffff166116ca8461057e565b73ffffffffffffffffffffffffffffffffffffffff16145b806116f357506116f28185611247565b5b91505092915050565b8273ffffffffffffffffffffffffffffffffffffffff1661171c8261098e565b73ffffffffffffffffffffffffffffffffffffffff1614611772576040517f08c379a000000000000000000000000000000000000000000000000000000000815260040161176990612d05565b60405180910390fd5b600073ffffffffffffffffffffffffffffffffffffffff168273ffffffffffffffffffffffffffffffffffffffff1614156117e2576040517f08c379a00000000000000000000000000000000000000000000000000000000081526004016117d990612bc5565b60405180910390fd5b6117ed838383611f1e565b6117f8600082611565565b6001600360008573ffffffffffffffffffffffffffffffffffffffff1673ffffffffffffffffffffffffffffffffffffffff16815260200190815260200160002060008282546118489190612f3b565b925050819055506001600360008473ffffffffffffffffffffffffffffffffffffffff1673ffffffffffffffffffffffffffffffffffffffff168152602001908152602001600020600082825461189f9190612eb4565b92505081905550816002600083815260200190815260200160002060006101000a81548173ffffffffffffffffffffffffffffffffffffffff021916908373ffffffffffffffffffffffffffffffffffffffff160217905550808273ffffffffffffffffffffffffffffffffffffffff168473ffffffffffffffffffffffffffffffffffffffff167fddf252ad1be2c89b69c2b068fc378daa952ba7f163c4a11628f55a4df523b3ef60405160405180910390a4505050565b60006119638261098e565b905061197181600084611f1e565b61197c600083611565565b6001600360008373ffffffffffffffffffffffffffffffffffffffff1673ffffffffffffffffffffffffffffffffffffffff16815260200190815260200160002060008282546119cc9190612f3b565b925050819055506002600083815260200190815260200160002060006101000a81549073ffffffffffffffffffffffffffffffffffffffff021916905581600073ffffffffffffffffffffffffffffffffffffffff168273ffffffffffffffffffffffffffffffffffffffff167fddf252ad1be2c89b69c2b068fc378daa952ba7f163c4a11628f55a4df523b3ef60405160405180910390a45050565b6001816000016000828254019250508190555050565b600081600001549050919050565b600073ffffffffffffffffffffffffffffffffffffffff168273ffffffffffffffffffffffffffffffffffffffff161415611afd576040517f08c379a0000000000000000000000000000000000000000000000000000000008152600401611af490612c85565b60405180910390fd5b611b06816114f1565b15611b46576040517f08c379a0000000000000000000000000000000000000000000000000000000008152600401611b3d90612ba5565b60405180910390fd5b611b5260008383611f1e565b6001600360008473ffffffffffffffffffffffffffffffffffffffff1673ffffffffffffffffffffffffffffffffffffffff1681526020019081526020016000206000828254611ba29190612eb4565b92505081905550816002600083815260200190815260200160002060006101000a81548173ffffffffffffffffffffffffffffffffffffffff021916908373ffffffffffffffffffffffffffffffffffffffff160217905550808273ffffffffffffffffffffffffffffffffffffffff16600073ffffffffffffffffffffffffffffffffffffffff167fddf252ad1be2c89b69c2b068fc378daa952ba7f163c4a11628f55a4df523b3ef60405160405180910390a45050565b611c64826114f1565b611ca3576040517f08c379a0000000000000000000000000000000000000000000000000000000008152600401611c9a90612cc5565b60405180910390fd5b80600960008481526020019081526020016000209080519060200190611cca9291906120cd565b505050565b611cda8484846116fc565b611ce684848484611f23565b611d25576040517f08c379a0000000000000000000000000000000000000000000000000000000008152600401611d1c90612b65565b60405180910390fd5b50505050565b6060600b8054611d3a90613025565b80601f0160208091040260200160405190810160405280929190818152602001828054611d6690613025565b8015611db35780601f10611d8857610100808354040283529160200191611db3565b820191906000526020600020905b815481529060010190602001808311611d9657829003601f168201915b5050505050905090565b60606000821415611e05576040518060400160405280600181526020017f30000000000000000000000000000000000000000000000000000000000000008152509050611f19565b600082905060005b60008214611e37578080611e2090613088565b915050600a82611e309190612f0a565b9150611e0d565b60008167ffffffffffffffff811115611e5357611e526131be565b5b6040519080825280601f01601f191660200182016040528015611e855781602001600182028036833780820191505090505b5090505b60008514611f1257600182611e9e9190612f3b565b9150600a85611ead91906130d1565b6030611eb99190612eb4565b60f81b818381518110611ecf57611ece61318f565b5b60200101907effffffffffffffffffffffffffffffffffffffffffffffffffffffffffffff1916908160001a905350600a85611f0b9190612f0a565b9450611e89565b8093505050505b919050565b505050565b6000611f448473ffffffffffffffffffffffffffffffffffffffff166120ba565b156120ad578373ffffffffffffffffffffffffffffffffffffffff1663150b7a02611f6d61155d565b8786866040518563ffffffff1660e01b8152600401611f8f9493929190612aba565b602060405180830381600087803b158015611fa957600080fd5b505af1925050508015611fda57506040513d601f19601f82011682018060405250810190611fd79190612590565b60015b61205d573d806000811461200a576040519150601f19603f3d011682016040523d82523d6000602084013e61200f565b606091505b50600081511415612055576040517f08c379a000000000000000000000000000000000000000000000000000000000815260040161204c90612b65565b60405180910390fd5b805181602001fd5b63150b7a0260e01b7bffffffffffffffffffffffffffffffffffffffffffffffffffffffff1916817bffffffffffffffffffffffffffffffffffffffffffffffffffffffff1916149150506120b2565b600190505b949350505050565b600080823b905060008111915050919050565b8280546120d990613025565b90600052602060002090601f0160209004810192826120fb5760008555612142565b82601f1061211457805160ff1916838001178555612142565b82800160010185558215612142579182015b82811115612141578251825591602001919060010190612126565b5b50905061214f9190612153565b5090565b5b8082111561216c576000816000905550600101612154565b5090565b600061218361217e84612dc5565b612da0565b90508281526020810184848401111561219f5761219e6131f2565b5b6121aa848285612fe3565b509392505050565b60006121c56121c084612df6565b612da0565b9050828152602081018484840111156121e1576121e06131f2565b5b6121ec848285612fe3565b509392505050565b600081359050612203816136b9565b92915050565b600081359050612218816136d0565b92915050565b60008135905061222d816136e7565b92915050565b600081519050612242816136e7565b92915050565b600082601f83011261225d5761225c6131ed565b5b813561226d848260208601612170565b91505092915050565b600082601f83011261228b5761228a6131ed565b5b813561229b8482602086016121b2565b91505092915050565b6000813590506122b3816136fe565b92915050565b6000602082840312156122cf576122ce6131fc565b5b60006122dd848285016121f4565b91505092915050565b600080604083850312156122fd576122fc6131fc565b5b600061230b858286016121f4565b925050602061231c858286016121f4565b9150509250929050565b60008060006060848603121561233f5761233e6131fc565b5b600061234d868287016121f4565b935050602061235e868287016121f4565b925050604061236f868287016122a4565b9150509250925092565b60008060008060808587031215612393576123926131fc565b5b60006123a1878288016121f4565b94505060206123b2878288016121f4565b93505060406123c3878288016122a4565b925050606085013567ffffffffffffffff8111156123e4576123e36131f7565b5b6123f087828801612248565b91505092959194509250565b60008060408385031215612413576124126131fc565b5b6000612421858286016121f4565b925050602061243285828601612209565b9150509250929050565b60008060408385031215612453576124526131fc565b5b6000612461858286016121f4565b925050602083013567ffffffffffffffff811115612482576124816131f7565b5b61248e85828601612276565b9150509250929050565b6000806000606084860312156124b1576124b06131fc565b5b60006124bf868287016121f4565b935050602084013567ffffffffffffffff8111156124e0576124df6131f7565b5b6124ec86828701612276565b925050604084013567ffffffffffffffff81111561250d5761250c6131f7565b5b61251986828701612276565b9150509250925092565b6000806040838503121561253a576125396131fc565b5b6000612548858286016121f4565b9250506020612559858286016122a4565b9150509250929050565b600060208284031215612579576125786131fc565b5b60006125878482850161221e565b91505092915050565b6000602082840312156125a6576125a56131fc565b5b60006125b484828501612233565b91505092915050565b6000602082840312156125d3576125d26131fc565b5b600082013567ffffffffffffffff8111156125f1576125f06131f7565b5b6125fd84828501612276565b91505092915050565b60006020828403121561261c5761261b6131fc565b5b600061262a848285016122a4565b91505092915050565b600061263f8383612a09565b905092915050565b61265081612f6f565b82525050565b600061266182612e37565b61266b8185612e65565b93508360208202850161267d85612e27565b8060005b858110156126b9578484038952815161269a8582612633565b94506126a583612e58565b925060208a01995050600181019050612681565b50829750879550505050505092915050565b6126d481612f81565b82525050565b60006126e582612e42565b6126ef8185612e76565b93506126ff818560208601612ff2565b61270881613201565b840191505092915050565b600061271e82612e4d565b6127288185612e87565b9350612738818560208601612ff2565b61274181613201565b840191505092915050565b600061275782612e4d565b6127618185612e98565b9350612771818560208601612ff2565b61277a81613201565b840191505092915050565b600061279082612e4d565b61279a8185612ea9565b93506127aa818560208601612ff2565b80840191505092915050565b60006127c3603283612e98565b91506127ce82613212565b604082019050919050565b60006127e6602683612e98565b91506127f182613261565b604082019050919050565b6000612809601c83612e98565b9150612814826132b0565b602082019050919050565b600061282c602483612e98565b9150612837826132d9565b604082019050919050565b600061284f601983612e98565b915061285a82613328565b602082019050919050565b6000612872602c83612e98565b915061287d82613351565b604082019050919050565b6000612895603883612e98565b91506128a0826133a0565b604082019050919050565b60006128b8602a83612e98565b91506128c3826133ef565b604082019050919050565b60006128db602983612e98565b91506128e68261343e565b604082019050919050565b60006128fe602083612e98565b91506129098261348d565b602082019050919050565b6000612921602c83612e98565b915061292c826134b6565b604082019050919050565b6000612944602c83612e98565b915061294f82613505565b604082019050919050565b6000612967602083612e98565b915061297282613554565b602082019050919050565b600061298a602983612e98565b91506129958261357d565b604082019050919050565b60006129ad602f83612e98565b91506129b8826135cc565b604082019050919050565b60006129d0602183612e98565b91506129db8261361b565b604082019050919050565b60006129f3603183612e98565b91506129fe8261366a565b604082019050919050565b6000604083016000830151612a216000860182612a46565b5060208301518482036020860152612a398282612713565b9150508091505092915050565b612a4f81612fd9565b82525050565b612a5e81612fd9565b82525050565b6000612a708284612785565b915081905092915050565b6000612a878285612785565b9150612a938284612785565b91508190509392505050565b6000602082019050612ab46000830184612647565b92915050565b6000608082019050612acf6000830187612647565b612adc6020830186612647565b612ae96040830185612a55565b8181036060830152612afb81846126da565b905095945050505050565b60006020820190508181036000830152612b208184612656565b905092915050565b6000602082019050612b3d60008301846126cb565b92915050565b60006020820190508181036000830152612b5d818461274c565b905092915050565b60006020820190508181036000830152612b7e816127b6565b9050919050565b60006020820190508181036000830152612b9e816127d9565b9050919050565b60006020820190508181036000830152612bbe816127fc565b9050919050565b60006020820190508181036000830152612bde8161281f565b9050919050565b60006020820190508181036000830152612bfe81612842565b9050919050565b60006020820190508181036000830152612c1e81612865565b9050919050565b60006020820190508181036000830152612c3e81612888565b9050919050565b60006020820190508181036000830152612c5e816128ab565b9050919050565b60006020820190508181036000830152612c7e816128ce565b9050919050565b60006020820190508181036000830152612c9e816128f1565b9050919050565b60006020820190508181036000830152612cbe81612914565b9050919050565b60006020820190508181036000830152612cde81612937565b9050919050565b60006020820190508181036000830152612cfe8161295a565b9050919050565b60006020820190508181036000830152612d1e8161297d565b9050919050565b60006020820190508181036000830152612d3e816129a0565b9050919050565b60006020820190508181036000830152612d5e816129c3565b9050919050565b60006020820190508181036000830152612d7e816129e6565b9050919050565b6000602082019050612d9a6000830184612a55565b92915050565b6000612daa612dbb565b9050612db68282613057565b919050565b6000604051905090565b600067ffffffffffffffff821115612de057612ddf6131be565b5b612de982613201565b9050602081019050919050565b600067ffffffffffffffff821115612e1157612e106131be565b5b612e1a82613201565b9050602081019050919050565b6000819050602082019050919050565b600081519050919050565b600081519050919050565b600081519050919050565b6000602082019050919050565b600082825260208201905092915050565b600082825260208201905092915050565b600082825260208201905092915050565b600082825260208201905092915050565b600081905092915050565b6000612ebf82612fd9565b9150612eca83612fd9565b9250827fffffffffffffffffffffffffffffffffffffffffffffffffffffffffffffffff03821115612eff57612efe613102565b5b828201905092915050565b6000612f1582612fd9565b9150612f2083612fd9565b925082612f3057612f2f613131565b5b828204905092915050565b6000612f4682612fd9565b9150612f5183612fd9565b925082821015612f6457612f63613102565b5b828203905092915050565b6000612f7a82612fb9565b9050919050565b60008115159050919050565b60007fffffffff0000000000000000000000000000000000000000000000000000000082169050919050565b600073ffffffffffffffffffffffffffffffffffffffff82169050919050565b6000819050919050565b82818337600083830152505050565b60005b83811015613010578082015181840152602081019050612ff5565b8381111561301f576000848401525b50505050565b6000600282049050600182168061303d57607f821691505b6020821081141561305157613050613160565b5b50919050565b61306082613201565b810181811067ffffffffffffffff8211171561307f5761307e6131be565b5b80604052505050565b600061309382612fd9565b91507fffffffffffffffffffffffffffffffffffffffffffffffffffffffffffffffff8214156130c6576130c5613102565b5b600182019050919050565b60006130dc82612fd9565b91506130e783612fd9565b9250826130f7576130f6613131565b5b828206905092915050565b7f4e487b7100000000000000000000000000000000000000000000000000000000600052601160045260246000fd5b7f4e487b7100000000000000000000000000000000000000000000000000000000600052601260045260246000fd5b7f4e487b7100000000000000000000000000000000000000000000000000000000600052602260045260246000fd5b7f4e487b7100000000000000000000000000000000000000000000000000000000600052603260045260246000fd5b7f4e487b7100000000000000000000000000000000000000000000000000000000600052604160045260246000fd5b600080fd5b600080fd5b600080fd5b600080fd5b6000601f19601f8301169050919050565b7f4552433732313a207472616e7366657220746f206e6f6e20455243373231526560008201527f63656976657220696d706c656d656e7465720000000000000000000000000000602082015250565b7f4f776e61626c653a206e6577206f776e657220697320746865207a65726f206160008201527f6464726573730000000000000000000000000000000000000000000000000000602082015250565b7f4552433732313a20746f6b656e20616c7265616479206d696e74656400000000600082015250565b7f4552433732313a207472616e7366657220746f20746865207a65726f2061646460008201527f7265737300000000000000000000000000000000000000000000000000000000602082015250565b7f4552433732313a20617070726f766520746f2063616c6c657200000000000000600082015250565b7f4552433732313a206f70657261746f7220717565727920666f72206e6f6e657860008201527f697374656e7420746f6b656e0000000000000000000000000000000000000000602082015250565b7f4552433732313a20617070726f76652063616c6c6572206973206e6f74206f7760008201527f6e6572206e6f7220617070726f76656420666f7220616c6c0000000000000000602082015250565b7f4552433732313a2062616c616e636520717565727920666f7220746865207a6560008201527f726f206164647265737300000000000000000000000000000000000000000000602082015250565b7f4552433732313a206f776e657220717565727920666f72206e6f6e657869737460008201527f656e7420746f6b656e0000000000000000000000000000000000000000000000602082015250565b7f4552433732313a206d696e7420746f20746865207a65726f2061646472657373600082015250565b7f4552433732313a20617070726f76656420717565727920666f72206e6f6e657860008201527f697374656e7420746f6b656e0000000000000000000000000000000000000000602082015250565b7f4552433732314d657461646174613a2055524920736574206f66206e6f6e657860008201527f697374656e7420746f6b656e0000000000000000000000000000000000000000602082015250565b7f4f776e61626c653a2063616c6c6572206973206e6f7420746865206f776e6572600082015250565b7f4552433732313a207472616e73666572206f6620746f6b656e2074686174206960008201527f73206e6f74206f776e0000000000000000000000000000000000000000000000602082015250565b7f4552433732314d657461646174613a2055524920717565727920666f72206e6f60008201527f6e6578697374656e7420746f6b656e0000000000000000000000000000000000602082015250565b7f4552433732313a20617070726f76616c20746f2063757272656e74206f776e6560008201527f7200000000000000000000000000000000000000000000000000000000000000602082015250565b7f4552433732313a207472616e736665722063616c6c6572206973206e6f74206f60008201527f776e6572206e6f7220617070726f766564000000000000000000000000000000602082015250565b6136c281612f6f565b81146136cd57600080fd5b50565b6136d981612f81565b81146136e457600080fd5b50565b6136f081612f8d565b81146136fb57600080fd5b50565b61370781612fd9565b811461371257600080fd5b5056fea264697066735822122000fc9caad0e9252507ddbb175d746339760d7003426ae8419a20dc28c6e02abe64736f6c63430008060033",
  "immutableReferences": {},
  "source": "pragma solidity ^0.8.0;\n\nimport \"@openzeppelin/contracts/token/ERC721/ERC721.sol\";\nimport \"@openzeppelin/contracts/utils/Counters.sol\";\nimport \"@openzeppelin/contracts/access/Ownable.sol\";\n\ncontract ViridianNFT is ERC721, Ownable {\n\n    using Counters for Counters.Counter;\n    Counters.Counter private _tokenIds;\n    mapping(string => uint8) hashes;\n    \n    constructor() ERC721(\"Viridian NFT\", \"VNFT\") {}\n\n    using Strings for uint256;\n\n    struct NFT {\n        uint256 id;\n        string uri;\n    }\n    \n    // Optional mapping for token URIs\n    mapping (uint256 => string) private _tokenURIs;\n\n    mapping (address => NFT[]) private _ownedNFTs;\n\n    // Base URI\n    string private _baseURIextended;\n    \n    function setBaseURI(string memory baseURI_) external onlyOwner() {\n        _baseURIextended = baseURI_;\n    }\n    \n    function _setTokenURI(uint256 tokenId, string memory _tokenURI) internal virtual {\n        require(_exists(tokenId), \"ERC721Metadata: URI set of nonexistent token\");\n        _tokenURIs[tokenId] = _tokenURI;\n    }\n    \n    function _baseURI() internal view virtual override returns (string memory) {\n        return _baseURIextended;\n    }\n    \n    function tokenURI(uint256 tokenId) public view virtual override returns (string memory) {\n        require(_exists(tokenId), \"ERC721Metadata: URI query for nonexistent token\");\n\n        string memory _tokenURI = _tokenURIs[tokenId];\n        string memory base = _baseURI();\n        \n        // If there is no base URI, return the token URI.\n        if (bytes(base).length == 0) {\n            return _tokenURI;\n        }\n        // If both are set, concatenate the baseURI and tokenURI (via abi.encodePacked).\n        if (bytes(_tokenURI).length > 0) {\n            return string(abi.encodePacked(base, _tokenURI));\n        }\n        // If there is a baseURI but no tokenURI, concatenate the tokenID to the baseURI.\n        return string(abi.encodePacked(base, tokenId.toString()));\n    }\n\n    function getOwnedNFTs() public view virtual returns (NFT[] memory) {\n        NFT[] memory _tokens = _ownedNFTs[msg.sender];\n        \n        return _tokens;\n    }\n\n    function mint(\n        address _to,\n        string memory tokenURI_\n    ) external onlyOwner() {\n        _tokenIds.increment();\n        uint256 _tokenId = _tokenIds.current();\n\n        _mint(_to, _tokenId);\n        _ownedNFTs[_to].push(NFT(_tokenId, tokenURI_));\n        _setTokenURI(_tokenId, tokenURI_);\n    }\n\n    function burn(uint256 tokenId) public {\n        require(_isApprovedOrOwner(msg.sender, tokenId));\n        _burn(tokenId);\n    }\n\n    function awardItem(address recipient, string memory hash, string memory metadata) public returns (uint256) {\n        require(hashes[hash] != 1);\n        hashes[hash] = 1;\n        _tokenIds.increment();\n        uint256 newItemId = _tokenIds.current();\n        _mint(recipient, newItemId);\n        _setTokenURI(newItemId, metadata);\n        return newItemId;\n    }\n}",
  "sourcePath": "/Users/blakehatch/Viridian-Exchange-Contracts/contracts/ViridianNFT.sol",
  "compiler": {
    "name": "solc",
    "version": "0.8.6+commit.11564f7e.Emscripten.clang"
  },
  "schemaVersion": "3.4.1",
  "updatedAt": "2021-07-28T01:03:53.911Z",
  "networkType": "ethereum",
  "devdoc": {
    "kind": "dev",
    "methods": {
      "approve(address,uint256)": {
        "details": "See {IERC721-approve}."
      },
      "balanceOf(address)": {
        "details": "See {IERC721-balanceOf}."
      },
      "getApproved(uint256)": {
        "details": "See {IERC721-getApproved}."
      },
      "isApprovedForAll(address,address)": {
        "details": "See {IERC721-isApprovedForAll}."
      },
      "name()": {
        "details": "See {IERC721Metadata-name}."
      },
      "owner()": {
        "details": "Returns the address of the current owner."
      },
      "ownerOf(uint256)": {
        "details": "See {IERC721-ownerOf}."
      },
      "renounceOwnership()": {
        "details": "Leaves the contract without owner. It will not be possible to call `onlyOwner` functions anymore. Can only be called by the current owner. NOTE: Renouncing ownership will leave the contract without an owner, thereby removing any functionality that is only available to the owner."
      },
      "safeTransferFrom(address,address,uint256)": {
        "details": "See {IERC721-safeTransferFrom}."
      },
      "safeTransferFrom(address,address,uint256,bytes)": {
        "details": "See {IERC721-safeTransferFrom}."
      },
      "setApprovalForAll(address,bool)": {
        "details": "See {IERC721-setApprovalForAll}."
      },
      "supportsInterface(bytes4)": {
        "details": "See {IERC165-supportsInterface}."
      },
      "symbol()": {
        "details": "See {IERC721Metadata-symbol}."
      },
      "tokenURI(uint256)": {
        "details": "See {IERC721Metadata-tokenURI}."
      },
      "transferFrom(address,address,uint256)": {
        "details": "See {IERC721-transferFrom}."
      },
      "transferOwnership(address)": {
        "details": "Transfers ownership of the contract to a new account (`newOwner`). Can only be called by the current owner."
      }
    },
    "version": 1
  },
  "userdoc": {
    "kind": "user",
    "methods": {},
    "version": 1
  }
}