{
  "contractName": "ViridianPack",
  "abi": [
    {
      "inputs": [
        {
          "internalType": "address",
          "name": "_viridianNFT",
          "type": "address"
        }
      ],
      "stateMutability": "nonpayable",
      "type": "constructor"
    },
    {
      "anonymous": false,
      "inputs": [
        {
          "indexed": true,
          "internalType": "address",
          "name": "owner",
          "type": "address"
        },
        {
          "indexed": true,
          "internalType": "address",
          "name": "approved",
          "type": "address"
        },
        {
          "indexed": true,
          "internalType": "uint256",
          "name": "tokenId",
          "type": "uint256"
        }
      ],
      "name": "Approval",
      "type": "event"
    },
    {
      "anonymous": false,
      "inputs": [
        {
          "indexed": true,
          "internalType": "address",
          "name": "owner",
          "type": "address"
        },
        {
          "indexed": true,
          "internalType": "address",
          "name": "operator",
          "type": "address"
        },
        {
          "indexed": false,
          "internalType": "bool",
          "name": "approved",
          "type": "bool"
        }
      ],
      "name": "ApprovalForAll",
      "type": "event"
    },
    {
      "anonymous": false,
      "inputs": [
        {
          "indexed": true,
          "internalType": "address",
          "name": "previousOwner",
          "type": "address"
        },
        {
          "indexed": true,
          "internalType": "address",
          "name": "newOwner",
          "type": "address"
        }
      ],
      "name": "OwnershipTransferred",
      "type": "event"
    },
    {
      "anonymous": false,
      "inputs": [
        {
          "indexed": true,
          "internalType": "address",
          "name": "from",
          "type": "address"
        },
        {
          "indexed": true,
          "internalType": "address",
          "name": "to",
          "type": "address"
        },
        {
          "indexed": true,
          "internalType": "uint256",
          "name": "tokenId",
          "type": "uint256"
        }
      ],
      "name": "Transfer",
      "type": "event"
    },
    {
      "inputs": [
        {
          "internalType": "address",
          "name": "to",
          "type": "address"
        },
        {
          "internalType": "uint256",
          "name": "tokenId",
          "type": "uint256"
        }
      ],
      "name": "approve",
      "outputs": [],
      "stateMutability": "nonpayable",
      "type": "function"
    },
    {
      "inputs": [
        {
          "internalType": "address",
          "name": "owner",
          "type": "address"
        }
      ],
      "name": "balanceOf",
      "outputs": [
        {
          "internalType": "uint256",
          "name": "",
          "type": "uint256"
        }
      ],
      "stateMutability": "view",
      "type": "function",
      "constant": true
    },
    {
      "inputs": [
        {
          "internalType": "uint256",
          "name": "tokenId",
          "type": "uint256"
        }
      ],
      "name": "getApproved",
      "outputs": [
        {
          "internalType": "address",
          "name": "",
          "type": "address"
        }
      ],
      "stateMutability": "view",
      "type": "function",
      "constant": true
    },
    {
      "inputs": [
        {
          "internalType": "address",
          "name": "owner",
          "type": "address"
        },
        {
          "internalType": "address",
          "name": "operator",
          "type": "address"
        }
      ],
      "name": "isApprovedForAll",
      "outputs": [
        {
          "internalType": "bool",
          "name": "",
          "type": "bool"
        }
      ],
      "stateMutability": "view",
      "type": "function",
      "constant": true
    },
    {
      "inputs": [],
      "name": "name",
      "outputs": [
        {
          "internalType": "string",
          "name": "",
          "type": "string"
        }
      ],
      "stateMutability": "view",
      "type": "function",
      "constant": true
    },
    {
      "inputs": [],
      "name": "owner",
      "outputs": [
        {
          "internalType": "address",
          "name": "",
          "type": "address"
        }
      ],
      "stateMutability": "view",
      "type": "function",
      "constant": true
    },
    {
      "inputs": [
        {
          "internalType": "uint256",
          "name": "tokenId",
          "type": "uint256"
        }
      ],
      "name": "ownerOf",
      "outputs": [
        {
          "internalType": "address",
          "name": "",
          "type": "address"
        }
      ],
      "stateMutability": "view",
      "type": "function",
      "constant": true
    },
    {
      "inputs": [],
      "name": "renounceOwnership",
      "outputs": [],
      "stateMutability": "nonpayable",
      "type": "function"
    },
    {
      "inputs": [
        {
          "internalType": "address",
          "name": "operator",
          "type": "address"
        },
        {
          "internalType": "bool",
          "name": "approved",
          "type": "bool"
        }
      ],
      "name": "setApprovalForAll",
      "outputs": [],
      "stateMutability": "nonpayable",
      "type": "function"
    },
    {
      "inputs": [
        {
          "internalType": "bytes4",
          "name": "interfaceId",
          "type": "bytes4"
        }
      ],
      "name": "supportsInterface",
      "outputs": [
        {
          "internalType": "bool",
          "name": "",
          "type": "bool"
        }
      ],
      "stateMutability": "view",
      "type": "function",
      "constant": true
    },
    {
      "inputs": [],
      "name": "symbol",
      "outputs": [
        {
          "internalType": "string",
          "name": "",
          "type": "string"
        }
      ],
      "stateMutability": "view",
      "type": "function",
      "constant": true
    },
    {
      "inputs": [
        {
          "internalType": "address",
          "name": "newOwner",
          "type": "address"
        }
      ],
      "name": "transferOwnership",
      "outputs": [],
      "stateMutability": "nonpayable",
      "type": "function"
    },
    {
      "inputs": [],
      "name": "viridianNFTAddr",
      "outputs": [
        {
          "internalType": "address",
          "name": "",
          "type": "address"
        }
      ],
      "stateMutability": "view",
      "type": "function",
      "constant": true
    },
    {
      "inputs": [
        {
          "internalType": "string",
          "name": "baseURI_",
          "type": "string"
        }
      ],
      "name": "setBaseURI",
      "outputs": [],
      "stateMutability": "nonpayable",
      "type": "function"
    },
    {
      "inputs": [
        {
          "internalType": "uint256",
          "name": "tokenId",
          "type": "uint256"
        }
      ],
      "name": "tokenURI",
      "outputs": [
        {
          "internalType": "string",
          "name": "",
          "type": "string"
        }
      ],
      "stateMutability": "view",
      "type": "function",
      "constant": true
    },
    {
      "inputs": [],
      "name": "getOwnedNFTs",
      "outputs": [
        {
          "internalType": "uint256[]",
          "name": "",
          "type": "uint256[]"
        }
      ],
      "stateMutability": "view",
      "type": "function",
      "constant": true
    },
    {
      "inputs": [
        {
          "internalType": "uint256",
          "name": "_rarity",
          "type": "uint256"
        },
        {
          "internalType": "uint256",
          "name": "_rarityOdd",
          "type": "uint256"
        },
        {
          "internalType": "uint256",
          "name": "_newOdds",
          "type": "uint256"
        }
      ],
      "name": "setRarityOdds",
      "outputs": [],
      "stateMutability": "nonpayable",
      "type": "function"
    },
    {
      "inputs": [
        {
          "internalType": "address",
          "name": "_to",
          "type": "address"
        },
        {
          "internalType": "string",
          "name": "tokenURI_",
          "type": "string"
        }
      ],
      "name": "mint",
      "outputs": [],
      "stateMutability": "nonpayable",
      "type": "function"
    },
    {
      "inputs": [
        {
          "internalType": "string",
          "name": "uri",
          "type": "string"
        },
        {
          "internalType": "uint256",
          "name": "rarity",
          "type": "uint256"
        }
      ],
      "name": "softMintNFT",
      "outputs": [],
      "stateMutability": "payable",
      "type": "function",
      "payable": true
    },
    {
      "inputs": [
        {
          "internalType": "string",
          "name": "_s",
          "type": "string"
        },
        {
          "internalType": "string",
          "name": "_s1",
          "type": "string"
        }
      ],
      "name": "compareStrings",
      "outputs": [
        {
          "internalType": "bool",
          "name": "",
          "type": "bool"
        }
      ],
      "stateMutability": "pure",
      "type": "function",
      "constant": true
    },
    {
      "inputs": [
        {
          "internalType": "uint256",
          "name": "_tokenId",
          "type": "uint256"
        }
      ],
      "name": "openPack",
      "outputs": [],
      "stateMutability": "nonpayable",
      "type": "function"
    },
    {
      "inputs": [
        {
          "internalType": "uint256",
          "name": "tokenId",
          "type": "uint256"
        }
      ],
      "name": "burn",
      "outputs": [],
      "stateMutability": "nonpayable",
      "type": "function"
    },
    {
      "inputs": [
        {
          "internalType": "address",
          "name": "recipient",
          "type": "address"
        },
        {
          "internalType": "string",
          "name": "hash",
          "type": "string"
        },
        {
          "internalType": "string",
          "name": "metadata",
          "type": "string"
        }
      ],
      "name": "awardItem",
      "outputs": [
        {
          "internalType": "uint256",
          "name": "",
          "type": "uint256"
        }
      ],
      "stateMutability": "nonpayable",
      "type": "function"
    },
    {
      "inputs": [
        {
          "internalType": "address",
          "name": "from",
          "type": "address"
        },
        {
          "internalType": "address",
          "name": "to",
          "type": "address"
        },
        {
          "internalType": "uint256",
          "name": "tokenId",
          "type": "uint256"
        }
      ],
      "name": "safeTransferFrom",
      "outputs": [],
      "stateMutability": "nonpayable",
      "type": "function"
    },
    {
      "inputs": [
        {
          "internalType": "address",
          "name": "from",
          "type": "address"
        },
        {
          "internalType": "address",
          "name": "to",
          "type": "address"
        },
        {
          "internalType": "uint256",
          "name": "tokenId",
          "type": "uint256"
        },
        {
          "internalType": "bytes",
          "name": "_data",
          "type": "bytes"
        }
      ],
      "name": "safeTransferFrom",
      "outputs": [],
      "stateMutability": "nonpayable",
      "type": "function"
    },
    {
      "inputs": [
        {
          "internalType": "address",
          "name": "from",
          "type": "address"
        },
        {
          "internalType": "address",
          "name": "to",
          "type": "address"
        },
        {
          "internalType": "uint256",
          "name": "tokenId",
          "type": "uint256"
        }
      ],
      "name": "transferFrom",
      "outputs": [],
      "stateMutability": "nonpayable",
      "type": "function"
    }
  ],
  "bytecode": "0x60806040523480156200001157600080fd5b5060405162004ff938038062004ff9833981810160405281019062000037919062000692565b6040518060400160405280600d81526020017f566972696469616e205061636b000000000000000000000000000000000000008152506040518060400160405280600281526020017f56500000000000000000000000000000000000000000000000000000000000008152508160009080519060200190620000bb929190620005cb565b508060019080519060200190620000d4929190620005cb565b505050620000f7620000eb620004fd60201b60201c565b6200050560201b60201c565b600073ffffffffffffffffffffffffffffffffffffffff168173ffffffffffffffffffffffffffffffffffffffff1614156200013257600080fd5b80600e60006101000a81548173ffffffffffffffffffffffffffffffffffffffff021916908373ffffffffffffffffffffffffffffffffffffffff160217905550600e60009054906101000a900473ffffffffffffffffffffffffffffffffffffffff16600f60006101000a81548173ffffffffffffffffffffffffffffffffffffffff021916908373ffffffffffffffffffffffffffffffffffffffff1602179055506019600a60008081526020019081526020016000206000808152602001908152602001600020819055506064600a60008081526020019081526020016000206000600181526020019081526020016000208190555061012c600a6000808152602001908152602001600020600060028152602001908152602001600020819055506103e8600a6000808152602001908152602001600020600060038152602001908152602001600020819055506003600b6000808152602001908152602001600020819055506001600a6000600181526020019081526020016000206000808152602001908152602001600020819055506032600a6000600181526020019081526020016000206000600181526020019081526020016000208190555060c8600a600060018152602001908152602001600020600060028152602001908152602001600020819055506103e8600a600060018152602001908152602001600020600060038152602001908152602001600020819055506003600b6000808152602001908152602001600020819055506000600a6000600181526020019081526020016000206000808152602001908152602001600020819055506032600a600060018152602001908152602001600020600060018152602001908152602001600020819055506064600a600060018152602001908152602001600020600060028152602001908152602001600020819055506103e8600a600060018152602001908152602001600020600060038152602001908152602001600020819055506003600b6000808152602001908152602001600020819055506000600a600060028152602001908152602001600020600080815260200190815260200160002081905550600a80600060028152602001908152602001600020600060018152602001908152602001600020819055506032600a600060028152602001908152602001600020600060028152602001908152602001600020819055506103e8600a600060028152602001908152602001600020600060038152602001908152602001600020819055506003600b600080815260200190815260200160002081905550506200077c565b600033905090565b6000600660009054906101000a900473ffffffffffffffffffffffffffffffffffffffff16905081600660006101000a81548173ffffffffffffffffffffffffffffffffffffffff021916908373ffffffffffffffffffffffffffffffffffffffff1602179055508173ffffffffffffffffffffffffffffffffffffffff168173ffffffffffffffffffffffffffffffffffffffff167f8be0079c531659141344cd1fd0a4f28419497f9722a3daafe3b4186f6b6457e060405160405180910390a35050565b828054620005d990620006f8565b90600052602060002090601f016020900481019282620005fd576000855562000649565b82601f106200061857805160ff191683800117855562000649565b8280016001018555821562000649579182015b82811115620006485782518255916020019190600101906200062b565b5b5090506200065891906200065c565b5090565b5b80821115620006775760008160009055506001016200065d565b5090565b6000815190506200068c8162000762565b92915050565b600060208284031215620006ab57620006aa6200075d565b5b6000620006bb848285016200067b565b91505092915050565b6000620006d182620006d8565b9050919050565b600073ffffffffffffffffffffffffffffffffffffffff82169050919050565b600060028204905060018216806200071157607f821691505b602082108114156200072857620007276200072e565b5b50919050565b7f4e487b7100000000000000000000000000000000000000000000000000000000600052602260045260246000fd5b600080fd5b6200076d81620006c4565b81146200077957600080fd5b50565b61486d806200078c6000396000f3fe6080604052600436106101815760003560e01c8063715018a6116100d1578063a80f1e9c1161008a578063c87b56dd11610064578063c87b56dd1461056f578063d0def521146105ac578063e985e9c5146105d5578063f2fde38b1461061257610181565b8063a80f1e9c146104e0578063b88d4fde14610509578063bed34bba1461053257610181565b8063715018a6146103e25780638bfaf101146103f95780638da5cb5b1461043657806395d89b4114610461578063a22cb4651461048c578063a3524a04146104b557610181565b806342842e0e1161013e57806350a88c7e1161011857806350a88c7e1461031657806355f804b31461033f5780636352211e1461036857806370a08231146103a557610181565b806342842e0e1461029957806342966c68146102c25780634c0eb7d9146102eb57610181565b806301ffc9a71461018657806306fdde03146101c3578063081812fc146101ee578063095ea7b31461022b5780630e0659311461025457806323b872dd14610270575b600080fd5b34801561019257600080fd5b506101ad60048036038101906101a891906134bc565b61063b565b6040516101ba9190613bba565b60405180910390f35b3480156101cf57600080fd5b506101d861071d565b6040516101e59190613bd5565b60405180910390f35b3480156101fa57600080fd5b5061021560048036038101906102109190613633565b6107af565b6040516102229190613b01565b60405180910390f35b34801561023757600080fd5b50610252600480360381019061024d919061347c565b610834565b005b61026e600480360381019061026991906135d7565b61094c565b005b34801561027c57600080fd5b506102976004803603810190610292919061327f565b610a24565b005b3480156102a557600080fd5b506102c060048036038101906102bb919061327f565b610cd3565b005b3480156102ce57600080fd5b506102e960048036038101906102e49190613633565b610fad565b005b3480156102f757600080fd5b50610300610fcc565b60405161030d9190613b98565b60405180910390f35b34801561032257600080fd5b5061033d60048036038101906103389190613633565b611067565b005b34801561034b57600080fd5b5061036660048036038101906103619190613516565b611566565b005b34801561037457600080fd5b5061038f600480360381019061038a9190613633565b6115fc565b60405161039c9190613b01565b60405180910390f35b3480156103b157600080fd5b506103cc60048036038101906103c79190613212565b6116ae565b6040516103d99190613e17565b60405180910390f35b3480156103ee57600080fd5b506103f7611766565b005b34801561040557600080fd5b50610420600480360381019061041b91906133f1565b6117ee565b60405161042d9190613e17565b60405180910390f35b34801561044257600080fd5b5061044b61189b565b6040516104589190613b01565b60405180910390f35b34801561046d57600080fd5b506104766118c5565b6040516104839190613bd5565b60405180910390f35b34801561049857600080fd5b506104b360048036038101906104ae9190613355565b611957565b005b3480156104c157600080fd5b506104ca611ad8565b6040516104d79190613b01565b60405180910390f35b3480156104ec57600080fd5b5061050760048036038101906105029190613660565b611afe565b005b34801561051557600080fd5b50610530600480360381019061052b91906132d2565b611ba8565b005b34801561053e57600080fd5b506105596004803603810190610554919061355f565b611c0a565b6040516105669190613bba565b60405180910390f35b34801561057b57600080fd5b5061059660048036038101906105919190613633565b611c63565b6040516105a39190613bd5565b60405180910390f35b3480156105b857600080fd5b506105d360048036038101906105ce9190613395565b611dd6565b005b3480156105e157600080fd5b506105fc60048036038101906105f7919061323f565b611f15565b6040516106099190613bba565b60405180910390f35b34801561061e57600080fd5b5061063960048036038101906106349190613212565b611fa9565b005b60007f80ac58cd000000000000000000000000000000000000000000000000000000007bffffffffffffffffffffffffffffffffffffffffffffffffffffffff1916827bffffffffffffffffffffffffffffffffffffffffffffffffffffffff1916148061070657507f5b5e139f000000000000000000000000000000000000000000000000000000007bffffffffffffffffffffffffffffffffffffffffffffffffffffffff1916827bffffffffffffffffffffffffffffffffffffffffffffffffffffffff1916145b806107165750610715826120a1565b5b9050919050565b60606000805461072c906140b3565b80601f0160208091040260200160405190810160405280929190818152602001828054610758906140b3565b80156107a55780601f1061077a576101008083540402835291602001916107a5565b820191906000526020600020905b81548152906001019060200180831161078857829003601f168201915b5050505050905090565b60006107ba8261210b565b6107f9576040517f08c379a00000000000000000000000000000000000000000000000000000000081526004016107f090613d37565b60405180910390fd5b6004600083815260200190815260200160002060009054906101000a900473ffffffffffffffffffffffffffffffffffffffff169050919050565b600061083f826115fc565b90508073ffffffffffffffffffffffffffffffffffffffff168373ffffffffffffffffffffffffffffffffffffffff1614156108b0576040517f08c379a00000000000000000000000000000000000000000000000000000000081526004016108a790613dd7565b60405180910390fd5b8073ffffffffffffffffffffffffffffffffffffffff166108cf612177565b73ffffffffffffffffffffffffffffffffffffffff1614806108fe57506108fd816108f8612177565b611f15565b5b61093d576040517f08c379a000000000000000000000000000000000000000000000000000000000815260040161093490613cb7565b60405180910390fd5b610947838361217f565b505050565b610954612177565b73ffffffffffffffffffffffffffffffffffffffff1661097261189b565b73ffffffffffffffffffffffffffffffffffffffff16146109c8576040517f08c379a00000000000000000000000000000000000000000000000000000000081526004016109bf90613d77565b60405180910390fd5b600d81815481106109dc576109db6142a4565b5b9060005260206000200182908060018154018082558091505060019003906000526020600020016000909190919091509080519060200190610a1f929190612f62565b505050565b60005b601260003373ffffffffffffffffffffffffffffffffffffffff1673ffffffffffffffffffffffffffffffffffffffff16815260200190815260200160002080549050811015610c5c576000601260003373ffffffffffffffffffffffffffffffffffffffff1673ffffffffffffffffffffffffffffffffffffffff1681526020019081526020016000208281548110610ac457610ac36142a4565b5b9060005260206000200154905082811415610c4857601260003373ffffffffffffffffffffffffffffffffffffffff1673ffffffffffffffffffffffffffffffffffffffff1681526020019081526020016000206001601260003373ffffffffffffffffffffffffffffffffffffffff1673ffffffffffffffffffffffffffffffffffffffff16815260200190815260200160002080549050610b679190613fbc565b81548110610b7857610b776142a4565b5b9060005260206000200154601260003373ffffffffffffffffffffffffffffffffffffffff1673ffffffffffffffffffffffffffffffffffffffff1681526020019081526020016000208381548110610bd457610bd36142a4565b5b9060005260206000200181905550601260003373ffffffffffffffffffffffffffffffffffffffff1673ffffffffffffffffffffffffffffffffffffffff168152602001908152602001600020805480610c3157610c30614275565b5b600190038181906000526020600020016000905590555b508080610c5490614116565b915050610a27565b50601260008373ffffffffffffffffffffffffffffffffffffffff1673ffffffffffffffffffffffffffffffffffffffff168152602001908152602001600020819080600181540180825580915050600190039060005260206000200160009091909190915055610cce838383612238565b505050565b6011600082815260200190815260200160002060009054906101000a900460ff1615610cfe57600080fd5b60005b601260003373ffffffffffffffffffffffffffffffffffffffff1673ffffffffffffffffffffffffffffffffffffffff16815260200190815260200160002080549050811015610f36576000601260003373ffffffffffffffffffffffffffffffffffffffff1673ffffffffffffffffffffffffffffffffffffffff1681526020019081526020016000208281548110610d9e57610d9d6142a4565b5b9060005260206000200154905082811415610f2257601260003373ffffffffffffffffffffffffffffffffffffffff1673ffffffffffffffffffffffffffffffffffffffff1681526020019081526020016000206001601260003373ffffffffffffffffffffffffffffffffffffffff1673ffffffffffffffffffffffffffffffffffffffff16815260200190815260200160002080549050610e419190613fbc565b81548110610e5257610e516142a4565b5b9060005260206000200154601260003373ffffffffffffffffffffffffffffffffffffffff1673ffffffffffffffffffffffffffffffffffffffff1681526020019081526020016000208381548110610eae57610ead6142a4565b5b9060005260206000200181905550601260003373ffffffffffffffffffffffffffffffffffffffff1673ffffffffffffffffffffffffffffffffffffffff168152602001908152602001600020805480610f0b57610f0a614275565b5b600190038181906000526020600020016000905590555b508080610f2e90614116565b915050610d01565b50601260008373ffffffffffffffffffffffffffffffffffffffff1673ffffffffffffffffffffffffffffffffffffffff168152602001908152602001600020819080600181540180825580915050600190039060005260206000200160009091909190915055610fa8838383612298565b505050565b610fb733826122b8565b610fc057600080fd5b610fc981612396565b50565b60606000601260003373ffffffffffffffffffffffffffffffffffffffff1673ffffffffffffffffffffffffffffffffffffffff16815260200190815260200160002080548060200260200160405190810160405280929190818152602001828054801561105957602002820191906000526020600020905b815481526020019060010190808311611045575b505050505090508091505090565b61107133826122b8565b61107a57600080fd5b6000600c600083815260200190815260200160002054905060005b600b6000838152602001908152602001600020548160ff1610156115585760006110db6110c36103e86124a7565b600a6000868152602001908152602001600020612508565b905060006111156001600d84815481106110f8576110f76142a4565b5b90600052602060002001805490506111109190613fbc565b6124a7565b90506000600d838154811061112d5761112c6142a4565b5b906000526020600020018281548110611149576111486142a4565b5b90600052602060002001805461115e906140b3565b80601f016020809104026020016040519081016040528092919081815260200182805461118a906140b3565b80156111d75780601f106111ac576101008083540402835291602001916111d7565b820191906000526020600020905b8154815290600101906020018083116111ba57829003601f168201915b50505050509050600f60009054906101000a900473ffffffffffffffffffffffffffffffffffffffff1673ffffffffffffffffffffffffffffffffffffffff1663d0def52133836040518363ffffffff1660e01b815260040161123b929190613b68565b600060405180830381600087803b15801561125557600080fd5b505af1158015611269573d6000803e3d6000fd5b505050506000600d8481548110611283576112826142a4565b5b90600052602060002001805480602002602001604051908101604052809291908181526020016000905b828210156113595783829060005260206000200180546112cc906140b3565b80601f01602080910402602001604051908101604052809291908181526020018280546112f8906140b3565b80156113455780601f1061131a57610100808354040283529160200191611345565b820191906000526020600020905b81548152906001019060200180831161132857829003601f168201915b5050505050815260200190600101906112ad565b50505050905060005b600d8581548110611376576113756142a4565b5b9060005260206000200180549050811015611540576000600d86815481106113a1576113a06142a4565b5b9060005260206000200182815481106113bd576113bc6142a4565b5b9060005260206000200180546113d2906140b3565b80601f01602080910402602001604051908101604052809291908181526020018280546113fe906140b3565b801561144b5780601f106114205761010080835404028352916020019161144b565b820191906000526020600020905b81548152906001019060200180831161142e57829003601f168201915b5050505050905061145c8185611c0a565b1561152c5782600184516114709190613fbc565b81518110611481576114806142a4565b5b602002602001015183838151811061149c5761149b6142a4565b5b602002602001018190525082600d87815481106114bc576114bb6142a4565b5b9060005260206000200190805190602001906114d9929190612fe8565b50600d86815481106114ee576114ed6142a4565b5b9060005260206000200180548061150857611507614275565b5b6001900381819060005260206000200160006115249190613048565b905550611540565b50808061153890614116565b915050611362565b505050505080806115509061415f565b915050611095565b5061156282610fad565b5050565b61156e612177565b73ffffffffffffffffffffffffffffffffffffffff1661158c61189b565b73ffffffffffffffffffffffffffffffffffffffff16146115e2576040517f08c379a00000000000000000000000000000000000000000000000000000000081526004016115d990613d77565b60405180910390fd5b80601390805190602001906115f8929190612f62565b5050565b6000806002600084815260200190815260200160002060009054906101000a900473ffffffffffffffffffffffffffffffffffffffff169050600073ffffffffffffffffffffffffffffffffffffffff168173ffffffffffffffffffffffffffffffffffffffff1614156116a5576040517f08c379a000000000000000000000000000000000000000000000000000000000815260040161169c90613cf7565b60405180910390fd5b80915050919050565b60008073ffffffffffffffffffffffffffffffffffffffff168273ffffffffffffffffffffffffffffffffffffffff16141561171f576040517f08c379a000000000000000000000000000000000000000000000000000000000815260040161171690613cd7565b60405180910390fd5b600360008373ffffffffffffffffffffffffffffffffffffffff1673ffffffffffffffffffffffffffffffffffffffff168152602001908152602001600020549050919050565b61176e612177565b73ffffffffffffffffffffffffffffffffffffffff1661178c61189b565b73ffffffffffffffffffffffffffffffffffffffff16146117e2576040517f08c379a00000000000000000000000000000000000000000000000000000000081526004016117d990613d77565b60405180910390fd5b6117ec6000612563565b565b600060016009846040516118029190613a89565b908152602001604051809103902060009054906101000a900460ff1660ff16141561182c57600080fd5b600160098460405161183e9190613a89565b908152602001604051809103902060006101000a81548160ff021916908360ff16021790555061186e6007612629565b600061187a600761263f565b9050611886858261264d565b611890818461281b565b809150509392505050565b6000600660009054906101000a900473ffffffffffffffffffffffffffffffffffffffff16905090565b6060600180546118d4906140b3565b80601f0160208091040260200160405190810160405280929190818152602001828054611900906140b3565b801561194d5780601f106119225761010080835404028352916020019161194d565b820191906000526020600020905b81548152906001019060200180831161193057829003601f168201915b5050505050905090565b61195f612177565b73ffffffffffffffffffffffffffffffffffffffff168273ffffffffffffffffffffffffffffffffffffffff1614156119cd576040517f08c379a00000000000000000000000000000000000000000000000000000000081526004016119c490613c77565b60405180910390fd5b80600560006119da612177565b73ffffffffffffffffffffffffffffffffffffffff1673ffffffffffffffffffffffffffffffffffffffff16815260200190815260200160002060008473ffffffffffffffffffffffffffffffffffffffff1673ffffffffffffffffffffffffffffffffffffffff16815260200190815260200160002060006101000a81548160ff0219169083151502179055508173ffffffffffffffffffffffffffffffffffffffff16611a87612177565b73ffffffffffffffffffffffffffffffffffffffff167f17307eab39ab6107e8899845ad3d59bd9653f200f220920489ca2b5937696c3183604051611acc9190613bba565b60405180910390a35050565b600e60009054906101000a900473ffffffffffffffffffffffffffffffffffffffff1681565b611b06612177565b73ffffffffffffffffffffffffffffffffffffffff16611b2461189b565b73ffffffffffffffffffffffffffffffffffffffff1614611b7a576040517f08c379a0000000000000000000000000000000000000000000000000000000008152600401611b7190613d77565b60405180910390fd5b80600a6000858152602001908152602001600020600084815260200190815260200160002081905550505050565b611bb9611bb3612177565b836122b8565b611bf8576040517f08c379a0000000000000000000000000000000000000000000000000000000008152600401611bef90613df7565b60405180910390fd5b611c048484848461288f565b50505050565b600081604051602001611c1d9190613a89565b6040516020818303038152906040528051906020012083604051602001611c449190613a89565b6040516020818303038152906040528051906020012014905092915050565b6060611c6e8261210b565b611cad576040517f08c379a0000000000000000000000000000000000000000000000000000000008152600401611ca490613db7565b60405180910390fd5b6000601060008481526020019081526020016000208054611ccd906140b3565b80601f0160208091040260200160405190810160405280929190818152602001828054611cf9906140b3565b8015611d465780601f10611d1b57610100808354040283529160200191611d46565b820191906000526020600020905b815481529060010190602001808311611d2957829003601f168201915b505050505090506000611d576128eb565b9050600081511415611d6d578192505050611dd1565b600082511115611da2578082604051602001611d8a929190613aa0565b60405160208183030381529060405292505050611dd1565b80611dac8561297d565b604051602001611dbd929190613aa0565b604051602081830303815290604052925050505b919050565b611dde612177565b73ffffffffffffffffffffffffffffffffffffffff16611dfc61189b565b73ffffffffffffffffffffffffffffffffffffffff1614611e52576040517f08c379a0000000000000000000000000000000000000000000000000000000008152600401611e4990613d77565b60405180910390fd5b611e5c6007612629565b6000611e68600761263f565b9050611e748382612ade565b601260008473ffffffffffffffffffffffffffffffffffffffff1673ffffffffffffffffffffffffffffffffffffffff16815260200190815260200160002081908060018154018082558091505060019003906000526020600020016000909190919091505560006011600083815260200190815260200160002060006101000a81548160ff021916908315150217905550611f10818361281b565b505050565b6000600560008473ffffffffffffffffffffffffffffffffffffffff1673ffffffffffffffffffffffffffffffffffffffff16815260200190815260200160002060008373ffffffffffffffffffffffffffffffffffffffff1673ffffffffffffffffffffffffffffffffffffffff16815260200190815260200160002060009054906101000a900460ff16905092915050565b611fb1612177565b73ffffffffffffffffffffffffffffffffffffffff16611fcf61189b565b73ffffffffffffffffffffffffffffffffffffffff1614612025576040517f08c379a000000000000000000000000000000000000000000000000000000000815260040161201c90613d77565b60405180910390fd5b600073ffffffffffffffffffffffffffffffffffffffff168173ffffffffffffffffffffffffffffffffffffffff161415612095576040517f08c379a000000000000000000000000000000000000000000000000000000000815260040161208c90613c17565b60405180910390fd5b61209e81612563565b50565b60007f01ffc9a7000000000000000000000000000000000000000000000000000000007bffffffffffffffffffffffffffffffffffffffffffffffffffffffff1916827bffffffffffffffffffffffffffffffffffffffffffffffffffffffff1916149050919050565b60008073ffffffffffffffffffffffffffffffffffffffff166002600084815260200190815260200160002060009054906101000a900473ffffffffffffffffffffffffffffffffffffffff1673ffffffffffffffffffffffffffffffffffffffff1614159050919050565b600033905090565b816004600083815260200190815260200160002060006101000a81548173ffffffffffffffffffffffffffffffffffffffff021916908373ffffffffffffffffffffffffffffffffffffffff160217905550808273ffffffffffffffffffffffffffffffffffffffff166121f2836115fc565b73ffffffffffffffffffffffffffffffffffffffff167f8c5be1e5ebec7d5bd14f71427d1e84f3dd0314c0f7b2291e5b200ac8c7c3b92560405160405180910390a45050565b612249612243612177565b826122b8565b612288576040517f08c379a000000000000000000000000000000000000000000000000000000000815260040161227f90613df7565b60405180910390fd5b612293838383612afc565b505050565b6122b383838360405180602001604052806000815250611ba8565b505050565b60006122c38261210b565b612302576040517f08c379a00000000000000000000000000000000000000000000000000000000081526004016122f990613c97565b60405180910390fd5b600061230d836115fc565b90508073ffffffffffffffffffffffffffffffffffffffff168473ffffffffffffffffffffffffffffffffffffffff16148061237c57508373ffffffffffffffffffffffffffffffffffffffff16612364846107af565b73ffffffffffffffffffffffffffffffffffffffff16145b8061238d575061238c8185611f15565b5b91505092915050565b60006123a1826115fc565b90506123af81600084612d58565b6123ba60008361217f565b6001600360008373ffffffffffffffffffffffffffffffffffffffff1673ffffffffffffffffffffffffffffffffffffffff168152602001908152602001600020600082825461240a9190613fbc565b925050819055506002600083815260200190815260200160002060006101000a81549073ffffffffffffffffffffffffffffffffffffffff021916905581600073ffffffffffffffffffffffffffffffffffffffff168273ffffffffffffffffffffffffffffffffffffffff167fddf252ad1be2c89b69c2b068fc378daa952ba7f163c4a11628f55a4df523b3ef60405160405180910390a45050565b6000808242336014546040516020016124c293929190613ac4565b6040516020818303038152906040528051906020012060001c6124e591906141b7565b9050601460008154809291906124fa90614116565b919050555080915050919050565b600080600090505b600d805490508160ff16101561255b578260008260ff168152602001908152602001600020548411612548578060ff1691505061255d565b80806125539061415f565b915050612510565b505b92915050565b6000600660009054906101000a900473ffffffffffffffffffffffffffffffffffffffff16905081600660006101000a81548173ffffffffffffffffffffffffffffffffffffffff021916908373ffffffffffffffffffffffffffffffffffffffff1602179055508173ffffffffffffffffffffffffffffffffffffffff168173ffffffffffffffffffffffffffffffffffffffff167f8be0079c531659141344cd1fd0a4f28419497f9722a3daafe3b4186f6b6457e060405160405180910390a35050565b6001816000016000828254019250508190555050565b600081600001549050919050565b600073ffffffffffffffffffffffffffffffffffffffff168273ffffffffffffffffffffffffffffffffffffffff1614156126bd576040517f08c379a00000000000000000000000000000000000000000000000000000000081526004016126b490613d17565b60405180910390fd5b6126c68161210b565b15612706576040517f08c379a00000000000000000000000000000000000000000000000000000000081526004016126fd90613c37565b60405180910390fd5b61271260008383612d58565b6001600360008473ffffffffffffffffffffffffffffffffffffffff1673ffffffffffffffffffffffffffffffffffffffff16815260200190815260200160002060008282546127629190613f35565b92505081905550816002600083815260200190815260200160002060006101000a81548173ffffffffffffffffffffffffffffffffffffffff021916908373ffffffffffffffffffffffffffffffffffffffff160217905550808273ffffffffffffffffffffffffffffffffffffffff16600073ffffffffffffffffffffffffffffffffffffffff167fddf252ad1be2c89b69c2b068fc378daa952ba7f163c4a11628f55a4df523b3ef60405160405180910390a45050565b6128248261210b565b612863576040517f08c379a000000000000000000000000000000000000000000000000000000000815260040161285a90613d57565b60405180910390fd5b8060106000848152602001908152602001600020908051906020019061288a929190612f62565b505050565b61289a848484612afc565b6128a684848484612d5d565b6128e5576040517f08c379a00000000000000000000000000000000000000000000000000000000081526004016128dc90613bf7565b60405180910390fd5b50505050565b6060601380546128fa906140b3565b80601f0160208091040260200160405190810160405280929190818152602001828054612926906140b3565b80156129735780601f1061294857610100808354040283529160200191612973565b820191906000526020600020905b81548152906001019060200180831161295657829003601f168201915b5050505050905090565b606060008214156129c5576040518060400160405280600181526020017f30000000000000000000000000000000000000000000000000000000000000008152509050612ad9565b600082905060005b600082146129f75780806129e090614116565b915050600a826129f09190613f8b565b91506129cd565b60008167ffffffffffffffff811115612a1357612a126142d3565b5b6040519080825280601f01601f191660200182016040528015612a455781602001600182028036833780820191505090505b5090505b60008514612ad257600182612a5e9190613fbc565b9150600a85612a6d91906141b7565b6030612a799190613f35565b60f81b818381518110612a8f57612a8e6142a4565b5b60200101907effffffffffffffffffffffffffffffffffffffffffffffffffffffffffffff1916908160001a905350600a85612acb9190613f8b565b9450612a49565b8093505050505b919050565b612af8828260405180602001604052806000815250612ef4565b5050565b8273ffffffffffffffffffffffffffffffffffffffff16612b1c826115fc565b73ffffffffffffffffffffffffffffffffffffffff1614612b72576040517f08c379a0000000000000000000000000000000000000000000000000000000008152600401612b6990613d97565b60405180910390fd5b600073ffffffffffffffffffffffffffffffffffffffff168273ffffffffffffffffffffffffffffffffffffffff161415612be2576040517f08c379a0000000000000000000000000000000000000000000000000000000008152600401612bd990613c57565b60405180910390fd5b612bed838383612d58565b612bf860008261217f565b6001600360008573ffffffffffffffffffffffffffffffffffffffff1673ffffffffffffffffffffffffffffffffffffffff1681526020019081526020016000206000828254612c489190613fbc565b925050819055506001600360008473ffffffffffffffffffffffffffffffffffffffff1673ffffffffffffffffffffffffffffffffffffffff1681526020019081526020016000206000828254612c9f9190613f35565b92505081905550816002600083815260200190815260200160002060006101000a81548173ffffffffffffffffffffffffffffffffffffffff021916908373ffffffffffffffffffffffffffffffffffffffff160217905550808273ffffffffffffffffffffffffffffffffffffffff168473ffffffffffffffffffffffffffffffffffffffff167fddf252ad1be2c89b69c2b068fc378daa952ba7f163c4a11628f55a4df523b3ef60405160405180910390a4505050565b505050565b6000612d7e8473ffffffffffffffffffffffffffffffffffffffff16612f4f565b15612ee7578373ffffffffffffffffffffffffffffffffffffffff1663150b7a02612da7612177565b8786866040518563ffffffff1660e01b8152600401612dc99493929190613b1c565b602060405180830381600087803b158015612de357600080fd5b505af1925050508015612e1457506040513d601f19601f82011682018060405250810190612e1191906134e9565b60015b612e97573d8060008114612e44576040519150601f19603f3d011682016040523d82523d6000602084013e612e49565b606091505b50600081511415612e8f576040517f08c379a0000000000000000000000000000000000000000000000000000000008152600401612e8690613bf7565b60405180910390fd5b805181602001fd5b63150b7a0260e01b7bffffffffffffffffffffffffffffffffffffffffffffffffffffffff1916817bffffffffffffffffffffffffffffffffffffffffffffffffffffffff191614915050612eec565b600190505b949350505050565b612efe838361264d565b612f0b6000848484612d5d565b612f4a576040517f08c379a0000000000000000000000000000000000000000000000000000000008152600401612f4190613bf7565b60405180910390fd5b505050565b600080823b905060008111915050919050565b828054612f6e906140b3565b90600052602060002090601f016020900481019282612f905760008555612fd7565b82601f10612fa957805160ff1916838001178555612fd7565b82800160010185558215612fd7579182015b82811115612fd6578251825591602001919060010190612fbb565b5b509050612fe49190613088565b5090565b828054828255906000526020600020908101928215613037579160200282015b82811115613036578251829080519060200190613026929190612f62565b5091602001919060010190613008565b5b50905061304491906130a5565b5090565b508054613054906140b3565b6000825580601f106130665750613085565b601f0160209004906000526020600020908101906130849190613088565b5b50565b5b808211156130a1576000816000905550600101613089565b5090565b5b808211156130c557600081816130bc9190613048565b506001016130a6565b5090565b60006130dc6130d784613e57565b613e32565b9050828152602081018484840111156130f8576130f7614307565b5b613103848285614071565b509392505050565b600061311e61311984613e88565b613e32565b90508281526020810184848401111561313a57613139614307565b5b613145848285614071565b509392505050565b60008135905061315c816147db565b92915050565b600081359050613171816147f2565b92915050565b60008135905061318681614809565b92915050565b60008151905061319b81614809565b92915050565b600082601f8301126131b6576131b5614302565b5b81356131c68482602086016130c9565b91505092915050565b600082601f8301126131e4576131e3614302565b5b81356131f484826020860161310b565b91505092915050565b60008135905061320c81614820565b92915050565b60006020828403121561322857613227614311565b5b60006132368482850161314d565b91505092915050565b6000806040838503121561325657613255614311565b5b60006132648582860161314d565b92505060206132758582860161314d565b9150509250929050565b60008060006060848603121561329857613297614311565b5b60006132a68682870161314d565b93505060206132b78682870161314d565b92505060406132c8868287016131fd565b9150509250925092565b600080600080608085870312156132ec576132eb614311565b5b60006132fa8782880161314d565b945050602061330b8782880161314d565b935050604061331c878288016131fd565b925050606085013567ffffffffffffffff81111561333d5761333c61430c565b5b613349878288016131a1565b91505092959194509250565b6000806040838503121561336c5761336b614311565b5b600061337a8582860161314d565b925050602061338b85828601613162565b9150509250929050565b600080604083850312156133ac576133ab614311565b5b60006133ba8582860161314d565b925050602083013567ffffffffffffffff8111156133db576133da61430c565b5b6133e7858286016131cf565b9150509250929050565b60008060006060848603121561340a57613409614311565b5b60006134188682870161314d565b935050602084013567ffffffffffffffff8111156134395761343861430c565b5b613445868287016131cf565b925050604084013567ffffffffffffffff8111156134665761346561430c565b5b613472868287016131cf565b9150509250925092565b6000806040838503121561349357613492614311565b5b60006134a18582860161314d565b92505060206134b2858286016131fd565b9150509250929050565b6000602082840312156134d2576134d1614311565b5b60006134e084828501613177565b91505092915050565b6000602082840312156134ff576134fe614311565b5b600061350d8482850161318c565b91505092915050565b60006020828403121561352c5761352b614311565b5b600082013567ffffffffffffffff81111561354a5761354961430c565b5b613556848285016131cf565b91505092915050565b6000806040838503121561357657613575614311565b5b600083013567ffffffffffffffff8111156135945761359361430c565b5b6135a0858286016131cf565b925050602083013567ffffffffffffffff8111156135c1576135c061430c565b5b6135cd858286016131cf565b9150509250929050565b600080604083850312156135ee576135ed614311565b5b600083013567ffffffffffffffff81111561360c5761360b61430c565b5b613618858286016131cf565b9250506020613629858286016131fd565b9150509250929050565b60006020828403121561364957613648614311565b5b6000613657848285016131fd565b91505092915050565b60008060006060848603121561367957613678614311565b5b6000613687868287016131fd565b9350506020613698868287016131fd565b92505060406136a9868287016131fd565b9150509250925092565b60006136bf8383613a54565b60208301905092915050565b6136d481613ff0565b82525050565b6136eb6136e682613ff0565b614189565b82525050565b60006136fc82613ec9565b6137068185613ef7565b935061371183613eb9565b8060005b8381101561374257815161372988826136b3565b975061373483613eea565b925050600181019050613715565b5085935050505092915050565b61375881614002565b82525050565b600061376982613ed4565b6137738185613f08565b9350613783818560208601614080565b61378c81614316565b840191505092915050565b60006137a282613edf565b6137ac8185613f19565b93506137bc818560208601614080565b6137c581614316565b840191505092915050565b60006137db82613edf565b6137e58185613f2a565b93506137f5818560208601614080565b80840191505092915050565b600061380e603283613f19565b915061381982614334565b604082019050919050565b6000613831602683613f19565b915061383c82614383565b604082019050919050565b6000613854601c83613f19565b915061385f826143d2565b602082019050919050565b6000613877602483613f19565b9150613882826143fb565b604082019050919050565b600061389a601983613f19565b91506138a58261444a565b602082019050919050565b60006138bd602c83613f19565b91506138c882614473565b604082019050919050565b60006138e0603883613f19565b91506138eb826144c2565b604082019050919050565b6000613903602a83613f19565b915061390e82614511565b604082019050919050565b6000613926602983613f19565b915061393182614560565b604082019050919050565b6000613949602083613f19565b9150613954826145af565b602082019050919050565b600061396c602c83613f19565b9150613977826145d8565b604082019050919050565b600061398f602c83613f19565b915061399a82614627565b604082019050919050565b60006139b2602083613f19565b91506139bd82614676565b602082019050919050565b60006139d5602983613f19565b91506139e08261469f565b604082019050919050565b60006139f8602f83613f19565b9150613a03826146ee565b604082019050919050565b6000613a1b602183613f19565b9150613a268261473d565b604082019050919050565b6000613a3e603183613f19565b9150613a498261478c565b604082019050919050565b613a5d8161405a565b82525050565b613a6c8161405a565b82525050565b613a83613a7e8261405a565b6141ad565b82525050565b6000613a9582846137d0565b915081905092915050565b6000613aac82856137d0565b9150613ab882846137d0565b91508190509392505050565b6000613ad08286613a72565b602082019150613ae082856136da565b601482019150613af08284613a72565b602082019150819050949350505050565b6000602082019050613b1660008301846136cb565b92915050565b6000608082019050613b3160008301876136cb565b613b3e60208301866136cb565b613b4b6040830185613a63565b8181036060830152613b5d818461375e565b905095945050505050565b6000604082019050613b7d60008301856136cb565b8181036020830152613b8f8184613797565b90509392505050565b60006020820190508181036000830152613bb281846136f1565b905092915050565b6000602082019050613bcf600083018461374f565b92915050565b60006020820190508181036000830152613bef8184613797565b905092915050565b60006020820190508181036000830152613c1081613801565b9050919050565b60006020820190508181036000830152613c3081613824565b9050919050565b60006020820190508181036000830152613c5081613847565b9050919050565b60006020820190508181036000830152613c708161386a565b9050919050565b60006020820190508181036000830152613c908161388d565b9050919050565b60006020820190508181036000830152613cb0816138b0565b9050919050565b60006020820190508181036000830152613cd0816138d3565b9050919050565b60006020820190508181036000830152613cf0816138f6565b9050919050565b60006020820190508181036000830152613d1081613919565b9050919050565b60006020820190508181036000830152613d308161393c565b9050919050565b60006020820190508181036000830152613d508161395f565b9050919050565b60006020820190508181036000830152613d7081613982565b9050919050565b60006020820190508181036000830152613d90816139a5565b9050919050565b60006020820190508181036000830152613db0816139c8565b9050919050565b60006020820190508181036000830152613dd0816139eb565b9050919050565b60006020820190508181036000830152613df081613a0e565b9050919050565b60006020820190508181036000830152613e1081613a31565b9050919050565b6000602082019050613e2c6000830184613a63565b92915050565b6000613e3c613e4d565b9050613e4882826140e5565b919050565b6000604051905090565b600067ffffffffffffffff821115613e7257613e716142d3565b5b613e7b82614316565b9050602081019050919050565b600067ffffffffffffffff821115613ea357613ea26142d3565b5b613eac82614316565b9050602081019050919050565b6000819050602082019050919050565b600081519050919050565b600081519050919050565b600081519050919050565b6000602082019050919050565b600082825260208201905092915050565b600082825260208201905092915050565b600082825260208201905092915050565b600081905092915050565b6000613f408261405a565b9150613f4b8361405a565b9250827fffffffffffffffffffffffffffffffffffffffffffffffffffffffffffffffff03821115613f8057613f7f6141e8565b5b828201905092915050565b6000613f968261405a565b9150613fa18361405a565b925082613fb157613fb0614217565b5b828204905092915050565b6000613fc78261405a565b9150613fd28361405a565b925082821015613fe557613fe46141e8565b5b828203905092915050565b6000613ffb8261403a565b9050919050565b60008115159050919050565b60007fffffffff0000000000000000000000000000000000000000000000000000000082169050919050565b600073ffffffffffffffffffffffffffffffffffffffff82169050919050565b6000819050919050565b600060ff82169050919050565b82818337600083830152505050565b60005b8381101561409e578082015181840152602081019050614083565b838111156140ad576000848401525b50505050565b600060028204905060018216806140cb57607f821691505b602082108114156140df576140de614246565b5b50919050565b6140ee82614316565b810181811067ffffffffffffffff8211171561410d5761410c6142d3565b5b80604052505050565b60006141218261405a565b91507fffffffffffffffffffffffffffffffffffffffffffffffffffffffffffffffff821415614154576141536141e8565b5b600182019050919050565b600061416a82614064565b915060ff82141561417e5761417d6141e8565b5b600182019050919050565b60006141948261419b565b9050919050565b60006141a682614327565b9050919050565b6000819050919050565b60006141c28261405a565b91506141cd8361405a565b9250826141dd576141dc614217565b5b828206905092915050565b7f4e487b7100000000000000000000000000000000000000000000000000000000600052601160045260246000fd5b7f4e487b7100000000000000000000000000000000000000000000000000000000600052601260045260246000fd5b7f4e487b7100000000000000000000000000000000000000000000000000000000600052602260045260246000fd5b7f4e487b7100000000000000000000000000000000000000000000000000000000600052603160045260246000fd5b7f4e487b7100000000000000000000000000000000000000000000000000000000600052603260045260246000fd5b7f4e487b7100000000000000000000000000000000000000000000000000000000600052604160045260246000fd5b600080fd5b600080fd5b600080fd5b600080fd5b6000601f19601f8301169050919050565b60008160601b9050919050565b7f4552433732313a207472616e7366657220746f206e6f6e20455243373231526560008201527f63656976657220696d706c656d656e7465720000000000000000000000000000602082015250565b7f4f776e61626c653a206e6577206f776e657220697320746865207a65726f206160008201527f6464726573730000000000000000000000000000000000000000000000000000602082015250565b7f4552433732313a20746f6b656e20616c7265616479206d696e74656400000000600082015250565b7f4552433732313a207472616e7366657220746f20746865207a65726f2061646460008201527f7265737300000000000000000000000000000000000000000000000000000000602082015250565b7f4552433732313a20617070726f766520746f2063616c6c657200000000000000600082015250565b7f4552433732313a206f70657261746f7220717565727920666f72206e6f6e657860008201527f697374656e7420746f6b656e0000000000000000000000000000000000000000602082015250565b7f4552433732313a20617070726f76652063616c6c6572206973206e6f74206f7760008201527f6e6572206e6f7220617070726f76656420666f7220616c6c0000000000000000602082015250565b7f4552433732313a2062616c616e636520717565727920666f7220746865207a6560008201527f726f206164647265737300000000000000000000000000000000000000000000602082015250565b7f4552433732313a206f776e657220717565727920666f72206e6f6e657869737460008201527f656e7420746f6b656e0000000000000000000000000000000000000000000000602082015250565b7f4552433732313a206d696e7420746f20746865207a65726f2061646472657373600082015250565b7f4552433732313a20617070726f76656420717565727920666f72206e6f6e657860008201527f697374656e7420746f6b656e0000000000000000000000000000000000000000602082015250565b7f4552433732314d657461646174613a2055524920736574206f66206e6f6e657860008201527f697374656e7420746f6b656e0000000000000000000000000000000000000000602082015250565b7f4f776e61626c653a2063616c6c6572206973206e6f7420746865206f776e6572600082015250565b7f4552433732313a207472616e73666572206f6620746f6b656e2074686174206960008201527f73206e6f74206f776e0000000000000000000000000000000000000000000000602082015250565b7f4552433732314d657461646174613a2055524920717565727920666f72206e6f60008201527f6e6578697374656e7420746f6b656e0000000000000000000000000000000000602082015250565b7f4552433732313a20617070726f76616c20746f2063757272656e74206f776e6560008201527f7200000000000000000000000000000000000000000000000000000000000000602082015250565b7f4552433732313a207472616e736665722063616c6c6572206973206e6f74206f60008201527f776e6572206e6f7220617070726f766564000000000000000000000000000000602082015250565b6147e481613ff0565b81146147ef57600080fd5b50565b6147fb81614002565b811461480657600080fd5b50565b6148128161400e565b811461481d57600080fd5b50565b6148298161405a565b811461483457600080fd5b5056fea264697066735822122084ebfe234b5e54d9997079387df539c936ff33c8a45c213658e2b8a931cfe31e64736f6c63430008070033",
  "immutableReferences": {},
  "source": "pragma solidity ^0.8.0;\n\nimport \"@openzeppelin/contracts/token/ERC721/ERC721.sol\";\nimport \"@openzeppelin/contracts/utils/Counters.sol\";\nimport \"@openzeppelin/contracts/access/Ownable.sol\";\n\nimport \"./RandomNumber.sol\";\nimport \"./ViridianNFT.sol\";\n\ncontract ViridianPack is ERC721, Ownable {\n\n    using Counters for Counters.Counter;\n    Counters.Counter private _tokenIds;\n    Counters.Counter private _unmintedTokenIds;\n    mapping(string => uint8) hashes;\n    mapping(uint256 => mapping(uint256 => uint256)) private rarityOdds;\n    mapping(uint256 => uint256) private numNFTs;\n    //mapping(uint256 => string) private unmintedURIs;\n    mapping(uint256 => uint256) tokenRarity;\n    string[][] private uriRarityPools;\n\n    address public viridianNFTAddr;\n\n    ViridianNFT vNFT;\n\n    using Strings for uint256;\n\n    constructor(address _viridianNFT) ERC721(\"Viridian Pack\", \"VP\") {\n\n        require(address(_viridianNFT) != address(0));\n\n        viridianNFTAddr = _viridianNFT;\n\n        vNFT = ViridianNFT(viridianNFTAddr);\n\n        //Set all beginning rarities\n\n        // Legendary rarity and cards in pack\n        rarityOdds[0][0] = 25;\n        rarityOdds[0][1] = 100;\n        rarityOdds[0][2] = 300;\n        rarityOdds[0][3] = 1000;\n        numNFTs[0] = 3;\n\n        // Mystical rarity and cards in pack\n        rarityOdds[1][0] = 1;\n        rarityOdds[1][1] = 50;\n        rarityOdds[1][2] = 200;\n        rarityOdds[1][3] = 1000;\n        numNFTs[0] = 3;\n\n        // Rare rarity and cards in pack\n        rarityOdds[1][0] = 0;\n        rarityOdds[1][1] = 50;\n        rarityOdds[1][2] = 100;\n        rarityOdds[1][3] = 1000;\n        numNFTs[0] = 3;\n\n        // Common rarity and cards in pack\n        rarityOdds[2][0] = 0;\n        rarityOdds[2][1] = 10;\n        rarityOdds[2][2] = 50;\n        rarityOdds[2][3] = 1000;\n        numNFTs[0] = 3;\n    }\n    \n    struct NFT {\n        uint256 id;\n        string uri;\n    }\n    \n    // Optional mapping for token URIs\n    mapping (uint256 => string) private _tokenURIs;\n\n    mapping (uint256 => bool) private _tokensListed;\n\n    mapping (address => uint256[]) private _ownedNFTs;\n\n    //address private viridianExchangeAddress;\n\n    // Base URI\n    string private _baseURIextended;\n    \n    function setBaseURI(string memory baseURI_) external onlyOwner() {\n        _baseURIextended = baseURI_;\n    }\n    \n    function _setTokenURI(uint256 tokenId, string memory _tokenURI) internal virtual {\n        require(_exists(tokenId), \"ERC721Metadata: URI set of nonexistent token\");\n        _tokenURIs[tokenId] = _tokenURI;\n    }\n    \n    function _baseURI() internal view virtual override returns (string memory) {\n        return _baseURIextended;\n    }\n    \n    function tokenURI(uint256 tokenId) public view virtual override returns (string memory) {\n        require(_exists(tokenId), \"ERC721Metadata: URI query for nonexistent token\");\n\n        string memory _tokenURI = _tokenURIs[tokenId];\n        string memory base = _baseURI();\n        \n        // If there is no base URI, return the token URI.\n        if (bytes(base).length == 0) {\n            return _tokenURI;\n        }\n        // If both are set, concatenate the baseURI and tokenURI (via abi.encodePacked).\n        if (bytes(_tokenURI).length > 0) {\n            return string(abi.encodePacked(base, _tokenURI));\n        }\n        // If there is a baseURI but no tokenURI, concatenate the tokenID to the baseURI.\n        return string(abi.encodePacked(base, tokenId.toString()));\n    }\n\n    function getOwnedNFTs() public view virtual returns (uint256[] memory) {\n        uint256[] memory _tokens = _ownedNFTs[msg.sender];\n        \n        return _tokens;\n    }\n\n    function setRarityOdds(uint256 _rarity, uint256 _rarityOdd, uint256 _newOdds) external onlyOwner() {\n        rarityOdds[_rarity][_rarityOdd] = _newOdds;\n    }\n\n    function mint(\n        address _to,\n        string memory tokenURI_\n    ) external onlyOwner() {\n        _tokenIds.increment();\n        uint256 _tokenId = _tokenIds.current();\n\n        _safeMint(_to, _tokenId);\n        _ownedNFTs[_to].push(_tokenId);\n        _tokensListed[_tokenId] = false;\n        _setTokenURI(_tokenId, tokenURI_);\n    }\n\n    //TODO: THIS IS NOT TO BE USED IN FINAL DEPLOYED IMPLEMENTATION, convert to LINK VRF for TESTNET and ESPECIALLY MAINNET!!!\n    uint nonce;\n\n\n    function random(uint range) internal returns (uint) {\n        uint randomnumber = uint(keccak256(abi.encodePacked(block.timestamp, msg.sender, nonce))) % range;\n        randomnumber = randomnumber;\n        nonce++;\n\n        return randomnumber;\n    }\n\n    function calculateWeightedOdds(uint256 randomNum, mapping(uint256 => uint256) storage rarityOdd) private view returns (uint) {\n        for (uint8 n = 0; n < uriRarityPools.length; n++) {\n            if (randomNum <= rarityOdd[n]) {\n                return n;\n            }\n        }\n    }\n\n    function softMintNFT(string memory uri, uint256 rarity) public onlyOwner() payable {\n        uriRarityPools[rarity].push(uri);\n    }\n\n    function compareStrings(string memory _s, string memory _s1) public pure returns (bool) {\n        return (keccak256(abi.encodePacked((_s))) == keccak256(abi.encodePacked((_s1))));\n    }\n\n    function openPack(uint256 _tokenId) public {\n        // Randomly \n        require(_isApprovedOrOwner(msg.sender, _tokenId));\n\n        uint256 tr = tokenRarity[_tokenId];\n\n        for (uint8 n = 0; n < numNFTs[tr]; n++) {\n            uint256 randIndexWithPercentOdds = calculateWeightedOdds(random(1000), rarityOdds[tr]);\n            uint256 randIndexInRarity = random(uriRarityPools[randIndexWithPercentOdds].length - 1);\n\n            string memory newURI = uriRarityPools[randIndexWithPercentOdds][randIndexInRarity];\n\n            vNFT.mint(msg.sender, newURI);\n\n            string[] memory curRarityPool = uriRarityPools[randIndexWithPercentOdds];\n            for (uint i = 0; i < uriRarityPools[randIndexWithPercentOdds].length; i++) {\n                string memory uri = uriRarityPools[randIndexWithPercentOdds][i];\n                if (compareStrings(uri, newURI)) {\n                    curRarityPool[i] = curRarityPool[curRarityPool.length - 1];\n                    uriRarityPools[randIndexWithPercentOdds] = curRarityPool;\n                    uriRarityPools[randIndexWithPercentOdds].pop();\n                    break;\n                }\n            }\n        }\n\n        burn(_tokenId);\n    }\n\n    function burn(uint256 tokenId) public {\n        require(_isApprovedOrOwner(msg.sender, tokenId));\n        _burn(tokenId);\n    }\n\n    function awardItem(address recipient, string memory hash, string memory metadata) public returns (uint256) {\n        require(hashes[hash] != 1);\n        hashes[hash] = 1;\n        _tokenIds.increment();\n        uint256 newItemId = _tokenIds.current();\n        _mint(recipient, newItemId);\n        _setTokenURI(newItemId, metadata);\n        return newItemId;\n    }\n\n    function safeTransferFrom(address from, address to, uint256 tokenId) public override {\n        require(!_tokensListed[tokenId]);\n        for (uint256 i = 0; i < _ownedNFTs[msg.sender].length; i++) {\n            uint256 ownedNFT = _ownedNFTs[msg.sender][i];\n            if (ownedNFT == tokenId) {\n                _ownedNFTs[msg.sender][i] = _ownedNFTs[msg.sender][_ownedNFTs[msg.sender].length - 1];\n                _ownedNFTs[msg.sender].pop();\n            }\n        }\n        _ownedNFTs[to].push(tokenId);\n\n        super.safeTransferFrom(from, to, tokenId);\n    }\n\n    function transferFrom(address from, address to, uint256 tokenId) public override {\n        for (uint256 i = 0; i < _ownedNFTs[msg.sender].length; i++) {\n            uint256 ownedNFT = _ownedNFTs[msg.sender][i];\n            if (ownedNFT == tokenId) {\n                _ownedNFTs[msg.sender][i] = _ownedNFTs[msg.sender][_ownedNFTs[msg.sender].length - 1];\n                _ownedNFTs[msg.sender].pop();\n            }\n        }\n        _ownedNFTs[to].push(tokenId);\n\n        super.transferFrom(from, to, tokenId);\n    }\n}",
  "sourcePath": "/Users/blakehatch/Viridian-Exchange-Contracts/contracts/ViridianPack.sol",
  "compiler": {
    "name": "solc",
    "version": "0.8.7+commit.e28d00a7.Emscripten.clang"
  },
  "schemaVersion": "3.4.1",
  "updatedAt": "2021-08-26T20:25:22.009Z",
  "networkType": "ethereum",
  "devdoc": {
    "kind": "dev",
    "methods": {
      "approve(address,uint256)": {
        "details": "See {IERC721-approve}."
      },
      "balanceOf(address)": {
        "details": "See {IERC721-balanceOf}."
      },
      "getApproved(uint256)": {
        "details": "See {IERC721-getApproved}."
      },
      "isApprovedForAll(address,address)": {
        "details": "See {IERC721-isApprovedForAll}."
      },
      "name()": {
        "details": "See {IERC721Metadata-name}."
      },
      "owner()": {
        "details": "Returns the address of the current owner."
      },
      "ownerOf(uint256)": {
        "details": "See {IERC721-ownerOf}."
      },
      "renounceOwnership()": {
        "details": "Leaves the contract without owner. It will not be possible to call `onlyOwner` functions anymore. Can only be called by the current owner. NOTE: Renouncing ownership will leave the contract without an owner, thereby removing any functionality that is only available to the owner."
      },
      "safeTransferFrom(address,address,uint256)": {
        "details": "See {IERC721-safeTransferFrom}."
      },
      "safeTransferFrom(address,address,uint256,bytes)": {
        "details": "See {IERC721-safeTransferFrom}."
      },
      "setApprovalForAll(address,bool)": {
        "details": "See {IERC721-setApprovalForAll}."
      },
      "supportsInterface(bytes4)": {
        "details": "See {IERC165-supportsInterface}."
      },
      "symbol()": {
        "details": "See {IERC721Metadata-symbol}."
      },
      "tokenURI(uint256)": {
        "details": "See {IERC721Metadata-tokenURI}."
      },
      "transferFrom(address,address,uint256)": {
        "details": "See {IERC721-transferFrom}."
      },
      "transferOwnership(address)": {
        "details": "Transfers ownership of the contract to a new account (`newOwner`). Can only be called by the current owner."
      }
    },
    "version": 1
  },
  "userdoc": {
    "kind": "user",
    "methods": {},
    "version": 1
  }
}