{
  "contractName": "ViridianExchange",
  "abi": [
    {
      "inputs": [
        {
          "internalType": "address",
          "name": "_viridianToken",
          "type": "address"
        },
        {
          "internalType": "address",
          "name": "_viridianNFT",
          "type": "address"
        }
      ],
      "stateMutability": "nonpayable",
      "type": "constructor"
    },
    {
      "anonymous": false,
      "inputs": [
        {
          "indexed": true,
          "internalType": "address",
          "name": "previousOwner",
          "type": "address"
        },
        {
          "indexed": true,
          "internalType": "address",
          "name": "newOwner",
          "type": "address"
        }
      ],
      "name": "OwnershipTransferred",
      "type": "event"
    },
    {
      "stateMutability": "payable",
      "type": "fallback",
      "payable": true
    },
    {
      "inputs": [],
      "name": "ETH",
      "outputs": [
        {
          "internalType": "address",
          "name": "",
          "type": "address"
        }
      ],
      "stateMutability": "view",
      "type": "function",
      "constant": true
    },
    {
      "inputs": [],
      "name": "owner",
      "outputs": [
        {
          "internalType": "address",
          "name": "",
          "type": "address"
        }
      ],
      "stateMutability": "view",
      "type": "function",
      "constant": true
    },
    {
      "inputs": [],
      "name": "renounceOwnership",
      "outputs": [],
      "stateMutability": "nonpayable",
      "type": "function"
    },
    {
      "inputs": [
        {
          "internalType": "address",
          "name": "newOwner",
          "type": "address"
        }
      ],
      "name": "transferOwnership",
      "outputs": [],
      "stateMutability": "nonpayable",
      "type": "function"
    },
    {
      "inputs": [
        {
          "internalType": "uint256",
          "name": "",
          "type": "uint256"
        }
      ],
      "name": "users",
      "outputs": [
        {
          "internalType": "address",
          "name": "wallet",
          "type": "address"
        },
        {
          "internalType": "string",
          "name": "displayName",
          "type": "string"
        },
        {
          "internalType": "string",
          "name": "coverPhotoURL",
          "type": "string"
        },
        {
          "internalType": "string",
          "name": "profilePhotoURL",
          "type": "string"
        },
        {
          "internalType": "string",
          "name": "bio",
          "type": "string"
        }
      ],
      "stateMutability": "view",
      "type": "function",
      "constant": true
    },
    {
      "inputs": [],
      "name": "viridianNFT",
      "outputs": [
        {
          "internalType": "address",
          "name": "",
          "type": "address"
        }
      ],
      "stateMutability": "view",
      "type": "function",
      "constant": true
    },
    {
      "inputs": [],
      "name": "viridianToken",
      "outputs": [
        {
          "internalType": "address",
          "name": "",
          "type": "address"
        }
      ],
      "stateMutability": "view",
      "type": "function",
      "constant": true
    },
    {
      "stateMutability": "payable",
      "type": "receive",
      "payable": true
    },
    {
      "inputs": [],
      "name": "getBalance",
      "outputs": [
        {
          "internalType": "uint256",
          "name": "",
          "type": "uint256"
        }
      ],
      "stateMutability": "view",
      "type": "function",
      "constant": true
    },
    {
      "inputs": [],
      "name": "getListings",
      "outputs": [
        {
          "internalType": "uint256[]",
          "name": "",
          "type": "uint256[]"
        }
      ],
      "stateMutability": "view",
      "type": "function",
      "constant": true
    },
    {
      "inputs": [
        {
          "internalType": "uint256",
          "name": "_listingId",
          "type": "uint256"
        }
      ],
      "name": "getListingFromId",
      "outputs": [
        {
          "components": [
            {
              "internalType": "uint256",
              "name": "listingId",
              "type": "uint256"
            },
            {
              "internalType": "uint256",
              "name": "tokenId",
              "type": "uint256"
            },
            {
              "internalType": "address",
              "name": "owner",
              "type": "address"
            },
            {
              "internalType": "uint256",
              "name": "price",
              "type": "uint256"
            },
            {
              "internalType": "bool",
              "name": "purchased",
              "type": "bool"
            },
            {
              "internalType": "uint256",
              "name": "royalty",
              "type": "uint256"
            },
            {
              "internalType": "bool",
              "name": "isAuction",
              "type": "bool"
            },
            {
              "internalType": "uint256",
              "name": "endTime",
              "type": "uint256"
            },
            {
              "components": [
                {
                  "internalType": "address",
                  "name": "owner",
                  "type": "address"
                },
                {
                  "internalType": "uint256",
                  "name": "amount",
                  "type": "uint256"
                },
                {
                  "internalType": "bool",
                  "name": "isVEXT",
                  "type": "bool"
                }
              ],
              "internalType": "struct ViridianExchange.Bid",
              "name": "largestBid",
              "type": "tuple"
            },
            {
              "internalType": "uint256[]",
              "name": "bidIds",
              "type": "uint256[]"
            },
            {
              "internalType": "bool",
              "name": "sold",
              "type": "bool"
            },
            {
              "internalType": "bool",
              "name": "isVEXT",
              "type": "bool"
            }
          ],
          "internalType": "struct ViridianExchange.Listing",
          "name": "",
          "type": "tuple"
        }
      ],
      "stateMutability": "view",
      "type": "function",
      "constant": true
    },
    {
      "inputs": [
        {
          "internalType": "uint256",
          "name": "_nftId",
          "type": "uint256"
        }
      ],
      "name": "getNftOwner",
      "outputs": [
        {
          "internalType": "address",
          "name": "",
          "type": "address"
        }
      ],
      "stateMutability": "view",
      "type": "function",
      "constant": true
    },
    {
      "inputs": [
        {
          "internalType": "address payable",
          "name": "_to",
          "type": "address"
        }
      ],
      "name": "sendEther",
      "outputs": [],
      "stateMutability": "payable",
      "type": "function",
      "payable": true
    },
    {
      "inputs": [
        {
          "internalType": "uint256",
          "name": "_nftId",
          "type": "uint256"
        },
        {
          "internalType": "uint256",
          "name": "_price",
          "type": "uint256"
        },
        {
          "internalType": "uint256",
          "name": "_royalty",
          "type": "uint256"
        },
        {
          "internalType": "bool",
          "name": "_isAuction",
          "type": "bool"
        },
        {
          "internalType": "uint256",
          "name": "_endTime",
          "type": "uint256"
        },
        {
          "internalType": "bool",
          "name": "_isVEXT",
          "type": "bool"
        }
      ],
      "name": "putUpForSale",
      "outputs": [],
      "stateMutability": "payable",
      "type": "function",
      "payable": true
    },
    {
      "inputs": [
        {
          "internalType": "uint256",
          "name": "_listingId",
          "type": "uint256"
        }
      ],
      "name": "pullFromSale",
      "outputs": [],
      "stateMutability": "nonpayable",
      "type": "function"
    },
    {
      "inputs": [
        {
          "internalType": "uint256",
          "name": "_listingId",
          "type": "uint256"
        }
      ],
      "name": "buyNFTWithETH",
      "outputs": [],
      "stateMutability": "payable",
      "type": "function",
      "payable": true
    },
    {
      "inputs": [
        {
          "internalType": "uint256",
          "name": "_listingId",
          "type": "uint256"
        }
      ],
      "name": "buyNFTWithVEXT",
      "outputs": [],
      "stateMutability": "payable",
      "type": "function",
      "payable": true
    },
    {
      "inputs": [
        {
          "internalType": "address",
          "name": "_to",
          "type": "address"
        },
        {
          "internalType": "uint256[]",
          "name": "_nftIds",
          "type": "uint256[]"
        },
        {
          "internalType": "uint256",
          "name": "_amount",
          "type": "uint256"
        },
        {
          "internalType": "uint256[]",
          "name": "_recNftIds",
          "type": "uint256[]"
        },
        {
          "internalType": "uint256",
          "name": "_recAmount",
          "type": "uint256"
        },
        {
          "internalType": "bool",
          "name": "isVEXT",
          "type": "bool"
        }
      ],
      "name": "makeOffer",
      "outputs": [],
      "stateMutability": "nonpayable",
      "type": "function"
    },
    {
      "inputs": [
        {
          "internalType": "uint256",
          "name": "_offerId",
          "type": "uint256"
        }
      ],
      "name": "cancelOffer",
      "outputs": [],
      "stateMutability": "nonpayable",
      "type": "function"
    },
    {
      "inputs": [
        {
          "internalType": "uint256",
          "name": "_offerId",
          "type": "uint256"
        }
      ],
      "name": "acceptOfferWithETH",
      "outputs": [],
      "stateMutability": "payable",
      "type": "function",
      "payable": true
    },
    {
      "inputs": [
        {
          "internalType": "uint256",
          "name": "_offerId",
          "type": "uint256"
        }
      ],
      "name": "acceptOfferWithVEXT",
      "outputs": [],
      "stateMutability": "nonpayable",
      "type": "function"
    },
    {
      "inputs": [
        {
          "internalType": "uint256",
          "name": "_listingId",
          "type": "uint256"
        },
        {
          "internalType": "uint256",
          "name": "_amount",
          "type": "uint256"
        }
      ],
      "name": "bidOnAuctionWithVEXT",
      "outputs": [],
      "stateMutability": "nonpayable",
      "type": "function"
    },
    {
      "inputs": [
        {
          "internalType": "uint256",
          "name": "_listingId",
          "type": "uint256"
        },
        {
          "internalType": "uint256",
          "name": "_amount",
          "type": "uint256"
        }
      ],
      "name": "bidOnAuctionWithETH",
      "outputs": [],
      "stateMutability": "nonpayable",
      "type": "function"
    }
  ],
  "bytecode": "0x60806040523480156200001157600080fd5b5060405162004e4638038062004e4683398181016040528101906200003791906200023a565b620000576200004b6200015760201b60201c565b6200015f60201b60201c565b600073ffffffffffffffffffffffffffffffffffffffff168273ffffffffffffffffffffffffffffffffffffffff1614156200009257600080fd5b600073ffffffffffffffffffffffffffffffffffffffff168173ffffffffffffffffffffffffffffffffffffffff161415620000cd57600080fd5b81600f60006101000a81548173ffffffffffffffffffffffffffffffffffffffff021916908373ffffffffffffffffffffffffffffffffffffffff16021790555080600d60006101000a81548173ffffffffffffffffffffffffffffffffffffffff021916908373ffffffffffffffffffffffffffffffffffffffff1602179055505050620002d4565b600033905090565b60008060009054906101000a900473ffffffffffffffffffffffffffffffffffffffff169050816000806101000a81548173ffffffffffffffffffffffffffffffffffffffff021916908373ffffffffffffffffffffffffffffffffffffffff1602179055508173ffffffffffffffffffffffffffffffffffffffff168173ffffffffffffffffffffffffffffffffffffffff167f8be0079c531659141344cd1fd0a4f28419497f9722a3daafe3b4186f6b6457e060405160405180910390a35050565b6000815190506200023481620002ba565b92915050565b60008060408385031215620002545762000253620002b5565b5b6000620002648582860162000223565b9250506020620002778582860162000223565b9150509250929050565b60006200028e8262000295565b9050919050565b600073ffffffffffffffffffffffffffffffffffffffff82169050919050565b600080fd5b620002c58162000281565b8114620002d157600080fd5b50565b614b6280620002e46000396000f3fe6080604052600436106101395760003560e01c80639cbccc2c116100ab578063bddb06f31161006f578063bddb06f3146103d4578063ec186db3146103fd578063ef706adf14610419578063f1b2d6a314610442578063f2f57e951461046d578063f2fde38b1461049857610140565b80639cbccc2c1461030d578063a19b56ac14610336578063ac0b27c214610373578063ac69ada71461038f578063aec99da2146103ab57610140565b8063715018a6116100fd578063715018a61461020f5780638322fff2146102265780638547cd16146102515780638ad2d5a71461027a5780638da5cb5b146102b75780639a701288146102e257610140565b806312065fe014610142578063273e287e1461016d578063365b98b2146101895780633d90636b146101ca57806348c981e2146101f357610140565b3661014057005b005b34801561014e57600080fd5b506101576104c1565b6040516101649190614596565b60405180910390f35b61018760048036038101906101829190613ebf565b6104c9565b005b34801561019557600080fd5b506101b060048036038101906101ab9190613ebf565b610517565b6040516101c1959493929190614403565b60405180910390f35b3480156101d657600080fd5b506101f160048036038101906101ec9190613f19565b61079d565b005b61020d60048036038101906102089190613da0565b6109d1565b005b34801561021b57600080fd5b50610224610a84565b005b34801561023257600080fd5b5061023b610b0c565b60405161024891906143b1565b60405180910390f35b34801561025d57600080fd5b5061027860048036038101906102739190613f19565b610b32565b005b34801561028657600080fd5b506102a1600480360381019061029c9190613ebf565b610d66565b6040516102ae91906143b1565b60405180910390f35b3480156102c357600080fd5b506102cc610e1a565b6040516102d991906143b1565b60405180910390f35b3480156102ee57600080fd5b506102f7610e43565b60405161030491906143b1565b60405180910390f35b34801561031957600080fd5b50610334600480360381019061032f9190613dcd565b610e69565b005b34801561034257600080fd5b5061035d60048036038101906103589190613ebf565b611209565b60405161036a9190614574565b60405180910390f35b61038d60048036038101906103889190613ebf565b611412565b005b6103a960048036038101906103a49190613f59565b611858565b005b3480156103b757600080fd5b506103d260048036038101906103cd9190613ebf565b611d4b565b005b3480156103e057600080fd5b506103fb60048036038101906103f69190613ebf565b611f1a565b005b61041760048036038101906104129190613ebf565b6127f3565b005b34801561042557600080fd5b50610440600480360381019061043b9190613ebf565b612b45565b005b34801561044e57600080fd5b5061045761320f565b6040516104649190614472565b60405180910390f35b34801561047957600080fd5b50610482613267565b60405161048f91906143b1565b60405180910390f35b3480156104a457600080fd5b506104bf60048036038101906104ba9190613d46565b61328d565b005b600047905090565b600060076000838152602001908152602001600020905060008160060160009054906101000a900473ffffffffffffffffffffffffffffffffffffffff169050610512816109d1565b505050565b600c818154811061052757600080fd5b90600052602060002090600802016000915090508060000160009054906101000a900473ffffffffffffffffffffffffffffffffffffffff169080600101805461057090614734565b80601f016020809104026020016040519081016040528092919081815260200182805461059c90614734565b80156105e95780601f106105be576101008083540402835291602001916105e9565b820191906000526020600020905b8154815290600101906020018083116105cc57829003601f168201915b5050505050908060020180546105fe90614734565b80601f016020809104026020016040519081016040528092919081815260200182805461062a90614734565b80156106775780601f1061064c57610100808354040283529160200191610677565b820191906000526020600020905b81548152906001019060200180831161065a57829003601f168201915b50505050509080600301805461068c90614734565b80601f01602080910402602001604051908101604052809291908181526020018280546106b890614734565b80156107055780601f106106da57610100808354040283529160200191610705565b820191906000526020600020905b8154815290600101906020018083116106e857829003601f168201915b50505050509080600401805461071a90614734565b80601f016020809104026020016040519081016040528092919081815260200182805461074690614734565b80156107935780601f1061076857610100808354040283529160200191610793565b820191906000526020600020905b81548152906001019060200180831161077657829003601f168201915b5050505050905085565b60006008600084815260200190815260200160002090508060060160009054906101000a900460ff16610805576040517f08c379a00000000000000000000000000000000000000000000000000000000081526004016107fc90614514565b60405180910390fd5b8181600801600101541061084e576040517f08c379a0000000000000000000000000000000000000000000000000000000008152600401610845906144f4565b60405180910390fd5b600060405180606001604052803373ffffffffffffffffffffffffffffffffffffffff1681526020018481526020016000151581525090506108906003613385565b600061089c600261339b565b905082600b01819080600181540180825580915050600190039060005260206000200160009091909190915055816009600083815260200190815260200160002060008201518160000160006101000a81548173ffffffffffffffffffffffffffffffffffffffff021916908373ffffffffffffffffffffffffffffffffffffffff1602179055506020820151816001015560408201518160020160006101000a81548160ff021916908315150217905550905050818360080160008201518160000160006101000a81548173ffffffffffffffffffffffffffffffffffffffff021916908373ffffffffffffffffffffffffffffffffffffffff1602179055506020820151816001015560408201518160020160006101000a81548160ff0219169083151502179055509050505050505050565b6000808273ffffffffffffffffffffffffffffffffffffffff16346040516109f89061439c565b60006040518083038185875af1925050503d8060008114610a35576040519150601f19603f3d011682016040523d82523d6000602084013e610a3a565b606091505b509150915081610a7f576040517f08c379a0000000000000000000000000000000000000000000000000000000008152600401610a76906144d4565b60405180910390fd5b505050565b610a8c6133a9565b73ffffffffffffffffffffffffffffffffffffffff16610aaa610e1a565b73ffffffffffffffffffffffffffffffffffffffff1614610b00576040517f08c379a0000000000000000000000000000000000000000000000000000000008152600401610af790614534565b60405180910390fd5b610b0a60006133b1565b565b600e60009054906101000a900473ffffffffffffffffffffffffffffffffffffffff1681565b60006008600084815260200190815260200160002090508060060160009054906101000a900460ff16610b9a576040517f08c379a0000000000000000000000000000000000000000000000000000000008152600401610b9190614514565b60405180910390fd5b81816008016001015410610be3576040517f08c379a0000000000000000000000000000000000000000000000000000000008152600401610bda906144f4565b60405180910390fd5b600060405180606001604052803373ffffffffffffffffffffffffffffffffffffffff168152602001848152602001600115158152509050610c256003613385565b6000610c31600261339b565b905082600b01819080600181540180825580915050600190039060005260206000200160009091909190915055816009600083815260200190815260200160002060008201518160000160006101000a81548173ffffffffffffffffffffffffffffffffffffffff021916908373ffffffffffffffffffffffffffffffffffffffff1602179055506020820151816001015560408201518160020160006101000a81548160ff021916908315150217905550905050818360080160008201518160000160006101000a81548173ffffffffffffffffffffffffffffffffffffffff021916908373ffffffffffffffffffffffffffffffffffffffff1602179055506020820151816001015560408201518160020160006101000a81548160ff0219169083151502179055509050505050505050565b6000600d60009054906101000a900473ffffffffffffffffffffffffffffffffffffffff1673ffffffffffffffffffffffffffffffffffffffff16636352211e836040518263ffffffff1660e01b8152600401610dc39190614596565b60206040518083038186803b158015610ddb57600080fd5b505afa158015610def573d6000803e3d6000fd5b505050506040513d601f19601f82011682018060405250810190610e139190613d73565b9050919050565b60008060009054906101000a900473ffffffffffffffffffffffffffffffffffffffff16905090565b600d60009054906101000a900473ffffffffffffffffffffffffffffffffffffffff1681565b3373ffffffffffffffffffffffffffffffffffffffff168673ffffffffffffffffffffffffffffffffffffffff161415610ea257600080fd5b610eac6002613385565b6000610eb8600261339b565b905060006040518061012001604052808381526020018881526020018781526020018681526020018581526020018973ffffffffffffffffffffffffffffffffffffffff1681526020013373ffffffffffffffffffffffffffffffffffffffff1681526020018415158152602001600115158152509050600660008973ffffffffffffffffffffffffffffffffffffffff1673ffffffffffffffffffffffffffffffffffffffff168152602001908152602001600020819080600181540180825580915050600190039060005260206000209060070201600090919091909150600082015181600001556020820151816001019080519060200190610fbe929190613475565b50604082015181600201556060820151816003019080519060200190610fe5929190613475565b506080820151816004015560a08201518160050160006101000a81548173ffffffffffffffffffffffffffffffffffffffff021916908373ffffffffffffffffffffffffffffffffffffffff16021790555060c08201518160060160006101000a81548173ffffffffffffffffffffffffffffffffffffffff021916908373ffffffffffffffffffffffffffffffffffffffff16021790555060e08201518160060160146101000a81548160ff0219169083151502179055506101008201518160060160156101000a81548160ff021916908315150217905550505080600760008481526020019081526020016000206000820151816000015560208201518160010190805190602001906110fb929190613475565b50604082015181600201556060820151816003019080519060200190611122929190613475565b506080820151816004015560a08201518160050160006101000a81548173ffffffffffffffffffffffffffffffffffffffff021916908373ffffffffffffffffffffffffffffffffffffffff16021790555060c08201518160060160006101000a81548173ffffffffffffffffffffffffffffffffffffffff021916908373ffffffffffffffffffffffffffffffffffffffff16021790555060e08201518160060160146101000a81548160ff0219169083151502179055506101008201518160060160156101000a81548160ff0219169083151502179055509050505050505050505050565b6112116134c2565b600860008381526020019081526020016000206040518061018001604052908160008201548152602001600182015481526020016002820160009054906101000a900473ffffffffffffffffffffffffffffffffffffffff1673ffffffffffffffffffffffffffffffffffffffff1673ffffffffffffffffffffffffffffffffffffffff168152602001600382015481526020016004820160009054906101000a900460ff16151515158152602001600582015481526020016006820160009054906101000a900460ff1615151515815260200160078201548152602001600882016040518060600160405290816000820160009054906101000a900473ffffffffffffffffffffffffffffffffffffffff1673ffffffffffffffffffffffffffffffffffffffff1673ffffffffffffffffffffffffffffffffffffffff168152602001600182015481526020016002820160009054906101000a900460ff1615151515815250508152602001600b82018054806020026020016040519081016040528092919081815260200182805480156113cc57602002820191906000526020600020905b8154815260200190600101908083116113b8575b50505050508152602001600c820160009054906101000a900460ff16151515158152602001600c820160019054906101000a900460ff1615151515815250509050919050565b6000600860008381526020019081526020016000206040518061018001604052908160008201548152602001600182015481526020016002820160009054906101000a900473ffffffffffffffffffffffffffffffffffffffff1673ffffffffffffffffffffffffffffffffffffffff1673ffffffffffffffffffffffffffffffffffffffff168152602001600382015481526020016004820160009054906101000a900460ff16151515158152602001600582015481526020016006820160009054906101000a900460ff1615151515815260200160078201548152602001600882016040518060600160405290816000820160009054906101000a900473ffffffffffffffffffffffffffffffffffffffff1673ffffffffffffffffffffffffffffffffffffffff1673ffffffffffffffffffffffffffffffffffffffff168152602001600182015481526020016002820160009054906101000a900460ff1615151515815250508152602001600b82018054806020026020016040519081016040528092919081815260200182805480156115cf57602002820191906000526020600020905b8154815260200190600101908083116115bb575b50505050508152602001600c820160009054906101000a900460ff16151515158152602001600c820160019054906101000a900460ff16151515158152505090508060600151600f60009054906101000a900473ffffffffffffffffffffffffffffffffffffffff1673ffffffffffffffffffffffffffffffffffffffff166370a08231336040518263ffffffff1660e01b815260040161167091906143b1565b60206040518083038186803b15801561168857600080fd5b505afa15801561169c573d6000803e3d6000fd5b505050506040513d601f19601f820116820180604052508101906116c09190613eec565b1015611701576040517f08c379a00000000000000000000000000000000000000000000000000000000081526004016116f890614554565b60405180910390fd5b600f60009054906101000a900473ffffffffffffffffffffffffffffffffffffffff1673ffffffffffffffffffffffffffffffffffffffff166323b872dd33836040015184606001516040518463ffffffff1660e01b8152600401611768939291906143cc565b602060405180830381600087803b15801561178257600080fd5b505af1158015611796573d6000803e3d6000fd5b505050506040513d601f19601f820116820180604052508101906117ba9190613e92565b50600d60009054906101000a900473ffffffffffffffffffffffffffffffffffffffff1673ffffffffffffffffffffffffffffffffffffffff166342842e0e82604001513384602001516040518463ffffffff1660e01b8152600401611822939291906143cc565b600060405180830381600087803b15801561183c57600080fd5b505af1158015611850573d6000803e3d6000fd5b505050505050565b3373ffffffffffffffffffffffffffffffffffffffff1661187887610d66565b73ffffffffffffffffffffffffffffffffffffffff161461189857600080fd5b6118a26001613385565b60006118ae600161339b565b90506118b86134c2565b818160000181815250508781602001818152505033816040019073ffffffffffffffffffffffffffffffffffffffff16908173ffffffffffffffffffffffffffffffffffffffff1681525050868160600181815250506000816080019015159081151581525050858160a0018181525050848160c0019015159081151581525050838160e00181815250506000816101400190151590811515815250508281610160019015159081151581525050600560003373ffffffffffffffffffffffffffffffffffffffff1673ffffffffffffffffffffffffffffffffffffffff1681526020019081526020016000208190806001815401808255809150506001900390600052602060002090600d0201600090919091909150600082015181600001556020820151816001015560408201518160020160006101000a81548173ffffffffffffffffffffffffffffffffffffffff021916908373ffffffffffffffffffffffffffffffffffffffff1602179055506060820151816003015560808201518160040160006101000a81548160ff02191690831515021790555060a0820151816005015560c08201518160060160006101000a81548160ff02191690831515021790555060e082015181600701556101008201518160080160008201518160000160006101000a81548173ffffffffffffffffffffffffffffffffffffffff021916908373ffffffffffffffffffffffffffffffffffffffff1602179055506020820151816001015560408201518160020160006101000a81548160ff021916908315150217905550505061012082015181600b019080519060200190611b22929190613475565b5061014082015181600c0160006101000a81548160ff02191690831515021790555061016082015181600c0160016101000a81548160ff02191690831515021790555050508060086000848152602001908152602001600020600082015181600001556020820151816001015560408201518160020160006101000a81548173ffffffffffffffffffffffffffffffffffffffff021916908373ffffffffffffffffffffffffffffffffffffffff1602179055506060820151816003015560808201518160040160006101000a81548160ff02191690831515021790555060a0820151816005015560c08201518160060160006101000a81548160ff02191690831515021790555060e082015181600701556101008201518160080160008201518160000160006101000a81548173ffffffffffffffffffffffffffffffffffffffff021916908373ffffffffffffffffffffffffffffffffffffffff1602179055506020820151816001015560408201518160020160006101000a81548160ff021916908315150217905550505061012082015181600b019080519060200190611cce929190613475565b5061014082015181600c0160006101000a81548160ff02191690831515021790555061016082015181600c0160016101000a81548160ff021916908315150217905550905050600a816000015190806001815401808255809150506001900390600052602060002001600090919091909150555050505050505050565b6000600760008381526020019081526020016000209050600f60009054906101000a900473ffffffffffffffffffffffffffffffffffffffff1673ffffffffffffffffffffffffffffffffffffffff166323b872dd8260060160009054906101000a900473ffffffffffffffffffffffffffffffffffffffff163384600401546040518463ffffffff1660e01b8152600401611de9939291906143cc565b602060405180830381600087803b158015611e0357600080fd5b505af1158015611e17573d6000803e3d6000fd5b505050506040513d601f19601f82011682018060405250810190611e3b9190613e92565b50600f60009054906101000a900473ffffffffffffffffffffffffffffffffffffffff1673ffffffffffffffffffffffffffffffffffffffff166323b872dd338360060160009054906101000a900473ffffffffffffffffffffffffffffffffffffffff1684600201546040518463ffffffff1660e01b8152600401611ec3939291906143cc565b602060405180830381600087803b158015611edd57600080fd5b505af1158015611ef1573d6000803e3d6000fd5b505050506040513d601f19601f82011682018060405250810190611f159190613e92565b505050565b6000600860008381526020019081526020016000206040518061018001604052908160008201548152602001600182015481526020016002820160009054906101000a900473ffffffffffffffffffffffffffffffffffffffff1673ffffffffffffffffffffffffffffffffffffffff1673ffffffffffffffffffffffffffffffffffffffff168152602001600382015481526020016004820160009054906101000a900460ff16151515158152602001600582015481526020016006820160009054906101000a900460ff1615151515815260200160078201548152602001600882016040518060600160405290816000820160009054906101000a900473ffffffffffffffffffffffffffffffffffffffff1673ffffffffffffffffffffffffffffffffffffffff1673ffffffffffffffffffffffffffffffffffffffff168152602001600182015481526020016002820160009054906101000a900460ff1615151515815250508152602001600b82018054806020026020016040519081016040528092919081815260200182805480156120d757602002820191906000526020600020905b8154815260200190600101908083116120c3575b50505050508152602001600c820160009054906101000a900460ff16151515158152602001600c820160019054906101000a900460ff16151515158152505090503373ffffffffffffffffffffffffffffffffffffffff16816040015173ffffffffffffffffffffffffffffffffffffffff161461215457600080fd5b6000600560003373ffffffffffffffffffffffffffffffffffffffff1673ffffffffffffffffffffffffffffffffffffffff168152602001908152602001600020905060005b81805490508110156127ed5760008282815481106121bb576121ba61486d565b5b90600052602060002090600d02016040518061018001604052908160008201548152602001600182015481526020016002820160009054906101000a900473ffffffffffffffffffffffffffffffffffffffff1673ffffffffffffffffffffffffffffffffffffffff1673ffffffffffffffffffffffffffffffffffffffff168152602001600382015481526020016004820160009054906101000a900460ff16151515158152602001600582015481526020016006820160009054906101000a900460ff1615151515815260200160078201548152602001600882016040518060600160405290816000820160009054906101000a900473ffffffffffffffffffffffffffffffffffffffff1673ffffffffffffffffffffffffffffffffffffffff1673ffffffffffffffffffffffffffffffffffffffff168152602001600182015481526020016002820160009054906101000a900460ff1615151515815250508152602001600b820180548060200260200160405190810160405280929190818152602001828054801561237157602002820191906000526020600020905b81548152602001906001019080831161235d575b50505050508152602001600c820160009054906101000a900460ff16151515158152602001600c820160019054906101000a900460ff16151515158152505090508360000151816000015114156127d95782600184805490506123d49190614673565b815481106123e5576123e461486d565b5b90600052602060002090600d02018383815481106124065761240561486d565b5b90600052602060002090600d020160008201548160000155600182015481600101556002820160009054906101000a900473ffffffffffffffffffffffffffffffffffffffff168160020160006101000a81548173ffffffffffffffffffffffffffffffffffffffff021916908373ffffffffffffffffffffffffffffffffffffffff160217905550600382015481600301556004820160009054906101000a900460ff168160040160006101000a81548160ff021916908315150217905550600582015481600501556006820160009054906101000a900460ff168160060160006101000a81548160ff0219169083151502179055506007820154816007015560088201816008016000820160009054906101000a900473ffffffffffffffffffffffffffffffffffffffff168160000160006101000a81548173ffffffffffffffffffffffffffffffffffffffff021916908373ffffffffffffffffffffffffffffffffffffffff160217905550600182015481600101556002820160009054906101000a900460ff168160020160006101000a81548160ff0219169083151502179055505050600b820181600b019080546125c5929190613547565b50600c820160009054906101000a900460ff1681600c0160006101000a81548160ff021916908315150217905550600c820160019054906101000a900460ff1681600c0160016101000a81548160ff02191690831515021790555090505082600560003373ffffffffffffffffffffffffffffffffffffffff1673ffffffffffffffffffffffffffffffffffffffff168152602001908152602001600020908054612671929190613599565b50600560003373ffffffffffffffffffffffffffffffffffffffff1673ffffffffffffffffffffffffffffffffffffffff1681526020019081526020016000208054806126c1576126c061483e565b5b60019003818190600052602060002090600d020160008082016000905560018201600090556002820160006101000a81549073ffffffffffffffffffffffffffffffffffffffff021916905560038201600090556004820160006101000a81549060ff021916905560058201600090556006820160006101000a81549060ff0219169055600782016000905560088201600080820160006101000a81549073ffffffffffffffffffffffffffffffffffffffff021916905560018201600090556002820160006101000a81549060ff02191690555050600b820160006127a791906137fd565b600c820160006101000a81549060ff0219169055600c820160016101000a81549060ff021916905550509055506127ed565b5080806127e590614797565b91505061219a565b50505050565b6000600860008381526020019081526020016000206040518061018001604052908160008201548152602001600182015481526020016002820160009054906101000a900473ffffffffffffffffffffffffffffffffffffffff1673ffffffffffffffffffffffffffffffffffffffff1673ffffffffffffffffffffffffffffffffffffffff168152602001600382015481526020016004820160009054906101000a900460ff16151515158152602001600582015481526020016006820160009054906101000a900460ff1615151515815260200160078201548152602001600882016040518060600160405290816000820160009054906101000a900473ffffffffffffffffffffffffffffffffffffffff1673ffffffffffffffffffffffffffffffffffffffff1673ffffffffffffffffffffffffffffffffffffffff168152602001600182015481526020016002820160009054906101000a900460ff1615151515815250508152602001600b82018054806020026020016040519081016040528092919081815260200182805480156129b057602002820191906000526020600020905b81548152602001906001019080831161299c575b50505050508152602001600c820160009054906101000a900460ff16151515158152602001600c820160019054906101000a900460ff161515151581525050905080606001513373ffffffffffffffffffffffffffffffffffffffff16311015612a4f576040517f08c379a0000000000000000000000000000000000000000000000000000000008152600401612a4690614554565b60405180910390fd5b60008160400151905081606001513414612a9e576040517f08c379a0000000000000000000000000000000000000000000000000000000008152600401612a9590614494565b60405180910390fd5b612aa7816109d1565b600d60009054906101000a900473ffffffffffffffffffffffffffffffffffffffff1673ffffffffffffffffffffffffffffffffffffffff166342842e0e83604001513385602001516040518463ffffffff1660e01b8152600401612b0e939291906143cc565b600060405180830381600087803b158015612b2857600080fd5b505af1158015612b3c573d6000803e3d6000fd5b50505050505050565b60006007600083815260200190815260200160002090503373ffffffffffffffffffffffffffffffffffffffff168160060160009054906101000a900473ffffffffffffffffffffffffffffffffffffffff1673ffffffffffffffffffffffffffffffffffffffff161480612c0957503373ffffffffffffffffffffffffffffffffffffffff168160050160009054906101000a900473ffffffffffffffffffffffffffffffffffffffff1673ffffffffffffffffffffffffffffffffffffffff16145b612c1257600080fd5b6000600660008360050160009054906101000a900473ffffffffffffffffffffffffffffffffffffffff1673ffffffffffffffffffffffffffffffffffffffff1673ffffffffffffffffffffffffffffffffffffffff168152602001908152602001600020905060005b8180549050811015613209576000828281548110612c9d57612c9c61486d565b5b9060005260206000209060070201604051806101200160405290816000820154815260200160018201805480602002602001604051908101604052809291908181526020018280548015612d1057602002820191906000526020600020905b815481526020019060010190808311612cfc575b505050505081526020016002820154815260200160038201805480602002602001604051908101604052809291908181526020018280548015612d7257602002820191906000526020600020905b815481526020019060010190808311612d5e575b50505050508152602001600482015481526020016005820160009054906101000a900473ffffffffffffffffffffffffffffffffffffffff1673ffffffffffffffffffffffffffffffffffffffff1673ffffffffffffffffffffffffffffffffffffffff1681526020016006820160009054906101000a900473ffffffffffffffffffffffffffffffffffffffff1673ffffffffffffffffffffffffffffffffffffffff1673ffffffffffffffffffffffffffffffffffffffff1681526020016006820160149054906101000a900460ff161515151581526020016006820160159054906101000a900460ff16151515158152505090508360000154816000015114156131f5578260018480549050612e8b9190614673565b81548110612e9c57612e9b61486d565b5b9060005260206000209060070201838381548110612ebd57612ebc61486d565b5b9060005260206000209060070201600082015481600001556001820181600101908054612eeb929190613547565b50600282015481600201556003820181600301908054612f0c929190613547565b50600482015481600401556005820160009054906101000a900473ffffffffffffffffffffffffffffffffffffffff168160050160006101000a81548173ffffffffffffffffffffffffffffffffffffffff021916908373ffffffffffffffffffffffffffffffffffffffff1602179055506006820160009054906101000a900473ffffffffffffffffffffffffffffffffffffffff168160060160006101000a81548173ffffffffffffffffffffffffffffffffffffffff021916908373ffffffffffffffffffffffffffffffffffffffff1602179055506006820160149054906101000a900460ff168160060160146101000a81548160ff0219169083151502179055506006820160159054906101000a900460ff168160060160156101000a81548160ff02191690831515021790555090505082600660008660050160009054906101000a900473ffffffffffffffffffffffffffffffffffffffff1673ffffffffffffffffffffffffffffffffffffffff1673ffffffffffffffffffffffffffffffffffffffff1681526020019081526020016000209080546130b492919061381e565b50600660008560050160009054906101000a900473ffffffffffffffffffffffffffffffffffffffff1673ffffffffffffffffffffffffffffffffffffffff1673ffffffffffffffffffffffffffffffffffffffff1681526020019081526020016000208054806131285761312761483e565b5b600190038181906000526020600020906007020160008082016000905560018201600061315591906137fd565b600282016000905560038201600061316d91906137fd565b60048201600090556005820160006101000a81549073ffffffffffffffffffffffffffffffffffffffff02191690556006820160006101000a81549073ffffffffffffffffffffffffffffffffffffffff02191690556006820160146101000a81549060ff02191690556006820160156101000a81549060ff02191690555050905550613209565b50808061320190614797565b915050612c7c565b50505050565b6060600a80548060200260200160405190810160405280929190818152602001828054801561325d57602002820191906000526020600020905b815481526020019060010190808311613249575b5050505050905090565b600f60009054906101000a900473ffffffffffffffffffffffffffffffffffffffff1681565b6132956133a9565b73ffffffffffffffffffffffffffffffffffffffff166132b3610e1a565b73ffffffffffffffffffffffffffffffffffffffff1614613309576040517f08c379a000000000000000000000000000000000000000000000000000000000815260040161330090614534565b60405180910390fd5b600073ffffffffffffffffffffffffffffffffffffffff168173ffffffffffffffffffffffffffffffffffffffff161415613379576040517f08c379a0000000000000000000000000000000000000000000000000000000008152600401613370906144b4565b60405180910390fd5b613382816133b1565b50565b6001816000016000828254019250508190555050565b600081600001549050919050565b600033905090565b60008060009054906101000a900473ffffffffffffffffffffffffffffffffffffffff169050816000806101000a81548173ffffffffffffffffffffffffffffffffffffffff021916908373ffffffffffffffffffffffffffffffffffffffff1602179055508173ffffffffffffffffffffffffffffffffffffffff168173ffffffffffffffffffffffffffffffffffffffff167f8be0079c531659141344cd1fd0a4f28419497f9722a3daafe3b4186f6b6457e060405160405180910390a35050565b8280548282559060005260206000209081019282156134b1579160200282015b828111156134b0578251825591602001919060010190613495565b5b5090506134be91906139ea565b5090565b6040518061018001604052806000815260200160008152602001600073ffffffffffffffffffffffffffffffffffffffff168152602001600081526020016000151581526020016000815260200160001515815260200160008152602001613528613a07565b8152602001606081526020016000151581526020016000151581525090565b8280548282559060005260206000209081019282156135885760005260206000209182015b8281111561358757825482559160010191906001019061356c565b5b50905061359591906139ea565b5090565b82805482825590600052602060002090600d0281019282156137ec57600052602060002091600d0282015b828111156137eb57828260008201548160000155600182015481600101556002820160009054906101000a900473ffffffffffffffffffffffffffffffffffffffff168160020160006101000a81548173ffffffffffffffffffffffffffffffffffffffff021916908373ffffffffffffffffffffffffffffffffffffffff160217905550600382015481600301556004820160009054906101000a900460ff168160040160006101000a81548160ff021916908315150217905550600582015481600501556006820160009054906101000a900460ff168160060160006101000a81548160ff0219169083151502179055506007820154816007015560088201816008016000820160009054906101000a900473ffffffffffffffffffffffffffffffffffffffff168160000160006101000a81548173ffffffffffffffffffffffffffffffffffffffff021916908373ffffffffffffffffffffffffffffffffffffffff160217905550600182015481600101556002820160009054906101000a900460ff168160020160006101000a81548160ff0219169083151502179055505050600b820181600b0190805461377f929190613547565b50600c820160009054906101000a900460ff1681600c0160006101000a81548160ff021916908315150217905550600c820160019054906101000a900460ff1681600c0160016101000a81548160ff021916908315150217905550505091600d019190600d01906135c4565b5b5090506137f99190613a40565b5090565b508054600082559060005260206000209081019061381b91906139ea565b50565b8280548282559060005260206000209060070281019282156139d95760005260206000209160070282015b828111156139d8578282600082015481600001556001820181600101908054613873929190613547565b50600282015481600201556003820181600301908054613894929190613547565b50600482015481600401556005820160009054906101000a900473ffffffffffffffffffffffffffffffffffffffff168160050160006101000a81548173ffffffffffffffffffffffffffffffffffffffff021916908373ffffffffffffffffffffffffffffffffffffffff1602179055506006820160009054906101000a900473ffffffffffffffffffffffffffffffffffffffff168160060160006101000a81548173ffffffffffffffffffffffffffffffffffffffff021916908373ffffffffffffffffffffffffffffffffffffffff1602179055506006820160149054906101000a900460ff168160060160146101000a81548160ff0219169083151502179055506006820160159054906101000a900460ff168160060160156101000a81548160ff021916908315150217905550505091600701919060070190613849565b5b5090506139e69190613b50565b5090565b5b80821115613a035760008160009055506001016139eb565b5090565b6040518060600160405280600073ffffffffffffffffffffffffffffffffffffffff168152602001600081526020016000151581525090565b5b80821115613b4c5760008082016000905560018201600090556002820160006101000a81549073ffffffffffffffffffffffffffffffffffffffff021916905560038201600090556004820160006101000a81549060ff021916905560058201600090556006820160006101000a81549060ff0219169055600782016000905560088201600080820160006101000a81549073ffffffffffffffffffffffffffffffffffffffff021916905560018201600090556002820160006101000a81549060ff02191690555050600b82016000613b1b91906137fd565b600c820160006101000a81549060ff0219169055600c820160016101000a81549060ff021916905550600d01613a41565b5090565b5b80821115613c1157600080820160009055600182016000613b7291906137fd565b6002820160009055600382016000613b8a91906137fd565b60048201600090556005820160006101000a81549073ffffffffffffffffffffffffffffffffffffffff02191690556006820160006101000a81549073ffffffffffffffffffffffffffffffffffffffff02191690556006820160146101000a81549060ff02191690556006820160156101000a81549060ff021916905550600701613b51565b5090565b6000613c28613c23846145d6565b6145b1565b90508083825260208201905082856020860282011115613c4b57613c4a6148d0565b5b60005b85811015613c7b5781613c618882613d1c565b845260208401935060208301925050600181019050613c4e565b5050509392505050565b600081359050613c9481614ad0565b92915050565b600081519050613ca981614ad0565b92915050565b600081359050613cbe81614ae7565b92915050565b600082601f830112613cd957613cd86148cb565b5b8135613ce9848260208601613c15565b91505092915050565b600081359050613d0181614afe565b92915050565b600081519050613d1681614afe565b92915050565b600081359050613d2b81614b15565b92915050565b600081519050613d4081614b15565b92915050565b600060208284031215613d5c57613d5b6148da565b5b6000613d6a84828501613c85565b91505092915050565b600060208284031215613d8957613d886148da565b5b6000613d9784828501613c9a565b91505092915050565b600060208284031215613db657613db56148da565b5b6000613dc484828501613caf565b91505092915050565b60008060008060008060c08789031215613dea57613de96148da565b5b6000613df889828a01613c85565b965050602087013567ffffffffffffffff811115613e1957613e186148d5565b5b613e2589828a01613cc4565b9550506040613e3689828a01613d1c565b945050606087013567ffffffffffffffff811115613e5757613e566148d5565b5b613e6389828a01613cc4565b9350506080613e7489828a01613d1c565b92505060a0613e8589828a01613cf2565b9150509295509295509295565b600060208284031215613ea857613ea76148da565b5b6000613eb684828501613d07565b91505092915050565b600060208284031215613ed557613ed46148da565b5b6000613ee384828501613d1c565b91505092915050565b600060208284031215613f0257613f016148da565b5b6000613f1084828501613d31565b91505092915050565b60008060408385031215613f3057613f2f6148da565b5b6000613f3e85828601613d1c565b9250506020613f4f85828601613d1c565b9150509250929050565b60008060008060008060c08789031215613f7657613f756148da565b5b6000613f8489828a01613d1c565b9650506020613f9589828a01613d1c565b9550506040613fa689828a01613d1c565b9450506060613fb789828a01613cf2565b9350506080613fc889828a01613d1c565b92505060a0613fd989828a01613cf2565b9150509295509295509295565b6000613ff2838361437e565b60208301905092915050565b614007816146a7565b82525050565b614016816146a7565b82525050565b600061402782614612565b6140318185614635565b935061403c83614602565b8060005b8381101561406d5781516140548882613fe6565b975061405f83614628565b925050600181019050614040565b5085935050505092915050565b600061408582614612565b61408f8185614646565b935061409a83614602565b8060005b838110156140cb5781516140b28882613fe6565b97506140bd83614628565b92505060018101905061409e565b5085935050505092915050565b6140e1816146cb565b82525050565b60006140f28261461d565b6140fc8185614662565b935061410c818560208601614701565b614115816148df565b840191505092915050565b600061412d603383614662565b9150614138826148f0565b604082019050919050565b6000614150602683614662565b915061415b8261493f565b604082019050919050565b6000614173601483614662565b915061417e8261498e565b602082019050919050565b6000614196603d83614662565b91506141a1826149b7565b604082019050919050565b60006141b9603c83614662565b91506141c482614a06565b604082019050919050565b60006141dc602083614662565b91506141e782614a55565b602082019050919050565b60006141ff600083614657565b915061420a82614a7e565b600082019050919050565b6000614222603383614662565b915061422d82614a81565b604082019050919050565b60608201600082015161424e6000850182613ffe565b506020820151614261602085018261437e565b50604082015161427460408501826140d8565b50505050565b60006101c083016000830151614293600086018261437e565b5060208301516142a6602086018261437e565b5060408301516142b96040860182613ffe565b5060608301516142cc606086018261437e565b5060808301516142df60808601826140d8565b5060a08301516142f260a086018261437e565b5060c083015161430560c08601826140d8565b5060e083015161431860e086018261437e565b5061010083015161432d610100860182614238565b50610120830151848203610160860152614347828261401c565b91505061014083015161435e6101808601826140d8565b506101608301516143736101a08601826140d8565b508091505092915050565b614387816146f7565b82525050565b614396816146f7565b82525050565b60006143a7826141f2565b9150819050919050565b60006020820190506143c6600083018461400d565b92915050565b60006060820190506143e1600083018661400d565b6143ee602083018561400d565b6143fb604083018461438d565b949350505050565b600060a082019050614418600083018861400d565b818103602083015261442a81876140e7565b9050818103604083015261443e81866140e7565b9050818103606083015261445281856140e7565b9050818103608083015261446681846140e7565b90509695505050505050565b6000602082019050818103600083015261448c818461407a565b905092915050565b600060208201905081810360008301526144ad81614120565b9050919050565b600060208201905081810360008301526144cd81614143565b9050919050565b600060208201905081810360008301526144ed81614166565b9050919050565b6000602082019050818103600083015261450d81614189565b9050919050565b6000602082019050818103600083015261452d816141ac565b9050919050565b6000602082019050818103600083015261454d816141cf565b9050919050565b6000602082019050818103600083015261456d81614215565b9050919050565b6000602082019050818103600083015261458e818461427a565b905092915050565b60006020820190506145ab600083018461438d565b92915050565b60006145bb6145cc565b90506145c78282614766565b919050565b6000604051905090565b600067ffffffffffffffff8211156145f1576145f061489c565b5b602082029050602081019050919050565b6000819050602082019050919050565b600081519050919050565b600081519050919050565b6000602082019050919050565b600082825260208201905092915050565b600082825260208201905092915050565b600081905092915050565b600082825260208201905092915050565b600061467e826146f7565b9150614689836146f7565b92508282101561469c5761469b6147e0565b5b828203905092915050565b60006146b2826146d7565b9050919050565b60006146c4826146d7565b9050919050565b60008115159050919050565b600073ffffffffffffffffffffffffffffffffffffffff82169050919050565b6000819050919050565b60005b8381101561471f578082015181840152602081019050614704565b8381111561472e576000848401525b50505050565b6000600282049050600182168061474c57607f821691505b602082108114156147605761475f61480f565b5b50919050565b61476f826148df565b810181811067ffffffffffffffff8211171561478e5761478d61489c565b5b80604052505050565b60006147a2826146f7565b91507fffffffffffffffffffffffffffffffffffffffffffffffffffffffffffffffff8214156147d5576147d46147e0565b5b600182019050919050565b7f4e487b7100000000000000000000000000000000000000000000000000000000600052601160045260246000fd5b7f4e487b7100000000000000000000000000000000000000000000000000000000600052602260045260246000fd5b7f4e487b7100000000000000000000000000000000000000000000000000000000600052603160045260246000fd5b7f4e487b7100000000000000000000000000000000000000000000000000000000600052603260045260246000fd5b7f4e487b7100000000000000000000000000000000000000000000000000000000600052604160045260246000fd5b600080fd5b600080fd5b600080fd5b600080fd5b6000601f19601f8301169050919050565b7f566972696469616e45786368616e67653a20496e636f727265637420616d6f7560008201527f6e74207061696420746f2066756e6374696f6e00000000000000000000000000602082015250565b7f4f776e61626c653a206e6577206f776e657220697320746865207a65726f206160008201527f6464726573730000000000000000000000000000000000000000000000000000602082015250565b7f4661696c656420746f2073656e64204574686572000000000000000000000000600082015250565b7f566972696469616e4578636861676e653a20426964206d757374206265206c6160008201527f72676572207468616e2063757272656e74206c61726765737420626964000000602082015250565b7f566972696469616e45786368616e67653a2043616e6e6f74206269642c20637560008201527f7272656e74206c697374696e67206973206e6f742061756374696f6e00000000602082015250565b7f4f776e61626c653a2063616c6c6572206973206e6f7420746865206f776e6572600082015250565b50565b7f566972696469616e45786368616e67653a205573657220646f6573206e6f742060008201527f6861766520656e6f7567682062616c616e636500000000000000000000000000602082015250565b614ad9816146a7565b8114614ae457600080fd5b50565b614af0816146b9565b8114614afb57600080fd5b50565b614b07816146cb565b8114614b1257600080fd5b50565b614b1e816146f7565b8114614b2957600080fd5b5056fea26469706673582212200d85d688a33c21ebbbb037b48e431e27a90c4c30250d2d988613b840c8c2890e64736f6c63430008060033",
  "immutableReferences": {},
  "source": "pragma solidity ^0.8.0;\n\nimport \"@openzeppelin/contracts/access/Ownable.sol\";\nimport \"@openzeppelin/contracts/token/ERC721/ERC721.sol\";\nimport \"@openzeppelin/contracts/token/ERC20/IERC20.sol\";\nimport \"@openzeppelin/contracts/token/ERC20/ERC20.sol\";\nimport \"@openzeppelin/contracts/token/ERC721/IERC721.sol\";\nimport \"../node_modules/@openzeppelin/contracts/utils/math/SafeMath.sol\";\n\nimport \"./ViridianNFT.sol\";\n\ncontract ViridianExchange is Ownable {\n\n    using SafeMath for uint256;\n    using SafeMath for uint8;\n\n    struct User {\n        address wallet;\n        string displayName;\n        string coverPhotoURL;\n        string profilePhotoURL;\n        string bio;\n        User[] following;\n        User[] followers;\n        uint256[] likes;\n    }\n\n    struct Offer {\n        uint256 offerId;\n        uint256[] toNftIds;\n        uint toAmt;\n        uint256[] fromNftIds;\n        uint fromAmt;\n        address to;\n        address from;\n        bool isVEXT;\n        bool pending;\n    }\n\n    using Counters for Counters.Counter;\n    Counters.Counter private _listingIds;\n    Counters.Counter private _offerIds;\n    Counters.Counter private _bidIds;\n\n    //address vNFTContract = \n\n    struct Bid {\n        address owner;\n        uint256 amount;\n        bool isVEXT;\n    }\n    \n    struct Listing {\n        uint256 listingId;\n        uint256 tokenId;\n        address owner;\n        uint256 price;\n        bool purchased;\n        uint256 royalty;\n        bool isAuction;\n        uint256 endTime;\n        Bid largestBid;\n        uint256[] bidIds;\n        bool sold;\n        bool isVEXT;\n    }\n\n    struct Collection {\n        string description;\n        uint256[] collectionNFTs;\n    }\n\n    //string[] public nftIds;\n    mapping (address => Collection) displayCases;\n    mapping (address => Listing[]) userListings;\n    mapping (address => Offer[]) userOffers;\n    mapping (uint256 => Offer) offers;\n    mapping (uint256 => Listing) listings;\n    mapping (uint256 => Bid) bids;\n    uint256[] private listingIds;\n    uint256[] private offerIds;\n    User[] public users;\n\n    address public viridianNFT;\n    address public ETH;\n    address public viridianToken;\n\n    constructor( address _viridianToken, address _viridianNFT) {\n        require(address(_viridianToken) != address(0)); \n        //require(address(_ETH) != address(0));\n        require(address(_viridianNFT) != address(0));\n\n        viridianToken = _viridianToken;\n        //address _ETH, ETH = _ETH;\n        viridianNFT = _viridianNFT;\n    }\n\n    function getBalance() public view returns (uint) {\n        return address(this).balance;\n    }\n\n    function getListings() public view returns (uint256[] memory) {\n        return listingIds;\n    }\n\n    function getListingFromId(uint256 _listingId) public view returns (Listing memory) {\n        return listings[_listingId];\n    }\n\n    function getNftOwner(uint256 _nftId) public view returns (address) {\n        return IERC721(viridianNFT).ownerOf(_nftId);\n    }\n\n    function sendEther(address payable _to) public payable {\n        // Call returns a boolean value indicating success or failure.\n        // This is the current recommended method to use.\n        (bool sent, bytes memory data) = _to.call{value: msg.value}(\"\");\n        require(sent, \"Failed to send Ether\");\n    }\n\n    /*\n    uint256 listingId;\n        uint256 tokenId;\n        address owner;\n        uint256 price;\n        bool purchased;\n        uint256 royalty;\n        bool isAuction;\n        uint256 endTime;\n        Bid largestBid;\n        Bid[] bids;\n        bool sold;\n        bool isVEXT;\n    */\n\n    function putUpForSale(uint256 _nftId, uint256 _price, uint256 _royalty, bool _isAuction, uint256 _endTime, bool _isVEXT) public payable {\n        require(getNftOwner(_nftId) == msg.sender);\n\n        _listingIds.increment();\n        uint256 _listingId = _listingIds.current();\n        Listing memory saleListing;\n        saleListing.listingId = _listingId;\n        saleListing.tokenId = _nftId;\n        saleListing.owner = msg.sender;\n        saleListing.price = _price;\n        saleListing.purchased = false;\n        saleListing.royalty = _royalty;\n        saleListing.isAuction = _isAuction;\n        saleListing.endTime = _endTime;\n        saleListing.sold = false;\n        saleListing.isVEXT = _isVEXT;\n\n        //_listingId, _nftId, msg.sender, _price, false, \n        //                                    _royalty, _isAuction, _endTime, Bid(msg.sender, 0, _isVEXT), new Bid[](0), false, _isVEXT);\n        userListings[msg.sender].push(saleListing);\n        listings[_listingId] = saleListing;\n        listingIds.push(saleListing.listingId);\n    }\n\n    function pullFromSale(uint256 _listingId) public {\n        Listing memory curListing = listings[_listingId];\n        require(curListing.owner == msg.sender);\n        Listing[] storage curUserListings = userListings[msg.sender];\n        for (uint i = 0; i < curUserListings.length; i++) {\n            Listing memory listing = curUserListings[i];\n            if (listing.listingId == curListing.listingId) {\n                curUserListings[i] = curUserListings[curUserListings.length - 1];\n                userListings[msg.sender] = curUserListings;\n                userListings[msg.sender].pop();\n                break;\n            }\n        }\n    }\n\n    function buyNFTWithETH(uint256 _listingId) public payable {\n        Listing memory curListing = listings[_listingId];\n\n        require(msg.sender.balance >= curListing.price, 'ViridianExchange: User does not have enough balance');\n        address payable ownerWallet = payable(curListing.owner);\n\n        require(msg.value == curListing.price, 'ViridianExchange: Incorrect amount paid to function');\n\n        sendEther(ownerWallet);\n        \n        IERC721(viridianNFT).safeTransferFrom(curListing.owner, msg.sender, curListing.tokenId);\n    }\n\n    function buyNFTWithVEXT(uint256 _listingId) public payable {\n        Listing memory curListing = listings[_listingId];\n\n        require(IERC20(viridianToken).balanceOf(msg.sender) >= curListing.price, 'ViridianExchange: User does not have enough balance');\n\n        IERC20(viridianToken).transferFrom(msg.sender, curListing.owner, curListing.price);\n        IERC721(viridianNFT).safeTransferFrom(curListing.owner, msg.sender, curListing.tokenId);\n    }\n\n    receive() external payable {}\n\n    // Fallback function is called when msg.data is not empty\n    fallback() external payable {}\n\n    function makeOffer(address _to, uint256[] memory _nftIds, uint256 _amount, uint256[] memory _recNftIds, uint256 _recAmount, bool isVEXT) public {\n        require(_to != msg.sender);\n\n        _offerIds.increment();\n        uint256 _offerId = _offerIds.current();\n\n        Offer memory newOffer = Offer(_offerId, _nftIds, _amount, _recNftIds, _recAmount, _to, msg.sender, isVEXT, true);\n        \n        userOffers[_to].push(newOffer);\n        offers[_offerId] = newOffer;\n    }\n\n    function cancelOffer(uint256 _offerId) public {\n        Offer storage curOffer = offers[_offerId];\n        require(curOffer.from == msg.sender || curOffer.to == msg.sender);\n        Offer[] storage curUserOffers = userOffers[curOffer.to];\n        for (uint i = 0; i < curUserOffers.length; i++) {\n            Offer memory offer = curUserOffers[i];\n            if (offer.offerId == curOffer.offerId) {\n                curUserOffers[i] = curUserOffers[curUserOffers.length - 1];\n                userOffers[curOffer.to] = curUserOffers;\n                userOffers[curOffer.to].pop();\n                break;\n            }\n        }\n    }\n\n    //TODO: Figure out how to send eth from \"from\" wallet to \"to\" wallet.\n    function acceptOfferWithETH(uint256 _offerId) public payable {\n        Offer storage curOffer = offers[_offerId];\n\n        address payable ownerWallet = payable(curOffer.from);\n\n        sendEther(ownerWallet);\n    }\n\n    function acceptOfferWithVEXT(uint256 _offerId) public {\n        Offer storage curOffer = offers[_offerId];\n\n        IERC20(viridianToken).transferFrom(curOffer.from, msg.sender, curOffer.fromAmt);\n\n        IERC20(viridianToken).transferFrom(msg.sender, curOffer.from, curOffer.toAmt);\n        \n    }\n\n    function bidOnAuctionWithVEXT(uint256 _listingId, uint256 _amount) public {\n        Listing storage curListing = listings[_listingId];\n\n        require(curListing.isAuction, 'ViridianExchange: Cannot bid, current listing is not auction');\n        require(curListing.largestBid.amount < _amount, 'ViridianExchagne: Bid must be larger than current largest bid');\n\n        Bid memory newBid = Bid(msg.sender, _amount, true);\n\n        _bidIds.increment();\n        uint256 _bidId = _offerIds.current();\n\n        curListing.bidIds.push(_bidId);\n        bids[_bidId] = newBid;\n        curListing.largestBid = newBid;\n    }\n\n    function bidOnAuctionWithETH(uint256 _listingId, uint256 _amount) public {\n        Listing storage curListing = listings[_listingId];\n\n        require(curListing.isAuction, 'ViridianExchange: Cannot bid, current listing is not auction');\n        require(curListing.largestBid.amount < _amount, 'ViridianExchagne: Bid must be larger than current largest bid');\n\n        Bid memory newBid = Bid(msg.sender, _amount, false);\n\n        _bidIds.increment();\n        uint256 _bidId = _offerIds.current();\n\n        curListing.bidIds.push(_bidId);\n        bids[_bidId] = newBid;\n        curListing.largestBid = newBid;\n    }\n\n    // Probably should just call this straight from the NFT contract\n    // function withdrawNFT(uint256 _nftId) public payable returns(string memory) {\n    //     //Burn NFT\n    //     IERC721(viridianNFT).burn(_nftId);\n    //     //Send message to prompt front-end email sending\n    // }\n}",
  "sourcePath": "/Users/krishmoran/Documents/GitHub/Viridian-Exchange-Contracts/contracts/ViridianExchange.sol",
  "compiler": {
    "name": "solc",
    "version": "0.8.6+commit.11564f7e.Emscripten.clang"
  },
  "schemaVersion": "3.4.1",
  "updatedAt": "2021-07-29T04:17:55.410Z",
  "networkType": "ethereum",
  "devdoc": {
    "kind": "dev",
    "methods": {
      "owner()": {
        "details": "Returns the address of the current owner."
      },
      "renounceOwnership()": {
        "details": "Leaves the contract without owner. It will not be possible to call `onlyOwner` functions anymore. Can only be called by the current owner. NOTE: Renouncing ownership will leave the contract without an owner, thereby removing any functionality that is only available to the owner."
      },
      "transferOwnership(address)": {
        "details": "Transfers ownership of the contract to a new account (`newOwner`). Can only be called by the current owner."
      }
    },
    "version": 1
  },
  "userdoc": {
    "kind": "user",
    "methods": {},
    "version": 1
  }
}