{
  "contractName": "ViridianNFT",
  "abi": [
    {
      "inputs": [
        {
          "internalType": "address",
          "name": "_forwarder",
          "type": "address"
        }
      ],
      "stateMutability": "nonpayable",
      "type": "constructor"
    },
    {
      "anonymous": false,
      "inputs": [
        {
          "indexed": true,
          "internalType": "address",
          "name": "owner",
          "type": "address"
        },
        {
          "indexed": true,
          "internalType": "address",
          "name": "approved",
          "type": "address"
        },
        {
          "indexed": true,
          "internalType": "uint256",
          "name": "tokenId",
          "type": "uint256"
        }
      ],
      "name": "Approval",
      "type": "event"
    },
    {
      "anonymous": false,
      "inputs": [
        {
          "indexed": true,
          "internalType": "address",
          "name": "owner",
          "type": "address"
        },
        {
          "indexed": true,
          "internalType": "address",
          "name": "operator",
          "type": "address"
        },
        {
          "indexed": false,
          "internalType": "bool",
          "name": "approved",
          "type": "bool"
        }
      ],
      "name": "ApprovalForAll",
      "type": "event"
    },
    {
      "anonymous": false,
      "inputs": [
        {
          "indexed": true,
          "internalType": "address",
          "name": "previousOwner",
          "type": "address"
        },
        {
          "indexed": true,
          "internalType": "address",
          "name": "newOwner",
          "type": "address"
        }
      ],
      "name": "OwnershipTransferred",
      "type": "event"
    },
    {
      "anonymous": false,
      "inputs": [
        {
          "indexed": true,
          "internalType": "address",
          "name": "from",
          "type": "address"
        },
        {
          "indexed": true,
          "internalType": "address",
          "name": "to",
          "type": "address"
        },
        {
          "indexed": true,
          "internalType": "uint256",
          "name": "tokenId",
          "type": "uint256"
        }
      ],
      "name": "Transfer",
      "type": "event"
    },
    {
      "inputs": [
        {
          "internalType": "address",
          "name": "to",
          "type": "address"
        },
        {
          "internalType": "uint256",
          "name": "tokenId",
          "type": "uint256"
        }
      ],
      "name": "approve",
      "outputs": [],
      "stateMutability": "nonpayable",
      "type": "function"
    },
    {
      "inputs": [
        {
          "internalType": "address",
          "name": "owner",
          "type": "address"
        }
      ],
      "name": "balanceOf",
      "outputs": [
        {
          "internalType": "uint256",
          "name": "",
          "type": "uint256"
        }
      ],
      "stateMutability": "view",
      "type": "function",
      "constant": true
    },
    {
      "inputs": [
        {
          "internalType": "uint256",
          "name": "tokenId",
          "type": "uint256"
        }
      ],
      "name": "getApproved",
      "outputs": [
        {
          "internalType": "address",
          "name": "",
          "type": "address"
        }
      ],
      "stateMutability": "view",
      "type": "function",
      "constant": true
    },
    {
      "inputs": [
        {
          "internalType": "address",
          "name": "owner",
          "type": "address"
        },
        {
          "internalType": "address",
          "name": "operator",
          "type": "address"
        }
      ],
      "name": "isApprovedForAll",
      "outputs": [
        {
          "internalType": "bool",
          "name": "",
          "type": "bool"
        }
      ],
      "stateMutability": "view",
      "type": "function",
      "constant": true
    },
    {
      "inputs": [
        {
          "internalType": "address",
          "name": "forwarder",
          "type": "address"
        }
      ],
      "name": "isTrustedForwarder",
      "outputs": [
        {
          "internalType": "bool",
          "name": "",
          "type": "bool"
        }
      ],
      "stateMutability": "view",
      "type": "function",
      "constant": true
    },
    {
      "inputs": [],
      "name": "name",
      "outputs": [
        {
          "internalType": "string",
          "name": "",
          "type": "string"
        }
      ],
      "stateMutability": "view",
      "type": "function",
      "constant": true
    },
    {
      "inputs": [],
      "name": "owner",
      "outputs": [
        {
          "internalType": "address",
          "name": "",
          "type": "address"
        }
      ],
      "stateMutability": "view",
      "type": "function",
      "constant": true
    },
    {
      "inputs": [
        {
          "internalType": "uint256",
          "name": "tokenId",
          "type": "uint256"
        }
      ],
      "name": "ownerOf",
      "outputs": [
        {
          "internalType": "address",
          "name": "",
          "type": "address"
        }
      ],
      "stateMutability": "view",
      "type": "function",
      "constant": true
    },
    {
      "inputs": [],
      "name": "renounceOwnership",
      "outputs": [],
      "stateMutability": "nonpayable",
      "type": "function"
    },
    {
      "inputs": [
        {
          "internalType": "address",
          "name": "operator",
          "type": "address"
        },
        {
          "internalType": "bool",
          "name": "approved",
          "type": "bool"
        }
      ],
      "name": "setApprovalForAll",
      "outputs": [],
      "stateMutability": "nonpayable",
      "type": "function"
    },
    {
      "inputs": [
        {
          "internalType": "bytes4",
          "name": "interfaceId",
          "type": "bytes4"
        }
      ],
      "name": "supportsInterface",
      "outputs": [
        {
          "internalType": "bool",
          "name": "",
          "type": "bool"
        }
      ],
      "stateMutability": "view",
      "type": "function",
      "constant": true
    },
    {
      "inputs": [],
      "name": "symbol",
      "outputs": [
        {
          "internalType": "string",
          "name": "",
          "type": "string"
        }
      ],
      "stateMutability": "view",
      "type": "function",
      "constant": true
    },
    {
      "inputs": [
        {
          "internalType": "address",
          "name": "newOwner",
          "type": "address"
        }
      ],
      "name": "transferOwnership",
      "outputs": [],
      "stateMutability": "nonpayable",
      "type": "function"
    },
    {
      "inputs": [],
      "name": "trustedForwarder",
      "outputs": [
        {
          "internalType": "address",
          "name": "",
          "type": "address"
        }
      ],
      "stateMutability": "view",
      "type": "function",
      "constant": true
    },
    {
      "inputs": [],
      "name": "versionRecipient",
      "outputs": [
        {
          "internalType": "string",
          "name": "",
          "type": "string"
        }
      ],
      "stateMutability": "view",
      "type": "function",
      "constant": true
    },
    {
      "inputs": [
        {
          "internalType": "address",
          "name": "_forwarder",
          "type": "address"
        }
      ],
      "name": "setTrustedForwarder",
      "outputs": [],
      "stateMutability": "nonpayable",
      "type": "function"
    },
    {
      "inputs": [
        {
          "internalType": "address",
          "name": "_newAdmin",
          "type": "address"
        }
      ],
      "name": "addAdmin",
      "outputs": [],
      "stateMutability": "nonpayable",
      "type": "function"
    },
    {
      "inputs": [
        {
          "internalType": "address",
          "name": "_newAdmin",
          "type": "address"
        }
      ],
      "name": "removeAdmin",
      "outputs": [],
      "stateMutability": "nonpayable",
      "type": "function"
    },
    {
      "inputs": [
        {
          "internalType": "string",
          "name": "baseURI_",
          "type": "string"
        }
      ],
      "name": "setBaseURI",
      "outputs": [],
      "stateMutability": "nonpayable",
      "type": "function"
    },
    {
      "inputs": [
        {
          "internalType": "uint256",
          "name": "tokenId",
          "type": "uint256"
        },
        {
          "internalType": "string",
          "name": "_tokenURI",
          "type": "string"
        }
      ],
      "name": "_setTokenURI",
      "outputs": [],
      "stateMutability": "nonpayable",
      "type": "function"
    },
    {
      "inputs": [
        {
          "internalType": "uint256",
          "name": "tokenId",
          "type": "uint256"
        }
      ],
      "name": "tokenURI",
      "outputs": [
        {
          "internalType": "string",
          "name": "",
          "type": "string"
        }
      ],
      "stateMutability": "view",
      "type": "function",
      "constant": true
    },
    {
      "inputs": [],
      "name": "getNumNFTs",
      "outputs": [
        {
          "internalType": "uint256",
          "name": "n",
          "type": "uint256"
        }
      ],
      "stateMutability": "view",
      "type": "function",
      "constant": true
    },
    {
      "inputs": [],
      "name": "getNumOwnedNFTs",
      "outputs": [
        {
          "internalType": "uint256",
          "name": "",
          "type": "uint256"
        }
      ],
      "stateMutability": "view",
      "type": "function",
      "constant": true
    },
    {
      "inputs": [],
      "name": "getOwnedNFTs",
      "outputs": [
        {
          "internalType": "uint256[]",
          "name": "",
          "type": "uint256[]"
        }
      ],
      "stateMutability": "view",
      "type": "function",
      "constant": true
    },
    {
      "inputs": [
        {
          "internalType": "address",
          "name": "_to",
          "type": "address"
        },
        {
          "internalType": "string",
          "name": "tokenURI_",
          "type": "string"
        }
      ],
      "name": "mint",
      "outputs": [],
      "stateMutability": "nonpayable",
      "type": "function"
    },
    {
      "inputs": [
        {
          "internalType": "uint256",
          "name": "tokenId",
          "type": "uint256"
        }
      ],
      "name": "isListed",
      "outputs": [
        {
          "internalType": "bool",
          "name": "",
          "type": "bool"
        }
      ],
      "stateMutability": "view",
      "type": "function",
      "constant": true
    },
    {
      "inputs": [
        {
          "internalType": "uint256",
          "name": "tokenId",
          "type": "uint256"
        }
      ],
      "name": "burn",
      "outputs": [],
      "stateMutability": "nonpayable",
      "type": "function"
    },
    {
      "inputs": [
        {
          "internalType": "address",
          "name": "from",
          "type": "address"
        },
        {
          "internalType": "address",
          "name": "to",
          "type": "address"
        },
        {
          "internalType": "uint256",
          "name": "tokenId",
          "type": "uint256"
        }
      ],
      "name": "safeTransferFrom",
      "outputs": [],
      "stateMutability": "nonpayable",
      "type": "function"
    },
    {
      "inputs": [
        {
          "internalType": "address",
          "name": "from",
          "type": "address"
        },
        {
          "internalType": "address",
          "name": "to",
          "type": "address"
        },
        {
          "internalType": "uint256",
          "name": "tokenId",
          "type": "uint256"
        },
        {
          "internalType": "bytes",
          "name": "_data",
          "type": "bytes"
        }
      ],
      "name": "safeTransferFrom",
      "outputs": [],
      "stateMutability": "nonpayable",
      "type": "function"
    },
    {
      "inputs": [
        {
          "internalType": "address",
          "name": "from",
          "type": "address"
        },
        {
          "internalType": "address",
          "name": "to",
          "type": "address"
        },
        {
          "internalType": "uint256",
          "name": "tokenId",
          "type": "uint256"
        }
      ],
      "name": "transferFrom",
      "outputs": [],
      "stateMutability": "nonpayable",
      "type": "function"
    },
    {
      "inputs": [
        {
          "internalType": "uint256",
          "name": "_tokenId",
          "type": "uint256"
        }
      ],
      "name": "listToken",
      "outputs": [],
      "stateMutability": "nonpayable",
      "type": "function"
    },
    {
      "inputs": [
        {
          "internalType": "uint256",
          "name": "_tokenId",
          "type": "uint256"
        }
      ],
      "name": "unlistToken",
      "outputs": [],
      "stateMutability": "nonpayable",
      "type": "function"
    }
  ],
  "bytecode": "0x60806040526040518060400160405280600581526020017f322e322e30000000000000000000000000000000000000000000000000000000815250600b90805190602001906200005192919062000386565b503480156200005f57600080fd5b506040516200437f3803806200437f8339818101604052810190620000859190620004a0565b6040518060400160405280600c81526020017f566972696469616e204e465400000000000000000000000000000000000000008152506040518060400160405280600481526020017f564e46540000000000000000000000000000000000000000000000000000000081525081600090805190602001906200010992919062000386565b5080600190805190602001906200012292919062000386565b5050506200014562000139620001c460201b60201c565b620001e060201b60201c565b6200015681620002a660201b60201c565b6001600a60006200016c620001c460201b60201c565b73ffffffffffffffffffffffffffffffffffffffff1673ffffffffffffffffffffffffffffffffffffffff16815260200190815260200160002060006101000a81548160ff0219169083151502179055505062000537565b6000620001db620002ea60201b6200198d1760201c565b905090565b6000600660009054906101000a900473ffffffffffffffffffffffffffffffffffffffff16905081600660006101000a81548173ffffffffffffffffffffffffffffffffffffffff021916908373ffffffffffffffffffffffffffffffffffffffff1602179055508173ffffffffffffffffffffffffffffffffffffffff168173ffffffffffffffffffffffffffffffffffffffff167f8be0079c531659141344cd1fd0a4f28419497f9722a3daafe3b4186f6b6457e060405160405180910390a35050565b80600760006101000a81548173ffffffffffffffffffffffffffffffffffffffff021916908373ffffffffffffffffffffffffffffffffffffffff16021790555050565b600060146000369050101580156200030f57506200030e336200032c60201b60201c565b5b156200032557601436033560601c905062000329565b3390505b90565b6000600760009054906101000a900473ffffffffffffffffffffffffffffffffffffffff1673ffffffffffffffffffffffffffffffffffffffff168273ffffffffffffffffffffffffffffffffffffffff16149050919050565b828054620003949062000501565b90600052602060002090601f016020900481019282620003b8576000855562000404565b82601f10620003d357805160ff191683800117855562000404565b8280016001018555821562000404579182015b8281111562000403578251825591602001919060010190620003e6565b5b50905062000413919062000417565b5090565b5b808211156200043257600081600090555060010162000418565b5090565b600080fd5b600073ffffffffffffffffffffffffffffffffffffffff82169050919050565b600062000468826200043b565b9050919050565b6200047a816200045b565b81146200048657600080fd5b50565b6000815190506200049a816200046f565b92915050565b600060208284031215620004b957620004b862000436565b5b6000620004c98482850162000489565b91505092915050565b7f4e487b7100000000000000000000000000000000000000000000000000000000600052602260045260246000fd5b600060028204905060018216806200051a57607f821691505b60208210811415620005315762000530620004d2565b5b50919050565b613e3880620005476000396000f3fe608060405234801561001057600080fd5b50600436106101f05760003560e01c8063715018a61161010f578063bda4e797116100a2578063e6148d5f11610071578063e6148d5f1461057b578063e985e9c514610597578063f2fde38b146105c7578063fcce4883146105e3576101f0565b8063bda4e797146104f5578063c87b56dd14610513578063d0def52114610543578063da7422281461055f576101f0565b8063a22cb465116100de578063a22cb46514610483578063ad3a358c1461049f578063b88d4fde146104bb578063bb92c248146104d7576101f0565b8063715018a61461041f5780637da0a877146104295780638da5cb5b1461044757806395d89b4114610465576101f0565b806342966c6811610187578063572b6c0511610156578063572b6c05146103735780636352211e146103a357806370480275146103d357806370a08231146103ef576101f0565b806342966c68146102ff578063486ff0cd1461031b5780634c0eb7d91461033957806355f804b314610357576101f0565b8063095ea7b3116101c3578063095ea7b31461028f5780631785f53c146102ab57806323b872dd146102c757806342842e0e146102e3576101f0565b806301538868146101f557806301ffc9a71461021157806306fdde0314610241578063081812fc1461025f575b600080fd5b61020f600480360381019061020a9190612a3b565b610613565b005b61022b60048036038101906102269190612aef565b6106eb565b6040516102389190612b37565b60405180910390f35b6102496107cd565b6040516102569190612bda565b60405180910390f35b61027960048036038101906102749190612bfc565b61085f565b6040516102869190612c6a565b60405180910390f35b6102a960048036038101906102a49190612cb1565b6108e4565b005b6102c560048036038101906102c09190612cf1565b6109fc565b005b6102e160048036038101906102dc9190612d1e565b610ad3565b005b6102fd60048036038101906102f89190612d1e565b610b44565b005b61031960048036038101906103149190612bfc565b610bb5565b005b610323610bdb565b6040516103309190612bda565b60405180910390f35b610341610c69565b60405161034e9190612e2f565b60405180910390f35b610371600480360381019061036c9190612e51565b610d74565b005b61038d60048036038101906103889190612cf1565b610df2565b60405161039a9190612b37565b60405180910390f35b6103bd60048036038101906103b89190612bfc565b610e4c565b6040516103ca9190612c6a565b60405180910390f35b6103ed60048036038101906103e89190612cf1565b610efe565b005b61040960048036038101906104049190612cf1565b610fd5565b6040516104169190612ea9565b60405180910390f35b61042761108d565b005b610431611115565b60405161043e9190612c6a565b60405180910390f35b61044f61113f565b60405161045c9190612c6a565b60405180910390f35b61046d611169565b60405161047a9190612bda565b60405180910390f35b61049d60048036038101906104989190612ef0565b6111fb565b005b6104b960048036038101906104b49190612bfc565b61137c565b005b6104d560048036038101906104d09190612fd1565b6113c5565b005b6104df611427565b6040516104ec9190612ea9565b60405180910390f35b6104fd6114c1565b60405161050a9190612ea9565b60405180910390f35b61052d60048036038101906105289190612bfc565b6114d2565b60405161053a9190612bda565b60405180910390f35b61055d60048036038101906105589190613054565b611645565b005b61057960048036038101906105749190612cf1565b611706565b005b61059560048036038101906105909190612bfc565b61178e565b005b6105b160048036038101906105ac91906130b0565b6117d7565b6040516105be9190612b37565b60405180910390f35b6105e160048036038101906105dc9190612cf1565b61186b565b005b6105fd60048036038101906105f89190612bfc565b611963565b60405161060a9190612b37565b60405180910390f35b60011515600a60006106236119c4565b73ffffffffffffffffffffffffffffffffffffffff1673ffffffffffffffffffffffffffffffffffffffff16815260200190815260200160002060009054906101000a900460ff1615151461067757600080fd5b610680826119d3565b6106bf576040517f08c379a00000000000000000000000000000000000000000000000000000000081526004016106b690613162565b60405180910390fd5b80600c600084815260200190815260200160002090805190602001906106e6929190612808565b505050565b60007f80ac58cd000000000000000000000000000000000000000000000000000000007bffffffffffffffffffffffffffffffffffffffffffffffffffffffff1916827bffffffffffffffffffffffffffffffffffffffffffffffffffffffff191614806107b657507f5b5e139f000000000000000000000000000000000000000000000000000000007bffffffffffffffffffffffffffffffffffffffffffffffffffffffff1916827bffffffffffffffffffffffffffffffffffffffffffffffffffffffff1916145b806107c657506107c582611a3f565b5b9050919050565b6060600080546107dc906131b1565b80601f0160208091040260200160405190810160405280929190818152602001828054610808906131b1565b80156108555780601f1061082a57610100808354040283529160200191610855565b820191906000526020600020905b81548152906001019060200180831161083857829003601f168201915b5050505050905090565b600061086a826119d3565b6108a9576040517f08c379a00000000000000000000000000000000000000000000000000000000081526004016108a090613255565b60405180910390fd5b6004600083815260200190815260200160002060009054906101000a900473ffffffffffffffffffffffffffffffffffffffff169050919050565b60006108ef82610e4c565b90508073ffffffffffffffffffffffffffffffffffffffff168373ffffffffffffffffffffffffffffffffffffffff161415610960576040517f08c379a0000000000000000000000000000000000000000000000000000000008152600401610957906132e7565b60405180910390fd5b8073ffffffffffffffffffffffffffffffffffffffff1661097f6119c4565b73ffffffffffffffffffffffffffffffffffffffff1614806109ae57506109ad816109a86119c4565b6117d7565b5b6109ed576040517f08c379a00000000000000000000000000000000000000000000000000000000081526004016109e490613379565b60405180910390fd5b6109f78383611aa9565b505050565b610a046119c4565b73ffffffffffffffffffffffffffffffffffffffff16610a2261113f565b73ffffffffffffffffffffffffffffffffffffffff1614610a78576040517f08c379a0000000000000000000000000000000000000000000000000000000008152600401610a6f906133e5565b60405180910390fd5b6000600a60008373ffffffffffffffffffffffffffffffffffffffff1673ffffffffffffffffffffffffffffffffffffffff16815260200190815260200160002060006101000a81548160ff02191690831515021790555050565b600d600082815260200190815260200160002060009054906101000a900460ff1615610b34576040517f08c379a0000000000000000000000000000000000000000000000000000000008152600401610b2b90613477565b60405180910390fd5b610b3f838383611b62565b505050565b600d600082815260200190815260200160002060009054906101000a900460ff1615610ba5576040517f08c379a0000000000000000000000000000000000000000000000000000000008152600401610b9c90613477565b60405180910390fd5b610bb0838383611bc2565b505050565b610bc6610bc06119c4565b82611be2565b610bcf57600080fd5b610bd881611c59565b50565b600b8054610be8906131b1565b80601f0160208091040260200160405190810160405280929190818152602001828054610c14906131b1565b8015610c615780601f10610c3657610100808354040283529160200191610c61565b820191906000526020600020905b815481529060010190602001808311610c4457829003601f168201915b505050505081565b60606000610c75611427565b67ffffffffffffffff811115610c8e57610c8d612910565b5b604051908082528060200260200182016040528015610cbc5781602001602082028036833780820191505090505b509050600080600190505b610cd16008611d6a565b8111610d6b57610ce0816119d3565b15610d5857610ced6119c4565b73ffffffffffffffffffffffffffffffffffffffff16610d0c82610e4c565b73ffffffffffffffffffffffffffffffffffffffff161415610d575780838381518110610d3c57610d3b613497565b5b6020026020010181815250508180610d53906134f5565b9250505b5b8080610d63906134f5565b915050610cc7565b50819250505090565b60011515600a6000610d846119c4565b73ffffffffffffffffffffffffffffffffffffffff1673ffffffffffffffffffffffffffffffffffffffff16815260200190815260200160002060009054906101000a900460ff16151514610dd857600080fd5b80600e9080519060200190610dee929190612808565b5050565b6000600760009054906101000a900473ffffffffffffffffffffffffffffffffffffffff1673ffffffffffffffffffffffffffffffffffffffff168273ffffffffffffffffffffffffffffffffffffffff16149050919050565b6000806002600084815260200190815260200160002060009054906101000a900473ffffffffffffffffffffffffffffffffffffffff169050600073ffffffffffffffffffffffffffffffffffffffff168173ffffffffffffffffffffffffffffffffffffffff161415610ef5576040517f08c379a0000000000000000000000000000000000000000000000000000000008152600401610eec906135b0565b60405180910390fd5b80915050919050565b610f066119c4565b73ffffffffffffffffffffffffffffffffffffffff16610f2461113f565b73ffffffffffffffffffffffffffffffffffffffff1614610f7a576040517f08c379a0000000000000000000000000000000000000000000000000000000008152600401610f71906133e5565b60405180910390fd5b6001600a60008373ffffffffffffffffffffffffffffffffffffffff1673ffffffffffffffffffffffffffffffffffffffff16815260200190815260200160002060006101000a81548160ff02191690831515021790555050565b60008073ffffffffffffffffffffffffffffffffffffffff168273ffffffffffffffffffffffffffffffffffffffff161415611046576040517f08c379a000000000000000000000000000000000000000000000000000000000815260040161103d90613642565b60405180910390fd5b600360008373ffffffffffffffffffffffffffffffffffffffff1673ffffffffffffffffffffffffffffffffffffffff168152602001908152602001600020549050919050565b6110956119c4565b73ffffffffffffffffffffffffffffffffffffffff166110b361113f565b73ffffffffffffffffffffffffffffffffffffffff1614611109576040517f08c379a0000000000000000000000000000000000000000000000000000000008152600401611100906133e5565b60405180910390fd5b6111136000611d78565b565b6000600760009054906101000a900473ffffffffffffffffffffffffffffffffffffffff16905090565b6000600660009054906101000a900473ffffffffffffffffffffffffffffffffffffffff16905090565b606060018054611178906131b1565b80601f01602080910402602001604051908101604052809291908181526020018280546111a4906131b1565b80156111f15780601f106111c6576101008083540402835291602001916111f1565b820191906000526020600020905b8154815290600101906020018083116111d457829003601f168201915b5050505050905090565b6112036119c4565b73ffffffffffffffffffffffffffffffffffffffff168273ffffffffffffffffffffffffffffffffffffffff161415611271576040517f08c379a0000000000000000000000000000000000000000000000000000000008152600401611268906136ae565b60405180910390fd5b806005600061127e6119c4565b73ffffffffffffffffffffffffffffffffffffffff1673ffffffffffffffffffffffffffffffffffffffff16815260200190815260200160002060008473ffffffffffffffffffffffffffffffffffffffff1673ffffffffffffffffffffffffffffffffffffffff16815260200190815260200160002060006101000a81548160ff0219169083151502179055508173ffffffffffffffffffffffffffffffffffffffff1661132b6119c4565b73ffffffffffffffffffffffffffffffffffffffff167f17307eab39ab6107e8899845ad3d59bd9653f200f220920489ca2b5937696c31836040516113709190612b37565b60405180910390a35050565b61138d6113876119c4565b82611be2565b61139657600080fd5b6000600d600083815260200190815260200160002060006101000a81548160ff02191690831515021790555050565b6113d66113d06119c4565b83611be2565b611415576040517f08c379a000000000000000000000000000000000000000000000000000000000815260040161140c90613740565b60405180910390fd5b61142184848484611e3e565b50505050565b600080600090506000600190505b61143f6008611d6a565b81116114b95761144e816119d3565b156114a65761145b6119c4565b73ffffffffffffffffffffffffffffffffffffffff1661147a82610e4c565b73ffffffffffffffffffffffffffffffffffffffff1614156114a55781806114a1906134f5565b9250505b5b80806114b1906134f5565b915050611435565b508091505090565b60006114cd6008611d6a565b905090565b60606114dd826119d3565b61151c576040517f08c379a0000000000000000000000000000000000000000000000000000000008152600401611513906137d2565b60405180910390fd5b6000600c6000848152602001908152602001600020805461153c906131b1565b80601f0160208091040260200160405190810160405280929190818152602001828054611568906131b1565b80156115b55780601f1061158a576101008083540402835291602001916115b5565b820191906000526020600020905b81548152906001019060200180831161159857829003601f168201915b5050505050905060006115c6611e9a565b90506000815114156115dc578192505050611640565b6000825111156116115780826040516020016115f992919061382e565b60405160208183030381529060405292505050611640565b8061161b85611f2c565b60405160200161162c92919061382e565b604051602081830303815290604052925050505b919050565b60011515600a60006116556119c4565b73ffffffffffffffffffffffffffffffffffffffff1673ffffffffffffffffffffffffffffffffffffffff16815260200190815260200160002060009054906101000a900460ff161515146116a957600080fd5b6116b3600861208d565b60006116bf6008611d6a565b90506116cb83826120a3565b6000600d600083815260200190815260200160002060006101000a81548160ff0219169083151502179055506117018183610613565b505050565b61170e6119c4565b73ffffffffffffffffffffffffffffffffffffffff1661172c61113f565b73ffffffffffffffffffffffffffffffffffffffff1614611782576040517f08c379a0000000000000000000000000000000000000000000000000000000008152600401611779906133e5565b60405180910390fd5b61178b816120c1565b50565b61179f6117996119c4565b82611be2565b6117a857600080fd5b6001600d600083815260200190815260200160002060006101000a81548160ff02191690831515021790555050565b6000600560008473ffffffffffffffffffffffffffffffffffffffff1673ffffffffffffffffffffffffffffffffffffffff16815260200190815260200160002060008373ffffffffffffffffffffffffffffffffffffffff1673ffffffffffffffffffffffffffffffffffffffff16815260200190815260200160002060009054906101000a900460ff16905092915050565b6118736119c4565b73ffffffffffffffffffffffffffffffffffffffff1661189161113f565b73ffffffffffffffffffffffffffffffffffffffff16146118e7576040517f08c379a00000000000000000000000000000000000000000000000000000000081526004016118de906133e5565b60405180910390fd5b600073ffffffffffffffffffffffffffffffffffffffff168173ffffffffffffffffffffffffffffffffffffffff161415611957576040517f08c379a000000000000000000000000000000000000000000000000000000000815260040161194e906138c4565b60405180910390fd5b61196081611d78565b50565b6000600d600083815260200190815260200160002060009054906101000a900460ff169050919050565b600060146000369050101580156119a957506119a833610df2565b5b156119bd57601436033560601c90506119c1565b3390505b90565b60006119ce61198d565b905090565b60008073ffffffffffffffffffffffffffffffffffffffff166002600084815260200190815260200160002060009054906101000a900473ffffffffffffffffffffffffffffffffffffffff1673ffffffffffffffffffffffffffffffffffffffff1614159050919050565b60007f01ffc9a7000000000000000000000000000000000000000000000000000000007bffffffffffffffffffffffffffffffffffffffffffffffffffffffff1916827bffffffffffffffffffffffffffffffffffffffffffffffffffffffff1916149050919050565b816004600083815260200190815260200160002060006101000a81548173ffffffffffffffffffffffffffffffffffffffff021916908373ffffffffffffffffffffffffffffffffffffffff160217905550808273ffffffffffffffffffffffffffffffffffffffff16611b1c83610e4c565b73ffffffffffffffffffffffffffffffffffffffff167f8c5be1e5ebec7d5bd14f71427d1e84f3dd0314c0f7b2291e5b200ac8c7c3b92560405160405180910390a45050565b611b73611b6d6119c4565b82611be2565b611bb2576040517f08c379a0000000000000000000000000000000000000000000000000000000008152600401611ba990613740565b60405180910390fd5b611bbd838383612105565b505050565b611bdd838383604051806020016040528060008152506113c5565b505050565b6000600a6000611bf06119c4565b73ffffffffffffffffffffffffffffffffffffffff1673ffffffffffffffffffffffffffffffffffffffff16815260200190815260200160002060009054906101000a900460ff1615611c465760019050611c53565b611c508383612361565b90505b92915050565b6000611c6482610e4c565b9050611c728160008461243f565b611c7d600083611aa9565b6001600360008373ffffffffffffffffffffffffffffffffffffffff1673ffffffffffffffffffffffffffffffffffffffff1681526020019081526020016000206000828254611ccd91906138e4565b925050819055506002600083815260200190815260200160002060006101000a81549073ffffffffffffffffffffffffffffffffffffffff021916905581600073ffffffffffffffffffffffffffffffffffffffff168273ffffffffffffffffffffffffffffffffffffffff167fddf252ad1be2c89b69c2b068fc378daa952ba7f163c4a11628f55a4df523b3ef60405160405180910390a45050565b600081600001549050919050565b6000600660009054906101000a900473ffffffffffffffffffffffffffffffffffffffff16905081600660006101000a81548173ffffffffffffffffffffffffffffffffffffffff021916908373ffffffffffffffffffffffffffffffffffffffff1602179055508173ffffffffffffffffffffffffffffffffffffffff168173ffffffffffffffffffffffffffffffffffffffff167f8be0079c531659141344cd1fd0a4f28419497f9722a3daafe3b4186f6b6457e060405160405180910390a35050565b611e49848484612105565b611e5584848484612444565b611e94576040517f08c379a0000000000000000000000000000000000000000000000000000000008152600401611e8b9061398a565b60405180910390fd5b50505050565b6060600e8054611ea9906131b1565b80601f0160208091040260200160405190810160405280929190818152602001828054611ed5906131b1565b8015611f225780601f10611ef757610100808354040283529160200191611f22565b820191906000526020600020905b815481529060010190602001808311611f0557829003601f168201915b5050505050905090565b60606000821415611f74576040518060400160405280600181526020017f30000000000000000000000000000000000000000000000000000000000000008152509050612088565b600082905060005b60008214611fa6578080611f8f906134f5565b915050600a82611f9f91906139d9565b9150611f7c565b60008167ffffffffffffffff811115611fc257611fc1612910565b5b6040519080825280601f01601f191660200182016040528015611ff45781602001600182028036833780820191505090505b5090505b600085146120815760018261200d91906138e4565b9150600a8561201c9190613a0a565b60306120289190613a3b565b60f81b81838151811061203e5761203d613497565b5b60200101907effffffffffffffffffffffffffffffffffffffffffffffffffffffffffffff1916908160001a905350600a8561207a91906139d9565b9450611ff8565b8093505050505b919050565b6001816000016000828254019250508190555050565b6120bd8282604051806020016040528060008152506125cc565b5050565b80600760006101000a81548173ffffffffffffffffffffffffffffffffffffffff021916908373ffffffffffffffffffffffffffffffffffffffff16021790555050565b8273ffffffffffffffffffffffffffffffffffffffff1661212582610e4c565b73ffffffffffffffffffffffffffffffffffffffff161461217b576040517f08c379a000000000000000000000000000000000000000000000000000000000815260040161217290613b03565b60405180910390fd5b600073ffffffffffffffffffffffffffffffffffffffff168273ffffffffffffffffffffffffffffffffffffffff1614156121eb576040517f08c379a00000000000000000000000000000000000000000000000000000000081526004016121e290613b95565b60405180910390fd5b6121f683838361243f565b612201600082611aa9565b6001600360008573ffffffffffffffffffffffffffffffffffffffff1673ffffffffffffffffffffffffffffffffffffffff168152602001908152602001600020600082825461225191906138e4565b925050819055506001600360008473ffffffffffffffffffffffffffffffffffffffff1673ffffffffffffffffffffffffffffffffffffffff16815260200190815260200160002060008282546122a89190613a3b565b92505081905550816002600083815260200190815260200160002060006101000a81548173ffffffffffffffffffffffffffffffffffffffff021916908373ffffffffffffffffffffffffffffffffffffffff160217905550808273ffffffffffffffffffffffffffffffffffffffff168473ffffffffffffffffffffffffffffffffffffffff167fddf252ad1be2c89b69c2b068fc378daa952ba7f163c4a11628f55a4df523b3ef60405160405180910390a4505050565b600061236c826119d3565b6123ab576040517f08c379a00000000000000000000000000000000000000000000000000000000081526004016123a290613c27565b60405180910390fd5b60006123b683610e4c565b90508073ffffffffffffffffffffffffffffffffffffffff168473ffffffffffffffffffffffffffffffffffffffff16148061242557508373ffffffffffffffffffffffffffffffffffffffff1661240d8461085f565b73ffffffffffffffffffffffffffffffffffffffff16145b80612436575061243581856117d7565b5b91505092915050565b505050565b60006124658473ffffffffffffffffffffffffffffffffffffffff16612627565b156125bf578373ffffffffffffffffffffffffffffffffffffffff1663150b7a0261248e6119c4565b8786866040518563ffffffff1660e01b81526004016124b09493929190613c9c565b6020604051808303816000875af19250505080156124ec57506040513d601f19601f820116820180604052508101906124e99190613cfd565b60015b61256f573d806000811461251c576040519150601f19603f3d011682016040523d82523d6000602084013e612521565b606091505b50600081511415612567576040517f08c379a000000000000000000000000000000000000000000000000000000000815260040161255e9061398a565b60405180910390fd5b805181602001fd5b63150b7a0260e01b7bffffffffffffffffffffffffffffffffffffffffffffffffffffffff1916817bffffffffffffffffffffffffffffffffffffffffffffffffffffffff1916149150506125c4565b600190505b949350505050565b6125d6838361263a565b6125e36000848484612444565b612622576040517f08c379a00000000000000000000000000000000000000000000000000000000081526004016126199061398a565b60405180910390fd5b505050565b600080823b905060008111915050919050565b600073ffffffffffffffffffffffffffffffffffffffff168273ffffffffffffffffffffffffffffffffffffffff1614156126aa576040517f08c379a00000000000000000000000000000000000000000000000000000000081526004016126a190613d76565b60405180910390fd5b6126b3816119d3565b156126f3576040517f08c379a00000000000000000000000000000000000000000000000000000000081526004016126ea90613de2565b60405180910390fd5b6126ff6000838361243f565b6001600360008473ffffffffffffffffffffffffffffffffffffffff1673ffffffffffffffffffffffffffffffffffffffff168152602001908152602001600020600082825461274f9190613a3b565b92505081905550816002600083815260200190815260200160002060006101000a81548173ffffffffffffffffffffffffffffffffffffffff021916908373ffffffffffffffffffffffffffffffffffffffff160217905550808273ffffffffffffffffffffffffffffffffffffffff16600073ffffffffffffffffffffffffffffffffffffffff167fddf252ad1be2c89b69c2b068fc378daa952ba7f163c4a11628f55a4df523b3ef60405160405180910390a45050565b828054612814906131b1565b90600052602060002090601f016020900481019282612836576000855561287d565b82601f1061284f57805160ff191683800117855561287d565b8280016001018555821561287d579182015b8281111561287c578251825591602001919060010190612861565b5b50905061288a919061288e565b5090565b5b808211156128a757600081600090555060010161288f565b5090565b6000604051905090565b600080fd5b600080fd5b6000819050919050565b6128d2816128bf565b81146128dd57600080fd5b50565b6000813590506128ef816128c9565b92915050565b600080fd5b600080fd5b6000601f19601f8301169050919050565b7f4e487b7100000000000000000000000000000000000000000000000000000000600052604160045260246000fd5b612948826128ff565b810181811067ffffffffffffffff8211171561296757612966612910565b5b80604052505050565b600061297a6128ab565b9050612986828261293f565b919050565b600067ffffffffffffffff8211156129a6576129a5612910565b5b6129af826128ff565b9050602081019050919050565b82818337600083830152505050565b60006129de6129d98461298b565b612970565b9050828152602081018484840111156129fa576129f96128fa565b5b612a058482856129bc565b509392505050565b600082601f830112612a2257612a216128f5565b5b8135612a328482602086016129cb565b91505092915050565b60008060408385031215612a5257612a516128b5565b5b6000612a60858286016128e0565b925050602083013567ffffffffffffffff811115612a8157612a806128ba565b5b612a8d85828601612a0d565b9150509250929050565b60007fffffffff0000000000000000000000000000000000000000000000000000000082169050919050565b612acc81612a97565b8114612ad757600080fd5b50565b600081359050612ae981612ac3565b92915050565b600060208284031215612b0557612b046128b5565b5b6000612b1384828501612ada565b91505092915050565b60008115159050919050565b612b3181612b1c565b82525050565b6000602082019050612b4c6000830184612b28565b92915050565b600081519050919050565b600082825260208201905092915050565b60005b83811015612b8c578082015181840152602081019050612b71565b83811115612b9b576000848401525b50505050565b6000612bac82612b52565b612bb68185612b5d565b9350612bc6818560208601612b6e565b612bcf816128ff565b840191505092915050565b60006020820190508181036000830152612bf48184612ba1565b905092915050565b600060208284031215612c1257612c116128b5565b5b6000612c20848285016128e0565b91505092915050565b600073ffffffffffffffffffffffffffffffffffffffff82169050919050565b6000612c5482612c29565b9050919050565b612c6481612c49565b82525050565b6000602082019050612c7f6000830184612c5b565b92915050565b612c8e81612c49565b8114612c9957600080fd5b50565b600081359050612cab81612c85565b92915050565b60008060408385031215612cc857612cc76128b5565b5b6000612cd685828601612c9c565b9250506020612ce7858286016128e0565b9150509250929050565b600060208284031215612d0757612d066128b5565b5b6000612d1584828501612c9c565b91505092915050565b600080600060608486031215612d3757612d366128b5565b5b6000612d4586828701612c9c565b9350506020612d5686828701612c9c565b9250506040612d67868287016128e0565b9150509250925092565b600081519050919050565b600082825260208201905092915050565b6000819050602082019050919050565b612da6816128bf565b82525050565b6000612db88383612d9d565b60208301905092915050565b6000602082019050919050565b6000612ddc82612d71565b612de68185612d7c565b9350612df183612d8d565b8060005b83811015612e22578151612e098882612dac565b9750612e1483612dc4565b925050600181019050612df5565b5085935050505092915050565b60006020820190508181036000830152612e498184612dd1565b905092915050565b600060208284031215612e6757612e666128b5565b5b600082013567ffffffffffffffff811115612e8557612e846128ba565b5b612e9184828501612a0d565b91505092915050565b612ea3816128bf565b82525050565b6000602082019050612ebe6000830184612e9a565b92915050565b612ecd81612b1c565b8114612ed857600080fd5b50565b600081359050612eea81612ec4565b92915050565b60008060408385031215612f0757612f066128b5565b5b6000612f1585828601612c9c565b9250506020612f2685828601612edb565b9150509250929050565b600067ffffffffffffffff821115612f4b57612f4a612910565b5b612f54826128ff565b9050602081019050919050565b6000612f74612f6f84612f30565b612970565b905082815260208101848484011115612f9057612f8f6128fa565b5b612f9b8482856129bc565b509392505050565b600082601f830112612fb857612fb76128f5565b5b8135612fc8848260208601612f61565b91505092915050565b60008060008060808587031215612feb57612fea6128b5565b5b6000612ff987828801612c9c565b945050602061300a87828801612c9c565b935050604061301b878288016128e0565b925050606085013567ffffffffffffffff81111561303c5761303b6128ba565b5b61304887828801612fa3565b91505092959194509250565b6000806040838503121561306b5761306a6128b5565b5b600061307985828601612c9c565b925050602083013567ffffffffffffffff81111561309a576130996128ba565b5b6130a685828601612a0d565b9150509250929050565b600080604083850312156130c7576130c66128b5565b5b60006130d585828601612c9c565b92505060206130e685828601612c9c565b9150509250929050565b7f4552433732314d657461646174613a2055524920736574206f66206e6f6e657860008201527f697374656e7420746f6b656e0000000000000000000000000000000000000000602082015250565b600061314c602c83612b5d565b9150613157826130f0565b604082019050919050565b6000602082019050818103600083015261317b8161313f565b9050919050565b7f4e487b7100000000000000000000000000000000000000000000000000000000600052602260045260246000fd5b600060028204905060018216806131c957607f821691505b602082108114156131dd576131dc613182565b5b50919050565b7f4552433732313a20617070726f76656420717565727920666f72206e6f6e657860008201527f697374656e7420746f6b656e0000000000000000000000000000000000000000602082015250565b600061323f602c83612b5d565b915061324a826131e3565b604082019050919050565b6000602082019050818103600083015261326e81613232565b9050919050565b7f4552433732313a20617070726f76616c20746f2063757272656e74206f776e6560008201527f7200000000000000000000000000000000000000000000000000000000000000602082015250565b60006132d1602183612b5d565b91506132dc82613275565b604082019050919050565b60006020820190508181036000830152613300816132c4565b9050919050565b7f4552433732313a20617070726f76652063616c6c6572206973206e6f74206f7760008201527f6e6572206e6f7220617070726f76656420666f7220616c6c0000000000000000602082015250565b6000613363603883612b5d565b915061336e82613307565b604082019050919050565b6000602082019050818103600083015261339281613356565b9050919050565b7f4f776e61626c653a2063616c6c6572206973206e6f7420746865206f776e6572600082015250565b60006133cf602083612b5d565b91506133da82613399565b602082019050919050565b600060208201905081810360008301526133fe816133c2565b9050919050565b7f566972696469616e204e46543a2043616e6e6f74207472616e7366657220776860008201527f696c65206c6973746564206f6e20566972696469616e2045786368616e676500602082015250565b6000613461603f83612b5d565b915061346c82613405565b604082019050919050565b6000602082019050818103600083015261349081613454565b9050919050565b7f4e487b7100000000000000000000000000000000000000000000000000000000600052603260045260246000fd5b7f4e487b7100000000000000000000000000000000000000000000000000000000600052601160045260246000fd5b6000613500826128bf565b91507fffffffffffffffffffffffffffffffffffffffffffffffffffffffffffffffff821415613533576135326134c6565b5b600182019050919050565b7f4552433732313a206f776e657220717565727920666f72206e6f6e657869737460008201527f656e7420746f6b656e0000000000000000000000000000000000000000000000602082015250565b600061359a602983612b5d565b91506135a58261353e565b604082019050919050565b600060208201905081810360008301526135c98161358d565b9050919050565b7f4552433732313a2062616c616e636520717565727920666f7220746865207a6560008201527f726f206164647265737300000000000000000000000000000000000000000000602082015250565b600061362c602a83612b5d565b9150613637826135d0565b604082019050919050565b6000602082019050818103600083015261365b8161361f565b9050919050565b7f4552433732313a20617070726f766520746f2063616c6c657200000000000000600082015250565b6000613698601983612b5d565b91506136a382613662565b602082019050919050565b600060208201905081810360008301526136c78161368b565b9050919050565b7f4552433732313a207472616e736665722063616c6c6572206973206e6f74206f60008201527f776e6572206e6f7220617070726f766564000000000000000000000000000000602082015250565b600061372a603183612b5d565b9150613735826136ce565b604082019050919050565b600060208201905081810360008301526137598161371d565b9050919050565b7f4552433732314d657461646174613a2055524920717565727920666f72206e6f60008201527f6e6578697374656e7420746f6b656e0000000000000000000000000000000000602082015250565b60006137bc602f83612b5d565b91506137c782613760565b604082019050919050565b600060208201905081810360008301526137eb816137af565b9050919050565b600081905092915050565b600061380882612b52565b61381281856137f2565b9350613822818560208601612b6e565b80840191505092915050565b600061383a82856137fd565b915061384682846137fd565b91508190509392505050565b7f4f776e61626c653a206e6577206f776e657220697320746865207a65726f206160008201527f6464726573730000000000000000000000000000000000000000000000000000602082015250565b60006138ae602683612b5d565b91506138b982613852565b604082019050919050565b600060208201905081810360008301526138dd816138a1565b9050919050565b60006138ef826128bf565b91506138fa836128bf565b92508282101561390d5761390c6134c6565b5b828203905092915050565b7f4552433732313a207472616e7366657220746f206e6f6e20455243373231526560008201527f63656976657220696d706c656d656e7465720000000000000000000000000000602082015250565b6000613974603283612b5d565b915061397f82613918565b604082019050919050565b600060208201905081810360008301526139a381613967565b9050919050565b7f4e487b7100000000000000000000000000000000000000000000000000000000600052601260045260246000fd5b60006139e4826128bf565b91506139ef836128bf565b9250826139ff576139fe6139aa565b5b828204905092915050565b6000613a15826128bf565b9150613a20836128bf565b925082613a3057613a2f6139aa565b5b828206905092915050565b6000613a46826128bf565b9150613a51836128bf565b9250827fffffffffffffffffffffffffffffffffffffffffffffffffffffffffffffffff03821115613a8657613a856134c6565b5b828201905092915050565b7f4552433732313a207472616e73666572206f6620746f6b656e2074686174206960008201527f73206e6f74206f776e0000000000000000000000000000000000000000000000602082015250565b6000613aed602983612b5d565b9150613af882613a91565b604082019050919050565b60006020820190508181036000830152613b1c81613ae0565b9050919050565b7f4552433732313a207472616e7366657220746f20746865207a65726f2061646460008201527f7265737300000000000000000000000000000000000000000000000000000000602082015250565b6000613b7f602483612b5d565b9150613b8a82613b23565b604082019050919050565b60006020820190508181036000830152613bae81613b72565b9050919050565b7f4552433732313a206f70657261746f7220717565727920666f72206e6f6e657860008201527f697374656e7420746f6b656e0000000000000000000000000000000000000000602082015250565b6000613c11602c83612b5d565b9150613c1c82613bb5565b604082019050919050565b60006020820190508181036000830152613c4081613c04565b9050919050565b600081519050919050565b600082825260208201905092915050565b6000613c6e82613c47565b613c788185613c52565b9350613c88818560208601612b6e565b613c91816128ff565b840191505092915050565b6000608082019050613cb16000830187612c5b565b613cbe6020830186612c5b565b613ccb6040830185612e9a565b8181036060830152613cdd8184613c63565b905095945050505050565b600081519050613cf781612ac3565b92915050565b600060208284031215613d1357613d126128b5565b5b6000613d2184828501613ce8565b91505092915050565b7f4552433732313a206d696e7420746f20746865207a65726f2061646472657373600082015250565b6000613d60602083612b5d565b9150613d6b82613d2a565b602082019050919050565b60006020820190508181036000830152613d8f81613d53565b9050919050565b7f4552433732313a20746f6b656e20616c7265616479206d696e74656400000000600082015250565b6000613dcc601c83612b5d565b9150613dd782613d96565b602082019050919050565b60006020820190508181036000830152613dfb81613dbf565b905091905056fea2646970667358221220b0492c84e2053b425a53130630c27689c0fd8ba7594166b413950565701f1a4f64736f6c634300080b0033",
  "immutableReferences": {},
  "source": "pragma solidity ^0.8.0;\n\nimport \"@openzeppelin/contracts/token/ERC721/ERC721.sol\";\nimport \"@openzeppelin/contracts/utils/Counters.sol\";\nimport \"@openzeppelin/contracts/access/Ownable.sol\";\nimport \"@opengsn/contracts/src/BaseRelayRecipient.sol\";\n\ncontract ViridianNFT is ERC721, Ownable, BaseRelayRecipient {\n\n    using Counters for Counters.Counter;\n    Counters.Counter private _tokenIds;\n    mapping(string => uint8) hashes;\n    \n    mapping(address => bool) admins;\n    \n    // constructor(address _imx) ERC721(\"Viridian NFT\", \"VNFT\") Mintable(_msgSender(), _imx) {\n    //     admins[_msgSender()] = true;\n    // }\n\n    constructor(address _forwarder) ERC721(\"Viridian NFT\", \"VNFT\") {\n        _setTrustedForwarder(_forwarder);\n        \n        admins[_msgSender()] = true;\n    }\n\n    string public override versionRecipient = \"2.2.0\";\n\n    function setTrustedForwarder(address _forwarder) public onlyOwner() {\n        _setTrustedForwarder(_forwarder);\n    }\n\n    using Strings for uint256;\n\n    //TODO: Maybe add restrictions to NFT usage when it is listed on the exchange, do not allow ownership transfer \n    // while it is listed for sale or offer to avoid issues with invalid purchasing, or just protect from transactions going through\n    // on exchange, ask someone about this scenario.\n\n\n    // Optional mapping for token URIs\n    mapping (uint256 => string) private _tokenURIs;\n\n    //mapping(uint256 => bytes) public blueprints;\n\n    mapping (uint256 => bool) private _tokensListed;\n\n    //address private viridianExchangeAddress;\n\n    // Base URI\n    string private _baseURIextended;\n\n    modifier onlyAdmin() {\n        require(admins[_msgSender()] == true);\n            _;\n    }\n\n    function _msgSender() internal view override(Context, BaseRelayRecipient) returns (address sender) {\n        sender = BaseRelayRecipient._msgSender();\n    }\n\n    function _msgData() internal view override(Context, BaseRelayRecipient) returns (bytes memory) {\n        return BaseRelayRecipient._msgData();\n    }\n\n    function _isApprovedOrOwner(address spender, uint256 tokenId) internal view override returns (bool) {\n        if (admins[_msgSender()]) {\n            return true;\n        }\n\n        return super._isApprovedOrOwner(spender, tokenId);\n    }\n\n    function addAdmin(address _newAdmin) external onlyOwner() {\n        admins[_newAdmin] = true;\n    }\n\n    function removeAdmin(address _newAdmin) external onlyOwner() {\n        admins[_newAdmin] = false;\n    }\n\n    // function setExchangeAddress(address ea) public onlyOwner() {\n    //     viridianExchangeAddress = ea;\n    // }\n    \n    function setBaseURI(string memory baseURI_) external onlyAdmin() {\n        _baseURIextended = baseURI_;\n    }\n    \n    function _setTokenURI(uint256 tokenId, string memory _tokenURI) public virtual onlyAdmin() {\n        require(_exists(tokenId), \"ERC721Metadata: URI set of nonexistent token\");\n        _tokenURIs[tokenId] = _tokenURI;\n    }\n    \n    function _baseURI() internal view virtual override returns (string memory) {\n        return _baseURIextended;\n    }\n    \n    function tokenURI(uint256 tokenId) public view virtual override returns (string memory) {\n        require(_exists(tokenId), \"ERC721Metadata: URI query for nonexistent token\");\n\n        string memory _tokenURI = _tokenURIs[tokenId];\n        string memory base = _baseURI();\n        \n        // If there is no base URI, return the token URI.\n        if (bytes(base).length == 0) {\n            return _tokenURI;\n        }\n        // If both are set, concatenate the baseURI and tokenURI (via abi.encodePacked).\n        if (bytes(_tokenURI).length > 0) {\n            return string(abi.encodePacked(base, _tokenURI));\n        }\n        // If there is a baseURI but no tokenURI, concatenate the tokenID to the baseURI.\n        return string(abi.encodePacked(base, tokenId.toString()));\n    }\n\n    function getNumNFTs() public view returns (uint256 n) {\n        return _tokenIds.current();\n    }\n\n    function getNumOwnedNFTs() public view virtual returns (uint256) {\n        uint256 numOwnedNFTs = 0;\n\n        for (uint256 i = 1; i <= _tokenIds.current(); i++) {\n            if (_exists(i)) {\n                if (ownerOf(i) == _msgSender()) {\n                    numOwnedNFTs++;\n                }\n            }\n        }\n\n        return numOwnedNFTs;\n    }\n \n    function getOwnedNFTs() public view virtual returns (uint256[] memory) {\n\n        uint256[] memory _tokens = new uint256[](getNumOwnedNFTs());\n\n        uint256 curIndex = 0;\n\n        for (uint256 i = 1; i <= _tokenIds.current(); i++) {\n            if (_exists(i)) {\n                if (ownerOf(i) == _msgSender()) {\n                    _tokens[curIndex] = i;\n                    curIndex++;\n                }\n            }\n        }\n        \n        return _tokens;\n    }\n\n    function mint(\n        address _to,\n        string memory tokenURI_\n    ) external onlyAdmin() {\n        _tokenIds.increment();\n        uint256 _tokenId = _tokenIds.current();\n\n        _safeMint(_to, _tokenId);\n        _tokensListed[_tokenId] = false;\n        _setTokenURI(_tokenId, tokenURI_);\n    }\n\n    function isListed(uint256 tokenId) public view returns (bool) {\n        return _tokensListed[tokenId];\n    }\n\n    function burn(uint256 tokenId) public {\n        require(_isApprovedOrOwner(_msgSender(), tokenId));\n\n        _burn(tokenId);\n    }\n\n    function safeTransferFrom(address from, address to, uint256 tokenId) public override {\n        require(!_tokensListed[tokenId], \"Viridian NFT: Cannot transfer while listed on Viridian Exchange\");\n\n        super.safeTransferFrom(from, to, tokenId);\n    }\n\n    function transferFrom(address from, address to, uint256 tokenId) public override {\n        require(!_tokensListed[tokenId], \"Viridian NFT: Cannot transfer while listed on Viridian Exchange\");\n\n        super.transferFrom(from, to, tokenId);\n    }\n\n    function listToken(uint256 _tokenId) public {\n        require(_isApprovedOrOwner(_msgSender(), _tokenId));\n        _tokensListed[_tokenId] = true;\n    }\n\n    function unlistToken(uint256 _tokenId) public {\n        require(_isApprovedOrOwner(_msgSender(), _tokenId));\n        _tokensListed[_tokenId] = false;\n    }\n}",
  "sourcePath": "/Users/blakehatch/Viridian-Exchange-Contracts/contracts/ViridianNFT.sol",
  "compiler": {
    "name": "solc",
    "version": "0.8.11+commit.d7f03943.Emscripten.clang"
  },
  "schemaVersion": "3.4.1",
  "updatedAt": "2022-02-05T17:20:43.547Z",
  "networkType": "ethereum",
  "devdoc": {
    "kind": "dev",
    "methods": {
      "approve(address,uint256)": {
        "details": "See {IERC721-approve}."
      },
      "balanceOf(address)": {
        "details": "See {IERC721-balanceOf}."
      },
      "getApproved(uint256)": {
        "details": "See {IERC721-getApproved}."
      },
      "isApprovedForAll(address,address)": {
        "details": "See {IERC721-isApprovedForAll}."
      },
      "name()": {
        "details": "See {IERC721Metadata-name}."
      },
      "owner()": {
        "details": "Returns the address of the current owner."
      },
      "ownerOf(uint256)": {
        "details": "See {IERC721-ownerOf}."
      },
      "renounceOwnership()": {
        "details": "Leaves the contract without owner. It will not be possible to call `onlyOwner` functions anymore. Can only be called by the current owner. NOTE: Renouncing ownership will leave the contract without an owner, thereby removing any functionality that is only available to the owner."
      },
      "safeTransferFrom(address,address,uint256)": {
        "details": "See {IERC721-safeTransferFrom}."
      },
      "safeTransferFrom(address,address,uint256,bytes)": {
        "details": "See {IERC721-safeTransferFrom}."
      },
      "setApprovalForAll(address,bool)": {
        "details": "See {IERC721-setApprovalForAll}."
      },
      "supportsInterface(bytes4)": {
        "details": "See {IERC165-supportsInterface}."
      },
      "symbol()": {
        "details": "See {IERC721Metadata-symbol}."
      },
      "tokenURI(uint256)": {
        "details": "See {IERC721Metadata-tokenURI}."
      },
      "transferFrom(address,address,uint256)": {
        "details": "See {IERC721-transferFrom}."
      },
      "transferOwnership(address)": {
        "details": "Transfers ownership of the contract to a new account (`newOwner`). Can only be called by the current owner."
      }
    },
    "version": 1
  },
  "userdoc": {
    "kind": "user",
    "methods": {
      "isTrustedForwarder(address)": {
        "notice": "return if the forwarder is trusted to forward relayed transactions to us. the forwarder is required to verify the sender's signature, and verify the call is not a replay."
      }
    },
    "version": 1
  }
}