{
  "contractName": "ViridianExchange",
  "abi": [
    {
      "inputs": [
        {
          "internalType": "address",
          "name": "_erc20Token",
          "type": "address"
        },
        {
          "internalType": "address",
          "name": "_viridianNFT",
          "type": "address"
        },
        {
          "internalType": "address",
          "name": "_forwarder",
          "type": "address"
        },
        {
          "internalType": "address",
          "name": "_treasury",
          "type": "address"
        }
      ],
      "stateMutability": "nonpayable",
      "type": "constructor"
    },
    {
      "anonymous": false,
      "inputs": [
        {
          "indexed": false,
          "internalType": "uint256",
          "name": "tokenId",
          "type": "uint256"
        },
        {
          "indexed": false,
          "internalType": "string",
          "name": "uri",
          "type": "string"
        },
        {
          "indexed": false,
          "internalType": "address",
          "name": "wallet",
          "type": "address"
        },
        {
          "indexed": false,
          "internalType": "bool",
          "name": "listed",
          "type": "bool"
        }
      ],
      "name": "ItemListed",
      "type": "event"
    },
    {
      "anonymous": false,
      "inputs": [
        {
          "indexed": false,
          "internalType": "uint256",
          "name": "tokenId",
          "type": "uint256"
        },
        {
          "indexed": false,
          "internalType": "string",
          "name": "uri",
          "type": "string"
        },
        {
          "indexed": false,
          "internalType": "address",
          "name": "wallet",
          "type": "address"
        },
        {
          "indexed": false,
          "internalType": "bool",
          "name": "listed",
          "type": "bool"
        }
      ],
      "name": "ItemUnlisted",
      "type": "event"
    },
    {
      "anonymous": false,
      "inputs": [
        {
          "indexed": true,
          "internalType": "address",
          "name": "previousOwner",
          "type": "address"
        },
        {
          "indexed": true,
          "internalType": "address",
          "name": "newOwner",
          "type": "address"
        }
      ],
      "name": "OwnershipTransferred",
      "type": "event"
    },
    {
      "anonymous": false,
      "inputs": [
        {
          "indexed": false,
          "internalType": "uint256",
          "name": "tokenId",
          "type": "uint256"
        },
        {
          "indexed": false,
          "internalType": "uint256",
          "name": "price",
          "type": "uint256"
        },
        {
          "indexed": false,
          "internalType": "string",
          "name": "uri",
          "type": "string"
        },
        {
          "indexed": false,
          "internalType": "address",
          "name": "wallet",
          "type": "address"
        },
        {
          "indexed": false,
          "internalType": "bool",
          "name": "purchased",
          "type": "bool"
        }
      ],
      "name": "PurchasedListing",
      "type": "event"
    },
    {
      "inputs": [
        {
          "internalType": "address",
          "name": "",
          "type": "address"
        }
      ],
      "name": "approvedTokens",
      "outputs": [
        {
          "internalType": "bool",
          "name": "",
          "type": "bool"
        }
      ],
      "stateMutability": "view",
      "type": "function",
      "constant": true
    },
    {
      "inputs": [
        {
          "internalType": "address",
          "name": "forwarder",
          "type": "address"
        }
      ],
      "name": "isTrustedForwarder",
      "outputs": [
        {
          "internalType": "bool",
          "name": "",
          "type": "bool"
        }
      ],
      "stateMutability": "view",
      "type": "function",
      "constant": true
    },
    {
      "inputs": [],
      "name": "owner",
      "outputs": [
        {
          "internalType": "address",
          "name": "",
          "type": "address"
        }
      ],
      "stateMutability": "view",
      "type": "function",
      "constant": true
    },
    {
      "inputs": [],
      "name": "renounceOwnership",
      "outputs": [],
      "stateMutability": "nonpayable",
      "type": "function"
    },
    {
      "inputs": [
        {
          "internalType": "address",
          "name": "newOwner",
          "type": "address"
        }
      ],
      "name": "transferOwnership",
      "outputs": [],
      "stateMutability": "nonpayable",
      "type": "function"
    },
    {
      "inputs": [],
      "name": "trustedForwarder",
      "outputs": [
        {
          "internalType": "address",
          "name": "",
          "type": "address"
        }
      ],
      "stateMutability": "view",
      "type": "function",
      "constant": true
    },
    {
      "inputs": [],
      "name": "versionRecipient",
      "outputs": [
        {
          "internalType": "string",
          "name": "",
          "type": "string"
        }
      ],
      "stateMutability": "view",
      "type": "function",
      "constant": true
    },
    {
      "inputs": [],
      "name": "viridianNFT",
      "outputs": [
        {
          "internalType": "address",
          "name": "",
          "type": "address"
        }
      ],
      "stateMutability": "view",
      "type": "function",
      "constant": true
    },
    {
      "inputs": [
        {
          "internalType": "address",
          "name": "_forwarder",
          "type": "address"
        }
      ],
      "name": "setTrustedForwarder",
      "outputs": [],
      "stateMutability": "nonpayable",
      "type": "function"
    },
    {
      "inputs": [
        {
          "internalType": "uint256",
          "name": "_newRoyalty",
          "type": "uint256"
        }
      ],
      "name": "setRoyalty",
      "outputs": [],
      "stateMutability": "nonpayable",
      "type": "function"
    },
    {
      "inputs": [
        {
          "internalType": "uint256",
          "name": "_newRoyalty",
          "type": "uint256"
        }
      ],
      "name": "setWhitelistRoyalty",
      "outputs": [],
      "stateMutability": "nonpayable",
      "type": "function"
    },
    {
      "inputs": [
        {
          "internalType": "address",
          "name": "_erc20Address",
          "type": "address"
        }
      ],
      "name": "addERC20Token",
      "outputs": [],
      "stateMutability": "nonpayable",
      "type": "function"
    },
    {
      "inputs": [
        {
          "internalType": "address",
          "name": "_erc20Address",
          "type": "address"
        }
      ],
      "name": "removeERC20Token",
      "outputs": [],
      "stateMutability": "nonpayable",
      "type": "function"
    },
    {
      "inputs": [
        {
          "internalType": "address",
          "name": "_erc20Address",
          "type": "address"
        }
      ],
      "name": "isTokenApproved",
      "outputs": [
        {
          "internalType": "bool",
          "name": "",
          "type": "bool"
        }
      ],
      "stateMutability": "view",
      "type": "function",
      "constant": true
    },
    {
      "inputs": [],
      "name": "getBalance",
      "outputs": [
        {
          "internalType": "uint256",
          "name": "",
          "type": "uint256"
        }
      ],
      "stateMutability": "view",
      "type": "function",
      "constant": true
    },
    {
      "inputs": [],
      "name": "getListings",
      "outputs": [
        {
          "internalType": "uint256[]",
          "name": "",
          "type": "uint256[]"
        }
      ],
      "stateMutability": "view",
      "type": "function",
      "constant": true
    },
    {
      "inputs": [
        {
          "internalType": "uint256",
          "name": "_listingId",
          "type": "uint256"
        }
      ],
      "name": "getListingFromId",
      "outputs": [
        {
          "components": [
            {
              "internalType": "uint256",
              "name": "listingId",
              "type": "uint256"
            },
            {
              "internalType": "uint256",
              "name": "tokenId",
              "type": "uint256"
            },
            {
              "internalType": "uint256",
              "name": "chainId",
              "type": "uint256"
            },
            {
              "internalType": "address",
              "name": "owner",
              "type": "address"
            },
            {
              "internalType": "uint256",
              "name": "price",
              "type": "uint256"
            },
            {
              "internalType": "bool",
              "name": "purchased",
              "type": "bool"
            },
            {
              "internalType": "uint256",
              "name": "baseRoyalty",
              "type": "uint256"
            },
            {
              "internalType": "uint256",
              "name": "endTime",
              "type": "uint256"
            },
            {
              "internalType": "bool",
              "name": "sold",
              "type": "bool"
            },
            {
              "internalType": "address",
              "name": "erc20Address",
              "type": "address"
            },
            {
              "internalType": "uint256",
              "name": "timeListed",
              "type": "uint256"
            }
          ],
          "internalType": "struct ViridianExchange.Listing",
          "name": "",
          "type": "tuple"
        }
      ],
      "stateMutability": "view",
      "type": "function",
      "constant": true
    },
    {
      "inputs": [
        {
          "internalType": "address",
          "name": "_userAddr",
          "type": "address"
        }
      ],
      "name": "getListingsFromUser",
      "outputs": [
        {
          "components": [
            {
              "internalType": "uint256",
              "name": "listingId",
              "type": "uint256"
            },
            {
              "internalType": "uint256",
              "name": "tokenId",
              "type": "uint256"
            },
            {
              "internalType": "uint256",
              "name": "chainId",
              "type": "uint256"
            },
            {
              "internalType": "address",
              "name": "owner",
              "type": "address"
            },
            {
              "internalType": "uint256",
              "name": "price",
              "type": "uint256"
            },
            {
              "internalType": "bool",
              "name": "purchased",
              "type": "bool"
            },
            {
              "internalType": "uint256",
              "name": "baseRoyalty",
              "type": "uint256"
            },
            {
              "internalType": "uint256",
              "name": "endTime",
              "type": "uint256"
            },
            {
              "internalType": "bool",
              "name": "sold",
              "type": "bool"
            },
            {
              "internalType": "address",
              "name": "erc20Address",
              "type": "address"
            },
            {
              "internalType": "uint256",
              "name": "timeListed",
              "type": "uint256"
            }
          ],
          "internalType": "struct ViridianExchange.Listing[]",
          "name": "",
          "type": "tuple[]"
        }
      ],
      "stateMutability": "view",
      "type": "function",
      "constant": true
    },
    {
      "inputs": [
        {
          "internalType": "uint256",
          "name": "_nftId",
          "type": "uint256"
        }
      ],
      "name": "getNftOwner",
      "outputs": [
        {
          "internalType": "address",
          "name": "",
          "type": "address"
        }
      ],
      "stateMutability": "view",
      "type": "function",
      "constant": true
    },
    {
      "inputs": [
        {
          "internalType": "uint256",
          "name": "_nftId",
          "type": "uint256"
        },
        {
          "internalType": "uint256",
          "name": "_price",
          "type": "uint256"
        },
        {
          "internalType": "uint256",
          "name": "_royalty",
          "type": "uint256"
        },
        {
          "internalType": "uint256",
          "name": "_endTime",
          "type": "uint256"
        },
        {
          "internalType": "address",
          "name": "_erc20Address",
          "type": "address"
        }
      ],
      "name": "putUpForSale",
      "outputs": [],
      "stateMutability": "nonpayable",
      "type": "function"
    },
    {
      "inputs": [
        {
          "internalType": "uint256",
          "name": "_listingId",
          "type": "uint256"
        },
        {
          "internalType": "uint256",
          "name": "_newPrice",
          "type": "uint256"
        }
      ],
      "name": "changeSalePrice",
      "outputs": [],
      "stateMutability": "nonpayable",
      "type": "function"
    },
    {
      "inputs": [
        {
          "internalType": "uint256",
          "name": "_listingId",
          "type": "uint256"
        }
      ],
      "name": "pullFromSale",
      "outputs": [],
      "stateMutability": "nonpayable",
      "type": "function"
    },
    {
      "inputs": [
        {
          "internalType": "uint256",
          "name": "_listingId",
          "type": "uint256"
        }
      ],
      "name": "purchaseListing",
      "outputs": [],
      "stateMutability": "nonpayable",
      "type": "function"
    },
    {
      "inputs": [
        {
          "internalType": "uint256",
          "name": "_listingId",
          "type": "uint256"
        }
      ],
      "name": "purchaseListingOmniChain",
      "outputs": [],
      "stateMutability": "nonpayable",
      "type": "function"
    },
    {
      "inputs": [
        {
          "internalType": "uint256",
          "name": "_tokenId",
          "type": "uint256"
        }
      ],
      "name": "rollbackSales",
      "outputs": [],
      "stateMutability": "nonpayable",
      "type": "function"
    }
  ],
  "bytecode": "0x60806040526040518060400160405280600581526020017f322e322e30000000000000000000000000000000000000000000000000000000815250600f9080519060200190620000519291906200055c565b503480156200005f57600080fd5b506040516200531838038062005318833981810160405281019062000085919062000676565b620000a562000099620002cf60201b60201c565b620002eb60201b60201c565b600073ffffffffffffffffffffffffffffffffffffffff168473ffffffffffffffffffffffffffffffffffffffff160362000117576040517f08c379a00000000000000000000000000000000000000000000000000000000081526004016200010e906200076f565b60405180910390fd5b600073ffffffffffffffffffffffffffffffffffffffff168373ffffffffffffffffffffffffffffffffffffffff160362000189576040517f08c379a000000000000000000000000000000000000000000000000000000000815260040162000180906200076f565b60405180910390fd5b80600c60006101000a81548173ffffffffffffffffffffffffffffffffffffffff021916908373ffffffffffffffffffffffffffffffffffffffff1602179055506005600a819055506000600b81905550620001eb82620003b160201b60201c565b6001600e60008673ffffffffffffffffffffffffffffffffffffffff1673ffffffffffffffffffffffffffffffffffffffff16815260200190815260200160002060006101000a81548160ff02191690831515021790555082600d60006101000a81548173ffffffffffffffffffffffffffffffffffffffff021916908373ffffffffffffffffffffffffffffffffffffffff16021790555082600360006101000a81548173ffffffffffffffffffffffffffffffffffffffff021916908373ffffffffffffffffffffffffffffffffffffffff1602179055505050505062000867565b6000620002e66200045460201b62002c751760201c565b905090565b6000600160009054906101000a900473ffffffffffffffffffffffffffffffffffffffff16905081600160006101000a81548173ffffffffffffffffffffffffffffffffffffffff021916908373ffffffffffffffffffffffffffffffffffffffff1602179055508173ffffffffffffffffffffffffffffffffffffffff168173ffffffffffffffffffffffffffffffffffffffff167f8be0079c531659141344cd1fd0a4f28419497f9722a3daafe3b4186f6b6457e060405160405180910390a35050565b620003c1620002cf60201b60201c565b73ffffffffffffffffffffffffffffffffffffffff16620003e76200049660201b60201c565b73ffffffffffffffffffffffffffffffffffffffff161462000440576040517f08c379a00000000000000000000000000000000000000000000000000000000081526004016200043790620007e1565b60405180910390fd5b6200045181620004c060201b60201c565b50565b6000601460003690501015801562000479575062000478336200050360201b60201c565b5b156200048f57601436033560601c905062000493565b3390505b90565b6000600160009054906101000a900473ffffffffffffffffffffffffffffffffffffffff16905090565b806000806101000a81548173ffffffffffffffffffffffffffffffffffffffff021916908373ffffffffffffffffffffffffffffffffffffffff16021790555050565b60008060009054906101000a900473ffffffffffffffffffffffffffffffffffffffff1673ffffffffffffffffffffffffffffffffffffffff168273ffffffffffffffffffffffffffffffffffffffff16149050919050565b8280546200056a9062000832565b90600052602060002090601f0160209004810192826200058e5760008555620005da565b82601f10620005a957805160ff1916838001178555620005da565b82800160010185558215620005da579182015b82811115620005d9578251825591602001919060010190620005bc565b5b509050620005e99190620005ed565b5090565b5b8082111562000608576000816000905550600101620005ee565b5090565b600080fd5b600073ffffffffffffffffffffffffffffffffffffffff82169050919050565b60006200063e8262000611565b9050919050565b620006508162000631565b81146200065c57600080fd5b50565b600081519050620006708162000645565b92915050565b600080600080608085870312156200069357620006926200060c565b5b6000620006a3878288016200065f565b9450506020620006b6878288016200065f565b9350506040620006c9878288016200065f565b9250506060620006dc878288016200065f565b91505092959194509250565b600082825260208201905092915050565b7f546f6b656e2061646472657373206d757374206e6f742062652074686520302060008201527f6164647265737300000000000000000000000000000000000000000000000000602082015250565b600062000757602783620006e8565b91506200076482620006f9565b604082019050919050565b600060208201905081810360008301526200078a8162000748565b9050919050565b7f4f776e61626c653a2063616c6c6572206973206e6f7420746865206f776e6572600082015250565b6000620007c9602083620006e8565b9150620007d68262000791565b602082019050919050565b60006020820190508181036000830152620007fc81620007ba565b9050919050565b7f4e487b7100000000000000000000000000000000000000000000000000000000600052602260045260246000fd5b600060028204905060018216806200084b57607f821691505b60208210810362000861576200086062000803565b5b50919050565b614aa180620008776000396000f3fe608060405234801561001057600080fd5b50600436106101735760003560e01c80638da5cb5b116100de578063bddb06f311610097578063da74222811610071578063da74222814610434578063ea82067314610450578063f1b2d6a31461046c578063f2fde38b1461048a57610173565b8063bddb06f3146103e0578063c82e474b146103fc578063ca9ff9221461041857610173565b80638da5cb5b146102f8578063971ccc16146103165780639a701288146103325780639d93d35214610350578063a19b56ac14610380578063af62c684146103b057610173565b8063572b6c0511610130578063572b6c0514610224578063656bf63f146102545780636d1ea3fa14610270578063715018a6146102a05780637da0a877146102aa5780638ad2d5a7146102c857610173565b8063086d62311461017857806312065fe014610194578063169d5a7d146101b257806326988fe8146101ce5780634209a2e1146101ea578063486ff0cd14610206575b600080fd5b610192600480360381019061018d9190613a8e565b6104a6565b005b61019c61052c565b6040516101a99190613aca565b60405180910390f35b6101cc60048036038101906101c79190613a8e565b610534565b005b6101e860048036038101906101e39190613a8e565b610b53565b005b61020460048036038101906101ff9190613a8e565b610bd2565b005b61020e610c58565b60405161021b9190613b7e565b60405180910390f35b61023e60048036038101906102399190613bfe565b610ce6565b60405161024b9190613c46565b60405180910390f35b61026e60048036038101906102699190613a8e565b610d3f565b005b61028a60048036038101906102859190613bfe565b61135e565b6040516102979190613c46565b60405180910390f35b6102a861137e565b005b6102b2611406565b6040516102bf9190613c70565b60405180910390f35b6102e260048036038101906102dd9190613a8e565b61142f565b6040516102ef9190613c70565b60405180910390f35b6103006114d4565b60405161030d9190613c70565b60405180910390f35b610330600480360381019061032b9190613bfe565b6114fe565b005b61033a6115d5565b6040516103479190613c70565b60405180910390f35b61036a60048036038101906103659190613bfe565b6115fb565b6040516103779190613c46565b60405180910390f35b61039a60048036038101906103959190613a8e565b611651565b6040516103a79190613d99565b60405180910390f35b6103ca60048036038101906103c59190613bfe565b6117a7565b6040516103d79190613f46565b60405180910390f35b6103fa60048036038101906103f59190613a8e565b61196e565b005b61041660048036038101906104119190613f68565b6122cd565b005b610432600480360381019061042d9190613bfe565b612397565b005b61044e60048036038101906104499190613bfe565b61246e565b005b61046a60048036038101906104659190613fa8565b6124f6565b005b610474612b26565b60405161048191906140d2565b60405180910390f35b6104a4600480360381019061049f9190613bfe565b612b7e565b005b6104ae612cac565b73ffffffffffffffffffffffffffffffffffffffff166104cc6114d4565b73ffffffffffffffffffffffffffffffffffffffff1614610522576040517f08c379a000000000000000000000000000000000000000000000000000000000815260040161051990614140565b60405180910390fd5b80600a8190555050565b600047905090565b600060056000838152602001908152602001600020604051806101600160405290816000820154815260200160018201548152602001600282015481526020016003820160009054906101000a900473ffffffffffffffffffffffffffffffffffffffff1673ffffffffffffffffffffffffffffffffffffffff1673ffffffffffffffffffffffffffffffffffffffff168152602001600482015481526020016005820160009054906101000a900460ff1615151515815260200160068201548152602001600782015481526020016008820160009054906101000a900460ff161515151581526020016008820160019054906101000a900473ffffffffffffffffffffffffffffffffffffffff1673ffffffffffffffffffffffffffffffffffffffff1673ffffffffffffffffffffffffffffffffffffffff1681526020016009820154815250509050600d60009054906101000a900473ffffffffffffffffffffffffffffffffffffffff1673ffffffffffffffffffffffffffffffffffffffff16636352211e82602001516040518263ffffffff1660e01b81526004016106de9190613aca565b602060405180830381865afa1580156106fb573d6000803e3d6000fd5b505050506040513d601f19601f8201168201806040525081019061071f9190614175565b73ffffffffffffffffffffffffffffffffffffffff16816060015173ffffffffffffffffffffffffffffffffffffffff1614610790576040517f08c379a000000000000000000000000000000000000000000000000000000000815260040161078790614214565b60405180910390fd5b80610120015173ffffffffffffffffffffffffffffffffffffffff166323b872dd6107b9612cac565b600c60009054906101000a900473ffffffffffffffffffffffffffffffffffffffff16600a54606486608001516107f09190614292565b6107fa91906142c3565b6040518463ffffffff1660e01b81526004016108189392919061431d565b6020604051808303816000875af1158015610837573d6000803e3d6000fd5b505050506040513d601f19601f8201168201806040525081019061085b9190614380565b5080610120015173ffffffffffffffffffffffffffffffffffffffff166323b872dd610885612cac565b8360600151600a546064866080015161089e9190614292565b6108a891906142c3565b85608001516108b791906143ad565b6040518463ffffffff1660e01b81526004016108d59392919061431d565b6020604051808303816000875af11580156108f4573d6000803e3d6000fd5b505050506040513d601f19601f820116820180604052508101906109189190614380565b50600d60009054906101000a900473ffffffffffffffffffffffffffffffffffffffff1673ffffffffffffffffffffffffffffffffffffffff1663095ea7b361095f612cac565b83602001516040518363ffffffff1660e01b81526004016109819291906143e1565b600060405180830381600087803b15801561099b57600080fd5b505af11580156109af573d6000803e3d6000fd5b50505050600d60009054906101000a900473ffffffffffffffffffffffffffffffffffffffff1673ffffffffffffffffffffffffffffffffffffffff166342842e0e82606001516109fe612cac565b84602001516040518463ffffffff1660e01b8152600401610a219392919061431d565b600060405180830381600087803b158015610a3b57600080fd5b505af1158015610a4f573d6000803e3d6000fd5b50505050610a5c82612cbb565b7fed50efc3a37e95478fb9c9e1d2cef8a52fe12bc05baa63ad904fa0122ef0dbe481602001518260800151600360009054906101000a900473ffffffffffffffffffffffffffffffffffffffff1673ffffffffffffffffffffffffffffffffffffffff1663c87b56dd85602001516040518263ffffffff1660e01b8152600401610ae69190613aca565b600060405180830381865afa158015610b03573d6000803e3d6000fd5b505050506040513d6000823e3d601f19601f82011682018060405250810190610b2c9190614530565b610b34612cac565b6001604051610b47959493929190614579565b60405180910390a15050565b610b5b612cac565b73ffffffffffffffffffffffffffffffffffffffff16610b796114d4565b73ffffffffffffffffffffffffffffffffffffffff1614610bcf576040517f08c379a0000000000000000000000000000000000000000000000000000000008152600401610bc690614140565b60405180910390fd5b50565b610bda612cac565b73ffffffffffffffffffffffffffffffffffffffff16610bf86114d4565b73ffffffffffffffffffffffffffffffffffffffff1614610c4e576040517f08c379a0000000000000000000000000000000000000000000000000000000008152600401610c4590614140565b60405180910390fd5b80600a8190555050565b600f8054610c6590614602565b80601f0160208091040260200160405190810160405280929190818152602001828054610c9190614602565b8015610cde5780601f10610cb357610100808354040283529160200191610cde565b820191906000526020600020905b815481529060010190602001808311610cc157829003601f168201915b505050505081565b60008060009054906101000a900473ffffffffffffffffffffffffffffffffffffffff1673ffffffffffffffffffffffffffffffffffffffff168273ffffffffffffffffffffffffffffffffffffffff16149050919050565b600060056000838152602001908152602001600020604051806101600160405290816000820154815260200160018201548152602001600282015481526020016003820160009054906101000a900473ffffffffffffffffffffffffffffffffffffffff1673ffffffffffffffffffffffffffffffffffffffff1673ffffffffffffffffffffffffffffffffffffffff168152602001600482015481526020016005820160009054906101000a900460ff1615151515815260200160068201548152602001600782015481526020016008820160009054906101000a900460ff161515151581526020016008820160019054906101000a900473ffffffffffffffffffffffffffffffffffffffff1673ffffffffffffffffffffffffffffffffffffffff1673ffffffffffffffffffffffffffffffffffffffff1681526020016009820154815250509050600d60009054906101000a900473ffffffffffffffffffffffffffffffffffffffff1673ffffffffffffffffffffffffffffffffffffffff16636352211e82602001516040518263ffffffff1660e01b8152600401610ee99190613aca565b602060405180830381865afa158015610f06573d6000803e3d6000fd5b505050506040513d601f19601f82011682018060405250810190610f2a9190614175565b73ffffffffffffffffffffffffffffffffffffffff16816060015173ffffffffffffffffffffffffffffffffffffffff1614610f9b576040517f08c379a0000000000000000000000000000000000000000000000000000000008152600401610f9290614214565b60405180910390fd5b80610120015173ffffffffffffffffffffffffffffffffffffffff166323b872dd610fc4612cac565b600c60009054906101000a900473ffffffffffffffffffffffffffffffffffffffff16600a5460648660800151610ffb9190614292565b61100591906142c3565b6040518463ffffffff1660e01b81526004016110239392919061431d565b6020604051808303816000875af1158015611042573d6000803e3d6000fd5b505050506040513d601f19601f820116820180604052508101906110669190614380565b5080610120015173ffffffffffffffffffffffffffffffffffffffff166323b872dd611090612cac565b8360600151600a54606486608001516110a99190614292565b6110b391906142c3565b85608001516110c291906143ad565b6040518463ffffffff1660e01b81526004016110e09392919061431d565b6020604051808303816000875af11580156110ff573d6000803e3d6000fd5b505050506040513d601f19601f820116820180604052508101906111239190614380565b50600d60009054906101000a900473ffffffffffffffffffffffffffffffffffffffff1673ffffffffffffffffffffffffffffffffffffffff1663095ea7b361116a612cac565b83602001516040518363ffffffff1660e01b815260040161118c9291906143e1565b600060405180830381600087803b1580156111a657600080fd5b505af11580156111ba573d6000803e3d6000fd5b50505050600d60009054906101000a900473ffffffffffffffffffffffffffffffffffffffff1673ffffffffffffffffffffffffffffffffffffffff166342842e0e8260600151611209612cac565b84602001516040518463ffffffff1660e01b815260040161122c9392919061431d565b600060405180830381600087803b15801561124657600080fd5b505af115801561125a573d6000803e3d6000fd5b5050505061126782612cbb565b7fed50efc3a37e95478fb9c9e1d2cef8a52fe12bc05baa63ad904fa0122ef0dbe481602001518260800151600360009054906101000a900473ffffffffffffffffffffffffffffffffffffffff1673ffffffffffffffffffffffffffffffffffffffff1663c87b56dd85602001516040518263ffffffff1660e01b81526004016112f19190613aca565b600060405180830381865afa15801561130e573d6000803e3d6000fd5b505050506040513d6000823e3d601f19601f820116820180604052508101906113379190614530565b61133f612cac565b6001604051611352959493929190614579565b60405180910390a15050565b600e6020528060005260406000206000915054906101000a900460ff1681565b611386612cac565b73ffffffffffffffffffffffffffffffffffffffff166113a46114d4565b73ffffffffffffffffffffffffffffffffffffffff16146113fa576040517f08c379a00000000000000000000000000000000000000000000000000000000081526004016113f190614140565b60405180910390fd5b6114046000613602565b565b60008060009054906101000a900473ffffffffffffffffffffffffffffffffffffffff16905090565b6000600d60009054906101000a900473ffffffffffffffffffffffffffffffffffffffff1673ffffffffffffffffffffffffffffffffffffffff16636352211e836040518263ffffffff1660e01b815260040161148c9190613aca565b602060405180830381865afa1580156114a9573d6000803e3d6000fd5b505050506040513d601f19601f820116820180604052508101906114cd9190614175565b9050919050565b6000600160009054906101000a900473ffffffffffffffffffffffffffffffffffffffff16905090565b611506612cac565b73ffffffffffffffffffffffffffffffffffffffff166115246114d4565b73ffffffffffffffffffffffffffffffffffffffff161461157a576040517f08c379a000000000000000000000000000000000000000000000000000000000815260040161157190614140565b60405180910390fd5b6001600e60008373ffffffffffffffffffffffffffffffffffffffff1673ffffffffffffffffffffffffffffffffffffffff16815260200190815260200160002060006101000a81548160ff02191690831515021790555050565b600d60009054906101000a900473ffffffffffffffffffffffffffffffffffffffff1681565b6000600e60008373ffffffffffffffffffffffffffffffffffffffff1673ffffffffffffffffffffffffffffffffffffffff16815260200190815260200160002060009054906101000a900460ff169050919050565b61165961372f565b60056000838152602001908152602001600020604051806101600160405290816000820154815260200160018201548152602001600282015481526020016003820160009054906101000a900473ffffffffffffffffffffffffffffffffffffffff1673ffffffffffffffffffffffffffffffffffffffff1673ffffffffffffffffffffffffffffffffffffffff168152602001600482015481526020016005820160009054906101000a900460ff1615151515815260200160068201548152602001600782015481526020016008820160009054906101000a900460ff161515151581526020016008820160019054906101000a900473ffffffffffffffffffffffffffffffffffffffff1673ffffffffffffffffffffffffffffffffffffffff1673ffffffffffffffffffffffffffffffffffffffff1681526020016009820154815250509050919050565b6060600460008373ffffffffffffffffffffffffffffffffffffffff1673ffffffffffffffffffffffffffffffffffffffff168152602001908152602001600020805480602002602001604051908101604052809291908181526020016000905b8282101561196357838290600052602060002090600a0201604051806101600160405290816000820154815260200160018201548152602001600282015481526020016003820160009054906101000a900473ffffffffffffffffffffffffffffffffffffffff1673ffffffffffffffffffffffffffffffffffffffff1673ffffffffffffffffffffffffffffffffffffffff168152602001600482015481526020016005820160009054906101000a900460ff1615151515815260200160068201548152602001600782015481526020016008820160009054906101000a900460ff161515151581526020016008820160019054906101000a900473ffffffffffffffffffffffffffffffffffffffff1673ffffffffffffffffffffffffffffffffffffffff1673ffffffffffffffffffffffffffffffffffffffff16815260200160098201548152505081526020019060010190611808565b505050509050919050565b600060056000838152602001908152602001600020604051806101600160405290816000820154815260200160018201548152602001600282015481526020016003820160009054906101000a900473ffffffffffffffffffffffffffffffffffffffff1673ffffffffffffffffffffffffffffffffffffffff1673ffffffffffffffffffffffffffffffffffffffff168152602001600482015481526020016005820160009054906101000a900460ff1615151515815260200160068201548152602001600782015481526020016008820160009054906101000a900460ff161515151581526020016008820160019054906101000a900473ffffffffffffffffffffffffffffffffffffffff1673ffffffffffffffffffffffffffffffffffffffff1673ffffffffffffffffffffffffffffffffffffffff1681526020016009820154815250509050611ac1612cac565b73ffffffffffffffffffffffffffffffffffffffff16816060015173ffffffffffffffffffffffffffffffffffffffff1614611b32576040517f08c379a0000000000000000000000000000000000000000000000000000000008152600401611b29906146a5565b60405180910390fd5b600060046000611b40612cac565b73ffffffffffffffffffffffffffffffffffffffff1673ffffffffffffffffffffffffffffffffffffffff168152602001908152602001600020905060005b8180549050811015612043576000828281548110611ba057611b9f6146c5565b5b90600052602060002090600a0201604051806101600160405290816000820154815260200160018201548152602001600282015481526020016003820160009054906101000a900473ffffffffffffffffffffffffffffffffffffffff1673ffffffffffffffffffffffffffffffffffffffff1673ffffffffffffffffffffffffffffffffffffffff168152602001600482015481526020016005820160009054906101000a900460ff1615151515815260200160068201548152602001600782015481526020016008820160009054906101000a900460ff161515151581526020016008820160019054906101000a900473ffffffffffffffffffffffffffffffffffffffff1673ffffffffffffffffffffffffffffffffffffffff1673ffffffffffffffffffffffffffffffffffffffff1681526020016009820154815250509050836000015181600001510361202f578260018480549050611d0591906143ad565b81548110611d1657611d156146c5565b5b90600052602060002090600a0201838381548110611d3757611d366146c5565b5b90600052602060002090600a02016000820154816000015560018201548160010155600282015481600201556003820160009054906101000a900473ffffffffffffffffffffffffffffffffffffffff168160030160006101000a81548173ffffffffffffffffffffffffffffffffffffffff021916908373ffffffffffffffffffffffffffffffffffffffff160217905550600482015481600401556005820160009054906101000a900460ff168160050160006101000a81548160ff02191690831515021790555060068201548160060155600782015481600701556008820160009054906101000a900460ff168160080160006101000a81548160ff0219169083151502179055506008820160019054906101000a900473ffffffffffffffffffffffffffffffffffffffff168160080160016101000a81548173ffffffffffffffffffffffffffffffffffffffff021916908373ffffffffffffffffffffffffffffffffffffffff160217905550600982015481600901559050508260046000611ec3612cac565b73ffffffffffffffffffffffffffffffffffffffff1673ffffffffffffffffffffffffffffffffffffffff168152602001908152602001600020908054611f0b9291906137b9565b5060046000611f18612cac565b73ffffffffffffffffffffffffffffffffffffffff1673ffffffffffffffffffffffffffffffffffffffff168152602001908152602001600020805480611f6257611f616146f4565b5b60019003818190600052602060002090600a0201600080820160009055600182016000905560028201600090556003820160006101000a81549073ffffffffffffffffffffffffffffffffffffffff021916905560048201600090556005820160006101000a81549060ff0219169055600682016000905560078201600090556008820160006101000a81549060ff02191690556008820160016101000a81549073ffffffffffffffffffffffffffffffffffffffff021916905560098201600090555050905550612043565b50808061203b90614723565b915050611b7f565b5060005b6008805490508110156121165760006008828154811061206a576120696146c5565b5b9060005260206000200154905083600001518103612102576008600160088054905061209691906143ad565b815481106120a7576120a66146c5565b5b9060005260206000200154600883815481106120c6576120c56146c5565b5b906000526020600020018190555060088054806120e6576120e56146f4565b5b6001900381819060005260206000200160009055905550612116565b50808061210e90614723565b915050612047565b5060056000848152602001908152602001600020600080820160009055600182016000905560028201600090556003820160006101000a81549073ffffffffffffffffffffffffffffffffffffffff021916905560048201600090556005820160006101000a81549060ff0219169055600682016000905560078201600090556008820160006101000a81549060ff02191690556008820160016101000a81549073ffffffffffffffffffffffffffffffffffffffff0219169055600982016000905550507fd1542b8a62548de416836f4b86ab871dfb6a539e1c8290295e1e870e3f5b0fce8260200151600360009054906101000a900473ffffffffffffffffffffffffffffffffffffffff1673ffffffffffffffffffffffffffffffffffffffff1663c87b56dd85602001516040518263ffffffff1660e01b81526004016122609190613aca565b600060405180830381865afa15801561227d573d6000803e3d6000fd5b505050506040513d6000823e3d601f19601f820116820180604052508101906122a69190614530565b6122ae612cac565b60006040516122c0949392919061476b565b60405180910390a1505050565b6122d5612cac565b73ffffffffffffffffffffffffffffffffffffffff166005600084815260200190815260200160002060030160009054906101000a900473ffffffffffffffffffffffffffffffffffffffff1673ffffffffffffffffffffffffffffffffffffffff1614612378576040517f08c379a000000000000000000000000000000000000000000000000000000000815260040161236f90614829565b60405180910390fd5b8060056000848152602001908152602001600020600401819055505050565b61239f612cac565b73ffffffffffffffffffffffffffffffffffffffff166123bd6114d4565b73ffffffffffffffffffffffffffffffffffffffff1614612413576040517f08c379a000000000000000000000000000000000000000000000000000000000815260040161240a90614140565b60405180910390fd5b6000600e60008373ffffffffffffffffffffffffffffffffffffffff1673ffffffffffffffffffffffffffffffffffffffff16815260200190815260200160002060006101000a81548160ff02191690831515021790555050565b612476612cac565b73ffffffffffffffffffffffffffffffffffffffff166124946114d4565b73ffffffffffffffffffffffffffffffffffffffff16146124ea576040517f08c379a00000000000000000000000000000000000000000000000000000000081526004016124e190614140565b60405180910390fd5b6124f3816136c8565b50565b600e60008273ffffffffffffffffffffffffffffffffffffffff1673ffffffffffffffffffffffffffffffffffffffff16815260200190815260200160002060009054906101000a900460ff16612582576040517f08c379a0000000000000000000000000000000000000000000000000000000008152600401612579906148bb565b60405180910390fd5b6007600086815260200190815260200160002060009054906101000a900460ff166125e2576040517f08c379a00000000000000000000000000000000000000000000000000000000081526004016125d99061494d565b60405180910390fd5b6125ea612cac565b73ffffffffffffffffffffffffffffffffffffffff166126098661142f565b73ffffffffffffffffffffffffffffffffffffffff161461265f576040517f08c379a0000000000000000000000000000000000000000000000000000000008152600401612656906149b9565b60405180910390fd5b612669600261370b565b60006126756002613721565b905061267f61372f565b818160000181815250508681602001818152505061269b612cac565b816060019073ffffffffffffffffffffffffffffffffffffffff16908173ffffffffffffffffffffffffffffffffffffffff16815250508581608001818152505060008160a0019015159081151581525050848160c0018181525050838160e00181815250506000816101000190151590811515815250508281610120019073ffffffffffffffffffffffffffffffffffffffff16908173ffffffffffffffffffffffffffffffffffffffff1681525050428161014001818152505060046000612763612cac565b73ffffffffffffffffffffffffffffffffffffffff1673ffffffffffffffffffffffffffffffffffffffff1681526020019081526020016000208190806001815401808255809150506001900390600052602060002090600a020160009091909190915060008201518160000155602082015181600101556040820151816002015560608201518160030160006101000a81548173ffffffffffffffffffffffffffffffffffffffff021916908373ffffffffffffffffffffffffffffffffffffffff1602179055506080820151816004015560a08201518160050160006101000a81548160ff02191690831515021790555060c0820151816006015560e082015181600701556101008201518160080160006101000a81548160ff0219169083151502179055506101208201518160080160016101000a81548173ffffffffffffffffffffffffffffffffffffffff021916908373ffffffffffffffffffffffffffffffffffffffff16021790555061014082015181600901555050806005600084815260200190815260200160002060008201518160000155602082015181600101556040820151816002015560608201518160030160006101000a81548173ffffffffffffffffffffffffffffffffffffffff021916908373ffffffffffffffffffffffffffffffffffffffff1602179055506080820151816004015560a08201518160050160006101000a81548160ff02191690831515021790555060c0820151816006015560e082015181600701556101008201518160080160006101000a81548160ff0219169083151502179055506101208201518160080160016101000a81548173ffffffffffffffffffffffffffffffffffffffff021916908373ffffffffffffffffffffffffffffffffffffffff16021790555061014082015181600901559050506008816000015190806001815401808255809150506001900390600052602060002001600090919091909150557ff4fed5a4ea597a866c3bf2adb1d0e0334a9980d031fce4b5e174edb01d2fab9287600360009054906101000a900473ffffffffffffffffffffffffffffffffffffffff1673ffffffffffffffffffffffffffffffffffffffff1663c87b56dd8a6040518263ffffffff1660e01b8152600401612ab89190613aca565b600060405180830381865afa158015612ad5573d6000803e3d6000fd5b505050506040513d6000823e3d601f19601f82011682018060405250810190612afe9190614530565b83606001516001604051612b15949392919061476b565b60405180910390a150505050505050565b60606008805480602002602001604051908101604052809291908181526020018280548015612b7457602002820191906000526020600020905b815481526020019060010190808311612b60575b5050505050905090565b612b86612cac565b73ffffffffffffffffffffffffffffffffffffffff16612ba46114d4565b73ffffffffffffffffffffffffffffffffffffffff1614612bfa576040517f08c379a0000000000000000000000000000000000000000000000000000000008152600401612bf190614140565b60405180910390fd5b600073ffffffffffffffffffffffffffffffffffffffff168173ffffffffffffffffffffffffffffffffffffffff1603612c69576040517f08c379a0000000000000000000000000000000000000000000000000000000008152600401612c6090614a4b565b60405180910390fd5b612c7281613602565b50565b60006014600036905010158015612c915750612c9033610ce6565b5b15612ca557601436033560601c9050612ca9565b3390505b90565b6000612cb6612c75565b905090565b600060056000838152602001908152602001600020604051806101600160405290816000820154815260200160018201548152602001600282015481526020016003820160009054906101000a900473ffffffffffffffffffffffffffffffffffffffff1673ffffffffffffffffffffffffffffffffffffffff1673ffffffffffffffffffffffffffffffffffffffff168152602001600482015481526020016005820160009054906101000a900460ff1615151515815260200160068201548152602001600782015481526020016008820160009054906101000a900460ff161515151581526020016008820160019054906101000a900473ffffffffffffffffffffffffffffffffffffffff1673ffffffffffffffffffffffffffffffffffffffff1673ffffffffffffffffffffffffffffffffffffffff1681526020016009820154815250509050600060046000836060015173ffffffffffffffffffffffffffffffffffffffff1673ffffffffffffffffffffffffffffffffffffffff168152602001908152602001600020905060005b818054905081101561330e576000828281548110612e7157612e706146c5565b5b90600052602060002090600a0201604051806101600160405290816000820154815260200160018201548152602001600282015481526020016003820160009054906101000a900473ffffffffffffffffffffffffffffffffffffffff1673ffffffffffffffffffffffffffffffffffffffff1673ffffffffffffffffffffffffffffffffffffffff168152602001600482015481526020016005820160009054906101000a900460ff1615151515815260200160068201548152602001600782015481526020016008820160009054906101000a900460ff161515151581526020016008820160019054906101000a900473ffffffffffffffffffffffffffffffffffffffff1673ffffffffffffffffffffffffffffffffffffffff1673ffffffffffffffffffffffffffffffffffffffff168152602001600982015481525050905083600001518160000151036132fa578260018480549050612fd691906143ad565b81548110612fe757612fe66146c5565b5b90600052602060002090600a0201838381548110613008576130076146c5565b5b90600052602060002090600a02016000820154816000015560018201548160010155600282015481600201556003820160009054906101000a900473ffffffffffffffffffffffffffffffffffffffff168160030160006101000a81548173ffffffffffffffffffffffffffffffffffffffff021916908373ffffffffffffffffffffffffffffffffffffffff160217905550600482015481600401556005820160009054906101000a900460ff168160050160006101000a81548160ff02191690831515021790555060068201548160060155600782015481600701556008820160009054906101000a900460ff168160080160006101000a81548160ff0219169083151502179055506008820160019054906101000a900473ffffffffffffffffffffffffffffffffffffffff168160080160016101000a81548173ffffffffffffffffffffffffffffffffffffffff021916908373ffffffffffffffffffffffffffffffffffffffff160217905550600982015481600901559050508260046000866060015173ffffffffffffffffffffffffffffffffffffffff1673ffffffffffffffffffffffffffffffffffffffff1681526020019081526020016000209080546131d99291906137b9565b5060046000856060015173ffffffffffffffffffffffffffffffffffffffff1673ffffffffffffffffffffffffffffffffffffffff16815260200190815260200160002080548061322d5761322c6146f4565b5b60019003818190600052602060002090600a0201600080820160009055600182016000905560028201600090556003820160006101000a81549073ffffffffffffffffffffffffffffffffffffffff021916905560048201600090556005820160006101000a81549060ff0219169055600682016000905560078201600090556008820160006101000a81549060ff02191690556008820160016101000a81549073ffffffffffffffffffffffffffffffffffffffff02191690556009820160009055505090555061330e565b50808061330690614723565b915050612e50565b5060005b6008805490508110156133e157600060088281548110613335576133346146c5565b5b90600052602060002001549050836000015181036133cd576008600160088054905061336191906143ad565b81548110613372576133716146c5565b5b906000526020600020015460088381548110613391576133906146c5565b5b906000526020600020018190555060088054806133b1576133b06146f4565b5b60019003818190600052602060002001600090559055506133e1565b5080806133d990614723565b915050613312565b50816006600085815260200190815260200160002060008201518160000155602082015181600101556040820151816002015560608201518160030160006101000a81548173ffffffffffffffffffffffffffffffffffffffff021916908373ffffffffffffffffffffffffffffffffffffffff1602179055506080820151816004015560a08201518160050160006101000a81548160ff02191690831515021790555060c0820151816006015560e082015181600701556101008201518160080160006101000a81548160ff0219169083151502179055506101208201518160080160016101000a81548173ffffffffffffffffffffffffffffffffffffffff021916908373ffffffffffffffffffffffffffffffffffffffff1602179055506101408201518160090155905050600983908060018154018082558091505060019003906000526020600020016000909190919091505560056000848152602001908152602001600020600080820160009055600182016000905560028201600090556003820160006101000a81549073ffffffffffffffffffffffffffffffffffffffff021916905560048201600090556005820160006101000a81549060ff0219169055600682016000905560078201600090556008820160006101000a81549060ff02191690556008820160016101000a81549073ffffffffffffffffffffffffffffffffffffffff021916905560098201600090555050505050565b6000600160009054906101000a900473ffffffffffffffffffffffffffffffffffffffff16905081600160006101000a81548173ffffffffffffffffffffffffffffffffffffffff021916908373ffffffffffffffffffffffffffffffffffffffff1602179055508173ffffffffffffffffffffffffffffffffffffffff168173ffffffffffffffffffffffffffffffffffffffff167f8be0079c531659141344cd1fd0a4f28419497f9722a3daafe3b4186f6b6457e060405160405180910390a35050565b806000806101000a81548173ffffffffffffffffffffffffffffffffffffffff021916908373ffffffffffffffffffffffffffffffffffffffff16021790555050565b6001816000016000828254019250508190555050565b600081600001549050919050565b604051806101600160405280600081526020016000815260200160008152602001600073ffffffffffffffffffffffffffffffffffffffff168152602001600081526020016000151581526020016000815260200160008152602001600015158152602001600073ffffffffffffffffffffffffffffffffffffffff168152602001600081525090565b82805482825590600052602060002090600a02810192821561396e57600052602060002091600a0282015b8281111561396d5782826000820154816000015560018201548160010155600282015481600201556003820160009054906101000a900473ffffffffffffffffffffffffffffffffffffffff168160030160006101000a81548173ffffffffffffffffffffffffffffffffffffffff021916908373ffffffffffffffffffffffffffffffffffffffff160217905550600482015481600401556005820160009054906101000a900460ff168160050160006101000a81548160ff02191690831515021790555060068201548160060155600782015481600701556008820160009054906101000a900460ff168160080160006101000a81548160ff0219169083151502179055506008820160019054906101000a900473ffffffffffffffffffffffffffffffffffffffff168160080160016101000a81548173ffffffffffffffffffffffffffffffffffffffff021916908373ffffffffffffffffffffffffffffffffffffffff16021790555060098201548160090155505091600a019190600a01906137e4565b5b50905061397b919061397f565b5090565b5b80821115613a4057600080820160009055600182016000905560028201600090556003820160006101000a81549073ffffffffffffffffffffffffffffffffffffffff021916905560048201600090556005820160006101000a81549060ff0219169055600682016000905560078201600090556008820160006101000a81549060ff02191690556008820160016101000a81549073ffffffffffffffffffffffffffffffffffffffff0219169055600982016000905550600a01613980565b5090565b6000604051905090565b600080fd5b600080fd5b6000819050919050565b613a6b81613a58565b8114613a7657600080fd5b50565b600081359050613a8881613a62565b92915050565b600060208284031215613aa457613aa3613a4e565b5b6000613ab284828501613a79565b91505092915050565b613ac481613a58565b82525050565b6000602082019050613adf6000830184613abb565b92915050565b600081519050919050565b600082825260208201905092915050565b60005b83811015613b1f578082015181840152602081019050613b04565b83811115613b2e576000848401525b50505050565b6000601f19601f8301169050919050565b6000613b5082613ae5565b613b5a8185613af0565b9350613b6a818560208601613b01565b613b7381613b34565b840191505092915050565b60006020820190508181036000830152613b988184613b45565b905092915050565b600073ffffffffffffffffffffffffffffffffffffffff82169050919050565b6000613bcb82613ba0565b9050919050565b613bdb81613bc0565b8114613be657600080fd5b50565b600081359050613bf881613bd2565b92915050565b600060208284031215613c1457613c13613a4e565b5b6000613c2284828501613be9565b91505092915050565b60008115159050919050565b613c4081613c2b565b82525050565b6000602082019050613c5b6000830184613c37565b92915050565b613c6a81613bc0565b82525050565b6000602082019050613c856000830184613c61565b92915050565b613c9481613a58565b82525050565b613ca381613bc0565b82525050565b613cb281613c2b565b82525050565b61016082016000820151613ccf6000850182613c8b565b506020820151613ce26020850182613c8b565b506040820151613cf56040850182613c8b565b506060820151613d086060850182613c9a565b506080820151613d1b6080850182613c8b565b5060a0820151613d2e60a0850182613ca9565b5060c0820151613d4160c0850182613c8b565b5060e0820151613d5460e0850182613c8b565b50610100820151613d69610100850182613ca9565b50610120820151613d7e610120850182613c9a565b50610140820151613d93610140850182613c8b565b50505050565b600061016082019050613daf6000830184613cb8565b92915050565b600081519050919050565b600082825260208201905092915050565b6000819050602082019050919050565b61016082016000820151613df86000850182613c8b565b506020820151613e0b6020850182613c8b565b506040820151613e1e6040850182613c8b565b506060820151613e316060850182613c9a565b506080820151613e446080850182613c8b565b5060a0820151613e5760a0850182613ca9565b5060c0820151613e6a60c0850182613c8b565b5060e0820151613e7d60e0850182613c8b565b50610100820151613e92610100850182613ca9565b50610120820151613ea7610120850182613c9a565b50610140820151613ebc610140850182613c8b565b50505050565b6000613ece8383613de1565b6101608301905092915050565b6000602082019050919050565b6000613ef382613db5565b613efd8185613dc0565b9350613f0883613dd1565b8060005b83811015613f39578151613f208882613ec2565b9750613f2b83613edb565b925050600181019050613f0c565b5085935050505092915050565b60006020820190508181036000830152613f608184613ee8565b905092915050565b60008060408385031215613f7f57613f7e613a4e565b5b6000613f8d85828601613a79565b9250506020613f9e85828601613a79565b9150509250929050565b600080600080600060a08688031215613fc457613fc3613a4e565b5b6000613fd288828901613a79565b9550506020613fe388828901613a79565b9450506040613ff488828901613a79565b935050606061400588828901613a79565b925050608061401688828901613be9565b9150509295509295909350565b600081519050919050565b600082825260208201905092915050565b6000819050602082019050919050565b600061405b8383613c8b565b60208301905092915050565b6000602082019050919050565b600061407f82614023565b614089818561402e565b93506140948361403f565b8060005b838110156140c55781516140ac888261404f565b97506140b783614067565b925050600181019050614098565b5085935050505092915050565b600060208201905081810360008301526140ec8184614074565b905092915050565b7f4f776e61626c653a2063616c6c6572206973206e6f7420746865206f776e6572600082015250565b600061412a602083613af0565b9150614135826140f4565b602082019050919050565b600060208201905081810360008301526141598161411d565b9050919050565b60008151905061416f81613bd2565b92915050565b60006020828403121561418b5761418a613a4e565b5b600061419984828501614160565b91505092915050565b7f4c697374696e6720696e6163746976653a206c697374696e672063726561746f60008201527f72206e6f74206c6f6e676572206f776e732074686520746f6b656e2e00000000602082015250565b60006141fe603c83613af0565b9150614209826141a2565b604082019050919050565b6000602082019050818103600083015261422d816141f1565b9050919050565b7f4e487b7100000000000000000000000000000000000000000000000000000000600052601260045260246000fd5b7f4e487b7100000000000000000000000000000000000000000000000000000000600052601160045260246000fd5b600061429d82613a58565b91506142a883613a58565b9250826142b8576142b7614234565b5b828204905092915050565b60006142ce82613a58565b91506142d983613a58565b9250817fffffffffffffffffffffffffffffffffffffffffffffffffffffffffffffffff048311821515161561431257614311614263565b5b828202905092915050565b60006060820190506143326000830186613c61565b61433f6020830185613c61565b61434c6040830184613abb565b949350505050565b61435d81613c2b565b811461436857600080fd5b50565b60008151905061437a81614354565b92915050565b60006020828403121561439657614395613a4e565b5b60006143a48482850161436b565b91505092915050565b60006143b882613a58565b91506143c383613a58565b9250828210156143d6576143d5614263565b5b828203905092915050565b60006040820190506143f66000830185613c61565b6144036020830184613abb565b9392505050565b600080fd5b600080fd5b7f4e487b7100000000000000000000000000000000000000000000000000000000600052604160045260246000fd5b61444c82613b34565b810181811067ffffffffffffffff8211171561446b5761446a614414565b5b80604052505050565b600061447e613a44565b905061448a8282614443565b919050565b600067ffffffffffffffff8211156144aa576144a9614414565b5b6144b382613b34565b9050602081019050919050565b60006144d36144ce8461448f565b614474565b9050828152602081018484840111156144ef576144ee61440f565b5b6144fa848285613b01565b509392505050565b600082601f8301126145175761451661440a565b5b81516145278482602086016144c0565b91505092915050565b60006020828403121561454657614545613a4e565b5b600082015167ffffffffffffffff81111561456457614563613a53565b5b61457084828501614502565b91505092915050565b600060a08201905061458e6000830188613abb565b61459b6020830187613abb565b81810360408301526145ad8186613b45565b90506145bc6060830185613c61565b6145c96080830184613c37565b9695505050505050565b7f4e487b7100000000000000000000000000000000000000000000000000000000600052602260045260246000fd5b6000600282049050600182168061461a57607f821691505b60208210810361462d5761462c6145d3565b5b50919050565b7f4d75737420626520746865206f776e657220746f2070756c6c2066726f6d207360008201527f616c650000000000000000000000000000000000000000000000000000000000602082015250565b600061468f602383613af0565b915061469a82614633565b604082019050919050565b600060208201905081810360008301526146be81614682565b9050919050565b7f4e487b7100000000000000000000000000000000000000000000000000000000600052603260045260246000fd5b7f4e487b7100000000000000000000000000000000000000000000000000000000600052603160045260246000fd5b600061472e82613a58565b91507fffffffffffffffffffffffffffffffffffffffffffffffffffffffffffffffff82036147605761475f614263565b5b600182019050919050565b60006080820190506147806000830187613abb565b81810360208301526147928186613b45565b90506147a16040830185613c61565b6147ae6060830184613c37565b95945050505050565b7f4d757374206265206f776e657220746f206368616e6765206c697374696e672060008201527f7072696365000000000000000000000000000000000000000000000000000000602082015250565b6000614813602583613af0565b915061481e826147b7565b604082019050919050565b6000602082019050818103600083015261484281614806565b9050919050565b7f4d757374206265206c697374656420707269636520696e20617070726f76656460008201527f20746f6b656e0000000000000000000000000000000000000000000000000000602082015250565b60006148a5602683613af0565b91506148b082614849565b604082019050919050565b600060208201905081810360008301526148d481614898565b9050919050565b7f43616e6e6f74206d616b652061206c697374696e6720666f72206120626c616360008201527f6b6c697374656420764e46540000000000000000000000000000000000000000602082015250565b6000614937602c83613af0565b9150614942826148db565b604082019050919050565b600060208201905081810360008301526149668161492a565b9050919050565b7f4d757374206265206f776e657220746f206c69737420764e4654000000000000600082015250565b60006149a3601a83613af0565b91506149ae8261496d565b602082019050919050565b600060208201905081810360008301526149d281614996565b9050919050565b7f4f776e61626c653a206e6577206f776e657220697320746865207a65726f206160008201527f6464726573730000000000000000000000000000000000000000000000000000602082015250565b6000614a35602683613af0565b9150614a40826149d9565b604082019050919050565b60006020820190508181036000830152614a6481614a28565b905091905056fea26469706673582212209ea26070a7f9898c91d22d5c7149d03bbabfb9b68d6515c317c10a1d54a3021c64736f6c634300080e0033",
  "immutableReferences": {},
  "source": "// SPDX-License-Identifier: MIT\n\n/**\n *****    .*****************************************     *****.\n  *****     ***************************************    .*****\n   ******    ******                                   ******\n     *****     *****                                ******        ***       ****    ***,      **********      ****      ***********       .***         .***          ***       ***\n      ******    ******                             *****           ***.    ****     ***,      ***     ***.    ****      ***      ****     .***        ******         *****     ***\n        *****     **************************,    ******             ***,  ***       ***,      ***    ****     ****      ***       ****    .***       **** ***        *** ****  ***\n         ,*****    ************************     *****                *******        ***,      ********.       ****      ***       ***     .***      ***,   ***       ***   *******\n           *****     *****                    ******                  *****         ***,      ***   ***,      ****      ***     ****,     .***     ************      ***     *****\n            ,*****    ******                ,*****                     .**          ***,      ***    ****     ****      **********        .***    ***        ***     ***       ***\n              *****     ******             ******\n                *****     ***********    ,*****\n                 ******    ********     ******\n                   *****     *****    ******                       **********     ****    ****      ,**********     ***       ***.          **.          **        ***        **********      **********\n                    ******    **     *****                         ***.            **** ****      .****      *      ***       ***.        .****,         *****     ***      ****      *,      ***.\n                      *****        ******                          *********         ******       ***               *************.       ,*******        *******   ***     ****               *********\n                       .*****     *****                            *********         ******       ***               *************.      ****  ****       ***  ********     ***.     *****     *********\n                         *****. ******                             ***.            **** ****      ****.             ***       ***.     ************      ***     *****      ****      ***     ***.\n                          .*********                               **********     ****    ****      ***********     ***       ***.    ***.       ***     ***       ***        ***********     **********\n                            *******\n                              ***\n */\n\npragma solidity ^0.8.0;\n\nimport \"@openzeppelin/contracts/access/Ownable.sol\";\nimport \"@openzeppelin/contracts/token/ERC721/ERC721.sol\";\nimport \"@openzeppelin/contracts/token/ERC20/IERC20.sol\";\nimport \"@openzeppelin/contracts/token/ERC20/ERC20.sol\";\nimport \"@openzeppelin/contracts/utils/Counters.sol\";\nimport \"erc721a/contracts/IERC721A.sol\";\nimport \"@opengsn/contracts/src/BaseRelayRecipient.sol\";\n\nimport \"./ViridianNFT.sol\";\n\n/**\n * Exchange contract that helps facilitate the buying and selling on Viridian NFTs.\n * Will support cross-chain purcahsing whether the NFT or listing is on that chain or not.\n */\ncontract ViridianExchange is BaseRelayRecipient, Ownable {\n\n    // Events to assist listing, purchasing, and unlisting visuals on front-end.\n    event ItemListed(uint256 tokenId, string uri, address wallet, bool listed);\n    event ItemUnlisted(uint256 tokenId, string uri, address wallet, bool listed);\n    event PurchasedListing(uint256 tokenId, uint256 price, string uri, address wallet, bool purchased);\n\n    // Incrementing counter for listing Ids\n    using Counters for Counters.Counter;\n    Counters.Counter private _listingIds;\n\n    // Viridian Genesis NFT instance\n    ViridianNFT vNFT;\n    \n    // Struct with all information for a listing\n    struct Listing {\n        uint256 listingId;\n        uint256 tokenId;\n        uint256 chainId;\n        address owner;\n        uint256 price;\n        bool purchased;\n        uint256 baseRoyalty;\n        uint256 endTime;\n        bool sold;\n        address erc20Address;\n        uint256 timeListed;\n    }\n\n    // All listings that an individual user has made (Maybe remove for gas optimization on Ethereum)\n    mapping (address => Listing[]) userListings;\n\n    // All listings on the exchange\n    mapping (uint256 => Listing) listings;\n    // All listing sales that have been completed on the platform\n    mapping (uint256 => Listing) soldListings;\n    // All tokens that are not allowed to be listed on the platform\n    mapping (uint256 => bool) tokenIdBlacklist;\n\n    // All listing ids on the site (Maybe remove for gas optimization)\n    uint256[] private listingIds;\n\n    // All listing ids of sales that have been completed on the platform\n    uint256[] private soldListingIds;\n\n    // Base royalty amount for site transactions\n    uint256 private baseRoyalty;\n    // Royalty for users who are recieving promotional rates\n    uint256 private whitelistRoyalty;\n    // Treasury address where royalty payments are sent to\n    address private treasuryAddress;\n\n    // The current address for the Viridian NFT Contract\n    address public viridianNFT;\n\n    // All approved ERC20 tokens that can be used on the site.\n    mapping (address => bool) public approvedTokens;\n\n    /**\n     * @dev Set the default ERC20Token address, Viridian NFT address, forwarder for gasless, and treasury for royalty payments.\n     */\n    constructor(address _erc20Token, address _viridianNFT, address _forwarder, address _treasury) {\n        require(address(_erc20Token) != address(0), \"Token address must not be the 0 address\");\n        require(address(_viridianNFT) != address(0), \"Token address must not be the 0 address\");\n\n        treasuryAddress = _treasury;\n        baseRoyalty = 5;\n        whitelistRoyalty = 0;\n\n        setTrustedForwarder(_forwarder);\n\n        approvedTokens[_erc20Token] = true;\n        viridianNFT = _viridianNFT;\n\n        vNFT = ViridianNFT(_viridianNFT);\n    }\n\n    string public override versionRecipient = \"2.2.0\";\n\n    /**\n     * @dev Owner can change the trusted forwarder used for gasless.\n     */\n    function setTrustedForwarder(address _forwarder) public onlyOwner() {\n        _setTrustedForwarder(_forwarder);\n    }\n\n    /**\n     * @dev Replaces msg.sender for gasless support.\n     */\n    function _msgSender() internal view override(Context, BaseRelayRecipient) returns (address sender) {\n        sender = BaseRelayRecipient._msgSender();\n    }\n\n    /**\n     * @dev Replaces msg.data for gasless support.\n     */\n    function _msgData() internal view override(Context, BaseRelayRecipient) returns (bytes calldata) {\n        return BaseRelayRecipient._msgData();\n    }\n\n    /**\n     * @dev Owner can set a new default royalty value for the exchange.\n     */\n    function setRoyalty(uint256 _newRoyalty) public onlyOwner() {\n        baseRoyalty = _newRoyalty;\n    }\n\n    /**\n     * @dev Owner can set a new promotional royalty value for the exchange.\n     */\n    function setWhitelistRoyalty(uint256 _newRoyalty) public onlyOwner() {\n        baseRoyalty = _newRoyalty;\n    }\n\n    /**\n     * @dev Owner can add support for a new ERC20 token on the exchange.\n     */\n    function addERC20Token(address _erc20Address) public onlyOwner() {\n        approvedTokens[_erc20Address] = true;\n    }\n\n    /**\n     * @dev Owner can remove support for an ERC20 token on the exchange.\n     */\n    function removeERC20Token(address _erc20Address) public onlyOwner() {\n        approvedTokens[_erc20Address] = false;\n    }\n\n    /**\n     * @dev Returns whether the ERC20 token is supported on the exchange.\n     */\n    function isTokenApproved(address _erc20Address) public view returns (bool) {\n        return approvedTokens[_erc20Address];\n    }\n\n    /**\n     * @dev Gets the balance of the exchange contract.\n     */\n    function getBalance() public view returns (uint) {\n        return address(this).balance;\n    }\n\n    /**\n     * @dev Gets all listing ids that are currently on the exchange.\n     */\n    function getListings() public view returns (uint256[] memory) {\n        return listingIds;\n    }\n\n    /**\n     * @dev Gets the listing struct from a listing Id.\n     */\n    function getListingFromId(uint256 _listingId) public view returns (Listing memory) {\n        return listings[_listingId];\n    }\n\n    /**\n     * @dev Gets all listings a user has on the exchange.\n     */\n    function getListingsFromUser(address _userAddr) public view returns (Listing[] memory) {\n        return userListings[_userAddr];\n    }\n\n    /**\n     * @dev Gets the owner of an NFT on the exchange.\n     */\n    function getNftOwner(uint256 _nftId) public view returns (address) {\n        return IERC721(viridianNFT).ownerOf(_nftId);\n    }\n\n    /**\n     * @dev User can put one of their NFTs up for sale.\n     */\n    function putUpForSale(uint256 _nftId, uint256 _price, uint256 _royalty, uint256 _endTime, address _erc20Address) public {\n        // All listing restrictions must be enforced\n        require(approvedTokens[_erc20Address], \"Must be listed price in approved token\");\n        require(tokenIdBlacklist[_nftId], \"Cannot make a listing for a blacklisted vNFT\");\n        require(getNftOwner(_nftId) == _msgSender(), \"Must be owner to list vNFT\");\n\n        // Set all data on the listing struct\n        _listingIds.increment();\n        uint256 _listingId = _listingIds.current();\n        Listing memory saleListing;\n        saleListing.listingId = _listingId;\n        saleListing.tokenId = _nftId;\n        saleListing.owner = _msgSender();\n        saleListing.price = _price;\n        saleListing.purchased = false;\n        saleListing.baseRoyalty = _royalty;\n        saleListing.endTime = _endTime;\n        saleListing.sold = false;\n        saleListing.erc20Address = _erc20Address;\n        saleListing.timeListed = block.timestamp;\n\n        // Push the listing to the current senders listings and the array of exchange listings.\n        userListings[_msgSender()].push(saleListing);\n        listings[_listingId] = saleListing;\n        listingIds.push(saleListing.listingId);\n\n        emit ItemListed(_nftId, vNFT.tokenURI(_nftId), saleListing.owner, true);\n    }\n\n    /**\n     * @dev User can put one of their NFTs up for sale.\n     */\n    function changeSalePrice(uint256 _listingId, uint256 _newPrice) public {\n        require(listings[_listingId].owner == _msgSender(), \"Must be owner to change listing price\");\n        listings[_listingId].price = _newPrice;\n    }\n\n    /**\n     * @dev User can remove one of their listings from the exchange.\n     */\n    function pullFromSale(uint256 _listingId) public {\n        Listing memory curListing = listings[_listingId];\n        require(curListing.owner == _msgSender(), \"Must be the owner to pull from sale\");\n\n        Listing[] storage curUserListings = userListings[_msgSender()];\n        for (uint i = 0; i < curUserListings.length; i++) {\n            Listing memory listing = curUserListings[i];\n            if (listing.listingId == curListing.listingId) {\n                curUserListings[i] = curUserListings[curUserListings.length - 1];\n                userListings[_msgSender()] = curUserListings;\n                userListings[_msgSender()].pop();\n                break;\n            }\n        }\n\n        for (uint256 i = 0; i < listingIds.length; i++) {\n            uint256 listingId = listingIds[i];\n            if (listingId == curListing.listingId) {\n                listingIds[i] = listingIds[listingIds.length - 1];\n                listingIds.pop();\n                break;\n            }\n        }\n\n        delete listings[_listingId];\n\n        emit ItemUnlisted(curListing.tokenId, vNFT.tokenURI(curListing.tokenId), _msgSender(), false);\n    }\n\n    /**\n     * @dev When a listing is purchased remove listing and add it to sold listings.\n     */\n    function pullFromSaleOnListingPurchase(uint256 _listingId) private {\n        Listing memory curListing = listings[_listingId];\n        //IERC721(viridianNFT).safeTransferFrom(address(this), _msgSender(), curListing.tokenId);\n        Listing[] storage curUserListings = userListings[curListing.owner];\n        for (uint i = 0; i < curUserListings.length; i++) {\n            Listing memory listing = curUserListings[i];\n            if (listing.listingId == curListing.listingId) {\n                curUserListings[i] = curUserListings[curUserListings.length - 1];\n                userListings[curListing.owner] = curUserListings;\n                userListings[curListing.owner].pop();\n                break;\n            }\n        }\n\n        for (uint256 i = 0; i < listingIds.length; i++) {\n            uint256 listingId = listingIds[i];\n            if (listingId == curListing.listingId) {\n                listingIds[i] = listingIds[listingIds.length - 1];\n                listingIds.pop();\n                break;\n            }\n        }\n\n        //TODO: Make sure this is correct\n        soldListings[_listingId] = curListing;\n        soldListingIds.push(_listingId);\n\n        delete listings[_listingId];\n    }\n\n    /**\n     * @dev Purchase listing for an NFT with an ERC20 token payment.\n     */\n    function purchaseListing(uint256 _listingId) public {\n        Listing memory curListing = listings[_listingId];\n\n        require(curListing.owner == IERC721(viridianNFT).ownerOf(curListing.tokenId), \"Listing inactive: listing creator not longer owns the token.\");\n\n        IERC20(curListing.erc20Address).transferFrom(_msgSender(), treasuryAddress, (curListing.price / 100) * baseRoyalty);\n        IERC20(curListing.erc20Address).transferFrom(_msgSender(), curListing.owner, curListing.price - ((curListing.price / 100) * baseRoyalty));\n\n        IERC721(viridianNFT).approve(_msgSender(), curListing.tokenId);\n        IERC721(viridianNFT).safeTransferFrom(curListing.owner, _msgSender(), curListing.tokenId);\n        pullFromSaleOnListingPurchase(_listingId);\n\n        emit PurchasedListing(curListing.tokenId, curListing.price, vNFT.tokenURI(curListing.tokenId), _msgSender(), true);\n    }\n\n    /**\n     * @dev Purchase listing for an NFT on a different chain with an ERC20 token payment using stargate.\n     */\n    function purchaseListingOmniChain(uint256 _listingId) public {\n        Listing memory curListing = listings[_listingId];\n\n        require(curListing.owner == IERC721(viridianNFT).ownerOf(curListing.tokenId), \"Listing inactive: listing creator not longer owns the token.\");\n\n\n        IERC20(curListing.erc20Address).transferFrom(_msgSender(), treasuryAddress, (curListing.price / 100) * baseRoyalty);\n        // TODO: Transfer payment money with stargate\n        IERC20(curListing.erc20Address).transferFrom(_msgSender(), curListing.owner, curListing.price - ((curListing.price / 100) * baseRoyalty));\n\n        IERC721(viridianNFT).approve(_msgSender(), curListing.tokenId);\n        IERC721(viridianNFT).safeTransferFrom(curListing.owner, _msgSender(), curListing.tokenId);\n        pullFromSaleOnListingPurchase(_listingId);\n\n        emit PurchasedListing(curListing.tokenId, curListing.price, vNFT.tokenURI(curListing.tokenId), _msgSender(), true);\n    }\n\n    /**\n     * @dev Reimburse every address that purcahsed a listing involving the tokenId.\n     */\n    function rollbackSales(uint256 _tokenId) external onlyOwner() {\n        // Loop through all previous sales that contain the _tokenId\n        // Put then in order in a list\n        // Loop through in-order, reimburse the current holder the full amount they paid, and reimburse the\n        // initial purchase price - final sale price if the final sale is lower than the purchase/\n    }\n}\n",
  "sourcePath": "/Users/rohiljaveri/Viridian/Viridian-Exchange-Contracts/contracts/ViridianExchange.sol",
  "compiler": {
    "name": "solc",
    "version": "0.8.14+commit.80d49f37.Emscripten.clang"
  },
  "schemaVersion": "3.4.7",
  "updatedAt": "2022-05-22T22:22:55.391Z",
  "networkType": "ethereum",
  "devdoc": {
    "kind": "dev",
    "methods": {
      "addERC20Token(address)": {
        "details": "Owner can add support for a new ERC20 token on the exchange."
      },
      "changeSalePrice(uint256,uint256)": {
        "details": "User can put one of their NFTs up for sale."
      },
      "constructor": {
        "details": "Set the default ERC20Token address, Viridian NFT address, forwarder for gasless, and treasury for royalty payments."
      },
      "getBalance()": {
        "details": "Gets the balance of the exchange contract."
      },
      "getListingFromId(uint256)": {
        "details": "Gets the listing struct from a listing Id."
      },
      "getListings()": {
        "details": "Gets all listing ids that are currently on the exchange."
      },
      "getListingsFromUser(address)": {
        "details": "Gets all listings a user has on the exchange."
      },
      "getNftOwner(uint256)": {
        "details": "Gets the owner of an NFT on the exchange."
      },
      "isTokenApproved(address)": {
        "details": "Returns whether the ERC20 token is supported on the exchange."
      },
      "owner()": {
        "details": "Returns the address of the current owner."
      },
      "pullFromSale(uint256)": {
        "details": "User can remove one of their listings from the exchange."
      },
      "purchaseListing(uint256)": {
        "details": "Purchase listing for an NFT with an ERC20 token payment."
      },
      "purchaseListingOmniChain(uint256)": {
        "details": "Purchase listing for an NFT on a different chain with an ERC20 token payment using stargate."
      },
      "putUpForSale(uint256,uint256,uint256,uint256,address)": {
        "details": "User can put one of their NFTs up for sale."
      },
      "removeERC20Token(address)": {
        "details": "Owner can remove support for an ERC20 token on the exchange."
      },
      "renounceOwnership()": {
        "details": "Leaves the contract without owner. It will not be possible to call `onlyOwner` functions anymore. Can only be called by the current owner. NOTE: Renouncing ownership will leave the contract without an owner, thereby removing any functionality that is only available to the owner."
      },
      "rollbackSales(uint256)": {
        "details": "Reimburse every address that purcahsed a listing involving the tokenId."
      },
      "setRoyalty(uint256)": {
        "details": "Owner can set a new default royalty value for the exchange."
      },
      "setTrustedForwarder(address)": {
        "details": "Owner can change the trusted forwarder used for gasless."
      },
      "setWhitelistRoyalty(uint256)": {
        "details": "Owner can set a new promotional royalty value for the exchange."
      },
      "transferOwnership(address)": {
        "details": "Transfers ownership of the contract to a new account (`newOwner`). Can only be called by the current owner."
      }
    },
    "version": 1
  },
  "userdoc": {
    "kind": "user",
    "methods": {
      "isTrustedForwarder(address)": {
        "notice": "return if the forwarder is trusted to forward relayed transactions to us. the forwarder is required to verify the sender's signature, and verify the call is not a replay."
      }
    },
    "notice": "Exchange contract that helps facilitate the buying and selling on Viridian NFTs. Will support cross-chain purcahsing whether the NFT or listing is on that chain or not.",
    "version": 1
  }
}