{
  "contractName": "ViridianExchange",
  "abi": [
    {
      "inputs": [
        {
          "internalType": "address",
          "name": "_viridianToken",
          "type": "address"
        },
        {
          "internalType": "address",
          "name": "_viridianNFT",
          "type": "address"
        }
      ],
      "stateMutability": "nonpayable",
      "type": "constructor"
    },
    {
      "anonymous": false,
      "inputs": [
        {
          "indexed": true,
          "internalType": "address",
          "name": "previousOwner",
          "type": "address"
        },
        {
          "indexed": true,
          "internalType": "address",
          "name": "newOwner",
          "type": "address"
        }
      ],
      "name": "OwnershipTransferred",
      "type": "event"
    },
    {
      "stateMutability": "payable",
      "type": "fallback",
      "payable": true
    },
    {
      "inputs": [],
      "name": "ETH",
      "outputs": [
        {
          "internalType": "address",
          "name": "",
          "type": "address"
        }
      ],
      "stateMutability": "view",
      "type": "function",
      "constant": true
    },
    {
      "inputs": [],
      "name": "owner",
      "outputs": [
        {
          "internalType": "address",
          "name": "",
          "type": "address"
        }
      ],
      "stateMutability": "view",
      "type": "function",
      "constant": true
    },
    {
      "inputs": [],
      "name": "renounceOwnership",
      "outputs": [],
      "stateMutability": "nonpayable",
      "type": "function"
    },
    {
      "inputs": [
        {
          "internalType": "address",
          "name": "newOwner",
          "type": "address"
        }
      ],
      "name": "transferOwnership",
      "outputs": [],
      "stateMutability": "nonpayable",
      "type": "function"
    },
    {
      "inputs": [
        {
          "internalType": "uint256",
          "name": "",
          "type": "uint256"
        }
      ],
      "name": "users",
      "outputs": [
        {
          "internalType": "address",
          "name": "wallet",
          "type": "address"
        },
        {
          "internalType": "string",
          "name": "displayName",
          "type": "string"
        },
        {
          "internalType": "string",
          "name": "coverPhotoURL",
          "type": "string"
        },
        {
          "internalType": "string",
          "name": "profilePhotoURL",
          "type": "string"
        },
        {
          "internalType": "string",
          "name": "bio",
          "type": "string"
        }
      ],
      "stateMutability": "view",
      "type": "function",
      "constant": true
    },
    {
      "inputs": [],
      "name": "viridianNFT",
      "outputs": [
        {
          "internalType": "address",
          "name": "",
          "type": "address"
        }
      ],
      "stateMutability": "view",
      "type": "function",
      "constant": true
    },
    {
      "inputs": [],
      "name": "viridianToken",
      "outputs": [
        {
          "internalType": "address",
          "name": "",
          "type": "address"
        }
      ],
      "stateMutability": "view",
      "type": "function",
      "constant": true
    },
    {
      "stateMutability": "payable",
      "type": "receive",
      "payable": true
    },
    {
      "inputs": [],
      "name": "getBalance",
      "outputs": [
        {
          "internalType": "uint256",
          "name": "",
          "type": "uint256"
        }
      ],
      "stateMutability": "view",
      "type": "function",
      "constant": true
    },
    {
      "inputs": [],
      "name": "getListings",
      "outputs": [
        {
          "internalType": "uint256[]",
          "name": "",
          "type": "uint256[]"
        }
      ],
      "stateMutability": "view",
      "type": "function",
      "constant": true
    },
    {
      "inputs": [
        {
          "internalType": "uint256",
          "name": "_listingId",
          "type": "uint256"
        }
      ],
      "name": "getListingFromId",
      "outputs": [
        {
          "components": [
            {
              "internalType": "uint256",
              "name": "listingId",
              "type": "uint256"
            },
            {
              "internalType": "uint256",
              "name": "tokenId",
              "type": "uint256"
            },
            {
              "internalType": "address",
              "name": "owner",
              "type": "address"
            },
            {
              "internalType": "uint256",
              "name": "price",
              "type": "uint256"
            },
            {
              "internalType": "bool",
              "name": "purchased",
              "type": "bool"
            },
            {
              "internalType": "uint256",
              "name": "royalty",
              "type": "uint256"
            },
            {
              "internalType": "bool",
              "name": "isAuction",
              "type": "bool"
            },
            {
              "internalType": "uint256",
              "name": "endTime",
              "type": "uint256"
            },
            {
              "components": [
                {
                  "internalType": "address",
                  "name": "owner",
                  "type": "address"
                },
                {
                  "internalType": "uint256",
                  "name": "amount",
                  "type": "uint256"
                },
                {
                  "internalType": "bool",
                  "name": "isVEXT",
                  "type": "bool"
                }
              ],
              "internalType": "struct ViridianExchange.Bid",
              "name": "largestBid",
              "type": "tuple"
            },
            {
              "internalType": "uint256[]",
              "name": "bidIds",
              "type": "uint256[]"
            },
            {
              "internalType": "bool",
              "name": "sold",
              "type": "bool"
            },
            {
              "internalType": "bool",
              "name": "isVEXT",
              "type": "bool"
            }
          ],
          "internalType": "struct ViridianExchange.Listing",
          "name": "",
          "type": "tuple"
        }
      ],
      "stateMutability": "view",
      "type": "function",
      "constant": true
    },
    {
      "inputs": [
        {
          "internalType": "uint256",
          "name": "_nftId",
          "type": "uint256"
        }
      ],
      "name": "getNftOwner",
      "outputs": [
        {
          "internalType": "address",
          "name": "",
          "type": "address"
        }
      ],
      "stateMutability": "view",
      "type": "function",
      "constant": true
    },
    {
      "inputs": [
        {
          "internalType": "address payable",
          "name": "_to",
          "type": "address"
        }
      ],
      "name": "sendEther",
      "outputs": [],
      "stateMutability": "payable",
      "type": "function",
      "payable": true
    },
    {
      "inputs": [
        {
          "internalType": "uint256",
          "name": "_nftId",
          "type": "uint256"
        },
        {
          "internalType": "uint256",
          "name": "_price",
          "type": "uint256"
        },
        {
          "internalType": "uint256",
          "name": "_royalty",
          "type": "uint256"
        },
        {
          "internalType": "bool",
          "name": "_isAuction",
          "type": "bool"
        },
        {
          "internalType": "uint256",
          "name": "_endTime",
          "type": "uint256"
        },
        {
          "internalType": "bool",
          "name": "_isVEXT",
          "type": "bool"
        }
      ],
      "name": "putUpForSale",
      "outputs": [],
      "stateMutability": "payable",
      "type": "function",
      "payable": true
    },
    {
      "inputs": [
        {
          "internalType": "uint256",
          "name": "_listingId",
          "type": "uint256"
        }
      ],
      "name": "pullFromSale",
      "outputs": [],
      "stateMutability": "nonpayable",
      "type": "function"
    },
    {
      "inputs": [
        {
          "internalType": "uint256",
          "name": "_listingId",
          "type": "uint256"
        }
      ],
      "name": "buyNFTWithETH",
      "outputs": [],
      "stateMutability": "payable",
      "type": "function",
      "payable": true
    },
    {
      "inputs": [
        {
          "internalType": "uint256",
          "name": "_listingId",
          "type": "uint256"
        }
      ],
      "name": "buyNFTWithVEXT",
      "outputs": [],
      "stateMutability": "payable",
      "type": "function",
      "payable": true
    },
    {
      "inputs": [
        {
          "internalType": "address",
          "name": "_to",
          "type": "address"
        },
        {
          "internalType": "uint256[]",
          "name": "_nftIds",
          "type": "uint256[]"
        },
        {
          "internalType": "uint256",
          "name": "_amount",
          "type": "uint256"
        },
        {
          "internalType": "uint256[]",
          "name": "_recNftIds",
          "type": "uint256[]"
        },
        {
          "internalType": "uint256",
          "name": "_recAmount",
          "type": "uint256"
        },
        {
          "internalType": "bool",
          "name": "isVEXT",
          "type": "bool"
        }
      ],
      "name": "makeOffer",
      "outputs": [],
      "stateMutability": "nonpayable",
      "type": "function"
    },
    {
      "inputs": [
        {
          "internalType": "uint256",
          "name": "_offerId",
          "type": "uint256"
        }
      ],
      "name": "cancelOffer",
      "outputs": [],
      "stateMutability": "nonpayable",
      "type": "function"
    },
    {
      "inputs": [
        {
          "internalType": "uint256",
          "name": "_offerId",
          "type": "uint256"
        }
      ],
      "name": "acceptOfferWithETH",
      "outputs": [],
      "stateMutability": "payable",
      "type": "function",
      "payable": true
    },
    {
      "inputs": [
        {
          "internalType": "uint256",
          "name": "_offerId",
          "type": "uint256"
        }
      ],
      "name": "acceptOfferWithVEXT",
      "outputs": [],
      "stateMutability": "nonpayable",
      "type": "function"
    },
    {
      "inputs": [
        {
          "internalType": "uint256",
          "name": "_listingId",
          "type": "uint256"
        },
        {
          "internalType": "uint256",
          "name": "_amount",
          "type": "uint256"
        }
      ],
      "name": "bidOnAuctionWithVEXT",
      "outputs": [],
      "stateMutability": "nonpayable",
      "type": "function"
    },
    {
      "inputs": [
        {
          "internalType": "uint256",
          "name": "_listingId",
          "type": "uint256"
        },
        {
          "internalType": "uint256",
          "name": "_amount",
          "type": "uint256"
        }
      ],
      "name": "bidOnAuctionWithETH",
      "outputs": [],
      "stateMutability": "nonpayable",
      "type": "function"
    }
  ],
  "bytecode": "0x60806040523480156200001157600080fd5b5060405162004eb138038062004eb1833981810160405281019062000037919062000206565b600062000049620001e760201b60201c565b9050806000806101000a81548173ffffffffffffffffffffffffffffffffffffffff021916908373ffffffffffffffffffffffffffffffffffffffff1602179055508073ffffffffffffffffffffffffffffffffffffffff16600073ffffffffffffffffffffffffffffffffffffffff167f8be0079c531659141344cd1fd0a4f28419497f9722a3daafe3b4186f6b6457e060405160405180910390a350600073ffffffffffffffffffffffffffffffffffffffff168273ffffffffffffffffffffffffffffffffffffffff1614156200012257600080fd5b600073ffffffffffffffffffffffffffffffffffffffff168173ffffffffffffffffffffffffffffffffffffffff1614156200015d57600080fd5b81600f60006101000a81548173ffffffffffffffffffffffffffffffffffffffff021916908373ffffffffffffffffffffffffffffffffffffffff16021790555080600d60006101000a81548173ffffffffffffffffffffffffffffffffffffffff021916908373ffffffffffffffffffffffffffffffffffffffff1602179055505050620002a0565b600033905090565b600081519050620002008162000286565b92915050565b6000806040838503121562000220576200021f62000281565b5b60006200023085828601620001ef565b92505060206200024385828601620001ef565b9150509250929050565b60006200025a8262000261565b9050919050565b600073ffffffffffffffffffffffffffffffffffffffff82169050919050565b600080fd5b62000291816200024d565b81146200029d57600080fd5b50565b614c0180620002b06000396000f3fe6080604052600436106101395760003560e01c80639cbccc2c116100ab578063bddb06f31161006f578063bddb06f3146103d4578063ec186db3146103fd578063ef706adf14610419578063f1b2d6a314610442578063f2f57e951461046d578063f2fde38b1461049857610140565b80639cbccc2c1461030d578063a19b56ac14610336578063ac0b27c214610373578063ac69ada71461038f578063aec99da2146103ab57610140565b8063715018a6116100fd578063715018a61461020f5780638322fff2146102265780638547cd16146102515780638ad2d5a71461027a5780638da5cb5b146102b75780639a701288146102e257610140565b806312065fe014610142578063273e287e1461016d578063365b98b2146101895780633d90636b146101ca57806348c981e2146101f357610140565b3661014057005b005b34801561014e57600080fd5b506101576104c1565b6040516101649190614635565b60405180910390f35b61018760048036038101906101829190613f5e565b6104c9565b005b34801561019557600080fd5b506101b060048036038101906101ab9190613f5e565b610517565b6040516101c19594939291906144a2565b60405180910390f35b3480156101d657600080fd5b506101f160048036038101906101ec9190613fb8565b61079d565b005b61020d60048036038101906102089190613e3f565b6109d1565b005b34801561021b57600080fd5b50610224610a84565b005b34801561023257600080fd5b5061023b610bbe565b6040516102489190614450565b60405180910390f35b34801561025d57600080fd5b5061027860048036038101906102739190613fb8565b610be4565b005b34801561028657600080fd5b506102a1600480360381019061029c9190613f5e565b610e18565b6040516102ae9190614450565b60405180910390f35b3480156102c357600080fd5b506102cc610ecc565b6040516102d99190614450565b60405180910390f35b3480156102ee57600080fd5b506102f7610ef5565b6040516103049190614450565b60405180910390f35b34801561031957600080fd5b50610334600480360381019061032f9190613e6c565b610f1b565b005b34801561034257600080fd5b5061035d60048036038101906103589190613f5e565b6112bb565b60405161036a9190614613565b60405180910390f35b61038d60048036038101906103889190613f5e565b6114c4565b005b6103a960048036038101906103a49190613ff8565b61190a565b005b3480156103b757600080fd5b506103d260048036038101906103cd9190613f5e565b611dfd565b005b3480156103e057600080fd5b506103fb60048036038101906103f69190613f5e565b611fcc565b005b61041760048036038101906104129190613f5e565b6128a5565b005b34801561042557600080fd5b50610440600480360381019061043b9190613f5e565b612bf7565b005b34801561044e57600080fd5b506104576132c1565b6040516104649190614511565b60405180910390f35b34801561047957600080fd5b50610482613319565b60405161048f9190614450565b60405180910390f35b3480156104a457600080fd5b506104bf60048036038101906104ba9190613de5565b61333f565b005b600047905090565b600060076000838152602001908152602001600020905060008160060160009054906101000a900473ffffffffffffffffffffffffffffffffffffffff169050610512816109d1565b505050565b600c818154811061052757600080fd5b90600052602060002090600802016000915090508060000160009054906101000a900473ffffffffffffffffffffffffffffffffffffffff1690806001018054610570906147d3565b80601f016020809104026020016040519081016040528092919081815260200182805461059c906147d3565b80156105e95780601f106105be576101008083540402835291602001916105e9565b820191906000526020600020905b8154815290600101906020018083116105cc57829003601f168201915b5050505050908060020180546105fe906147d3565b80601f016020809104026020016040519081016040528092919081815260200182805461062a906147d3565b80156106775780601f1061064c57610100808354040283529160200191610677565b820191906000526020600020905b81548152906001019060200180831161065a57829003601f168201915b50505050509080600301805461068c906147d3565b80601f01602080910402602001604051908101604052809291908181526020018280546106b8906147d3565b80156107055780601f106106da57610100808354040283529160200191610705565b820191906000526020600020905b8154815290600101906020018083116106e857829003601f168201915b50505050509080600401805461071a906147d3565b80601f0160208091040260200160405190810160405280929190818152602001828054610746906147d3565b80156107935780601f1061076857610100808354040283529160200191610793565b820191906000526020600020905b81548152906001019060200180831161077657829003601f168201915b5050505050905085565b60006008600084815260200190815260200160002090508060060160009054906101000a900460ff16610805576040517f08c379a00000000000000000000000000000000000000000000000000000000081526004016107fc906145b3565b60405180910390fd5b8181600801600101541061084e576040517f08c379a000000000000000000000000000000000000000000000000000000000815260040161084590614593565b60405180910390fd5b600060405180606001604052803373ffffffffffffffffffffffffffffffffffffffff16815260200184815260200160001515815250905061089060036134e8565b600061089c60026134fe565b905082600b01819080600181540180825580915050600190039060005260206000200160009091909190915055816009600083815260200190815260200160002060008201518160000160006101000a81548173ffffffffffffffffffffffffffffffffffffffff021916908373ffffffffffffffffffffffffffffffffffffffff1602179055506020820151816001015560408201518160020160006101000a81548160ff021916908315150217905550905050818360080160008201518160000160006101000a81548173ffffffffffffffffffffffffffffffffffffffff021916908373ffffffffffffffffffffffffffffffffffffffff1602179055506020820151816001015560408201518160020160006101000a81548160ff0219169083151502179055509050505050505050565b6000808273ffffffffffffffffffffffffffffffffffffffff16346040516109f89061443b565b60006040518083038185875af1925050503d8060008114610a35576040519150601f19603f3d011682016040523d82523d6000602084013e610a3a565b606091505b509150915081610a7f576040517f08c379a0000000000000000000000000000000000000000000000000000000008152600401610a7690614573565b60405180910390fd5b505050565b610a8c61350c565b73ffffffffffffffffffffffffffffffffffffffff16610aaa610ecc565b73ffffffffffffffffffffffffffffffffffffffff1614610b00576040517f08c379a0000000000000000000000000000000000000000000000000000000008152600401610af7906145d3565b60405180910390fd5b600073ffffffffffffffffffffffffffffffffffffffff1660008054906101000a900473ffffffffffffffffffffffffffffffffffffffff1673ffffffffffffffffffffffffffffffffffffffff167f8be0079c531659141344cd1fd0a4f28419497f9722a3daafe3b4186f6b6457e060405160405180910390a360008060006101000a81548173ffffffffffffffffffffffffffffffffffffffff021916908373ffffffffffffffffffffffffffffffffffffffff160217905550565b600e60009054906101000a900473ffffffffffffffffffffffffffffffffffffffff1681565b60006008600084815260200190815260200160002090508060060160009054906101000a900460ff16610c4c576040517f08c379a0000000000000000000000000000000000000000000000000000000008152600401610c43906145b3565b60405180910390fd5b81816008016001015410610c95576040517f08c379a0000000000000000000000000000000000000000000000000000000008152600401610c8c90614593565b60405180910390fd5b600060405180606001604052803373ffffffffffffffffffffffffffffffffffffffff168152602001848152602001600115158152509050610cd760036134e8565b6000610ce360026134fe565b905082600b01819080600181540180825580915050600190039060005260206000200160009091909190915055816009600083815260200190815260200160002060008201518160000160006101000a81548173ffffffffffffffffffffffffffffffffffffffff021916908373ffffffffffffffffffffffffffffffffffffffff1602179055506020820151816001015560408201518160020160006101000a81548160ff021916908315150217905550905050818360080160008201518160000160006101000a81548173ffffffffffffffffffffffffffffffffffffffff021916908373ffffffffffffffffffffffffffffffffffffffff1602179055506020820151816001015560408201518160020160006101000a81548160ff0219169083151502179055509050505050505050565b6000600d60009054906101000a900473ffffffffffffffffffffffffffffffffffffffff1673ffffffffffffffffffffffffffffffffffffffff16636352211e836040518263ffffffff1660e01b8152600401610e759190614635565b60206040518083038186803b158015610e8d57600080fd5b505afa158015610ea1573d6000803e3d6000fd5b505050506040513d601f19601f82011682018060405250810190610ec59190613e12565b9050919050565b60008060009054906101000a900473ffffffffffffffffffffffffffffffffffffffff16905090565b600d60009054906101000a900473ffffffffffffffffffffffffffffffffffffffff1681565b3373ffffffffffffffffffffffffffffffffffffffff168673ffffffffffffffffffffffffffffffffffffffff161415610f5457600080fd5b610f5e60026134e8565b6000610f6a60026134fe565b905060006040518061012001604052808381526020018881526020018781526020018681526020018581526020018973ffffffffffffffffffffffffffffffffffffffff1681526020013373ffffffffffffffffffffffffffffffffffffffff1681526020018415158152602001600115158152509050600660008973ffffffffffffffffffffffffffffffffffffffff1673ffffffffffffffffffffffffffffffffffffffff168152602001908152602001600020819080600181540180825580915050600190039060005260206000209060070201600090919091909150600082015181600001556020820151816001019080519060200190611070929190613514565b50604082015181600201556060820151816003019080519060200190611097929190613514565b506080820151816004015560a08201518160050160006101000a81548173ffffffffffffffffffffffffffffffffffffffff021916908373ffffffffffffffffffffffffffffffffffffffff16021790555060c08201518160060160006101000a81548173ffffffffffffffffffffffffffffffffffffffff021916908373ffffffffffffffffffffffffffffffffffffffff16021790555060e08201518160060160146101000a81548160ff0219169083151502179055506101008201518160060160156101000a81548160ff021916908315150217905550505080600760008481526020019081526020016000206000820151816000015560208201518160010190805190602001906111ad929190613514565b506040820151816002015560608201518160030190805190602001906111d4929190613514565b506080820151816004015560a08201518160050160006101000a81548173ffffffffffffffffffffffffffffffffffffffff021916908373ffffffffffffffffffffffffffffffffffffffff16021790555060c08201518160060160006101000a81548173ffffffffffffffffffffffffffffffffffffffff021916908373ffffffffffffffffffffffffffffffffffffffff16021790555060e08201518160060160146101000a81548160ff0219169083151502179055506101008201518160060160156101000a81548160ff0219169083151502179055509050505050505050505050565b6112c3613561565b600860008381526020019081526020016000206040518061018001604052908160008201548152602001600182015481526020016002820160009054906101000a900473ffffffffffffffffffffffffffffffffffffffff1673ffffffffffffffffffffffffffffffffffffffff1673ffffffffffffffffffffffffffffffffffffffff168152602001600382015481526020016004820160009054906101000a900460ff16151515158152602001600582015481526020016006820160009054906101000a900460ff1615151515815260200160078201548152602001600882016040518060600160405290816000820160009054906101000a900473ffffffffffffffffffffffffffffffffffffffff1673ffffffffffffffffffffffffffffffffffffffff1673ffffffffffffffffffffffffffffffffffffffff168152602001600182015481526020016002820160009054906101000a900460ff1615151515815250508152602001600b820180548060200260200160405190810160405280929190818152602001828054801561147e57602002820191906000526020600020905b81548152602001906001019080831161146a575b50505050508152602001600c820160009054906101000a900460ff16151515158152602001600c820160019054906101000a900460ff1615151515815250509050919050565b6000600860008381526020019081526020016000206040518061018001604052908160008201548152602001600182015481526020016002820160009054906101000a900473ffffffffffffffffffffffffffffffffffffffff1673ffffffffffffffffffffffffffffffffffffffff1673ffffffffffffffffffffffffffffffffffffffff168152602001600382015481526020016004820160009054906101000a900460ff16151515158152602001600582015481526020016006820160009054906101000a900460ff1615151515815260200160078201548152602001600882016040518060600160405290816000820160009054906101000a900473ffffffffffffffffffffffffffffffffffffffff1673ffffffffffffffffffffffffffffffffffffffff1673ffffffffffffffffffffffffffffffffffffffff168152602001600182015481526020016002820160009054906101000a900460ff1615151515815250508152602001600b820180548060200260200160405190810160405280929190818152602001828054801561168157602002820191906000526020600020905b81548152602001906001019080831161166d575b50505050508152602001600c820160009054906101000a900460ff16151515158152602001600c820160019054906101000a900460ff16151515158152505090508060600151600f60009054906101000a900473ffffffffffffffffffffffffffffffffffffffff1673ffffffffffffffffffffffffffffffffffffffff166370a08231336040518263ffffffff1660e01b81526004016117229190614450565b60206040518083038186803b15801561173a57600080fd5b505afa15801561174e573d6000803e3d6000fd5b505050506040513d601f19601f820116820180604052508101906117729190613f8b565b10156117b3576040517f08c379a00000000000000000000000000000000000000000000000000000000081526004016117aa906145f3565b60405180910390fd5b600f60009054906101000a900473ffffffffffffffffffffffffffffffffffffffff1673ffffffffffffffffffffffffffffffffffffffff166323b872dd82604001513384606001516040518463ffffffff1660e01b815260040161181a9392919061446b565b602060405180830381600087803b15801561183457600080fd5b505af1158015611848573d6000803e3d6000fd5b505050506040513d601f19601f8201168201806040525081019061186c9190613f31565b50600d60009054906101000a900473ffffffffffffffffffffffffffffffffffffffff1673ffffffffffffffffffffffffffffffffffffffff166342842e0e82604001513384602001516040518463ffffffff1660e01b81526004016118d49392919061446b565b600060405180830381600087803b1580156118ee57600080fd5b505af1158015611902573d6000803e3d6000fd5b505050505050565b3373ffffffffffffffffffffffffffffffffffffffff1661192a87610e18565b73ffffffffffffffffffffffffffffffffffffffff161461194a57600080fd5b61195460016134e8565b600061196060016134fe565b905061196a613561565b818160000181815250508781602001818152505033816040019073ffffffffffffffffffffffffffffffffffffffff16908173ffffffffffffffffffffffffffffffffffffffff1681525050868160600181815250506000816080019015159081151581525050858160a0018181525050848160c0019015159081151581525050838160e00181815250506000816101400190151590811515815250508281610160019015159081151581525050600560003373ffffffffffffffffffffffffffffffffffffffff1673ffffffffffffffffffffffffffffffffffffffff1681526020019081526020016000208190806001815401808255809150506001900390600052602060002090600d0201600090919091909150600082015181600001556020820151816001015560408201518160020160006101000a81548173ffffffffffffffffffffffffffffffffffffffff021916908373ffffffffffffffffffffffffffffffffffffffff1602179055506060820151816003015560808201518160040160006101000a81548160ff02191690831515021790555060a0820151816005015560c08201518160060160006101000a81548160ff02191690831515021790555060e082015181600701556101008201518160080160008201518160000160006101000a81548173ffffffffffffffffffffffffffffffffffffffff021916908373ffffffffffffffffffffffffffffffffffffffff1602179055506020820151816001015560408201518160020160006101000a81548160ff021916908315150217905550505061012082015181600b019080519060200190611bd4929190613514565b5061014082015181600c0160006101000a81548160ff02191690831515021790555061016082015181600c0160016101000a81548160ff02191690831515021790555050508060086000848152602001908152602001600020600082015181600001556020820151816001015560408201518160020160006101000a81548173ffffffffffffffffffffffffffffffffffffffff021916908373ffffffffffffffffffffffffffffffffffffffff1602179055506060820151816003015560808201518160040160006101000a81548160ff02191690831515021790555060a0820151816005015560c08201518160060160006101000a81548160ff02191690831515021790555060e082015181600701556101008201518160080160008201518160000160006101000a81548173ffffffffffffffffffffffffffffffffffffffff021916908373ffffffffffffffffffffffffffffffffffffffff1602179055506020820151816001015560408201518160020160006101000a81548160ff021916908315150217905550505061012082015181600b019080519060200190611d80929190613514565b5061014082015181600c0160006101000a81548160ff02191690831515021790555061016082015181600c0160016101000a81548160ff021916908315150217905550905050600a816000015190806001815401808255809150506001900390600052602060002001600090919091909150555050505050505050565b6000600760008381526020019081526020016000209050600f60009054906101000a900473ffffffffffffffffffffffffffffffffffffffff1673ffffffffffffffffffffffffffffffffffffffff166323b872dd8260060160009054906101000a900473ffffffffffffffffffffffffffffffffffffffff163384600401546040518463ffffffff1660e01b8152600401611e9b9392919061446b565b602060405180830381600087803b158015611eb557600080fd5b505af1158015611ec9573d6000803e3d6000fd5b505050506040513d601f19601f82011682018060405250810190611eed9190613f31565b50600f60009054906101000a900473ffffffffffffffffffffffffffffffffffffffff1673ffffffffffffffffffffffffffffffffffffffff166323b872dd338360060160009054906101000a900473ffffffffffffffffffffffffffffffffffffffff1684600201546040518463ffffffff1660e01b8152600401611f759392919061446b565b602060405180830381600087803b158015611f8f57600080fd5b505af1158015611fa3573d6000803e3d6000fd5b505050506040513d601f19601f82011682018060405250810190611fc79190613f31565b505050565b6000600860008381526020019081526020016000206040518061018001604052908160008201548152602001600182015481526020016002820160009054906101000a900473ffffffffffffffffffffffffffffffffffffffff1673ffffffffffffffffffffffffffffffffffffffff1673ffffffffffffffffffffffffffffffffffffffff168152602001600382015481526020016004820160009054906101000a900460ff16151515158152602001600582015481526020016006820160009054906101000a900460ff1615151515815260200160078201548152602001600882016040518060600160405290816000820160009054906101000a900473ffffffffffffffffffffffffffffffffffffffff1673ffffffffffffffffffffffffffffffffffffffff1673ffffffffffffffffffffffffffffffffffffffff168152602001600182015481526020016002820160009054906101000a900460ff1615151515815250508152602001600b820180548060200260200160405190810160405280929190818152602001828054801561218957602002820191906000526020600020905b815481526020019060010190808311612175575b50505050508152602001600c820160009054906101000a900460ff16151515158152602001600c820160019054906101000a900460ff16151515158152505090503373ffffffffffffffffffffffffffffffffffffffff16816040015173ffffffffffffffffffffffffffffffffffffffff161461220657600080fd5b6000600560003373ffffffffffffffffffffffffffffffffffffffff1673ffffffffffffffffffffffffffffffffffffffff168152602001908152602001600020905060005b818054905081101561289f57600082828154811061226d5761226c61490c565b5b90600052602060002090600d02016040518061018001604052908160008201548152602001600182015481526020016002820160009054906101000a900473ffffffffffffffffffffffffffffffffffffffff1673ffffffffffffffffffffffffffffffffffffffff1673ffffffffffffffffffffffffffffffffffffffff168152602001600382015481526020016004820160009054906101000a900460ff16151515158152602001600582015481526020016006820160009054906101000a900460ff1615151515815260200160078201548152602001600882016040518060600160405290816000820160009054906101000a900473ffffffffffffffffffffffffffffffffffffffff1673ffffffffffffffffffffffffffffffffffffffff1673ffffffffffffffffffffffffffffffffffffffff168152602001600182015481526020016002820160009054906101000a900460ff1615151515815250508152602001600b820180548060200260200160405190810160405280929190818152602001828054801561242357602002820191906000526020600020905b81548152602001906001019080831161240f575b50505050508152602001600c820160009054906101000a900460ff16151515158152602001600c820160019054906101000a900460ff161515151581525050905083600001518160000151141561288b5782600184805490506124869190614712565b815481106124975761249661490c565b5b90600052602060002090600d02018383815481106124b8576124b761490c565b5b90600052602060002090600d020160008201548160000155600182015481600101556002820160009054906101000a900473ffffffffffffffffffffffffffffffffffffffff168160020160006101000a81548173ffffffffffffffffffffffffffffffffffffffff021916908373ffffffffffffffffffffffffffffffffffffffff160217905550600382015481600301556004820160009054906101000a900460ff168160040160006101000a81548160ff021916908315150217905550600582015481600501556006820160009054906101000a900460ff168160060160006101000a81548160ff0219169083151502179055506007820154816007015560088201816008016000820160009054906101000a900473ffffffffffffffffffffffffffffffffffffffff168160000160006101000a81548173ffffffffffffffffffffffffffffffffffffffff021916908373ffffffffffffffffffffffffffffffffffffffff160217905550600182015481600101556002820160009054906101000a900460ff168160020160006101000a81548160ff0219169083151502179055505050600b820181600b019080546126779291906135e6565b50600c820160009054906101000a900460ff1681600c0160006101000a81548160ff021916908315150217905550600c820160019054906101000a900460ff1681600c0160016101000a81548160ff02191690831515021790555090505082600560003373ffffffffffffffffffffffffffffffffffffffff1673ffffffffffffffffffffffffffffffffffffffff168152602001908152602001600020908054612723929190613638565b50600560003373ffffffffffffffffffffffffffffffffffffffff1673ffffffffffffffffffffffffffffffffffffffff168152602001908152602001600020805480612773576127726148dd565b5b60019003818190600052602060002090600d020160008082016000905560018201600090556002820160006101000a81549073ffffffffffffffffffffffffffffffffffffffff021916905560038201600090556004820160006101000a81549060ff021916905560058201600090556006820160006101000a81549060ff0219169055600782016000905560088201600080820160006101000a81549073ffffffffffffffffffffffffffffffffffffffff021916905560018201600090556002820160006101000a81549060ff02191690555050600b82016000612859919061389c565b600c820160006101000a81549060ff0219169055600c820160016101000a81549060ff0219169055505090555061289f565b50808061289790614836565b91505061224c565b50505050565b6000600860008381526020019081526020016000206040518061018001604052908160008201548152602001600182015481526020016002820160009054906101000a900473ffffffffffffffffffffffffffffffffffffffff1673ffffffffffffffffffffffffffffffffffffffff1673ffffffffffffffffffffffffffffffffffffffff168152602001600382015481526020016004820160009054906101000a900460ff16151515158152602001600582015481526020016006820160009054906101000a900460ff1615151515815260200160078201548152602001600882016040518060600160405290816000820160009054906101000a900473ffffffffffffffffffffffffffffffffffffffff1673ffffffffffffffffffffffffffffffffffffffff1673ffffffffffffffffffffffffffffffffffffffff168152602001600182015481526020016002820160009054906101000a900460ff1615151515815250508152602001600b8201805480602002602001604051908101604052809291908181526020018280548015612a6257602002820191906000526020600020905b815481526020019060010190808311612a4e575b50505050508152602001600c820160009054906101000a900460ff16151515158152602001600c820160019054906101000a900460ff161515151581525050905080606001513373ffffffffffffffffffffffffffffffffffffffff16311015612b01576040517f08c379a0000000000000000000000000000000000000000000000000000000008152600401612af8906145f3565b60405180910390fd5b60008160400151905081606001513414612b50576040517f08c379a0000000000000000000000000000000000000000000000000000000008152600401612b4790614533565b60405180910390fd5b612b59816109d1565b600d60009054906101000a900473ffffffffffffffffffffffffffffffffffffffff1673ffffffffffffffffffffffffffffffffffffffff166342842e0e83604001513385602001516040518463ffffffff1660e01b8152600401612bc09392919061446b565b600060405180830381600087803b158015612bda57600080fd5b505af1158015612bee573d6000803e3d6000fd5b50505050505050565b60006007600083815260200190815260200160002090503373ffffffffffffffffffffffffffffffffffffffff168160060160009054906101000a900473ffffffffffffffffffffffffffffffffffffffff1673ffffffffffffffffffffffffffffffffffffffff161480612cbb57503373ffffffffffffffffffffffffffffffffffffffff168160050160009054906101000a900473ffffffffffffffffffffffffffffffffffffffff1673ffffffffffffffffffffffffffffffffffffffff16145b612cc457600080fd5b6000600660008360050160009054906101000a900473ffffffffffffffffffffffffffffffffffffffff1673ffffffffffffffffffffffffffffffffffffffff1673ffffffffffffffffffffffffffffffffffffffff168152602001908152602001600020905060005b81805490508110156132bb576000828281548110612d4f57612d4e61490c565b5b9060005260206000209060070201604051806101200160405290816000820154815260200160018201805480602002602001604051908101604052809291908181526020018280548015612dc257602002820191906000526020600020905b815481526020019060010190808311612dae575b505050505081526020016002820154815260200160038201805480602002602001604051908101604052809291908181526020018280548015612e2457602002820191906000526020600020905b815481526020019060010190808311612e10575b50505050508152602001600482015481526020016005820160009054906101000a900473ffffffffffffffffffffffffffffffffffffffff1673ffffffffffffffffffffffffffffffffffffffff1673ffffffffffffffffffffffffffffffffffffffff1681526020016006820160009054906101000a900473ffffffffffffffffffffffffffffffffffffffff1673ffffffffffffffffffffffffffffffffffffffff1673ffffffffffffffffffffffffffffffffffffffff1681526020016006820160149054906101000a900460ff161515151581526020016006820160159054906101000a900460ff16151515158152505090508360000154816000015114156132a7578260018480549050612f3d9190614712565b81548110612f4e57612f4d61490c565b5b9060005260206000209060070201838381548110612f6f57612f6e61490c565b5b9060005260206000209060070201600082015481600001556001820181600101908054612f9d9291906135e6565b50600282015481600201556003820181600301908054612fbe9291906135e6565b50600482015481600401556005820160009054906101000a900473ffffffffffffffffffffffffffffffffffffffff168160050160006101000a81548173ffffffffffffffffffffffffffffffffffffffff021916908373ffffffffffffffffffffffffffffffffffffffff1602179055506006820160009054906101000a900473ffffffffffffffffffffffffffffffffffffffff168160060160006101000a81548173ffffffffffffffffffffffffffffffffffffffff021916908373ffffffffffffffffffffffffffffffffffffffff1602179055506006820160149054906101000a900460ff168160060160146101000a81548160ff0219169083151502179055506006820160159054906101000a900460ff168160060160156101000a81548160ff02191690831515021790555090505082600660008660050160009054906101000a900473ffffffffffffffffffffffffffffffffffffffff1673ffffffffffffffffffffffffffffffffffffffff1673ffffffffffffffffffffffffffffffffffffffff1681526020019081526020016000209080546131669291906138bd565b50600660008560050160009054906101000a900473ffffffffffffffffffffffffffffffffffffffff1673ffffffffffffffffffffffffffffffffffffffff1673ffffffffffffffffffffffffffffffffffffffff1681526020019081526020016000208054806131da576131d96148dd565b5b6001900381819060005260206000209060070201600080820160009055600182016000613207919061389c565b600282016000905560038201600061321f919061389c565b60048201600090556005820160006101000a81549073ffffffffffffffffffffffffffffffffffffffff02191690556006820160006101000a81549073ffffffffffffffffffffffffffffffffffffffff02191690556006820160146101000a81549060ff02191690556006820160156101000a81549060ff021916905550509055506132bb565b5080806132b390614836565b915050612d2e565b50505050565b6060600a80548060200260200160405190810160405280929190818152602001828054801561330f57602002820191906000526020600020905b8154815260200190600101908083116132fb575b5050505050905090565b600f60009054906101000a900473ffffffffffffffffffffffffffffffffffffffff1681565b61334761350c565b73ffffffffffffffffffffffffffffffffffffffff16613365610ecc565b73ffffffffffffffffffffffffffffffffffffffff16146133bb576040517f08c379a00000000000000000000000000000000000000000000000000000000081526004016133b2906145d3565b60405180910390fd5b600073ffffffffffffffffffffffffffffffffffffffff168173ffffffffffffffffffffffffffffffffffffffff16141561342b576040517f08c379a000000000000000000000000000000000000000000000000000000000815260040161342290614553565b60405180910390fd5b8073ffffffffffffffffffffffffffffffffffffffff1660008054906101000a900473ffffffffffffffffffffffffffffffffffffffff1673ffffffffffffffffffffffffffffffffffffffff167f8be0079c531659141344cd1fd0a4f28419497f9722a3daafe3b4186f6b6457e060405160405180910390a3806000806101000a81548173ffffffffffffffffffffffffffffffffffffffff021916908373ffffffffffffffffffffffffffffffffffffffff16021790555050565b6001816000016000828254019250508190555050565b600081600001549050919050565b600033905090565b828054828255906000526020600020908101928215613550579160200282015b8281111561354f578251825591602001919060010190613534565b5b50905061355d9190613a89565b5090565b6040518061018001604052806000815260200160008152602001600073ffffffffffffffffffffffffffffffffffffffff1681526020016000815260200160001515815260200160008152602001600015158152602001600081526020016135c7613aa6565b8152602001606081526020016000151581526020016000151581525090565b8280548282559060005260206000209081019282156136275760005260206000209182015b8281111561362657825482559160010191906001019061360b565b5b5090506136349190613a89565b5090565b82805482825590600052602060002090600d02810192821561388b57600052602060002091600d0282015b8281111561388a57828260008201548160000155600182015481600101556002820160009054906101000a900473ffffffffffffffffffffffffffffffffffffffff168160020160006101000a81548173ffffffffffffffffffffffffffffffffffffffff021916908373ffffffffffffffffffffffffffffffffffffffff160217905550600382015481600301556004820160009054906101000a900460ff168160040160006101000a81548160ff021916908315150217905550600582015481600501556006820160009054906101000a900460ff168160060160006101000a81548160ff0219169083151502179055506007820154816007015560088201816008016000820160009054906101000a900473ffffffffffffffffffffffffffffffffffffffff168160000160006101000a81548173ffffffffffffffffffffffffffffffffffffffff021916908373ffffffffffffffffffffffffffffffffffffffff160217905550600182015481600101556002820160009054906101000a900460ff168160020160006101000a81548160ff0219169083151502179055505050600b820181600b0190805461381e9291906135e6565b50600c820160009054906101000a900460ff1681600c0160006101000a81548160ff021916908315150217905550600c820160019054906101000a900460ff1681600c0160016101000a81548160ff021916908315150217905550505091600d019190600d0190613663565b5b5090506138989190613adf565b5090565b50805460008255906000526020600020908101906138ba9190613a89565b50565b828054828255906000526020600020906007028101928215613a785760005260206000209160070282015b82811115613a775782826000820154816000015560018201816001019080546139129291906135e6565b506002820154816002015560038201816003019080546139339291906135e6565b50600482015481600401556005820160009054906101000a900473ffffffffffffffffffffffffffffffffffffffff168160050160006101000a81548173ffffffffffffffffffffffffffffffffffffffff021916908373ffffffffffffffffffffffffffffffffffffffff1602179055506006820160009054906101000a900473ffffffffffffffffffffffffffffffffffffffff168160060160006101000a81548173ffffffffffffffffffffffffffffffffffffffff021916908373ffffffffffffffffffffffffffffffffffffffff1602179055506006820160149054906101000a900460ff168160060160146101000a81548160ff0219169083151502179055506006820160159054906101000a900460ff168160060160156101000a81548160ff0219169083151502179055505050916007019190600701906138e8565b5b509050613a859190613bef565b5090565b5b80821115613aa2576000816000905550600101613a8a565b5090565b6040518060600160405280600073ffffffffffffffffffffffffffffffffffffffff168152602001600081526020016000151581525090565b5b80821115613beb5760008082016000905560018201600090556002820160006101000a81549073ffffffffffffffffffffffffffffffffffffffff021916905560038201600090556004820160006101000a81549060ff021916905560058201600090556006820160006101000a81549060ff0219169055600782016000905560088201600080820160006101000a81549073ffffffffffffffffffffffffffffffffffffffff021916905560018201600090556002820160006101000a81549060ff02191690555050600b82016000613bba919061389c565b600c820160006101000a81549060ff0219169055600c820160016101000a81549060ff021916905550600d01613ae0565b5090565b5b80821115613cb057600080820160009055600182016000613c11919061389c565b6002820160009055600382016000613c29919061389c565b60048201600090556005820160006101000a81549073ffffffffffffffffffffffffffffffffffffffff02191690556006820160006101000a81549073ffffffffffffffffffffffffffffffffffffffff02191690556006820160146101000a81549060ff02191690556006820160156101000a81549060ff021916905550600701613bf0565b5090565b6000613cc7613cc284614675565b614650565b90508083825260208201905082856020860282011115613cea57613ce961496f565b5b60005b85811015613d1a5781613d008882613dbb565b845260208401935060208301925050600181019050613ced565b5050509392505050565b600081359050613d3381614b6f565b92915050565b600081519050613d4881614b6f565b92915050565b600081359050613d5d81614b86565b92915050565b600082601f830112613d7857613d7761496a565b5b8135613d88848260208601613cb4565b91505092915050565b600081359050613da081614b9d565b92915050565b600081519050613db581614b9d565b92915050565b600081359050613dca81614bb4565b92915050565b600081519050613ddf81614bb4565b92915050565b600060208284031215613dfb57613dfa614979565b5b6000613e0984828501613d24565b91505092915050565b600060208284031215613e2857613e27614979565b5b6000613e3684828501613d39565b91505092915050565b600060208284031215613e5557613e54614979565b5b6000613e6384828501613d4e565b91505092915050565b60008060008060008060c08789031215613e8957613e88614979565b5b6000613e9789828a01613d24565b965050602087013567ffffffffffffffff811115613eb857613eb7614974565b5b613ec489828a01613d63565b9550506040613ed589828a01613dbb565b945050606087013567ffffffffffffffff811115613ef657613ef5614974565b5b613f0289828a01613d63565b9350506080613f1389828a01613dbb565b92505060a0613f2489828a01613d91565b9150509295509295509295565b600060208284031215613f4757613f46614979565b5b6000613f5584828501613da6565b91505092915050565b600060208284031215613f7457613f73614979565b5b6000613f8284828501613dbb565b91505092915050565b600060208284031215613fa157613fa0614979565b5b6000613faf84828501613dd0565b91505092915050565b60008060408385031215613fcf57613fce614979565b5b6000613fdd85828601613dbb565b9250506020613fee85828601613dbb565b9150509250929050565b60008060008060008060c0878903121561401557614014614979565b5b600061402389828a01613dbb565b965050602061403489828a01613dbb565b955050604061404589828a01613dbb565b945050606061405689828a01613d91565b935050608061406789828a01613dbb565b92505060a061407889828a01613d91565b9150509295509295509295565b6000614091838361441d565b60208301905092915050565b6140a681614746565b82525050565b6140b581614746565b82525050565b60006140c6826146b1565b6140d081856146d4565b93506140db836146a1565b8060005b8381101561410c5781516140f38882614085565b97506140fe836146c7565b9250506001810190506140df565b5085935050505092915050565b6000614124826146b1565b61412e81856146e5565b9350614139836146a1565b8060005b8381101561416a5781516141518882614085565b975061415c836146c7565b92505060018101905061413d565b5085935050505092915050565b6141808161476a565b82525050565b6000614191826146bc565b61419b8185614701565b93506141ab8185602086016147a0565b6141b48161497e565b840191505092915050565b60006141cc603383614701565b91506141d78261498f565b604082019050919050565b60006141ef602683614701565b91506141fa826149de565b604082019050919050565b6000614212601483614701565b915061421d82614a2d565b602082019050919050565b6000614235603d83614701565b915061424082614a56565b604082019050919050565b6000614258603c83614701565b915061426382614aa5565b604082019050919050565b600061427b602083614701565b915061428682614af4565b602082019050919050565b600061429e6000836146f6565b91506142a982614b1d565b600082019050919050565b60006142c1603383614701565b91506142cc82614b20565b604082019050919050565b6060820160008201516142ed600085018261409d565b506020820151614300602085018261441d565b5060408201516143136040850182614177565b50505050565b60006101c083016000830151614332600086018261441d565b506020830151614345602086018261441d565b506040830151614358604086018261409d565b50606083015161436b606086018261441d565b50608083015161437e6080860182614177565b5060a083015161439160a086018261441d565b5060c08301516143a460c0860182614177565b5060e08301516143b760e086018261441d565b506101008301516143cc6101008601826142d7565b506101208301518482036101608601526143e682826140bb565b9150506101408301516143fd610180860182614177565b506101608301516144126101a0860182614177565b508091505092915050565b61442681614796565b82525050565b61443581614796565b82525050565b600061444682614291565b9150819050919050565b600060208201905061446560008301846140ac565b92915050565b600060608201905061448060008301866140ac565b61448d60208301856140ac565b61449a604083018461442c565b949350505050565b600060a0820190506144b760008301886140ac565b81810360208301526144c98187614186565b905081810360408301526144dd8186614186565b905081810360608301526144f18185614186565b905081810360808301526145058184614186565b90509695505050505050565b6000602082019050818103600083015261452b8184614119565b905092915050565b6000602082019050818103600083015261454c816141bf565b9050919050565b6000602082019050818103600083015261456c816141e2565b9050919050565b6000602082019050818103600083015261458c81614205565b9050919050565b600060208201905081810360008301526145ac81614228565b9050919050565b600060208201905081810360008301526145cc8161424b565b9050919050565b600060208201905081810360008301526145ec8161426e565b9050919050565b6000602082019050818103600083015261460c816142b4565b9050919050565b6000602082019050818103600083015261462d8184614319565b905092915050565b600060208201905061464a600083018461442c565b92915050565b600061465a61466b565b90506146668282614805565b919050565b6000604051905090565b600067ffffffffffffffff8211156146905761468f61493b565b5b602082029050602081019050919050565b6000819050602082019050919050565b600081519050919050565b600081519050919050565b6000602082019050919050565b600082825260208201905092915050565b600082825260208201905092915050565b600081905092915050565b600082825260208201905092915050565b600061471d82614796565b915061472883614796565b92508282101561473b5761473a61487f565b5b828203905092915050565b600061475182614776565b9050919050565b600061476382614776565b9050919050565b60008115159050919050565b600073ffffffffffffffffffffffffffffffffffffffff82169050919050565b6000819050919050565b60005b838110156147be5780820151818401526020810190506147a3565b838111156147cd576000848401525b50505050565b600060028204905060018216806147eb57607f821691505b602082108114156147ff576147fe6148ae565b5b50919050565b61480e8261497e565b810181811067ffffffffffffffff8211171561482d5761482c61493b565b5b80604052505050565b600061484182614796565b91507fffffffffffffffffffffffffffffffffffffffffffffffffffffffffffffffff8214156148745761487361487f565b5b600182019050919050565b7f4e487b7100000000000000000000000000000000000000000000000000000000600052601160045260246000fd5b7f4e487b7100000000000000000000000000000000000000000000000000000000600052602260045260246000fd5b7f4e487b7100000000000000000000000000000000000000000000000000000000600052603160045260246000fd5b7f4e487b7100000000000000000000000000000000000000000000000000000000600052603260045260246000fd5b7f4e487b7100000000000000000000000000000000000000000000000000000000600052604160045260246000fd5b600080fd5b600080fd5b600080fd5b600080fd5b6000601f19601f8301169050919050565b7f566972696469616e45786368616e67653a20496e636f727265637420616d6f7560008201527f6e74207061696420746f2066756e6374696f6e00000000000000000000000000602082015250565b7f4f776e61626c653a206e6577206f776e657220697320746865207a65726f206160008201527f6464726573730000000000000000000000000000000000000000000000000000602082015250565b7f4661696c656420746f2073656e64204574686572000000000000000000000000600082015250565b7f566972696469616e4578636861676e653a20426964206d757374206265206c6160008201527f72676572207468616e2063757272656e74206c61726765737420626964000000602082015250565b7f566972696469616e45786368616e67653a2043616e6e6f74206269642c20637560008201527f7272656e74206c697374696e67206973206e6f742061756374696f6e00000000602082015250565b7f4f776e61626c653a2063616c6c6572206973206e6f7420746865206f776e6572600082015250565b50565b7f566972696469616e45786368616e67653a205573657220646f6573206e6f742060008201527f6861766520656e6f7567682062616c616e636500000000000000000000000000602082015250565b614b7881614746565b8114614b8357600080fd5b50565b614b8f81614758565b8114614b9a57600080fd5b50565b614ba68161476a565b8114614bb157600080fd5b50565b614bbd81614796565b8114614bc857600080fd5b5056fea26469706673582212202c6434234d10b23337e0d275a7762e0b9385aa7e6eb609c56ee0bcfc50f143b464736f6c63430008060033",
  "immutableReferences": {},
  "source": "pragma solidity ^0.8.0;\n\nimport \"@openzeppelin/contracts/access/Ownable.sol\";\nimport \"@openzeppelin/contracts/token/ERC721/ERC721.sol\";\nimport \"@openzeppelin/contracts/token/ERC20/IERC20.sol\";\nimport \"@openzeppelin/contracts/token/ERC20/ERC20.sol\";\nimport \"@openzeppelin/contracts/token/ERC721/IERC721.sol\";\n\nimport \"./ViridianNFT.sol\";\n\ncontract ViridianExchange is Ownable {\n\n    struct User {\n        address wallet;\n        string displayName;\n        string coverPhotoURL;\n        string profilePhotoURL;\n        string bio;\n        User[] following;\n        User[] followers;\n        uint256[] likes;\n    }\n\n    struct Offer {\n        uint256 offerId;\n        uint256[] toNftIds;\n        uint toAmt;\n        uint256[] fromNftIds;\n        uint fromAmt;\n        address to;\n        address from;\n        bool isVEXT;\n        bool pending;\n    }\n\n    using Counters for Counters.Counter;\n    Counters.Counter private _listingIds;\n    Counters.Counter private _offerIds;\n    Counters.Counter private _bidIds;\n\n    //address vNFTContract = \n\n    struct Bid {\n        address owner;\n        uint256 amount;\n        bool isVEXT;\n    }\n    \n    struct Listing {\n        uint256 listingId;\n        uint256 tokenId;\n        address owner;\n        uint256 price;\n        bool purchased;\n        uint256 royalty;\n        bool isAuction;\n        uint256 endTime;\n        Bid largestBid;\n        uint256[] bidIds;\n        bool sold;\n        bool isVEXT;\n    }\n\n    struct Collection {\n        string description;\n        uint256[] collectionNFTs;\n    }\n\n    //string[] public nftIds;\n    mapping (address => Collection) displayCases;\n    mapping (address => Listing[]) userListings;\n    mapping (address => Offer[]) userOffers;\n    mapping (uint256 => Offer) offers;\n    mapping (uint256 => Listing) listings;\n    mapping (uint256 => Bid) bids;\n    uint256[] private listingIds;\n    uint256[] private offerIds;\n    User[] public users;\n\n    address public viridianNFT;\n    address public ETH;\n    address public viridianToken;\n\n    constructor( address _viridianToken, address _viridianNFT) {\n        require(address(_viridianToken) != address(0)); \n        //require(address(_ETH) != address(0));\n        require(address(_viridianNFT) != address(0));\n\n        viridianToken = _viridianToken;\n        //address _ETH, ETH = _ETH;\n        viridianNFT = _viridianNFT;\n    }\n\n    function getBalance() public view returns (uint) {\n        return address(this).balance;\n    }\n\n    function getListings() public view returns (uint256[] memory) {\n        return listingIds;\n    }\n\n    function getListingFromId(uint256 _listingId) public view returns (Listing memory) {\n        return listings[_listingId];\n    }\n\n    function getNftOwner(uint256 _nftId) public view returns (address) {\n        return IERC721(viridianNFT).ownerOf(_nftId);\n    }\n\n    function sendEther(address payable _to) public payable {\n        // Call returns a boolean value indicating success or failure.\n        // This is the current recommended method to use.\n        (bool sent, bytes memory data) = _to.call{value: msg.value}(\"\");\n        require(sent, \"Failed to send Ether\");\n    }\n\n    /*\n    uint256 listingId;\n        uint256 tokenId;\n        address owner;\n        uint256 price;\n        bool purchased;\n        uint256 royalty;\n        bool isAuction;\n        uint256 endTime;\n        Bid largestBid;\n        Bid[] bids;\n        bool sold;\n        bool isVEXT;\n    */\n\n    function putUpForSale(uint256 _nftId, uint256 _price, uint256 _royalty, bool _isAuction, uint256 _endTime, bool _isVEXT) public payable {\n        require(getNftOwner(_nftId) == msg.sender);\n\n        _listingIds.increment();\n        uint256 _listingId = _listingIds.current();\n        Listing memory saleListing;\n        saleListing.listingId = _listingId;\n        saleListing.tokenId = _nftId;\n        saleListing.owner = msg.sender;\n        saleListing.price = _price;\n        saleListing.purchased = false;\n        saleListing.royalty = _royalty;\n        saleListing.isAuction = _isAuction;\n        saleListing.endTime = _endTime;\n        saleListing.sold = false;\n        saleListing.isVEXT = _isVEXT;\n\n        //_listingId, _nftId, msg.sender, _price, false, \n        //                                    _royalty, _isAuction, _endTime, Bid(msg.sender, 0, _isVEXT), new Bid[](0), false, _isVEXT);\n        userListings[msg.sender].push(saleListing);\n        listings[_listingId] = saleListing;\n        listingIds.push(saleListing.listingId);\n    }\n\n    function pullFromSale(uint256 _listingId) public {\n        Listing memory curListing = listings[_listingId];\n        require(curListing.owner == msg.sender);\n        Listing[] storage curUserListings = userListings[msg.sender];\n        for (uint i = 0; i < curUserListings.length; i++) {\n            Listing memory listing = curUserListings[i];\n            if (listing.listingId == curListing.listingId) {\n                curUserListings[i] = curUserListings[curUserListings.length - 1];\n                userListings[msg.sender] = curUserListings;\n                userListings[msg.sender].pop();\n                break;\n            }\n        }\n    }\n\n    function buyNFTWithETH(uint256 _listingId) public payable {\n        Listing memory curListing = listings[_listingId];\n\n        require(msg.sender.balance >= curListing.price, 'ViridianExchange: User does not have enough balance');\n        address payable ownerWallet = payable(curListing.owner);\n\n        require(msg.value == curListing.price, 'ViridianExchange: Incorrect amount paid to function');\n\n        sendEther(ownerWallet);\n        \n        IERC721(viridianNFT).safeTransferFrom(curListing.owner, msg.sender, curListing.tokenId);\n    }\n\n    function buyNFTWithVEXT(uint256 _listingId) public payable {\n        Listing memory curListing = listings[_listingId];\n\n        require(IERC20(viridianToken).balanceOf(msg.sender) >= curListing.price, 'ViridianExchange: User does not have enough balance');\n\n        IERC20(viridianToken).transferFrom(curListing.owner, msg.sender, curListing.price);\n        IERC721(viridianNFT).safeTransferFrom(curListing.owner, msg.sender, curListing.tokenId);\n    }\n\n    receive() external payable {}\n\n    // Fallback function is called when msg.data is not empty\n    fallback() external payable {}\n\n    function makeOffer(address _to, uint256[] memory _nftIds, uint256 _amount, uint256[] memory _recNftIds, uint256 _recAmount, bool isVEXT) public {\n        require(_to != msg.sender);\n\n        _offerIds.increment();\n        uint256 _offerId = _offerIds.current();\n\n        Offer memory newOffer = Offer(_offerId, _nftIds, _amount, _recNftIds, _recAmount, _to, msg.sender, isVEXT, true);\n        \n        userOffers[_to].push(newOffer);\n        offers[_offerId] = newOffer;\n    }\n\n    function cancelOffer(uint256 _offerId) public {\n        Offer storage curOffer = offers[_offerId];\n        require(curOffer.from == msg.sender || curOffer.to == msg.sender);\n        Offer[] storage curUserOffers = userOffers[curOffer.to];\n        for (uint i = 0; i < curUserOffers.length; i++) {\n            Offer memory offer = curUserOffers[i];\n            if (offer.offerId == curOffer.offerId) {\n                curUserOffers[i] = curUserOffers[curUserOffers.length - 1];\n                userOffers[curOffer.to] = curUserOffers;\n                userOffers[curOffer.to].pop();\n                break;\n            }\n        }\n    }\n\n    //TODO: Figure out how to send eth from \"from\" wallet to \"to\" wallet.\n    function acceptOfferWithETH(uint256 _offerId) public payable {\n        Offer storage curOffer = offers[_offerId];\n\n        address payable ownerWallet = payable(curOffer.from);\n\n        sendEther(ownerWallet);\n    }\n\n    function acceptOfferWithVEXT(uint256 _offerId) public {\n        Offer storage curOffer = offers[_offerId];\n\n        IERC20(viridianToken).transferFrom(curOffer.from, msg.sender, curOffer.fromAmt);\n\n        IERC20(viridianToken).transferFrom(msg.sender, curOffer.from, curOffer.toAmt);\n        \n    }\n\n    function bidOnAuctionWithVEXT(uint256 _listingId, uint256 _amount) public {\n        Listing storage curListing = listings[_listingId];\n\n        require(curListing.isAuction, 'ViridianExchange: Cannot bid, current listing is not auction');\n        require(curListing.largestBid.amount < _amount, 'ViridianExchagne: Bid must be larger than current largest bid');\n\n        Bid memory newBid = Bid(msg.sender, _amount, true);\n\n        _bidIds.increment();\n        uint256 _bidId = _offerIds.current();\n\n        curListing.bidIds.push(_bidId);\n        bids[_bidId] = newBid;\n        curListing.largestBid = newBid;\n    }\n\n    function bidOnAuctionWithETH(uint256 _listingId, uint256 _amount) public {\n        Listing storage curListing = listings[_listingId];\n\n        require(curListing.isAuction, 'ViridianExchange: Cannot bid, current listing is not auction');\n        require(curListing.largestBid.amount < _amount, 'ViridianExchagne: Bid must be larger than current largest bid');\n\n        Bid memory newBid = Bid(msg.sender, _amount, false);\n\n        _bidIds.increment();\n        uint256 _bidId = _offerIds.current();\n\n        curListing.bidIds.push(_bidId);\n        bids[_bidId] = newBid;\n        curListing.largestBid = newBid;\n    }\n\n    // Probably should just call this straight from the NFT contract\n    // function withdrawNFT(uint256 _nftId) public payable returns(string memory) {\n    //     //Burn NFT\n    //     IERC721(viridianNFT).burn(_nftId);\n    //     //Send message to prompt front-end email sending\n    // }\n}",
  "sourcePath": "/Users/blakehatch/Viridian-Exchange-Contracts/contracts/ViridianExchange.sol",
  "compiler": {
    "name": "solc",
    "version": "0.8.6+commit.11564f7e.Emscripten.clang"
  },
  "schemaVersion": "3.4.1",
  "updatedAt": "2021-07-28T01:03:53.936Z",
  "networkType": "ethereum",
  "devdoc": {
    "kind": "dev",
    "methods": {
      "owner()": {
        "details": "Returns the address of the current owner."
      },
      "renounceOwnership()": {
        "details": "Leaves the contract without owner. It will not be possible to call `onlyOwner` functions anymore. Can only be called by the current owner. NOTE: Renouncing ownership will leave the contract without an owner, thereby removing any functionality that is only available to the owner."
      },
      "transferOwnership(address)": {
        "details": "Transfers ownership of the contract to a new account (`newOwner`). Can only be called by the current owner."
      }
    },
    "version": 1
  },
  "userdoc": {
    "kind": "user",
    "methods": {},
    "version": 1
  }
}